{
	"compilerInput": "{\"language\":\"Solidity\",\"sources\":{\"contracts/carbono.sol\":{\"content\":\"// SPDX-License-Identifier: MIT\\n// Compatible with OpenZeppelin Contracts ^5.4.0\\npragma solidity ^0.8.27;\\n\\nimport {ERC20} from \\\"@openzeppelin/contracts/token/ERC20/ERC20.sol\\\";\\nimport {Ownable} from \\\"@openzeppelin/contracts/access/Ownable.sol\\\";\\nimport {ReentrancyGuard} from \\\"@openzeppelin/contracts/utils/ReentrancyGuard.sol\\\";\\n\\n/**\\n * @title CarbonoToken20 (CBO)\\n * @notice ERC-20 comprable con ETH (buyCarbonoToken20). Precio por defecto: 0.001 ETH por 1 CBO.\\n *   - priceWeiPerToken (wei por token, 18 decimales)\\n *   - setPriceWeiPerToken(): cambia el precio (solo owner)\\n *   - buyCarbonoToken20(): payable, acuña CBO proporcional a msg.value\\n *   - withdraw(): retira el ETH acumulado (solo owner)\\n *\\n * tokensOut = (msg.value * 1e18) / priceWeiPerToken\\n */\\ncontract CarbonoToken20 is ERC20, Ownable, ReentrancyGuard {\\n    // Por defecto 0.001 ether por 1 CBO (1e15 wei)\\n    uint256 public priceWeiPerToken = 1e15;\\n\\n    event CarbonoToken20Purchased(address indexed buyer, uint256 ethIn, uint256 tokensOut);\\n    event PriceUpdated(uint256 newPrice);\\n    event Withdraw(address indexed to, uint256 amount);\\n\\n    constructor() ERC20(\\\"CarbonoToken20\\\", \\\"CBO\\\") Ownable(msg.sender) {}\\n\\n    /// @notice Comprar CBO enviando ETH\\n    function buyCarbonoToken20() public payable nonReentrant {\\n        require(msg.value > 0, \\\"no ETH\\\");\\n        uint256 tokensOut = (msg.value * (10 ** decimals())) / priceWeiPerToken;\\n        require(tokensOut > 0, \\\"too little ETH\\\");\\n        _mint(msg.sender, tokensOut);\\n        emit CarbonoToken20Purchased(msg.sender, msg.value, tokensOut);\\n    }\\n\\n    /// @notice Cambiar el precio (wei por 1 CBO)\\n    function setPriceWeiPerToken(uint256 newPrice) external onlyOwner {\\n        require(newPrice > 0, \\\"price=0\\\");\\n        priceWeiPerToken = newPrice;\\n        emit PriceUpdated(newPrice);\\n    }\\n\\n    /// @notice Retirar el ETH recaudado\\n    function withdraw(address payable to) external onlyOwner {\\n        require(to != address(0), \\\"to=0\\\");\\n        uint256 bal = address(this).balance;\\n        require(bal > 0, \\\"empty\\\");\\n        (bool ok, ) = to.call{value: bal}(\\\"\\\");\\n        require(ok, \\\"withdraw fail\\\");\\n        emit Withdraw(to, bal);\\n    }\\n\\n    /// @notice Recibir ETH directo también compra CBO\\n    receive() external payable {\\n        buyCarbonoToken20();\\n    }\\n}\\n\\n\"},\"@openzeppelin/contracts/utils/ReentrancyGuard.sol\":{\"content\":\"// SPDX-License-Identifier: MIT\\n// OpenZeppelin Contracts (last updated v5.1.0) (utils/ReentrancyGuard.sol)\\n\\npragma solidity ^0.8.20;\\n\\n/**\\n * @dev Contract module that helps prevent reentrant calls to a function.\\n *\\n * Inheriting from `ReentrancyGuard` will make the {nonReentrant} modifier\\n * available, which can be applied to functions to make sure there are no nested\\n * (reentrant) calls to them.\\n *\\n * Note that because there is a single `nonReentrant` guard, functions marked as\\n * `nonReentrant` may not call one another. This can be worked around by making\\n * those functions `private`, and then adding `external` `nonReentrant` entry\\n * points to them.\\n *\\n * TIP: If EIP-1153 (transient storage) is available on the chain you're deploying at,\\n * consider using {ReentrancyGuardTransient} instead.\\n *\\n * TIP: If you would like to learn more about reentrancy and alternative ways\\n * to protect against it, check out our blog post\\n * https://blog.openzeppelin.com/reentrancy-after-istanbul/[Reentrancy After Istanbul].\\n */\\nabstract contract ReentrancyGuard {\\n    // Booleans are more expensive than uint256 or any type that takes up a full\\n    // word because each write operation emits an extra SLOAD to first read the\\n    // slot's contents, replace the bits taken up by the boolean, and then write\\n    // back. This is the compiler's defense against contract upgrades and\\n    // pointer aliasing, and it cannot be disabled.\\n\\n    // The values being non-zero value makes deployment a bit more expensive,\\n    // but in exchange the refund on every call to nonReentrant will be lower in\\n    // amount. Since refunds are capped to a percentage of the total\\n    // transaction's gas, it is best to keep them low in cases like this one, to\\n    // increase the likelihood of the full refund coming into effect.\\n    uint256 private constant NOT_ENTERED = 1;\\n    uint256 private constant ENTERED = 2;\\n\\n    uint256 private _status;\\n\\n    /**\\n     * @dev Unauthorized reentrant call.\\n     */\\n    error ReentrancyGuardReentrantCall();\\n\\n    constructor() {\\n        _status = NOT_ENTERED;\\n    }\\n\\n    /**\\n     * @dev Prevents a contract from calling itself, directly or indirectly.\\n     * Calling a `nonReentrant` function from another `nonReentrant`\\n     * function is not supported. It is possible to prevent this from happening\\n     * by making the `nonReentrant` function external, and making it call a\\n     * `private` function that does the actual work.\\n     */\\n    modifier nonReentrant() {\\n        _nonReentrantBefore();\\n        _;\\n        _nonReentrantAfter();\\n    }\\n\\n    function _nonReentrantBefore() private {\\n        // On the first call to nonReentrant, _status will be NOT_ENTERED\\n        if (_status == ENTERED) {\\n            revert ReentrancyGuardReentrantCall();\\n        }\\n\\n        // Any calls to nonReentrant after this point will fail\\n        _status = ENTERED;\\n    }\\n\\n    function _nonReentrantAfter() private {\\n        // By storing the original value once again, a refund is triggered (see\\n        // https://eips.ethereum.org/EIPS/eip-2200)\\n        _status = NOT_ENTERED;\\n    }\\n\\n    /**\\n     * @dev Returns true if the reentrancy guard is currently set to \\\"entered\\\", which indicates there is a\\n     * `nonReentrant` function in the call stack.\\n     */\\n    function _reentrancyGuardEntered() internal view returns (bool) {\\n        return _status == ENTERED;\\n    }\\n}\\n\"},\"@openzeppelin/contracts/access/Ownable.sol\":{\"content\":\"// SPDX-License-Identifier: MIT\\n// OpenZeppelin Contracts (last updated v5.0.0) (access/Ownable.sol)\\n\\npragma solidity ^0.8.20;\\n\\nimport {Context} from \\\"../utils/Context.sol\\\";\\n\\n/**\\n * @dev Contract module which provides a basic access control mechanism, where\\n * there is an account (an owner) that can be granted exclusive access to\\n * specific functions.\\n *\\n * The initial owner is set to the address provided by the deployer. This can\\n * later be changed with {transferOwnership}.\\n *\\n * This module is used through inheritance. It will make available the modifier\\n * `onlyOwner`, which can be applied to your functions to restrict their use to\\n * the owner.\\n */\\nabstract contract Ownable is Context {\\n    address private _owner;\\n\\n    /**\\n     * @dev The caller account is not authorized to perform an operation.\\n     */\\n    error OwnableUnauthorizedAccount(address account);\\n\\n    /**\\n     * @dev The owner is not a valid owner account. (eg. `address(0)`)\\n     */\\n    error OwnableInvalidOwner(address owner);\\n\\n    event OwnershipTransferred(address indexed previousOwner, address indexed newOwner);\\n\\n    /**\\n     * @dev Initializes the contract setting the address provided by the deployer as the initial owner.\\n     */\\n    constructor(address initialOwner) {\\n        if (initialOwner == address(0)) {\\n            revert OwnableInvalidOwner(address(0));\\n        }\\n        _transferOwnership(initialOwner);\\n    }\\n\\n    /**\\n     * @dev Throws if called by any account other than the owner.\\n     */\\n    modifier onlyOwner() {\\n        _checkOwner();\\n        _;\\n    }\\n\\n    /**\\n     * @dev Returns the address of the current owner.\\n     */\\n    function owner() public view virtual returns (address) {\\n        return _owner;\\n    }\\n\\n    /**\\n     * @dev Throws if the sender is not the owner.\\n     */\\n    function _checkOwner() internal view virtual {\\n        if (owner() != _msgSender()) {\\n            revert OwnableUnauthorizedAccount(_msgSender());\\n        }\\n    }\\n\\n    /**\\n     * @dev Leaves the contract without owner. It will not be possible to call\\n     * `onlyOwner` functions. Can only be called by the current owner.\\n     *\\n     * NOTE: Renouncing ownership will leave the contract without an owner,\\n     * thereby disabling any functionality that is only available to the owner.\\n     */\\n    function renounceOwnership() public virtual onlyOwner {\\n        _transferOwnership(address(0));\\n    }\\n\\n    /**\\n     * @dev Transfers ownership of the contract to a new account (`newOwner`).\\n     * Can only be called by the current owner.\\n     */\\n    function transferOwnership(address newOwner) public virtual onlyOwner {\\n        if (newOwner == address(0)) {\\n            revert OwnableInvalidOwner(address(0));\\n        }\\n        _transferOwnership(newOwner);\\n    }\\n\\n    /**\\n     * @dev Transfers ownership of the contract to a new account (`newOwner`).\\n     * Internal function without access restriction.\\n     */\\n    function _transferOwnership(address newOwner) internal virtual {\\n        address oldOwner = _owner;\\n        _owner = newOwner;\\n        emit OwnershipTransferred(oldOwner, newOwner);\\n    }\\n}\\n\"},\"@openzeppelin/contracts/token/ERC20/ERC20.sol\":{\"content\":\"// SPDX-License-Identifier: MIT\\n// OpenZeppelin Contracts (last updated v5.4.0) (token/ERC20/ERC20.sol)\\n\\npragma solidity ^0.8.20;\\n\\nimport {IERC20} from \\\"./IERC20.sol\\\";\\nimport {IERC20Metadata} from \\\"./extensions/IERC20Metadata.sol\\\";\\nimport {Context} from \\\"../../utils/Context.sol\\\";\\nimport {IERC20Errors} from \\\"../../interfaces/draft-IERC6093.sol\\\";\\n\\n/**\\n * @dev Implementation of the {IERC20} interface.\\n *\\n * This implementation is agnostic to the way tokens are created. This means\\n * that a supply mechanism has to be added in a derived contract using {_mint}.\\n *\\n * TIP: For a detailed writeup see our guide\\n * https://forum.openzeppelin.com/t/how-to-implement-erc20-supply-mechanisms/226[How\\n * to implement supply mechanisms].\\n *\\n * The default value of {decimals} is 18. To change this, you should override\\n * this function so it returns a different value.\\n *\\n * We have followed general OpenZeppelin Contracts guidelines: functions revert\\n * instead returning `false` on failure. This behavior is nonetheless\\n * conventional and does not conflict with the expectations of ERC-20\\n * applications.\\n */\\nabstract contract ERC20 is Context, IERC20, IERC20Metadata, IERC20Errors {\\n    mapping(address account => uint256) private _balances;\\n\\n    mapping(address account => mapping(address spender => uint256)) private _allowances;\\n\\n    uint256 private _totalSupply;\\n\\n    string private _name;\\n    string private _symbol;\\n\\n    /**\\n     * @dev Sets the values for {name} and {symbol}.\\n     *\\n     * Both values are immutable: they can only be set once during construction.\\n     */\\n    constructor(string memory name_, string memory symbol_) {\\n        _name = name_;\\n        _symbol = symbol_;\\n    }\\n\\n    /**\\n     * @dev Returns the name of the token.\\n     */\\n    function name() public view virtual returns (string memory) {\\n        return _name;\\n    }\\n\\n    /**\\n     * @dev Returns the symbol of the token, usually a shorter version of the\\n     * name.\\n     */\\n    function symbol() public view virtual returns (string memory) {\\n        return _symbol;\\n    }\\n\\n    /**\\n     * @dev Returns the number of decimals used to get its user representation.\\n     * For example, if `decimals` equals `2`, a balance of `505` tokens should\\n     * be displayed to a user as `5.05` (`505 / 10 ** 2`).\\n     *\\n     * Tokens usually opt for a value of 18, imitating the relationship between\\n     * Ether and Wei. This is the default value returned by this function, unless\\n     * it's overridden.\\n     *\\n     * NOTE: This information is only used for _display_ purposes: it in\\n     * no way affects any of the arithmetic of the contract, including\\n     * {IERC20-balanceOf} and {IERC20-transfer}.\\n     */\\n    function decimals() public view virtual returns (uint8) {\\n        return 18;\\n    }\\n\\n    /// @inheritdoc IERC20\\n    function totalSupply() public view virtual returns (uint256) {\\n        return _totalSupply;\\n    }\\n\\n    /// @inheritdoc IERC20\\n    function balanceOf(address account) public view virtual returns (uint256) {\\n        return _balances[account];\\n    }\\n\\n    /**\\n     * @dev See {IERC20-transfer}.\\n     *\\n     * Requirements:\\n     *\\n     * - `to` cannot be the zero address.\\n     * - the caller must have a balance of at least `value`.\\n     */\\n    function transfer(address to, uint256 value) public virtual returns (bool) {\\n        address owner = _msgSender();\\n        _transfer(owner, to, value);\\n        return true;\\n    }\\n\\n    /// @inheritdoc IERC20\\n    function allowance(address owner, address spender) public view virtual returns (uint256) {\\n        return _allowances[owner][spender];\\n    }\\n\\n    /**\\n     * @dev See {IERC20-approve}.\\n     *\\n     * NOTE: If `value` is the maximum `uint256`, the allowance is not updated on\\n     * `transferFrom`. This is semantically equivalent to an infinite approval.\\n     *\\n     * Requirements:\\n     *\\n     * - `spender` cannot be the zero address.\\n     */\\n    function approve(address spender, uint256 value) public virtual returns (bool) {\\n        address owner = _msgSender();\\n        _approve(owner, spender, value);\\n        return true;\\n    }\\n\\n    /**\\n     * @dev See {IERC20-transferFrom}.\\n     *\\n     * Skips emitting an {Approval} event indicating an allowance update. This is not\\n     * required by the ERC. See {xref-ERC20-_approve-address-address-uint256-bool-}[_approve].\\n     *\\n     * NOTE: Does not update the allowance if the current allowance\\n     * is the maximum `uint256`.\\n     *\\n     * Requirements:\\n     *\\n     * - `from` and `to` cannot be the zero address.\\n     * - `from` must have a balance of at least `value`.\\n     * - the caller must have allowance for ``from``'s tokens of at least\\n     * `value`.\\n     */\\n    function transferFrom(address from, address to, uint256 value) public virtual returns (bool) {\\n        address spender = _msgSender();\\n        _spendAllowance(from, spender, value);\\n        _transfer(from, to, value);\\n        return true;\\n    }\\n\\n    /**\\n     * @dev Moves a `value` amount of tokens from `from` to `to`.\\n     *\\n     * This internal function is equivalent to {transfer}, and can be used to\\n     * e.g. implement automatic token fees, slashing mechanisms, etc.\\n     *\\n     * Emits a {Transfer} event.\\n     *\\n     * NOTE: This function is not virtual, {_update} should be overridden instead.\\n     */\\n    function _transfer(address from, address to, uint256 value) internal {\\n        if (from == address(0)) {\\n            revert ERC20InvalidSender(address(0));\\n        }\\n        if (to == address(0)) {\\n            revert ERC20InvalidReceiver(address(0));\\n        }\\n        _update(from, to, value);\\n    }\\n\\n    /**\\n     * @dev Transfers a `value` amount of tokens from `from` to `to`, or alternatively mints (or burns) if `from`\\n     * (or `to`) is the zero address. All customizations to transfers, mints, and burns should be done by overriding\\n     * this function.\\n     *\\n     * Emits a {Transfer} event.\\n     */\\n    function _update(address from, address to, uint256 value) internal virtual {\\n        if (from == address(0)) {\\n            // Overflow check required: The rest of the code assumes that totalSupply never overflows\\n            _totalSupply += value;\\n        } else {\\n            uint256 fromBalance = _balances[from];\\n            if (fromBalance < value) {\\n                revert ERC20InsufficientBalance(from, fromBalance, value);\\n            }\\n            unchecked {\\n                // Overflow not possible: value <= fromBalance <= totalSupply.\\n                _balances[from] = fromBalance - value;\\n            }\\n        }\\n\\n        if (to == address(0)) {\\n            unchecked {\\n                // Overflow not possible: value <= totalSupply or value <= fromBalance <= totalSupply.\\n                _totalSupply -= value;\\n            }\\n        } else {\\n            unchecked {\\n                // Overflow not possible: balance + value is at most totalSupply, which we know fits into a uint256.\\n                _balances[to] += value;\\n            }\\n        }\\n\\n        emit Transfer(from, to, value);\\n    }\\n\\n    /**\\n     * @dev Creates a `value` amount of tokens and assigns them to `account`, by transferring it from address(0).\\n     * Relies on the `_update` mechanism\\n     *\\n     * Emits a {Transfer} event with `from` set to the zero address.\\n     *\\n     * NOTE: This function is not virtual, {_update} should be overridden instead.\\n     */\\n    function _mint(address account, uint256 value) internal {\\n        if (account == address(0)) {\\n            revert ERC20InvalidReceiver(address(0));\\n        }\\n        _update(address(0), account, value);\\n    }\\n\\n    /**\\n     * @dev Destroys a `value` amount of tokens from `account`, lowering the total supply.\\n     * Relies on the `_update` mechanism.\\n     *\\n     * Emits a {Transfer} event with `to` set to the zero address.\\n     *\\n     * NOTE: This function is not virtual, {_update} should be overridden instead\\n     */\\n    function _burn(address account, uint256 value) internal {\\n        if (account == address(0)) {\\n            revert ERC20InvalidSender(address(0));\\n        }\\n        _update(account, address(0), value);\\n    }\\n\\n    /**\\n     * @dev Sets `value` as the allowance of `spender` over the `owner`'s tokens.\\n     *\\n     * This internal function is equivalent to `approve`, and can be used to\\n     * e.g. set automatic allowances for certain subsystems, etc.\\n     *\\n     * Emits an {Approval} event.\\n     *\\n     * Requirements:\\n     *\\n     * - `owner` cannot be the zero address.\\n     * - `spender` cannot be the zero address.\\n     *\\n     * Overrides to this logic should be done to the variant with an additional `bool emitEvent` argument.\\n     */\\n    function _approve(address owner, address spender, uint256 value) internal {\\n        _approve(owner, spender, value, true);\\n    }\\n\\n    /**\\n     * @dev Variant of {_approve} with an optional flag to enable or disable the {Approval} event.\\n     *\\n     * By default (when calling {_approve}) the flag is set to true. On the other hand, approval changes made by\\n     * `_spendAllowance` during the `transferFrom` operation set the flag to false. This saves gas by not emitting any\\n     * `Approval` event during `transferFrom` operations.\\n     *\\n     * Anyone who wishes to continue emitting `Approval` events on the`transferFrom` operation can force the flag to\\n     * true using the following override:\\n     *\\n     * ```solidity\\n     * function _approve(address owner, address spender, uint256 value, bool) internal virtual override {\\n     *     super._approve(owner, spender, value, true);\\n     * }\\n     * ```\\n     *\\n     * Requirements are the same as {_approve}.\\n     */\\n    function _approve(address owner, address spender, uint256 value, bool emitEvent) internal virtual {\\n        if (owner == address(0)) {\\n            revert ERC20InvalidApprover(address(0));\\n        }\\n        if (spender == address(0)) {\\n            revert ERC20InvalidSpender(address(0));\\n        }\\n        _allowances[owner][spender] = value;\\n        if (emitEvent) {\\n            emit Approval(owner, spender, value);\\n        }\\n    }\\n\\n    /**\\n     * @dev Updates `owner`'s allowance for `spender` based on spent `value`.\\n     *\\n     * Does not update the allowance value in case of infinite allowance.\\n     * Revert if not enough allowance is available.\\n     *\\n     * Does not emit an {Approval} event.\\n     */\\n    function _spendAllowance(address owner, address spender, uint256 value) internal virtual {\\n        uint256 currentAllowance = allowance(owner, spender);\\n        if (currentAllowance < type(uint256).max) {\\n            if (currentAllowance < value) {\\n                revert ERC20InsufficientAllowance(spender, currentAllowance, value);\\n            }\\n            unchecked {\\n                _approve(owner, spender, currentAllowance - value, false);\\n            }\\n        }\\n    }\\n}\\n\"},\"@openzeppelin/contracts/interfaces/draft-IERC6093.sol\":{\"content\":\"// SPDX-License-Identifier: MIT\\n// OpenZeppelin Contracts (last updated v5.4.0) (interfaces/draft-IERC6093.sol)\\npragma solidity >=0.8.4;\\n\\n/**\\n * @dev Standard ERC-20 Errors\\n * Interface of the https://eips.ethereum.org/EIPS/eip-6093[ERC-6093] custom errors for ERC-20 tokens.\\n */\\ninterface IERC20Errors {\\n    /**\\n     * @dev Indicates an error related to the current `balance` of a `sender`. Used in transfers.\\n     * @param sender Address whose tokens are being transferred.\\n     * @param balance Current balance for the interacting account.\\n     * @param needed Minimum amount required to perform a transfer.\\n     */\\n    error ERC20InsufficientBalance(address sender, uint256 balance, uint256 needed);\\n\\n    /**\\n     * @dev Indicates a failure with the token `sender`. Used in transfers.\\n     * @param sender Address whose tokens are being transferred.\\n     */\\n    error ERC20InvalidSender(address sender);\\n\\n    /**\\n     * @dev Indicates a failure with the token `receiver`. Used in transfers.\\n     * @param receiver Address to which tokens are being transferred.\\n     */\\n    error ERC20InvalidReceiver(address receiver);\\n\\n    /**\\n     * @dev Indicates a failure with the `spender`’s `allowance`. Used in transfers.\\n     * @param spender Address that may be allowed to operate on tokens without being their owner.\\n     * @param allowance Amount of tokens a `spender` is allowed to operate with.\\n     * @param needed Minimum amount required to perform a transfer.\\n     */\\n    error ERC20InsufficientAllowance(address spender, uint256 allowance, uint256 needed);\\n\\n    /**\\n     * @dev Indicates a failure with the `approver` of a token to be approved. Used in approvals.\\n     * @param approver Address initiating an approval operation.\\n     */\\n    error ERC20InvalidApprover(address approver);\\n\\n    /**\\n     * @dev Indicates a failure with the `spender` to be approved. Used in approvals.\\n     * @param spender Address that may be allowed to operate on tokens without being their owner.\\n     */\\n    error ERC20InvalidSpender(address spender);\\n}\\n\\n/**\\n * @dev Standard ERC-721 Errors\\n * Interface of the https://eips.ethereum.org/EIPS/eip-6093[ERC-6093] custom errors for ERC-721 tokens.\\n */\\ninterface IERC721Errors {\\n    /**\\n     * @dev Indicates that an address can't be an owner. For example, `address(0)` is a forbidden owner in ERC-20.\\n     * Used in balance queries.\\n     * @param owner Address of the current owner of a token.\\n     */\\n    error ERC721InvalidOwner(address owner);\\n\\n    /**\\n     * @dev Indicates a `tokenId` whose `owner` is the zero address.\\n     * @param tokenId Identifier number of a token.\\n     */\\n    error ERC721NonexistentToken(uint256 tokenId);\\n\\n    /**\\n     * @dev Indicates an error related to the ownership over a particular token. Used in transfers.\\n     * @param sender Address whose tokens are being transferred.\\n     * @param tokenId Identifier number of a token.\\n     * @param owner Address of the current owner of a token.\\n     */\\n    error ERC721IncorrectOwner(address sender, uint256 tokenId, address owner);\\n\\n    /**\\n     * @dev Indicates a failure with the token `sender`. Used in transfers.\\n     * @param sender Address whose tokens are being transferred.\\n     */\\n    error ERC721InvalidSender(address sender);\\n\\n    /**\\n     * @dev Indicates a failure with the token `receiver`. Used in transfers.\\n     * @param receiver Address to which tokens are being transferred.\\n     */\\n    error ERC721InvalidReceiver(address receiver);\\n\\n    /**\\n     * @dev Indicates a failure with the `operator`’s approval. Used in transfers.\\n     * @param operator Address that may be allowed to operate on tokens without being their owner.\\n     * @param tokenId Identifier number of a token.\\n     */\\n    error ERC721InsufficientApproval(address operator, uint256 tokenId);\\n\\n    /**\\n     * @dev Indicates a failure with the `approver` of a token to be approved. Used in approvals.\\n     * @param approver Address initiating an approval operation.\\n     */\\n    error ERC721InvalidApprover(address approver);\\n\\n    /**\\n     * @dev Indicates a failure with the `operator` to be approved. Used in approvals.\\n     * @param operator Address that may be allowed to operate on tokens without being their owner.\\n     */\\n    error ERC721InvalidOperator(address operator);\\n}\\n\\n/**\\n * @dev Standard ERC-1155 Errors\\n * Interface of the https://eips.ethereum.org/EIPS/eip-6093[ERC-6093] custom errors for ERC-1155 tokens.\\n */\\ninterface IERC1155Errors {\\n    /**\\n     * @dev Indicates an error related to the current `balance` of a `sender`. Used in transfers.\\n     * @param sender Address whose tokens are being transferred.\\n     * @param balance Current balance for the interacting account.\\n     * @param needed Minimum amount required to perform a transfer.\\n     * @param tokenId Identifier number of a token.\\n     */\\n    error ERC1155InsufficientBalance(address sender, uint256 balance, uint256 needed, uint256 tokenId);\\n\\n    /**\\n     * @dev Indicates a failure with the token `sender`. Used in transfers.\\n     * @param sender Address whose tokens are being transferred.\\n     */\\n    error ERC1155InvalidSender(address sender);\\n\\n    /**\\n     * @dev Indicates a failure with the token `receiver`. Used in transfers.\\n     * @param receiver Address to which tokens are being transferred.\\n     */\\n    error ERC1155InvalidReceiver(address receiver);\\n\\n    /**\\n     * @dev Indicates a failure with the `operator`’s approval. Used in transfers.\\n     * @param operator Address that may be allowed to operate on tokens without being their owner.\\n     * @param owner Address of the current owner of a token.\\n     */\\n    error ERC1155MissingApprovalForAll(address operator, address owner);\\n\\n    /**\\n     * @dev Indicates a failure with the `approver` of a token to be approved. Used in approvals.\\n     * @param approver Address initiating an approval operation.\\n     */\\n    error ERC1155InvalidApprover(address approver);\\n\\n    /**\\n     * @dev Indicates a failure with the `operator` to be approved. Used in approvals.\\n     * @param operator Address that may be allowed to operate on tokens without being their owner.\\n     */\\n    error ERC1155InvalidOperator(address operator);\\n\\n    /**\\n     * @dev Indicates an array length mismatch between ids and values in a safeBatchTransferFrom operation.\\n     * Used in batch transfers.\\n     * @param idsLength Length of the array of token identifiers\\n     * @param valuesLength Length of the array of token amounts\\n     */\\n    error ERC1155InvalidArrayLength(uint256 idsLength, uint256 valuesLength);\\n}\\n\"},\"@openzeppelin/contracts/utils/Context.sol\":{\"content\":\"// SPDX-License-Identifier: MIT\\n// OpenZeppelin Contracts (last updated v5.0.1) (utils/Context.sol)\\n\\npragma solidity ^0.8.20;\\n\\n/**\\n * @dev Provides information about the current execution context, including the\\n * sender of the transaction and its data. While these are generally available\\n * via msg.sender and msg.data, they should not be accessed in such a direct\\n * manner, since when dealing with meta-transactions the account sending and\\n * paying for execution may not be the actual sender (as far as an application\\n * is concerned).\\n *\\n * This contract is only required for intermediate, library-like contracts.\\n */\\nabstract contract Context {\\n    function _msgSender() internal view virtual returns (address) {\\n        return msg.sender;\\n    }\\n\\n    function _msgData() internal view virtual returns (bytes calldata) {\\n        return msg.data;\\n    }\\n\\n    function _contextSuffixLength() internal view virtual returns (uint256) {\\n        return 0;\\n    }\\n}\\n\"},\"@openzeppelin/contracts/token/ERC20/extensions/IERC20Metadata.sol\":{\"content\":\"// SPDX-License-Identifier: MIT\\n// OpenZeppelin Contracts (last updated v5.4.0) (token/ERC20/extensions/IERC20Metadata.sol)\\n\\npragma solidity >=0.6.2;\\n\\nimport {IERC20} from \\\"../IERC20.sol\\\";\\n\\n/**\\n * @dev Interface for the optional metadata functions from the ERC-20 standard.\\n */\\ninterface IERC20Metadata is IERC20 {\\n    /**\\n     * @dev Returns the name of the token.\\n     */\\n    function name() external view returns (string memory);\\n\\n    /**\\n     * @dev Returns the symbol of the token.\\n     */\\n    function symbol() external view returns (string memory);\\n\\n    /**\\n     * @dev Returns the decimals places of the token.\\n     */\\n    function decimals() external view returns (uint8);\\n}\\n\"},\"@openzeppelin/contracts/token/ERC20/IERC20.sol\":{\"content\":\"// SPDX-License-Identifier: MIT\\n// OpenZeppelin Contracts (last updated v5.4.0) (token/ERC20/IERC20.sol)\\n\\npragma solidity >=0.4.16;\\n\\n/**\\n * @dev Interface of the ERC-20 standard as defined in the ERC.\\n */\\ninterface IERC20 {\\n    /**\\n     * @dev Emitted when `value` tokens are moved from one account (`from`) to\\n     * another (`to`).\\n     *\\n     * Note that `value` may be zero.\\n     */\\n    event Transfer(address indexed from, address indexed to, uint256 value);\\n\\n    /**\\n     * @dev Emitted when the allowance of a `spender` for an `owner` is set by\\n     * a call to {approve}. `value` is the new allowance.\\n     */\\n    event Approval(address indexed owner, address indexed spender, uint256 value);\\n\\n    /**\\n     * @dev Returns the value of tokens in existence.\\n     */\\n    function totalSupply() external view returns (uint256);\\n\\n    /**\\n     * @dev Returns the value of tokens owned by `account`.\\n     */\\n    function balanceOf(address account) external view returns (uint256);\\n\\n    /**\\n     * @dev Moves a `value` amount of tokens from the caller's account to `to`.\\n     *\\n     * Returns a boolean value indicating whether the operation succeeded.\\n     *\\n     * Emits a {Transfer} event.\\n     */\\n    function transfer(address to, uint256 value) external returns (bool);\\n\\n    /**\\n     * @dev Returns the remaining number of tokens that `spender` will be\\n     * allowed to spend on behalf of `owner` through {transferFrom}. This is\\n     * zero by default.\\n     *\\n     * This value changes when {approve} or {transferFrom} are called.\\n     */\\n    function allowance(address owner, address spender) external view returns (uint256);\\n\\n    /**\\n     * @dev Sets a `value` amount of tokens as the allowance of `spender` over the\\n     * caller's tokens.\\n     *\\n     * Returns a boolean value indicating whether the operation succeeded.\\n     *\\n     * IMPORTANT: Beware that changing an allowance with this method brings the risk\\n     * that someone may use both the old and the new allowance by unfortunate\\n     * transaction ordering. One possible solution to mitigate this race\\n     * condition is to first reduce the spender's allowance to 0 and set the\\n     * desired value afterwards:\\n     * https://github.com/ethereum/EIPs/issues/20#issuecomment-263524729\\n     *\\n     * Emits an {Approval} event.\\n     */\\n    function approve(address spender, uint256 value) external returns (bool);\\n\\n    /**\\n     * @dev Moves a `value` amount of tokens from `from` to `to` using the\\n     * allowance mechanism. `value` is then deducted from the caller's\\n     * allowance.\\n     *\\n     * Returns a boolean value indicating whether the operation succeeded.\\n     *\\n     * Emits a {Transfer} event.\\n     */\\n    function transferFrom(address from, address to, uint256 value) external returns (bool);\\n}\\n\"}},\"settings\":{\"optimizer\":{\"enabled\":false,\"runs\":200},\"outputSelection\":{\"*\":{\"\":[\"ast\"],\"*\":[\"abi\",\"metadata\",\"devdoc\",\"userdoc\",\"storageLayout\",\"evm.legacyAssembly\",\"evm.bytecode\",\"evm.deployedBytecode\",\"evm.methodIdentifiers\",\"evm.gasEstimates\",\"evm.assembly\"]}},\"remappings\":[]}}",
	"name": "CarbonoToken20",
	"bytecode": {
		"linkReferences": {},
		"object": "608060405266038d7ea4c6800060075534801561001a575f5ffd5b50336040518060400160405280600e81526020017f436172626f6e6f546f6b656e32300000000000000000000000000000000000008152506040518060400160405280600381526020017f43424f000000000000000000000000000000000000000000000000000000000081525081600390816100979190610437565b5080600490816100a79190610437565b5050505f73ffffffffffffffffffffffffffffffffffffffff168173ffffffffffffffffffffffffffffffffffffffff160361011a575f6040517f1e4fbdf70000000000000000000000000000000000000000000000000000000081526004016101119190610545565b60405180910390fd5b6101298161013760201b60201c565b50600160068190555061055e565b5f60055f9054906101000a900473ffffffffffffffffffffffffffffffffffffffff1690508160055f6101000a81548173ffffffffffffffffffffffffffffffffffffffff021916908373ffffffffffffffffffffffffffffffffffffffff1602179055508173ffffffffffffffffffffffffffffffffffffffff168173ffffffffffffffffffffffffffffffffffffffff167f8be0079c531659141344cd1fd0a4f28419497f9722a3daafe3b4186f6b6457e060405160405180910390a35050565b5f81519050919050565b7f4e487b71000000000000000000000000000000000000000000000000000000005f52604160045260245ffd5b7f4e487b71000000000000000000000000000000000000000000000000000000005f52602260045260245ffd5b5f600282049050600182168061027557607f821691505b60208210810361028857610287610231565b5b50919050565b5f819050815f5260205f209050919050565b5f6020601f8301049050919050565b5f82821b905092915050565b5f600883026102ea7fffffffffffffffffffffffffffffffffffffffffffffffffffffffffffffffff826102af565b6102f486836102af565b95508019841693508086168417925050509392505050565b5f819050919050565b5f819050919050565b5f61033861033361032e8461030c565b610315565b61030c565b9050919050565b5f819050919050565b6103518361031e565b61036561035d8261033f565b8484546102bb565b825550505050565b5f5f905090565b61037c61036d565b610387818484610348565b505050565b5b818110156103aa5761039f5f82610374565b60018101905061038d565b5050565b601f8211156103ef576103c08161028e565b6103c9846102a0565b810160208510156103d8578190505b6103ec6103e4856102a0565b83018261038c565b50505b505050565b5f82821c905092915050565b5f61040f5f19846008026103f4565b1980831691505092915050565b5f6104278383610400565b9150826002028217905092915050565b610440826101fa565b67ffffffffffffffff81111561045957610458610204565b5b610463825461025e565b61046e8282856103ae565b5f60209050601f83116001811461049f575f841561048d578287015190505b610497858261041c565b8655506104fe565b601f1984166104ad8661028e565b5f5b828110156104d4578489015182556001820191506020850194506020810190506104af565b868310156104f157848901516104ed601f891682610400565b8355505b6001600288020188555050505b505050505050565b5f73ffffffffffffffffffffffffffffffffffffffff82169050919050565b5f61052f82610506565b9050919050565b61053f81610525565b82525050565b5f6020820190506105585f830184610536565b92915050565b611b6e8061056b5f395ff3fe6080604052600436106100f6575f3560e01c8063715018a611610089578063c133106111610058578063c133106114610331578063dbf09d661461033b578063dd62ed3e14610365578063f2fde38b146103a157610105565b8063715018a61461028b5780638da5cb5b146102a157806395d89b41146102cb578063a9059cbb146102f557610105565b8063313ce567116100c5578063313ce567146101d557806351cff8d9146101ff578063707e422f1461022757806370a082311461024f57610105565b806306fdde0314610109578063095ea7b31461013357806318160ddd1461016f57806323b872dd1461019957610105565b36610105576101036103c9565b005b5f5ffd5b348015610114575f5ffd5b5061011d6104e9565b60405161012a9190611267565b60405180910390f35b34801561013e575f5ffd5b5061015960048036038101906101549190611318565b610579565b6040516101669190611370565b60405180910390f35b34801561017a575f5ffd5b5061018361059b565b6040516101909190611398565b60405180910390f35b3480156101a4575f5ffd5b506101bf60048036038101906101ba91906113b1565b6105a4565b6040516101cc9190611370565b60405180910390f35b3480156101e0575f5ffd5b506101e96105d2565b6040516101f6919061141c565b60405180910390f35b34801561020a575f5ffd5b5061022560048036038101906102209190611470565b6105da565b005b348015610232575f5ffd5b5061024d6004803603810190610248919061149b565b610791565b005b34801561025a575f5ffd5b50610275600480360381019061027091906114c6565b61081c565b6040516102829190611398565b60405180910390f35b348015610296575f5ffd5b5061029f610861565b005b3480156102ac575f5ffd5b506102b5610874565b6040516102c29190611500565b60405180910390f35b3480156102d6575f5ffd5b506102df61089c565b6040516102ec9190611267565b60405180910390f35b348015610300575f5ffd5b5061031b60048036038101906103169190611318565b61092c565b6040516103289190611370565b60405180910390f35b6103396103c9565b005b348015610346575f5ffd5b5061034f61094e565b60405161035c9190611398565b60405180910390f35b348015610370575f5ffd5b5061038b60048036038101906103869190611519565b610954565b6040516103989190611398565b60405180910390f35b3480156103ac575f5ffd5b506103c760048036038101906103c291906114c6565b6109d6565b005b6103d1610a5a565b5f3411610413576040517f08c379a000000000000000000000000000000000000000000000000000000000815260040161040a906115a1565b60405180910390fd5b5f60075461041f6105d2565b600a61042b919061171b565b346104369190611765565b61044091906117d3565b90505f8111610484576040517f08c379a000000000000000000000000000000000000000000000000000000000815260040161047b9061184d565b60405180910390fd5b61048e3382610aa0565b3373ffffffffffffffffffffffffffffffffffffffff167f1226f1537b00d316270056dd247f05739ee0aca67a32cdd8258b675b6f0658b034836040516104d692919061186b565b60405180910390a2506104e7610b1f565b565b6060600380546104f8906118bf565b80601f0160208091040260200160405190810160405280929190818152602001828054610524906118bf565b801561056f5780601f106105465761010080835404028352916020019161056f565b820191905f5260205f20905b81548152906001019060200180831161055257829003601f168201915b5050505050905090565b5f5f610583610b29565b9050610590818585610b30565b600191505092915050565b5f600254905090565b5f5f6105ae610b29565b90506105bb858285610b42565b6105c6858585610bd5565b60019150509392505050565b5f6012905090565b6105e2610cc5565b5f73ffffffffffffffffffffffffffffffffffffffff168173ffffffffffffffffffffffffffffffffffffffff1603610650576040517f08c379a000000000000000000000000000000000000000000000000000000000815260040161064790611939565b60405180910390fd5b5f4790505f8111610696576040517f08c379a000000000000000000000000000000000000000000000000000000000815260040161068d906119a1565b60405180910390fd5b5f8273ffffffffffffffffffffffffffffffffffffffff16826040516106bb906119ec565b5f6040518083038185875af1925050503d805f81146106f5576040519150601f19603f3d011682016040523d82523d5f602084013e6106fa565b606091505b505090508061073e576040517f08c379a000000000000000000000000000000000000000000000000000000000815260040161073590611a4a565b60405180910390fd5b8273ffffffffffffffffffffffffffffffffffffffff167f884edad9ce6fa2440d8a54cc123490eb96d2768479d49ff9c7366125a9424364836040516107849190611398565b60405180910390a2505050565b610799610cc5565b5f81116107db576040517f08c379a00000000000000000000000000000000000000000000000000000000081526004016107d290611ab2565b60405180910390fd5b806007819055507f66cbca4f3c64fecf1dcb9ce094abcf7f68c3450a1d4e3a8e917dd621edb4ebe0816040516108119190611398565b60405180910390a150565b5f5f5f8373ffffffffffffffffffffffffffffffffffffffff1673ffffffffffffffffffffffffffffffffffffffff1681526020019081526020015f20549050919050565b610869610cc5565b6108725f610d4c565b565b5f60055f9054906101000a900473ffffffffffffffffffffffffffffffffffffffff16905090565b6060600480546108ab906118bf565b80601f01602080910402602001604051908101604052809291908181526020018280546108d7906118bf565b80156109225780601f106108f957610100808354040283529160200191610922565b820191905f5260205f20905b81548152906001019060200180831161090557829003601f168201915b5050505050905090565b5f5f610936610b29565b9050610943818585610bd5565b600191505092915050565b60075481565b5f60015f8473ffffffffffffffffffffffffffffffffffffffff1673ffffffffffffffffffffffffffffffffffffffff1681526020019081526020015f205f8373ffffffffffffffffffffffffffffffffffffffff1673ffffffffffffffffffffffffffffffffffffffff1681526020019081526020015f2054905092915050565b6109de610cc5565b5f73ffffffffffffffffffffffffffffffffffffffff168173ffffffffffffffffffffffffffffffffffffffff1603610a4e575f6040517f1e4fbdf7000000000000000000000000000000000000000000000000000000008152600401610a459190611500565b60405180910390fd5b610a5781610d4c565b50565b600260065403610a96576040517f3ee5aeb500000000000000000000000000000000000000000000000000000000815260040160405180910390fd5b6002600681905550565b5f73ffffffffffffffffffffffffffffffffffffffff168273ffffffffffffffffffffffffffffffffffffffff1603610b10575f6040517fec442f05000000000000000000000000000000000000000000000000000000008152600401610b079190611500565b60405180910390fd5b610b1b5f8383610e0f565b5050565b6001600681905550565b5f33905090565b610b3d8383836001611028565b505050565b5f610b4d8484610954565b90507fffffffffffffffffffffffffffffffffffffffffffffffffffffffffffffffff811015610bcf5781811015610bc0578281836040517ffb8f41b2000000000000000000000000000000000000000000000000000000008152600401610bb793929190611ad0565b60405180910390fd5b610bce84848484035f611028565b5b50505050565b5f73ffffffffffffffffffffffffffffffffffffffff168373ffffffffffffffffffffffffffffffffffffffff1603610c45575f6040517f96c6fd1e000000000000000000000000000000000000000000000000000000008152600401610c3c9190611500565b60405180910390fd5b5f73ffffffffffffffffffffffffffffffffffffffff168273ffffffffffffffffffffffffffffffffffffffff1603610cb5575f6040517fec442f05000000000000000000000000000000000000000000000000000000008152600401610cac9190611500565b60405180910390fd5b610cc0838383610e0f565b505050565b610ccd610b29565b73ffffffffffffffffffffffffffffffffffffffff16610ceb610874565b73ffffffffffffffffffffffffffffffffffffffff1614610d4a57610d0e610b29565b6040517f118cdaa7000000000000000000000000000000000000000000000000000000008152600401610d419190611500565b60405180910390fd5b565b5f60055f9054906101000a900473ffffffffffffffffffffffffffffffffffffffff1690508160055f6101000a81548173ffffffffffffffffffffffffffffffffffffffff021916908373ffffffffffffffffffffffffffffffffffffffff1602179055508173ffffffffffffffffffffffffffffffffffffffff168173ffffffffffffffffffffffffffffffffffffffff167f8be0079c531659141344cd1fd0a4f28419497f9722a3daafe3b4186f6b6457e060405160405180910390a35050565b5f73ffffffffffffffffffffffffffffffffffffffff168373ffffffffffffffffffffffffffffffffffffffff1603610e5f578060025f828254610e539190611b05565b92505081905550610f2d565b5f5f5f8573ffffffffffffffffffffffffffffffffffffffff1673ffffffffffffffffffffffffffffffffffffffff1681526020019081526020015f2054905081811015610ee8578381836040517fe450d38c000000000000000000000000000000000000000000000000000000008152600401610edf93929190611ad0565b60405180910390fd5b8181035f5f8673ffffffffffffffffffffffffffffffffffffffff1673ffffffffffffffffffffffffffffffffffffffff1681526020019081526020015f2081905550505b5f73ffffffffffffffffffffffffffffffffffffffff168273ffffffffffffffffffffffffffffffffffffffff1603610f74578060025f8282540392505081905550610fbe565b805f5f8473ffffffffffffffffffffffffffffffffffffffff1673ffffffffffffffffffffffffffffffffffffffff1681526020019081526020015f205f82825401925050819055505b8173ffffffffffffffffffffffffffffffffffffffff168373ffffffffffffffffffffffffffffffffffffffff167fddf252ad1be2c89b69c2b068fc378daa952ba7f163c4a11628f55a4df523b3ef8360405161101b9190611398565b60405180910390a3505050565b5f73ffffffffffffffffffffffffffffffffffffffff168473ffffffffffffffffffffffffffffffffffffffff1603611098575f6040517fe602df0500000000000000000000000000000000000000000000000000000000815260040161108f9190611500565b60405180910390fd5b5f73ffffffffffffffffffffffffffffffffffffffff168373ffffffffffffffffffffffffffffffffffffffff1603611108575f6040517f94280d620000000000000000000000000000000000000000000000000000000081526004016110ff9190611500565b60405180910390fd5b8160015f8673ffffffffffffffffffffffffffffffffffffffff1673ffffffffffffffffffffffffffffffffffffffff1681526020019081526020015f205f8573ffffffffffffffffffffffffffffffffffffffff1673ffffffffffffffffffffffffffffffffffffffff1681526020019081526020015f208190555080156111f1578273ffffffffffffffffffffffffffffffffffffffff168473ffffffffffffffffffffffffffffffffffffffff167f8c5be1e5ebec7d5bd14f71427d1e84f3dd0314c0f7b2291e5b200ac8c7c3b925846040516111e89190611398565b60405180910390a35b50505050565b5f81519050919050565b5f82825260208201905092915050565b8281835e5f83830152505050565b5f601f19601f8301169050919050565b5f611239826111f7565b6112438185611201565b9350611253818560208601611211565b61125c8161121f565b840191505092915050565b5f6020820190508181035f83015261127f818461122f565b905092915050565b5f5ffd5b5f73ffffffffffffffffffffffffffffffffffffffff82169050919050565b5f6112b48261128b565b9050919050565b6112c4816112aa565b81146112ce575f5ffd5b50565b5f813590506112df816112bb565b92915050565b5f819050919050565b6112f7816112e5565b8114611301575f5ffd5b50565b5f81359050611312816112ee565b92915050565b5f5f6040838503121561132e5761132d611287565b5b5f61133b858286016112d1565b925050602061134c85828601611304565b9150509250929050565b5f8115159050919050565b61136a81611356565b82525050565b5f6020820190506113835f830184611361565b92915050565b611392816112e5565b82525050565b5f6020820190506113ab5f830184611389565b92915050565b5f5f5f606084860312156113c8576113c7611287565b5b5f6113d5868287016112d1565b93505060206113e6868287016112d1565b92505060406113f786828701611304565b9150509250925092565b5f60ff82169050919050565b61141681611401565b82525050565b5f60208201905061142f5f83018461140d565b92915050565b5f61143f8261128b565b9050919050565b61144f81611435565b8114611459575f5ffd5b50565b5f8135905061146a81611446565b92915050565b5f6020828403121561148557611484611287565b5b5f6114928482850161145c565b91505092915050565b5f602082840312156114b0576114af611287565b5b5f6114bd84828501611304565b91505092915050565b5f602082840312156114db576114da611287565b5b5f6114e8848285016112d1565b91505092915050565b6114fa816112aa565b82525050565b5f6020820190506115135f8301846114f1565b92915050565b5f5f6040838503121561152f5761152e611287565b5b5f61153c858286016112d1565b925050602061154d858286016112d1565b9150509250929050565b7f6e6f2045544800000000000000000000000000000000000000000000000000005f82015250565b5f61158b600683611201565b915061159682611557565b602082019050919050565b5f6020820190508181035f8301526115b88161157f565b9050919050565b7f4e487b71000000000000000000000000000000000000000000000000000000005f52601160045260245ffd5b5f8160011c9050919050565b5f5f8291508390505b60018511156116415780860481111561161d5761161c6115bf565b5b600185161561162c5780820291505b808102905061163a856115ec565b9450611601565b94509492505050565b5f826116595760019050611714565b81611666575f9050611714565b816001811461167c5760028114611686576116b5565b6001915050611714565b60ff841115611698576116976115bf565b5b8360020a9150848211156116af576116ae6115bf565b5b50611714565b5060208310610133831016604e8410600b84101617156116ea5782820a9050838111156116e5576116e46115bf565b5b611714565b6116f784848460016115f8565b9250905081840481111561170e5761170d6115bf565b5b81810290505b9392505050565b5f611725826112e5565b915061173083611401565b925061175d7fffffffffffffffffffffffffffffffffffffffffffffffffffffffffffffffff848461164a565b905092915050565b5f61176f826112e5565b915061177a836112e5565b9250828202611788816112e5565b9150828204841483151761179f5761179e6115bf565b5b5092915050565b7f4e487b71000000000000000000000000000000000000000000000000000000005f52601260045260245ffd5b5f6117dd826112e5565b91506117e8836112e5565b9250826117f8576117f76117a6565b5b828204905092915050565b7f746f6f206c6974746c65204554480000000000000000000000000000000000005f82015250565b5f611837600e83611201565b915061184282611803565b602082019050919050565b5f6020820190508181035f8301526118648161182b565b9050919050565b5f60408201905061187e5f830185611389565b61188b6020830184611389565b9392505050565b7f4e487b71000000000000000000000000000000000000000000000000000000005f52602260045260245ffd5b5f60028204905060018216806118d657607f821691505b6020821081036118e9576118e8611892565b5b50919050565b7f746f3d30000000000000000000000000000000000000000000000000000000005f82015250565b5f611923600483611201565b915061192e826118ef565b602082019050919050565b5f6020820190508181035f83015261195081611917565b9050919050565b7f656d7074790000000000000000000000000000000000000000000000000000005f82015250565b5f61198b600583611201565b915061199682611957565b602082019050919050565b5f6020820190508181035f8301526119b88161197f565b9050919050565b5f81905092915050565b50565b5f6119d75f836119bf565b91506119e2826119c9565b5f82019050919050565b5f6119f6826119cc565b9150819050919050565b7f7769746864726177206661696c000000000000000000000000000000000000005f82015250565b5f611a34600d83611201565b9150611a3f82611a00565b602082019050919050565b5f6020820190508181035f830152611a6181611a28565b9050919050565b7f70726963653d30000000000000000000000000000000000000000000000000005f82015250565b5f611a9c600783611201565b9150611aa782611a68565b602082019050919050565b5f6020820190508181035f830152611ac981611a90565b9050919050565b5f606082019050611ae35f8301866114f1565b611af06020830185611389565b611afd6040830184611389565b949350505050565b5f611b0f826112e5565b9150611b1a836112e5565b9250828201905080821115611b3257611b316115bf565b5b9291505056fea26469706673582212206d2e3883aea79d1b3d43c94261dc2971d8bdeaabcd6b8d337f55462889155bc664736f6c634300081e0033",
		"opcodes": "PUSH1 0x80 PUSH1 0x40 MSTORE PUSH7 0x38D7EA4C68000 PUSH1 0x7 SSTORE CALLVALUE DUP1 ISZERO PUSH2 0x1A JUMPI PUSH0 PUSH0 REVERT JUMPDEST POP CALLER PUSH1 0x40 MLOAD DUP1 PUSH1 0x40 ADD PUSH1 0x40 MSTORE DUP1 PUSH1 0xE DUP2 MSTORE PUSH1 0x20 ADD PUSH32 0x436172626F6E6F546F6B656E3230000000000000000000000000000000000000 DUP2 MSTORE POP PUSH1 0x40 MLOAD DUP1 PUSH1 0x40 ADD PUSH1 0x40 MSTORE DUP1 PUSH1 0x3 DUP2 MSTORE PUSH1 0x20 ADD PUSH32 0x43424F0000000000000000000000000000000000000000000000000000000000 DUP2 MSTORE POP DUP2 PUSH1 0x3 SWAP1 DUP2 PUSH2 0x97 SWAP2 SWAP1 PUSH2 0x437 JUMP JUMPDEST POP DUP1 PUSH1 0x4 SWAP1 DUP2 PUSH2 0xA7 SWAP2 SWAP1 PUSH2 0x437 JUMP JUMPDEST POP POP POP PUSH0 PUSH20 0xFFFFFFFFFFFFFFFFFFFFFFFFFFFFFFFFFFFFFFFF AND DUP2 PUSH20 0xFFFFFFFFFFFFFFFFFFFFFFFFFFFFFFFFFFFFFFFF AND SUB PUSH2 0x11A JUMPI PUSH0 PUSH1 0x40 MLOAD PUSH32 0x1E4FBDF700000000000000000000000000000000000000000000000000000000 DUP2 MSTORE PUSH1 0x4 ADD PUSH2 0x111 SWAP2 SWAP1 PUSH2 0x545 JUMP JUMPDEST PUSH1 0x40 MLOAD DUP1 SWAP2 SUB SWAP1 REVERT JUMPDEST PUSH2 0x129 DUP2 PUSH2 0x137 PUSH1 0x20 SHL PUSH1 0x20 SHR JUMP JUMPDEST POP PUSH1 0x1 PUSH1 0x6 DUP2 SWAP1 SSTORE POP PUSH2 0x55E JUMP JUMPDEST PUSH0 PUSH1 0x5 PUSH0 SWAP1 SLOAD SWAP1 PUSH2 0x100 EXP SWAP1 DIV PUSH20 0xFFFFFFFFFFFFFFFFFFFFFFFFFFFFFFFFFFFFFFFF AND SWAP1 POP DUP2 PUSH1 0x5 PUSH0 PUSH2 0x100 EXP DUP2 SLOAD DUP2 PUSH20 0xFFFFFFFFFFFFFFFFFFFFFFFFFFFFFFFFFFFFFFFF MUL NOT AND SWAP1 DUP4 PUSH20 0xFFFFFFFFFFFFFFFFFFFFFFFFFFFFFFFFFFFFFFFF AND MUL OR SWAP1 SSTORE POP DUP2 PUSH20 0xFFFFFFFFFFFFFFFFFFFFFFFFFFFFFFFFFFFFFFFF AND DUP2 PUSH20 0xFFFFFFFFFFFFFFFFFFFFFFFFFFFFFFFFFFFFFFFF AND PUSH32 0x8BE0079C531659141344CD1FD0A4F28419497F9722A3DAAFE3B4186F6B6457E0 PUSH1 0x40 MLOAD PUSH1 0x40 MLOAD DUP1 SWAP2 SUB SWAP1 LOG3 POP POP JUMP JUMPDEST PUSH0 DUP2 MLOAD SWAP1 POP SWAP2 SWAP1 POP JUMP JUMPDEST PUSH32 0x4E487B7100000000000000000000000000000000000000000000000000000000 PUSH0 MSTORE PUSH1 0x41 PUSH1 0x4 MSTORE PUSH1 0x24 PUSH0 REVERT JUMPDEST PUSH32 0x4E487B7100000000000000000000000000000000000000000000000000000000 PUSH0 MSTORE PUSH1 0x22 PUSH1 0x4 MSTORE PUSH1 0x24 PUSH0 REVERT JUMPDEST PUSH0 PUSH1 0x2 DUP3 DIV SWAP1 POP PUSH1 0x1 DUP3 AND DUP1 PUSH2 0x275 JUMPI PUSH1 0x7F DUP3 AND SWAP2 POP JUMPDEST PUSH1 0x20 DUP3 LT DUP2 SUB PUSH2 0x288 JUMPI PUSH2 0x287 PUSH2 0x231 JUMP JUMPDEST JUMPDEST POP SWAP2 SWAP1 POP JUMP JUMPDEST PUSH0 DUP2 SWAP1 POP DUP2 PUSH0 MSTORE PUSH1 0x20 PUSH0 KECCAK256 SWAP1 POP SWAP2 SWAP1 POP JUMP JUMPDEST PUSH0 PUSH1 0x20 PUSH1 0x1F DUP4 ADD DIV SWAP1 POP SWAP2 SWAP1 POP JUMP JUMPDEST PUSH0 DUP3 DUP3 SHL SWAP1 POP SWAP3 SWAP2 POP POP JUMP JUMPDEST PUSH0 PUSH1 0x8 DUP4 MUL PUSH2 0x2EA PUSH32 0xFFFFFFFFFFFFFFFFFFFFFFFFFFFFFFFFFFFFFFFFFFFFFFFFFFFFFFFFFFFFFFFF DUP3 PUSH2 0x2AF JUMP JUMPDEST PUSH2 0x2F4 DUP7 DUP4 PUSH2 0x2AF JUMP JUMPDEST SWAP6 POP DUP1 NOT DUP5 AND SWAP4 POP DUP1 DUP7 AND DUP5 OR SWAP3 POP POP POP SWAP4 SWAP3 POP POP POP JUMP JUMPDEST PUSH0 DUP2 SWAP1 POP SWAP2 SWAP1 POP JUMP JUMPDEST PUSH0 DUP2 SWAP1 POP SWAP2 SWAP1 POP JUMP JUMPDEST PUSH0 PUSH2 0x338 PUSH2 0x333 PUSH2 0x32E DUP5 PUSH2 0x30C JUMP JUMPDEST PUSH2 0x315 JUMP JUMPDEST PUSH2 0x30C JUMP JUMPDEST SWAP1 POP SWAP2 SWAP1 POP JUMP JUMPDEST PUSH0 DUP2 SWAP1 POP SWAP2 SWAP1 POP JUMP JUMPDEST PUSH2 0x351 DUP4 PUSH2 0x31E JUMP JUMPDEST PUSH2 0x365 PUSH2 0x35D DUP3 PUSH2 0x33F JUMP JUMPDEST DUP5 DUP5 SLOAD PUSH2 0x2BB JUMP JUMPDEST DUP3 SSTORE POP POP POP POP JUMP JUMPDEST PUSH0 PUSH0 SWAP1 POP SWAP1 JUMP JUMPDEST PUSH2 0x37C PUSH2 0x36D JUMP JUMPDEST PUSH2 0x387 DUP2 DUP5 DUP5 PUSH2 0x348 JUMP JUMPDEST POP POP POP JUMP JUMPDEST JUMPDEST DUP2 DUP2 LT ISZERO PUSH2 0x3AA JUMPI PUSH2 0x39F PUSH0 DUP3 PUSH2 0x374 JUMP JUMPDEST PUSH1 0x1 DUP2 ADD SWAP1 POP PUSH2 0x38D JUMP JUMPDEST POP POP JUMP JUMPDEST PUSH1 0x1F DUP3 GT ISZERO PUSH2 0x3EF JUMPI PUSH2 0x3C0 DUP2 PUSH2 0x28E JUMP JUMPDEST PUSH2 0x3C9 DUP5 PUSH2 0x2A0 JUMP JUMPDEST DUP2 ADD PUSH1 0x20 DUP6 LT ISZERO PUSH2 0x3D8 JUMPI DUP2 SWAP1 POP JUMPDEST PUSH2 0x3EC PUSH2 0x3E4 DUP6 PUSH2 0x2A0 JUMP JUMPDEST DUP4 ADD DUP3 PUSH2 0x38C JUMP JUMPDEST POP POP JUMPDEST POP POP POP JUMP JUMPDEST PUSH0 DUP3 DUP3 SHR SWAP1 POP SWAP3 SWAP2 POP POP JUMP JUMPDEST PUSH0 PUSH2 0x40F PUSH0 NOT DUP5 PUSH1 0x8 MUL PUSH2 0x3F4 JUMP JUMPDEST NOT DUP1 DUP4 AND SWAP2 POP POP SWAP3 SWAP2 POP POP JUMP JUMPDEST PUSH0 PUSH2 0x427 DUP4 DUP4 PUSH2 0x400 JUMP JUMPDEST SWAP2 POP DUP3 PUSH1 0x2 MUL DUP3 OR SWAP1 POP SWAP3 SWAP2 POP POP JUMP JUMPDEST PUSH2 0x440 DUP3 PUSH2 0x1FA JUMP JUMPDEST PUSH8 0xFFFFFFFFFFFFFFFF DUP2 GT ISZERO PUSH2 0x459 JUMPI PUSH2 0x458 PUSH2 0x204 JUMP JUMPDEST JUMPDEST PUSH2 0x463 DUP3 SLOAD PUSH2 0x25E JUMP JUMPDEST PUSH2 0x46E DUP3 DUP3 DUP6 PUSH2 0x3AE JUMP JUMPDEST PUSH0 PUSH1 0x20 SWAP1 POP PUSH1 0x1F DUP4 GT PUSH1 0x1 DUP2 EQ PUSH2 0x49F JUMPI PUSH0 DUP5 ISZERO PUSH2 0x48D JUMPI DUP3 DUP8 ADD MLOAD SWAP1 POP JUMPDEST PUSH2 0x497 DUP6 DUP3 PUSH2 0x41C JUMP JUMPDEST DUP7 SSTORE POP PUSH2 0x4FE JUMP JUMPDEST PUSH1 0x1F NOT DUP5 AND PUSH2 0x4AD DUP7 PUSH2 0x28E JUMP JUMPDEST PUSH0 JUMPDEST DUP3 DUP2 LT ISZERO PUSH2 0x4D4 JUMPI DUP5 DUP10 ADD MLOAD DUP3 SSTORE PUSH1 0x1 DUP3 ADD SWAP2 POP PUSH1 0x20 DUP6 ADD SWAP5 POP PUSH1 0x20 DUP2 ADD SWAP1 POP PUSH2 0x4AF JUMP JUMPDEST DUP7 DUP4 LT ISZERO PUSH2 0x4F1 JUMPI DUP5 DUP10 ADD MLOAD PUSH2 0x4ED PUSH1 0x1F DUP10 AND DUP3 PUSH2 0x400 JUMP JUMPDEST DUP4 SSTORE POP JUMPDEST PUSH1 0x1 PUSH1 0x2 DUP9 MUL ADD DUP9 SSTORE POP POP POP JUMPDEST POP POP POP POP POP POP JUMP JUMPDEST PUSH0 PUSH20 0xFFFFFFFFFFFFFFFFFFFFFFFFFFFFFFFFFFFFFFFF DUP3 AND SWAP1 POP SWAP2 SWAP1 POP JUMP JUMPDEST PUSH0 PUSH2 0x52F DUP3 PUSH2 0x506 JUMP JUMPDEST SWAP1 POP SWAP2 SWAP1 POP JUMP JUMPDEST PUSH2 0x53F DUP2 PUSH2 0x525 JUMP JUMPDEST DUP3 MSTORE POP POP JUMP JUMPDEST PUSH0 PUSH1 0x20 DUP3 ADD SWAP1 POP PUSH2 0x558 PUSH0 DUP4 ADD DUP5 PUSH2 0x536 JUMP JUMPDEST SWAP3 SWAP2 POP POP JUMP JUMPDEST PUSH2 0x1B6E DUP1 PUSH2 0x56B PUSH0 CODECOPY PUSH0 RETURN INVALID PUSH1 0x80 PUSH1 0x40 MSTORE PUSH1 0x4 CALLDATASIZE LT PUSH2 0xF6 JUMPI PUSH0 CALLDATALOAD PUSH1 0xE0 SHR DUP1 PUSH4 0x715018A6 GT PUSH2 0x89 JUMPI DUP1 PUSH4 0xC1331061 GT PUSH2 0x58 JUMPI DUP1 PUSH4 0xC1331061 EQ PUSH2 0x331 JUMPI DUP1 PUSH4 0xDBF09D66 EQ PUSH2 0x33B JUMPI DUP1 PUSH4 0xDD62ED3E EQ PUSH2 0x365 JUMPI DUP1 PUSH4 0xF2FDE38B EQ PUSH2 0x3A1 JUMPI PUSH2 0x105 JUMP JUMPDEST DUP1 PUSH4 0x715018A6 EQ PUSH2 0x28B JUMPI DUP1 PUSH4 0x8DA5CB5B EQ PUSH2 0x2A1 JUMPI DUP1 PUSH4 0x95D89B41 EQ PUSH2 0x2CB JUMPI DUP1 PUSH4 0xA9059CBB EQ PUSH2 0x2F5 JUMPI PUSH2 0x105 JUMP JUMPDEST DUP1 PUSH4 0x313CE567 GT PUSH2 0xC5 JUMPI DUP1 PUSH4 0x313CE567 EQ PUSH2 0x1D5 JUMPI DUP1 PUSH4 0x51CFF8D9 EQ PUSH2 0x1FF JUMPI DUP1 PUSH4 0x707E422F EQ PUSH2 0x227 JUMPI DUP1 PUSH4 0x70A08231 EQ PUSH2 0x24F JUMPI PUSH2 0x105 JUMP JUMPDEST DUP1 PUSH4 0x6FDDE03 EQ PUSH2 0x109 JUMPI DUP1 PUSH4 0x95EA7B3 EQ PUSH2 0x133 JUMPI DUP1 PUSH4 0x18160DDD EQ PUSH2 0x16F JUMPI DUP1 PUSH4 0x23B872DD EQ PUSH2 0x199 JUMPI PUSH2 0x105 JUMP JUMPDEST CALLDATASIZE PUSH2 0x105 JUMPI PUSH2 0x103 PUSH2 0x3C9 JUMP JUMPDEST STOP JUMPDEST PUSH0 PUSH0 REVERT JUMPDEST CALLVALUE DUP1 ISZERO PUSH2 0x114 JUMPI PUSH0 PUSH0 REVERT JUMPDEST POP PUSH2 0x11D PUSH2 0x4E9 JUMP JUMPDEST PUSH1 0x40 MLOAD PUSH2 0x12A SWAP2 SWAP1 PUSH2 0x1267 JUMP JUMPDEST PUSH1 0x40 MLOAD DUP1 SWAP2 SUB SWAP1 RETURN JUMPDEST CALLVALUE DUP1 ISZERO PUSH2 0x13E JUMPI PUSH0 PUSH0 REVERT JUMPDEST POP PUSH2 0x159 PUSH1 0x4 DUP1 CALLDATASIZE SUB DUP2 ADD SWAP1 PUSH2 0x154 SWAP2 SWAP1 PUSH2 0x1318 JUMP JUMPDEST PUSH2 0x579 JUMP JUMPDEST PUSH1 0x40 MLOAD PUSH2 0x166 SWAP2 SWAP1 PUSH2 0x1370 JUMP JUMPDEST PUSH1 0x40 MLOAD DUP1 SWAP2 SUB SWAP1 RETURN JUMPDEST CALLVALUE DUP1 ISZERO PUSH2 0x17A JUMPI PUSH0 PUSH0 REVERT JUMPDEST POP PUSH2 0x183 PUSH2 0x59B JUMP JUMPDEST PUSH1 0x40 MLOAD PUSH2 0x190 SWAP2 SWAP1 PUSH2 0x1398 JUMP JUMPDEST PUSH1 0x40 MLOAD DUP1 SWAP2 SUB SWAP1 RETURN JUMPDEST CALLVALUE DUP1 ISZERO PUSH2 0x1A4 JUMPI PUSH0 PUSH0 REVERT JUMPDEST POP PUSH2 0x1BF PUSH1 0x4 DUP1 CALLDATASIZE SUB DUP2 ADD SWAP1 PUSH2 0x1BA SWAP2 SWAP1 PUSH2 0x13B1 JUMP JUMPDEST PUSH2 0x5A4 JUMP JUMPDEST PUSH1 0x40 MLOAD PUSH2 0x1CC SWAP2 SWAP1 PUSH2 0x1370 JUMP JUMPDEST PUSH1 0x40 MLOAD DUP1 SWAP2 SUB SWAP1 RETURN JUMPDEST CALLVALUE DUP1 ISZERO PUSH2 0x1E0 JUMPI PUSH0 PUSH0 REVERT JUMPDEST POP PUSH2 0x1E9 PUSH2 0x5D2 JUMP JUMPDEST PUSH1 0x40 MLOAD PUSH2 0x1F6 SWAP2 SWAP1 PUSH2 0x141C JUMP JUMPDEST PUSH1 0x40 MLOAD DUP1 SWAP2 SUB SWAP1 RETURN JUMPDEST CALLVALUE DUP1 ISZERO PUSH2 0x20A JUMPI PUSH0 PUSH0 REVERT JUMPDEST POP PUSH2 0x225 PUSH1 0x4 DUP1 CALLDATASIZE SUB DUP2 ADD SWAP1 PUSH2 0x220 SWAP2 SWAP1 PUSH2 0x1470 JUMP JUMPDEST PUSH2 0x5DA JUMP JUMPDEST STOP JUMPDEST CALLVALUE DUP1 ISZERO PUSH2 0x232 JUMPI PUSH0 PUSH0 REVERT JUMPDEST POP PUSH2 0x24D PUSH1 0x4 DUP1 CALLDATASIZE SUB DUP2 ADD SWAP1 PUSH2 0x248 SWAP2 SWAP1 PUSH2 0x149B JUMP JUMPDEST PUSH2 0x791 JUMP JUMPDEST STOP JUMPDEST CALLVALUE DUP1 ISZERO PUSH2 0x25A JUMPI PUSH0 PUSH0 REVERT JUMPDEST POP PUSH2 0x275 PUSH1 0x4 DUP1 CALLDATASIZE SUB DUP2 ADD SWAP1 PUSH2 0x270 SWAP2 SWAP1 PUSH2 0x14C6 JUMP JUMPDEST PUSH2 0x81C JUMP JUMPDEST PUSH1 0x40 MLOAD PUSH2 0x282 SWAP2 SWAP1 PUSH2 0x1398 JUMP JUMPDEST PUSH1 0x40 MLOAD DUP1 SWAP2 SUB SWAP1 RETURN JUMPDEST CALLVALUE DUP1 ISZERO PUSH2 0x296 JUMPI PUSH0 PUSH0 REVERT JUMPDEST POP PUSH2 0x29F PUSH2 0x861 JUMP JUMPDEST STOP JUMPDEST CALLVALUE DUP1 ISZERO PUSH2 0x2AC JUMPI PUSH0 PUSH0 REVERT JUMPDEST POP PUSH2 0x2B5 PUSH2 0x874 JUMP JUMPDEST PUSH1 0x40 MLOAD PUSH2 0x2C2 SWAP2 SWAP1 PUSH2 0x1500 JUMP JUMPDEST PUSH1 0x40 MLOAD DUP1 SWAP2 SUB SWAP1 RETURN JUMPDEST CALLVALUE DUP1 ISZERO PUSH2 0x2D6 JUMPI PUSH0 PUSH0 REVERT JUMPDEST POP PUSH2 0x2DF PUSH2 0x89C JUMP JUMPDEST PUSH1 0x40 MLOAD PUSH2 0x2EC SWAP2 SWAP1 PUSH2 0x1267 JUMP JUMPDEST PUSH1 0x40 MLOAD DUP1 SWAP2 SUB SWAP1 RETURN JUMPDEST CALLVALUE DUP1 ISZERO PUSH2 0x300 JUMPI PUSH0 PUSH0 REVERT JUMPDEST POP PUSH2 0x31B PUSH1 0x4 DUP1 CALLDATASIZE SUB DUP2 ADD SWAP1 PUSH2 0x316 SWAP2 SWAP1 PUSH2 0x1318 JUMP JUMPDEST PUSH2 0x92C JUMP JUMPDEST PUSH1 0x40 MLOAD PUSH2 0x328 SWAP2 SWAP1 PUSH2 0x1370 JUMP JUMPDEST PUSH1 0x40 MLOAD DUP1 SWAP2 SUB SWAP1 RETURN JUMPDEST PUSH2 0x339 PUSH2 0x3C9 JUMP JUMPDEST STOP JUMPDEST CALLVALUE DUP1 ISZERO PUSH2 0x346 JUMPI PUSH0 PUSH0 REVERT JUMPDEST POP PUSH2 0x34F PUSH2 0x94E JUMP JUMPDEST PUSH1 0x40 MLOAD PUSH2 0x35C SWAP2 SWAP1 PUSH2 0x1398 JUMP JUMPDEST PUSH1 0x40 MLOAD DUP1 SWAP2 SUB SWAP1 RETURN JUMPDEST CALLVALUE DUP1 ISZERO PUSH2 0x370 JUMPI PUSH0 PUSH0 REVERT JUMPDEST POP PUSH2 0x38B PUSH1 0x4 DUP1 CALLDATASIZE SUB DUP2 ADD SWAP1 PUSH2 0x386 SWAP2 SWAP1 PUSH2 0x1519 JUMP JUMPDEST PUSH2 0x954 JUMP JUMPDEST PUSH1 0x40 MLOAD PUSH2 0x398 SWAP2 SWAP1 PUSH2 0x1398 JUMP JUMPDEST PUSH1 0x40 MLOAD DUP1 SWAP2 SUB SWAP1 RETURN JUMPDEST CALLVALUE DUP1 ISZERO PUSH2 0x3AC JUMPI PUSH0 PUSH0 REVERT JUMPDEST POP PUSH2 0x3C7 PUSH1 0x4 DUP1 CALLDATASIZE SUB DUP2 ADD SWAP1 PUSH2 0x3C2 SWAP2 SWAP1 PUSH2 0x14C6 JUMP JUMPDEST PUSH2 0x9D6 JUMP JUMPDEST STOP JUMPDEST PUSH2 0x3D1 PUSH2 0xA5A JUMP JUMPDEST PUSH0 CALLVALUE GT PUSH2 0x413 JUMPI PUSH1 0x40 MLOAD PUSH32 0x8C379A000000000000000000000000000000000000000000000000000000000 DUP2 MSTORE PUSH1 0x4 ADD PUSH2 0x40A SWAP1 PUSH2 0x15A1 JUMP JUMPDEST PUSH1 0x40 MLOAD DUP1 SWAP2 SUB SWAP1 REVERT JUMPDEST PUSH0 PUSH1 0x7 SLOAD PUSH2 0x41F PUSH2 0x5D2 JUMP JUMPDEST PUSH1 0xA PUSH2 0x42B SWAP2 SWAP1 PUSH2 0x171B JUMP JUMPDEST CALLVALUE PUSH2 0x436 SWAP2 SWAP1 PUSH2 0x1765 JUMP JUMPDEST PUSH2 0x440 SWAP2 SWAP1 PUSH2 0x17D3 JUMP JUMPDEST SWAP1 POP PUSH0 DUP2 GT PUSH2 0x484 JUMPI PUSH1 0x40 MLOAD PUSH32 0x8C379A000000000000000000000000000000000000000000000000000000000 DUP2 MSTORE PUSH1 0x4 ADD PUSH2 0x47B SWAP1 PUSH2 0x184D JUMP JUMPDEST PUSH1 0x40 MLOAD DUP1 SWAP2 SUB SWAP1 REVERT JUMPDEST PUSH2 0x48E CALLER DUP3 PUSH2 0xAA0 JUMP JUMPDEST CALLER PUSH20 0xFFFFFFFFFFFFFFFFFFFFFFFFFFFFFFFFFFFFFFFF AND PUSH32 0x1226F1537B00D316270056DD247F05739EE0ACA67A32CDD8258B675B6F0658B0 CALLVALUE DUP4 PUSH1 0x40 MLOAD PUSH2 0x4D6 SWAP3 SWAP2 SWAP1 PUSH2 0x186B JUMP JUMPDEST PUSH1 0x40 MLOAD DUP1 SWAP2 SUB SWAP1 LOG2 POP PUSH2 0x4E7 PUSH2 0xB1F JUMP JUMPDEST JUMP JUMPDEST PUSH1 0x60 PUSH1 0x3 DUP1 SLOAD PUSH2 0x4F8 SWAP1 PUSH2 0x18BF JUMP JUMPDEST DUP1 PUSH1 0x1F ADD PUSH1 0x20 DUP1 SWAP2 DIV MUL PUSH1 0x20 ADD PUSH1 0x40 MLOAD SWAP1 DUP2 ADD PUSH1 0x40 MSTORE DUP1 SWAP3 SWAP2 SWAP1 DUP2 DUP2 MSTORE PUSH1 0x20 ADD DUP3 DUP1 SLOAD PUSH2 0x524 SWAP1 PUSH2 0x18BF JUMP JUMPDEST DUP1 ISZERO PUSH2 0x56F JUMPI DUP1 PUSH1 0x1F LT PUSH2 0x546 JUMPI PUSH2 0x100 DUP1 DUP4 SLOAD DIV MUL DUP4 MSTORE SWAP2 PUSH1 0x20 ADD SWAP2 PUSH2 0x56F JUMP JUMPDEST DUP3 ADD SWAP2 SWAP1 PUSH0 MSTORE PUSH1 0x20 PUSH0 KECCAK256 SWAP1 JUMPDEST DUP2 SLOAD DUP2 MSTORE SWAP1 PUSH1 0x1 ADD SWAP1 PUSH1 0x20 ADD DUP1 DUP4 GT PUSH2 0x552 JUMPI DUP3 SWAP1 SUB PUSH1 0x1F AND DUP3 ADD SWAP2 JUMPDEST POP POP POP POP POP SWAP1 POP SWAP1 JUMP JUMPDEST PUSH0 PUSH0 PUSH2 0x583 PUSH2 0xB29 JUMP JUMPDEST SWAP1 POP PUSH2 0x590 DUP2 DUP6 DUP6 PUSH2 0xB30 JUMP JUMPDEST PUSH1 0x1 SWAP2 POP POP SWAP3 SWAP2 POP POP JUMP JUMPDEST PUSH0 PUSH1 0x2 SLOAD SWAP1 POP SWAP1 JUMP JUMPDEST PUSH0 PUSH0 PUSH2 0x5AE PUSH2 0xB29 JUMP JUMPDEST SWAP1 POP PUSH2 0x5BB DUP6 DUP3 DUP6 PUSH2 0xB42 JUMP JUMPDEST PUSH2 0x5C6 DUP6 DUP6 DUP6 PUSH2 0xBD5 JUMP JUMPDEST PUSH1 0x1 SWAP2 POP POP SWAP4 SWAP3 POP POP POP JUMP JUMPDEST PUSH0 PUSH1 0x12 SWAP1 POP SWAP1 JUMP JUMPDEST PUSH2 0x5E2 PUSH2 0xCC5 JUMP JUMPDEST PUSH0 PUSH20 0xFFFFFFFFFFFFFFFFFFFFFFFFFFFFFFFFFFFFFFFF AND DUP2 PUSH20 0xFFFFFFFFFFFFFFFFFFFFFFFFFFFFFFFFFFFFFFFF AND SUB PUSH2 0x650 JUMPI PUSH1 0x40 MLOAD PUSH32 0x8C379A000000000000000000000000000000000000000000000000000000000 DUP2 MSTORE PUSH1 0x4 ADD PUSH2 0x647 SWAP1 PUSH2 0x1939 JUMP JUMPDEST PUSH1 0x40 MLOAD DUP1 SWAP2 SUB SWAP1 REVERT JUMPDEST PUSH0 SELFBALANCE SWAP1 POP PUSH0 DUP2 GT PUSH2 0x696 JUMPI PUSH1 0x40 MLOAD PUSH32 0x8C379A000000000000000000000000000000000000000000000000000000000 DUP2 MSTORE PUSH1 0x4 ADD PUSH2 0x68D SWAP1 PUSH2 0x19A1 JUMP JUMPDEST PUSH1 0x40 MLOAD DUP1 SWAP2 SUB SWAP1 REVERT JUMPDEST PUSH0 DUP3 PUSH20 0xFFFFFFFFFFFFFFFFFFFFFFFFFFFFFFFFFFFFFFFF AND DUP3 PUSH1 0x40 MLOAD PUSH2 0x6BB SWAP1 PUSH2 0x19EC JUMP JUMPDEST PUSH0 PUSH1 0x40 MLOAD DUP1 DUP4 SUB DUP2 DUP6 DUP8 GAS CALL SWAP3 POP POP POP RETURNDATASIZE DUP1 PUSH0 DUP2 EQ PUSH2 0x6F5 JUMPI PUSH1 0x40 MLOAD SWAP2 POP PUSH1 0x1F NOT PUSH1 0x3F RETURNDATASIZE ADD AND DUP3 ADD PUSH1 0x40 MSTORE RETURNDATASIZE DUP3 MSTORE RETURNDATASIZE PUSH0 PUSH1 0x20 DUP5 ADD RETURNDATACOPY PUSH2 0x6FA JUMP JUMPDEST PUSH1 0x60 SWAP2 POP JUMPDEST POP POP SWAP1 POP DUP1 PUSH2 0x73E JUMPI PUSH1 0x40 MLOAD PUSH32 0x8C379A000000000000000000000000000000000000000000000000000000000 DUP2 MSTORE PUSH1 0x4 ADD PUSH2 0x735 SWAP1 PUSH2 0x1A4A JUMP JUMPDEST PUSH1 0x40 MLOAD DUP1 SWAP2 SUB SWAP1 REVERT JUMPDEST DUP3 PUSH20 0xFFFFFFFFFFFFFFFFFFFFFFFFFFFFFFFFFFFFFFFF AND PUSH32 0x884EDAD9CE6FA2440D8A54CC123490EB96D2768479D49FF9C7366125A9424364 DUP4 PUSH1 0x40 MLOAD PUSH2 0x784 SWAP2 SWAP1 PUSH2 0x1398 JUMP JUMPDEST PUSH1 0x40 MLOAD DUP1 SWAP2 SUB SWAP1 LOG2 POP POP POP JUMP JUMPDEST PUSH2 0x799 PUSH2 0xCC5 JUMP JUMPDEST PUSH0 DUP2 GT PUSH2 0x7DB JUMPI PUSH1 0x40 MLOAD PUSH32 0x8C379A000000000000000000000000000000000000000000000000000000000 DUP2 MSTORE PUSH1 0x4 ADD PUSH2 0x7D2 SWAP1 PUSH2 0x1AB2 JUMP JUMPDEST PUSH1 0x40 MLOAD DUP1 SWAP2 SUB SWAP1 REVERT JUMPDEST DUP1 PUSH1 0x7 DUP2 SWAP1 SSTORE POP PUSH32 0x66CBCA4F3C64FECF1DCB9CE094ABCF7F68C3450A1D4E3A8E917DD621EDB4EBE0 DUP2 PUSH1 0x40 MLOAD PUSH2 0x811 SWAP2 SWAP1 PUSH2 0x1398 JUMP JUMPDEST PUSH1 0x40 MLOAD DUP1 SWAP2 SUB SWAP1 LOG1 POP JUMP JUMPDEST PUSH0 PUSH0 PUSH0 DUP4 PUSH20 0xFFFFFFFFFFFFFFFFFFFFFFFFFFFFFFFFFFFFFFFF AND PUSH20 0xFFFFFFFFFFFFFFFFFFFFFFFFFFFFFFFFFFFFFFFF AND DUP2 MSTORE PUSH1 0x20 ADD SWAP1 DUP2 MSTORE PUSH1 0x20 ADD PUSH0 KECCAK256 SLOAD SWAP1 POP SWAP2 SWAP1 POP JUMP JUMPDEST PUSH2 0x869 PUSH2 0xCC5 JUMP JUMPDEST PUSH2 0x872 PUSH0 PUSH2 0xD4C JUMP JUMPDEST JUMP JUMPDEST PUSH0 PUSH1 0x5 PUSH0 SWAP1 SLOAD SWAP1 PUSH2 0x100 EXP SWAP1 DIV PUSH20 0xFFFFFFFFFFFFFFFFFFFFFFFFFFFFFFFFFFFFFFFF AND SWAP1 POP SWAP1 JUMP JUMPDEST PUSH1 0x60 PUSH1 0x4 DUP1 SLOAD PUSH2 0x8AB SWAP1 PUSH2 0x18BF JUMP JUMPDEST DUP1 PUSH1 0x1F ADD PUSH1 0x20 DUP1 SWAP2 DIV MUL PUSH1 0x20 ADD PUSH1 0x40 MLOAD SWAP1 DUP2 ADD PUSH1 0x40 MSTORE DUP1 SWAP3 SWAP2 SWAP1 DUP2 DUP2 MSTORE PUSH1 0x20 ADD DUP3 DUP1 SLOAD PUSH2 0x8D7 SWAP1 PUSH2 0x18BF JUMP JUMPDEST DUP1 ISZERO PUSH2 0x922 JUMPI DUP1 PUSH1 0x1F LT PUSH2 0x8F9 JUMPI PUSH2 0x100 DUP1 DUP4 SLOAD DIV MUL DUP4 MSTORE SWAP2 PUSH1 0x20 ADD SWAP2 PUSH2 0x922 JUMP JUMPDEST DUP3 ADD SWAP2 SWAP1 PUSH0 MSTORE PUSH1 0x20 PUSH0 KECCAK256 SWAP1 JUMPDEST DUP2 SLOAD DUP2 MSTORE SWAP1 PUSH1 0x1 ADD SWAP1 PUSH1 0x20 ADD DUP1 DUP4 GT PUSH2 0x905 JUMPI DUP3 SWAP1 SUB PUSH1 0x1F AND DUP3 ADD SWAP2 JUMPDEST POP POP POP POP POP SWAP1 POP SWAP1 JUMP JUMPDEST PUSH0 PUSH0 PUSH2 0x936 PUSH2 0xB29 JUMP JUMPDEST SWAP1 POP PUSH2 0x943 DUP2 DUP6 DUP6 PUSH2 0xBD5 JUMP JUMPDEST PUSH1 0x1 SWAP2 POP POP SWAP3 SWAP2 POP POP JUMP JUMPDEST PUSH1 0x7 SLOAD DUP2 JUMP JUMPDEST PUSH0 PUSH1 0x1 PUSH0 DUP5 PUSH20 0xFFFFFFFFFFFFFFFFFFFFFFFFFFFFFFFFFFFFFFFF AND PUSH20 0xFFFFFFFFFFFFFFFFFFFFFFFFFFFFFFFFFFFFFFFF AND DUP2 MSTORE PUSH1 0x20 ADD SWAP1 DUP2 MSTORE PUSH1 0x20 ADD PUSH0 KECCAK256 PUSH0 DUP4 PUSH20 0xFFFFFFFFFFFFFFFFFFFFFFFFFFFFFFFFFFFFFFFF AND PUSH20 0xFFFFFFFFFFFFFFFFFFFFFFFFFFFFFFFFFFFFFFFF AND DUP2 MSTORE PUSH1 0x20 ADD SWAP1 DUP2 MSTORE PUSH1 0x20 ADD PUSH0 KECCAK256 SLOAD SWAP1 POP SWAP3 SWAP2 POP POP JUMP JUMPDEST PUSH2 0x9DE PUSH2 0xCC5 JUMP JUMPDEST PUSH0 PUSH20 0xFFFFFFFFFFFFFFFFFFFFFFFFFFFFFFFFFFFFFFFF AND DUP2 PUSH20 0xFFFFFFFFFFFFFFFFFFFFFFFFFFFFFFFFFFFFFFFF AND SUB PUSH2 0xA4E JUMPI PUSH0 PUSH1 0x40 MLOAD PUSH32 0x1E4FBDF700000000000000000000000000000000000000000000000000000000 DUP2 MSTORE PUSH1 0x4 ADD PUSH2 0xA45 SWAP2 SWAP1 PUSH2 0x1500 JUMP JUMPDEST PUSH1 0x40 MLOAD DUP1 SWAP2 SUB SWAP1 REVERT JUMPDEST PUSH2 0xA57 DUP2 PUSH2 0xD4C JUMP JUMPDEST POP JUMP JUMPDEST PUSH1 0x2 PUSH1 0x6 SLOAD SUB PUSH2 0xA96 JUMPI PUSH1 0x40 MLOAD PUSH32 0x3EE5AEB500000000000000000000000000000000000000000000000000000000 DUP2 MSTORE PUSH1 0x4 ADD PUSH1 0x40 MLOAD DUP1 SWAP2 SUB SWAP1 REVERT JUMPDEST PUSH1 0x2 PUSH1 0x6 DUP2 SWAP1 SSTORE POP JUMP JUMPDEST PUSH0 PUSH20 0xFFFFFFFFFFFFFFFFFFFFFFFFFFFFFFFFFFFFFFFF AND DUP3 PUSH20 0xFFFFFFFFFFFFFFFFFFFFFFFFFFFFFFFFFFFFFFFF AND SUB PUSH2 0xB10 JUMPI PUSH0 PUSH1 0x40 MLOAD PUSH32 0xEC442F0500000000000000000000000000000000000000000000000000000000 DUP2 MSTORE PUSH1 0x4 ADD PUSH2 0xB07 SWAP2 SWAP1 PUSH2 0x1500 JUMP JUMPDEST PUSH1 0x40 MLOAD DUP1 SWAP2 SUB SWAP1 REVERT JUMPDEST PUSH2 0xB1B PUSH0 DUP4 DUP4 PUSH2 0xE0F JUMP JUMPDEST POP POP JUMP JUMPDEST PUSH1 0x1 PUSH1 0x6 DUP2 SWAP1 SSTORE POP JUMP JUMPDEST PUSH0 CALLER SWAP1 POP SWAP1 JUMP JUMPDEST PUSH2 0xB3D DUP4 DUP4 DUP4 PUSH1 0x1 PUSH2 0x1028 JUMP JUMPDEST POP POP POP JUMP JUMPDEST PUSH0 PUSH2 0xB4D DUP5 DUP5 PUSH2 0x954 JUMP JUMPDEST SWAP1 POP PUSH32 0xFFFFFFFFFFFFFFFFFFFFFFFFFFFFFFFFFFFFFFFFFFFFFFFFFFFFFFFFFFFFFFFF DUP2 LT ISZERO PUSH2 0xBCF JUMPI DUP2 DUP2 LT ISZERO PUSH2 0xBC0 JUMPI DUP3 DUP2 DUP4 PUSH1 0x40 MLOAD PUSH32 0xFB8F41B200000000000000000000000000000000000000000000000000000000 DUP2 MSTORE PUSH1 0x4 ADD PUSH2 0xBB7 SWAP4 SWAP3 SWAP2 SWAP1 PUSH2 0x1AD0 JUMP JUMPDEST PUSH1 0x40 MLOAD DUP1 SWAP2 SUB SWAP1 REVERT JUMPDEST PUSH2 0xBCE DUP5 DUP5 DUP5 DUP5 SUB PUSH0 PUSH2 0x1028 JUMP JUMPDEST JUMPDEST POP POP POP POP JUMP JUMPDEST PUSH0 PUSH20 0xFFFFFFFFFFFFFFFFFFFFFFFFFFFFFFFFFFFFFFFF AND DUP4 PUSH20 0xFFFFFFFFFFFFFFFFFFFFFFFFFFFFFFFFFFFFFFFF AND SUB PUSH2 0xC45 JUMPI PUSH0 PUSH1 0x40 MLOAD PUSH32 0x96C6FD1E00000000000000000000000000000000000000000000000000000000 DUP2 MSTORE PUSH1 0x4 ADD PUSH2 0xC3C SWAP2 SWAP1 PUSH2 0x1500 JUMP JUMPDEST PUSH1 0x40 MLOAD DUP1 SWAP2 SUB SWAP1 REVERT JUMPDEST PUSH0 PUSH20 0xFFFFFFFFFFFFFFFFFFFFFFFFFFFFFFFFFFFFFFFF AND DUP3 PUSH20 0xFFFFFFFFFFFFFFFFFFFFFFFFFFFFFFFFFFFFFFFF AND SUB PUSH2 0xCB5 JUMPI PUSH0 PUSH1 0x40 MLOAD PUSH32 0xEC442F0500000000000000000000000000000000000000000000000000000000 DUP2 MSTORE PUSH1 0x4 ADD PUSH2 0xCAC SWAP2 SWAP1 PUSH2 0x1500 JUMP JUMPDEST PUSH1 0x40 MLOAD DUP1 SWAP2 SUB SWAP1 REVERT JUMPDEST PUSH2 0xCC0 DUP4 DUP4 DUP4 PUSH2 0xE0F JUMP JUMPDEST POP POP POP JUMP JUMPDEST PUSH2 0xCCD PUSH2 0xB29 JUMP JUMPDEST PUSH20 0xFFFFFFFFFFFFFFFFFFFFFFFFFFFFFFFFFFFFFFFF AND PUSH2 0xCEB PUSH2 0x874 JUMP JUMPDEST PUSH20 0xFFFFFFFFFFFFFFFFFFFFFFFFFFFFFFFFFFFFFFFF AND EQ PUSH2 0xD4A JUMPI PUSH2 0xD0E PUSH2 0xB29 JUMP JUMPDEST PUSH1 0x40 MLOAD PUSH32 0x118CDAA700000000000000000000000000000000000000000000000000000000 DUP2 MSTORE PUSH1 0x4 ADD PUSH2 0xD41 SWAP2 SWAP1 PUSH2 0x1500 JUMP JUMPDEST PUSH1 0x40 MLOAD DUP1 SWAP2 SUB SWAP1 REVERT JUMPDEST JUMP JUMPDEST PUSH0 PUSH1 0x5 PUSH0 SWAP1 SLOAD SWAP1 PUSH2 0x100 EXP SWAP1 DIV PUSH20 0xFFFFFFFFFFFFFFFFFFFFFFFFFFFFFFFFFFFFFFFF AND SWAP1 POP DUP2 PUSH1 0x5 PUSH0 PUSH2 0x100 EXP DUP2 SLOAD DUP2 PUSH20 0xFFFFFFFFFFFFFFFFFFFFFFFFFFFFFFFFFFFFFFFF MUL NOT AND SWAP1 DUP4 PUSH20 0xFFFFFFFFFFFFFFFFFFFFFFFFFFFFFFFFFFFFFFFF AND MUL OR SWAP1 SSTORE POP DUP2 PUSH20 0xFFFFFFFFFFFFFFFFFFFFFFFFFFFFFFFFFFFFFFFF AND DUP2 PUSH20 0xFFFFFFFFFFFFFFFFFFFFFFFFFFFFFFFFFFFFFFFF AND PUSH32 0x8BE0079C531659141344CD1FD0A4F28419497F9722A3DAAFE3B4186F6B6457E0 PUSH1 0x40 MLOAD PUSH1 0x40 MLOAD DUP1 SWAP2 SUB SWAP1 LOG3 POP POP JUMP JUMPDEST PUSH0 PUSH20 0xFFFFFFFFFFFFFFFFFFFFFFFFFFFFFFFFFFFFFFFF AND DUP4 PUSH20 0xFFFFFFFFFFFFFFFFFFFFFFFFFFFFFFFFFFFFFFFF AND SUB PUSH2 0xE5F JUMPI DUP1 PUSH1 0x2 PUSH0 DUP3 DUP3 SLOAD PUSH2 0xE53 SWAP2 SWAP1 PUSH2 0x1B05 JUMP JUMPDEST SWAP3 POP POP DUP2 SWAP1 SSTORE POP PUSH2 0xF2D JUMP JUMPDEST PUSH0 PUSH0 PUSH0 DUP6 PUSH20 0xFFFFFFFFFFFFFFFFFFFFFFFFFFFFFFFFFFFFFFFF AND PUSH20 0xFFFFFFFFFFFFFFFFFFFFFFFFFFFFFFFFFFFFFFFF AND DUP2 MSTORE PUSH1 0x20 ADD SWAP1 DUP2 MSTORE PUSH1 0x20 ADD PUSH0 KECCAK256 SLOAD SWAP1 POP DUP2 DUP2 LT ISZERO PUSH2 0xEE8 JUMPI DUP4 DUP2 DUP4 PUSH1 0x40 MLOAD PUSH32 0xE450D38C00000000000000000000000000000000000000000000000000000000 DUP2 MSTORE PUSH1 0x4 ADD PUSH2 0xEDF SWAP4 SWAP3 SWAP2 SWAP1 PUSH2 0x1AD0 JUMP JUMPDEST PUSH1 0x40 MLOAD DUP1 SWAP2 SUB SWAP1 REVERT JUMPDEST DUP2 DUP2 SUB PUSH0 PUSH0 DUP7 PUSH20 0xFFFFFFFFFFFFFFFFFFFFFFFFFFFFFFFFFFFFFFFF AND PUSH20 0xFFFFFFFFFFFFFFFFFFFFFFFFFFFFFFFFFFFFFFFF AND DUP2 MSTORE PUSH1 0x20 ADD SWAP1 DUP2 MSTORE PUSH1 0x20 ADD PUSH0 KECCAK256 DUP2 SWAP1 SSTORE POP POP JUMPDEST PUSH0 PUSH20 0xFFFFFFFFFFFFFFFFFFFFFFFFFFFFFFFFFFFFFFFF AND DUP3 PUSH20 0xFFFFFFFFFFFFFFFFFFFFFFFFFFFFFFFFFFFFFFFF AND SUB PUSH2 0xF74 JUMPI DUP1 PUSH1 0x2 PUSH0 DUP3 DUP3 SLOAD SUB SWAP3 POP POP DUP2 SWAP1 SSTORE POP PUSH2 0xFBE JUMP JUMPDEST DUP1 PUSH0 PUSH0 DUP5 PUSH20 0xFFFFFFFFFFFFFFFFFFFFFFFFFFFFFFFFFFFFFFFF AND PUSH20 0xFFFFFFFFFFFFFFFFFFFFFFFFFFFFFFFFFFFFFFFF AND DUP2 MSTORE PUSH1 0x20 ADD SWAP1 DUP2 MSTORE PUSH1 0x20 ADD PUSH0 KECCAK256 PUSH0 DUP3 DUP3 SLOAD ADD SWAP3 POP POP DUP2 SWAP1 SSTORE POP JUMPDEST DUP2 PUSH20 0xFFFFFFFFFFFFFFFFFFFFFFFFFFFFFFFFFFFFFFFF AND DUP4 PUSH20 0xFFFFFFFFFFFFFFFFFFFFFFFFFFFFFFFFFFFFFFFF AND PUSH32 0xDDF252AD1BE2C89B69C2B068FC378DAA952BA7F163C4A11628F55A4DF523B3EF DUP4 PUSH1 0x40 MLOAD PUSH2 0x101B SWAP2 SWAP1 PUSH2 0x1398 JUMP JUMPDEST PUSH1 0x40 MLOAD DUP1 SWAP2 SUB SWAP1 LOG3 POP POP POP JUMP JUMPDEST PUSH0 PUSH20 0xFFFFFFFFFFFFFFFFFFFFFFFFFFFFFFFFFFFFFFFF AND DUP5 PUSH20 0xFFFFFFFFFFFFFFFFFFFFFFFFFFFFFFFFFFFFFFFF AND SUB PUSH2 0x1098 JUMPI PUSH0 PUSH1 0x40 MLOAD PUSH32 0xE602DF0500000000000000000000000000000000000000000000000000000000 DUP2 MSTORE PUSH1 0x4 ADD PUSH2 0x108F SWAP2 SWAP1 PUSH2 0x1500 JUMP JUMPDEST PUSH1 0x40 MLOAD DUP1 SWAP2 SUB SWAP1 REVERT JUMPDEST PUSH0 PUSH20 0xFFFFFFFFFFFFFFFFFFFFFFFFFFFFFFFFFFFFFFFF AND DUP4 PUSH20 0xFFFFFFFFFFFFFFFFFFFFFFFFFFFFFFFFFFFFFFFF AND SUB PUSH2 0x1108 JUMPI PUSH0 PUSH1 0x40 MLOAD PUSH32 0x94280D6200000000000000000000000000000000000000000000000000000000 DUP2 MSTORE PUSH1 0x4 ADD PUSH2 0x10FF SWAP2 SWAP1 PUSH2 0x1500 JUMP JUMPDEST PUSH1 0x40 MLOAD DUP1 SWAP2 SUB SWAP1 REVERT JUMPDEST DUP2 PUSH1 0x1 PUSH0 DUP7 PUSH20 0xFFFFFFFFFFFFFFFFFFFFFFFFFFFFFFFFFFFFFFFF AND PUSH20 0xFFFFFFFFFFFFFFFFFFFFFFFFFFFFFFFFFFFFFFFF AND DUP2 MSTORE PUSH1 0x20 ADD SWAP1 DUP2 MSTORE PUSH1 0x20 ADD PUSH0 KECCAK256 PUSH0 DUP6 PUSH20 0xFFFFFFFFFFFFFFFFFFFFFFFFFFFFFFFFFFFFFFFF AND PUSH20 0xFFFFFFFFFFFFFFFFFFFFFFFFFFFFFFFFFFFFFFFF AND DUP2 MSTORE PUSH1 0x20 ADD SWAP1 DUP2 MSTORE PUSH1 0x20 ADD PUSH0 KECCAK256 DUP2 SWAP1 SSTORE POP DUP1 ISZERO PUSH2 0x11F1 JUMPI DUP3 PUSH20 0xFFFFFFFFFFFFFFFFFFFFFFFFFFFFFFFFFFFFFFFF AND DUP5 PUSH20 0xFFFFFFFFFFFFFFFFFFFFFFFFFFFFFFFFFFFFFFFF AND PUSH32 0x8C5BE1E5EBEC7D5BD14F71427D1E84F3DD0314C0F7B2291E5B200AC8C7C3B925 DUP5 PUSH1 0x40 MLOAD PUSH2 0x11E8 SWAP2 SWAP1 PUSH2 0x1398 JUMP JUMPDEST PUSH1 0x40 MLOAD DUP1 SWAP2 SUB SWAP1 LOG3 JUMPDEST POP POP POP POP JUMP JUMPDEST PUSH0 DUP2 MLOAD SWAP1 POP SWAP2 SWAP1 POP JUMP JUMPDEST PUSH0 DUP3 DUP3 MSTORE PUSH1 0x20 DUP3 ADD SWAP1 POP SWAP3 SWAP2 POP POP JUMP JUMPDEST DUP3 DUP2 DUP4 MCOPY PUSH0 DUP4 DUP4 ADD MSTORE POP POP POP JUMP JUMPDEST PUSH0 PUSH1 0x1F NOT PUSH1 0x1F DUP4 ADD AND SWAP1 POP SWAP2 SWAP1 POP JUMP JUMPDEST PUSH0 PUSH2 0x1239 DUP3 PUSH2 0x11F7 JUMP JUMPDEST PUSH2 0x1243 DUP2 DUP6 PUSH2 0x1201 JUMP JUMPDEST SWAP4 POP PUSH2 0x1253 DUP2 DUP6 PUSH1 0x20 DUP7 ADD PUSH2 0x1211 JUMP JUMPDEST PUSH2 0x125C DUP2 PUSH2 0x121F JUMP JUMPDEST DUP5 ADD SWAP2 POP POP SWAP3 SWAP2 POP POP JUMP JUMPDEST PUSH0 PUSH1 0x20 DUP3 ADD SWAP1 POP DUP2 DUP2 SUB PUSH0 DUP4 ADD MSTORE PUSH2 0x127F DUP2 DUP5 PUSH2 0x122F JUMP JUMPDEST SWAP1 POP SWAP3 SWAP2 POP POP JUMP JUMPDEST PUSH0 PUSH0 REVERT JUMPDEST PUSH0 PUSH20 0xFFFFFFFFFFFFFFFFFFFFFFFFFFFFFFFFFFFFFFFF DUP3 AND SWAP1 POP SWAP2 SWAP1 POP JUMP JUMPDEST PUSH0 PUSH2 0x12B4 DUP3 PUSH2 0x128B JUMP JUMPDEST SWAP1 POP SWAP2 SWAP1 POP JUMP JUMPDEST PUSH2 0x12C4 DUP2 PUSH2 0x12AA JUMP JUMPDEST DUP2 EQ PUSH2 0x12CE JUMPI PUSH0 PUSH0 REVERT JUMPDEST POP JUMP JUMPDEST PUSH0 DUP2 CALLDATALOAD SWAP1 POP PUSH2 0x12DF DUP2 PUSH2 0x12BB JUMP JUMPDEST SWAP3 SWAP2 POP POP JUMP JUMPDEST PUSH0 DUP2 SWAP1 POP SWAP2 SWAP1 POP JUMP JUMPDEST PUSH2 0x12F7 DUP2 PUSH2 0x12E5 JUMP JUMPDEST DUP2 EQ PUSH2 0x1301 JUMPI PUSH0 PUSH0 REVERT JUMPDEST POP JUMP JUMPDEST PUSH0 DUP2 CALLDATALOAD SWAP1 POP PUSH2 0x1312 DUP2 PUSH2 0x12EE JUMP JUMPDEST SWAP3 SWAP2 POP POP JUMP JUMPDEST PUSH0 PUSH0 PUSH1 0x40 DUP4 DUP6 SUB SLT ISZERO PUSH2 0x132E JUMPI PUSH2 0x132D PUSH2 0x1287 JUMP JUMPDEST JUMPDEST PUSH0 PUSH2 0x133B DUP6 DUP3 DUP7 ADD PUSH2 0x12D1 JUMP JUMPDEST SWAP3 POP POP PUSH1 0x20 PUSH2 0x134C DUP6 DUP3 DUP7 ADD PUSH2 0x1304 JUMP JUMPDEST SWAP2 POP POP SWAP3 POP SWAP3 SWAP1 POP JUMP JUMPDEST PUSH0 DUP2 ISZERO ISZERO SWAP1 POP SWAP2 SWAP1 POP JUMP JUMPDEST PUSH2 0x136A DUP2 PUSH2 0x1356 JUMP JUMPDEST DUP3 MSTORE POP POP JUMP JUMPDEST PUSH0 PUSH1 0x20 DUP3 ADD SWAP1 POP PUSH2 0x1383 PUSH0 DUP4 ADD DUP5 PUSH2 0x1361 JUMP JUMPDEST SWAP3 SWAP2 POP POP JUMP JUMPDEST PUSH2 0x1392 DUP2 PUSH2 0x12E5 JUMP JUMPDEST DUP3 MSTORE POP POP JUMP JUMPDEST PUSH0 PUSH1 0x20 DUP3 ADD SWAP1 POP PUSH2 0x13AB PUSH0 DUP4 ADD DUP5 PUSH2 0x1389 JUMP JUMPDEST SWAP3 SWAP2 POP POP JUMP JUMPDEST PUSH0 PUSH0 PUSH0 PUSH1 0x60 DUP5 DUP7 SUB SLT ISZERO PUSH2 0x13C8 JUMPI PUSH2 0x13C7 PUSH2 0x1287 JUMP JUMPDEST JUMPDEST PUSH0 PUSH2 0x13D5 DUP7 DUP3 DUP8 ADD PUSH2 0x12D1 JUMP JUMPDEST SWAP4 POP POP PUSH1 0x20 PUSH2 0x13E6 DUP7 DUP3 DUP8 ADD PUSH2 0x12D1 JUMP JUMPDEST SWAP3 POP POP PUSH1 0x40 PUSH2 0x13F7 DUP7 DUP3 DUP8 ADD PUSH2 0x1304 JUMP JUMPDEST SWAP2 POP POP SWAP3 POP SWAP3 POP SWAP3 JUMP JUMPDEST PUSH0 PUSH1 0xFF DUP3 AND SWAP1 POP SWAP2 SWAP1 POP JUMP JUMPDEST PUSH2 0x1416 DUP2 PUSH2 0x1401 JUMP JUMPDEST DUP3 MSTORE POP POP JUMP JUMPDEST PUSH0 PUSH1 0x20 DUP3 ADD SWAP1 POP PUSH2 0x142F PUSH0 DUP4 ADD DUP5 PUSH2 0x140D JUMP JUMPDEST SWAP3 SWAP2 POP POP JUMP JUMPDEST PUSH0 PUSH2 0x143F DUP3 PUSH2 0x128B JUMP JUMPDEST SWAP1 POP SWAP2 SWAP1 POP JUMP JUMPDEST PUSH2 0x144F DUP2 PUSH2 0x1435 JUMP JUMPDEST DUP2 EQ PUSH2 0x1459 JUMPI PUSH0 PUSH0 REVERT JUMPDEST POP JUMP JUMPDEST PUSH0 DUP2 CALLDATALOAD SWAP1 POP PUSH2 0x146A DUP2 PUSH2 0x1446 JUMP JUMPDEST SWAP3 SWAP2 POP POP JUMP JUMPDEST PUSH0 PUSH1 0x20 DUP3 DUP5 SUB SLT ISZERO PUSH2 0x1485 JUMPI PUSH2 0x1484 PUSH2 0x1287 JUMP JUMPDEST JUMPDEST PUSH0 PUSH2 0x1492 DUP5 DUP3 DUP6 ADD PUSH2 0x145C JUMP JUMPDEST SWAP2 POP POP SWAP3 SWAP2 POP POP JUMP JUMPDEST PUSH0 PUSH1 0x20 DUP3 DUP5 SUB SLT ISZERO PUSH2 0x14B0 JUMPI PUSH2 0x14AF PUSH2 0x1287 JUMP JUMPDEST JUMPDEST PUSH0 PUSH2 0x14BD DUP5 DUP3 DUP6 ADD PUSH2 0x1304 JUMP JUMPDEST SWAP2 POP POP SWAP3 SWAP2 POP POP JUMP JUMPDEST PUSH0 PUSH1 0x20 DUP3 DUP5 SUB SLT ISZERO PUSH2 0x14DB JUMPI PUSH2 0x14DA PUSH2 0x1287 JUMP JUMPDEST JUMPDEST PUSH0 PUSH2 0x14E8 DUP5 DUP3 DUP6 ADD PUSH2 0x12D1 JUMP JUMPDEST SWAP2 POP POP SWAP3 SWAP2 POP POP JUMP JUMPDEST PUSH2 0x14FA DUP2 PUSH2 0x12AA JUMP JUMPDEST DUP3 MSTORE POP POP JUMP JUMPDEST PUSH0 PUSH1 0x20 DUP3 ADD SWAP1 POP PUSH2 0x1513 PUSH0 DUP4 ADD DUP5 PUSH2 0x14F1 JUMP JUMPDEST SWAP3 SWAP2 POP POP JUMP JUMPDEST PUSH0 PUSH0 PUSH1 0x40 DUP4 DUP6 SUB SLT ISZERO PUSH2 0x152F JUMPI PUSH2 0x152E PUSH2 0x1287 JUMP JUMPDEST JUMPDEST PUSH0 PUSH2 0x153C DUP6 DUP3 DUP7 ADD PUSH2 0x12D1 JUMP JUMPDEST SWAP3 POP POP PUSH1 0x20 PUSH2 0x154D DUP6 DUP3 DUP7 ADD PUSH2 0x12D1 JUMP JUMPDEST SWAP2 POP POP SWAP3 POP SWAP3 SWAP1 POP JUMP JUMPDEST PUSH32 0x6E6F204554480000000000000000000000000000000000000000000000000000 PUSH0 DUP3 ADD MSTORE POP JUMP JUMPDEST PUSH0 PUSH2 0x158B PUSH1 0x6 DUP4 PUSH2 0x1201 JUMP JUMPDEST SWAP2 POP PUSH2 0x1596 DUP3 PUSH2 0x1557 JUMP JUMPDEST PUSH1 0x20 DUP3 ADD SWAP1 POP SWAP2 SWAP1 POP JUMP JUMPDEST PUSH0 PUSH1 0x20 DUP3 ADD SWAP1 POP DUP2 DUP2 SUB PUSH0 DUP4 ADD MSTORE PUSH2 0x15B8 DUP2 PUSH2 0x157F JUMP JUMPDEST SWAP1 POP SWAP2 SWAP1 POP JUMP JUMPDEST PUSH32 0x4E487B7100000000000000000000000000000000000000000000000000000000 PUSH0 MSTORE PUSH1 0x11 PUSH1 0x4 MSTORE PUSH1 0x24 PUSH0 REVERT JUMPDEST PUSH0 DUP2 PUSH1 0x1 SHR SWAP1 POP SWAP2 SWAP1 POP JUMP JUMPDEST PUSH0 PUSH0 DUP3 SWAP2 POP DUP4 SWAP1 POP JUMPDEST PUSH1 0x1 DUP6 GT ISZERO PUSH2 0x1641 JUMPI DUP1 DUP7 DIV DUP2 GT ISZERO PUSH2 0x161D JUMPI PUSH2 0x161C PUSH2 0x15BF JUMP JUMPDEST JUMPDEST PUSH1 0x1 DUP6 AND ISZERO PUSH2 0x162C JUMPI DUP1 DUP3 MUL SWAP2 POP JUMPDEST DUP1 DUP2 MUL SWAP1 POP PUSH2 0x163A DUP6 PUSH2 0x15EC JUMP JUMPDEST SWAP5 POP PUSH2 0x1601 JUMP JUMPDEST SWAP5 POP SWAP5 SWAP3 POP POP POP JUMP JUMPDEST PUSH0 DUP3 PUSH2 0x1659 JUMPI PUSH1 0x1 SWAP1 POP PUSH2 0x1714 JUMP JUMPDEST DUP2 PUSH2 0x1666 JUMPI PUSH0 SWAP1 POP PUSH2 0x1714 JUMP JUMPDEST DUP2 PUSH1 0x1 DUP2 EQ PUSH2 0x167C JUMPI PUSH1 0x2 DUP2 EQ PUSH2 0x1686 JUMPI PUSH2 0x16B5 JUMP JUMPDEST PUSH1 0x1 SWAP2 POP POP PUSH2 0x1714 JUMP JUMPDEST PUSH1 0xFF DUP5 GT ISZERO PUSH2 0x1698 JUMPI PUSH2 0x1697 PUSH2 0x15BF JUMP JUMPDEST JUMPDEST DUP4 PUSH1 0x2 EXP SWAP2 POP DUP5 DUP3 GT ISZERO PUSH2 0x16AF JUMPI PUSH2 0x16AE PUSH2 0x15BF JUMP JUMPDEST JUMPDEST POP PUSH2 0x1714 JUMP JUMPDEST POP PUSH1 0x20 DUP4 LT PUSH2 0x133 DUP4 LT AND PUSH1 0x4E DUP5 LT PUSH1 0xB DUP5 LT AND OR ISZERO PUSH2 0x16EA JUMPI DUP3 DUP3 EXP SWAP1 POP DUP4 DUP2 GT ISZERO PUSH2 0x16E5 JUMPI PUSH2 0x16E4 PUSH2 0x15BF JUMP JUMPDEST JUMPDEST PUSH2 0x1714 JUMP JUMPDEST PUSH2 0x16F7 DUP5 DUP5 DUP5 PUSH1 0x1 PUSH2 0x15F8 JUMP JUMPDEST SWAP3 POP SWAP1 POP DUP2 DUP5 DIV DUP2 GT ISZERO PUSH2 0x170E JUMPI PUSH2 0x170D PUSH2 0x15BF JUMP JUMPDEST JUMPDEST DUP2 DUP2 MUL SWAP1 POP JUMPDEST SWAP4 SWAP3 POP POP POP JUMP JUMPDEST PUSH0 PUSH2 0x1725 DUP3 PUSH2 0x12E5 JUMP JUMPDEST SWAP2 POP PUSH2 0x1730 DUP4 PUSH2 0x1401 JUMP JUMPDEST SWAP3 POP PUSH2 0x175D PUSH32 0xFFFFFFFFFFFFFFFFFFFFFFFFFFFFFFFFFFFFFFFFFFFFFFFFFFFFFFFFFFFFFFFF DUP5 DUP5 PUSH2 0x164A JUMP JUMPDEST SWAP1 POP SWAP3 SWAP2 POP POP JUMP JUMPDEST PUSH0 PUSH2 0x176F DUP3 PUSH2 0x12E5 JUMP JUMPDEST SWAP2 POP PUSH2 0x177A DUP4 PUSH2 0x12E5 JUMP JUMPDEST SWAP3 POP DUP3 DUP3 MUL PUSH2 0x1788 DUP2 PUSH2 0x12E5 JUMP JUMPDEST SWAP2 POP DUP3 DUP3 DIV DUP5 EQ DUP4 ISZERO OR PUSH2 0x179F JUMPI PUSH2 0x179E PUSH2 0x15BF JUMP JUMPDEST JUMPDEST POP SWAP3 SWAP2 POP POP JUMP JUMPDEST PUSH32 0x4E487B7100000000000000000000000000000000000000000000000000000000 PUSH0 MSTORE PUSH1 0x12 PUSH1 0x4 MSTORE PUSH1 0x24 PUSH0 REVERT JUMPDEST PUSH0 PUSH2 0x17DD DUP3 PUSH2 0x12E5 JUMP JUMPDEST SWAP2 POP PUSH2 0x17E8 DUP4 PUSH2 0x12E5 JUMP JUMPDEST SWAP3 POP DUP3 PUSH2 0x17F8 JUMPI PUSH2 0x17F7 PUSH2 0x17A6 JUMP JUMPDEST JUMPDEST DUP3 DUP3 DIV SWAP1 POP SWAP3 SWAP2 POP POP JUMP JUMPDEST PUSH32 0x746F6F206C6974746C6520455448000000000000000000000000000000000000 PUSH0 DUP3 ADD MSTORE POP JUMP JUMPDEST PUSH0 PUSH2 0x1837 PUSH1 0xE DUP4 PUSH2 0x1201 JUMP JUMPDEST SWAP2 POP PUSH2 0x1842 DUP3 PUSH2 0x1803 JUMP JUMPDEST PUSH1 0x20 DUP3 ADD SWAP1 POP SWAP2 SWAP1 POP JUMP JUMPDEST PUSH0 PUSH1 0x20 DUP3 ADD SWAP1 POP DUP2 DUP2 SUB PUSH0 DUP4 ADD MSTORE PUSH2 0x1864 DUP2 PUSH2 0x182B JUMP JUMPDEST SWAP1 POP SWAP2 SWAP1 POP JUMP JUMPDEST PUSH0 PUSH1 0x40 DUP3 ADD SWAP1 POP PUSH2 0x187E PUSH0 DUP4 ADD DUP6 PUSH2 0x1389 JUMP JUMPDEST PUSH2 0x188B PUSH1 0x20 DUP4 ADD DUP5 PUSH2 0x1389 JUMP JUMPDEST SWAP4 SWAP3 POP POP POP JUMP JUMPDEST PUSH32 0x4E487B7100000000000000000000000000000000000000000000000000000000 PUSH0 MSTORE PUSH1 0x22 PUSH1 0x4 MSTORE PUSH1 0x24 PUSH0 REVERT JUMPDEST PUSH0 PUSH1 0x2 DUP3 DIV SWAP1 POP PUSH1 0x1 DUP3 AND DUP1 PUSH2 0x18D6 JUMPI PUSH1 0x7F DUP3 AND SWAP2 POP JUMPDEST PUSH1 0x20 DUP3 LT DUP2 SUB PUSH2 0x18E9 JUMPI PUSH2 0x18E8 PUSH2 0x1892 JUMP JUMPDEST JUMPDEST POP SWAP2 SWAP1 POP JUMP JUMPDEST PUSH32 0x746F3D3000000000000000000000000000000000000000000000000000000000 PUSH0 DUP3 ADD MSTORE POP JUMP JUMPDEST PUSH0 PUSH2 0x1923 PUSH1 0x4 DUP4 PUSH2 0x1201 JUMP JUMPDEST SWAP2 POP PUSH2 0x192E DUP3 PUSH2 0x18EF JUMP JUMPDEST PUSH1 0x20 DUP3 ADD SWAP1 POP SWAP2 SWAP1 POP JUMP JUMPDEST PUSH0 PUSH1 0x20 DUP3 ADD SWAP1 POP DUP2 DUP2 SUB PUSH0 DUP4 ADD MSTORE PUSH2 0x1950 DUP2 PUSH2 0x1917 JUMP JUMPDEST SWAP1 POP SWAP2 SWAP1 POP JUMP JUMPDEST PUSH32 0x656D707479000000000000000000000000000000000000000000000000000000 PUSH0 DUP3 ADD MSTORE POP JUMP JUMPDEST PUSH0 PUSH2 0x198B PUSH1 0x5 DUP4 PUSH2 0x1201 JUMP JUMPDEST SWAP2 POP PUSH2 0x1996 DUP3 PUSH2 0x1957 JUMP JUMPDEST PUSH1 0x20 DUP3 ADD SWAP1 POP SWAP2 SWAP1 POP JUMP JUMPDEST PUSH0 PUSH1 0x20 DUP3 ADD SWAP1 POP DUP2 DUP2 SUB PUSH0 DUP4 ADD MSTORE PUSH2 0x19B8 DUP2 PUSH2 0x197F JUMP JUMPDEST SWAP1 POP SWAP2 SWAP1 POP JUMP JUMPDEST PUSH0 DUP2 SWAP1 POP SWAP3 SWAP2 POP POP JUMP JUMPDEST POP JUMP JUMPDEST PUSH0 PUSH2 0x19D7 PUSH0 DUP4 PUSH2 0x19BF JUMP JUMPDEST SWAP2 POP PUSH2 0x19E2 DUP3 PUSH2 0x19C9 JUMP JUMPDEST PUSH0 DUP3 ADD SWAP1 POP SWAP2 SWAP1 POP JUMP JUMPDEST PUSH0 PUSH2 0x19F6 DUP3 PUSH2 0x19CC JUMP JUMPDEST SWAP2 POP DUP2 SWAP1 POP SWAP2 SWAP1 POP JUMP JUMPDEST PUSH32 0x7769746864726177206661696C00000000000000000000000000000000000000 PUSH0 DUP3 ADD MSTORE POP JUMP JUMPDEST PUSH0 PUSH2 0x1A34 PUSH1 0xD DUP4 PUSH2 0x1201 JUMP JUMPDEST SWAP2 POP PUSH2 0x1A3F DUP3 PUSH2 0x1A00 JUMP JUMPDEST PUSH1 0x20 DUP3 ADD SWAP1 POP SWAP2 SWAP1 POP JUMP JUMPDEST PUSH0 PUSH1 0x20 DUP3 ADD SWAP1 POP DUP2 DUP2 SUB PUSH0 DUP4 ADD MSTORE PUSH2 0x1A61 DUP2 PUSH2 0x1A28 JUMP JUMPDEST SWAP1 POP SWAP2 SWAP1 POP JUMP JUMPDEST PUSH32 0x70726963653D3000000000000000000000000000000000000000000000000000 PUSH0 DUP3 ADD MSTORE POP JUMP JUMPDEST PUSH0 PUSH2 0x1A9C PUSH1 0x7 DUP4 PUSH2 0x1201 JUMP JUMPDEST SWAP2 POP PUSH2 0x1AA7 DUP3 PUSH2 0x1A68 JUMP JUMPDEST PUSH1 0x20 DUP3 ADD SWAP1 POP SWAP2 SWAP1 POP JUMP JUMPDEST PUSH0 PUSH1 0x20 DUP3 ADD SWAP1 POP DUP2 DUP2 SUB PUSH0 DUP4 ADD MSTORE PUSH2 0x1AC9 DUP2 PUSH2 0x1A90 JUMP JUMPDEST SWAP1 POP SWAP2 SWAP1 POP JUMP JUMPDEST PUSH0 PUSH1 0x60 DUP3 ADD SWAP1 POP PUSH2 0x1AE3 PUSH0 DUP4 ADD DUP7 PUSH2 0x14F1 JUMP JUMPDEST PUSH2 0x1AF0 PUSH1 0x20 DUP4 ADD DUP6 PUSH2 0x1389 JUMP JUMPDEST PUSH2 0x1AFD PUSH1 0x40 DUP4 ADD DUP5 PUSH2 0x1389 JUMP JUMPDEST SWAP5 SWAP4 POP POP POP POP JUMP JUMPDEST PUSH0 PUSH2 0x1B0F DUP3 PUSH2 0x12E5 JUMP JUMPDEST SWAP2 POP PUSH2 0x1B1A DUP4 PUSH2 0x12E5 JUMP JUMPDEST SWAP3 POP DUP3 DUP3 ADD SWAP1 POP DUP1 DUP3 GT ISZERO PUSH2 0x1B32 JUMPI PUSH2 0x1B31 PUSH2 0x15BF JUMP JUMPDEST JUMPDEST SWAP3 SWAP2 POP POP JUMP INVALID LOG2 PUSH5 0x6970667358 0x22 SLT KECCAK256 PUSH14 0x2E3883AEA79D1B3D43C94261DC29 PUSH18 0xD8BDEAABCD6B8D337F55462889155BC66473 PUSH16 0x6C634300081E00330000000000000000 "
	},
	"abi": [
		{
			"inputs": [],
			"stateMutability": "nonpayable",
			"type": "constructor"
		},
		{
			"inputs": [
				{
					"internalType": "address",
					"name": "spender",
					"type": "address"
				},
				{
					"internalType": "uint256",
					"name": "allowance",
					"type": "uint256"
				},
				{
					"internalType": "uint256",
					"name": "needed",
					"type": "uint256"
				}
			],
			"name": "ERC20InsufficientAllowance",
			"type": "error"
		},
		{
			"inputs": [
				{
					"internalType": "address",
					"name": "sender",
					"type": "address"
				},
				{
					"internalType": "uint256",
					"name": "balance",
					"type": "uint256"
				},
				{
					"internalType": "uint256",
					"name": "needed",
					"type": "uint256"
				}
			],
			"name": "ERC20InsufficientBalance",
			"type": "error"
		},
		{
			"inputs": [
				{
					"internalType": "address",
					"name": "approver",
					"type": "address"
				}
			],
			"name": "ERC20InvalidApprover",
			"type": "error"
		},
		{
			"inputs": [
				{
					"internalType": "address",
					"name": "receiver",
					"type": "address"
				}
			],
			"name": "ERC20InvalidReceiver",
			"type": "error"
		},
		{
			"inputs": [
				{
					"internalType": "address",
					"name": "sender",
					"type": "address"
				}
			],
			"name": "ERC20InvalidSender",
			"type": "error"
		},
		{
			"inputs": [
				{
					"internalType": "address",
					"name": "spender",
					"type": "address"
				}
			],
			"name": "ERC20InvalidSpender",
			"type": "error"
		},
		{
			"inputs": [
				{
					"internalType": "address",
					"name": "owner",
					"type": "address"
				}
			],
			"name": "OwnableInvalidOwner",
			"type": "error"
		},
		{
			"inputs": [
				{
					"internalType": "address",
					"name": "account",
					"type": "address"
				}
			],
			"name": "OwnableUnauthorizedAccount",
			"type": "error"
		},
		{
			"inputs": [],
			"name": "ReentrancyGuardReentrantCall",
			"type": "error"
		},
		{
			"anonymous": false,
			"inputs": [
				{
					"indexed": true,
					"internalType": "address",
					"name": "owner",
					"type": "address"
				},
				{
					"indexed": true,
					"internalType": "address",
					"name": "spender",
					"type": "address"
				},
				{
					"indexed": false,
					"internalType": "uint256",
					"name": "value",
					"type": "uint256"
				}
			],
			"name": "Approval",
			"type": "event"
		},
		{
			"anonymous": false,
			"inputs": [
				{
					"indexed": true,
					"internalType": "address",
					"name": "buyer",
					"type": "address"
				},
				{
					"indexed": false,
					"internalType": "uint256",
					"name": "ethIn",
					"type": "uint256"
				},
				{
					"indexed": false,
					"internalType": "uint256",
					"name": "tokensOut",
					"type": "uint256"
				}
			],
			"name": "CarbonoToken20Purchased",
			"type": "event"
		},
		{
			"anonymous": false,
			"inputs": [
				{
					"indexed": true,
					"internalType": "address",
					"name": "previousOwner",
					"type": "address"
				},
				{
					"indexed": true,
					"internalType": "address",
					"name": "newOwner",
					"type": "address"
				}
			],
			"name": "OwnershipTransferred",
			"type": "event"
		},
		{
			"anonymous": false,
			"inputs": [
				{
					"indexed": false,
					"internalType": "uint256",
					"name": "newPrice",
					"type": "uint256"
				}
			],
			"name": "PriceUpdated",
			"type": "event"
		},
		{
			"anonymous": false,
			"inputs": [
				{
					"indexed": true,
					"internalType": "address",
					"name": "from",
					"type": "address"
				},
				{
					"indexed": true,
					"internalType": "address",
					"name": "to",
					"type": "address"
				},
				{
					"indexed": false,
					"internalType": "uint256",
					"name": "value",
					"type": "uint256"
				}
			],
			"name": "Transfer",
			"type": "event"
		},
		{
			"anonymous": false,
			"inputs": [
				{
					"indexed": true,
					"internalType": "address",
					"name": "to",
					"type": "address"
				},
				{
					"indexed": false,
					"internalType": "uint256",
					"name": "amount",
					"type": "uint256"
				}
			],
			"name": "Withdraw",
			"type": "event"
		},
		{
			"inputs": [
				{
					"internalType": "address",
					"name": "owner",
					"type": "address"
				},
				{
					"internalType": "address",
					"name": "spender",
					"type": "address"
				}
			],
			"name": "allowance",
			"outputs": [
				{
					"internalType": "uint256",
					"name": "",
					"type": "uint256"
				}
			],
			"stateMutability": "view",
			"type": "function"
		},
		{
			"inputs": [
				{
					"internalType": "address",
					"name": "spender",
					"type": "address"
				},
				{
					"internalType": "uint256",
					"name": "value",
					"type": "uint256"
				}
			],
			"name": "approve",
			"outputs": [
				{
					"internalType": "bool",
					"name": "",
					"type": "bool"
				}
			],
			"stateMutability": "nonpayable",
			"type": "function"
		},
		{
			"inputs": [
				{
					"internalType": "address",
					"name": "account",
					"type": "address"
				}
			],
			"name": "balanceOf",
			"outputs": [
				{
					"internalType": "uint256",
					"name": "",
					"type": "uint256"
				}
			],
			"stateMutability": "view",
			"type": "function"
		},
		{
			"inputs": [],
			"name": "buyCarbonoToken20",
			"outputs": [],
			"stateMutability": "payable",
			"type": "function"
		},
		{
			"inputs": [],
			"name": "decimals",
			"outputs": [
				{
					"internalType": "uint8",
					"name": "",
					"type": "uint8"
				}
			],
			"stateMutability": "view",
			"type": "function"
		},
		{
			"inputs": [],
			"name": "name",
			"outputs": [
				{
					"internalType": "string",
					"name": "",
					"type": "string"
				}
			],
			"stateMutability": "view",
			"type": "function"
		},
		{
			"inputs": [],
			"name": "owner",
			"outputs": [
				{
					"internalType": "address",
					"name": "",
					"type": "address"
				}
			],
			"stateMutability": "view",
			"type": "function"
		},
		{
			"inputs": [],
			"name": "priceWeiPerToken",
			"outputs": [
				{
					"internalType": "uint256",
					"name": "",
					"type": "uint256"
				}
			],
			"stateMutability": "view",
			"type": "function"
		},
		{
			"inputs": [],
			"name": "renounceOwnership",
			"outputs": [],
			"stateMutability": "nonpayable",
			"type": "function"
		},
		{
			"inputs": [
				{
					"internalType": "uint256",
					"name": "newPrice",
					"type": "uint256"
				}
			],
			"name": "setPriceWeiPerToken",
			"outputs": [],
			"stateMutability": "nonpayable",
			"type": "function"
		},
		{
			"inputs": [],
			"name": "symbol",
			"outputs": [
				{
					"internalType": "string",
					"name": "",
					"type": "string"
				}
			],
			"stateMutability": "view",
			"type": "function"
		},
		{
			"inputs": [],
			"name": "totalSupply",
			"outputs": [
				{
					"internalType": "uint256",
					"name": "",
					"type": "uint256"
				}
			],
			"stateMutability": "view",
			"type": "function"
		},
		{
			"inputs": [
				{
					"internalType": "address",
					"name": "to",
					"type": "address"
				},
				{
					"internalType": "uint256",
					"name": "value",
					"type": "uint256"
				}
			],
			"name": "transfer",
			"outputs": [
				{
					"internalType": "bool",
					"name": "",
					"type": "bool"
				}
			],
			"stateMutability": "nonpayable",
			"type": "function"
		},
		{
			"inputs": [
				{
					"internalType": "address",
					"name": "from",
					"type": "address"
				},
				{
					"internalType": "address",
					"name": "to",
					"type": "address"
				},
				{
					"internalType": "uint256",
					"name": "value",
					"type": "uint256"
				}
			],
			"name": "transferFrom",
			"outputs": [
				{
					"internalType": "bool",
					"name": "",
					"type": "bool"
				}
			],
			"stateMutability": "nonpayable",
			"type": "function"
		},
		{
			"inputs": [
				{
					"internalType": "address",
					"name": "newOwner",
					"type": "address"
				}
			],
			"name": "transferOwnership",
			"outputs": [],
			"stateMutability": "nonpayable",
			"type": "function"
		},
		{
			"inputs": [
				{
					"internalType": "address payable",
					"name": "to",
					"type": "address"
				}
			],
			"name": "withdraw",
			"outputs": [],
			"stateMutability": "nonpayable",
			"type": "function"
		},
		{
			"stateMutability": "payable",
			"type": "receive"
		}
	],
	"storageLayout": {
		"storage": [
			{
				"astId": 307,
				"contract": "contracts/carbono.sol:CarbonoToken20",
				"label": "_balances",
				"offset": 0,
				"slot": "0",
				"type": "t_mapping(t_address,t_uint256)"
			},
			{
				"astId": 313,
				"contract": "contracts/carbono.sol:CarbonoToken20",
				"label": "_allowances",
				"offset": 0,
				"slot": "1",
				"type": "t_mapping(t_address,t_mapping(t_address,t_uint256))"
			},
			{
				"astId": 315,
				"contract": "contracts/carbono.sol:CarbonoToken20",
				"label": "_totalSupply",
				"offset": 0,
				"slot": "2",
				"type": "t_uint256"
			},
			{
				"astId": 317,
				"contract": "contracts/carbono.sol:CarbonoToken20",
				"label": "_name",
				"offset": 0,
				"slot": "3",
				"type": "t_string_storage"
			},
			{
				"astId": 319,
				"contract": "contracts/carbono.sol:CarbonoToken20",
				"label": "_symbol",
				"offset": 0,
				"slot": "4",
				"type": "t_string_storage"
			},
			{
				"astId": 8,
				"contract": "contracts/carbono.sol:CarbonoToken20",
				"label": "_owner",
				"offset": 0,
				"slot": "5",
				"type": "t_address"
			},
			{
				"astId": 944,
				"contract": "contracts/carbono.sol:CarbonoToken20",
				"label": "_status",
				"offset": 0,
				"slot": "6",
				"type": "t_uint256"
			},
			{
				"astId": 1020,
				"contract": "contracts/carbono.sol:CarbonoToken20",
				"label": "priceWeiPerToken",
				"offset": 0,
				"slot": "7",
				"type": "t_uint256"
			}
		],
		"types": {
			"t_address": {
				"encoding": "inplace",
				"label": "address",
				"numberOfBytes": "20"
			},
			"t_mapping(t_address,t_mapping(t_address,t_uint256))": {
				"encoding": "mapping",
				"key": "t_address",
				"label": "mapping(address => mapping(address => uint256))",
				"numberOfBytes": "32",
				"value": "t_mapping(t_address,t_uint256)"
			},
			"t_mapping(t_address,t_uint256)": {
				"encoding": "mapping",
				"key": "t_address",
				"label": "mapping(address => uint256)",
				"numberOfBytes": "32",
				"value": "t_uint256"
			},
			"t_string_storage": {
				"encoding": "bytes",
				"label": "string",
				"numberOfBytes": "32"
			},
			"t_uint256": {
				"encoding": "inplace",
				"label": "uint256",
				"numberOfBytes": "32"
			}
		}
	},
	"web3Deploy": "var carbonotoken20Contract = new web3.eth.Contract([{\"inputs\":[],\"stateMutability\":\"nonpayable\",\"type\":\"constructor\"},{\"inputs\":[{\"internalType\":\"address\",\"name\":\"spender\",\"type\":\"address\"},{\"internalType\":\"uint256\",\"name\":\"allowance\",\"type\":\"uint256\"},{\"internalType\":\"uint256\",\"name\":\"needed\",\"type\":\"uint256\"}],\"name\":\"ERC20InsufficientAllowance\",\"type\":\"error\"},{\"inputs\":[{\"internalType\":\"address\",\"name\":\"sender\",\"type\":\"address\"},{\"internalType\":\"uint256\",\"name\":\"balance\",\"type\":\"uint256\"},{\"internalType\":\"uint256\",\"name\":\"needed\",\"type\":\"uint256\"}],\"name\":\"ERC20InsufficientBalance\",\"type\":\"error\"},{\"inputs\":[{\"internalType\":\"address\",\"name\":\"approver\",\"type\":\"address\"}],\"name\":\"ERC20InvalidApprover\",\"type\":\"error\"},{\"inputs\":[{\"internalType\":\"address\",\"name\":\"receiver\",\"type\":\"address\"}],\"name\":\"ERC20InvalidReceiver\",\"type\":\"error\"},{\"inputs\":[{\"internalType\":\"address\",\"name\":\"sender\",\"type\":\"address\"}],\"name\":\"ERC20InvalidSender\",\"type\":\"error\"},{\"inputs\":[{\"internalType\":\"address\",\"name\":\"spender\",\"type\":\"address\"}],\"name\":\"ERC20InvalidSpender\",\"type\":\"error\"},{\"inputs\":[{\"internalType\":\"address\",\"name\":\"owner\",\"type\":\"address\"}],\"name\":\"OwnableInvalidOwner\",\"type\":\"error\"},{\"inputs\":[{\"internalType\":\"address\",\"name\":\"account\",\"type\":\"address\"}],\"name\":\"OwnableUnauthorizedAccount\",\"type\":\"error\"},{\"inputs\":[],\"name\":\"ReentrancyGuardReentrantCall\",\"type\":\"error\"},{\"anonymous\":false,\"inputs\":[{\"indexed\":true,\"internalType\":\"address\",\"name\":\"owner\",\"type\":\"address\"},{\"indexed\":true,\"internalType\":\"address\",\"name\":\"spender\",\"type\":\"address\"},{\"indexed\":false,\"internalType\":\"uint256\",\"name\":\"value\",\"type\":\"uint256\"}],\"name\":\"Approval\",\"type\":\"event\"},{\"anonymous\":false,\"inputs\":[{\"indexed\":true,\"internalType\":\"address\",\"name\":\"buyer\",\"type\":\"address\"},{\"indexed\":false,\"internalType\":\"uint256\",\"name\":\"ethIn\",\"type\":\"uint256\"},{\"indexed\":false,\"internalType\":\"uint256\",\"name\":\"tokensOut\",\"type\":\"uint256\"}],\"name\":\"CarbonoToken20Purchased\",\"type\":\"event\"},{\"anonymous\":false,\"inputs\":[{\"indexed\":true,\"internalType\":\"address\",\"name\":\"previousOwner\",\"type\":\"address\"},{\"indexed\":true,\"internalType\":\"address\",\"name\":\"newOwner\",\"type\":\"address\"}],\"name\":\"OwnershipTransferred\",\"type\":\"event\"},{\"anonymous\":false,\"inputs\":[{\"indexed\":false,\"internalType\":\"uint256\",\"name\":\"newPrice\",\"type\":\"uint256\"}],\"name\":\"PriceUpdated\",\"type\":\"event\"},{\"anonymous\":false,\"inputs\":[{\"indexed\":true,\"internalType\":\"address\",\"name\":\"from\",\"type\":\"address\"},{\"indexed\":true,\"internalType\":\"address\",\"name\":\"to\",\"type\":\"address\"},{\"indexed\":false,\"internalType\":\"uint256\",\"name\":\"value\",\"type\":\"uint256\"}],\"name\":\"Transfer\",\"type\":\"event\"},{\"anonymous\":false,\"inputs\":[{\"indexed\":true,\"internalType\":\"address\",\"name\":\"to\",\"type\":\"address\"},{\"indexed\":false,\"internalType\":\"uint256\",\"name\":\"amount\",\"type\":\"uint256\"}],\"name\":\"Withdraw\",\"type\":\"event\"},{\"inputs\":[{\"internalType\":\"address\",\"name\":\"owner\",\"type\":\"address\"},{\"internalType\":\"address\",\"name\":\"spender\",\"type\":\"address\"}],\"name\":\"allowance\",\"outputs\":[{\"internalType\":\"uint256\",\"name\":\"\",\"type\":\"uint256\"}],\"stateMutability\":\"view\",\"type\":\"function\"},{\"inputs\":[{\"internalType\":\"address\",\"name\":\"spender\",\"type\":\"address\"},{\"internalType\":\"uint256\",\"name\":\"value\",\"type\":\"uint256\"}],\"name\":\"approve\",\"outputs\":[{\"internalType\":\"bool\",\"name\":\"\",\"type\":\"bool\"}],\"stateMutability\":\"nonpayable\",\"type\":\"function\"},{\"inputs\":[{\"internalType\":\"address\",\"name\":\"account\",\"type\":\"address\"}],\"name\":\"balanceOf\",\"outputs\":[{\"internalType\":\"uint256\",\"name\":\"\",\"type\":\"uint256\"}],\"stateMutability\":\"view\",\"type\":\"function\"},{\"inputs\":[],\"name\":\"buyCarbonoToken20\",\"outputs\":[],\"stateMutability\":\"payable\",\"type\":\"function\"},{\"inputs\":[],\"name\":\"decimals\",\"outputs\":[{\"internalType\":\"uint8\",\"name\":\"\",\"type\":\"uint8\"}],\"stateMutability\":\"view\",\"type\":\"function\"},{\"inputs\":[],\"name\":\"name\",\"outputs\":[{\"internalType\":\"string\",\"name\":\"\",\"type\":\"string\"}],\"stateMutability\":\"view\",\"type\":\"function\"},{\"inputs\":[],\"name\":\"owner\",\"outputs\":[{\"internalType\":\"address\",\"name\":\"\",\"type\":\"address\"}],\"stateMutability\":\"view\",\"type\":\"function\"},{\"inputs\":[],\"name\":\"priceWeiPerToken\",\"outputs\":[{\"internalType\":\"uint256\",\"name\":\"\",\"type\":\"uint256\"}],\"stateMutability\":\"view\",\"type\":\"function\"},{\"inputs\":[],\"name\":\"renounceOwnership\",\"outputs\":[],\"stateMutability\":\"nonpayable\",\"type\":\"function\"},{\"inputs\":[{\"internalType\":\"uint256\",\"name\":\"newPrice\",\"type\":\"uint256\"}],\"name\":\"setPriceWeiPerToken\",\"outputs\":[],\"stateMutability\":\"nonpayable\",\"type\":\"function\"},{\"inputs\":[],\"name\":\"symbol\",\"outputs\":[{\"internalType\":\"string\",\"name\":\"\",\"type\":\"string\"}],\"stateMutability\":\"view\",\"type\":\"function\"},{\"inputs\":[],\"name\":\"totalSupply\",\"outputs\":[{\"internalType\":\"uint256\",\"name\":\"\",\"type\":\"uint256\"}],\"stateMutability\":\"view\",\"type\":\"function\"},{\"inputs\":[{\"internalType\":\"address\",\"name\":\"to\",\"type\":\"address\"},{\"internalType\":\"uint256\",\"name\":\"value\",\"type\":\"uint256\"}],\"name\":\"transfer\",\"outputs\":[{\"internalType\":\"bool\",\"name\":\"\",\"type\":\"bool\"}],\"stateMutability\":\"nonpayable\",\"type\":\"function\"},{\"inputs\":[{\"internalType\":\"address\",\"name\":\"from\",\"type\":\"address\"},{\"internalType\":\"address\",\"name\":\"to\",\"type\":\"address\"},{\"internalType\":\"uint256\",\"name\":\"value\",\"type\":\"uint256\"}],\"name\":\"transferFrom\",\"outputs\":[{\"internalType\":\"bool\",\"name\":\"\",\"type\":\"bool\"}],\"stateMutability\":\"nonpayable\",\"type\":\"function\"},{\"inputs\":[{\"internalType\":\"address\",\"name\":\"newOwner\",\"type\":\"address\"}],\"name\":\"transferOwnership\",\"outputs\":[],\"stateMutability\":\"nonpayable\",\"type\":\"function\"},{\"inputs\":[{\"internalType\":\"address payable\",\"name\":\"to\",\"type\":\"address\"}],\"name\":\"withdraw\",\"outputs\":[],\"stateMutability\":\"nonpayable\",\"type\":\"function\"},{\"stateMutability\":\"payable\",\"type\":\"receive\"}]);\nvar carbonotoken20 = carbonotoken20Contract.deploy({\n     data: '0x608060405266038d7ea4c6800060075534801561001a575f5ffd5b50336040518060400160405280600e81526020017f436172626f6e6f546f6b656e32300000000000000000000000000000000000008152506040518060400160405280600381526020017f43424f000000000000000000000000000000000000000000000000000000000081525081600390816100979190610437565b5080600490816100a79190610437565b5050505f73ffffffffffffffffffffffffffffffffffffffff168173ffffffffffffffffffffffffffffffffffffffff160361011a575f6040517f1e4fbdf70000000000000000000000000000000000000000000000000000000081526004016101119190610545565b60405180910390fd5b6101298161013760201b60201c565b50600160068190555061055e565b5f60055f9054906101000a900473ffffffffffffffffffffffffffffffffffffffff1690508160055f6101000a81548173ffffffffffffffffffffffffffffffffffffffff021916908373ffffffffffffffffffffffffffffffffffffffff1602179055508173ffffffffffffffffffffffffffffffffffffffff168173ffffffffffffffffffffffffffffffffffffffff167f8be0079c531659141344cd1fd0a4f28419497f9722a3daafe3b4186f6b6457e060405160405180910390a35050565b5f81519050919050565b7f4e487b71000000000000000000000000000000000000000000000000000000005f52604160045260245ffd5b7f4e487b71000000000000000000000000000000000000000000000000000000005f52602260045260245ffd5b5f600282049050600182168061027557607f821691505b60208210810361028857610287610231565b5b50919050565b5f819050815f5260205f209050919050565b5f6020601f8301049050919050565b5f82821b905092915050565b5f600883026102ea7fffffffffffffffffffffffffffffffffffffffffffffffffffffffffffffffff826102af565b6102f486836102af565b95508019841693508086168417925050509392505050565b5f819050919050565b5f819050919050565b5f61033861033361032e8461030c565b610315565b61030c565b9050919050565b5f819050919050565b6103518361031e565b61036561035d8261033f565b8484546102bb565b825550505050565b5f5f905090565b61037c61036d565b610387818484610348565b505050565b5b818110156103aa5761039f5f82610374565b60018101905061038d565b5050565b601f8211156103ef576103c08161028e565b6103c9846102a0565b810160208510156103d8578190505b6103ec6103e4856102a0565b83018261038c565b50505b505050565b5f82821c905092915050565b5f61040f5f19846008026103f4565b1980831691505092915050565b5f6104278383610400565b9150826002028217905092915050565b610440826101fa565b67ffffffffffffffff81111561045957610458610204565b5b610463825461025e565b61046e8282856103ae565b5f60209050601f83116001811461049f575f841561048d578287015190505b610497858261041c565b8655506104fe565b601f1984166104ad8661028e565b5f5b828110156104d4578489015182556001820191506020850194506020810190506104af565b868310156104f157848901516104ed601f891682610400565b8355505b6001600288020188555050505b505050505050565b5f73ffffffffffffffffffffffffffffffffffffffff82169050919050565b5f61052f82610506565b9050919050565b61053f81610525565b82525050565b5f6020820190506105585f830184610536565b92915050565b611b6e8061056b5f395ff3fe6080604052600436106100f6575f3560e01c8063715018a611610089578063c133106111610058578063c133106114610331578063dbf09d661461033b578063dd62ed3e14610365578063f2fde38b146103a157610105565b8063715018a61461028b5780638da5cb5b146102a157806395d89b41146102cb578063a9059cbb146102f557610105565b8063313ce567116100c5578063313ce567146101d557806351cff8d9146101ff578063707e422f1461022757806370a082311461024f57610105565b806306fdde0314610109578063095ea7b31461013357806318160ddd1461016f57806323b872dd1461019957610105565b36610105576101036103c9565b005b5f5ffd5b348015610114575f5ffd5b5061011d6104e9565b60405161012a9190611267565b60405180910390f35b34801561013e575f5ffd5b5061015960048036038101906101549190611318565b610579565b6040516101669190611370565b60405180910390f35b34801561017a575f5ffd5b5061018361059b565b6040516101909190611398565b60405180910390f35b3480156101a4575f5ffd5b506101bf60048036038101906101ba91906113b1565b6105a4565b6040516101cc9190611370565b60405180910390f35b3480156101e0575f5ffd5b506101e96105d2565b6040516101f6919061141c565b60405180910390f35b34801561020a575f5ffd5b5061022560048036038101906102209190611470565b6105da565b005b348015610232575f5ffd5b5061024d6004803603810190610248919061149b565b610791565b005b34801561025a575f5ffd5b50610275600480360381019061027091906114c6565b61081c565b6040516102829190611398565b60405180910390f35b348015610296575f5ffd5b5061029f610861565b005b3480156102ac575f5ffd5b506102b5610874565b6040516102c29190611500565b60405180910390f35b3480156102d6575f5ffd5b506102df61089c565b6040516102ec9190611267565b60405180910390f35b348015610300575f5ffd5b5061031b60048036038101906103169190611318565b61092c565b6040516103289190611370565b60405180910390f35b6103396103c9565b005b348015610346575f5ffd5b5061034f61094e565b60405161035c9190611398565b60405180910390f35b348015610370575f5ffd5b5061038b60048036038101906103869190611519565b610954565b6040516103989190611398565b60405180910390f35b3480156103ac575f5ffd5b506103c760048036038101906103c291906114c6565b6109d6565b005b6103d1610a5a565b5f3411610413576040517f08c379a000000000000000000000000000000000000000000000000000000000815260040161040a906115a1565b60405180910390fd5b5f60075461041f6105d2565b600a61042b919061171b565b346104369190611765565b61044091906117d3565b90505f8111610484576040517f08c379a000000000000000000000000000000000000000000000000000000000815260040161047b9061184d565b60405180910390fd5b61048e3382610aa0565b3373ffffffffffffffffffffffffffffffffffffffff167f1226f1537b00d316270056dd247f05739ee0aca67a32cdd8258b675b6f0658b034836040516104d692919061186b565b60405180910390a2506104e7610b1f565b565b6060600380546104f8906118bf565b80601f0160208091040260200160405190810160405280929190818152602001828054610524906118bf565b801561056f5780601f106105465761010080835404028352916020019161056f565b820191905f5260205f20905b81548152906001019060200180831161055257829003601f168201915b5050505050905090565b5f5f610583610b29565b9050610590818585610b30565b600191505092915050565b5f600254905090565b5f5f6105ae610b29565b90506105bb858285610b42565b6105c6858585610bd5565b60019150509392505050565b5f6012905090565b6105e2610cc5565b5f73ffffffffffffffffffffffffffffffffffffffff168173ffffffffffffffffffffffffffffffffffffffff1603610650576040517f08c379a000000000000000000000000000000000000000000000000000000000815260040161064790611939565b60405180910390fd5b5f4790505f8111610696576040517f08c379a000000000000000000000000000000000000000000000000000000000815260040161068d906119a1565b60405180910390fd5b5f8273ffffffffffffffffffffffffffffffffffffffff16826040516106bb906119ec565b5f6040518083038185875af1925050503d805f81146106f5576040519150601f19603f3d011682016040523d82523d5f602084013e6106fa565b606091505b505090508061073e576040517f08c379a000000000000000000000000000000000000000000000000000000000815260040161073590611a4a565b60405180910390fd5b8273ffffffffffffffffffffffffffffffffffffffff167f884edad9ce6fa2440d8a54cc123490eb96d2768479d49ff9c7366125a9424364836040516107849190611398565b60405180910390a2505050565b610799610cc5565b5f81116107db576040517f08c379a00000000000000000000000000000000000000000000000000000000081526004016107d290611ab2565b60405180910390fd5b806007819055507f66cbca4f3c64fecf1dcb9ce094abcf7f68c3450a1d4e3a8e917dd621edb4ebe0816040516108119190611398565b60405180910390a150565b5f5f5f8373ffffffffffffffffffffffffffffffffffffffff1673ffffffffffffffffffffffffffffffffffffffff1681526020019081526020015f20549050919050565b610869610cc5565b6108725f610d4c565b565b5f60055f9054906101000a900473ffffffffffffffffffffffffffffffffffffffff16905090565b6060600480546108ab906118bf565b80601f01602080910402602001604051908101604052809291908181526020018280546108d7906118bf565b80156109225780601f106108f957610100808354040283529160200191610922565b820191905f5260205f20905b81548152906001019060200180831161090557829003601f168201915b5050505050905090565b5f5f610936610b29565b9050610943818585610bd5565b600191505092915050565b60075481565b5f60015f8473ffffffffffffffffffffffffffffffffffffffff1673ffffffffffffffffffffffffffffffffffffffff1681526020019081526020015f205f8373ffffffffffffffffffffffffffffffffffffffff1673ffffffffffffffffffffffffffffffffffffffff1681526020019081526020015f2054905092915050565b6109de610cc5565b5f73ffffffffffffffffffffffffffffffffffffffff168173ffffffffffffffffffffffffffffffffffffffff1603610a4e575f6040517f1e4fbdf7000000000000000000000000000000000000000000000000000000008152600401610a459190611500565b60405180910390fd5b610a5781610d4c565b50565b600260065403610a96576040517f3ee5aeb500000000000000000000000000000000000000000000000000000000815260040160405180910390fd5b6002600681905550565b5f73ffffffffffffffffffffffffffffffffffffffff168273ffffffffffffffffffffffffffffffffffffffff1603610b10575f6040517fec442f05000000000000000000000000000000000000000000000000000000008152600401610b079190611500565b60405180910390fd5b610b1b5f8383610e0f565b5050565b6001600681905550565b5f33905090565b610b3d8383836001611028565b505050565b5f610b4d8484610954565b90507fffffffffffffffffffffffffffffffffffffffffffffffffffffffffffffffff811015610bcf5781811015610bc0578281836040517ffb8f41b2000000000000000000000000000000000000000000000000000000008152600401610bb793929190611ad0565b60405180910390fd5b610bce84848484035f611028565b5b50505050565b5f73ffffffffffffffffffffffffffffffffffffffff168373ffffffffffffffffffffffffffffffffffffffff1603610c45575f6040517f96c6fd1e000000000000000000000000000000000000000000000000000000008152600401610c3c9190611500565b60405180910390fd5b5f73ffffffffffffffffffffffffffffffffffffffff168273ffffffffffffffffffffffffffffffffffffffff1603610cb5575f6040517fec442f05000000000000000000000000000000000000000000000000000000008152600401610cac9190611500565b60405180910390fd5b610cc0838383610e0f565b505050565b610ccd610b29565b73ffffffffffffffffffffffffffffffffffffffff16610ceb610874565b73ffffffffffffffffffffffffffffffffffffffff1614610d4a57610d0e610b29565b6040517f118cdaa7000000000000000000000000000000000000000000000000000000008152600401610d419190611500565b60405180910390fd5b565b5f60055f9054906101000a900473ffffffffffffffffffffffffffffffffffffffff1690508160055f6101000a81548173ffffffffffffffffffffffffffffffffffffffff021916908373ffffffffffffffffffffffffffffffffffffffff1602179055508173ffffffffffffffffffffffffffffffffffffffff168173ffffffffffffffffffffffffffffffffffffffff167f8be0079c531659141344cd1fd0a4f28419497f9722a3daafe3b4186f6b6457e060405160405180910390a35050565b5f73ffffffffffffffffffffffffffffffffffffffff168373ffffffffffffffffffffffffffffffffffffffff1603610e5f578060025f828254610e539190611b05565b92505081905550610f2d565b5f5f5f8573ffffffffffffffffffffffffffffffffffffffff1673ffffffffffffffffffffffffffffffffffffffff1681526020019081526020015f2054905081811015610ee8578381836040517fe450d38c000000000000000000000000000000000000000000000000000000008152600401610edf93929190611ad0565b60405180910390fd5b8181035f5f8673ffffffffffffffffffffffffffffffffffffffff1673ffffffffffffffffffffffffffffffffffffffff1681526020019081526020015f2081905550505b5f73ffffffffffffffffffffffffffffffffffffffff168273ffffffffffffffffffffffffffffffffffffffff1603610f74578060025f8282540392505081905550610fbe565b805f5f8473ffffffffffffffffffffffffffffffffffffffff1673ffffffffffffffffffffffffffffffffffffffff1681526020019081526020015f205f82825401925050819055505b8173ffffffffffffffffffffffffffffffffffffffff168373ffffffffffffffffffffffffffffffffffffffff167fddf252ad1be2c89b69c2b068fc378daa952ba7f163c4a11628f55a4df523b3ef8360405161101b9190611398565b60405180910390a3505050565b5f73ffffffffffffffffffffffffffffffffffffffff168473ffffffffffffffffffffffffffffffffffffffff1603611098575f6040517fe602df0500000000000000000000000000000000000000000000000000000000815260040161108f9190611500565b60405180910390fd5b5f73ffffffffffffffffffffffffffffffffffffffff168373ffffffffffffffffffffffffffffffffffffffff1603611108575f6040517f94280d620000000000000000000000000000000000000000000000000000000081526004016110ff9190611500565b60405180910390fd5b8160015f8673ffffffffffffffffffffffffffffffffffffffff1673ffffffffffffffffffffffffffffffffffffffff1681526020019081526020015f205f8573ffffffffffffffffffffffffffffffffffffffff1673ffffffffffffffffffffffffffffffffffffffff1681526020019081526020015f208190555080156111f1578273ffffffffffffffffffffffffffffffffffffffff168473ffffffffffffffffffffffffffffffffffffffff167f8c5be1e5ebec7d5bd14f71427d1e84f3dd0314c0f7b2291e5b200ac8c7c3b925846040516111e89190611398565b60405180910390a35b50505050565b5f81519050919050565b5f82825260208201905092915050565b8281835e5f83830152505050565b5f601f19601f8301169050919050565b5f611239826111f7565b6112438185611201565b9350611253818560208601611211565b61125c8161121f565b840191505092915050565b5f6020820190508181035f83015261127f818461122f565b905092915050565b5f5ffd5b5f73ffffffffffffffffffffffffffffffffffffffff82169050919050565b5f6112b48261128b565b9050919050565b6112c4816112aa565b81146112ce575f5ffd5b50565b5f813590506112df816112bb565b92915050565b5f819050919050565b6112f7816112e5565b8114611301575f5ffd5b50565b5f81359050611312816112ee565b92915050565b5f5f6040838503121561132e5761132d611287565b5b5f61133b858286016112d1565b925050602061134c85828601611304565b9150509250929050565b5f8115159050919050565b61136a81611356565b82525050565b5f6020820190506113835f830184611361565b92915050565b611392816112e5565b82525050565b5f6020820190506113ab5f830184611389565b92915050565b5f5f5f606084860312156113c8576113c7611287565b5b5f6113d5868287016112d1565b93505060206113e6868287016112d1565b92505060406113f786828701611304565b9150509250925092565b5f60ff82169050919050565b61141681611401565b82525050565b5f60208201905061142f5f83018461140d565b92915050565b5f61143f8261128b565b9050919050565b61144f81611435565b8114611459575f5ffd5b50565b5f8135905061146a81611446565b92915050565b5f6020828403121561148557611484611287565b5b5f6114928482850161145c565b91505092915050565b5f602082840312156114b0576114af611287565b5b5f6114bd84828501611304565b91505092915050565b5f602082840312156114db576114da611287565b5b5f6114e8848285016112d1565b91505092915050565b6114fa816112aa565b82525050565b5f6020820190506115135f8301846114f1565b92915050565b5f5f6040838503121561152f5761152e611287565b5b5f61153c858286016112d1565b925050602061154d858286016112d1565b9150509250929050565b7f6e6f2045544800000000000000000000000000000000000000000000000000005f82015250565b5f61158b600683611201565b915061159682611557565b602082019050919050565b5f6020820190508181035f8301526115b88161157f565b9050919050565b7f4e487b71000000000000000000000000000000000000000000000000000000005f52601160045260245ffd5b5f8160011c9050919050565b5f5f8291508390505b60018511156116415780860481111561161d5761161c6115bf565b5b600185161561162c5780820291505b808102905061163a856115ec565b9450611601565b94509492505050565b5f826116595760019050611714565b81611666575f9050611714565b816001811461167c5760028114611686576116b5565b6001915050611714565b60ff841115611698576116976115bf565b5b8360020a9150848211156116af576116ae6115bf565b5b50611714565b5060208310610133831016604e8410600b84101617156116ea5782820a9050838111156116e5576116e46115bf565b5b611714565b6116f784848460016115f8565b9250905081840481111561170e5761170d6115bf565b5b81810290505b9392505050565b5f611725826112e5565b915061173083611401565b925061175d7fffffffffffffffffffffffffffffffffffffffffffffffffffffffffffffffff848461164a565b905092915050565b5f61176f826112e5565b915061177a836112e5565b9250828202611788816112e5565b9150828204841483151761179f5761179e6115bf565b5b5092915050565b7f4e487b71000000000000000000000000000000000000000000000000000000005f52601260045260245ffd5b5f6117dd826112e5565b91506117e8836112e5565b9250826117f8576117f76117a6565b5b828204905092915050565b7f746f6f206c6974746c65204554480000000000000000000000000000000000005f82015250565b5f611837600e83611201565b915061184282611803565b602082019050919050565b5f6020820190508181035f8301526118648161182b565b9050919050565b5f60408201905061187e5f830185611389565b61188b6020830184611389565b9392505050565b7f4e487b71000000000000000000000000000000000000000000000000000000005f52602260045260245ffd5b5f60028204905060018216806118d657607f821691505b6020821081036118e9576118e8611892565b5b50919050565b7f746f3d30000000000000000000000000000000000000000000000000000000005f82015250565b5f611923600483611201565b915061192e826118ef565b602082019050919050565b5f6020820190508181035f83015261195081611917565b9050919050565b7f656d7074790000000000000000000000000000000000000000000000000000005f82015250565b5f61198b600583611201565b915061199682611957565b602082019050919050565b5f6020820190508181035f8301526119b88161197f565b9050919050565b5f81905092915050565b50565b5f6119d75f836119bf565b91506119e2826119c9565b5f82019050919050565b5f6119f6826119cc565b9150819050919050565b7f7769746864726177206661696c000000000000000000000000000000000000005f82015250565b5f611a34600d83611201565b9150611a3f82611a00565b602082019050919050565b5f6020820190508181035f830152611a6181611a28565b9050919050565b7f70726963653d30000000000000000000000000000000000000000000000000005f82015250565b5f611a9c600783611201565b9150611aa782611a68565b602082019050919050565b5f6020820190508181035f830152611ac981611a90565b9050919050565b5f606082019050611ae35f8301866114f1565b611af06020830185611389565b611afd6040830184611389565b949350505050565b5f611b0f826112e5565b9150611b1a836112e5565b9250828201905080821115611b3257611b316115bf565b5b9291505056fea26469706673582212206d2e3883aea79d1b3d43c94261dc2971d8bdeaabcd6b8d337f55462889155bc664736f6c634300081e0033', \n     arguments: [\n     ]\n}).send({\n     from: web3.eth.accounts[0], \n     gas: '4700000'\n   }, function (e, contract){\n    console.log(e, contract);\n    if (typeof contract.address !== 'undefined') {\n         console.log('Contract mined! address: ' + contract.address + ' transactionHash: ' + contract.transactionHash);\n    }\n })",
	"functionHashes": {
		"dd62ed3e": "allowance(address,address)",
		"095ea7b3": "approve(address,uint256)",
		"70a08231": "balanceOf(address)",
		"c1331061": "buyCarbonoToken20()",
		"313ce567": "decimals()",
		"06fdde03": "name()",
		"8da5cb5b": "owner()",
		"dbf09d66": "priceWeiPerToken()",
		"715018a6": "renounceOwnership()",
		"707e422f": "setPriceWeiPerToken(uint256)",
		"95d89b41": "symbol()",
		"18160ddd": "totalSupply()",
		"a9059cbb": "transfer(address,uint256)",
		"23b872dd": "transferFrom(address,address,uint256)",
		"f2fde38b": "transferOwnership(address)",
		"51cff8d9": "withdraw(address)"
	},
	"gasEstimates": {
		"Creation": {
			"codeDepositCost": "1404400",
			"executionCost": "infinite",
			"totalCost": "infinite"
		},
		"External": {
			"allowance(address,address)": "infinite",
			"approve(address,uint256)": "infinite",
			"balanceOf(address)": "2917",
			"buyCarbonoToken20()": "infinite",
			"decimals()": "361",
			"name()": "infinite",
			"owner()": "2560",
			"priceWeiPerToken()": "2469",
			"renounceOwnership()": "infinite",
			"setPriceWeiPerToken(uint256)": "infinite",
			"symbol()": "infinite",
			"totalSupply()": "2500",
			"transfer(address,uint256)": "infinite",
			"transferFrom(address,address,uint256)": "infinite",
			"transferOwnership(address)": "infinite",
			"withdraw(address)": "infinite"
		}
	},
	"devdoc": {
		"errors": {
			"ERC20InsufficientAllowance(address,uint256,uint256)": [
				{
					"details": "Indicates a failure with the `spender`’s `allowance`. Used in transfers.",
					"params": {
						"allowance": "Amount of tokens a `spender` is allowed to operate with.",
						"needed": "Minimum amount required to perform a transfer.",
						"spender": "Address that may be allowed to operate on tokens without being their owner."
					}
				}
			],
			"ERC20InsufficientBalance(address,uint256,uint256)": [
				{
					"details": "Indicates an error related to the current `balance` of a `sender`. Used in transfers.",
					"params": {
						"balance": "Current balance for the interacting account.",
						"needed": "Minimum amount required to perform a transfer.",
						"sender": "Address whose tokens are being transferred."
					}
				}
			],
			"ERC20InvalidApprover(address)": [
				{
					"details": "Indicates a failure with the `approver` of a token to be approved. Used in approvals.",
					"params": {
						"approver": "Address initiating an approval operation."
					}
				}
			],
			"ERC20InvalidReceiver(address)": [
				{
					"details": "Indicates a failure with the token `receiver`. Used in transfers.",
					"params": {
						"receiver": "Address to which tokens are being transferred."
					}
				}
			],
			"ERC20InvalidSender(address)": [
				{
					"details": "Indicates a failure with the token `sender`. Used in transfers.",
					"params": {
						"sender": "Address whose tokens are being transferred."
					}
				}
			],
			"ERC20InvalidSpender(address)": [
				{
					"details": "Indicates a failure with the `spender` to be approved. Used in approvals.",
					"params": {
						"spender": "Address that may be allowed to operate on tokens without being their owner."
					}
				}
			],
			"OwnableInvalidOwner(address)": [
				{
					"details": "The owner is not a valid owner account. (eg. `address(0)`)"
				}
			],
			"OwnableUnauthorizedAccount(address)": [
				{
					"details": "The caller account is not authorized to perform an operation."
				}
			],
			"ReentrancyGuardReentrantCall()": [
				{
					"details": "Unauthorized reentrant call."
				}
			]
		},
		"events": {
			"Approval(address,address,uint256)": {
				"details": "Emitted when the allowance of a `spender` for an `owner` is set by a call to {approve}. `value` is the new allowance."
			},
			"Transfer(address,address,uint256)": {
				"details": "Emitted when `value` tokens are moved from one account (`from`) to another (`to`). Note that `value` may be zero."
			}
		},
		"kind": "dev",
		"methods": {
			"allowance(address,address)": {
				"details": "Returns the remaining number of tokens that `spender` will be allowed to spend on behalf of `owner` through {transferFrom}. This is zero by default. This value changes when {approve} or {transferFrom} are called."
			},
			"approve(address,uint256)": {
				"details": "See {IERC20-approve}. NOTE: If `value` is the maximum `uint256`, the allowance is not updated on `transferFrom`. This is semantically equivalent to an infinite approval. Requirements: - `spender` cannot be the zero address."
			},
			"balanceOf(address)": {
				"details": "Returns the value of tokens owned by `account`."
			},
			"decimals()": {
				"details": "Returns the number of decimals used to get its user representation. For example, if `decimals` equals `2`, a balance of `505` tokens should be displayed to a user as `5.05` (`505 / 10 ** 2`). Tokens usually opt for a value of 18, imitating the relationship between Ether and Wei. This is the default value returned by this function, unless it's overridden. NOTE: This information is only used for _display_ purposes: it in no way affects any of the arithmetic of the contract, including {IERC20-balanceOf} and {IERC20-transfer}."
			},
			"name()": {
				"details": "Returns the name of the token."
			},
			"owner()": {
				"details": "Returns the address of the current owner."
			},
			"renounceOwnership()": {
				"details": "Leaves the contract without owner. It will not be possible to call `onlyOwner` functions. Can only be called by the current owner. NOTE: Renouncing ownership will leave the contract without an owner, thereby disabling any functionality that is only available to the owner."
			},
			"symbol()": {
				"details": "Returns the symbol of the token, usually a shorter version of the name."
			},
			"totalSupply()": {
				"details": "Returns the value of tokens in existence."
			},
			"transfer(address,uint256)": {
				"details": "See {IERC20-transfer}. Requirements: - `to` cannot be the zero address. - the caller must have a balance of at least `value`."
			},
			"transferFrom(address,address,uint256)": {
				"details": "See {IERC20-transferFrom}. Skips emitting an {Approval} event indicating an allowance update. This is not required by the ERC. See {xref-ERC20-_approve-address-address-uint256-bool-}[_approve]. NOTE: Does not update the allowance if the current allowance is the maximum `uint256`. Requirements: - `from` and `to` cannot be the zero address. - `from` must have a balance of at least `value`. - the caller must have allowance for ``from``'s tokens of at least `value`."
			},
			"transferOwnership(address)": {
				"details": "Transfers ownership of the contract to a new account (`newOwner`). Can only be called by the current owner."
			}
		},
		"title": "CarbonoToken20 (CBO)",
		"version": 1
	},
	"userdoc": {
		"kind": "user",
		"methods": {
			"buyCarbonoToken20()": {
				"notice": "Comprar CBO enviando ETH"
			},
			"setPriceWeiPerToken(uint256)": {
				"notice": "Cambiar el precio (wei por 1 CBO)"
			},
			"withdraw(address)": {
				"notice": "Retirar el ETH recaudado"
			}
		},
		"notice": "ERC-20 comprable con ETH (buyCarbonoToken20). Precio por defecto: 0.001 ETH por 1 CBO.   - priceWeiPerToken (wei por token, 18 decimales)   - setPriceWeiPerToken(): cambia el precio (solo owner)   - buyCarbonoToken20(): payable, acuña CBO proporcional a msg.value   - withdraw(): retira el ETH acumulado (solo owner) tokensOut = (msg.value * 1e18) / priceWeiPerToken",
		"version": 1
	},
	"Runtime Bytecode": {
		"immutableReferences": {},
		"linkReferences": {},
		"object": "6080604052600436106100f6575f3560e01c8063715018a611610089578063c133106111610058578063c133106114610331578063dbf09d661461033b578063dd62ed3e14610365578063f2fde38b146103a157610105565b8063715018a61461028b5780638da5cb5b146102a157806395d89b41146102cb578063a9059cbb146102f557610105565b8063313ce567116100c5578063313ce567146101d557806351cff8d9146101ff578063707e422f1461022757806370a082311461024f57610105565b806306fdde0314610109578063095ea7b31461013357806318160ddd1461016f57806323b872dd1461019957610105565b36610105576101036103c9565b005b5f5ffd5b348015610114575f5ffd5b5061011d6104e9565b60405161012a9190611267565b60405180910390f35b34801561013e575f5ffd5b5061015960048036038101906101549190611318565b610579565b6040516101669190611370565b60405180910390f35b34801561017a575f5ffd5b5061018361059b565b6040516101909190611398565b60405180910390f35b3480156101a4575f5ffd5b506101bf60048036038101906101ba91906113b1565b6105a4565b6040516101cc9190611370565b60405180910390f35b3480156101e0575f5ffd5b506101e96105d2565b6040516101f6919061141c565b60405180910390f35b34801561020a575f5ffd5b5061022560048036038101906102209190611470565b6105da565b005b348015610232575f5ffd5b5061024d6004803603810190610248919061149b565b610791565b005b34801561025a575f5ffd5b50610275600480360381019061027091906114c6565b61081c565b6040516102829190611398565b60405180910390f35b348015610296575f5ffd5b5061029f610861565b005b3480156102ac575f5ffd5b506102b5610874565b6040516102c29190611500565b60405180910390f35b3480156102d6575f5ffd5b506102df61089c565b6040516102ec9190611267565b60405180910390f35b348015610300575f5ffd5b5061031b60048036038101906103169190611318565b61092c565b6040516103289190611370565b60405180910390f35b6103396103c9565b005b348015610346575f5ffd5b5061034f61094e565b60405161035c9190611398565b60405180910390f35b348015610370575f5ffd5b5061038b60048036038101906103869190611519565b610954565b6040516103989190611398565b60405180910390f35b3480156103ac575f5ffd5b506103c760048036038101906103c291906114c6565b6109d6565b005b6103d1610a5a565b5f3411610413576040517f08c379a000000000000000000000000000000000000000000000000000000000815260040161040a906115a1565b60405180910390fd5b5f60075461041f6105d2565b600a61042b919061171b565b346104369190611765565b61044091906117d3565b90505f8111610484576040517f08c379a000000000000000000000000000000000000000000000000000000000815260040161047b9061184d565b60405180910390fd5b61048e3382610aa0565b3373ffffffffffffffffffffffffffffffffffffffff167f1226f1537b00d316270056dd247f05739ee0aca67a32cdd8258b675b6f0658b034836040516104d692919061186b565b60405180910390a2506104e7610b1f565b565b6060600380546104f8906118bf565b80601f0160208091040260200160405190810160405280929190818152602001828054610524906118bf565b801561056f5780601f106105465761010080835404028352916020019161056f565b820191905f5260205f20905b81548152906001019060200180831161055257829003601f168201915b5050505050905090565b5f5f610583610b29565b9050610590818585610b30565b600191505092915050565b5f600254905090565b5f5f6105ae610b29565b90506105bb858285610b42565b6105c6858585610bd5565b60019150509392505050565b5f6012905090565b6105e2610cc5565b5f73ffffffffffffffffffffffffffffffffffffffff168173ffffffffffffffffffffffffffffffffffffffff1603610650576040517f08c379a000000000000000000000000000000000000000000000000000000000815260040161064790611939565b60405180910390fd5b5f4790505f8111610696576040517f08c379a000000000000000000000000000000000000000000000000000000000815260040161068d906119a1565b60405180910390fd5b5f8273ffffffffffffffffffffffffffffffffffffffff16826040516106bb906119ec565b5f6040518083038185875af1925050503d805f81146106f5576040519150601f19603f3d011682016040523d82523d5f602084013e6106fa565b606091505b505090508061073e576040517f08c379a000000000000000000000000000000000000000000000000000000000815260040161073590611a4a565b60405180910390fd5b8273ffffffffffffffffffffffffffffffffffffffff167f884edad9ce6fa2440d8a54cc123490eb96d2768479d49ff9c7366125a9424364836040516107849190611398565b60405180910390a2505050565b610799610cc5565b5f81116107db576040517f08c379a00000000000000000000000000000000000000000000000000000000081526004016107d290611ab2565b60405180910390fd5b806007819055507f66cbca4f3c64fecf1dcb9ce094abcf7f68c3450a1d4e3a8e917dd621edb4ebe0816040516108119190611398565b60405180910390a150565b5f5f5f8373ffffffffffffffffffffffffffffffffffffffff1673ffffffffffffffffffffffffffffffffffffffff1681526020019081526020015f20549050919050565b610869610cc5565b6108725f610d4c565b565b5f60055f9054906101000a900473ffffffffffffffffffffffffffffffffffffffff16905090565b6060600480546108ab906118bf565b80601f01602080910402602001604051908101604052809291908181526020018280546108d7906118bf565b80156109225780601f106108f957610100808354040283529160200191610922565b820191905f5260205f20905b81548152906001019060200180831161090557829003601f168201915b5050505050905090565b5f5f610936610b29565b9050610943818585610bd5565b600191505092915050565b60075481565b5f60015f8473ffffffffffffffffffffffffffffffffffffffff1673ffffffffffffffffffffffffffffffffffffffff1681526020019081526020015f205f8373ffffffffffffffffffffffffffffffffffffffff1673ffffffffffffffffffffffffffffffffffffffff1681526020019081526020015f2054905092915050565b6109de610cc5565b5f73ffffffffffffffffffffffffffffffffffffffff168173ffffffffffffffffffffffffffffffffffffffff1603610a4e575f6040517f1e4fbdf7000000000000000000000000000000000000000000000000000000008152600401610a459190611500565b60405180910390fd5b610a5781610d4c565b50565b600260065403610a96576040517f3ee5aeb500000000000000000000000000000000000000000000000000000000815260040160405180910390fd5b6002600681905550565b5f73ffffffffffffffffffffffffffffffffffffffff168273ffffffffffffffffffffffffffffffffffffffff1603610b10575f6040517fec442f05000000000000000000000000000000000000000000000000000000008152600401610b079190611500565b60405180910390fd5b610b1b5f8383610e0f565b5050565b6001600681905550565b5f33905090565b610b3d8383836001611028565b505050565b5f610b4d8484610954565b90507fffffffffffffffffffffffffffffffffffffffffffffffffffffffffffffffff811015610bcf5781811015610bc0578281836040517ffb8f41b2000000000000000000000000000000000000000000000000000000008152600401610bb793929190611ad0565b60405180910390fd5b610bce84848484035f611028565b5b50505050565b5f73ffffffffffffffffffffffffffffffffffffffff168373ffffffffffffffffffffffffffffffffffffffff1603610c45575f6040517f96c6fd1e000000000000000000000000000000000000000000000000000000008152600401610c3c9190611500565b60405180910390fd5b5f73ffffffffffffffffffffffffffffffffffffffff168273ffffffffffffffffffffffffffffffffffffffff1603610cb5575f6040517fec442f05000000000000000000000000000000000000000000000000000000008152600401610cac9190611500565b60405180910390fd5b610cc0838383610e0f565b505050565b610ccd610b29565b73ffffffffffffffffffffffffffffffffffffffff16610ceb610874565b73ffffffffffffffffffffffffffffffffffffffff1614610d4a57610d0e610b29565b6040517f118cdaa7000000000000000000000000000000000000000000000000000000008152600401610d419190611500565b60405180910390fd5b565b5f60055f9054906101000a900473ffffffffffffffffffffffffffffffffffffffff1690508160055f6101000a81548173ffffffffffffffffffffffffffffffffffffffff021916908373ffffffffffffffffffffffffffffffffffffffff1602179055508173ffffffffffffffffffffffffffffffffffffffff168173ffffffffffffffffffffffffffffffffffffffff167f8be0079c531659141344cd1fd0a4f28419497f9722a3daafe3b4186f6b6457e060405160405180910390a35050565b5f73ffffffffffffffffffffffffffffffffffffffff168373ffffffffffffffffffffffffffffffffffffffff1603610e5f578060025f828254610e539190611b05565b92505081905550610f2d565b5f5f5f8573ffffffffffffffffffffffffffffffffffffffff1673ffffffffffffffffffffffffffffffffffffffff1681526020019081526020015f2054905081811015610ee8578381836040517fe450d38c000000000000000000000000000000000000000000000000000000008152600401610edf93929190611ad0565b60405180910390fd5b8181035f5f8673ffffffffffffffffffffffffffffffffffffffff1673ffffffffffffffffffffffffffffffffffffffff1681526020019081526020015f2081905550505b5f73ffffffffffffffffffffffffffffffffffffffff168273ffffffffffffffffffffffffffffffffffffffff1603610f74578060025f8282540392505081905550610fbe565b805f5f8473ffffffffffffffffffffffffffffffffffffffff1673ffffffffffffffffffffffffffffffffffffffff1681526020019081526020015f205f82825401925050819055505b8173ffffffffffffffffffffffffffffffffffffffff168373ffffffffffffffffffffffffffffffffffffffff167fddf252ad1be2c89b69c2b068fc378daa952ba7f163c4a11628f55a4df523b3ef8360405161101b9190611398565b60405180910390a3505050565b5f73ffffffffffffffffffffffffffffffffffffffff168473ffffffffffffffffffffffffffffffffffffffff1603611098575f6040517fe602df0500000000000000000000000000000000000000000000000000000000815260040161108f9190611500565b60405180910390fd5b5f73ffffffffffffffffffffffffffffffffffffffff168373ffffffffffffffffffffffffffffffffffffffff1603611108575f6040517f94280d620000000000000000000000000000000000000000000000000000000081526004016110ff9190611500565b60405180910390fd5b8160015f8673ffffffffffffffffffffffffffffffffffffffff1673ffffffffffffffffffffffffffffffffffffffff1681526020019081526020015f205f8573ffffffffffffffffffffffffffffffffffffffff1673ffffffffffffffffffffffffffffffffffffffff1681526020019081526020015f208190555080156111f1578273ffffffffffffffffffffffffffffffffffffffff168473ffffffffffffffffffffffffffffffffffffffff167f8c5be1e5ebec7d5bd14f71427d1e84f3dd0314c0f7b2291e5b200ac8c7c3b925846040516111e89190611398565b60405180910390a35b50505050565b5f81519050919050565b5f82825260208201905092915050565b8281835e5f83830152505050565b5f601f19601f8301169050919050565b5f611239826111f7565b6112438185611201565b9350611253818560208601611211565b61125c8161121f565b840191505092915050565b5f6020820190508181035f83015261127f818461122f565b905092915050565b5f5ffd5b5f73ffffffffffffffffffffffffffffffffffffffff82169050919050565b5f6112b48261128b565b9050919050565b6112c4816112aa565b81146112ce575f5ffd5b50565b5f813590506112df816112bb565b92915050565b5f819050919050565b6112f7816112e5565b8114611301575f5ffd5b50565b5f81359050611312816112ee565b92915050565b5f5f6040838503121561132e5761132d611287565b5b5f61133b858286016112d1565b925050602061134c85828601611304565b9150509250929050565b5f8115159050919050565b61136a81611356565b82525050565b5f6020820190506113835f830184611361565b92915050565b611392816112e5565b82525050565b5f6020820190506113ab5f830184611389565b92915050565b5f5f5f606084860312156113c8576113c7611287565b5b5f6113d5868287016112d1565b93505060206113e6868287016112d1565b92505060406113f786828701611304565b9150509250925092565b5f60ff82169050919050565b61141681611401565b82525050565b5f60208201905061142f5f83018461140d565b92915050565b5f61143f8261128b565b9050919050565b61144f81611435565b8114611459575f5ffd5b50565b5f8135905061146a81611446565b92915050565b5f6020828403121561148557611484611287565b5b5f6114928482850161145c565b91505092915050565b5f602082840312156114b0576114af611287565b5b5f6114bd84828501611304565b91505092915050565b5f602082840312156114db576114da611287565b5b5f6114e8848285016112d1565b91505092915050565b6114fa816112aa565b82525050565b5f6020820190506115135f8301846114f1565b92915050565b5f5f6040838503121561152f5761152e611287565b5b5f61153c858286016112d1565b925050602061154d858286016112d1565b9150509250929050565b7f6e6f2045544800000000000000000000000000000000000000000000000000005f82015250565b5f61158b600683611201565b915061159682611557565b602082019050919050565b5f6020820190508181035f8301526115b88161157f565b9050919050565b7f4e487b71000000000000000000000000000000000000000000000000000000005f52601160045260245ffd5b5f8160011c9050919050565b5f5f8291508390505b60018511156116415780860481111561161d5761161c6115bf565b5b600185161561162c5780820291505b808102905061163a856115ec565b9450611601565b94509492505050565b5f826116595760019050611714565b81611666575f9050611714565b816001811461167c5760028114611686576116b5565b6001915050611714565b60ff841115611698576116976115bf565b5b8360020a9150848211156116af576116ae6115bf565b5b50611714565b5060208310610133831016604e8410600b84101617156116ea5782820a9050838111156116e5576116e46115bf565b5b611714565b6116f784848460016115f8565b9250905081840481111561170e5761170d6115bf565b5b81810290505b9392505050565b5f611725826112e5565b915061173083611401565b925061175d7fffffffffffffffffffffffffffffffffffffffffffffffffffffffffffffffff848461164a565b905092915050565b5f61176f826112e5565b915061177a836112e5565b9250828202611788816112e5565b9150828204841483151761179f5761179e6115bf565b5b5092915050565b7f4e487b71000000000000000000000000000000000000000000000000000000005f52601260045260245ffd5b5f6117dd826112e5565b91506117e8836112e5565b9250826117f8576117f76117a6565b5b828204905092915050565b7f746f6f206c6974746c65204554480000000000000000000000000000000000005f82015250565b5f611837600e83611201565b915061184282611803565b602082019050919050565b5f6020820190508181035f8301526118648161182b565b9050919050565b5f60408201905061187e5f830185611389565b61188b6020830184611389565b9392505050565b7f4e487b71000000000000000000000000000000000000000000000000000000005f52602260045260245ffd5b5f60028204905060018216806118d657607f821691505b6020821081036118e9576118e8611892565b5b50919050565b7f746f3d30000000000000000000000000000000000000000000000000000000005f82015250565b5f611923600483611201565b915061192e826118ef565b602082019050919050565b5f6020820190508181035f83015261195081611917565b9050919050565b7f656d7074790000000000000000000000000000000000000000000000000000005f82015250565b5f61198b600583611201565b915061199682611957565b602082019050919050565b5f6020820190508181035f8301526119b88161197f565b9050919050565b5f81905092915050565b50565b5f6119d75f836119bf565b91506119e2826119c9565b5f82019050919050565b5f6119f6826119cc565b9150819050919050565b7f7769746864726177206661696c000000000000000000000000000000000000005f82015250565b5f611a34600d83611201565b9150611a3f82611a00565b602082019050919050565b5f6020820190508181035f830152611a6181611a28565b9050919050565b7f70726963653d30000000000000000000000000000000000000000000000000005f82015250565b5f611a9c600783611201565b9150611aa782611a68565b602082019050919050565b5f6020820190508181035f830152611ac981611a90565b9050919050565b5f606082019050611ae35f8301866114f1565b611af06020830185611389565b611afd6040830184611389565b949350505050565b5f611b0f826112e5565b9150611b1a836112e5565b9250828201905080821115611b3257611b316115bf565b5b9291505056fea26469706673582212206d2e3883aea79d1b3d43c94261dc2971d8bdeaabcd6b8d337f55462889155bc664736f6c634300081e0033",
		"opcodes": "PUSH1 0x80 PUSH1 0x40 MSTORE PUSH1 0x4 CALLDATASIZE LT PUSH2 0xF6 JUMPI PUSH0 CALLDATALOAD PUSH1 0xE0 SHR DUP1 PUSH4 0x715018A6 GT PUSH2 0x89 JUMPI DUP1 PUSH4 0xC1331061 GT PUSH2 0x58 JUMPI DUP1 PUSH4 0xC1331061 EQ PUSH2 0x331 JUMPI DUP1 PUSH4 0xDBF09D66 EQ PUSH2 0x33B JUMPI DUP1 PUSH4 0xDD62ED3E EQ PUSH2 0x365 JUMPI DUP1 PUSH4 0xF2FDE38B EQ PUSH2 0x3A1 JUMPI PUSH2 0x105 JUMP JUMPDEST DUP1 PUSH4 0x715018A6 EQ PUSH2 0x28B JUMPI DUP1 PUSH4 0x8DA5CB5B EQ PUSH2 0x2A1 JUMPI DUP1 PUSH4 0x95D89B41 EQ PUSH2 0x2CB JUMPI DUP1 PUSH4 0xA9059CBB EQ PUSH2 0x2F5 JUMPI PUSH2 0x105 JUMP JUMPDEST DUP1 PUSH4 0x313CE567 GT PUSH2 0xC5 JUMPI DUP1 PUSH4 0x313CE567 EQ PUSH2 0x1D5 JUMPI DUP1 PUSH4 0x51CFF8D9 EQ PUSH2 0x1FF JUMPI DUP1 PUSH4 0x707E422F EQ PUSH2 0x227 JUMPI DUP1 PUSH4 0x70A08231 EQ PUSH2 0x24F JUMPI PUSH2 0x105 JUMP JUMPDEST DUP1 PUSH4 0x6FDDE03 EQ PUSH2 0x109 JUMPI DUP1 PUSH4 0x95EA7B3 EQ PUSH2 0x133 JUMPI DUP1 PUSH4 0x18160DDD EQ PUSH2 0x16F JUMPI DUP1 PUSH4 0x23B872DD EQ PUSH2 0x199 JUMPI PUSH2 0x105 JUMP JUMPDEST CALLDATASIZE PUSH2 0x105 JUMPI PUSH2 0x103 PUSH2 0x3C9 JUMP JUMPDEST STOP JUMPDEST PUSH0 PUSH0 REVERT JUMPDEST CALLVALUE DUP1 ISZERO PUSH2 0x114 JUMPI PUSH0 PUSH0 REVERT JUMPDEST POP PUSH2 0x11D PUSH2 0x4E9 JUMP JUMPDEST PUSH1 0x40 MLOAD PUSH2 0x12A SWAP2 SWAP1 PUSH2 0x1267 JUMP JUMPDEST PUSH1 0x40 MLOAD DUP1 SWAP2 SUB SWAP1 RETURN JUMPDEST CALLVALUE DUP1 ISZERO PUSH2 0x13E JUMPI PUSH0 PUSH0 REVERT JUMPDEST POP PUSH2 0x159 PUSH1 0x4 DUP1 CALLDATASIZE SUB DUP2 ADD SWAP1 PUSH2 0x154 SWAP2 SWAP1 PUSH2 0x1318 JUMP JUMPDEST PUSH2 0x579 JUMP JUMPDEST PUSH1 0x40 MLOAD PUSH2 0x166 SWAP2 SWAP1 PUSH2 0x1370 JUMP JUMPDEST PUSH1 0x40 MLOAD DUP1 SWAP2 SUB SWAP1 RETURN JUMPDEST CALLVALUE DUP1 ISZERO PUSH2 0x17A JUMPI PUSH0 PUSH0 REVERT JUMPDEST POP PUSH2 0x183 PUSH2 0x59B JUMP JUMPDEST PUSH1 0x40 MLOAD PUSH2 0x190 SWAP2 SWAP1 PUSH2 0x1398 JUMP JUMPDEST PUSH1 0x40 MLOAD DUP1 SWAP2 SUB SWAP1 RETURN JUMPDEST CALLVALUE DUP1 ISZERO PUSH2 0x1A4 JUMPI PUSH0 PUSH0 REVERT JUMPDEST POP PUSH2 0x1BF PUSH1 0x4 DUP1 CALLDATASIZE SUB DUP2 ADD SWAP1 PUSH2 0x1BA SWAP2 SWAP1 PUSH2 0x13B1 JUMP JUMPDEST PUSH2 0x5A4 JUMP JUMPDEST PUSH1 0x40 MLOAD PUSH2 0x1CC SWAP2 SWAP1 PUSH2 0x1370 JUMP JUMPDEST PUSH1 0x40 MLOAD DUP1 SWAP2 SUB SWAP1 RETURN JUMPDEST CALLVALUE DUP1 ISZERO PUSH2 0x1E0 JUMPI PUSH0 PUSH0 REVERT JUMPDEST POP PUSH2 0x1E9 PUSH2 0x5D2 JUMP JUMPDEST PUSH1 0x40 MLOAD PUSH2 0x1F6 SWAP2 SWAP1 PUSH2 0x141C JUMP JUMPDEST PUSH1 0x40 MLOAD DUP1 SWAP2 SUB SWAP1 RETURN JUMPDEST CALLVALUE DUP1 ISZERO PUSH2 0x20A JUMPI PUSH0 PUSH0 REVERT JUMPDEST POP PUSH2 0x225 PUSH1 0x4 DUP1 CALLDATASIZE SUB DUP2 ADD SWAP1 PUSH2 0x220 SWAP2 SWAP1 PUSH2 0x1470 JUMP JUMPDEST PUSH2 0x5DA JUMP JUMPDEST STOP JUMPDEST CALLVALUE DUP1 ISZERO PUSH2 0x232 JUMPI PUSH0 PUSH0 REVERT JUMPDEST POP PUSH2 0x24D PUSH1 0x4 DUP1 CALLDATASIZE SUB DUP2 ADD SWAP1 PUSH2 0x248 SWAP2 SWAP1 PUSH2 0x149B JUMP JUMPDEST PUSH2 0x791 JUMP JUMPDEST STOP JUMPDEST CALLVALUE DUP1 ISZERO PUSH2 0x25A JUMPI PUSH0 PUSH0 REVERT JUMPDEST POP PUSH2 0x275 PUSH1 0x4 DUP1 CALLDATASIZE SUB DUP2 ADD SWAP1 PUSH2 0x270 SWAP2 SWAP1 PUSH2 0x14C6 JUMP JUMPDEST PUSH2 0x81C JUMP JUMPDEST PUSH1 0x40 MLOAD PUSH2 0x282 SWAP2 SWAP1 PUSH2 0x1398 JUMP JUMPDEST PUSH1 0x40 MLOAD DUP1 SWAP2 SUB SWAP1 RETURN JUMPDEST CALLVALUE DUP1 ISZERO PUSH2 0x296 JUMPI PUSH0 PUSH0 REVERT JUMPDEST POP PUSH2 0x29F PUSH2 0x861 JUMP JUMPDEST STOP JUMPDEST CALLVALUE DUP1 ISZERO PUSH2 0x2AC JUMPI PUSH0 PUSH0 REVERT JUMPDEST POP PUSH2 0x2B5 PUSH2 0x874 JUMP JUMPDEST PUSH1 0x40 MLOAD PUSH2 0x2C2 SWAP2 SWAP1 PUSH2 0x1500 JUMP JUMPDEST PUSH1 0x40 MLOAD DUP1 SWAP2 SUB SWAP1 RETURN JUMPDEST CALLVALUE DUP1 ISZERO PUSH2 0x2D6 JUMPI PUSH0 PUSH0 REVERT JUMPDEST POP PUSH2 0x2DF PUSH2 0x89C JUMP JUMPDEST PUSH1 0x40 MLOAD PUSH2 0x2EC SWAP2 SWAP1 PUSH2 0x1267 JUMP JUMPDEST PUSH1 0x40 MLOAD DUP1 SWAP2 SUB SWAP1 RETURN JUMPDEST CALLVALUE DUP1 ISZERO PUSH2 0x300 JUMPI PUSH0 PUSH0 REVERT JUMPDEST POP PUSH2 0x31B PUSH1 0x4 DUP1 CALLDATASIZE SUB DUP2 ADD SWAP1 PUSH2 0x316 SWAP2 SWAP1 PUSH2 0x1318 JUMP JUMPDEST PUSH2 0x92C JUMP JUMPDEST PUSH1 0x40 MLOAD PUSH2 0x328 SWAP2 SWAP1 PUSH2 0x1370 JUMP JUMPDEST PUSH1 0x40 MLOAD DUP1 SWAP2 SUB SWAP1 RETURN JUMPDEST PUSH2 0x339 PUSH2 0x3C9 JUMP JUMPDEST STOP JUMPDEST CALLVALUE DUP1 ISZERO PUSH2 0x346 JUMPI PUSH0 PUSH0 REVERT JUMPDEST POP PUSH2 0x34F PUSH2 0x94E JUMP JUMPDEST PUSH1 0x40 MLOAD PUSH2 0x35C SWAP2 SWAP1 PUSH2 0x1398 JUMP JUMPDEST PUSH1 0x40 MLOAD DUP1 SWAP2 SUB SWAP1 RETURN JUMPDEST CALLVALUE DUP1 ISZERO PUSH2 0x370 JUMPI PUSH0 PUSH0 REVERT JUMPDEST POP PUSH2 0x38B PUSH1 0x4 DUP1 CALLDATASIZE SUB DUP2 ADD SWAP1 PUSH2 0x386 SWAP2 SWAP1 PUSH2 0x1519 JUMP JUMPDEST PUSH2 0x954 JUMP JUMPDEST PUSH1 0x40 MLOAD PUSH2 0x398 SWAP2 SWAP1 PUSH2 0x1398 JUMP JUMPDEST PUSH1 0x40 MLOAD DUP1 SWAP2 SUB SWAP1 RETURN JUMPDEST CALLVALUE DUP1 ISZERO PUSH2 0x3AC JUMPI PUSH0 PUSH0 REVERT JUMPDEST POP PUSH2 0x3C7 PUSH1 0x4 DUP1 CALLDATASIZE SUB DUP2 ADD SWAP1 PUSH2 0x3C2 SWAP2 SWAP1 PUSH2 0x14C6 JUMP JUMPDEST PUSH2 0x9D6 JUMP JUMPDEST STOP JUMPDEST PUSH2 0x3D1 PUSH2 0xA5A JUMP JUMPDEST PUSH0 CALLVALUE GT PUSH2 0x413 JUMPI PUSH1 0x40 MLOAD PUSH32 0x8C379A000000000000000000000000000000000000000000000000000000000 DUP2 MSTORE PUSH1 0x4 ADD PUSH2 0x40A SWAP1 PUSH2 0x15A1 JUMP JUMPDEST PUSH1 0x40 MLOAD DUP1 SWAP2 SUB SWAP1 REVERT JUMPDEST PUSH0 PUSH1 0x7 SLOAD PUSH2 0x41F PUSH2 0x5D2 JUMP JUMPDEST PUSH1 0xA PUSH2 0x42B SWAP2 SWAP1 PUSH2 0x171B JUMP JUMPDEST CALLVALUE PUSH2 0x436 SWAP2 SWAP1 PUSH2 0x1765 JUMP JUMPDEST PUSH2 0x440 SWAP2 SWAP1 PUSH2 0x17D3 JUMP JUMPDEST SWAP1 POP PUSH0 DUP2 GT PUSH2 0x484 JUMPI PUSH1 0x40 MLOAD PUSH32 0x8C379A000000000000000000000000000000000000000000000000000000000 DUP2 MSTORE PUSH1 0x4 ADD PUSH2 0x47B SWAP1 PUSH2 0x184D JUMP JUMPDEST PUSH1 0x40 MLOAD DUP1 SWAP2 SUB SWAP1 REVERT JUMPDEST PUSH2 0x48E CALLER DUP3 PUSH2 0xAA0 JUMP JUMPDEST CALLER PUSH20 0xFFFFFFFFFFFFFFFFFFFFFFFFFFFFFFFFFFFFFFFF AND PUSH32 0x1226F1537B00D316270056DD247F05739EE0ACA67A32CDD8258B675B6F0658B0 CALLVALUE DUP4 PUSH1 0x40 MLOAD PUSH2 0x4D6 SWAP3 SWAP2 SWAP1 PUSH2 0x186B JUMP JUMPDEST PUSH1 0x40 MLOAD DUP1 SWAP2 SUB SWAP1 LOG2 POP PUSH2 0x4E7 PUSH2 0xB1F JUMP JUMPDEST JUMP JUMPDEST PUSH1 0x60 PUSH1 0x3 DUP1 SLOAD PUSH2 0x4F8 SWAP1 PUSH2 0x18BF JUMP JUMPDEST DUP1 PUSH1 0x1F ADD PUSH1 0x20 DUP1 SWAP2 DIV MUL PUSH1 0x20 ADD PUSH1 0x40 MLOAD SWAP1 DUP2 ADD PUSH1 0x40 MSTORE DUP1 SWAP3 SWAP2 SWAP1 DUP2 DUP2 MSTORE PUSH1 0x20 ADD DUP3 DUP1 SLOAD PUSH2 0x524 SWAP1 PUSH2 0x18BF JUMP JUMPDEST DUP1 ISZERO PUSH2 0x56F JUMPI DUP1 PUSH1 0x1F LT PUSH2 0x546 JUMPI PUSH2 0x100 DUP1 DUP4 SLOAD DIV MUL DUP4 MSTORE SWAP2 PUSH1 0x20 ADD SWAP2 PUSH2 0x56F JUMP JUMPDEST DUP3 ADD SWAP2 SWAP1 PUSH0 MSTORE PUSH1 0x20 PUSH0 KECCAK256 SWAP1 JUMPDEST DUP2 SLOAD DUP2 MSTORE SWAP1 PUSH1 0x1 ADD SWAP1 PUSH1 0x20 ADD DUP1 DUP4 GT PUSH2 0x552 JUMPI DUP3 SWAP1 SUB PUSH1 0x1F AND DUP3 ADD SWAP2 JUMPDEST POP POP POP POP POP SWAP1 POP SWAP1 JUMP JUMPDEST PUSH0 PUSH0 PUSH2 0x583 PUSH2 0xB29 JUMP JUMPDEST SWAP1 POP PUSH2 0x590 DUP2 DUP6 DUP6 PUSH2 0xB30 JUMP JUMPDEST PUSH1 0x1 SWAP2 POP POP SWAP3 SWAP2 POP POP JUMP JUMPDEST PUSH0 PUSH1 0x2 SLOAD SWAP1 POP SWAP1 JUMP JUMPDEST PUSH0 PUSH0 PUSH2 0x5AE PUSH2 0xB29 JUMP JUMPDEST SWAP1 POP PUSH2 0x5BB DUP6 DUP3 DUP6 PUSH2 0xB42 JUMP JUMPDEST PUSH2 0x5C6 DUP6 DUP6 DUP6 PUSH2 0xBD5 JUMP JUMPDEST PUSH1 0x1 SWAP2 POP POP SWAP4 SWAP3 POP POP POP JUMP JUMPDEST PUSH0 PUSH1 0x12 SWAP1 POP SWAP1 JUMP JUMPDEST PUSH2 0x5E2 PUSH2 0xCC5 JUMP JUMPDEST PUSH0 PUSH20 0xFFFFFFFFFFFFFFFFFFFFFFFFFFFFFFFFFFFFFFFF AND DUP2 PUSH20 0xFFFFFFFFFFFFFFFFFFFFFFFFFFFFFFFFFFFFFFFF AND SUB PUSH2 0x650 JUMPI PUSH1 0x40 MLOAD PUSH32 0x8C379A000000000000000000000000000000000000000000000000000000000 DUP2 MSTORE PUSH1 0x4 ADD PUSH2 0x647 SWAP1 PUSH2 0x1939 JUMP JUMPDEST PUSH1 0x40 MLOAD DUP1 SWAP2 SUB SWAP1 REVERT JUMPDEST PUSH0 SELFBALANCE SWAP1 POP PUSH0 DUP2 GT PUSH2 0x696 JUMPI PUSH1 0x40 MLOAD PUSH32 0x8C379A000000000000000000000000000000000000000000000000000000000 DUP2 MSTORE PUSH1 0x4 ADD PUSH2 0x68D SWAP1 PUSH2 0x19A1 JUMP JUMPDEST PUSH1 0x40 MLOAD DUP1 SWAP2 SUB SWAP1 REVERT JUMPDEST PUSH0 DUP3 PUSH20 0xFFFFFFFFFFFFFFFFFFFFFFFFFFFFFFFFFFFFFFFF AND DUP3 PUSH1 0x40 MLOAD PUSH2 0x6BB SWAP1 PUSH2 0x19EC JUMP JUMPDEST PUSH0 PUSH1 0x40 MLOAD DUP1 DUP4 SUB DUP2 DUP6 DUP8 GAS CALL SWAP3 POP POP POP RETURNDATASIZE DUP1 PUSH0 DUP2 EQ PUSH2 0x6F5 JUMPI PUSH1 0x40 MLOAD SWAP2 POP PUSH1 0x1F NOT PUSH1 0x3F RETURNDATASIZE ADD AND DUP3 ADD PUSH1 0x40 MSTORE RETURNDATASIZE DUP3 MSTORE RETURNDATASIZE PUSH0 PUSH1 0x20 DUP5 ADD RETURNDATACOPY PUSH2 0x6FA JUMP JUMPDEST PUSH1 0x60 SWAP2 POP JUMPDEST POP POP SWAP1 POP DUP1 PUSH2 0x73E JUMPI PUSH1 0x40 MLOAD PUSH32 0x8C379A000000000000000000000000000000000000000000000000000000000 DUP2 MSTORE PUSH1 0x4 ADD PUSH2 0x735 SWAP1 PUSH2 0x1A4A JUMP JUMPDEST PUSH1 0x40 MLOAD DUP1 SWAP2 SUB SWAP1 REVERT JUMPDEST DUP3 PUSH20 0xFFFFFFFFFFFFFFFFFFFFFFFFFFFFFFFFFFFFFFFF AND PUSH32 0x884EDAD9CE6FA2440D8A54CC123490EB96D2768479D49FF9C7366125A9424364 DUP4 PUSH1 0x40 MLOAD PUSH2 0x784 SWAP2 SWAP1 PUSH2 0x1398 JUMP JUMPDEST PUSH1 0x40 MLOAD DUP1 SWAP2 SUB SWAP1 LOG2 POP POP POP JUMP JUMPDEST PUSH2 0x799 PUSH2 0xCC5 JUMP JUMPDEST PUSH0 DUP2 GT PUSH2 0x7DB JUMPI PUSH1 0x40 MLOAD PUSH32 0x8C379A000000000000000000000000000000000000000000000000000000000 DUP2 MSTORE PUSH1 0x4 ADD PUSH2 0x7D2 SWAP1 PUSH2 0x1AB2 JUMP JUMPDEST PUSH1 0x40 MLOAD DUP1 SWAP2 SUB SWAP1 REVERT JUMPDEST DUP1 PUSH1 0x7 DUP2 SWAP1 SSTORE POP PUSH32 0x66CBCA4F3C64FECF1DCB9CE094ABCF7F68C3450A1D4E3A8E917DD621EDB4EBE0 DUP2 PUSH1 0x40 MLOAD PUSH2 0x811 SWAP2 SWAP1 PUSH2 0x1398 JUMP JUMPDEST PUSH1 0x40 MLOAD DUP1 SWAP2 SUB SWAP1 LOG1 POP JUMP JUMPDEST PUSH0 PUSH0 PUSH0 DUP4 PUSH20 0xFFFFFFFFFFFFFFFFFFFFFFFFFFFFFFFFFFFFFFFF AND PUSH20 0xFFFFFFFFFFFFFFFFFFFFFFFFFFFFFFFFFFFFFFFF AND DUP2 MSTORE PUSH1 0x20 ADD SWAP1 DUP2 MSTORE PUSH1 0x20 ADD PUSH0 KECCAK256 SLOAD SWAP1 POP SWAP2 SWAP1 POP JUMP JUMPDEST PUSH2 0x869 PUSH2 0xCC5 JUMP JUMPDEST PUSH2 0x872 PUSH0 PUSH2 0xD4C JUMP JUMPDEST JUMP JUMPDEST PUSH0 PUSH1 0x5 PUSH0 SWAP1 SLOAD SWAP1 PUSH2 0x100 EXP SWAP1 DIV PUSH20 0xFFFFFFFFFFFFFFFFFFFFFFFFFFFFFFFFFFFFFFFF AND SWAP1 POP SWAP1 JUMP JUMPDEST PUSH1 0x60 PUSH1 0x4 DUP1 SLOAD PUSH2 0x8AB SWAP1 PUSH2 0x18BF JUMP JUMPDEST DUP1 PUSH1 0x1F ADD PUSH1 0x20 DUP1 SWAP2 DIV MUL PUSH1 0x20 ADD PUSH1 0x40 MLOAD SWAP1 DUP2 ADD PUSH1 0x40 MSTORE DUP1 SWAP3 SWAP2 SWAP1 DUP2 DUP2 MSTORE PUSH1 0x20 ADD DUP3 DUP1 SLOAD PUSH2 0x8D7 SWAP1 PUSH2 0x18BF JUMP JUMPDEST DUP1 ISZERO PUSH2 0x922 JUMPI DUP1 PUSH1 0x1F LT PUSH2 0x8F9 JUMPI PUSH2 0x100 DUP1 DUP4 SLOAD DIV MUL DUP4 MSTORE SWAP2 PUSH1 0x20 ADD SWAP2 PUSH2 0x922 JUMP JUMPDEST DUP3 ADD SWAP2 SWAP1 PUSH0 MSTORE PUSH1 0x20 PUSH0 KECCAK256 SWAP1 JUMPDEST DUP2 SLOAD DUP2 MSTORE SWAP1 PUSH1 0x1 ADD SWAP1 PUSH1 0x20 ADD DUP1 DUP4 GT PUSH2 0x905 JUMPI DUP3 SWAP1 SUB PUSH1 0x1F AND DUP3 ADD SWAP2 JUMPDEST POP POP POP POP POP SWAP1 POP SWAP1 JUMP JUMPDEST PUSH0 PUSH0 PUSH2 0x936 PUSH2 0xB29 JUMP JUMPDEST SWAP1 POP PUSH2 0x943 DUP2 DUP6 DUP6 PUSH2 0xBD5 JUMP JUMPDEST PUSH1 0x1 SWAP2 POP POP SWAP3 SWAP2 POP POP JUMP JUMPDEST PUSH1 0x7 SLOAD DUP2 JUMP JUMPDEST PUSH0 PUSH1 0x1 PUSH0 DUP5 PUSH20 0xFFFFFFFFFFFFFFFFFFFFFFFFFFFFFFFFFFFFFFFF AND PUSH20 0xFFFFFFFFFFFFFFFFFFFFFFFFFFFFFFFFFFFFFFFF AND DUP2 MSTORE PUSH1 0x20 ADD SWAP1 DUP2 MSTORE PUSH1 0x20 ADD PUSH0 KECCAK256 PUSH0 DUP4 PUSH20 0xFFFFFFFFFFFFFFFFFFFFFFFFFFFFFFFFFFFFFFFF AND PUSH20 0xFFFFFFFFFFFFFFFFFFFFFFFFFFFFFFFFFFFFFFFF AND DUP2 MSTORE PUSH1 0x20 ADD SWAP1 DUP2 MSTORE PUSH1 0x20 ADD PUSH0 KECCAK256 SLOAD SWAP1 POP SWAP3 SWAP2 POP POP JUMP JUMPDEST PUSH2 0x9DE PUSH2 0xCC5 JUMP JUMPDEST PUSH0 PUSH20 0xFFFFFFFFFFFFFFFFFFFFFFFFFFFFFFFFFFFFFFFF AND DUP2 PUSH20 0xFFFFFFFFFFFFFFFFFFFFFFFFFFFFFFFFFFFFFFFF AND SUB PUSH2 0xA4E JUMPI PUSH0 PUSH1 0x40 MLOAD PUSH32 0x1E4FBDF700000000000000000000000000000000000000000000000000000000 DUP2 MSTORE PUSH1 0x4 ADD PUSH2 0xA45 SWAP2 SWAP1 PUSH2 0x1500 JUMP JUMPDEST PUSH1 0x40 MLOAD DUP1 SWAP2 SUB SWAP1 REVERT JUMPDEST PUSH2 0xA57 DUP2 PUSH2 0xD4C JUMP JUMPDEST POP JUMP JUMPDEST PUSH1 0x2 PUSH1 0x6 SLOAD SUB PUSH2 0xA96 JUMPI PUSH1 0x40 MLOAD PUSH32 0x3EE5AEB500000000000000000000000000000000000000000000000000000000 DUP2 MSTORE PUSH1 0x4 ADD PUSH1 0x40 MLOAD DUP1 SWAP2 SUB SWAP1 REVERT JUMPDEST PUSH1 0x2 PUSH1 0x6 DUP2 SWAP1 SSTORE POP JUMP JUMPDEST PUSH0 PUSH20 0xFFFFFFFFFFFFFFFFFFFFFFFFFFFFFFFFFFFFFFFF AND DUP3 PUSH20 0xFFFFFFFFFFFFFFFFFFFFFFFFFFFFFFFFFFFFFFFF AND SUB PUSH2 0xB10 JUMPI PUSH0 PUSH1 0x40 MLOAD PUSH32 0xEC442F0500000000000000000000000000000000000000000000000000000000 DUP2 MSTORE PUSH1 0x4 ADD PUSH2 0xB07 SWAP2 SWAP1 PUSH2 0x1500 JUMP JUMPDEST PUSH1 0x40 MLOAD DUP1 SWAP2 SUB SWAP1 REVERT JUMPDEST PUSH2 0xB1B PUSH0 DUP4 DUP4 PUSH2 0xE0F JUMP JUMPDEST POP POP JUMP JUMPDEST PUSH1 0x1 PUSH1 0x6 DUP2 SWAP1 SSTORE POP JUMP JUMPDEST PUSH0 CALLER SWAP1 POP SWAP1 JUMP JUMPDEST PUSH2 0xB3D DUP4 DUP4 DUP4 PUSH1 0x1 PUSH2 0x1028 JUMP JUMPDEST POP POP POP JUMP JUMPDEST PUSH0 PUSH2 0xB4D DUP5 DUP5 PUSH2 0x954 JUMP JUMPDEST SWAP1 POP PUSH32 0xFFFFFFFFFFFFFFFFFFFFFFFFFFFFFFFFFFFFFFFFFFFFFFFFFFFFFFFFFFFFFFFF DUP2 LT ISZERO PUSH2 0xBCF JUMPI DUP2 DUP2 LT ISZERO PUSH2 0xBC0 JUMPI DUP3 DUP2 DUP4 PUSH1 0x40 MLOAD PUSH32 0xFB8F41B200000000000000000000000000000000000000000000000000000000 DUP2 MSTORE PUSH1 0x4 ADD PUSH2 0xBB7 SWAP4 SWAP3 SWAP2 SWAP1 PUSH2 0x1AD0 JUMP JUMPDEST PUSH1 0x40 MLOAD DUP1 SWAP2 SUB SWAP1 REVERT JUMPDEST PUSH2 0xBCE DUP5 DUP5 DUP5 DUP5 SUB PUSH0 PUSH2 0x1028 JUMP JUMPDEST JUMPDEST POP POP POP POP JUMP JUMPDEST PUSH0 PUSH20 0xFFFFFFFFFFFFFFFFFFFFFFFFFFFFFFFFFFFFFFFF AND DUP4 PUSH20 0xFFFFFFFFFFFFFFFFFFFFFFFFFFFFFFFFFFFFFFFF AND SUB PUSH2 0xC45 JUMPI PUSH0 PUSH1 0x40 MLOAD PUSH32 0x96C6FD1E00000000000000000000000000000000000000000000000000000000 DUP2 MSTORE PUSH1 0x4 ADD PUSH2 0xC3C SWAP2 SWAP1 PUSH2 0x1500 JUMP JUMPDEST PUSH1 0x40 MLOAD DUP1 SWAP2 SUB SWAP1 REVERT JUMPDEST PUSH0 PUSH20 0xFFFFFFFFFFFFFFFFFFFFFFFFFFFFFFFFFFFFFFFF AND DUP3 PUSH20 0xFFFFFFFFFFFFFFFFFFFFFFFFFFFFFFFFFFFFFFFF AND SUB PUSH2 0xCB5 JUMPI PUSH0 PUSH1 0x40 MLOAD PUSH32 0xEC442F0500000000000000000000000000000000000000000000000000000000 DUP2 MSTORE PUSH1 0x4 ADD PUSH2 0xCAC SWAP2 SWAP1 PUSH2 0x1500 JUMP JUMPDEST PUSH1 0x40 MLOAD DUP1 SWAP2 SUB SWAP1 REVERT JUMPDEST PUSH2 0xCC0 DUP4 DUP4 DUP4 PUSH2 0xE0F JUMP JUMPDEST POP POP POP JUMP JUMPDEST PUSH2 0xCCD PUSH2 0xB29 JUMP JUMPDEST PUSH20 0xFFFFFFFFFFFFFFFFFFFFFFFFFFFFFFFFFFFFFFFF AND PUSH2 0xCEB PUSH2 0x874 JUMP JUMPDEST PUSH20 0xFFFFFFFFFFFFFFFFFFFFFFFFFFFFFFFFFFFFFFFF AND EQ PUSH2 0xD4A JUMPI PUSH2 0xD0E PUSH2 0xB29 JUMP JUMPDEST PUSH1 0x40 MLOAD PUSH32 0x118CDAA700000000000000000000000000000000000000000000000000000000 DUP2 MSTORE PUSH1 0x4 ADD PUSH2 0xD41 SWAP2 SWAP1 PUSH2 0x1500 JUMP JUMPDEST PUSH1 0x40 MLOAD DUP1 SWAP2 SUB SWAP1 REVERT JUMPDEST JUMP JUMPDEST PUSH0 PUSH1 0x5 PUSH0 SWAP1 SLOAD SWAP1 PUSH2 0x100 EXP SWAP1 DIV PUSH20 0xFFFFFFFFFFFFFFFFFFFFFFFFFFFFFFFFFFFFFFFF AND SWAP1 POP DUP2 PUSH1 0x5 PUSH0 PUSH2 0x100 EXP DUP2 SLOAD DUP2 PUSH20 0xFFFFFFFFFFFFFFFFFFFFFFFFFFFFFFFFFFFFFFFF MUL NOT AND SWAP1 DUP4 PUSH20 0xFFFFFFFFFFFFFFFFFFFFFFFFFFFFFFFFFFFFFFFF AND MUL OR SWAP1 SSTORE POP DUP2 PUSH20 0xFFFFFFFFFFFFFFFFFFFFFFFFFFFFFFFFFFFFFFFF AND DUP2 PUSH20 0xFFFFFFFFFFFFFFFFFFFFFFFFFFFFFFFFFFFFFFFF AND PUSH32 0x8BE0079C531659141344CD1FD0A4F28419497F9722A3DAAFE3B4186F6B6457E0 PUSH1 0x40 MLOAD PUSH1 0x40 MLOAD DUP1 SWAP2 SUB SWAP1 LOG3 POP POP JUMP JUMPDEST PUSH0 PUSH20 0xFFFFFFFFFFFFFFFFFFFFFFFFFFFFFFFFFFFFFFFF AND DUP4 PUSH20 0xFFFFFFFFFFFFFFFFFFFFFFFFFFFFFFFFFFFFFFFF AND SUB PUSH2 0xE5F JUMPI DUP1 PUSH1 0x2 PUSH0 DUP3 DUP3 SLOAD PUSH2 0xE53 SWAP2 SWAP1 PUSH2 0x1B05 JUMP JUMPDEST SWAP3 POP POP DUP2 SWAP1 SSTORE POP PUSH2 0xF2D JUMP JUMPDEST PUSH0 PUSH0 PUSH0 DUP6 PUSH20 0xFFFFFFFFFFFFFFFFFFFFFFFFFFFFFFFFFFFFFFFF AND PUSH20 0xFFFFFFFFFFFFFFFFFFFFFFFFFFFFFFFFFFFFFFFF AND DUP2 MSTORE PUSH1 0x20 ADD SWAP1 DUP2 MSTORE PUSH1 0x20 ADD PUSH0 KECCAK256 SLOAD SWAP1 POP DUP2 DUP2 LT ISZERO PUSH2 0xEE8 JUMPI DUP4 DUP2 DUP4 PUSH1 0x40 MLOAD PUSH32 0xE450D38C00000000000000000000000000000000000000000000000000000000 DUP2 MSTORE PUSH1 0x4 ADD PUSH2 0xEDF SWAP4 SWAP3 SWAP2 SWAP1 PUSH2 0x1AD0 JUMP JUMPDEST PUSH1 0x40 MLOAD DUP1 SWAP2 SUB SWAP1 REVERT JUMPDEST DUP2 DUP2 SUB PUSH0 PUSH0 DUP7 PUSH20 0xFFFFFFFFFFFFFFFFFFFFFFFFFFFFFFFFFFFFFFFF AND PUSH20 0xFFFFFFFFFFFFFFFFFFFFFFFFFFFFFFFFFFFFFFFF AND DUP2 MSTORE PUSH1 0x20 ADD SWAP1 DUP2 MSTORE PUSH1 0x20 ADD PUSH0 KECCAK256 DUP2 SWAP1 SSTORE POP POP JUMPDEST PUSH0 PUSH20 0xFFFFFFFFFFFFFFFFFFFFFFFFFFFFFFFFFFFFFFFF AND DUP3 PUSH20 0xFFFFFFFFFFFFFFFFFFFFFFFFFFFFFFFFFFFFFFFF AND SUB PUSH2 0xF74 JUMPI DUP1 PUSH1 0x2 PUSH0 DUP3 DUP3 SLOAD SUB SWAP3 POP POP DUP2 SWAP1 SSTORE POP PUSH2 0xFBE JUMP JUMPDEST DUP1 PUSH0 PUSH0 DUP5 PUSH20 0xFFFFFFFFFFFFFFFFFFFFFFFFFFFFFFFFFFFFFFFF AND PUSH20 0xFFFFFFFFFFFFFFFFFFFFFFFFFFFFFFFFFFFFFFFF AND DUP2 MSTORE PUSH1 0x20 ADD SWAP1 DUP2 MSTORE PUSH1 0x20 ADD PUSH0 KECCAK256 PUSH0 DUP3 DUP3 SLOAD ADD SWAP3 POP POP DUP2 SWAP1 SSTORE POP JUMPDEST DUP2 PUSH20 0xFFFFFFFFFFFFFFFFFFFFFFFFFFFFFFFFFFFFFFFF AND DUP4 PUSH20 0xFFFFFFFFFFFFFFFFFFFFFFFFFFFFFFFFFFFFFFFF AND PUSH32 0xDDF252AD1BE2C89B69C2B068FC378DAA952BA7F163C4A11628F55A4DF523B3EF DUP4 PUSH1 0x40 MLOAD PUSH2 0x101B SWAP2 SWAP1 PUSH2 0x1398 JUMP JUMPDEST PUSH1 0x40 MLOAD DUP1 SWAP2 SUB SWAP1 LOG3 POP POP POP JUMP JUMPDEST PUSH0 PUSH20 0xFFFFFFFFFFFFFFFFFFFFFFFFFFFFFFFFFFFFFFFF AND DUP5 PUSH20 0xFFFFFFFFFFFFFFFFFFFFFFFFFFFFFFFFFFFFFFFF AND SUB PUSH2 0x1098 JUMPI PUSH0 PUSH1 0x40 MLOAD PUSH32 0xE602DF0500000000000000000000000000000000000000000000000000000000 DUP2 MSTORE PUSH1 0x4 ADD PUSH2 0x108F SWAP2 SWAP1 PUSH2 0x1500 JUMP JUMPDEST PUSH1 0x40 MLOAD DUP1 SWAP2 SUB SWAP1 REVERT JUMPDEST PUSH0 PUSH20 0xFFFFFFFFFFFFFFFFFFFFFFFFFFFFFFFFFFFFFFFF AND DUP4 PUSH20 0xFFFFFFFFFFFFFFFFFFFFFFFFFFFFFFFFFFFFFFFF AND SUB PUSH2 0x1108 JUMPI PUSH0 PUSH1 0x40 MLOAD PUSH32 0x94280D6200000000000000000000000000000000000000000000000000000000 DUP2 MSTORE PUSH1 0x4 ADD PUSH2 0x10FF SWAP2 SWAP1 PUSH2 0x1500 JUMP JUMPDEST PUSH1 0x40 MLOAD DUP1 SWAP2 SUB SWAP1 REVERT JUMPDEST DUP2 PUSH1 0x1 PUSH0 DUP7 PUSH20 0xFFFFFFFFFFFFFFFFFFFFFFFFFFFFFFFFFFFFFFFF AND PUSH20 0xFFFFFFFFFFFFFFFFFFFFFFFFFFFFFFFFFFFFFFFF AND DUP2 MSTORE PUSH1 0x20 ADD SWAP1 DUP2 MSTORE PUSH1 0x20 ADD PUSH0 KECCAK256 PUSH0 DUP6 PUSH20 0xFFFFFFFFFFFFFFFFFFFFFFFFFFFFFFFFFFFFFFFF AND PUSH20 0xFFFFFFFFFFFFFFFFFFFFFFFFFFFFFFFFFFFFFFFF AND DUP2 MSTORE PUSH1 0x20 ADD SWAP1 DUP2 MSTORE PUSH1 0x20 ADD PUSH0 KECCAK256 DUP2 SWAP1 SSTORE POP DUP1 ISZERO PUSH2 0x11F1 JUMPI DUP3 PUSH20 0xFFFFFFFFFFFFFFFFFFFFFFFFFFFFFFFFFFFFFFFF AND DUP5 PUSH20 0xFFFFFFFFFFFFFFFFFFFFFFFFFFFFFFFFFFFFFFFF AND PUSH32 0x8C5BE1E5EBEC7D5BD14F71427D1E84F3DD0314C0F7B2291E5B200AC8C7C3B925 DUP5 PUSH1 0x40 MLOAD PUSH2 0x11E8 SWAP2 SWAP1 PUSH2 0x1398 JUMP JUMPDEST PUSH1 0x40 MLOAD DUP1 SWAP2 SUB SWAP1 LOG3 JUMPDEST POP POP POP POP JUMP JUMPDEST PUSH0 DUP2 MLOAD SWAP1 POP SWAP2 SWAP1 POP JUMP JUMPDEST PUSH0 DUP3 DUP3 MSTORE PUSH1 0x20 DUP3 ADD SWAP1 POP SWAP3 SWAP2 POP POP JUMP JUMPDEST DUP3 DUP2 DUP4 MCOPY PUSH0 DUP4 DUP4 ADD MSTORE POP POP POP JUMP JUMPDEST PUSH0 PUSH1 0x1F NOT PUSH1 0x1F DUP4 ADD AND SWAP1 POP SWAP2 SWAP1 POP JUMP JUMPDEST PUSH0 PUSH2 0x1239 DUP3 PUSH2 0x11F7 JUMP JUMPDEST PUSH2 0x1243 DUP2 DUP6 PUSH2 0x1201 JUMP JUMPDEST SWAP4 POP PUSH2 0x1253 DUP2 DUP6 PUSH1 0x20 DUP7 ADD PUSH2 0x1211 JUMP JUMPDEST PUSH2 0x125C DUP2 PUSH2 0x121F JUMP JUMPDEST DUP5 ADD SWAP2 POP POP SWAP3 SWAP2 POP POP JUMP JUMPDEST PUSH0 PUSH1 0x20 DUP3 ADD SWAP1 POP DUP2 DUP2 SUB PUSH0 DUP4 ADD MSTORE PUSH2 0x127F DUP2 DUP5 PUSH2 0x122F JUMP JUMPDEST SWAP1 POP SWAP3 SWAP2 POP POP JUMP JUMPDEST PUSH0 PUSH0 REVERT JUMPDEST PUSH0 PUSH20 0xFFFFFFFFFFFFFFFFFFFFFFFFFFFFFFFFFFFFFFFF DUP3 AND SWAP1 POP SWAP2 SWAP1 POP JUMP JUMPDEST PUSH0 PUSH2 0x12B4 DUP3 PUSH2 0x128B JUMP JUMPDEST SWAP1 POP SWAP2 SWAP1 POP JUMP JUMPDEST PUSH2 0x12C4 DUP2 PUSH2 0x12AA JUMP JUMPDEST DUP2 EQ PUSH2 0x12CE JUMPI PUSH0 PUSH0 REVERT JUMPDEST POP JUMP JUMPDEST PUSH0 DUP2 CALLDATALOAD SWAP1 POP PUSH2 0x12DF DUP2 PUSH2 0x12BB JUMP JUMPDEST SWAP3 SWAP2 POP POP JUMP JUMPDEST PUSH0 DUP2 SWAP1 POP SWAP2 SWAP1 POP JUMP JUMPDEST PUSH2 0x12F7 DUP2 PUSH2 0x12E5 JUMP JUMPDEST DUP2 EQ PUSH2 0x1301 JUMPI PUSH0 PUSH0 REVERT JUMPDEST POP JUMP JUMPDEST PUSH0 DUP2 CALLDATALOAD SWAP1 POP PUSH2 0x1312 DUP2 PUSH2 0x12EE JUMP JUMPDEST SWAP3 SWAP2 POP POP JUMP JUMPDEST PUSH0 PUSH0 PUSH1 0x40 DUP4 DUP6 SUB SLT ISZERO PUSH2 0x132E JUMPI PUSH2 0x132D PUSH2 0x1287 JUMP JUMPDEST JUMPDEST PUSH0 PUSH2 0x133B DUP6 DUP3 DUP7 ADD PUSH2 0x12D1 JUMP JUMPDEST SWAP3 POP POP PUSH1 0x20 PUSH2 0x134C DUP6 DUP3 DUP7 ADD PUSH2 0x1304 JUMP JUMPDEST SWAP2 POP POP SWAP3 POP SWAP3 SWAP1 POP JUMP JUMPDEST PUSH0 DUP2 ISZERO ISZERO SWAP1 POP SWAP2 SWAP1 POP JUMP JUMPDEST PUSH2 0x136A DUP2 PUSH2 0x1356 JUMP JUMPDEST DUP3 MSTORE POP POP JUMP JUMPDEST PUSH0 PUSH1 0x20 DUP3 ADD SWAP1 POP PUSH2 0x1383 PUSH0 DUP4 ADD DUP5 PUSH2 0x1361 JUMP JUMPDEST SWAP3 SWAP2 POP POP JUMP JUMPDEST PUSH2 0x1392 DUP2 PUSH2 0x12E5 JUMP JUMPDEST DUP3 MSTORE POP POP JUMP JUMPDEST PUSH0 PUSH1 0x20 DUP3 ADD SWAP1 POP PUSH2 0x13AB PUSH0 DUP4 ADD DUP5 PUSH2 0x1389 JUMP JUMPDEST SWAP3 SWAP2 POP POP JUMP JUMPDEST PUSH0 PUSH0 PUSH0 PUSH1 0x60 DUP5 DUP7 SUB SLT ISZERO PUSH2 0x13C8 JUMPI PUSH2 0x13C7 PUSH2 0x1287 JUMP JUMPDEST JUMPDEST PUSH0 PUSH2 0x13D5 DUP7 DUP3 DUP8 ADD PUSH2 0x12D1 JUMP JUMPDEST SWAP4 POP POP PUSH1 0x20 PUSH2 0x13E6 DUP7 DUP3 DUP8 ADD PUSH2 0x12D1 JUMP JUMPDEST SWAP3 POP POP PUSH1 0x40 PUSH2 0x13F7 DUP7 DUP3 DUP8 ADD PUSH2 0x1304 JUMP JUMPDEST SWAP2 POP POP SWAP3 POP SWAP3 POP SWAP3 JUMP JUMPDEST PUSH0 PUSH1 0xFF DUP3 AND SWAP1 POP SWAP2 SWAP1 POP JUMP JUMPDEST PUSH2 0x1416 DUP2 PUSH2 0x1401 JUMP JUMPDEST DUP3 MSTORE POP POP JUMP JUMPDEST PUSH0 PUSH1 0x20 DUP3 ADD SWAP1 POP PUSH2 0x142F PUSH0 DUP4 ADD DUP5 PUSH2 0x140D JUMP JUMPDEST SWAP3 SWAP2 POP POP JUMP JUMPDEST PUSH0 PUSH2 0x143F DUP3 PUSH2 0x128B JUMP JUMPDEST SWAP1 POP SWAP2 SWAP1 POP JUMP JUMPDEST PUSH2 0x144F DUP2 PUSH2 0x1435 JUMP JUMPDEST DUP2 EQ PUSH2 0x1459 JUMPI PUSH0 PUSH0 REVERT JUMPDEST POP JUMP JUMPDEST PUSH0 DUP2 CALLDATALOAD SWAP1 POP PUSH2 0x146A DUP2 PUSH2 0x1446 JUMP JUMPDEST SWAP3 SWAP2 POP POP JUMP JUMPDEST PUSH0 PUSH1 0x20 DUP3 DUP5 SUB SLT ISZERO PUSH2 0x1485 JUMPI PUSH2 0x1484 PUSH2 0x1287 JUMP JUMPDEST JUMPDEST PUSH0 PUSH2 0x1492 DUP5 DUP3 DUP6 ADD PUSH2 0x145C JUMP JUMPDEST SWAP2 POP POP SWAP3 SWAP2 POP POP JUMP JUMPDEST PUSH0 PUSH1 0x20 DUP3 DUP5 SUB SLT ISZERO PUSH2 0x14B0 JUMPI PUSH2 0x14AF PUSH2 0x1287 JUMP JUMPDEST JUMPDEST PUSH0 PUSH2 0x14BD DUP5 DUP3 DUP6 ADD PUSH2 0x1304 JUMP JUMPDEST SWAP2 POP POP SWAP3 SWAP2 POP POP JUMP JUMPDEST PUSH0 PUSH1 0x20 DUP3 DUP5 SUB SLT ISZERO PUSH2 0x14DB JUMPI PUSH2 0x14DA PUSH2 0x1287 JUMP JUMPDEST JUMPDEST PUSH0 PUSH2 0x14E8 DUP5 DUP3 DUP6 ADD PUSH2 0x12D1 JUMP JUMPDEST SWAP2 POP POP SWAP3 SWAP2 POP POP JUMP JUMPDEST PUSH2 0x14FA DUP2 PUSH2 0x12AA JUMP JUMPDEST DUP3 MSTORE POP POP JUMP JUMPDEST PUSH0 PUSH1 0x20 DUP3 ADD SWAP1 POP PUSH2 0x1513 PUSH0 DUP4 ADD DUP5 PUSH2 0x14F1 JUMP JUMPDEST SWAP3 SWAP2 POP POP JUMP JUMPDEST PUSH0 PUSH0 PUSH1 0x40 DUP4 DUP6 SUB SLT ISZERO PUSH2 0x152F JUMPI PUSH2 0x152E PUSH2 0x1287 JUMP JUMPDEST JUMPDEST PUSH0 PUSH2 0x153C DUP6 DUP3 DUP7 ADD PUSH2 0x12D1 JUMP JUMPDEST SWAP3 POP POP PUSH1 0x20 PUSH2 0x154D DUP6 DUP3 DUP7 ADD PUSH2 0x12D1 JUMP JUMPDEST SWAP2 POP POP SWAP3 POP SWAP3 SWAP1 POP JUMP JUMPDEST PUSH32 0x6E6F204554480000000000000000000000000000000000000000000000000000 PUSH0 DUP3 ADD MSTORE POP JUMP JUMPDEST PUSH0 PUSH2 0x158B PUSH1 0x6 DUP4 PUSH2 0x1201 JUMP JUMPDEST SWAP2 POP PUSH2 0x1596 DUP3 PUSH2 0x1557 JUMP JUMPDEST PUSH1 0x20 DUP3 ADD SWAP1 POP SWAP2 SWAP1 POP JUMP JUMPDEST PUSH0 PUSH1 0x20 DUP3 ADD SWAP1 POP DUP2 DUP2 SUB PUSH0 DUP4 ADD MSTORE PUSH2 0x15B8 DUP2 PUSH2 0x157F JUMP JUMPDEST SWAP1 POP SWAP2 SWAP1 POP JUMP JUMPDEST PUSH32 0x4E487B7100000000000000000000000000000000000000000000000000000000 PUSH0 MSTORE PUSH1 0x11 PUSH1 0x4 MSTORE PUSH1 0x24 PUSH0 REVERT JUMPDEST PUSH0 DUP2 PUSH1 0x1 SHR SWAP1 POP SWAP2 SWAP1 POP JUMP JUMPDEST PUSH0 PUSH0 DUP3 SWAP2 POP DUP4 SWAP1 POP JUMPDEST PUSH1 0x1 DUP6 GT ISZERO PUSH2 0x1641 JUMPI DUP1 DUP7 DIV DUP2 GT ISZERO PUSH2 0x161D JUMPI PUSH2 0x161C PUSH2 0x15BF JUMP JUMPDEST JUMPDEST PUSH1 0x1 DUP6 AND ISZERO PUSH2 0x162C JUMPI DUP1 DUP3 MUL SWAP2 POP JUMPDEST DUP1 DUP2 MUL SWAP1 POP PUSH2 0x163A DUP6 PUSH2 0x15EC JUMP JUMPDEST SWAP5 POP PUSH2 0x1601 JUMP JUMPDEST SWAP5 POP SWAP5 SWAP3 POP POP POP JUMP JUMPDEST PUSH0 DUP3 PUSH2 0x1659 JUMPI PUSH1 0x1 SWAP1 POP PUSH2 0x1714 JUMP JUMPDEST DUP2 PUSH2 0x1666 JUMPI PUSH0 SWAP1 POP PUSH2 0x1714 JUMP JUMPDEST DUP2 PUSH1 0x1 DUP2 EQ PUSH2 0x167C JUMPI PUSH1 0x2 DUP2 EQ PUSH2 0x1686 JUMPI PUSH2 0x16B5 JUMP JUMPDEST PUSH1 0x1 SWAP2 POP POP PUSH2 0x1714 JUMP JUMPDEST PUSH1 0xFF DUP5 GT ISZERO PUSH2 0x1698 JUMPI PUSH2 0x1697 PUSH2 0x15BF JUMP JUMPDEST JUMPDEST DUP4 PUSH1 0x2 EXP SWAP2 POP DUP5 DUP3 GT ISZERO PUSH2 0x16AF JUMPI PUSH2 0x16AE PUSH2 0x15BF JUMP JUMPDEST JUMPDEST POP PUSH2 0x1714 JUMP JUMPDEST POP PUSH1 0x20 DUP4 LT PUSH2 0x133 DUP4 LT AND PUSH1 0x4E DUP5 LT PUSH1 0xB DUP5 LT AND OR ISZERO PUSH2 0x16EA JUMPI DUP3 DUP3 EXP SWAP1 POP DUP4 DUP2 GT ISZERO PUSH2 0x16E5 JUMPI PUSH2 0x16E4 PUSH2 0x15BF JUMP JUMPDEST JUMPDEST PUSH2 0x1714 JUMP JUMPDEST PUSH2 0x16F7 DUP5 DUP5 DUP5 PUSH1 0x1 PUSH2 0x15F8 JUMP JUMPDEST SWAP3 POP SWAP1 POP DUP2 DUP5 DIV DUP2 GT ISZERO PUSH2 0x170E JUMPI PUSH2 0x170D PUSH2 0x15BF JUMP JUMPDEST JUMPDEST DUP2 DUP2 MUL SWAP1 POP JUMPDEST SWAP4 SWAP3 POP POP POP JUMP JUMPDEST PUSH0 PUSH2 0x1725 DUP3 PUSH2 0x12E5 JUMP JUMPDEST SWAP2 POP PUSH2 0x1730 DUP4 PUSH2 0x1401 JUMP JUMPDEST SWAP3 POP PUSH2 0x175D PUSH32 0xFFFFFFFFFFFFFFFFFFFFFFFFFFFFFFFFFFFFFFFFFFFFFFFFFFFFFFFFFFFFFFFF DUP5 DUP5 PUSH2 0x164A JUMP JUMPDEST SWAP1 POP SWAP3 SWAP2 POP POP JUMP JUMPDEST PUSH0 PUSH2 0x176F DUP3 PUSH2 0x12E5 JUMP JUMPDEST SWAP2 POP PUSH2 0x177A DUP4 PUSH2 0x12E5 JUMP JUMPDEST SWAP3 POP DUP3 DUP3 MUL PUSH2 0x1788 DUP2 PUSH2 0x12E5 JUMP JUMPDEST SWAP2 POP DUP3 DUP3 DIV DUP5 EQ DUP4 ISZERO OR PUSH2 0x179F JUMPI PUSH2 0x179E PUSH2 0x15BF JUMP JUMPDEST JUMPDEST POP SWAP3 SWAP2 POP POP JUMP JUMPDEST PUSH32 0x4E487B7100000000000000000000000000000000000000000000000000000000 PUSH0 MSTORE PUSH1 0x12 PUSH1 0x4 MSTORE PUSH1 0x24 PUSH0 REVERT JUMPDEST PUSH0 PUSH2 0x17DD DUP3 PUSH2 0x12E5 JUMP JUMPDEST SWAP2 POP PUSH2 0x17E8 DUP4 PUSH2 0x12E5 JUMP JUMPDEST SWAP3 POP DUP3 PUSH2 0x17F8 JUMPI PUSH2 0x17F7 PUSH2 0x17A6 JUMP JUMPDEST JUMPDEST DUP3 DUP3 DIV SWAP1 POP SWAP3 SWAP2 POP POP JUMP JUMPDEST PUSH32 0x746F6F206C6974746C6520455448000000000000000000000000000000000000 PUSH0 DUP3 ADD MSTORE POP JUMP JUMPDEST PUSH0 PUSH2 0x1837 PUSH1 0xE DUP4 PUSH2 0x1201 JUMP JUMPDEST SWAP2 POP PUSH2 0x1842 DUP3 PUSH2 0x1803 JUMP JUMPDEST PUSH1 0x20 DUP3 ADD SWAP1 POP SWAP2 SWAP1 POP JUMP JUMPDEST PUSH0 PUSH1 0x20 DUP3 ADD SWAP1 POP DUP2 DUP2 SUB PUSH0 DUP4 ADD MSTORE PUSH2 0x1864 DUP2 PUSH2 0x182B JUMP JUMPDEST SWAP1 POP SWAP2 SWAP1 POP JUMP JUMPDEST PUSH0 PUSH1 0x40 DUP3 ADD SWAP1 POP PUSH2 0x187E PUSH0 DUP4 ADD DUP6 PUSH2 0x1389 JUMP JUMPDEST PUSH2 0x188B PUSH1 0x20 DUP4 ADD DUP5 PUSH2 0x1389 JUMP JUMPDEST SWAP4 SWAP3 POP POP POP JUMP JUMPDEST PUSH32 0x4E487B7100000000000000000000000000000000000000000000000000000000 PUSH0 MSTORE PUSH1 0x22 PUSH1 0x4 MSTORE PUSH1 0x24 PUSH0 REVERT JUMPDEST PUSH0 PUSH1 0x2 DUP3 DIV SWAP1 POP PUSH1 0x1 DUP3 AND DUP1 PUSH2 0x18D6 JUMPI PUSH1 0x7F DUP3 AND SWAP2 POP JUMPDEST PUSH1 0x20 DUP3 LT DUP2 SUB PUSH2 0x18E9 JUMPI PUSH2 0x18E8 PUSH2 0x1892 JUMP JUMPDEST JUMPDEST POP SWAP2 SWAP1 POP JUMP JUMPDEST PUSH32 0x746F3D3000000000000000000000000000000000000000000000000000000000 PUSH0 DUP3 ADD MSTORE POP JUMP JUMPDEST PUSH0 PUSH2 0x1923 PUSH1 0x4 DUP4 PUSH2 0x1201 JUMP JUMPDEST SWAP2 POP PUSH2 0x192E DUP3 PUSH2 0x18EF JUMP JUMPDEST PUSH1 0x20 DUP3 ADD SWAP1 POP SWAP2 SWAP1 POP JUMP JUMPDEST PUSH0 PUSH1 0x20 DUP3 ADD SWAP1 POP DUP2 DUP2 SUB PUSH0 DUP4 ADD MSTORE PUSH2 0x1950 DUP2 PUSH2 0x1917 JUMP JUMPDEST SWAP1 POP SWAP2 SWAP1 POP JUMP JUMPDEST PUSH32 0x656D707479000000000000000000000000000000000000000000000000000000 PUSH0 DUP3 ADD MSTORE POP JUMP JUMPDEST PUSH0 PUSH2 0x198B PUSH1 0x5 DUP4 PUSH2 0x1201 JUMP JUMPDEST SWAP2 POP PUSH2 0x1996 DUP3 PUSH2 0x1957 JUMP JUMPDEST PUSH1 0x20 DUP3 ADD SWAP1 POP SWAP2 SWAP1 POP JUMP JUMPDEST PUSH0 PUSH1 0x20 DUP3 ADD SWAP1 POP DUP2 DUP2 SUB PUSH0 DUP4 ADD MSTORE PUSH2 0x19B8 DUP2 PUSH2 0x197F JUMP JUMPDEST SWAP1 POP SWAP2 SWAP1 POP JUMP JUMPDEST PUSH0 DUP2 SWAP1 POP SWAP3 SWAP2 POP POP JUMP JUMPDEST POP JUMP JUMPDEST PUSH0 PUSH2 0x19D7 PUSH0 DUP4 PUSH2 0x19BF JUMP JUMPDEST SWAP2 POP PUSH2 0x19E2 DUP3 PUSH2 0x19C9 JUMP JUMPDEST PUSH0 DUP3 ADD SWAP1 POP SWAP2 SWAP1 POP JUMP JUMPDEST PUSH0 PUSH2 0x19F6 DUP3 PUSH2 0x19CC JUMP JUMPDEST SWAP2 POP DUP2 SWAP1 POP SWAP2 SWAP1 POP JUMP JUMPDEST PUSH32 0x7769746864726177206661696C00000000000000000000000000000000000000 PUSH0 DUP3 ADD MSTORE POP JUMP JUMPDEST PUSH0 PUSH2 0x1A34 PUSH1 0xD DUP4 PUSH2 0x1201 JUMP JUMPDEST SWAP2 POP PUSH2 0x1A3F DUP3 PUSH2 0x1A00 JUMP JUMPDEST PUSH1 0x20 DUP3 ADD SWAP1 POP SWAP2 SWAP1 POP JUMP JUMPDEST PUSH0 PUSH1 0x20 DUP3 ADD SWAP1 POP DUP2 DUP2 SUB PUSH0 DUP4 ADD MSTORE PUSH2 0x1A61 DUP2 PUSH2 0x1A28 JUMP JUMPDEST SWAP1 POP SWAP2 SWAP1 POP JUMP JUMPDEST PUSH32 0x70726963653D3000000000000000000000000000000000000000000000000000 PUSH0 DUP3 ADD MSTORE POP JUMP JUMPDEST PUSH0 PUSH2 0x1A9C PUSH1 0x7 DUP4 PUSH2 0x1201 JUMP JUMPDEST SWAP2 POP PUSH2 0x1AA7 DUP3 PUSH2 0x1A68 JUMP JUMPDEST PUSH1 0x20 DUP3 ADD SWAP1 POP SWAP2 SWAP1 POP JUMP JUMPDEST PUSH0 PUSH1 0x20 DUP3 ADD SWAP1 POP DUP2 DUP2 SUB PUSH0 DUP4 ADD MSTORE PUSH2 0x1AC9 DUP2 PUSH2 0x1A90 JUMP JUMPDEST SWAP1 POP SWAP2 SWAP1 POP JUMP JUMPDEST PUSH0 PUSH1 0x60 DUP3 ADD SWAP1 POP PUSH2 0x1AE3 PUSH0 DUP4 ADD DUP7 PUSH2 0x14F1 JUMP JUMPDEST PUSH2 0x1AF0 PUSH1 0x20 DUP4 ADD DUP6 PUSH2 0x1389 JUMP JUMPDEST PUSH2 0x1AFD PUSH1 0x40 DUP4 ADD DUP5 PUSH2 0x1389 JUMP JUMPDEST SWAP5 SWAP4 POP POP POP POP JUMP JUMPDEST PUSH0 PUSH2 0x1B0F DUP3 PUSH2 0x12E5 JUMP JUMPDEST SWAP2 POP PUSH2 0x1B1A DUP4 PUSH2 0x12E5 JUMP JUMPDEST SWAP3 POP DUP3 DUP3 ADD SWAP1 POP DUP1 DUP3 GT ISZERO PUSH2 0x1B32 JUMPI PUSH2 0x1B31 PUSH2 0x15BF JUMP JUMPDEST JUMPDEST SWAP3 SWAP2 POP POP JUMP INVALID LOG2 PUSH5 0x6970667358 0x22 SLT KECCAK256 PUSH14 0x2E3883AEA79D1B3D43C94261DC29 PUSH18 0xD8BDEAABCD6B8D337F55462889155BC66473 PUSH16 0x6C634300081E00330000000000000000 "
	},
	"Assembly": ".code\n  PUSH 80\t\t\tontract CarbonoToken20 is ERC2...\n  PUSH 40\t\t\tontract CarbonoToken20 is ERC2...\n  MSTORE \t\t\tontract CarbonoToken20 is ERC2...\n  PUSH 38D7EA4C68000\t\t\te15;\n  PUSH 7\t\t\tint256 public priceWeiPerToken...\n  SSTORE \t\t\tint256 public priceWeiPerToken...\n  CALLVALUE \t\t\tonstructor() ERC20(\"CarbonoTok...\n  DUP1 \t\t\tonstructor() ERC20(\"CarbonoTok...\n  ISZERO \t\t\tonstructor() ERC20(\"CarbonoTok...\n  PUSH [tag] 1\t\t\tonstructor() ERC20(\"CarbonoTok...\n  JUMPI \t\t\tonstructor() ERC20(\"CarbonoTok...\n  PUSH 0\t\t\tonstructor() ERC20(\"CarbonoTok...\n  PUSH 0\t\t\tonstructor() ERC20(\"CarbonoTok...\n  REVERT \t\t\tonstructor() ERC20(\"CarbonoTok...\ntag 1\t\t\tonstructor() ERC20(\"CarbonoTok...\n  JUMPDEST \t\t\tonstructor() ERC20(\"CarbonoTok...\n  POP \t\t\tonstructor() ERC20(\"CarbonoTok...\n  CALLER \t\t\tsg.sender)\n  PUSH 40\t\t\t /// @notice Cambiar el precio...\n  MLOAD \t\t\t /// @notice Cambiar el precio...\n  DUP1 \t\t\t /// @notice Cambiar el precio...\n  PUSH 40\t\t\t /// @notice Cambiar el precio...\n  ADD \t\t\t /// @notice Cambiar el precio...\n  PUSH 40\t\t\t /// @notice Cambiar el precio...\n  MSTORE \t\t\t /// @notice Cambiar el precio...\n  DUP1 \t\t\t /// @notice Cambiar el precio...\n  PUSH E\t\t\t /// @notice Cambiar el precio...\n  DUP2 \t\t\t /// @notice Cambiar el precio...\n  MSTORE \t\t\t /// @notice Cambiar el precio...\n  PUSH 20\t\t\t /// @notice Cambiar el precio...\n  ADD \t\t\t /// @notice Cambiar el precio...\n  PUSH 436172626F6E6F546F6B656E3230000000000000000000000000000000000000\t\t\t /// @notice Cambiar el precio...\n  DUP2 \t\t\t /// @notice Cambiar el precio...\n  MSTORE \t\t\t /// @notice Cambiar el precio...\n  POP \t\t\t /// @notice Cambiar el precio...\n  PUSH 40\t\t\t /// @notice Cambiar el precio...\n  MLOAD \t\t\t /// @notice Cambiar el precio...\n  DUP1 \t\t\t /// @notice Cambiar el precio...\n  PUSH 40\t\t\t /// @notice Cambiar el precio...\n  ADD \t\t\t /// @notice Cambiar el precio...\n  PUSH 40\t\t\t /// @notice Cambiar el precio...\n  MSTORE \t\t\t /// @notice Cambiar el precio...\n  DUP1 \t\t\t /// @notice Cambiar el precio...\n  PUSH 3\t\t\t /// @notice Cambiar el precio...\n  DUP2 \t\t\t /// @notice Cambiar el precio...\n  MSTORE \t\t\t /// @notice Cambiar el precio...\n  PUSH 20\t\t\t /// @notice Cambiar el precio...\n  ADD \t\t\t /// @notice Cambiar el precio...\n  PUSH 43424F0000000000000000000000000000000000000000000000000000000000\t\t\t /// @notice Cambiar el precio...\n  DUP2 \t\t\t /// @notice Cambiar el precio...\n  MSTORE \t\t\t /// @notice Cambiar el precio...\n  POP \t\t\t /// @notice Cambiar el precio...\n  DUP2 \t\t\tToken\n  PUSH 3\t\t\tceWei\n  SWAP1 \t\t\tceWeiPerToken\n  DUP2 \t\t\tceWeiPerToken\n  PUSH [tag] 7\t\t\tceWeiPerToken\n  SWAP2 \t\t\tceWeiPerToken\n  SWAP1 \t\t\tceWeiPerToken\n  PUSH [tag] 8\t\t\tceWeiPerToken\n  JUMP \t\t\tceWeiPerToken\ntag 7\t\t\tceWeiPerToken\n  JUMPDEST \t\t\tceWeiPerToken\n  POP \t\t\tceWeiPerToken\n  DUP1 \t\t\txternal\n  PUSH 4\t\t\tewPrice\n  SWAP1 \t\t\tewPrice) external\n  DUP2 \t\t\tewPrice) external\n  PUSH [tag] 9\t\t\tewPrice) external\n  SWAP2 \t\t\tewPrice) external\n  SWAP1 \t\t\tewPrice) external\n  PUSH [tag] 8\t\t\tewPrice) external\n  JUMP \t\t\tewPrice) external\ntag 9\t\t\tewPrice) external\n  JUMPDEST \t\t\tewPrice) external\n  POP \t\t\tewPrice) external\n  POP \t\t\t /// @notice Cambiar el precio...\n  POP \t\t\t /// @notice Cambiar el precio...\n  PUSH 0\t\t\tr\n  PUSH FFFFFFFFFFFFFFFFFFFFFFFFFFFFFFFFFFFFFFFF\t\t\t nonReentrant {\\n        re\n  AND \t\t\t nonReentrant {\\n        re\n  DUP2 \t\t\t nonReentran\n  PUSH FFFFFFFFFFFFFFFFFFFFFFFFFFFFFFFFFFFFFFFF\t\t\t nonReentrant {\\n        re\n  AND \t\t\t nonReentrant {\\n        re\n  SUB \t\t\t nonReentrant {\\n        re\n  PUSH [tag] 11\t\t\table nonReentrant {\\n        r...\n  JUMPI \t\t\table nonReentrant {\\n        r...\n  PUSH 0\t\t\te\n  PUSH 40\t\t\to ETH\");\\n        uint256 toke...\n  MLOAD \t\t\to ETH\");\\n        uint256 toke...\n  PUSH 1E4FBDF700000000000000000000000000000000000000000000000000000000\t\t\to ETH\");\\n        uint256 toke...\n  DUP2 \t\t\to ETH\");\\n        uint256 toke...\n  MSTORE \t\t\to ETH\");\\n        uint256 toke...\n  PUSH 4\t\t\to ETH\");\\n        uint256 toke...\n  ADD \t\t\to ETH\");\\n        uint256 toke...\n  PUSH [tag] 12\t\t\to ETH\");\\n        uint256 toke...\n  SWAP2 \t\t\to ETH\");\\n        uint256 toke...\n  SWAP1 \t\t\to ETH\");\\n        uint256 toke...\n  PUSH [tag] 13\t\t\to ETH\");\\n        uint256 toke...\n  JUMP \t\t\to ETH\");\\n        uint256 toke...\ntag 12\t\t\to ETH\");\\n        uint256 toke...\n  JUMPDEST \t\t\to ETH\");\\n        uint256 toke...\n  PUSH 40\t\t\to ETH\");\\n        uint256 toke...\n  MLOAD \t\t\to ETH\");\\n        uint256 toke...\n  DUP1 \t\t\to ETH\");\\n        uint256 toke...\n  SWAP2 \t\t\to ETH\");\\n        uint256 toke...\n  SUB \t\t\to ETH\");\\n        uint256 toke...\n  SWAP1 \t\t\to ETH\");\\n        uint256 toke...\n  REVERT \t\t\to ETH\");\\n        uint256 toke...\ntag 11\t\t\table nonReentrant {\\n        r...\n  JUMPDEST \t\t\table nonReentrant {\\n        r...\n  PUSH [tag] 14\t\t\t10 ** decimals())) / priceWeiP...\n  DUP2 \t\t\t/ priceWeiPe\n  PUSH [tag] 15\t\t\t10 ** decimals()))\n  PUSH 20\t\t\t10 ** decimals()))\n  SHL \t\t\t10 ** decimals()))\n  PUSH 20\t\t\t10 ** decimals())) / priceWeiP...\n  SHR \t\t\t10 ** decimals())) / priceWeiP...\n  JUMP \t\t\t10 ** decimals())) / priceWeiP...\ntag 14\t\t\t10 ** decimals())) / priceWeiP...\n  JUMPDEST \t\t\t10 ** decimals())) / priceWeiP...\n  POP \t\t\t\\n    function buyCarbonoToken...\n  PUSH 1\t\t\tc\n  PUSH 6\t\t\tool ok,\n  DUP2 \t\t\tool ok, ) = to.call{v\n  SWAP1 \t\t\tool ok, ) = to.call{v\n  SSTORE \t\t\tool ok, ) = to.call{v\n  POP \t\t\tool ok, ) = to.call{v\n  PUSH [tag] 18\t\t\tontract CarbonoToken20 is ERC2...\n  JUMP \t\t\tontract CarbonoToken20 is ERC2...\ntag 15\t\t\t\n  JUMPDEST \t\t\t\n  PUSH 0\t\t\t\n  PUSH 5\t\t\t\n  PUSH 0\t\t\t\n  SWAP1 \t\t\t\n  SLOAD \t\t\t\n  SWAP1 \t\t\t\n  PUSH 100\t\t\t\n  EXP \t\t\t\n  SWAP1 \t\t\t\n  DIV \t\t\t\n  PUSH FFFFFFFFFFFFFFFFFFFFFFFFFFFFFFFFFFFFFFFF\t\t\t\n  AND \t\t\t\n  SWAP1 \t\t\t\n  POP \t\t\t\n  DUP2 \t\t\t\n  PUSH 5\t\t\t\n  PUSH 0\t\t\t\n  PUSH 100\t\t\t\n  EXP \t\t\t\n  DUP2 \t\t\t\n  SLOAD \t\t\t\n  DUP2 \t\t\t\n  PUSH FFFFFFFFFFFFFFFFFFFFFFFFFFFFFFFFFFFFFFFF\t\t\t\n  MUL \t\t\t\n  NOT \t\t\t\n  AND \t\t\t\n  SWAP1 \t\t\t\n  DUP4 \t\t\t\n  PUSH FFFFFFFFFFFFFFFFFFFFFFFFFFFFFFFFFFFFFFFF\t\t\t\n  AND \t\t\t\n  MUL \t\t\t\n  OR \t\t\t\n  SWAP1 \t\t\t\n  SSTORE \t\t\t\n  POP \t\t\t\n  DUP2 \t\t\t\n  PUSH FFFFFFFFFFFFFFFFFFFFFFFFFFFFFFFFFFFFFFFF\t\t\t\n  AND \t\t\t\n  DUP2 \t\t\t\n  PUSH FFFFFFFFFFFFFFFFFFFFFFFFFFFFFFFFFFFFFFFF\t\t\t\n  AND \t\t\t\n  PUSH 8BE0079C531659141344CD1FD0A4F28419497F9722A3DAAFE3B4186F6B6457E0\t\t\t\n  PUSH 40\t\t\t\n  MLOAD \t\t\t\n  PUSH 40\t\t\t\n  MLOAD \t\t\t\n  DUP1 \t\t\t\n  SWAP2 \t\t\t\n  SUB \t\t\t\n  SWAP1 \t\t\t\n  LOG3 \t\t\t\n  POP \t\t\t\n  POP \t\t\t\n  JUMP \t\t\t\ntag 20\t\t\t-License-Identifier: MIT\\n// C...\n  JUMPDEST \t\t\t-License-Identifier: MIT\\n// C...\n  PUSH 0\t\t\telin C\n  DUP2 \t\t\tity ^\n  MLOAD \t\t\t solidity ^0\n  SWAP1 \t\t\t4.0\\npragma solidity ^0\n  POP \t\t\t4.0\\npragma solidity ^0\n  SWAP2 \t\t\t-License-Identifier: MIT\\n// C...\n  SWAP1 \t\t\t-License-Identifier: MIT\\n// C...\n  POP \t\t\t-License-Identifier: MIT\\n// C...\n  JUMP \t\t\t-License-Identifier: MIT\\n// C...\ntag 21\t\t\tt {ERC20} from \"@openzeppelin/...\n  JUMPDEST \t\t\tt {ERC20} from \"@openzeppelin/...\n  PUSH 4E487B7100000000000000000000000000000000000000000000000000000000\t\t\tC20/ERC20.sol\";\\nimport {Ownab...\n  PUSH 0\t\t\t/\n  MSTORE \t\t\ts/token/ERC20/ERC20.sol\";\\nimp...\n  PUSH 41\t\t\tranc\n  PUSH 4\t\t\te\n  MSTORE \t\t\tort {Reentrancy\n  PUSH 24\t\t\teppe\n  PUSH 0\t\t\te\n  REVERT \t\t\tom \"@openzeppel\ntag 22\t\t\t/utils/ReentrancyGuard.sol\";\\n...\n  JUMPDEST \t\t\t/utils/ReentrancyGuard.sol\";\\n...\n  PUSH 4E487B7100000000000000000000000000000000000000000000000000000000\t\t\tonoToken20 (CBO)\\n * @notice E...\n  PUSH 0\t\t\ta\n  MSTORE \t\t\ttitle CarbonoToken20 (CBO)\\n *...\n  PUSH 22\t\t\t01 E\n  PUSH 4\t\t\t0\n  MSTORE \t\t\tfecto: 0.001 ET\n  PUSH 24\t\t\t pri\n  PUSH 0\t\t\t \n  REVERT \t\t\tBO.\\n *   - pric\ntag 23\t\t\t (wei por token, 18 decimales)...\n  JUMPDEST \t\t\t (wei por token, 18 decimales)...\n  PUSH 0\t\t\tceWeiP\n  PUSH 2\t\t\tl\n  DUP3 \t\t\tio (\n  DIV \t\t\tprecio (solo\n  SWAP1 \t\t\tcambia el precio (solo\n  POP \t\t\tcambia el precio (solo\n  PUSH 1\t\t\ta\n  DUP3 \t\t\table\n  AND \t\t\t payable, ac\n  DUP1 \t\t\tl a msg.value\\n *  \n  PUSH [tag] 48\t\t\troporcional a msg.value\\n *   ...\n  JUMPI \t\t\troporcional a msg.value\\n *   ...\n  PUSH 7F\t\t\t (so\n  DUP3 \t\t\tcumula\n  AND \t\t\tTH acumulado (sol\n  SWAP2 \t\t\tetira el ETH acumulado (sol\n  POP \t\t\tetira el ETH acumulado (sol\ntag 48\t\t\troporcional a msg.value\\n *   ...\n  JUMPDEST \t\t\troporcional a msg.value\\n *   ...\n  PUSH 20\t\t\ter\n  DUP3 \t\t\triceWe\n  LT \t\t\t/ priceWeiPerT\n  DUP2 \t\t\t (msg.value * 1e18\n  SUB \t\t\tt = (msg.value * 1e18) / price...\n  PUSH [tag] 49\t\t\tsOut = (msg.value * 1e18) / pr...\n  JUMPI \t\t\tsOut = (msg.value * 1e18) / pr...\n  PUSH [tag] 50\t\t\tt CarbonoToken20 i\n  PUSH [tag] 22\t\t\tt CarbonoToken20 i\n  JUMP \t\t\tt CarbonoToken20 i\ntag 50\t\t\tt CarbonoToken20 i\n  JUMPDEST \t\t\tt CarbonoToken20 i\ntag 49\t\t\tsOut = (msg.value * 1e18) / pr...\n  JUMPDEST \t\t\tsOut = (msg.value * 1e18) / pr...\n  POP \t\t\trToken(): cambia el precio (so...\n  SWAP2 \t\t\t (wei por token, 18 decimales)...\n  SWAP1 \t\t\t (wei por token, 18 decimales)...\n  POP \t\t\t (wei por token, 18 decimales)...\n  JUMP \t\t\t (wei por token, 18 decimales)...\ntag 24\t\t\ttrancyGuard {\\n    // Por defe...\n  JUMPDEST \t\t\ttrancyGuard {\\n    // Por defe...\n  PUSH 0\t\t\t1 CB\n  DUP2 \t\t\tnt2\n  SWAP1 \t\t\t)\\n    uint2\n  POP \t\t\t)\\n    uint2\n  DUP2 \t\t\trTo\n  PUSH 0\t\t\ti\n  MSTORE \t\t\tpriceWeiPerTok\n  PUSH 20\t\t\token\n  PUSH 0\t\t\tn\n  KECCAK256 \t\t\tvent CarbonoToken2\n  SWAP1 \t\t\t;\\n\\n    event CarbonoToken2\n  POP \t\t\t;\\n\\n    event CarbonoToken2\n  SWAP2 \t\t\ttrancyGuard {\\n    // Por defe...\n  SWAP1 \t\t\ttrancyGuard {\\n    // Por defe...\n  POP \t\t\ttrancyGuard {\\n    // Por defe...\n  JUMP \t\t\ttrancyGuard {\\n    // Por defe...\ntag 25\t\t\tdress indexed buyer, uint256 e...\n  JUMPDEST \t\t\tdress indexed buyer, uint256 e...\n  PUSH 0\t\t\tint256\n  PUSH 20\t\t\t56\n  PUSH 1F\t\t\tui\n  DUP4 \t\t\tpdate\n  ADD \t\t\ticeUpdated(uin\n  DIV \t\t\tt PriceUpdated(uint256 \n  SWAP1 \t\t\t;\\n    event PriceUpdated(uint...\n  POP \t\t\t;\\n    event PriceUpdated(uint...\n  SWAP2 \t\t\tdress indexed buyer, uint256 e...\n  SWAP1 \t\t\tdress indexed buyer, uint256 e...\n  POP \t\t\tdress indexed buyer, uint256 e...\n  JUMP \t\t\tdress indexed buyer, uint256 e...\ntag 26\t\t\t   event Withdraw(address inde...\n  JUMPDEST \t\t\t   event Withdraw(address inde...\n  PUSH 0\t\t\t6 amount\n  DUP3 \t\t\t0\", \"\n  DUP3 \t\t\tToke\n  SHL \t\t\tbonoToken20\", \"C\n  SWAP1 \t\t\tstructor() ERC20(\"CarbonoToken...\n  POP \t\t\tstructor() ERC20(\"CarbonoToken...\n  SWAP3 \t\t\t   event Withdraw(address inde...\n  SWAP2 \t\t\t   event Withdraw(address inde...\n  POP \t\t\t   event Withdraw(address inde...\n  POP \t\t\t   event Withdraw(address inde...\n  JUMP \t\t\t   event Withdraw(address inde...\ntag 27\t\t\tmsg.sender) {}\\n\\n    /// @not...\n  JUMPDEST \t\t\tmsg.sender) {}\\n\\n    /// @not...\n  PUSH 0\t\t\t buyCa\n  PUSH 8\t\t\t\\n\n  DUP4 \t\t\tnReentrant\n  MUL \t\t\te nonReentrant {\\n \n  PUSH [tag] 55\t\t\tlue > 0, \"no ETH\");\\n        u...\n  PUSH FFFFFFFFFFFFFFFFFFFFFFFFFFFFFFFFFFFFFFFFFFFFFFFFFFFFFFFFFFFFFFFF\t\t\tnt256 tokensOut = (msg.value *...\n  DUP3 \t\t\t\\n        \n  PUSH [tag] 26\t\t\tlue > 0, \"no ETH\");\\n        u...\n  JUMP \t\t\tlue > 0, \"no ETH\");\\n        u...\ntag 55\t\t\tlue > 0, \"no ETH\");\\n        u...\n  JUMPDEST \t\t\tlue > 0, \"no ETH\");\\n        u...\n  PUSH [tag] 56\t\t\tokensOut > 0, \"too little ETH\"...\n  DUP7 \t\t\t);\\n     \n  DUP4 \t\t\tlittle ET\n  PUSH [tag] 26\t\t\tokensOut > 0, \"too little ETH\"...\n  JUMP \t\t\tokensOut > 0, \"too little ETH\"...\ntag 56\t\t\tokensOut > 0, \"too little ETH\"...\n  JUMPDEST \t\t\tokensOut > 0, \"too little ETH\"...\n  SWAP6 \t\t\t   require(tokensOut > 0, \"too...\n  POP \t\t\t   require(tokensOut > 0, \"too...\n  DUP1 \t\t\t    \n  NOT \t\t\t);\\n      \n  DUP5 \t\t\tkensO\n  AND \t\t\t, tokensOut);\\n       \n  SWAP4 \t\t\tsg.sender, tokensOut);\\n      ...\n  POP \t\t\tsg.sender, tokensOut);\\n      ...\n  DUP1 \t\t\tsg.v\n  DUP7 \t\t\t.sender,\n  AND \t\t\t(msg.sender, msg.va\n  DUP5 \t\t\trchas\n  OR \t\t\t0Purchased(msg.sender, msg.val\n  SWAP3 \t\t\tbonoToken20Purchased(msg.sende...\n  POP \t\t\tbonoToken20Purchased(msg.sende...\n  POP \t\t\tbonoToken20() public payable n...\n  POP \t\t\tbonoToken20() public payable n...\n  SWAP4 \t\t\tmsg.sender) {}\\n\\n    /// @not...\n  SWAP3 \t\t\tmsg.sender) {}\\n\\n    /// @not...\n  POP \t\t\tmsg.sender) {}\\n\\n    /// @not...\n  POP \t\t\tmsg.sender) {}\\n\\n    /// @not...\n  POP \t\t\tmsg.sender) {}\\n\\n    /// @not...\n  JUMP \t\t\tmsg.sender) {}\\n\\n    /// @not...\ntag 28\t\t\tt);\\n    }\\n\\n    /// @notice ...\n  JUMPDEST \t\t\tt);\\n    }\\n\\n    /// @notice ...\n  PUSH 0\t\t\t precio\n  DUP2 \t\t\tuncti\n  SWAP1 \t\t\t CBO)\\n    functi\n  POP \t\t\t CBO)\\n    functi\n  SWAP2 \t\t\tt);\\n    }\\n\\n    /// @notice ...\n  SWAP1 \t\t\tt);\\n    }\\n\\n    /// @notice ...\n  POP \t\t\tt);\\n    }\\n\\n    /// @notice ...\n  JUMP \t\t\tt);\\n    }\\n\\n    /// @notice ...\ntag 29\t\t\teiPerToken(uint256 newPrice) e...\n  JUMPDEST \t\t\teiPerToken(uint256 newPrice) e...\n  PUSH 0\t\t\t ex\n  DUP2 \t\t\t\\n    \n  SWAP1 \t\t\tOwner {\\n    \n  POP \t\t\tOwner {\\n    \n  SWAP2 \t\t\teiPerToken(uint256 newPrice) e...\n  SWAP1 \t\t\teiPerToken(uint256 newPrice) e...\n  POP \t\t\teiPerToken(uint256 newPrice) e...\n  JUMP \t\t\teiPerToken(uint256 newPrice) e...\ntag 30\t\t\tnewPrice > 0, \"price=0\");\\n   ...\n  JUMPDEST \t\t\tnewPrice > 0, \"price=0\");\\n   ...\n  PUSH 0\t\t\t = newPri\n  PUSH [tag] 60\t\t\tdated(newPrice);\\n    }\\n\\n   ...\n  PUSH [tag] 61\t\t\t   }\\n\\n    /// @notice Retira...\n  PUSH [tag] 62\t\t\t /// @notice Retirar el \n  DUP5 \t\t\tar el\n  PUSH [tag] 28\t\t\t /// @notice Retirar el \n  JUMP \t\t\t /// @notice Retirar el \ntag 62\t\t\t /// @notice Retirar el \n  JUMPDEST \t\t\t /// @notice Retirar el \n  PUSH [tag] 29\t\t\t   }\\n\\n    /// @notice Retira...\n  JUMP \t\t\t   }\\n\\n    /// @notice Retira...\ntag 61\t\t\t   }\\n\\n    /// @notice Retira...\n  JUMPDEST \t\t\t   }\\n\\n    /// @notice Retira...\n  PUSH [tag] 28\t\t\tdated(newPrice);\\n    }\\n\\n   ...\n  JUMP \t\t\tdated(newPrice);\\n    }\\n\\n   ...\ntag 60\t\t\tdated(newPrice);\\n    }\\n\\n   ...\n  JUMPDEST \t\t\tdated(newPrice);\\n    }\\n\\n   ...\n  SWAP1 \t\t\t emit PriceUpdated(newPrice);\\...\n  POP \t\t\t emit PriceUpdated(newPrice);\\...\n  SWAP2 \t\t\tnewPrice > 0, \"price=0\");\\n   ...\n  SWAP1 \t\t\tnewPrice > 0, \"price=0\");\\n   ...\n  POP \t\t\tnewPrice > 0, \"price=0\");\\n   ...\n  JUMP \t\t\tnewPrice > 0, \"price=0\");\\n   ...\ntag 31\t\t\t    function withdraw(address ...\n  JUMPDEST \t\t\t    function withdraw(address ...\n  PUSH 0\t\t\txte\n  DUP2 \t\t\t     \n  SWAP1 \t\t\tner {\\n      \n  POP \t\t\tner {\\n      \n  SWAP2 \t\t\t    function withdraw(address ...\n  SWAP1 \t\t\t    function withdraw(address ...\n  POP \t\t\t    function withdraw(address ...\n  JUMP \t\t\t    function withdraw(address ...\ntag 32\t\t\t != address(0), \"to=0\");\\n    ...\n  JUMPDEST \t\t\t != address(0), \"to=0\");\\n    ...\n  PUSH [tag] 65\t\t\t   (bool ok, ) = to.call{value...\n  DUP4 \t\t\t bal}(\"\n  PUSH [tag] 30\t\t\t   (bool ok, ) = to.call{value...\n  JUMP \t\t\t   (bool ok, ) = to.call{value...\ntag 65\t\t\t   (bool ok, ) = to.call{value...\n  JUMPDEST \t\t\t   (bool ok, ) = to.call{value...\n  PUSH [tag] 66\t\t\t \"withdraw fail\");\\n        em...\n  PUSH [tag] 67\t\t\t;\\n    }\\n\\n    /// @notice Re...\n  DUP3 \t\t\t Recibir ETH dir\n  PUSH [tag] 31\t\t\t;\\n    }\\n\\n    /// @notice Re...\n  JUMP \t\t\t;\\n    }\\n\\n    /// @notice Re...\ntag 67\t\t\t;\\n    }\\n\\n    /// @notice Re...\n  JUMPDEST \t\t\t;\\n    }\\n\\n    /// @notice Re...\n  DUP5 \t\t\tto, ba\n  DUP5 \t\t\tthdr\n  SLOAD \t\t\tmit Withdra\n  PUSH [tag] 27\t\t\t \"withdraw fail\");\\n        em...\n  JUMP \t\t\t \"withdraw fail\");\\n        em...\ntag 66\t\t\t \"withdraw fail\");\\n        em...\n  JUMPDEST \t\t\t \"withdraw fail\");\\n        em...\n  DUP3 \t\t\tre(o\n  SSTORE \t\t\t  require(ok, \"withdraw fail\")...\n  POP \t\t\t  require(bal > 0, \"empty\");\\n...\n  POP \t\t\t != address(0), \"to=0\");\\n    ...\n  POP \t\t\t != address(0), \"to=0\");\\n    ...\n  POP \t\t\t != address(0), \"to=0\");\\n    ...\n  JUMP \t\t\t != address(0), \"to=0\");\\n    ...\ntag 33\t\t\tmpra CBO\\n    receive() extern...\n  JUMPDEST \t\t\tmpra CBO\\n    receive() extern...\n  PUSH 0\t\t\t   \n  PUSH 0\t\t\t0\n  SWAP1 \t\t\toToken20\n  POP \t\t\toToken20\n  SWAP1 \t\t\tmpra CBO\\n    receive() extern...\n  JUMP \t\t\tmpra CBO\\n    receive() extern...\ntag 34\t\t\t\\n\n  JUMPDEST \t\t\t\\n\n  PUSH [tag] 70\t\t\t\n  PUSH [tag] 33\t\t\t\n  JUMP \t\t\t\ntag 70\t\t\t\n  JUMPDEST \t\t\t\n  PUSH [tag] 71\t\t\t\n  DUP2 \t\t\t\n  DUP5 \t\t\t\n  DUP5 \t\t\t\n  PUSH [tag] 32\t\t\t\n  JUMP \t\t\t\ntag 71\t\t\t\n  JUMPDEST \t\t\t\n  POP \t\t\t\n  POP \t\t\t\\n\n  POP \t\t\t\\n\n  JUMP \t\t\t\\n\ntag 35\t\t\t\n  JUMPDEST \t\t\t\ntag 73\t\t\t\n  JUMPDEST \t\t\t\n  DUP2 \t\t\t\n  DUP2 \t\t\t\n  LT \t\t\t\n  ISZERO \t\t\t\n  PUSH [tag] 75\t\t\t\n  JUMPI \t\t\t\n  PUSH [tag] 76\t\t\t\n  PUSH 0\t\t\t\n  DUP3 \t\t\t\n  PUSH [tag] 34\t\t\t\n  JUMP \t\t\t\ntag 76\t\t\t\n  JUMPDEST \t\t\t\n  PUSH 1\t\t\t\n  DUP2 \t\t\t\n  ADD \t\t\t\n  SWAP1 \t\t\t\n  POP \t\t\t\n  PUSH [tag] 73\t\t\t\n  JUMP \t\t\t\ntag 75\t\t\t\n  JUMPDEST \t\t\t\n  POP \t\t\t\n  POP \t\t\t\n  JUMP \t\t\t\ntag 36\t\t\t\n  JUMPDEST \t\t\t\n  PUSH 1F\t\t\t\n  DUP3 \t\t\t\n  GT \t\t\t\n  ISZERO \t\t\t\n  PUSH [tag] 78\t\t\t\n  JUMPI \t\t\t\n  PUSH [tag] 79\t\t\t\n  DUP2 \t\t\t\n  PUSH [tag] 24\t\t\t\n  JUMP \t\t\t\ntag 79\t\t\t\n  JUMPDEST \t\t\t\n  PUSH [tag] 80\t\t\t\n  DUP5 \t\t\t\n  PUSH [tag] 25\t\t\t\n  JUMP \t\t\t\ntag 80\t\t\t\n  JUMPDEST \t\t\t\n  DUP2 \t\t\t\n  ADD \t\t\t\n  PUSH 20\t\t\t\n  DUP6 \t\t\t\n  LT \t\t\t\n  ISZERO \t\t\t\n  PUSH [tag] 81\t\t\t\n  JUMPI \t\t\t\n  DUP2 \t\t\t\n  SWAP1 \t\t\t\n  POP \t\t\t\ntag 81\t\t\t\n  JUMPDEST \t\t\t\n  PUSH [tag] 82\t\t\t\n  PUSH [tag] 83\t\t\t\n  DUP6 \t\t\t\n  PUSH [tag] 25\t\t\t\n  JUMP \t\t\t\ntag 83\t\t\t\n  JUMPDEST \t\t\t\n  DUP4 \t\t\t\n  ADD \t\t\t\n  DUP3 \t\t\t\n  PUSH [tag] 35\t\t\t\n  JUMP \t\t\t\ntag 82\t\t\t\n  JUMPDEST \t\t\t\n  POP \t\t\t\n  POP \t\t\t\ntag 78\t\t\t\n  JUMPDEST \t\t\t\n  POP \t\t\t\n  POP \t\t\t\n  POP \t\t\t\n  JUMP \t\t\t\ntag 37\t\t\t\n  JUMPDEST \t\t\t\n  PUSH 0\t\t\t\n  DUP3 \t\t\t\n  DUP3 \t\t\t\n  SHR \t\t\t\n  SWAP1 \t\t\t\n  POP \t\t\t\n  SWAP3 \t\t\t\n  SWAP2 \t\t\t\n  POP \t\t\t\n  POP \t\t\t\n  JUMP \t\t\t\ntag 38\t\t\t\n  JUMPDEST \t\t\t\n  PUSH 0\t\t\t\n  PUSH [tag] 86\t\t\t\n  PUSH 0\t\t\t\n  NOT \t\t\t\n  DUP5 \t\t\t\n  PUSH 8\t\t\t\n  MUL \t\t\t\n  PUSH [tag] 37\t\t\t\n  JUMP \t\t\t\ntag 86\t\t\t\n  JUMPDEST \t\t\t\n  NOT \t\t\t\n  DUP1 \t\t\t\n  DUP4 \t\t\t\n  AND \t\t\t\n  SWAP2 \t\t\t\n  POP \t\t\t\n  POP \t\t\t\n  SWAP3 \t\t\t\n  SWAP2 \t\t\t\n  POP \t\t\t\n  POP \t\t\t\n  JUMP \t\t\t\ntag 39\t\t\t\n  JUMPDEST \t\t\t\n  PUSH 0\t\t\t\n  PUSH [tag] 88\t\t\t\n  DUP4 \t\t\t\n  DUP4 \t\t\t\n  PUSH [tag] 38\t\t\t\n  JUMP \t\t\t\ntag 88\t\t\t\n  JUMPDEST \t\t\t\n  SWAP2 \t\t\t\n  POP \t\t\t\n  DUP3 \t\t\t\n  PUSH 2\t\t\t\n  MUL \t\t\t\n  DUP3 \t\t\t\n  OR \t\t\t\n  SWAP1 \t\t\t\n  POP \t\t\t\n  SWAP3 \t\t\t\n  SWAP2 \t\t\t\n  POP \t\t\t\n  POP \t\t\t\n  JUMP \t\t\t\ntag 8\t\t\t\n  JUMPDEST \t\t\t\n  PUSH [tag] 90\t\t\t\n  DUP3 \t\t\t\n  PUSH [tag] 20\t\t\t\n  JUMP \t\t\t\ntag 90\t\t\t\n  JUMPDEST \t\t\t\n  PUSH FFFFFFFFFFFFFFFF\t\t\t\n  DUP2 \t\t\t\n  GT \t\t\t\n  ISZERO \t\t\t\n  PUSH [tag] 91\t\t\t\n  JUMPI \t\t\t\n  PUSH [tag] 92\t\t\t\n  PUSH [tag] 21\t\t\t\n  JUMP \t\t\t\ntag 92\t\t\t\n  JUMPDEST \t\t\t\ntag 91\t\t\t\n  JUMPDEST \t\t\t\n  PUSH [tag] 93\t\t\t\n  DUP3 \t\t\t\n  SLOAD \t\t\t\n  PUSH [tag] 23\t\t\t\n  JUMP \t\t\t\ntag 93\t\t\t\n  JUMPDEST \t\t\t\n  PUSH [tag] 94\t\t\t\n  DUP3 \t\t\t\n  DUP3 \t\t\t\n  DUP6 \t\t\t\n  PUSH [tag] 36\t\t\t\n  JUMP \t\t\t\ntag 94\t\t\t\n  JUMPDEST \t\t\t\n  PUSH 0\t\t\t\n  PUSH 20\t\t\t\n  SWAP1 \t\t\t\n  POP \t\t\t\n  PUSH 1F\t\t\t\n  DUP4 \t\t\t\n  GT \t\t\t\n  PUSH 1\t\t\t\n  DUP2 \t\t\t\n  EQ \t\t\t\n  PUSH [tag] 96\t\t\t\n  JUMPI \t\t\t\n  PUSH 0\t\t\t\n  DUP5 \t\t\t\n  ISZERO \t\t\t\n  PUSH [tag] 97\t\t\t\n  JUMPI \t\t\t\n  DUP3 \t\t\t\n  DUP8 \t\t\t\n  ADD \t\t\t\n  MLOAD \t\t\t\n  SWAP1 \t\t\t\n  POP \t\t\t\ntag 97\t\t\t\n  JUMPDEST \t\t\t\n  PUSH [tag] 98\t\t\t\n  DUP6 \t\t\t\n  DUP3 \t\t\t\n  PUSH [tag] 39\t\t\t\n  JUMP \t\t\t\ntag 98\t\t\t\n  JUMPDEST \t\t\t\n  DUP7 \t\t\t\n  SSTORE \t\t\t\n  POP \t\t\t\n  PUSH [tag] 95\t\t\t\n  JUMP \t\t\t\ntag 96\t\t\t\n  JUMPDEST \t\t\t\n  PUSH 1F\t\t\t\n  NOT \t\t\t\n  DUP5 \t\t\t\n  AND \t\t\t\n  PUSH [tag] 99\t\t\t\n  DUP7 \t\t\t\n  PUSH [tag] 24\t\t\t\n  JUMP \t\t\t\ntag 99\t\t\t\n  JUMPDEST \t\t\t\n  PUSH 0\t\t\t\ntag 100\t\t\t\n  JUMPDEST \t\t\t\n  DUP3 \t\t\t\n  DUP2 \t\t\t\n  LT \t\t\t\n  ISZERO \t\t\t\n  PUSH [tag] 102\t\t\t\n  JUMPI \t\t\t\n  DUP5 \t\t\t\n  DUP10 \t\t\t\n  ADD \t\t\t\n  MLOAD \t\t\t\n  DUP3 \t\t\t\n  SSTORE \t\t\t\n  PUSH 1\t\t\t\n  DUP3 \t\t\t\n  ADD \t\t\t\n  SWAP2 \t\t\t\n  POP \t\t\t\n  PUSH 20\t\t\t\n  DUP6 \t\t\t\n  ADD \t\t\t\n  SWAP5 \t\t\t\n  POP \t\t\t\n  PUSH 20\t\t\t\n  DUP2 \t\t\t\n  ADD \t\t\t\n  SWAP1 \t\t\t\n  POP \t\t\t\n  PUSH [tag] 100\t\t\t\n  JUMP \t\t\t\ntag 102\t\t\t\n  JUMPDEST \t\t\t\n  DUP7 \t\t\t\n  DUP4 \t\t\t\n  LT \t\t\t\n  ISZERO \t\t\t\n  PUSH [tag] 103\t\t\t\n  JUMPI \t\t\t\n  DUP5 \t\t\t\n  DUP10 \t\t\t\n  ADD \t\t\t\n  MLOAD \t\t\t\n  PUSH [tag] 104\t\t\t\n  PUSH 1F\t\t\t\n  DUP10 \t\t\t\n  AND \t\t\t\n  DUP3 \t\t\t\n  PUSH [tag] 38\t\t\t\n  JUMP \t\t\t\ntag 104\t\t\t\n  JUMPDEST \t\t\t\n  DUP4 \t\t\t\n  SSTORE \t\t\t\n  POP \t\t\t\ntag 103\t\t\t\n  JUMPDEST \t\t\t\n  PUSH 1\t\t\t\n  PUSH 2\t\t\t\n  DUP9 \t\t\t\n  MUL \t\t\t\n  ADD \t\t\t\n  DUP9 \t\t\t\n  SSTORE \t\t\t\n  POP \t\t\t\n  POP \t\t\t\n  POP \t\t\t\ntag 95\t\t\t\n  JUMPDEST \t\t\t\n  POP \t\t\t\n  POP \t\t\t\n  POP \t\t\t\n  POP \t\t\t\n  POP \t\t\t\n  POP \t\t\t\n  JUMP \t\t\t\ntag 40\t\t\t\n  JUMPDEST \t\t\t\n  PUSH 0\t\t\t\n  PUSH FFFFFFFFFFFFFFFFFFFFFFFFFFFFFFFFFFFFFFFF\t\t\t\n  DUP3 \t\t\t\n  AND \t\t\t\n  SWAP1 \t\t\t\n  POP \t\t\t\n  SWAP2 \t\t\t\n  SWAP1 \t\t\t\n  POP \t\t\t\n  JUMP \t\t\t\ntag 41\t\t\t\n  JUMPDEST \t\t\t\n  PUSH 0\t\t\t\n  PUSH [tag] 107\t\t\t\n  DUP3 \t\t\t\n  PUSH [tag] 40\t\t\t\n  JUMP \t\t\t\ntag 107\t\t\t\n  JUMPDEST \t\t\t\n  SWAP1 \t\t\t\n  POP \t\t\t\n  SWAP2 \t\t\t\n  SWAP1 \t\t\t\n  POP \t\t\t\n  JUMP \t\t\t\ntag 42\t\t\t\n  JUMPDEST \t\t\t\n  PUSH [tag] 109\t\t\t\n  DUP2 \t\t\t\n  PUSH [tag] 41\t\t\t\n  JUMP \t\t\t\ntag 109\t\t\t\n  JUMPDEST \t\t\t\n  DUP3 \t\t\t\n  MSTORE \t\t\t\n  POP \t\t\t\n  POP \t\t\t\n  JUMP \t\t\t\ntag 13\t\t\t\n  JUMPDEST \t\t\t\n  PUSH 0\t\t\t\n  PUSH 20\t\t\t\n  DUP3 \t\t\t\n  ADD \t\t\t\n  SWAP1 \t\t\t\n  POP \t\t\t\n  PUSH [tag] 111\t\t\t\n  PUSH 0\t\t\t\n  DUP4 \t\t\t\n  ADD \t\t\t\n  DUP5 \t\t\t\n  PUSH [tag] 42\t\t\t\n  JUMP \t\t\t\ntag 111\t\t\t\n  JUMPDEST \t\t\t\n  SWAP3 \t\t\t\n  SWAP2 \t\t\t\n  POP \t\t\t\n  POP \t\t\t\n  JUMP \t\t\t\ntag 18\t\t\tontract CarbonoToken20 is ERC2...\n  JUMPDEST \t\t\tontract CarbonoToken20 is ERC2...\n  PUSH #[$] 0000000000000000000000000000000000000000000000000000000000000000\t\t\tontract CarbonoToken20 is ERC2...\n  DUP1 \t\t\tontract CarbonoToken20 is ERC2...\n  PUSH [$] 0000000000000000000000000000000000000000000000000000000000000000\t\t\tontract CarbonoToken20 is ERC2...\n  PUSH 0\t\t\tontract CarbonoToken20 is ERC2...\n  CODECOPY \t\t\tontract CarbonoToken20 is ERC2...\n  PUSH 0\t\t\tontract CarbonoToken20 is ERC2...\n  RETURN \t\t\tontract CarbonoToken20 is ERC2...\n.data\n  0:\n    .code\n      PUSH 80\t\t\tontract CarbonoToken20 is ERC2...\n      PUSH 40\t\t\tontract CarbonoToken20 is ERC2...\n      MSTORE \t\t\tontract CarbonoToken20 is ERC2...\n      PUSH 4\t\t\tontract CarbonoToken20 is ERC2...\n      CALLDATASIZE \t\t\tontract CarbonoToken20 is ERC2...\n      LT \t\t\tontract CarbonoToken20 is ERC2...\n      PUSH [tag] 1\t\t\tontract CarbonoToken20 is ERC2...\n      JUMPI \t\t\tontract CarbonoToken20 is ERC2...\n      PUSH 0\t\t\tontract CarbonoToken20 is ERC2...\n      CALLDATALOAD \t\t\tontract CarbonoToken20 is ERC2...\n      PUSH E0\t\t\tontract CarbonoToken20 is ERC2...\n      SHR \t\t\tontract CarbonoToken20 is ERC2...\n      DUP1 \t\t\tontract CarbonoToken20 is ERC2...\n      PUSH 715018A6\t\t\tontract CarbonoToken20 is ERC2...\n      GT \t\t\tontract CarbonoToken20 is ERC2...\n      PUSH [tag] 19\t\t\tontract CarbonoToken20 is ERC2...\n      JUMPI \t\t\tontract CarbonoToken20 is ERC2...\n      DUP1 \t\t\tontract CarbonoToken20 is ERC2...\n      PUSH C1331061\t\t\tontract CarbonoToken20 is ERC2...\n      GT \t\t\tontract CarbonoToken20 is ERC2...\n      PUSH [tag] 20\t\t\tontract CarbonoToken20 is ERC2...\n      JUMPI \t\t\tontract CarbonoToken20 is ERC2...\n      DUP1 \t\t\tontract CarbonoToken20 is ERC2...\n      PUSH C1331061\t\t\tontract CarbonoToken20 is ERC2...\n      EQ \t\t\tontract CarbonoToken20 is ERC2...\n      PUSH [tag] 15\t\t\tontract CarbonoToken20 is ERC2...\n      JUMPI \t\t\tontract CarbonoToken20 is ERC2...\n      DUP1 \t\t\tontract CarbonoToken20 is ERC2...\n      PUSH DBF09D66\t\t\tontract CarbonoToken20 is ERC2...\n      EQ \t\t\tontract CarbonoToken20 is ERC2...\n      PUSH [tag] 16\t\t\tontract CarbonoToken20 is ERC2...\n      JUMPI \t\t\tontract CarbonoToken20 is ERC2...\n      DUP1 \t\t\tontract CarbonoToken20 is ERC2...\n      PUSH DD62ED3E\t\t\tontract CarbonoToken20 is ERC2...\n      EQ \t\t\tontract CarbonoToken20 is ERC2...\n      PUSH [tag] 17\t\t\tontract CarbonoToken20 is ERC2...\n      JUMPI \t\t\tontract CarbonoToken20 is ERC2...\n      DUP1 \t\t\tontract CarbonoToken20 is ERC2...\n      PUSH F2FDE38B\t\t\tontract CarbonoToken20 is ERC2...\n      EQ \t\t\tontract CarbonoToken20 is ERC2...\n      PUSH [tag] 18\t\t\tontract CarbonoToken20 is ERC2...\n      JUMPI \t\t\tontract CarbonoToken20 is ERC2...\n      PUSH [tag] 2\t\t\tontract CarbonoToken20 is ERC2...\n      JUMP \t\t\tontract CarbonoToken20 is ERC2...\n    tag 20\t\t\tontract CarbonoToken20 is ERC2...\n      JUMPDEST \t\t\tontract CarbonoToken20 is ERC2...\n      DUP1 \t\t\tontract CarbonoToken20 is ERC2...\n      PUSH 715018A6\t\t\tontract CarbonoToken20 is ERC2...\n      EQ \t\t\tontract CarbonoToken20 is ERC2...\n      PUSH [tag] 11\t\t\tontract CarbonoToken20 is ERC2...\n      JUMPI \t\t\tontract CarbonoToken20 is ERC2...\n      DUP1 \t\t\tontract CarbonoToken20 is ERC2...\n      PUSH 8DA5CB5B\t\t\tontract CarbonoToken20 is ERC2...\n      EQ \t\t\tontract CarbonoToken20 is ERC2...\n      PUSH [tag] 12\t\t\tontract CarbonoToken20 is ERC2...\n      JUMPI \t\t\tontract CarbonoToken20 is ERC2...\n      DUP1 \t\t\tontract CarbonoToken20 is ERC2...\n      PUSH 95D89B41\t\t\tontract CarbonoToken20 is ERC2...\n      EQ \t\t\tontract CarbonoToken20 is ERC2...\n      PUSH [tag] 13\t\t\tontract CarbonoToken20 is ERC2...\n      JUMPI \t\t\tontract CarbonoToken20 is ERC2...\n      DUP1 \t\t\tontract CarbonoToken20 is ERC2...\n      PUSH A9059CBB\t\t\tontract CarbonoToken20 is ERC2...\n      EQ \t\t\tontract CarbonoToken20 is ERC2...\n      PUSH [tag] 14\t\t\tontract CarbonoToken20 is ERC2...\n      JUMPI \t\t\tontract CarbonoToken20 is ERC2...\n      PUSH [tag] 2\t\t\tontract CarbonoToken20 is ERC2...\n      JUMP \t\t\tontract CarbonoToken20 is ERC2...\n    tag 19\t\t\tontract CarbonoToken20 is ERC2...\n      JUMPDEST \t\t\tontract CarbonoToken20 is ERC2...\n      DUP1 \t\t\tontract CarbonoToken20 is ERC2...\n      PUSH 313CE567\t\t\tontract CarbonoToken20 is ERC2...\n      GT \t\t\tontract CarbonoToken20 is ERC2...\n      PUSH [tag] 21\t\t\tontract CarbonoToken20 is ERC2...\n      JUMPI \t\t\tontract CarbonoToken20 is ERC2...\n      DUP1 \t\t\tontract CarbonoToken20 is ERC2...\n      PUSH 313CE567\t\t\tontract CarbonoToken20 is ERC2...\n      EQ \t\t\tontract CarbonoToken20 is ERC2...\n      PUSH [tag] 7\t\t\tontract CarbonoToken20 is ERC2...\n      JUMPI \t\t\tontract CarbonoToken20 is ERC2...\n      DUP1 \t\t\tontract CarbonoToken20 is ERC2...\n      PUSH 51CFF8D9\t\t\tontract CarbonoToken20 is ERC2...\n      EQ \t\t\tontract CarbonoToken20 is ERC2...\n      PUSH [tag] 8\t\t\tontract CarbonoToken20 is ERC2...\n      JUMPI \t\t\tontract CarbonoToken20 is ERC2...\n      DUP1 \t\t\tontract CarbonoToken20 is ERC2...\n      PUSH 707E422F\t\t\tontract CarbonoToken20 is ERC2...\n      EQ \t\t\tontract CarbonoToken20 is ERC2...\n      PUSH [tag] 9\t\t\tontract CarbonoToken20 is ERC2...\n      JUMPI \t\t\tontract CarbonoToken20 is ERC2...\n      DUP1 \t\t\tontract CarbonoToken20 is ERC2...\n      PUSH 70A08231\t\t\tontract CarbonoToken20 is ERC2...\n      EQ \t\t\tontract CarbonoToken20 is ERC2...\n      PUSH [tag] 10\t\t\tontract CarbonoToken20 is ERC2...\n      JUMPI \t\t\tontract CarbonoToken20 is ERC2...\n      PUSH [tag] 2\t\t\tontract CarbonoToken20 is ERC2...\n      JUMP \t\t\tontract CarbonoToken20 is ERC2...\n    tag 21\t\t\tontract CarbonoToken20 is ERC2...\n      JUMPDEST \t\t\tontract CarbonoToken20 is ERC2...\n      DUP1 \t\t\tontract CarbonoToken20 is ERC2...\n      PUSH 6FDDE03\t\t\tontract CarbonoToken20 is ERC2...\n      EQ \t\t\tontract CarbonoToken20 is ERC2...\n      PUSH [tag] 3\t\t\tontract CarbonoToken20 is ERC2...\n      JUMPI \t\t\tontract CarbonoToken20 is ERC2...\n      DUP1 \t\t\tontract CarbonoToken20 is ERC2...\n      PUSH 95EA7B3\t\t\tontract CarbonoToken20 is ERC2...\n      EQ \t\t\tontract CarbonoToken20 is ERC2...\n      PUSH [tag] 4\t\t\tontract CarbonoToken20 is ERC2...\n      JUMPI \t\t\tontract CarbonoToken20 is ERC2...\n      DUP1 \t\t\tontract CarbonoToken20 is ERC2...\n      PUSH 18160DDD\t\t\tontract CarbonoToken20 is ERC2...\n      EQ \t\t\tontract CarbonoToken20 is ERC2...\n      PUSH [tag] 5\t\t\tontract CarbonoToken20 is ERC2...\n      JUMPI \t\t\tontract CarbonoToken20 is ERC2...\n      DUP1 \t\t\tontract CarbonoToken20 is ERC2...\n      PUSH 23B872DD\t\t\tontract CarbonoToken20 is ERC2...\n      EQ \t\t\tontract CarbonoToken20 is ERC2...\n      PUSH [tag] 6\t\t\tontract CarbonoToken20 is ERC2...\n      JUMPI \t\t\tontract CarbonoToken20 is ERC2...\n      PUSH [tag] 2\t\t\tontract CarbonoToken20 is ERC2...\n      JUMP \t\t\tontract CarbonoToken20 is ERC2...\n    tag 1\t\t\tontract CarbonoToken20 is ERC2...\n      JUMPDEST \t\t\tontract CarbonoToken20 is ERC2...\n      CALLDATASIZE \t\t\tontract CarbonoToken20 is ERC2...\n      PUSH [tag] 2\t\t\tontract CarbonoToken20 is ERC2...\n      JUMPI \t\t\tontract CarbonoToken20 is ERC2...\n      PUSH [tag] 24\t\t\tyCarbonoToken20();\\n\n      PUSH [tag] 25\t\t\tyCarbonoToken20()\n      JUMP \t\t\tyCarbonoToken20();\\n\n    tag 24\t\t\tyCarbonoToken20();\\n\n      JUMPDEST \t\t\tyCarbonoToken20();\\n\n      STOP \t\t\tontract CarbonoToken20 is ERC2...\n    tag 2\t\t\tontract CarbonoToken20 is ERC2...\n      JUMPDEST \t\t\tontract CarbonoToken20 is ERC2...\n      PUSH 0\t\t\tontract CarbonoToken20 is ERC2...\n      PUSH 0\t\t\tontract CarbonoToken20 is ERC2...\n      REVERT \t\t\tontract CarbonoToken20 is ERC2...\n    tag 3\t\t\terToken = newPrice;\\n        e...\n      JUMPDEST \t\t\terToken = newPrice;\\n        e...\n      CALLVALUE \t\t\terToken = newPrice;\\n        e...\n      DUP1 \t\t\terToken = newPrice;\\n        e...\n      ISZERO \t\t\terToken = newPrice;\\n        e...\n      PUSH [tag] 26\t\t\terToken = newPrice;\\n        e...\n      JUMPI \t\t\terToken = newPrice;\\n        e...\n      PUSH 0\t\t\terToken = newPrice;\\n        e...\n      PUSH 0\t\t\terToken = newPrice;\\n        e...\n      REVERT \t\t\terToken = newPrice;\\n        e...\n    tag 26\t\t\terToken = newPrice;\\n        e...\n      JUMPDEST \t\t\terToken = newPrice;\\n        e...\n      POP \t\t\terToken = newPrice;\\n        e...\n      PUSH [tag] 27\t\t\terToken = newPrice;\\n        e...\n      PUSH [tag] 28\t\t\terToken = newPrice;\\n        e...\n      JUMP \t\t\terToken = newPrice;\\n        e...\n    tag 27\t\t\terToken = newPrice;\\n        e...\n      JUMPDEST \t\t\terToken = newPrice;\\n        e...\n      PUSH 40\t\t\terToken = newPrice;\\n        e...\n      MLOAD \t\t\terToken = newPrice;\\n        e...\n      PUSH [tag] 29\t\t\terToken = newPrice;\\n        e...\n      SWAP2 \t\t\terToken = newPrice;\\n        e...\n      SWAP1 \t\t\terToken = newPrice;\\n        e...\n      PUSH [tag] 30\t\t\terToken = newPrice;\\n        e...\n      JUMP \t\t\terToken = newPrice;\\n        e...\n    tag 29\t\t\terToken = newPrice;\\n        e...\n      JUMPDEST \t\t\terToken = newPrice;\\n        e...\n      PUSH 40\t\t\terToken = newPrice;\\n        e...\n      MLOAD \t\t\terToken = newPrice;\\n        e...\n      DUP1 \t\t\terToken = newPrice;\\n        e...\n      SWAP2 \t\t\terToken = newPrice;\\n        e...\n      SUB \t\t\terToken = newPrice;\\n        e...\n      SWAP1 \t\t\terToken = newPrice;\\n        e...\n      RETURN \t\t\terToken = newPrice;\\n        e...\n    tag 4\t\t\t\n      JUMPDEST \t\t\t\n      CALLVALUE \t\t\t\n      DUP1 \t\t\t\n      ISZERO \t\t\t\n      PUSH [tag] 31\t\t\t\n      JUMPI \t\t\t\n      PUSH 0\t\t\t\n      PUSH 0\t\t\t\n      REVERT \t\t\t\n    tag 31\t\t\t\n      JUMPDEST \t\t\t\n      POP \t\t\t\n      PUSH [tag] 32\t\t\t\n      PUSH 4\t\t\t\n      DUP1 \t\t\t\n      CALLDATASIZE \t\t\t\n      SUB \t\t\t\n      DUP2 \t\t\t\n      ADD \t\t\t\n      SWAP1 \t\t\t\n      PUSH [tag] 33\t\t\t\n      SWAP2 \t\t\t\n      SWAP1 \t\t\t\n      PUSH [tag] 34\t\t\t\n      JUMP \t\t\t\n    tag 33\t\t\t\n      JUMPDEST \t\t\t\n      PUSH [tag] 35\t\t\t\n      JUMP \t\t\t\n    tag 32\t\t\t\n      JUMPDEST \t\t\t\n      PUSH 40\t\t\t\n      MLOAD \t\t\t\n      PUSH [tag] 36\t\t\t\n      SWAP2 \t\t\t\n      SWAP1 \t\t\t\n      PUSH [tag] 37\t\t\t\n      JUMP \t\t\t\n    tag 36\t\t\t\n      JUMPDEST \t\t\t\n      PUSH 40\t\t\t\n      MLOAD \t\t\t\n      DUP1 \t\t\t\n      SWAP2 \t\t\t\n      SUB \t\t\t\n      SWAP1 \t\t\t\n      RETURN \t\t\t\n    tag 5\t\t\t\n      JUMPDEST \t\t\t\n      CALLVALUE \t\t\t\n      DUP1 \t\t\t\n      ISZERO \t\t\t\n      PUSH [tag] 38\t\t\t\n      JUMPI \t\t\t\n      PUSH 0\t\t\t\n      PUSH 0\t\t\t\n      REVERT \t\t\t\n    tag 38\t\t\t\n      JUMPDEST \t\t\t\n      POP \t\t\t\n      PUSH [tag] 39\t\t\t\n      PUSH [tag] 40\t\t\t\n      JUMP \t\t\t\n    tag 39\t\t\t\n      JUMPDEST \t\t\t\n      PUSH 40\t\t\t\n      MLOAD \t\t\t\n      PUSH [tag] 41\t\t\t\n      SWAP2 \t\t\t\n      SWAP1 \t\t\t\n      PUSH [tag] 42\t\t\t\n      JUMP \t\t\t\n    tag 41\t\t\t\n      JUMPDEST \t\t\t\n      PUSH 40\t\t\t\n      MLOAD \t\t\t\n      DUP1 \t\t\t\n      SWAP2 \t\t\t\n      SUB \t\t\t\n      SWAP1 \t\t\t\n      RETURN \t\t\t\n    tag 6\t\t\t\n      JUMPDEST \t\t\t\n      CALLVALUE \t\t\t\n      DUP1 \t\t\t\n      ISZERO \t\t\t\n      PUSH [tag] 43\t\t\t\n      JUMPI \t\t\t\n      PUSH 0\t\t\t\n      PUSH 0\t\t\t\n      REVERT \t\t\t\n    tag 43\t\t\t\n      JUMPDEST \t\t\t\n      POP \t\t\t\n      PUSH [tag] 44\t\t\t\n      PUSH 4\t\t\t\n      DUP1 \t\t\t\n      CALLDATASIZE \t\t\t\n      SUB \t\t\t\n      DUP2 \t\t\t\n      ADD \t\t\t\n      SWAP1 \t\t\t\n      PUSH [tag] 45\t\t\t\n      SWAP2 \t\t\t\n      SWAP1 \t\t\t\n      PUSH [tag] 46\t\t\t\n      JUMP \t\t\t\n    tag 45\t\t\t\n      JUMPDEST \t\t\t\n      PUSH [tag] 47\t\t\t\n      JUMP \t\t\t\n    tag 44\t\t\t\n      JUMPDEST \t\t\t\n      PUSH 40\t\t\t\n      MLOAD \t\t\t\n      PUSH [tag] 48\t\t\t\n      SWAP2 \t\t\t\n      SWAP1 \t\t\t\n      PUSH [tag] 37\t\t\t\n      JUMP \t\t\t\n    tag 48\t\t\t\n      JUMPDEST \t\t\t\n      PUSH 40\t\t\t\n      MLOAD \t\t\t\n      DUP1 \t\t\t\n      SWAP2 \t\t\t\n      SUB \t\t\t\n      SWAP1 \t\t\t\n      RETURN \t\t\t\n    tag 7\t\t\t\n      JUMPDEST \t\t\t\n      CALLVALUE \t\t\t\n      DUP1 \t\t\t\n      ISZERO \t\t\t\n      PUSH [tag] 49\t\t\t\n      JUMPI \t\t\t\n      PUSH 0\t\t\t\n      PUSH 0\t\t\t\n      REVERT \t\t\t\n    tag 49\t\t\t\n      JUMPDEST \t\t\t\n      POP \t\t\t\n      PUSH [tag] 50\t\t\t\n      PUSH [tag] 51\t\t\t\n      JUMP \t\t\t\n    tag 50\t\t\t\n      JUMPDEST \t\t\t\n      PUSH 40\t\t\t\n      MLOAD \t\t\t\n      PUSH [tag] 52\t\t\t\n      SWAP2 \t\t\t\n      SWAP1 \t\t\t\n      PUSH [tag] 53\t\t\t\n      JUMP \t\t\t\n    tag 52\t\t\t\n      JUMPDEST \t\t\t\n      PUSH 40\t\t\t\n      MLOAD \t\t\t\n      DUP1 \t\t\t\n      SWAP2 \t\t\t\n      SUB \t\t\t\n      SWAP1 \t\t\t\n      RETURN \t\t\t\n    tag 8\t\t\tunction withdraw(address payab...\n      JUMPDEST \t\t\tunction withdraw(address payab...\n      CALLVALUE \t\t\tunction withdraw(address payab...\n      DUP1 \t\t\tunction withdraw(address payab...\n      ISZERO \t\t\tunction withdraw(address payab...\n      PUSH [tag] 54\t\t\tunction withdraw(address payab...\n      JUMPI \t\t\tunction withdraw(address payab...\n      PUSH 0\t\t\tunction withdraw(address payab...\n      PUSH 0\t\t\tunction withdraw(address payab...\n      REVERT \t\t\tunction withdraw(address payab...\n    tag 54\t\t\tunction withdraw(address payab...\n      JUMPDEST \t\t\tunction withdraw(address payab...\n      POP \t\t\tunction withdraw(address payab...\n      PUSH [tag] 55\t\t\tunction withdraw(address payab...\n      PUSH 4\t\t\tunction withdraw(address payab...\n      DUP1 \t\t\tunction withdraw(address payab...\n      CALLDATASIZE \t\t\tunction withdraw(address payab...\n      SUB \t\t\tunction withdraw(address payab...\n      DUP2 \t\t\tunction withdraw(address payab...\n      ADD \t\t\tunction withdraw(address payab...\n      SWAP1 \t\t\tunction withdraw(address payab...\n      PUSH [tag] 56\t\t\tunction withdraw(address payab...\n      SWAP2 \t\t\tunction withdraw(address payab...\n      SWAP1 \t\t\tunction withdraw(address payab...\n      PUSH [tag] 57\t\t\tunction withdraw(address payab...\n      JUMP \t\t\tunction withdraw(address payab...\n    tag 56\t\t\tunction withdraw(address payab...\n      JUMPDEST \t\t\tunction withdraw(address payab...\n      PUSH [tag] 58\t\t\tunction withdraw(address payab...\n      JUMP \t\t\tunction withdraw(address payab...\n    tag 55\t\t\tunction withdraw(address payab...\n      JUMPDEST \t\t\tunction withdraw(address payab...\n      STOP \t\t\tunction withdraw(address payab...\n    tag 9\t\t\tunction setPriceWeiPerToken(ui...\n      JUMPDEST \t\t\tunction setPriceWeiPerToken(ui...\n      CALLVALUE \t\t\tunction setPriceWeiPerToken(ui...\n      DUP1 \t\t\tunction setPriceWeiPerToken(ui...\n      ISZERO \t\t\tunction setPriceWeiPerToken(ui...\n      PUSH [tag] 59\t\t\tunction setPriceWeiPerToken(ui...\n      JUMPI \t\t\tunction setPriceWeiPerToken(ui...\n      PUSH 0\t\t\tunction setPriceWeiPerToken(ui...\n      PUSH 0\t\t\tunction setPriceWeiPerToken(ui...\n      REVERT \t\t\tunction setPriceWeiPerToken(ui...\n    tag 59\t\t\tunction setPriceWeiPerToken(ui...\n      JUMPDEST \t\t\tunction setPriceWeiPerToken(ui...\n      POP \t\t\tunction setPriceWeiPerToken(ui...\n      PUSH [tag] 60\t\t\tunction setPriceWeiPerToken(ui...\n      PUSH 4\t\t\tunction setPriceWeiPerToken(ui...\n      DUP1 \t\t\tunction setPriceWeiPerToken(ui...\n      CALLDATASIZE \t\t\tunction setPriceWeiPerToken(ui...\n      SUB \t\t\tunction setPriceWeiPerToken(ui...\n      DUP2 \t\t\tunction setPriceWeiPerToken(ui...\n      ADD \t\t\tunction setPriceWeiPerToken(ui...\n      SWAP1 \t\t\tunction setPriceWeiPerToken(ui...\n      PUSH [tag] 61\t\t\tunction setPriceWeiPerToken(ui...\n      SWAP2 \t\t\tunction setPriceWeiPerToken(ui...\n      SWAP1 \t\t\tunction setPriceWeiPerToken(ui...\n      PUSH [tag] 62\t\t\tunction setPriceWeiPerToken(ui...\n      JUMP \t\t\tunction setPriceWeiPerToken(ui...\n    tag 61\t\t\tunction setPriceWeiPerToken(ui...\n      JUMPDEST \t\t\tunction setPriceWeiPerToken(ui...\n      PUSH [tag] 63\t\t\tunction setPriceWeiPerToken(ui...\n      JUMP \t\t\tunction setPriceWeiPerToken(ui...\n    tag 60\t\t\tunction setPriceWeiPerToken(ui...\n      JUMPDEST \t\t\tunction setPriceWeiPerToken(ui...\n      STOP \t\t\tunction setPriceWeiPerToken(ui...\n    tag 10\t\t\t\n      JUMPDEST \t\t\t\n      CALLVALUE \t\t\t\n      DUP1 \t\t\t\n      ISZERO \t\t\t\n      PUSH [tag] 64\t\t\t\n      JUMPI \t\t\t\n      PUSH 0\t\t\t\n      PUSH 0\t\t\t\n      REVERT \t\t\t\n    tag 64\t\t\t\n      JUMPDEST \t\t\t\n      POP \t\t\t\n      PUSH [tag] 65\t\t\t\n      PUSH 4\t\t\t\n      DUP1 \t\t\t\n      CALLDATASIZE \t\t\t\n      SUB \t\t\t\n      DUP2 \t\t\t\n      ADD \t\t\t\n      SWAP1 \t\t\t\n      PUSH [tag] 66\t\t\t\n      SWAP2 \t\t\t\n      SWAP1 \t\t\t\n      PUSH [tag] 67\t\t\t\n      JUMP \t\t\t\n    tag 66\t\t\t\n      JUMPDEST \t\t\t\n      PUSH [tag] 68\t\t\t\n      JUMP \t\t\t\n    tag 65\t\t\t\n      JUMPDEST \t\t\t\n      PUSH 40\t\t\t\n      MLOAD \t\t\t\n      PUSH [tag] 69\t\t\t\n      SWAP2 \t\t\t\n      SWAP1 \t\t\t\n      PUSH [tag] 42\t\t\t\n      JUMP \t\t\t\n    tag 69\t\t\t\n      JUMPDEST \t\t\t\n      PUSH 40\t\t\t\n      MLOAD \t\t\t\n      DUP1 \t\t\t\n      SWAP2 \t\t\t\n      SUB \t\t\t\n      SWAP1 \t\t\t\n      RETURN \t\t\t\n    tag 11\t\t\t   }\\n}\\n\\n\n      JUMPDEST \t\t\t   }\\n}\\n\\n\n      CALLVALUE \t\t\t   }\\n}\\n\\n\n      DUP1 \t\t\t   }\\n}\\n\\n\n      ISZERO \t\t\t   }\\n}\\n\\n\n      PUSH [tag] 70\t\t\t   }\\n}\\n\\n\n      JUMPI \t\t\t   }\\n}\\n\\n\n      PUSH 0\t\t\t   }\\n}\\n\\n\n      PUSH 0\t\t\t   }\\n}\\n\\n\n      REVERT \t\t\t   }\\n}\\n\\n\n    tag 70\t\t\t   }\\n}\\n\\n\n      JUMPDEST \t\t\t   }\\n}\\n\\n\n      POP \t\t\t   }\\n}\\n\\n\n      PUSH [tag] 71\t\t\t   }\\n}\\n\\n\n      PUSH [tag] 72\t\t\t   }\\n}\\n\\n\n      JUMP \t\t\t   }\\n}\\n\\n\n    tag 71\t\t\t   }\\n}\\n\\n\n      JUMPDEST \t\t\t   }\\n}\\n\\n\n      STOP \t\t\t   }\\n}\\n\\n\n    tag 12\t\t\tion setPriceWeiPerToken(uint25...\n      JUMPDEST \t\t\tion setPriceWeiPerToken(uint25...\n      CALLVALUE \t\t\tion setPriceWeiPerToken(uint25...\n      DUP1 \t\t\tion setPriceWeiPerToken(uint25...\n      ISZERO \t\t\tion setPriceWeiPerToken(uint25...\n      PUSH [tag] 73\t\t\tion setPriceWeiPerToken(uint25...\n      JUMPI \t\t\tion setPriceWeiPerToken(uint25...\n      PUSH 0\t\t\tion setPriceWeiPerToken(uint25...\n      PUSH 0\t\t\tion setPriceWeiPerToken(uint25...\n      REVERT \t\t\tion setPriceWeiPerToken(uint25...\n    tag 73\t\t\tion setPriceWeiPerToken(uint25...\n      JUMPDEST \t\t\tion setPriceWeiPerToken(uint25...\n      POP \t\t\tion setPriceWeiPerToken(uint25...\n      PUSH [tag] 74\t\t\tion setPriceWeiPerToken(uint25...\n      PUSH [tag] 75\t\t\tion setPriceWeiPerToken(uint25...\n      JUMP \t\t\tion setPriceWeiPerToken(uint25...\n    tag 74\t\t\tion setPriceWeiPerToken(uint25...\n      JUMPDEST \t\t\tion setPriceWeiPerToken(uint25...\n      PUSH 40\t\t\tion setPriceWeiPerToken(uint25...\n      MLOAD \t\t\tion setPriceWeiPerToken(uint25...\n      PUSH [tag] 76\t\t\tion setPriceWeiPerToken(uint25...\n      SWAP2 \t\t\tion setPriceWeiPerToken(uint25...\n      SWAP1 \t\t\tion setPriceWeiPerToken(uint25...\n      PUSH [tag] 77\t\t\tion setPriceWeiPerToken(uint25...\n      JUMP \t\t\tion setPriceWeiPerToken(uint25...\n    tag 76\t\t\tion setPriceWeiPerToken(uint25...\n      JUMPDEST \t\t\tion setPriceWeiPerToken(uint25...\n      PUSH 40\t\t\tion setPriceWeiPerToken(uint25...\n      MLOAD \t\t\tion setPriceWeiPerToken(uint25...\n      DUP1 \t\t\tion setPriceWeiPerToken(uint25...\n      SWAP2 \t\t\tion setPriceWeiPerToken(uint25...\n      SUB \t\t\tion setPriceWeiPerToken(uint25...\n      SWAP1 \t\t\tion setPriceWeiPerToken(uint25...\n      RETURN \t\t\tion setPriceWeiPerToken(uint25...\n    tag 13\t\t\t\"to=0\");\\n        uint256 bal ...\n      JUMPDEST \t\t\t\"to=0\");\\n        uint256 bal ...\n      CALLVALUE \t\t\t\"to=0\");\\n        uint256 bal ...\n      DUP1 \t\t\t\"to=0\");\\n        uint256 bal ...\n      ISZERO \t\t\t\"to=0\");\\n        uint256 bal ...\n      PUSH [tag] 78\t\t\t\"to=0\");\\n        uint256 bal ...\n      JUMPI \t\t\t\"to=0\");\\n        uint256 bal ...\n      PUSH 0\t\t\t\"to=0\");\\n        uint256 bal ...\n      PUSH 0\t\t\t\"to=0\");\\n        uint256 bal ...\n      REVERT \t\t\t\"to=0\");\\n        uint256 bal ...\n    tag 78\t\t\t\"to=0\");\\n        uint256 bal ...\n      JUMPDEST \t\t\t\"to=0\");\\n        uint256 bal ...\n      POP \t\t\t\"to=0\");\\n        uint256 bal ...\n      PUSH [tag] 79\t\t\t\"to=0\");\\n        uint256 bal ...\n      PUSH [tag] 80\t\t\t\"to=0\");\\n        uint256 bal ...\n      JUMP \t\t\t\"to=0\");\\n        uint256 bal ...\n    tag 79\t\t\t\"to=0\");\\n        uint256 bal ...\n      JUMPDEST \t\t\t\"to=0\");\\n        uint256 bal ...\n      PUSH 40\t\t\t\"to=0\");\\n        uint256 bal ...\n      MLOAD \t\t\t\"to=0\");\\n        uint256 bal ...\n      PUSH [tag] 81\t\t\t\"to=0\");\\n        uint256 bal ...\n      SWAP2 \t\t\t\"to=0\");\\n        uint256 bal ...\n      SWAP1 \t\t\t\"to=0\");\\n        uint256 bal ...\n      PUSH [tag] 30\t\t\t\"to=0\");\\n        uint256 bal ...\n      JUMP \t\t\t\"to=0\");\\n        uint256 bal ...\n    tag 81\t\t\t\"to=0\");\\n        uint256 bal ...\n      JUMPDEST \t\t\t\"to=0\");\\n        uint256 bal ...\n      PUSH 40\t\t\t\"to=0\");\\n        uint256 bal ...\n      MLOAD \t\t\t\"to=0\");\\n        uint256 bal ...\n      DUP1 \t\t\t\"to=0\");\\n        uint256 bal ...\n      SWAP2 \t\t\t\"to=0\");\\n        uint256 bal ...\n      SUB \t\t\t\"to=0\");\\n        uint256 bal ...\n      SWAP1 \t\t\t\"to=0\");\\n        uint256 bal ...\n      RETURN \t\t\t\"to=0\");\\n        uint256 bal ...\n    tag 14\t\t\t\n      JUMPDEST \t\t\t\n      CALLVALUE \t\t\t\n      DUP1 \t\t\t\n      ISZERO \t\t\t\n      PUSH [tag] 82\t\t\t\n      JUMPI \t\t\t\n      PUSH 0\t\t\t\n      PUSH 0\t\t\t\n      REVERT \t\t\t\n    tag 82\t\t\t\n      JUMPDEST \t\t\t\n      POP \t\t\t\n      PUSH [tag] 83\t\t\t\n      PUSH 4\t\t\t\n      DUP1 \t\t\t\n      CALLDATASIZE \t\t\t\n      SUB \t\t\t\n      DUP2 \t\t\t\n      ADD \t\t\t\n      SWAP1 \t\t\t\n      PUSH [tag] 84\t\t\t\n      SWAP2 \t\t\t\n      SWAP1 \t\t\t\n      PUSH [tag] 34\t\t\t\n      JUMP \t\t\t\n    tag 84\t\t\t\n      JUMPDEST \t\t\t\n      PUSH [tag] 85\t\t\t\n      JUMP \t\t\t\n    tag 83\t\t\t\n      JUMPDEST \t\t\t\n      PUSH 40\t\t\t\n      MLOAD \t\t\t\n      PUSH [tag] 86\t\t\t\n      SWAP2 \t\t\t\n      SWAP1 \t\t\t\n      PUSH [tag] 37\t\t\t\n      JUMP \t\t\t\n    tag 86\t\t\t\n      JUMPDEST \t\t\t\n      PUSH 40\t\t\t\n      MLOAD \t\t\t\n      DUP1 \t\t\t\n      SWAP2 \t\t\t\n      SUB \t\t\t\n      SWAP1 \t\t\t\n      RETURN \t\t\t\n    tag 15\t\t\tunction buyCarbonoToken20() pu...\n      JUMPDEST \t\t\tunction buyCarbonoToken20() pu...\n      PUSH [tag] 87\t\t\tunction buyCarbonoToken20() pu...\n      PUSH [tag] 25\t\t\tunction buyCarbonoToken20() pu...\n      JUMP \t\t\tunction buyCarbonoToken20() pu...\n    tag 87\t\t\tunction buyCarbonoToken20() pu...\n      JUMPDEST \t\t\tunction buyCarbonoToken20() pu...\n      STOP \t\t\tunction buyCarbonoToken20() pu...\n    tag 16\t\t\tint256 public priceWeiPerToken...\n      JUMPDEST \t\t\tint256 public priceWeiPerToken...\n      CALLVALUE \t\t\tint256 public priceWeiPerToken...\n      DUP1 \t\t\tint256 public priceWeiPerToken...\n      ISZERO \t\t\tint256 public priceWeiPerToken...\n      PUSH [tag] 88\t\t\tint256 public priceWeiPerToken...\n      JUMPI \t\t\tint256 public priceWeiPerToken...\n      PUSH 0\t\t\tint256 public priceWeiPerToken...\n      PUSH 0\t\t\tint256 public priceWeiPerToken...\n      REVERT \t\t\tint256 public priceWeiPerToken...\n    tag 88\t\t\tint256 public priceWeiPerToken...\n      JUMPDEST \t\t\tint256 public priceWeiPerToken...\n      POP \t\t\tint256 public priceWeiPerToken...\n      PUSH [tag] 89\t\t\tint256 public priceWeiPerToken...\n      PUSH [tag] 90\t\t\tint256 public priceWeiPerToken...\n      JUMP \t\t\tint256 public priceWeiPerToken...\n    tag 89\t\t\tint256 public priceWeiPerToken...\n      JUMPDEST \t\t\tint256 public priceWeiPerToken...\n      PUSH 40\t\t\tint256 public priceWeiPerToken...\n      MLOAD \t\t\tint256 public priceWeiPerToken...\n      PUSH [tag] 91\t\t\tint256 public priceWeiPerToken...\n      SWAP2 \t\t\tint256 public priceWeiPerToken...\n      SWAP1 \t\t\tint256 public priceWeiPerToken...\n      PUSH [tag] 42\t\t\tint256 public priceWeiPerToken...\n      JUMP \t\t\tint256 public priceWeiPerToken...\n    tag 91\t\t\tint256 public priceWeiPerToken...\n      JUMPDEST \t\t\tint256 public priceWeiPerToken...\n      PUSH 40\t\t\tint256 public priceWeiPerToken...\n      MLOAD \t\t\tint256 public priceWeiPerToken...\n      DUP1 \t\t\tint256 public priceWeiPerToken...\n      SWAP2 \t\t\tint256 public priceWeiPerToken...\n      SUB \t\t\tint256 public priceWeiPerToken...\n      SWAP1 \t\t\tint256 public priceWeiPerToken...\n      RETURN \t\t\tint256 public priceWeiPerToken...\n    tag 17\t\t\t\n      JUMPDEST \t\t\t\n      CALLVALUE \t\t\t\n      DUP1 \t\t\t\n      ISZERO \t\t\t\n      PUSH [tag] 92\t\t\t\n      JUMPI \t\t\t\n      PUSH 0\t\t\t\n      PUSH 0\t\t\t\n      REVERT \t\t\t\n    tag 92\t\t\t\n      JUMPDEST \t\t\t\n      POP \t\t\t\n      PUSH [tag] 93\t\t\t\n      PUSH 4\t\t\t\n      DUP1 \t\t\t\n      CALLDATASIZE \t\t\t\n      SUB \t\t\t\n      DUP2 \t\t\t\n      ADD \t\t\t\n      SWAP1 \t\t\t\n      PUSH [tag] 94\t\t\t\n      SWAP2 \t\t\t\n      SWAP1 \t\t\t\n      PUSH [tag] 95\t\t\t\n      JUMP \t\t\t\n    tag 94\t\t\t\n      JUMPDEST \t\t\t\n      PUSH [tag] 96\t\t\t\n      JUMP \t\t\t\n    tag 93\t\t\t\n      JUMPDEST \t\t\t\n      PUSH 40\t\t\t\n      MLOAD \t\t\t\n      PUSH [tag] 97\t\t\t\n      SWAP2 \t\t\t\n      SWAP1 \t\t\t\n      PUSH [tag] 42\t\t\t\n      JUMP \t\t\t\n    tag 97\t\t\t\n      JUMPDEST \t\t\t\n      PUSH 40\t\t\t\n      MLOAD \t\t\t\n      DUP1 \t\t\t\n      SWAP2 \t\t\t\n      SUB \t\t\t\n      SWAP1 \t\t\t\n      RETURN \t\t\t\n    tag 18\t\t\t\n      JUMPDEST \t\t\t\n      CALLVALUE \t\t\t\n      DUP1 \t\t\t\n      ISZERO \t\t\t\n      PUSH [tag] 98\t\t\t\n      JUMPI \t\t\t\n      PUSH 0\t\t\t\n      PUSH 0\t\t\t\n      REVERT \t\t\t\n    tag 98\t\t\t\n      JUMPDEST \t\t\t\n      POP \t\t\t\n      PUSH [tag] 99\t\t\t\n      PUSH 4\t\t\t\n      DUP1 \t\t\t\n      CALLDATASIZE \t\t\t\n      SUB \t\t\t\n      DUP2 \t\t\t\n      ADD \t\t\t\n      SWAP1 \t\t\t\n      PUSH [tag] 100\t\t\t\n      SWAP2 \t\t\t\n      SWAP1 \t\t\t\n      PUSH [tag] 67\t\t\t\n      JUMP \t\t\t\n    tag 100\t\t\t\n      JUMPDEST \t\t\t\n      PUSH [tag] 101\t\t\t\n      JUMP \t\t\t\n    tag 99\t\t\t\n      JUMPDEST \t\t\t\n      STOP \t\t\t\n    tag 25\t\t\tunction buyCarbonoToken20() pu...\n      JUMPDEST \t\t\tunction buyCarbonoToken20() pu...\n      PUSH [tag] 103\t\t\t\n      PUSH [tag] 104\t\t\t\n      JUMP \t\t\t\n    tag 103\t\t\t\n      JUMPDEST \t\t\t\n      PUSH 0\t\t\t,\n      CALLVALUE \t\t\tsg.value \n      GT \t\t\tsg.value > 0,\n      PUSH [tag] 106\t\t\tequire(msg.value > 0, \"no ETH\"...\n      JUMPI \t\t\tequire(msg.value > 0, \"no ETH\"...\n      PUSH 40\t\t\tequire(msg.value > 0, \"no ETH\"...\n      MLOAD \t\t\tequire(msg.value > 0, \"no ETH\"...\n      PUSH 8C379A000000000000000000000000000000000000000000000000000000000\t\t\tequire(msg.value > 0, \"no ETH\"...\n      DUP2 \t\t\tequire(msg.value > 0, \"no ETH\"...\n      MSTORE \t\t\tequire(msg.value > 0, \"no ETH\"...\n      PUSH 4\t\t\tequire(msg.value > 0, \"no ETH\"...\n      ADD \t\t\tequire(msg.value > 0, \"no ETH\"...\n      PUSH [tag] 107\t\t\tequire(msg.value > 0, \"no ETH\"...\n      SWAP1 \t\t\tequire(msg.value > 0, \"no ETH\"...\n      PUSH [tag] 108\t\t\tequire(msg.value > 0, \"no ETH\"...\n      JUMP \t\t\tequire(msg.value > 0, \"no ETH\"...\n    tag 107\t\t\tequire(msg.value > 0, \"no ETH\"...\n      JUMPDEST \t\t\tequire(msg.value > 0, \"no ETH\"...\n      PUSH 40\t\t\tequire(msg.value > 0, \"no ETH\"...\n      MLOAD \t\t\tequire(msg.value > 0, \"no ETH\"...\n      DUP1 \t\t\tequire(msg.value > 0, \"no ETH\"...\n      SWAP2 \t\t\tequire(msg.value > 0, \"no ETH\"...\n      SUB \t\t\tequire(msg.value > 0, \"no ETH\"...\n      SWAP1 \t\t\tequire(msg.value > 0, \"no ETH\"...\n      REVERT \t\t\tequire(msg.value > 0, \"no ETH\"...\n    tag 106\t\t\tequire(msg.value > 0, \"no ETH\"...\n      JUMPDEST \t\t\tequire(msg.value > 0, \"no ETH\"...\n      PUSH 0\t\t\tint256 tokensOut \n      PUSH 7\t\t\triceWeiPerToken;\n      SLOAD \t\t\triceWeiPerToken;\n      PUSH [tag] 109\t\t\tecimals())\n      PUSH [tag] 51\t\t\tecimals(\n      JUMP \t\t\tecimals())\n    tag 109\t\t\tecimals())\n      JUMPDEST \t\t\tecimals())\n      PUSH A\t\t\t0 \n      PUSH [tag] 110\t\t\t0 ** decimals())\n      SWAP2 \t\t\t0 ** decimals())\n      SWAP1 \t\t\t0 ** decimals())\n      PUSH [tag] 111\t\t\t0 ** decimals())\n      JUMP \t\t\t0 ** decimals())\n    tag 110\t\t\t0 ** decimals())\n      JUMPDEST \t\t\t0 ** decimals())\n      CALLVALUE \t\t\tsg.value \n      PUSH [tag] 112\t\t\tsg.value * (10 ** decimals()))\n      SWAP2 \t\t\tsg.value * (10 ** decimals()))\n      SWAP1 \t\t\tsg.value * (10 ** decimals()))\n      PUSH [tag] 113\t\t\tsg.value * (10 ** decimals()))\n      JUMP \t\t\tsg.value * (10 ** decimals()))\n    tag 112\t\t\tsg.value * (10 ** decimals()))\n      JUMPDEST \t\t\tsg.value * (10 ** decimals()))\n      PUSH [tag] 114\t\t\tmsg.value * (10 ** decimals())...\n      SWAP2 \t\t\tmsg.value * (10 ** decimals())...\n      SWAP1 \t\t\tmsg.value * (10 ** decimals())...\n      PUSH [tag] 115\t\t\tmsg.value * (10 ** decimals())...\n      JUMP \t\t\tmsg.value * (10 ** decimals())...\n    tag 114\t\t\tmsg.value * (10 ** decimals())...\n      JUMPDEST \t\t\tmsg.value * (10 ** decimals())...\n      SWAP1 \t\t\tint256 tokensOut = (msg.value ...\n      POP \t\t\tint256 tokensOut = (msg.value ...\n      PUSH 0\t\t\t,\n      DUP2 \t\t\tokensOut \n      GT \t\t\tokensOut > 0,\n      PUSH [tag] 116\t\t\tequire(tokensOut > 0, \"too lit...\n      JUMPI \t\t\tequire(tokensOut > 0, \"too lit...\n      PUSH 40\t\t\tequire(tokensOut > 0, \"too lit...\n      MLOAD \t\t\tequire(tokensOut > 0, \"too lit...\n      PUSH 8C379A000000000000000000000000000000000000000000000000000000000\t\t\tequire(tokensOut > 0, \"too lit...\n      DUP2 \t\t\tequire(tokensOut > 0, \"too lit...\n      MSTORE \t\t\tequire(tokensOut > 0, \"too lit...\n      PUSH 4\t\t\tequire(tokensOut > 0, \"too lit...\n      ADD \t\t\tequire(tokensOut > 0, \"too lit...\n      PUSH [tag] 117\t\t\tequire(tokensOut > 0, \"too lit...\n      SWAP1 \t\t\tequire(tokensOut > 0, \"too lit...\n      PUSH [tag] 118\t\t\tequire(tokensOut > 0, \"too lit...\n      JUMP \t\t\tequire(tokensOut > 0, \"too lit...\n    tag 117\t\t\tequire(tokensOut > 0, \"too lit...\n      JUMPDEST \t\t\tequire(tokensOut > 0, \"too lit...\n      PUSH 40\t\t\tequire(tokensOut > 0, \"too lit...\n      MLOAD \t\t\tequire(tokensOut > 0, \"too lit...\n      DUP1 \t\t\tequire(tokensOut > 0, \"too lit...\n      SWAP2 \t\t\tequire(tokensOut > 0, \"too lit...\n      SUB \t\t\tequire(tokensOut > 0, \"too lit...\n      SWAP1 \t\t\tequire(tokensOut > 0, \"too lit...\n      REVERT \t\t\tequire(tokensOut > 0, \"too lit...\n    tag 116\t\t\tequire(tokensOut > 0, \"too lit...\n      JUMPDEST \t\t\tequire(tokensOut > 0, \"too lit...\n      PUSH [tag] 119\t\t\tmint(msg.sender, tokensOut);\n      CALLER \t\t\tsg.sender,\n      DUP3 \t\t\tokensOut)\n      PUSH [tag] 120\t\t\tmint(\n      JUMP \t\t\tmint(msg.sender, tokensOut);\n    tag 119\t\t\tmint(msg.sender, tokensOut);\n      JUMPDEST \t\t\tmint(msg.sender, tokensOut);\n      CALLER \t\t\tsg.sender,\n      PUSH FFFFFFFFFFFFFFFFFFFFFFFFFFFFFFFFFFFFFFFF\t\t\tarbonoToken20Purchased(msg.sen...\n      AND \t\t\tarbonoToken20Purchased(msg.sen...\n      PUSH 1226F1537B00D316270056DD247F05739EE0ACA67A32CDD8258B675B6F0658B0\t\t\tarbonoToken20Purchased(msg.sen...\n      CALLVALUE \t\t\tsg.value,\n      DUP4 \t\t\tokensOut)\n      PUSH 40\t\t\tarbonoToken20Purchased(msg.sen...\n      MLOAD \t\t\tarbonoToken20Purchased(msg.sen...\n      PUSH [tag] 121\t\t\tarbonoToken20Purchased(msg.sen...\n      SWAP3 \t\t\tarbonoToken20Purchased(msg.sen...\n      SWAP2 \t\t\tarbonoToken20Purchased(msg.sen...\n      SWAP1 \t\t\tarbonoToken20Purchased(msg.sen...\n      PUSH [tag] 122\t\t\tarbonoToken20Purchased(msg.sen...\n      JUMP \t\t\tarbonoToken20Purchased(msg.sen...\n    tag 121\t\t\tarbonoToken20Purchased(msg.sen...\n      JUMPDEST \t\t\tarbonoToken20Purchased(msg.sen...\n      PUSH 40\t\t\tarbonoToken20Purchased(msg.sen...\n      MLOAD \t\t\tarbonoToken20Purchased(msg.sen...\n      DUP1 \t\t\tarbonoToken20Purchased(msg.sen...\n      SWAP2 \t\t\tarbonoToken20Purchased(msg.sen...\n      SUB \t\t\tarbonoToken20Purchased(msg.sen...\n      SWAP1 \t\t\tarbonoToken20Purchased(msg.sen...\n      LOG2 \t\t\tarbonoToken20Purchased(msg.sen...\n      POP \t\t\t\\n        require(msg.value > ...\n      PUSH [tag] 123\t\t\t\n      PUSH [tag] 124\t\t\t\n      JUMP \t\t\t\n    tag 123\t\t\t\n      JUMPDEST \t\t\t\n      JUMP \t\t\tunction buyCarbonoToken20() pu...\n    tag 28\t\t\terToken = newPrice;\\n        e...\n      JUMPDEST \t\t\terToken = newPrice;\\n        e...\n      PUSH 60\t\t\t(newPrice);\\n \n      PUSH 3\t\t\tce Re\n      DUP1 \t\t\t/ @notice Re\n      SLOAD \t\t\t/ @notice Re\n      PUSH [tag] 126\t\t\t/ @notice Re\n      SWAP1 \t\t\t/ @notice Re\n      PUSH [tag] 127\t\t\t/ @notice Re\n      JUMP \t\t\t/ @notice Re\n    tag 126\t\t\t/ @notice Re\n      JUMPDEST \t\t\t/ @notice Re\n      DUP1 \t\t\t/ @notice Re\n      PUSH 1F\t\t\t/ @notice Re\n      ADD \t\t\t/ @notice Re\n      PUSH 20\t\t\t/ @notice Re\n      DUP1 \t\t\t/ @notice Re\n      SWAP2 \t\t\t/ @notice Re\n      DIV \t\t\t/ @notice Re\n      MUL \t\t\t/ @notice Re\n      PUSH 20\t\t\t/ @notice Re\n      ADD \t\t\t/ @notice Re\n      PUSH 40\t\t\t/ @notice Re\n      MLOAD \t\t\t/ @notice Re\n      SWAP1 \t\t\t/ @notice Re\n      DUP2 \t\t\t/ @notice Re\n      ADD \t\t\t/ @notice Re\n      PUSH 40\t\t\t/ @notice Re\n      MSTORE \t\t\t/ @notice Re\n      DUP1 \t\t\t/ @notice Re\n      SWAP3 \t\t\t/ @notice Re\n      SWAP2 \t\t\t/ @notice Re\n      SWAP1 \t\t\t/ @notice Re\n      DUP2 \t\t\t/ @notice Re\n      DUP2 \t\t\t/ @notice Re\n      MSTORE \t\t\t/ @notice Re\n      PUSH 20\t\t\t/ @notice Re\n      ADD \t\t\t/ @notice Re\n      DUP3 \t\t\t/ @notice Re\n      DUP1 \t\t\t/ @notice Re\n      SLOAD \t\t\t/ @notice Re\n      PUSH [tag] 128\t\t\t/ @notice Re\n      SWAP1 \t\t\t/ @notice Re\n      PUSH [tag] 127\t\t\t/ @notice Re\n      JUMP \t\t\t/ @notice Re\n    tag 128\t\t\t/ @notice Re\n      JUMPDEST \t\t\t/ @notice Re\n      DUP1 \t\t\t/ @notice Re\n      ISZERO \t\t\t/ @notice Re\n      PUSH [tag] 129\t\t\t/ @notice Re\n      JUMPI \t\t\t/ @notice Re\n      DUP1 \t\t\t/ @notice Re\n      PUSH 1F\t\t\t/ @notice Re\n      LT \t\t\t/ @notice Re\n      PUSH [tag] 130\t\t\t/ @notice Re\n      JUMPI \t\t\t/ @notice Re\n      PUSH 100\t\t\t/ @notice Re\n      DUP1 \t\t\t/ @notice Re\n      DUP4 \t\t\t/ @notice Re\n      SLOAD \t\t\t/ @notice Re\n      DIV \t\t\t/ @notice Re\n      MUL \t\t\t/ @notice Re\n      DUP4 \t\t\t/ @notice Re\n      MSTORE \t\t\t/ @notice Re\n      SWAP2 \t\t\t/ @notice Re\n      PUSH 20\t\t\t/ @notice Re\n      ADD \t\t\t/ @notice Re\n      SWAP2 \t\t\t/ @notice Re\n      PUSH [tag] 129\t\t\t/ @notice Re\n      JUMP \t\t\t/ @notice Re\n    tag 130\t\t\t/ @notice Re\n      JUMPDEST \t\t\t/ @notice Re\n      DUP3 \t\t\t/ @notice Re\n      ADD \t\t\t/ @notice Re\n      SWAP2 \t\t\t/ @notice Re\n      SWAP1 \t\t\t/ @notice Re\n      PUSH 0\t\t\t/ @notice Re\n      MSTORE \t\t\t/ @notice Re\n      PUSH 20\t\t\t/ @notice Re\n      PUSH 0\t\t\t/ @notice Re\n      KECCAK256 \t\t\t/ @notice Re\n      SWAP1 \t\t\t/ @notice Re\n    tag 131\t\t\t/ @notice Re\n      JUMPDEST \t\t\t/ @notice Re\n      DUP2 \t\t\t/ @notice Re\n      SLOAD \t\t\t/ @notice Re\n      DUP2 \t\t\t/ @notice Re\n      MSTORE \t\t\t/ @notice Re\n      SWAP1 \t\t\t/ @notice Re\n      PUSH 1\t\t\t/ @notice Re\n      ADD \t\t\t/ @notice Re\n      SWAP1 \t\t\t/ @notice Re\n      PUSH 20\t\t\t/ @notice Re\n      ADD \t\t\t/ @notice Re\n      DUP1 \t\t\t/ @notice Re\n      DUP4 \t\t\t/ @notice Re\n      GT \t\t\t/ @notice Re\n      PUSH [tag] 131\t\t\t/ @notice Re\n      JUMPI \t\t\t/ @notice Re\n      DUP3 \t\t\t/ @notice Re\n      SWAP1 \t\t\t/ @notice Re\n      SUB \t\t\t/ @notice Re\n      PUSH 1F\t\t\t/ @notice Re\n      AND \t\t\t/ @notice Re\n      DUP3 \t\t\t/ @notice Re\n      ADD \t\t\t/ @notice Re\n      SWAP2 \t\t\t/ @notice Re\n    tag 129\t\t\t/ @notice Re\n      JUMPDEST \t\t\t/ @notice Re\n      POP \t\t\t/ @notice Re\n      POP \t\t\t/ @notice Re\n      POP \t\t\t/ @notice Re\n      POP \t\t\t/ @notice Re\n      POP \t\t\t/ @notice Re\n      SWAP1 \t\t\t/ @notice Re\n      POP \t\t\t/ @notice Re\n      SWAP1 \t\t\terToken = newPrice;\\n        e...\n      JUMP \t\t\terToken = newPrice;\\n        e...\n    tag 35\t\t\t\n      JUMPDEST \t\t\t\n      PUSH 0\t\t\t\n      PUSH 0\t\t\t\n      PUSH [tag] 133\t\t\t\n      PUSH [tag] 134\t\t\t\n      JUMP \t\t\t\n    tag 133\t\t\t\n      JUMPDEST \t\t\t\n      SWAP1 \t\t\t\n      POP \t\t\t\n      PUSH [tag] 135\t\t\t\n      DUP2 \t\t\t\n      DUP6 \t\t\t\n      DUP6 \t\t\t\n      PUSH [tag] 136\t\t\t\n      JUMP \t\t\t\n    tag 135\t\t\t\n      JUMPDEST \t\t\t\n      PUSH 1\t\t\t\n      SWAP2 \t\t\t\n      POP \t\t\t\n      POP \t\t\t\n      SWAP3 \t\t\t\n      SWAP2 \t\t\t\n      POP \t\t\t\n      POP \t\t\t\n      JUMP \t\t\t\n    tag 40\t\t\t\n      JUMPDEST \t\t\t\n      PUSH 0\t\t\t\n      PUSH 2\t\t\t\n      SLOAD \t\t\t\n      SWAP1 \t\t\t\n      POP \t\t\t\n      SWAP1 \t\t\t\n      JUMP \t\t\t\n    tag 47\t\t\t\n      JUMPDEST \t\t\t\n      PUSH 0\t\t\t\n      PUSH 0\t\t\t\n      PUSH [tag] 139\t\t\t\n      PUSH [tag] 134\t\t\t\n      JUMP \t\t\t\n    tag 139\t\t\t\n      JUMPDEST \t\t\t\n      SWAP1 \t\t\t\n      POP \t\t\t\n      PUSH [tag] 140\t\t\t\n      DUP6 \t\t\t\n      DUP3 \t\t\t\n      DUP6 \t\t\t\n      PUSH [tag] 141\t\t\t\n      JUMP \t\t\t\n    tag 140\t\t\t\n      JUMPDEST \t\t\t\n      PUSH [tag] 142\t\t\t\n      DUP6 \t\t\t\n      DUP6 \t\t\t\n      DUP6 \t\t\t\n      PUSH [tag] 143\t\t\t\n      JUMP \t\t\t\n    tag 142\t\t\t\n      JUMPDEST \t\t\t\n      PUSH 1\t\t\t\n      SWAP2 \t\t\t\n      POP \t\t\t\n      POP \t\t\t\n      SWAP4 \t\t\t\n      SWAP3 \t\t\t\n      POP \t\t\t\n      POP \t\t\t\n      POP \t\t\t\n      JUMP \t\t\t\n    tag 51\t\t\t\n      JUMPDEST \t\t\t\n      PUSH 0\t\t\t\n      PUSH 12\t\t\t\n      SWAP1 \t\t\t\n      POP \t\t\t\n      SWAP1 \t\t\t\n      JUMP \t\t\t\n    tag 58\t\t\tunction withdraw(address payab...\n      JUMPDEST \t\t\tunction withdraw(address payab...\n      PUSH [tag] 146\t\t\thased(msg.sen\n      PUSH [tag] 147\t\t\thased(msg.s\n      JUMP \t\t\thased(msg.sen\n    tag 146\t\t\thased(msg.sen\n      JUMPDEST \t\t\thased(msg.sen\n      PUSH 0\t\t\t)\n      PUSH FFFFFFFFFFFFFFFFFFFFFFFFFFFFFFFFFFFFFFFF\t\t\to != address(0),\n      AND \t\t\to != address(0),\n      DUP2 \t\t\to \n      PUSH FFFFFFFFFFFFFFFFFFFFFFFFFFFFFFFFFFFFFFFF\t\t\to != address(0),\n      AND \t\t\to != address(0),\n      SUB \t\t\to != address(0),\n      PUSH [tag] 149\t\t\tequire(to != address(0), \"to=0...\n      JUMPI \t\t\tequire(to != address(0), \"to=0...\n      PUSH 40\t\t\tequire(to != address(0), \"to=0...\n      MLOAD \t\t\tequire(to != address(0), \"to=0...\n      PUSH 8C379A000000000000000000000000000000000000000000000000000000000\t\t\tequire(to != address(0), \"to=0...\n      DUP2 \t\t\tequire(to != address(0), \"to=0...\n      MSTORE \t\t\tequire(to != address(0), \"to=0...\n      PUSH 4\t\t\tequire(to != address(0), \"to=0...\n      ADD \t\t\tequire(to != address(0), \"to=0...\n      PUSH [tag] 150\t\t\tequire(to != address(0), \"to=0...\n      SWAP1 \t\t\tequire(to != address(0), \"to=0...\n      PUSH [tag] 151\t\t\tequire(to != address(0), \"to=0...\n      JUMP \t\t\tequire(to != address(0), \"to=0...\n    tag 150\t\t\tequire(to != address(0), \"to=0...\n      JUMPDEST \t\t\tequire(to != address(0), \"to=0...\n      PUSH 40\t\t\tequire(to != address(0), \"to=0...\n      MLOAD \t\t\tequire(to != address(0), \"to=0...\n      DUP1 \t\t\tequire(to != address(0), \"to=0...\n      SWAP2 \t\t\tequire(to != address(0), \"to=0...\n      SUB \t\t\tequire(to != address(0), \"to=0...\n      SWAP1 \t\t\tequire(to != address(0), \"to=0...\n      REVERT \t\t\tequire(to != address(0), \"to=0...\n    tag 149\t\t\tequire(to != address(0), \"to=0...\n      JUMPDEST \t\t\tequire(to != address(0), \"to=0...\n      PUSH 0\t\t\tint256 bal \n      SELFBALANCE \t\t\tddress(this).balance;\n      SWAP1 \t\t\tint256 bal = address(this).bal...\n      POP \t\t\tint256 bal = address(this).bal...\n      PUSH 0\t\t\t,\n      DUP2 \t\t\tal \n      GT \t\t\tal > 0,\n      PUSH [tag] 152\t\t\tequire(bal > 0, \"empty\");\n      JUMPI \t\t\tequire(bal > 0, \"empty\");\n      PUSH 40\t\t\tequire(bal > 0, \"empty\");\n      MLOAD \t\t\tequire(bal > 0, \"empty\");\n      PUSH 8C379A000000000000000000000000000000000000000000000000000000000\t\t\tequire(bal > 0, \"empty\");\n      DUP2 \t\t\tequire(bal > 0, \"empty\");\n      MSTORE \t\t\tequire(bal > 0, \"empty\");\n      PUSH 4\t\t\tequire(bal > 0, \"empty\");\n      ADD \t\t\tequire(bal > 0, \"empty\");\n      PUSH [tag] 153\t\t\tequire(bal > 0, \"empty\");\n      SWAP1 \t\t\tequire(bal > 0, \"empty\");\n      PUSH [tag] 154\t\t\tequire(bal > 0, \"empty\");\n      JUMP \t\t\tequire(bal > 0, \"empty\");\n    tag 153\t\t\tequire(bal > 0, \"empty\");\n      JUMPDEST \t\t\tequire(bal > 0, \"empty\");\n      PUSH 40\t\t\tequire(bal > 0, \"empty\");\n      MLOAD \t\t\tequire(bal > 0, \"empty\");\n      DUP1 \t\t\tequire(bal > 0, \"empty\");\n      SWAP2 \t\t\tequire(bal > 0, \"empty\");\n      SUB \t\t\tequire(bal > 0, \"empty\");\n      SWAP1 \t\t\tequire(bal > 0, \"empty\");\n      REVERT \t\t\tequire(bal > 0, \"empty\");\n    tag 152\t\t\tequire(bal > 0, \"empty\");\n      JUMPDEST \t\t\tequire(bal > 0, \"empty\");\n      PUSH 0\t\t\tool ok,\n      DUP3 \t\t\to.\n      PUSH FFFFFFFFFFFFFFFFFFFFFFFFFFFFFFFFFFFFFFFF\t\t\to.call{\n      AND \t\t\to.call{\n      DUP3 \t\t\tal}\n      PUSH 40\t\t\to.call{value: bal}(\"\");\n      MLOAD \t\t\to.call{value: bal}(\"\");\n      PUSH [tag] 155\t\t\to.call{value: bal}(\"\");\n      SWAP1 \t\t\to.call{value: bal}(\"\");\n      PUSH [tag] 156\t\t\to.call{value: bal}(\"\");\n      JUMP \t\t\to.call{value: bal}(\"\");\n    tag 155\t\t\to.call{value: bal}(\"\");\n      JUMPDEST \t\t\to.call{value: bal}(\"\");\n      PUSH 0\t\t\to.call{value: bal}(\"\");\n      PUSH 40\t\t\to.call{value: bal}(\"\");\n      MLOAD \t\t\to.call{value: bal}(\"\");\n      DUP1 \t\t\to.call{value: bal}(\"\");\n      DUP4 \t\t\to.call{value: bal}(\"\");\n      SUB \t\t\to.call{value: bal}(\"\");\n      DUP2 \t\t\to.call{value: bal}(\"\");\n      DUP6 \t\t\to.call{value: bal}(\"\");\n      DUP8 \t\t\to.call{value: bal}(\"\");\n      GAS \t\t\to.call{value: bal}(\"\");\n      CALL \t\t\to.call{value: bal}(\"\");\n      SWAP3 \t\t\to.call{value: bal}(\"\");\n      POP \t\t\to.call{value: bal}(\"\");\n      POP \t\t\to.call{value: bal}(\"\");\n      POP \t\t\to.call{value: bal}(\"\");\n      RETURNDATASIZE \t\t\to.call{value: bal}(\"\");\n      DUP1 \t\t\to.call{value: bal}(\"\");\n      PUSH 0\t\t\to.call{value: bal}(\"\");\n      DUP2 \t\t\to.call{value: bal}(\"\");\n      EQ \t\t\to.call{value: bal}(\"\");\n      PUSH [tag] 159\t\t\to.call{value: bal}(\"\");\n      JUMPI \t\t\to.call{value: bal}(\"\");\n      PUSH 40\t\t\to.call{value: bal}(\"\");\n      MLOAD \t\t\to.call{value: bal}(\"\");\n      SWAP2 \t\t\to.call{value: bal}(\"\");\n      POP \t\t\to.call{value: bal}(\"\");\n      PUSH 1F\t\t\to.call{value: bal}(\"\");\n      NOT \t\t\to.call{value: bal}(\"\");\n      PUSH 3F\t\t\to.call{value: bal}(\"\");\n      RETURNDATASIZE \t\t\to.call{value: bal}(\"\");\n      ADD \t\t\to.call{value: bal}(\"\");\n      AND \t\t\to.call{value: bal}(\"\");\n      DUP3 \t\t\to.call{value: bal}(\"\");\n      ADD \t\t\to.call{value: bal}(\"\");\n      PUSH 40\t\t\to.call{value: bal}(\"\");\n      MSTORE \t\t\to.call{value: bal}(\"\");\n      RETURNDATASIZE \t\t\to.call{value: bal}(\"\");\n      DUP3 \t\t\to.call{value: bal}(\"\");\n      MSTORE \t\t\to.call{value: bal}(\"\");\n      RETURNDATASIZE \t\t\to.call{value: bal}(\"\");\n      PUSH 0\t\t\to.call{value: bal}(\"\");\n      PUSH 20\t\t\to.call{value: bal}(\"\");\n      DUP5 \t\t\to.call{value: bal}(\"\");\n      ADD \t\t\to.call{value: bal}(\"\");\n      RETURNDATACOPY \t\t\to.call{value: bal}(\"\");\n      PUSH [tag] 158\t\t\to.call{value: bal}(\"\");\n      JUMP \t\t\to.call{value: bal}(\"\");\n    tag 159\t\t\to.call{value: bal}(\"\");\n      JUMPDEST \t\t\to.call{value: bal}(\"\");\n      PUSH 60\t\t\to.call{value: bal}(\"\");\n      SWAP2 \t\t\to.call{value: bal}(\"\");\n      POP \t\t\to.call{value: bal}(\"\");\n    tag 158\t\t\to.call{value: bal}(\"\");\n      JUMPDEST \t\t\to.call{value: bal}(\"\");\n      POP \t\t\to.call{value: bal}(\"\");\n      POP \t\t\tbool ok, ) = to.call{value: ba...\n      SWAP1 \t\t\tbool ok, ) = to.call{value: ba...\n      POP \t\t\tbool ok, ) = to.call{value: ba...\n      DUP1 \t\t\tk,\n      PUSH [tag] 160\t\t\tequire(ok, \"withdraw fail\");\n      JUMPI \t\t\tequire(ok, \"withdraw fail\");\n      PUSH 40\t\t\tequire(ok, \"withdraw fail\");\n      MLOAD \t\t\tequire(ok, \"withdraw fail\");\n      PUSH 8C379A000000000000000000000000000000000000000000000000000000000\t\t\tequire(ok, \"withdraw fail\");\n      DUP2 \t\t\tequire(ok, \"withdraw fail\");\n      MSTORE \t\t\tequire(ok, \"withdraw fail\");\n      PUSH 4\t\t\tequire(ok, \"withdraw fail\");\n      ADD \t\t\tequire(ok, \"withdraw fail\");\n      PUSH [tag] 161\t\t\tequire(ok, \"withdraw fail\");\n      SWAP1 \t\t\tequire(ok, \"withdraw fail\");\n      PUSH [tag] 162\t\t\tequire(ok, \"withdraw fail\");\n      JUMP \t\t\tequire(ok, \"withdraw fail\");\n    tag 161\t\t\tequire(ok, \"withdraw fail\");\n      JUMPDEST \t\t\tequire(ok, \"withdraw fail\");\n      PUSH 40\t\t\tequire(ok, \"withdraw fail\");\n      MLOAD \t\t\tequire(ok, \"withdraw fail\");\n      DUP1 \t\t\tequire(ok, \"withdraw fail\");\n      SWAP2 \t\t\tequire(ok, \"withdraw fail\");\n      SUB \t\t\tequire(ok, \"withdraw fail\");\n      SWAP1 \t\t\tequire(ok, \"withdraw fail\");\n      REVERT \t\t\tequire(ok, \"withdraw fail\");\n    tag 160\t\t\tequire(ok, \"withdraw fail\");\n      JUMPDEST \t\t\tequire(ok, \"withdraw fail\");\n      DUP3 \t\t\to,\n      PUSH FFFFFFFFFFFFFFFFFFFFFFFFFFFFFFFFFFFFFFFF\t\t\tithdraw(to, bal);\n      AND \t\t\tithdraw(to, bal);\n      PUSH 884EDAD9CE6FA2440D8A54CC123490EB96D2768479D49FF9C7366125A9424364\t\t\tithdraw(to, bal);\n      DUP4 \t\t\tal)\n      PUSH 40\t\t\tithdraw(to, bal);\n      MLOAD \t\t\tithdraw(to, bal);\n      PUSH [tag] 163\t\t\tithdraw(to, bal);\n      SWAP2 \t\t\tithdraw(to, bal);\n      SWAP1 \t\t\tithdraw(to, bal);\n      PUSH [tag] 42\t\t\tithdraw(to, bal);\n      JUMP \t\t\tithdraw(to, bal);\n    tag 163\t\t\tithdraw(to, bal);\n      JUMPDEST \t\t\tithdraw(to, bal);\n      PUSH 40\t\t\tithdraw(to, bal);\n      MLOAD \t\t\tithdraw(to, bal);\n      DUP1 \t\t\tithdraw(to, bal);\n      SWAP2 \t\t\tithdraw(to, bal);\n      SUB \t\t\tithdraw(to, bal);\n      SWAP1 \t\t\tithdraw(to, bal);\n      LOG2 \t\t\tithdraw(to, bal);\n      POP \t\t\t\\n        require(to != addres...\n      POP \t\t\t\\n        require(to != addres...\n      POP \t\t\tunction withdraw(address payab...\n      JUMP \t\t\tunction withdraw(address payab...\n    tag 63\t\t\tunction setPriceWeiPerToken(ui...\n      JUMPDEST \t\t\tunction setPriceWeiPerToken(ui...\n      PUSH [tag] 165\t\t\thased(msg.sen\n      PUSH [tag] 147\t\t\thased(msg.s\n      JUMP \t\t\thased(msg.sen\n    tag 165\t\t\thased(msg.sen\n      JUMPDEST \t\t\thased(msg.sen\n      PUSH 0\t\t\t,\n      DUP2 \t\t\tewPrice \n      GT \t\t\tewPrice > 0,\n      PUSH [tag] 167\t\t\tequire(newPrice > 0, \"price=0\"...\n      JUMPI \t\t\tequire(newPrice > 0, \"price=0\"...\n      PUSH 40\t\t\tequire(newPrice > 0, \"price=0\"...\n      MLOAD \t\t\tequire(newPrice > 0, \"price=0\"...\n      PUSH 8C379A000000000000000000000000000000000000000000000000000000000\t\t\tequire(newPrice > 0, \"price=0\"...\n      DUP2 \t\t\tequire(newPrice > 0, \"price=0\"...\n      MSTORE \t\t\tequire(newPrice > 0, \"price=0\"...\n      PUSH 4\t\t\tequire(newPrice > 0, \"price=0\"...\n      ADD \t\t\tequire(newPrice > 0, \"price=0\"...\n      PUSH [tag] 168\t\t\tequire(newPrice > 0, \"price=0\"...\n      SWAP1 \t\t\tequire(newPrice > 0, \"price=0\"...\n      PUSH [tag] 169\t\t\tequire(newPrice > 0, \"price=0\"...\n      JUMP \t\t\tequire(newPrice > 0, \"price=0\"...\n    tag 168\t\t\tequire(newPrice > 0, \"price=0\"...\n      JUMPDEST \t\t\tequire(newPrice > 0, \"price=0\"...\n      PUSH 40\t\t\tequire(newPrice > 0, \"price=0\"...\n      MLOAD \t\t\tequire(newPrice > 0, \"price=0\"...\n      DUP1 \t\t\tequire(newPrice > 0, \"price=0\"...\n      SWAP2 \t\t\tequire(newPrice > 0, \"price=0\"...\n      SUB \t\t\tequire(newPrice > 0, \"price=0\"...\n      SWAP1 \t\t\tequire(newPrice > 0, \"price=0\"...\n      REVERT \t\t\tequire(newPrice > 0, \"price=0\"...\n    tag 167\t\t\tequire(newPrice > 0, \"price=0\"...\n      JUMPDEST \t\t\tequire(newPrice > 0, \"price=0\"...\n      DUP1 \t\t\tewPrice;\n      PUSH 7\t\t\triceWeiPerToken \n      DUP2 \t\t\triceWeiPerToken = newPrice;\n      SWAP1 \t\t\triceWeiPerToken = newPrice;\n      SSTORE \t\t\triceWeiPerToken = newPrice;\n      POP \t\t\triceWeiPerToken = newPrice;\n      PUSH 66CBCA4F3C64FECF1DCB9CE094ABCF7F68C3450A1D4E3A8E917DD621EDB4EBE0\t\t\triceUpdated(newPrice);\n      DUP2 \t\t\tewPrice)\n      PUSH 40\t\t\triceUpdated(newPrice);\n      MLOAD \t\t\triceUpdated(newPrice);\n      PUSH [tag] 170\t\t\triceUpdated(newPrice);\n      SWAP2 \t\t\triceUpdated(newPrice);\n      SWAP1 \t\t\triceUpdated(newPrice);\n      PUSH [tag] 42\t\t\triceUpdated(newPrice);\n      JUMP \t\t\triceUpdated(newPrice);\n    tag 170\t\t\triceUpdated(newPrice);\n      JUMPDEST \t\t\triceUpdated(newPrice);\n      PUSH 40\t\t\triceUpdated(newPrice);\n      MLOAD \t\t\triceUpdated(newPrice);\n      DUP1 \t\t\triceUpdated(newPrice);\n      SWAP2 \t\t\triceUpdated(newPrice);\n      SUB \t\t\triceUpdated(newPrice);\n      SWAP1 \t\t\triceUpdated(newPrice);\n      LOG1 \t\t\triceUpdated(newPrice);\n      POP \t\t\tunction setPriceWeiPerToken(ui...\n      JUMP \t\t\tunction setPriceWeiPerToken(ui...\n    tag 68\t\t\t\n      JUMPDEST \t\t\t\n      PUSH 0\t\t\t\n      PUSH 0\t\t\t\n      PUSH 0\t\t\t\n      DUP4 \t\t\t\n      PUSH FFFFFFFFFFFFFFFFFFFFFFFFFFFFFFFFFFFFFFFF\t\t\t\n      AND \t\t\t\n      PUSH FFFFFFFFFFFFFFFFFFFFFFFFFFFFFFFFFFFFFFFF\t\t\t\n      AND \t\t\t\n      DUP2 \t\t\t\n      MSTORE \t\t\t\n      PUSH 20\t\t\t\n      ADD \t\t\t\n      SWAP1 \t\t\t\n      DUP2 \t\t\t\n      MSTORE \t\t\t\n      PUSH 20\t\t\t\n      ADD \t\t\t\n      PUSH 0\t\t\t\n      KECCAK256 \t\t\t\n      SLOAD \t\t\t\n      SWAP1 \t\t\t\n      POP \t\t\t\n      SWAP2 \t\t\t\n      SWAP1 \t\t\t\n      POP \t\t\t\n      JUMP \t\t\t\n    tag 72\t\t\t   }\\n}\\n\\n\n      JUMPDEST \t\t\t   }\\n}\\n\\n\n      PUSH [tag] 173\t\t\thased(msg.sen\n      PUSH [tag] 147\t\t\thased(msg.s\n      JUMP \t\t\thased(msg.sen\n    tag 173\t\t\thased(msg.sen\n      JUMPDEST \t\t\thased(msg.sen\n      PUSH [tag] 175\t\t\t\n      PUSH 0\t\t\t\n      PUSH [tag] 176\t\t\t\n      JUMP \t\t\t\n    tag 175\t\t\t\n      JUMPDEST \t\t\t\n      JUMP \t\t\t   }\\n}\\n\\n\n    tag 75\t\t\tion setPriceWeiPerToken(uint25...\n      JUMPDEST \t\t\tion setPriceWeiPerToken(uint25...\n      PUSH 0\t\t\trnal on\n      PUSH 5\t\t\tequire\n      PUSH 0\t\t\tequire\n      SWAP1 \t\t\tequire\n      SLOAD \t\t\tequire\n      SWAP1 \t\t\tequire\n      PUSH 100\t\t\tequire\n      EXP \t\t\tequire\n      SWAP1 \t\t\tequire\n      DIV \t\t\tequire\n      PUSH FFFFFFFFFFFFFFFFFFFFFFFFFFFFFFFFFFFFFFFF\t\t\tequire\n      AND \t\t\tequire\n      SWAP1 \t\t\t      require\n      POP \t\t\t      require\n      SWAP1 \t\t\tion setPriceWeiPerToken(uint25...\n      JUMP \t\t\tion setPriceWeiPerToken(uint25...\n    tag 80\t\t\t\"to=0\");\\n        uint256 bal ...\n      JUMPDEST \t\t\t\"to=0\");\\n        uint256 bal ...\n      PUSH 60\t\t\tlance;\\n      \n      PUSH 4\t\t\t\"empty\"\n      DUP1 \t\t\tl > 0, \"empty\"\n      SLOAD \t\t\tl > 0, \"empty\"\n      PUSH [tag] 179\t\t\tl > 0, \"empty\"\n      SWAP1 \t\t\tl > 0, \"empty\"\n      PUSH [tag] 127\t\t\tl > 0, \"empty\"\n      JUMP \t\t\tl > 0, \"empty\"\n    tag 179\t\t\tl > 0, \"empty\"\n      JUMPDEST \t\t\tl > 0, \"empty\"\n      DUP1 \t\t\tl > 0, \"empty\"\n      PUSH 1F\t\t\tl > 0, \"empty\"\n      ADD \t\t\tl > 0, \"empty\"\n      PUSH 20\t\t\tl > 0, \"empty\"\n      DUP1 \t\t\tl > 0, \"empty\"\n      SWAP2 \t\t\tl > 0, \"empty\"\n      DIV \t\t\tl > 0, \"empty\"\n      MUL \t\t\tl > 0, \"empty\"\n      PUSH 20\t\t\tl > 0, \"empty\"\n      ADD \t\t\tl > 0, \"empty\"\n      PUSH 40\t\t\tl > 0, \"empty\"\n      MLOAD \t\t\tl > 0, \"empty\"\n      SWAP1 \t\t\tl > 0, \"empty\"\n      DUP2 \t\t\tl > 0, \"empty\"\n      ADD \t\t\tl > 0, \"empty\"\n      PUSH 40\t\t\tl > 0, \"empty\"\n      MSTORE \t\t\tl > 0, \"empty\"\n      DUP1 \t\t\tl > 0, \"empty\"\n      SWAP3 \t\t\tl > 0, \"empty\"\n      SWAP2 \t\t\tl > 0, \"empty\"\n      SWAP1 \t\t\tl > 0, \"empty\"\n      DUP2 \t\t\tl > 0, \"empty\"\n      DUP2 \t\t\tl > 0, \"empty\"\n      MSTORE \t\t\tl > 0, \"empty\"\n      PUSH 20\t\t\tl > 0, \"empty\"\n      ADD \t\t\tl > 0, \"empty\"\n      DUP3 \t\t\tl > 0, \"empty\"\n      DUP1 \t\t\tl > 0, \"empty\"\n      SLOAD \t\t\tl > 0, \"empty\"\n      PUSH [tag] 180\t\t\tl > 0, \"empty\"\n      SWAP1 \t\t\tl > 0, \"empty\"\n      PUSH [tag] 127\t\t\tl > 0, \"empty\"\n      JUMP \t\t\tl > 0, \"empty\"\n    tag 180\t\t\tl > 0, \"empty\"\n      JUMPDEST \t\t\tl > 0, \"empty\"\n      DUP1 \t\t\tl > 0, \"empty\"\n      ISZERO \t\t\tl > 0, \"empty\"\n      PUSH [tag] 181\t\t\tl > 0, \"empty\"\n      JUMPI \t\t\tl > 0, \"empty\"\n      DUP1 \t\t\tl > 0, \"empty\"\n      PUSH 1F\t\t\tl > 0, \"empty\"\n      LT \t\t\tl > 0, \"empty\"\n      PUSH [tag] 182\t\t\tl > 0, \"empty\"\n      JUMPI \t\t\tl > 0, \"empty\"\n      PUSH 100\t\t\tl > 0, \"empty\"\n      DUP1 \t\t\tl > 0, \"empty\"\n      DUP4 \t\t\tl > 0, \"empty\"\n      SLOAD \t\t\tl > 0, \"empty\"\n      DIV \t\t\tl > 0, \"empty\"\n      MUL \t\t\tl > 0, \"empty\"\n      DUP4 \t\t\tl > 0, \"empty\"\n      MSTORE \t\t\tl > 0, \"empty\"\n      SWAP2 \t\t\tl > 0, \"empty\"\n      PUSH 20\t\t\tl > 0, \"empty\"\n      ADD \t\t\tl > 0, \"empty\"\n      SWAP2 \t\t\tl > 0, \"empty\"\n      PUSH [tag] 181\t\t\tl > 0, \"empty\"\n      JUMP \t\t\tl > 0, \"empty\"\n    tag 182\t\t\tl > 0, \"empty\"\n      JUMPDEST \t\t\tl > 0, \"empty\"\n      DUP3 \t\t\tl > 0, \"empty\"\n      ADD \t\t\tl > 0, \"empty\"\n      SWAP2 \t\t\tl > 0, \"empty\"\n      SWAP1 \t\t\tl > 0, \"empty\"\n      PUSH 0\t\t\tl > 0, \"empty\"\n      MSTORE \t\t\tl > 0, \"empty\"\n      PUSH 20\t\t\tl > 0, \"empty\"\n      PUSH 0\t\t\tl > 0, \"empty\"\n      KECCAK256 \t\t\tl > 0, \"empty\"\n      SWAP1 \t\t\tl > 0, \"empty\"\n    tag 183\t\t\tl > 0, \"empty\"\n      JUMPDEST \t\t\tl > 0, \"empty\"\n      DUP2 \t\t\tl > 0, \"empty\"\n      SLOAD \t\t\tl > 0, \"empty\"\n      DUP2 \t\t\tl > 0, \"empty\"\n      MSTORE \t\t\tl > 0, \"empty\"\n      SWAP1 \t\t\tl > 0, \"empty\"\n      PUSH 1\t\t\tl > 0, \"empty\"\n      ADD \t\t\tl > 0, \"empty\"\n      SWAP1 \t\t\tl > 0, \"empty\"\n      PUSH 20\t\t\tl > 0, \"empty\"\n      ADD \t\t\tl > 0, \"empty\"\n      DUP1 \t\t\tl > 0, \"empty\"\n      DUP4 \t\t\tl > 0, \"empty\"\n      GT \t\t\tl > 0, \"empty\"\n      PUSH [tag] 183\t\t\tl > 0, \"empty\"\n      JUMPI \t\t\tl > 0, \"empty\"\n      DUP3 \t\t\tl > 0, \"empty\"\n      SWAP1 \t\t\tl > 0, \"empty\"\n      SUB \t\t\tl > 0, \"empty\"\n      PUSH 1F\t\t\tl > 0, \"empty\"\n      AND \t\t\tl > 0, \"empty\"\n      DUP3 \t\t\tl > 0, \"empty\"\n      ADD \t\t\tl > 0, \"empty\"\n      SWAP2 \t\t\tl > 0, \"empty\"\n    tag 181\t\t\tl > 0, \"empty\"\n      JUMPDEST \t\t\tl > 0, \"empty\"\n      POP \t\t\tl > 0, \"empty\"\n      POP \t\t\tl > 0, \"empty\"\n      POP \t\t\tl > 0, \"empty\"\n      POP \t\t\tl > 0, \"empty\"\n      POP \t\t\tl > 0, \"empty\"\n      SWAP1 \t\t\tl > 0, \"empty\"\n      POP \t\t\tl > 0, \"empty\"\n      SWAP1 \t\t\t\"to=0\");\\n        uint256 bal ...\n      JUMP \t\t\t\"to=0\");\\n        uint256 bal ...\n    tag 85\t\t\t\n      JUMPDEST \t\t\t\n      PUSH 0\t\t\t\n      PUSH 0\t\t\t\n      PUSH [tag] 185\t\t\t\n      PUSH [tag] 134\t\t\t\n      JUMP \t\t\t\n    tag 185\t\t\t\n      JUMPDEST \t\t\t\n      SWAP1 \t\t\t\n      POP \t\t\t\n      PUSH [tag] 186\t\t\t\n      DUP2 \t\t\t\n      DUP6 \t\t\t\n      DUP6 \t\t\t\n      PUSH [tag] 143\t\t\t\n      JUMP \t\t\t\n    tag 186\t\t\t\n      JUMPDEST \t\t\t\n      PUSH 1\t\t\t\n      SWAP2 \t\t\t\n      POP \t\t\t\n      POP \t\t\t\n      SWAP3 \t\t\t\n      SWAP2 \t\t\t\n      POP \t\t\t\n      POP \t\t\t\n      JUMP \t\t\t\n    tag 90\t\t\tint256 public priceWeiPerToken...\n      JUMPDEST \t\t\tint256 public priceWeiPerToken...\n      PUSH 7\t\t\tint256 public priceWeiPerToken...\n      SLOAD \t\t\tint256 public priceWeiPerToken...\n      DUP2 \t\t\tint256 public priceWeiPerToken...\n      JUMP \t\t\tint256 public priceWeiPerToken...\n    tag 96\t\t\t\n      JUMPDEST \t\t\t\n      PUSH 0\t\t\t\n      PUSH 1\t\t\t\n      PUSH 0\t\t\t\n      DUP5 \t\t\t\n      PUSH FFFFFFFFFFFFFFFFFFFFFFFFFFFFFFFFFFFFFFFF\t\t\t\n      AND \t\t\t\n      PUSH FFFFFFFFFFFFFFFFFFFFFFFFFFFFFFFFFFFFFFFF\t\t\t\n      AND \t\t\t\n      DUP2 \t\t\t\n      MSTORE \t\t\t\n      PUSH 20\t\t\t\n      ADD \t\t\t\n      SWAP1 \t\t\t\n      DUP2 \t\t\t\n      MSTORE \t\t\t\n      PUSH 20\t\t\t\n      ADD \t\t\t\n      PUSH 0\t\t\t\n      KECCAK256 \t\t\t\n      PUSH 0\t\t\t\n      DUP4 \t\t\t\n      PUSH FFFFFFFFFFFFFFFFFFFFFFFFFFFFFFFFFFFFFFFF\t\t\t\n      AND \t\t\t\n      PUSH FFFFFFFFFFFFFFFFFFFFFFFFFFFFFFFFFFFFFFFF\t\t\t\n      AND \t\t\t\n      DUP2 \t\t\t\n      MSTORE \t\t\t\n      PUSH 20\t\t\t\n      ADD \t\t\t\n      SWAP1 \t\t\t\n      DUP2 \t\t\t\n      MSTORE \t\t\t\n      PUSH 20\t\t\t\n      ADD \t\t\t\n      PUSH 0\t\t\t\n      KECCAK256 \t\t\t\n      SLOAD \t\t\t\n      SWAP1 \t\t\t\n      POP \t\t\t\n      SWAP3 \t\t\t\n      SWAP2 \t\t\t\n      POP \t\t\t\n      POP \t\t\t\n      JUMP \t\t\t\n    tag 101\t\t\t\n      JUMPDEST \t\t\t\n      PUSH [tag] 189\t\t\thased(msg.sen\n      PUSH [tag] 147\t\t\thased(msg.s\n      JUMP \t\t\thased(msg.sen\n    tag 189\t\t\thased(msg.sen\n      JUMPDEST \t\t\thased(msg.sen\n      PUSH 0\t\t\t\n      PUSH FFFFFFFFFFFFFFFFFFFFFFFFFFFFFFFFFFFFFFFF\t\t\t\n      AND \t\t\t\n      DUP2 \t\t\t\n      PUSH FFFFFFFFFFFFFFFFFFFFFFFFFFFFFFFFFFFFFFFF\t\t\t\n      AND \t\t\t\n      SUB \t\t\t\n      PUSH [tag] 191\t\t\t\n      JUMPI \t\t\t\n      PUSH 0\t\t\t\n      PUSH 40\t\t\t\n      MLOAD \t\t\t\n      PUSH 1E4FBDF700000000000000000000000000000000000000000000000000000000\t\t\t\n      DUP2 \t\t\t\n      MSTORE \t\t\t\n      PUSH 4\t\t\t\n      ADD \t\t\t\n      PUSH [tag] 192\t\t\t\n      SWAP2 \t\t\t\n      SWAP1 \t\t\t\n      PUSH [tag] 77\t\t\t\n      JUMP \t\t\t\n    tag 192\t\t\t\n      JUMPDEST \t\t\t\n      PUSH 40\t\t\t\n      MLOAD \t\t\t\n      DUP1 \t\t\t\n      SWAP2 \t\t\t\n      SUB \t\t\t\n      SWAP1 \t\t\t\n      REVERT \t\t\t\n    tag 191\t\t\t\n      JUMPDEST \t\t\t\n      PUSH [tag] 193\t\t\t\n      DUP2 \t\t\t\n      PUSH [tag] 176\t\t\t\n      JUMP \t\t\t\n    tag 193\t\t\t\n      JUMPDEST \t\t\t\n      POP \t\t\t\n      JUMP \t\t\t\n    tag 104\t\t\t\n      JUMPDEST \t\t\t\n      PUSH 2\t\t\tb\n      PUSH 6\t\t\t\n      SLOAD \t\t\t\n      SUB \t\t\t\n      PUSH [tag] 195\t\t\t\n      JUMPI \t\t\t\n      PUSH 40\t\t\t\n      MLOAD \t\t\t\n      PUSH 3EE5AEB500000000000000000000000000000000000000000000000000000000\t\t\t\n      DUP2 \t\t\t\n      MSTORE \t\t\t\n      PUSH 4\t\t\t\n      ADD \t\t\t\n      PUSH 40\t\t\t\n      MLOAD \t\t\t\n      DUP1 \t\t\t\n      SWAP2 \t\t\t\n      SUB \t\t\t\n      SWAP1 \t\t\t\n      REVERT \t\t\t\n    tag 195\t\t\t\n      JUMPDEST \t\t\t\n      PUSH 2\t\t\tb\n      PUSH 6\t\t\t\n      DUP2 \t\t\t\n      SWAP1 \t\t\t\n      SSTORE \t\t\t\n      POP \t\t\t\n      JUMP \t\t\t\n    tag 120\t\t\t\n      JUMPDEST \t\t\t\n      PUSH 0\t\t\t\n      PUSH FFFFFFFFFFFFFFFFFFFFFFFFFFFFFFFFFFFFFFFF\t\t\t\n      AND \t\t\t\n      DUP3 \t\t\t\n      PUSH FFFFFFFFFFFFFFFFFFFFFFFFFFFFFFFFFFFFFFFF\t\t\t\n      AND \t\t\t\n      SUB \t\t\t\n      PUSH [tag] 197\t\t\t\n      JUMPI \t\t\t\n      PUSH 0\t\t\t\n      PUSH 40\t\t\t\n      MLOAD \t\t\t\n      PUSH EC442F0500000000000000000000000000000000000000000000000000000000\t\t\t\n      DUP2 \t\t\t\n      MSTORE \t\t\t\n      PUSH 4\t\t\t\n      ADD \t\t\t\n      PUSH [tag] 198\t\t\t\n      SWAP2 \t\t\t\n      SWAP1 \t\t\t\n      PUSH [tag] 77\t\t\t\n      JUMP \t\t\t\n    tag 198\t\t\t\n      JUMPDEST \t\t\t\n      PUSH 40\t\t\t\n      MLOAD \t\t\t\n      DUP1 \t\t\t\n      SWAP2 \t\t\t\n      SUB \t\t\t\n      SWAP1 \t\t\t\n      REVERT \t\t\t\n    tag 197\t\t\t\n      JUMPDEST \t\t\t\n      PUSH [tag] 199\t\t\t\n      PUSH 0\t\t\t\n      DUP4 \t\t\t\n      DUP4 \t\t\t\n      PUSH [tag] 200\t\t\t\n      JUMP \t\t\t\n    tag 199\t\t\t\n      JUMPDEST \t\t\t\n      POP \t\t\t\n      POP \t\t\t\n      JUMP \t\t\t\n    tag 124\t\t\t\n      JUMPDEST \t\t\t\n      PUSH 1\t\t\tc\n      PUSH 6\t\t\t\n      DUP2 \t\t\t\n      SWAP1 \t\t\t\n      SSTORE \t\t\t\n      POP \t\t\t\n      JUMP \t\t\t\n    tag 134\t\t\tthdraw(): retira el ETH acumul...\n      JUMPDEST \t\t\tthdraw(): retira el ETH acumul...\n      PUSH 0\t\t\ttokensO\n      CALLER \t\t\te18) / pri\n      SWAP1 \t\t\tlue * 1e18) / pri\n      POP \t\t\tlue * 1e18) / pri\n      SWAP1 \t\t\tthdraw(): retira el ETH acumul...\n      JUMP \t\t\tthdraw(): retira el ETH acumul...\n    tag 136\t\t\t\n      JUMPDEST \t\t\t\n      PUSH [tag] 204\t\t\t\n      DUP4 \t\t\t\n      DUP4 \t\t\t\n      DUP4 \t\t\t\n      PUSH 1\t\t\t\n      PUSH [tag] 205\t\t\t\n      JUMP \t\t\t\n    tag 204\t\t\t\n      JUMPDEST \t\t\t\n      POP \t\t\t\n      POP \t\t\t\n      POP \t\t\t\n      JUMP \t\t\t\n    tag 141\t\t\t\n      JUMPDEST \t\t\t\n      PUSH 0\t\t\t\n      PUSH [tag] 207\t\t\t\n      DUP5 \t\t\t\n      DUP5 \t\t\t\n      PUSH [tag] 96\t\t\t\n      JUMP \t\t\t\n    tag 207\t\t\t\n      JUMPDEST \t\t\t\n      SWAP1 \t\t\t\n      POP \t\t\t\n      PUSH FFFFFFFFFFFFFFFFFFFFFFFFFFFFFFFFFFFFFFFFFFFFFFFFFFFFFFFFFFFFFFFF\t\t\t\n      DUP2 \t\t\t\n      LT \t\t\t\n      ISZERO \t\t\t\n      PUSH [tag] 208\t\t\t\n      JUMPI \t\t\t\n      DUP2 \t\t\t\n      DUP2 \t\t\t\n      LT \t\t\t\n      ISZERO \t\t\t\n      PUSH [tag] 209\t\t\t\n      JUMPI \t\t\t\n      DUP3 \t\t\t\n      DUP2 \t\t\t\n      DUP4 \t\t\t\n      PUSH 40\t\t\t\n      MLOAD \t\t\t\n      PUSH FB8F41B200000000000000000000000000000000000000000000000000000000\t\t\t\n      DUP2 \t\t\t\n      MSTORE \t\t\t\n      PUSH 4\t\t\t\n      ADD \t\t\t\n      PUSH [tag] 210\t\t\t\n      SWAP4 \t\t\t\n      SWAP3 \t\t\t\n      SWAP2 \t\t\t\n      SWAP1 \t\t\t\n      PUSH [tag] 211\t\t\t\n      JUMP \t\t\t\n    tag 210\t\t\t\n      JUMPDEST \t\t\t\n      PUSH 40\t\t\t\n      MLOAD \t\t\t\n      DUP1 \t\t\t\n      SWAP2 \t\t\t\n      SUB \t\t\t\n      SWAP1 \t\t\t\n      REVERT \t\t\t\n    tag 209\t\t\t\n      JUMPDEST \t\t\t\n      PUSH [tag] 212\t\t\t\n      DUP5 \t\t\t\n      DUP5 \t\t\t\n      DUP5 \t\t\t\n      DUP5 \t\t\t\n      SUB \t\t\t\n      PUSH 0\t\t\t\n      PUSH [tag] 205\t\t\t\n      JUMP \t\t\t\n    tag 212\t\t\t\n      JUMPDEST \t\t\t\n    tag 208\t\t\t\n      JUMPDEST \t\t\t\n      POP \t\t\t\n      POP \t\t\t\n      POP \t\t\t\n      POP \t\t\t\n      JUMP \t\t\t\n    tag 143\t\t\t\n      JUMPDEST \t\t\t\n      PUSH 0\t\t\t\n      PUSH FFFFFFFFFFFFFFFFFFFFFFFFFFFFFFFFFFFFFFFF\t\t\t\n      AND \t\t\t\n      DUP4 \t\t\t\n      PUSH FFFFFFFFFFFFFFFFFFFFFFFFFFFFFFFFFFFFFFFF\t\t\t\n      AND \t\t\t\n      SUB \t\t\t\n      PUSH [tag] 214\t\t\t\n      JUMPI \t\t\t\n      PUSH 0\t\t\t\n      PUSH 40\t\t\t\n      MLOAD \t\t\t\n      PUSH 96C6FD1E00000000000000000000000000000000000000000000000000000000\t\t\t\n      DUP2 \t\t\t\n      MSTORE \t\t\t\n      PUSH 4\t\t\t\n      ADD \t\t\t\n      PUSH [tag] 215\t\t\t\n      SWAP2 \t\t\t\n      SWAP1 \t\t\t\n      PUSH [tag] 77\t\t\t\n      JUMP \t\t\t\n    tag 215\t\t\t\n      JUMPDEST \t\t\t\n      PUSH 40\t\t\t\n      MLOAD \t\t\t\n      DUP1 \t\t\t\n      SWAP2 \t\t\t\n      SUB \t\t\t\n      SWAP1 \t\t\t\n      REVERT \t\t\t\n    tag 214\t\t\t\n      JUMPDEST \t\t\t\n      PUSH 0\t\t\t\n      PUSH FFFFFFFFFFFFFFFFFFFFFFFFFFFFFFFFFFFFFFFF\t\t\t\n      AND \t\t\t\n      DUP3 \t\t\t\n      PUSH FFFFFFFFFFFFFFFFFFFFFFFFFFFFFFFFFFFFFFFF\t\t\t\n      AND \t\t\t\n      SUB \t\t\t\n      PUSH [tag] 216\t\t\t\n      JUMPI \t\t\t\n      PUSH 0\t\t\t\n      PUSH 40\t\t\t\n      MLOAD \t\t\t\n      PUSH EC442F0500000000000000000000000000000000000000000000000000000000\t\t\t\n      DUP2 \t\t\t\n      MSTORE \t\t\t\n      PUSH 4\t\t\t\n      ADD \t\t\t\n      PUSH [tag] 217\t\t\t\n      SWAP2 \t\t\t\n      SWAP1 \t\t\t\n      PUSH [tag] 77\t\t\t\n      JUMP \t\t\t\n    tag 217\t\t\t\n      JUMPDEST \t\t\t\n      PUSH 40\t\t\t\n      MLOAD \t\t\t\n      DUP1 \t\t\t\n      SWAP2 \t\t\t\n      SUB \t\t\t\n      SWAP1 \t\t\t\n      REVERT \t\t\t\n    tag 216\t\t\t\n      JUMPDEST \t\t\t\n      PUSH [tag] 218\t\t\t\n      DUP4 \t\t\t\n      DUP4 \t\t\t\n      DUP4 \t\t\t\n      PUSH [tag] 200\t\t\t\n      JUMP \t\t\t\n    tag 218\t\t\t\n      JUMPDEST \t\t\t\n      POP \t\t\t\n      POP \t\t\t\n      POP \t\t\t\n      JUMP \t\t\t\n    tag 147\t\t\tceUpdated(newPrice);\\n    }\\n\\...\n      JUMPDEST \t\t\tceUpdated(newPrice);\\n    }\\n\\...\n      PUSH [tag] 220\t\t\t   function \n      PUSH [tag] 134\t\t\t   functio\n      JUMP \t\t\t   function \n    tag 220\t\t\t   function \n      JUMPDEST \t\t\t   function \n      PUSH FFFFFFFFFFFFFFFFFFFFFFFFFFFFFFFFFFFFFFFF\t\t\trecaudado\\n    function \n      AND \t\t\trecaudado\\n    function \n      PUSH [tag] 221\t\t\trecauda\n      PUSH [tag] 75\t\t\trecau\n      JUMP \t\t\trecauda\n    tag 221\t\t\trecauda\n      JUMPDEST \t\t\trecauda\n      PUSH FFFFFFFFFFFFFFFFFFFFFFFFFFFFFFFFFFFFFFFF\t\t\trecaudado\\n    function \n      AND \t\t\trecaudado\\n    function \n      EQ \t\t\trecaudado\\n    function \n      PUSH [tag] 222\t\t\tETH recaudado\\n    function wi...\n      JUMPI \t\t\tETH recaudado\\n    function wi...\n      PUSH [tag] 223\t\t\t        requ\n      PUSH [tag] 134\t\t\t        re\n      JUMP \t\t\t        requ\n    tag 223\t\t\t        requ\n      JUMPDEST \t\t\t        requ\n      PUSH 40\t\t\te to) external onlyOwner {\\n  ...\n      MLOAD \t\t\te to) external onlyOwner {\\n  ...\n      PUSH 118CDAA700000000000000000000000000000000000000000000000000000000\t\t\te to) external onlyOwner {\\n  ...\n      DUP2 \t\t\te to) external onlyOwner {\\n  ...\n      MSTORE \t\t\te to) external onlyOwner {\\n  ...\n      PUSH 4\t\t\te to) external onlyOwner {\\n  ...\n      ADD \t\t\te to) external onlyOwner {\\n  ...\n      PUSH [tag] 224\t\t\te to) external onlyOwner {\\n  ...\n      SWAP2 \t\t\te to) external onlyOwner {\\n  ...\n      SWAP1 \t\t\te to) external onlyOwner {\\n  ...\n      PUSH [tag] 77\t\t\te to) external onlyOwner {\\n  ...\n      JUMP \t\t\te to) external onlyOwner {\\n  ...\n    tag 224\t\t\te to) external onlyOwner {\\n  ...\n      JUMPDEST \t\t\te to) external onlyOwner {\\n  ...\n      PUSH 40\t\t\te to) external onlyOwner {\\n  ...\n      MLOAD \t\t\te to) external onlyOwner {\\n  ...\n      DUP1 \t\t\te to) external onlyOwner {\\n  ...\n      SWAP2 \t\t\te to) external onlyOwner {\\n  ...\n      SUB \t\t\te to) external onlyOwner {\\n  ...\n      SWAP1 \t\t\te to) external onlyOwner {\\n  ...\n      REVERT \t\t\te to) external onlyOwner {\\n  ...\n    tag 222\t\t\tETH recaudado\\n    function wi...\n      JUMPDEST \t\t\tETH recaudado\\n    function wi...\n      JUMP \t\t\tceUpdated(newPrice);\\n    }\\n\\...\n    tag 176\t\t\t\n      JUMPDEST \t\t\t\n      PUSH 0\t\t\t\n      PUSH 5\t\t\t\n      PUSH 0\t\t\t\n      SWAP1 \t\t\t\n      SLOAD \t\t\t\n      SWAP1 \t\t\t\n      PUSH 100\t\t\t\n      EXP \t\t\t\n      SWAP1 \t\t\t\n      DIV \t\t\t\n      PUSH FFFFFFFFFFFFFFFFFFFFFFFFFFFFFFFFFFFFFFFF\t\t\t\n      AND \t\t\t\n      SWAP1 \t\t\t\n      POP \t\t\t\n      DUP2 \t\t\t\n      PUSH 5\t\t\t\n      PUSH 0\t\t\t\n      PUSH 100\t\t\t\n      EXP \t\t\t\n      DUP2 \t\t\t\n      SLOAD \t\t\t\n      DUP2 \t\t\t\n      PUSH FFFFFFFFFFFFFFFFFFFFFFFFFFFFFFFFFFFFFFFF\t\t\t\n      MUL \t\t\t\n      NOT \t\t\t\n      AND \t\t\t\n      SWAP1 \t\t\t\n      DUP4 \t\t\t\n      PUSH FFFFFFFFFFFFFFFFFFFFFFFFFFFFFFFFFFFFFFFF\t\t\t\n      AND \t\t\t\n      MUL \t\t\t\n      OR \t\t\t\n      SWAP1 \t\t\t\n      SSTORE \t\t\t\n      POP \t\t\t\n      DUP2 \t\t\t\n      PUSH FFFFFFFFFFFFFFFFFFFFFFFFFFFFFFFFFFFFFFFF\t\t\t\n      AND \t\t\t\n      DUP2 \t\t\t\n      PUSH FFFFFFFFFFFFFFFFFFFFFFFFFFFFFFFFFFFFFFFF\t\t\t\n      AND \t\t\t\n      PUSH 8BE0079C531659141344CD1FD0A4F28419497F9722A3DAAFE3B4186F6B6457E0\t\t\t\n      PUSH 40\t\t\t\n      MLOAD \t\t\t\n      PUSH 40\t\t\t\n      MLOAD \t\t\t\n      DUP1 \t\t\t\n      SWAP2 \t\t\t\n      SUB \t\t\t\n      SWAP1 \t\t\t\n      LOG3 \t\t\t\n      POP \t\t\t\n      POP \t\t\t\n      JUMP \t\t\t\n    tag 200\t\t\t\n      JUMPDEST \t\t\t\n      PUSH 0\t\t\t\n      PUSH FFFFFFFFFFFFFFFFFFFFFFFFFFFFFFFFFFFFFFFF\t\t\t\n      AND \t\t\t\n      DUP4 \t\t\t\n      PUSH FFFFFFFFFFFFFFFFFFFFFFFFFFFFFFFFFFFFFFFF\t\t\t\n      AND \t\t\t\n      SUB \t\t\t\n      PUSH [tag] 227\t\t\t\n      JUMPI \t\t\t\n      DUP1 \t\t\t\n      PUSH 2\t\t\t\n      PUSH 0\t\t\t\n      DUP3 \t\t\t\n      DUP3 \t\t\t\n      SLOAD \t\t\t\n      PUSH [tag] 228\t\t\t\n      SWAP2 \t\t\t\n      SWAP1 \t\t\t\n      PUSH [tag] 229\t\t\t\n      JUMP \t\t\t\n    tag 228\t\t\t\n      JUMPDEST \t\t\t\n      SWAP3 \t\t\t\n      POP \t\t\t\n      POP \t\t\t\n      DUP2 \t\t\t\n      SWAP1 \t\t\t\n      SSTORE \t\t\t\n      POP \t\t\t\n      PUSH [tag] 230\t\t\t\n      JUMP \t\t\t\n    tag 227\t\t\t\n      JUMPDEST \t\t\t\n      PUSH 0\t\t\t\n      PUSH 0\t\t\t\n      PUSH 0\t\t\t\n      DUP6 \t\t\t\n      PUSH FFFFFFFFFFFFFFFFFFFFFFFFFFFFFFFFFFFFFFFF\t\t\t\n      AND \t\t\t\n      PUSH FFFFFFFFFFFFFFFFFFFFFFFFFFFFFFFFFFFFFFFF\t\t\t\n      AND \t\t\t\n      DUP2 \t\t\t\n      MSTORE \t\t\t\n      PUSH 20\t\t\t\n      ADD \t\t\t\n      SWAP1 \t\t\t\n      DUP2 \t\t\t\n      MSTORE \t\t\t\n      PUSH 20\t\t\t\n      ADD \t\t\t\n      PUSH 0\t\t\t\n      KECCAK256 \t\t\t\n      SLOAD \t\t\t\n      SWAP1 \t\t\t\n      POP \t\t\t\n      DUP2 \t\t\t\n      DUP2 \t\t\t\n      LT \t\t\t\n      ISZERO \t\t\t\n      PUSH [tag] 231\t\t\t\n      JUMPI \t\t\t\n      DUP4 \t\t\t\n      DUP2 \t\t\t\n      DUP4 \t\t\t\n      PUSH 40\t\t\t\n      MLOAD \t\t\t\n      PUSH E450D38C00000000000000000000000000000000000000000000000000000000\t\t\t\n      DUP2 \t\t\t\n      MSTORE \t\t\t\n      PUSH 4\t\t\t\n      ADD \t\t\t\n      PUSH [tag] 232\t\t\t\n      SWAP4 \t\t\t\n      SWAP3 \t\t\t\n      SWAP2 \t\t\t\n      SWAP1 \t\t\t\n      PUSH [tag] 211\t\t\t\n      JUMP \t\t\t\n    tag 232\t\t\t\n      JUMPDEST \t\t\t\n      PUSH 40\t\t\t\n      MLOAD \t\t\t\n      DUP1 \t\t\t\n      SWAP2 \t\t\t\n      SUB \t\t\t\n      SWAP1 \t\t\t\n      REVERT \t\t\t\n    tag 231\t\t\t\n      JUMPDEST \t\t\t\n      DUP2 \t\t\t\n      DUP2 \t\t\t\n      SUB \t\t\t\n      PUSH 0\t\t\t\n      PUSH 0\t\t\t\n      DUP7 \t\t\t\n      PUSH FFFFFFFFFFFFFFFFFFFFFFFFFFFFFFFFFFFFFFFF\t\t\t\n      AND \t\t\t\n      PUSH FFFFFFFFFFFFFFFFFFFFFFFFFFFFFFFFFFFFFFFF\t\t\t\n      AND \t\t\t\n      DUP2 \t\t\t\n      MSTORE \t\t\t\n      PUSH 20\t\t\t\n      ADD \t\t\t\n      SWAP1 \t\t\t\n      DUP2 \t\t\t\n      MSTORE \t\t\t\n      PUSH 20\t\t\t\n      ADD \t\t\t\n      PUSH 0\t\t\t\n      KECCAK256 \t\t\t\n      DUP2 \t\t\t\n      SWAP1 \t\t\t\n      SSTORE \t\t\t\n      POP \t\t\t\n      POP \t\t\t\n    tag 230\t\t\t\n      JUMPDEST \t\t\t\n      PUSH 0\t\t\t\n      PUSH FFFFFFFFFFFFFFFFFFFFFFFFFFFFFFFFFFFFFFFF\t\t\t\n      AND \t\t\t\n      DUP3 \t\t\t\n      PUSH FFFFFFFFFFFFFFFFFFFFFFFFFFFFFFFFFFFFFFFF\t\t\t\n      AND \t\t\t\n      SUB \t\t\t\n      PUSH [tag] 233\t\t\t\n      JUMPI \t\t\t\n      DUP1 \t\t\t\n      PUSH 2\t\t\t\n      PUSH 0\t\t\t\n      DUP3 \t\t\t\n      DUP3 \t\t\t\n      SLOAD \t\t\t\n      SUB \t\t\t\n      SWAP3 \t\t\t\n      POP \t\t\t\n      POP \t\t\t\n      DUP2 \t\t\t\n      SWAP1 \t\t\t\n      SSTORE \t\t\t\n      POP \t\t\t\n      PUSH [tag] 234\t\t\t\n      JUMP \t\t\t\n    tag 233\t\t\t\n      JUMPDEST \t\t\t\n      DUP1 \t\t\t\n      PUSH 0\t\t\t\n      PUSH 0\t\t\t\n      DUP5 \t\t\t\n      PUSH FFFFFFFFFFFFFFFFFFFFFFFFFFFFFFFFFFFFFFFF\t\t\t\n      AND \t\t\t\n      PUSH FFFFFFFFFFFFFFFFFFFFFFFFFFFFFFFFFFFFFFFF\t\t\t\n      AND \t\t\t\n      DUP2 \t\t\t\n      MSTORE \t\t\t\n      PUSH 20\t\t\t\n      ADD \t\t\t\n      SWAP1 \t\t\t\n      DUP2 \t\t\t\n      MSTORE \t\t\t\n      PUSH 20\t\t\t\n      ADD \t\t\t\n      PUSH 0\t\t\t\n      KECCAK256 \t\t\t\n      PUSH 0\t\t\t\n      DUP3 \t\t\t\n      DUP3 \t\t\t\n      SLOAD \t\t\t\n      ADD \t\t\t\n      SWAP3 \t\t\t\n      POP \t\t\t\n      POP \t\t\t\n      DUP2 \t\t\t\n      SWAP1 \t\t\t\n      SSTORE \t\t\t\n      POP \t\t\t\n    tag 234\t\t\t\n      JUMPDEST \t\t\t\n      DUP2 \t\t\t\n      PUSH FFFFFFFFFFFFFFFFFFFFFFFFFFFFFFFFFFFFFFFF\t\t\t\n      AND \t\t\t\n      DUP4 \t\t\t\n      PUSH FFFFFFFFFFFFFFFFFFFFFFFFFFFFFFFFFFFFFFFF\t\t\t\n      AND \t\t\t\n      PUSH DDF252AD1BE2C89B69C2B068FC378DAA952BA7F163C4A11628F55A4DF523B3EF\t\t\t\n      DUP4 \t\t\t\n      PUSH 40\t\t\t\n      MLOAD \t\t\t\n      PUSH [tag] 235\t\t\t\n      SWAP2 \t\t\t\n      SWAP1 \t\t\t\n      PUSH [tag] 42\t\t\t\n      JUMP \t\t\t\n    tag 235\t\t\t\n      JUMPDEST \t\t\t\n      PUSH 40\t\t\t\n      MLOAD \t\t\t\n      DUP1 \t\t\t\n      SWAP2 \t\t\t\n      SUB \t\t\t\n      SWAP1 \t\t\t\n      LOG3 \t\t\t\n      POP \t\t\t\n      POP \t\t\t\n      POP \t\t\t\n      JUMP \t\t\t\n    tag 205\t\t\t\n      JUMPDEST \t\t\t\n      PUSH 0\t\t\t\n      PUSH FFFFFFFFFFFFFFFFFFFFFFFFFFFFFFFFFFFFFFFF\t\t\t\n      AND \t\t\t\n      DUP5 \t\t\t\n      PUSH FFFFFFFFFFFFFFFFFFFFFFFFFFFFFFFFFFFFFFFF\t\t\t\n      AND \t\t\t\n      SUB \t\t\t\n      PUSH [tag] 237\t\t\t\n      JUMPI \t\t\t\n      PUSH 0\t\t\t\n      PUSH 40\t\t\t\n      MLOAD \t\t\t\n      PUSH E602DF0500000000000000000000000000000000000000000000000000000000\t\t\t\n      DUP2 \t\t\t\n      MSTORE \t\t\t\n      PUSH 4\t\t\t\n      ADD \t\t\t\n      PUSH [tag] 238\t\t\t\n      SWAP2 \t\t\t\n      SWAP1 \t\t\t\n      PUSH [tag] 77\t\t\t\n      JUMP \t\t\t\n    tag 238\t\t\t\n      JUMPDEST \t\t\t\n      PUSH 40\t\t\t\n      MLOAD \t\t\t\n      DUP1 \t\t\t\n      SWAP2 \t\t\t\n      SUB \t\t\t\n      SWAP1 \t\t\t\n      REVERT \t\t\t\n    tag 237\t\t\t\n      JUMPDEST \t\t\t\n      PUSH 0\t\t\t\n      PUSH FFFFFFFFFFFFFFFFFFFFFFFFFFFFFFFFFFFFFFFF\t\t\t\n      AND \t\t\t\n      DUP4 \t\t\t\n      PUSH FFFFFFFFFFFFFFFFFFFFFFFFFFFFFFFFFFFFFFFF\t\t\t\n      AND \t\t\t\n      SUB \t\t\t\n      PUSH [tag] 239\t\t\t\n      JUMPI \t\t\t\n      PUSH 0\t\t\t\n      PUSH 40\t\t\t\n      MLOAD \t\t\t\n      PUSH 94280D6200000000000000000000000000000000000000000000000000000000\t\t\t\n      DUP2 \t\t\t\n      MSTORE \t\t\t\n      PUSH 4\t\t\t\n      ADD \t\t\t\n      PUSH [tag] 240\t\t\t\n      SWAP2 \t\t\t\n      SWAP1 \t\t\t\n      PUSH [tag] 77\t\t\t\n      JUMP \t\t\t\n    tag 240\t\t\t\n      JUMPDEST \t\t\t\n      PUSH 40\t\t\t\n      MLOAD \t\t\t\n      DUP1 \t\t\t\n      SWAP2 \t\t\t\n      SUB \t\t\t\n      SWAP1 \t\t\t\n      REVERT \t\t\t\n    tag 239\t\t\t\n      JUMPDEST \t\t\t\n      DUP2 \t\t\t\n      PUSH 1\t\t\t\n      PUSH 0\t\t\t\n      DUP7 \t\t\t\n      PUSH FFFFFFFFFFFFFFFFFFFFFFFFFFFFFFFFFFFFFFFF\t\t\t\n      AND \t\t\t\n      PUSH FFFFFFFFFFFFFFFFFFFFFFFFFFFFFFFFFFFFFFFF\t\t\t\n      AND \t\t\t\n      DUP2 \t\t\t\n      MSTORE \t\t\t\n      PUSH 20\t\t\t\n      ADD \t\t\t\n      SWAP1 \t\t\t\n      DUP2 \t\t\t\n      MSTORE \t\t\t\n      PUSH 20\t\t\t\n      ADD \t\t\t\n      PUSH 0\t\t\t\n      KECCAK256 \t\t\t\n      PUSH 0\t\t\t\n      DUP6 \t\t\t\n      PUSH FFFFFFFFFFFFFFFFFFFFFFFFFFFFFFFFFFFFFFFF\t\t\t\n      AND \t\t\t\n      PUSH FFFFFFFFFFFFFFFFFFFFFFFFFFFFFFFFFFFFFFFF\t\t\t\n      AND \t\t\t\n      DUP2 \t\t\t\n      MSTORE \t\t\t\n      PUSH 20\t\t\t\n      ADD \t\t\t\n      SWAP1 \t\t\t\n      DUP2 \t\t\t\n      MSTORE \t\t\t\n      PUSH 20\t\t\t\n      ADD \t\t\t\n      PUSH 0\t\t\t\n      KECCAK256 \t\t\t\n      DUP2 \t\t\t\n      SWAP1 \t\t\t\n      SSTORE \t\t\t\n      POP \t\t\t\n      DUP1 \t\t\t\n      ISZERO \t\t\t\n      PUSH [tag] 241\t\t\t\n      JUMPI \t\t\t\n      DUP3 \t\t\t\n      PUSH FFFFFFFFFFFFFFFFFFFFFFFFFFFFFFFFFFFFFFFF\t\t\t\n      AND \t\t\t\n      DUP5 \t\t\t\n      PUSH FFFFFFFFFFFFFFFFFFFFFFFFFFFFFFFFFFFFFFFF\t\t\t\n      AND \t\t\t\n      PUSH 8C5BE1E5EBEC7D5BD14F71427D1E84F3DD0314C0F7B2291E5B200AC8C7C3B925\t\t\t\n      DUP5 \t\t\t\n      PUSH 40\t\t\t\n      MLOAD \t\t\t\n      PUSH [tag] 242\t\t\t\n      SWAP2 \t\t\t\n      SWAP1 \t\t\t\n      PUSH [tag] 42\t\t\t\n      JUMP \t\t\t\n    tag 242\t\t\t\n      JUMPDEST \t\t\t\n      PUSH 40\t\t\t\n      MLOAD \t\t\t\n      DUP1 \t\t\t\n      SWAP2 \t\t\t\n      SUB \t\t\t\n      SWAP1 \t\t\t\n      LOG3 \t\t\t\n    tag 241\t\t\t\n      JUMPDEST \t\t\t\n      POP \t\t\t\n      POP \t\t\t\n      POP \t\t\t\n      POP \t\t\t\n      JUMP \t\t\t\n    tag 243\t\t\t-License-Identifier: MIT\\n// C...\n      JUMPDEST \t\t\t-License-Identifier: MIT\\n// C...\n      PUSH 0\t\t\telin C\n      DUP2 \t\t\tity ^\n      MLOAD \t\t\t solidity ^0\n      SWAP1 \t\t\t4.0\\npragma solidity ^0\n      POP \t\t\t4.0\\npragma solidity ^0\n      SWAP2 \t\t\t-License-Identifier: MIT\\n// C...\n      SWAP1 \t\t\t-License-Identifier: MIT\\n// C...\n      POP \t\t\t-License-Identifier: MIT\\n// C...\n      JUMP \t\t\t-License-Identifier: MIT\\n// C...\n    tag 244\t\t\tt {ERC20} from \"@openzeppelin/...\n      JUMPDEST \t\t\tt {ERC20} from \"@openzeppelin/...\n      PUSH 0\t\t\tm \"@openzep\n      DUP3 \t\t\tOwnabl\n      DUP3 \t\t\tces\n      MSTORE \t\t\tacts/access/Ownable\n      PUSH 20\t\t\trom \n      DUP3 \t\t\trd}\n      ADD \t\t\tyGuard} from \"\n      SWAP1 \t\t\tport {ReentrancyGuard} from \"\n      POP \t\t\tport {ReentrancyGuard} from \"\n      SWAP3 \t\t\tt {ERC20} from \"@openzeppelin/...\n      SWAP2 \t\t\tt {ERC20} from \"@openzeppelin/...\n      POP \t\t\tt {ERC20} from \"@openzeppelin/...\n      POP \t\t\tt {ERC20} from \"@openzeppelin/...\n      JUMP \t\t\tt {ERC20} from \"@openzeppelin/...\n    tag 245\t\t\tn/contracts/utils/ReentrancyGu...\n      JUMPDEST \t\t\tn/contracts/utils/ReentrancyGu...\n      DUP3 \t\t\tC-20 c\n      DUP2 \t\t\tce \n      DUP4 \t\t\t@no\n      MCOPY \t\t\tO)\\n * @notice ERC-20 co\n      PUSH 0\t\t\t)\n      DUP4 \t\t\tnoToke\n      DUP4 \t\t\tCar\n      ADD \t\t\t(buyCarbonoToken\n      MSTORE \t\t\ton ETH (buyCarbonoToken20).\n      POP \t\t\tn/contracts/utils/ReentrancyGu...\n      POP \t\t\tn/contracts/utils/ReentrancyGu...\n      POP \t\t\tn/contracts/utils/ReentrancyGu...\n      JUMP \t\t\tn/contracts/utils/ReentrancyGu...\n    tag 246\t\t\tefecto: 0.001 ETH por 1 CBO.\\n...\n      JUMPDEST \t\t\tefecto: 0.001 ETH por 1 CBO.\\n...\n      PUSH 0\t\t\tWeiPer\n      PUSH 1F\t\t\ttP\n      NOT \t\t\t- setPr\n      PUSH 1F\t\t\t *\n      DUP4 \t\t\tmales\n      ADD \t\t\tdecimales)\\n * \n      AND \t\t\t 18 decimales)\\n *   - setPri\n      SWAP1 \t\t\tpor token, 18 decimales)\\n *  ...\n      POP \t\t\tpor token, 18 decimales)\\n *  ...\n      SWAP2 \t\t\tefecto: 0.001 ETH por 1 CBO.\\n...\n      SWAP1 \t\t\tefecto: 0.001 ETH por 1 CBO.\\n...\n      POP \t\t\tefecto: 0.001 ETH por 1 CBO.\\n...\n      JUMP \t\t\tefecto: 0.001 ETH por 1 CBO.\\n...\n    tag 247\t\t\tn(): cambia el precio (solo ow...\n      JUMPDEST \t\t\tn(): cambia el precio (solo ow...\n      PUSH 0\t\t\tcio\n      PUSH [tag] 294\t\t\tthdraw(): retira el ETH acumul...\n      DUP3 \t\t\t (sol\n      PUSH [tag] 243\t\t\tthdraw(): retira el ETH acumul...\n      JUMP \t\t\tthdraw(): retira el ETH acumul...\n    tag 294\t\t\tthdraw(): retira el ETH acumul...\n      JUMPDEST \t\t\tthdraw(): retira el ETH acumul...\n      PUSH [tag] 295\t\t\tkensOut = (msg.value * 1e18) /...\n      DUP2 \t\t\tbonoTo\n      DUP6 \t\t\tt C\n      PUSH [tag] 244\t\t\tkensOut = (msg.value * 1e18) /...\n      JUMP \t\t\tkensOut = (msg.value * 1e18) /...\n    tag 295\t\t\tkensOut = (msg.value * 1e18) /...\n      JUMPDEST \t\t\tkensOut = (msg.value * 1e18) /...\n      SWAP4 \t\t\t*\\n * tokensOut = (msg.value *...\n      POP \t\t\t*\\n * tokensOut = (msg.value *...\n      PUSH [tag] 296\t\t\tRC20, Ownable, ReentrancyGuard...\n      DUP2 \t\t\tether \n      DUP6 \t\t\t.00\n      PUSH 20\t\t\tfect\n      DUP7 \t\t\t Por \n      ADD \t\t\t  // Por defecto\n      PUSH [tag] 245\t\t\tRC20, Ownable, ReentrancyGuard...\n      JUMP \t\t\tRC20, Ownable, ReentrancyGuard...\n    tag 296\t\t\tRC20, Ownable, ReentrancyGuard...\n      JUMPDEST \t\t\tRC20, Ownable, ReentrancyGuard...\n      PUSH [tag] 297\t\t\tint256 public priceWeiPerToke\n      DUP2 \t\t\tPerTok\n      PUSH [tag] 246\t\t\tint256 public priceWeiPerToke\n      JUMP \t\t\tint256 public priceWeiPerToke\n    tag 297\t\t\tint256 public priceWeiPerToke\n      JUMPDEST \t\t\tint256 public priceWeiPerToke\n      DUP5 \t\t\t   \n      ADD \t\t\tei)\\n    uint256 public priceW...\n      SWAP2 \t\t\t(1e15 wei)\\n    uint256 public...\n      POP \t\t\t(1e15 wei)\\n    uint256 public...\n      POP \t\t\tal a msg.value\\n *   - withdra...\n      SWAP3 \t\t\tn(): cambia el precio (solo ow...\n      SWAP2 \t\t\tn(): cambia el precio (solo ow...\n      POP \t\t\tn(): cambia el precio (solo ow...\n      POP \t\t\tn(): cambia el precio (solo ow...\n      JUMP \t\t\tn(): cambia el precio (solo ow...\n    tag 30\t\t\t  event CarbonoToken20Purchase...\n      JUMPDEST \t\t\t  event CarbonoToken20Purchase...\n      PUSH 0\t\t\tuint\n      PUSH 20\t\t\tad\n      DUP3 \t\t\tt Withdra\n      ADD \t\t\tevent Withdraw(add\n      SWAP1 \t\t\te);\\n    event Withdraw(add\n      POP \t\t\te);\\n    event Withdraw(add\n      DUP2 \t\t\tctor() ER\n      DUP2 \t\t\tonst\n      SUB \t\t\t   constructor() ERC\n      PUSH 0\t\t\t;\n      DUP4 \t\t\t256 amoun\n      ADD \t\t\tuint256 amount);\\n\n      MSTORE \t\t\ted to, uint256 amount);\\n\\n   ...\n      PUSH [tag] 299\t\t\t\", \"CBO\") Ownable(msg.sender) ...\n      DUP2 \t\t\tH\\n  \n      DUP5 \t\t\tviando\n      PUSH [tag] 247\t\t\t\", \"CBO\") Ownable(msg.sender) ...\n      JUMP \t\t\t\", \"CBO\") Ownable(msg.sender) ...\n    tag 299\t\t\t\", \"CBO\") Ownable(msg.sender) ...\n      JUMPDEST \t\t\t\", \"CBO\") Ownable(msg.sender) ...\n      SWAP1 \t\t\toToken20\", \"CBO\") Ownable(msg....\n      POP \t\t\toToken20\", \"CBO\") Ownable(msg....\n      SWAP3 \t\t\t  event CarbonoToken20Purchase...\n      SWAP2 \t\t\t  event CarbonoToken20Purchase...\n      POP \t\t\t  event CarbonoToken20Purchase...\n      POP \t\t\t  event CarbonoToken20Purchase...\n      JUMP \t\t\t  event CarbonoToken20Purchase...\n    tag 249\t\t\t ETH\");\\n        uint256 token...\n      JUMPDEST \t\t\t ETH\");\\n        uint256 token...\n      PUSH 0\t\t\tn\n      PUSH 0\t\t\to\n      REVERT \t\t\tquire(tokens\n    tag 251\t\t\t);\\n    }\\n\\n    /// @notice C...\n      JUMPDEST \t\t\t);\\n    }\\n\\n    /// @notice C...\n      PUSH 0\t\t\tprecio \n      PUSH FFFFFFFFFFFFFFFFFFFFFFFFFFFFFFFFFFFFFFFF\t\t\triceWeiPerToken(uint256 newPri...\n      DUP3 \t\t\ton se\n      AND \t\t\tnction setPriceWeiPerToken(uin...\n      SWAP1 \t\t\tCBO)\\n    function setPriceWei...\n      POP \t\t\tCBO)\\n    function setPriceWei...\n      SWAP2 \t\t\t);\\n    }\\n\\n    /// @notice C...\n      SWAP1 \t\t\t);\\n    }\\n\\n    /// @notice C...\n      POP \t\t\t);\\n    }\\n\\n    /// @notice C...\n      JUMP \t\t\t);\\n    }\\n\\n    /// @notice C...\n    tag 252\t\t\t        require(newPrice > 0, ...\n      JUMPDEST \t\t\t        require(newPrice > 0, ...\n      PUSH 0\t\t\t0\");\\n  \n      PUSH [tag] 305\t\t\t = newPrice;\\n        emi\n      DUP3 \t\t\t   em\n      PUSH [tag] 251\t\t\t = newPrice;\\n        emi\n      JUMP \t\t\t = newPrice;\\n        emi\n    tag 305\t\t\t = newPrice;\\n        emi\n      JUMPDEST \t\t\t = newPrice;\\n        emi\n      SWAP1 \t\t\tWeiPerToken = newPrice;\\n     ...\n      POP \t\t\tWeiPerToken = newPrice;\\n     ...\n      SWAP2 \t\t\t        require(newPrice > 0, ...\n      SWAP1 \t\t\t        require(newPrice > 0, ...\n      POP \t\t\t        require(newPrice > 0, ...\n      JUMP \t\t\t        require(newPrice > 0, ...\n    tag 253\t\t\ted(newPrice);\\n    }\\n\\n    //...\n      JUMPDEST \t\t\ted(newPrice);\\n    }\\n\\n    //...\n      PUSH [tag] 307\t\t\tn withdraw(address payab\n      DUP2 \t\t\t paya\n      PUSH [tag] 252\t\t\tn withdraw(address payab\n      JUMP \t\t\tn withdraw(address payab\n    tag 307\t\t\tn withdraw(address payab\n      JUMPDEST \t\t\tn withdraw(address payab\n      DUP2 \t\t\tfunct\n      EQ \t\t\t   function withdraw(address p...\n      PUSH [tag] 308\t\t\tecaudado\\n    function withdra...\n      JUMPI \t\t\tecaudado\\n    function withdra...\n      PUSH 0\t\t\t \n      PUSH 0\t\t\tn\n      REVERT \t\t\t) external o\n    tag 308\t\t\tecaudado\\n    function withdra...\n      JUMPDEST \t\t\tecaudado\\n    function withdra...\n      POP \t\t\ted(newPrice);\\n    }\\n\\n    //...\n      JUMP \t\t\ted(newPrice);\\n    }\\n\\n    //...\n    tag 254\t\t\t     require(to != address(0),...\n      JUMPDEST \t\t\t     require(to != address(0),...\n      PUSH 0\t\t\t  uin\n      DUP2 \t\t\t\\n     \n      CALLDATALOAD \t\t\this).balance;\\n      \n      SWAP1 \t\t\taddress(this).balance;\\n      \n      POP \t\t\taddress(this).balance;\\n      \n      PUSH [tag] 310\t\t\t(bal > 0, \"empty\");\\n        (...\n      DUP2 \t\t\t (boo\n      PUSH [tag] 253\t\t\t(bal > 0, \"empty\");\\n        (...\n      JUMP \t\t\t(bal > 0, \"empty\");\\n        (...\n    tag 310\t\t\t(bal > 0, \"empty\");\\n        (...\n      JUMPDEST \t\t\t(bal > 0, \"empty\");\\n        (...\n      SWAP3 \t\t\t     require(to != address(0),...\n      SWAP2 \t\t\t     require(to != address(0),...\n      POP \t\t\t     require(to != address(0),...\n      POP \t\t\t     require(to != address(0),...\n      JUMP \t\t\t     require(to != address(0),...\n    tag 255\t\t\tcall{value: bal}(\"\");\\n       ...\n      JUMPDEST \t\t\tcall{value: bal}(\"\");\\n       ...\n      PUSH 0\t\t\t(ok, \"w\n      DUP2 \t\t\t  emi\n      SWAP1 \t\t\tl\");\\n        emi\n      POP \t\t\tl\");\\n        emi\n      SWAP2 \t\t\tcall{value: bal}(\"\");\\n       ...\n      SWAP1 \t\t\tcall{value: bal}(\"\");\\n       ...\n      POP \t\t\tcall{value: bal}(\"\");\\n       ...\n      JUMP \t\t\tcall{value: bal}(\"\");\\n       ...\n    tag 256\t\t\to, bal);\\n    }\\n\\n    /// @no...\n      JUMPDEST \t\t\to, bal);\\n    }\\n\\n    /// @no...\n      PUSH [tag] 313\t\t\t  receive() external pay\n      DUP2 \t\t\tal pa\n      PUSH [tag] 255\t\t\t  receive() external pay\n      JUMP \t\t\t  receive() external pay\n    tag 313\t\t\t  receive() external pay\n      JUMPDEST \t\t\t  receive() external pay\n      DUP2 \t\t\t CBO\\n\n      EQ \t\t\tpra CBO\\n    receive() externa...\n      PUSH [tag] 314\t\t\también compra CBO\\n    receive...\n      JUMPI \t\t\también compra CBO\\n    receive...\n      PUSH 0\t\t\tb\n      PUSH 0\t\t\t \n      REVERT \t\t\t{\\n        bu\n    tag 314\t\t\también compra CBO\\n    receive...\n      JUMPDEST \t\t\también compra CBO\\n    receive...\n      POP \t\t\to, bal);\\n    }\\n\\n    /// @no...\n      JUMP \t\t\to, bal);\\n    }\\n\\n    /// @no...\n    tag 257\t\t\t0();\\n    }\\n}\\n\\n\n      JUMPDEST \t\t\t0();\\n    }\\n}\\n\\n\n      PUSH 0\t\t\t\n      DUP2 \t\t\t\n      CALLDATALOAD \t\t\t\n      SWAP1 \t\t\t\n      POP \t\t\t\n      PUSH [tag] 316\t\t\t\n      DUP2 \t\t\t\n      PUSH [tag] 256\t\t\t\n      JUMP \t\t\t\n    tag 316\t\t\t\n      JUMPDEST \t\t\t\n      SWAP3 \t\t\t0();\\n    }\\n}\\n\\n\n      SWAP2 \t\t\t0();\\n    }\\n}\\n\\n\n      POP \t\t\t0();\\n    }\\n}\\n\\n\n      POP \t\t\t0();\\n    }\\n}\\n\\n\n      JUMP \t\t\t0();\\n    }\\n}\\n\\n\n    tag 34\t\t\t\n      JUMPDEST \t\t\t\n      PUSH 0\t\t\t\n      PUSH 0\t\t\t\n      PUSH 40\t\t\t\n      DUP4 \t\t\t\n      DUP6 \t\t\t\n      SUB \t\t\t\n      SLT \t\t\t\n      ISZERO \t\t\t\n      PUSH [tag] 318\t\t\t\n      JUMPI \t\t\t\n      PUSH [tag] 319\t\t\t\n      PUSH [tag] 249\t\t\t\n      JUMP \t\t\t\n    tag 319\t\t\t\n      JUMPDEST \t\t\t\n    tag 318\t\t\t\n      JUMPDEST \t\t\t\n      PUSH 0\t\t\t\n      PUSH [tag] 320\t\t\t\n      DUP6 \t\t\t\n      DUP3 \t\t\t\n      DUP7 \t\t\t\n      ADD \t\t\t\n      PUSH [tag] 254\t\t\t\n      JUMP \t\t\t\n    tag 320\t\t\t\n      JUMPDEST \t\t\t\n      SWAP3 \t\t\t\n      POP \t\t\t\n      POP \t\t\t\n      PUSH 20\t\t\t\n      PUSH [tag] 321\t\t\t\n      DUP6 \t\t\t\n      DUP3 \t\t\t\n      DUP7 \t\t\t\n      ADD \t\t\t\n      PUSH [tag] 257\t\t\t\n      JUMP \t\t\t\n    tag 321\t\t\t\n      JUMPDEST \t\t\t\n      SWAP2 \t\t\t\n      POP \t\t\t\n      POP \t\t\t\n      SWAP3 \t\t\t\n      POP \t\t\t\n      SWAP3 \t\t\t\n      SWAP1 \t\t\t\n      POP \t\t\t\n      JUMP \t\t\t\n    tag 258\t\t\t\n      JUMPDEST \t\t\t\n      PUSH 0\t\t\t\n      DUP2 \t\t\t\n      ISZERO \t\t\t\n      ISZERO \t\t\t\n      SWAP1 \t\t\t\n      POP \t\t\t\n      SWAP2 \t\t\t\n      SWAP1 \t\t\t\n      POP \t\t\t\n      JUMP \t\t\t\n    tag 259\t\t\t\n      JUMPDEST \t\t\t\n      PUSH [tag] 324\t\t\t\n      DUP2 \t\t\t\n      PUSH [tag] 258\t\t\t\n      JUMP \t\t\t\n    tag 324\t\t\t\n      JUMPDEST \t\t\t\n      DUP3 \t\t\t\n      MSTORE \t\t\t\n      POP \t\t\t\n      POP \t\t\t\n      JUMP \t\t\t\n    tag 37\t\t\t\n      JUMPDEST \t\t\t\n      PUSH 0\t\t\t\n      PUSH 20\t\t\t\n      DUP3 \t\t\t\n      ADD \t\t\t\n      SWAP1 \t\t\t\n      POP \t\t\t\n      PUSH [tag] 326\t\t\t\n      PUSH 0\t\t\t\n      DUP4 \t\t\t\n      ADD \t\t\t\n      DUP5 \t\t\t\n      PUSH [tag] 259\t\t\t\n      JUMP \t\t\t\n    tag 326\t\t\t\n      JUMPDEST \t\t\t\n      SWAP3 \t\t\t\n      SWAP2 \t\t\t\n      POP \t\t\t\n      POP \t\t\t\n      JUMP \t\t\t\n    tag 260\t\t\t\n      JUMPDEST \t\t\t\n      PUSH [tag] 328\t\t\t\n      DUP2 \t\t\t\n      PUSH [tag] 255\t\t\t\n      JUMP \t\t\t\n    tag 328\t\t\t\n      JUMPDEST \t\t\t\n      DUP3 \t\t\t\n      MSTORE \t\t\t\n      POP \t\t\t\n      POP \t\t\t\n      JUMP \t\t\t\n    tag 42\t\t\t\n      JUMPDEST \t\t\t\n      PUSH 0\t\t\t\n      PUSH 20\t\t\t\n      DUP3 \t\t\t\n      ADD \t\t\t\n      SWAP1 \t\t\t\n      POP \t\t\t\n      PUSH [tag] 330\t\t\t\n      PUSH 0\t\t\t\n      DUP4 \t\t\t\n      ADD \t\t\t\n      DUP5 \t\t\t\n      PUSH [tag] 260\t\t\t\n      JUMP \t\t\t\n    tag 330\t\t\t\n      JUMPDEST \t\t\t\n      SWAP3 \t\t\t\n      SWAP2 \t\t\t\n      POP \t\t\t\n      POP \t\t\t\n      JUMP \t\t\t\n    tag 46\t\t\t\n      JUMPDEST \t\t\t\n      PUSH 0\t\t\t\n      PUSH 0\t\t\t\n      PUSH 0\t\t\t\n      PUSH 60\t\t\t\n      DUP5 \t\t\t\n      DUP7 \t\t\t\n      SUB \t\t\t\n      SLT \t\t\t\n      ISZERO \t\t\t\n      PUSH [tag] 332\t\t\t\n      JUMPI \t\t\t\n      PUSH [tag] 333\t\t\t\n      PUSH [tag] 249\t\t\t\n      JUMP \t\t\t\n    tag 333\t\t\t\n      JUMPDEST \t\t\t\n    tag 332\t\t\t\n      JUMPDEST \t\t\t\n      PUSH 0\t\t\t\n      PUSH [tag] 334\t\t\t\n      DUP7 \t\t\t\n      DUP3 \t\t\t\n      DUP8 \t\t\t\n      ADD \t\t\t\n      PUSH [tag] 254\t\t\t\n      JUMP \t\t\t\n    tag 334\t\t\t\n      JUMPDEST \t\t\t\n      SWAP4 \t\t\t\n      POP \t\t\t\n      POP \t\t\t\n      PUSH 20\t\t\t\n      PUSH [tag] 335\t\t\t\n      DUP7 \t\t\t\n      DUP3 \t\t\t\n      DUP8 \t\t\t\n      ADD \t\t\t\n      PUSH [tag] 254\t\t\t\n      JUMP \t\t\t\n    tag 335\t\t\t\n      JUMPDEST \t\t\t\n      SWAP3 \t\t\t\n      POP \t\t\t\n      POP \t\t\t\n      PUSH 40\t\t\t\n      PUSH [tag] 336\t\t\t\n      DUP7 \t\t\t\n      DUP3 \t\t\t\n      DUP8 \t\t\t\n      ADD \t\t\t\n      PUSH [tag] 257\t\t\t\n      JUMP \t\t\t\n    tag 336\t\t\t\n      JUMPDEST \t\t\t\n      SWAP2 \t\t\t\n      POP \t\t\t\n      POP \t\t\t\n      SWAP3 \t\t\t\n      POP \t\t\t\n      SWAP3 \t\t\t\n      POP \t\t\t\n      SWAP3 \t\t\t\n      JUMP \t\t\t\n    tag 261\t\t\t\n      JUMPDEST \t\t\t\n      PUSH 0\t\t\t\n      PUSH FF\t\t\t\n      DUP3 \t\t\t\n      AND \t\t\t\n      SWAP1 \t\t\t\n      POP \t\t\t\n      SWAP2 \t\t\t\n      SWAP1 \t\t\t\n      POP \t\t\t\n      JUMP \t\t\t\n    tag 262\t\t\t\n      JUMPDEST \t\t\t\n      PUSH [tag] 339\t\t\t\n      DUP2 \t\t\t\n      PUSH [tag] 261\t\t\t\n      JUMP \t\t\t\n    tag 339\t\t\t\n      JUMPDEST \t\t\t\n      DUP3 \t\t\t\n      MSTORE \t\t\t\n      POP \t\t\t\n      POP \t\t\t\n      JUMP \t\t\t\n    tag 53\t\t\t\n      JUMPDEST \t\t\t\n      PUSH 0\t\t\t\n      PUSH 20\t\t\t\n      DUP3 \t\t\t\n      ADD \t\t\t\n      SWAP1 \t\t\t\n      POP \t\t\t\n      PUSH [tag] 341\t\t\t\n      PUSH 0\t\t\t\n      DUP4 \t\t\t\n      ADD \t\t\t\n      DUP5 \t\t\t\n      PUSH [tag] 262\t\t\t\n      JUMP \t\t\t\n    tag 341\t\t\t\n      JUMPDEST \t\t\t\n      SWAP3 \t\t\t\n      SWAP2 \t\t\t\n      POP \t\t\t\n      POP \t\t\t\n      JUMP \t\t\t\n    tag 263\t\t\t\n      JUMPDEST \t\t\t\n      PUSH 0\t\t\t\n      PUSH [tag] 343\t\t\t\n      DUP3 \t\t\t\n      PUSH [tag] 251\t\t\t\n      JUMP \t\t\t\n    tag 343\t\t\t\n      JUMPDEST \t\t\t\n      SWAP1 \t\t\t\n      POP \t\t\t\n      SWAP2 \t\t\t\n      SWAP1 \t\t\t\n      POP \t\t\t\n      JUMP \t\t\t\n    tag 264\t\t\t\n      JUMPDEST \t\t\t\n      PUSH [tag] 345\t\t\t\n      DUP2 \t\t\t\n      PUSH [tag] 263\t\t\t\n      JUMP \t\t\t\n    tag 345\t\t\t\n      JUMPDEST \t\t\t\n      DUP2 \t\t\t\n      EQ \t\t\t\n      PUSH [tag] 346\t\t\t\n      JUMPI \t\t\t\n      PUSH 0\t\t\t\n      PUSH 0\t\t\t\n      REVERT \t\t\t\n    tag 346\t\t\t\n      JUMPDEST \t\t\t\n      POP \t\t\t\n      JUMP \t\t\t\n    tag 265\t\t\t\n      JUMPDEST \t\t\t\n      PUSH 0\t\t\t\n      DUP2 \t\t\t\n      CALLDATALOAD \t\t\t\n      SWAP1 \t\t\t\n      POP \t\t\t\n      PUSH [tag] 348\t\t\t\n      DUP2 \t\t\t\n      PUSH [tag] 264\t\t\t\n      JUMP \t\t\t\n    tag 348\t\t\t\n      JUMPDEST \t\t\t\n      SWAP3 \t\t\t\n      SWAP2 \t\t\t\n      POP \t\t\t\n      POP \t\t\t\n      JUMP \t\t\t\n    tag 57\t\t\t\n      JUMPDEST \t\t\t\n      PUSH 0\t\t\t\n      PUSH 20\t\t\t\n      DUP3 \t\t\t\n      DUP5 \t\t\t\n      SUB \t\t\t\n      SLT \t\t\t\n      ISZERO \t\t\t\n      PUSH [tag] 350\t\t\t\n      JUMPI \t\t\t\n      PUSH [tag] 351\t\t\t\n      PUSH [tag] 249\t\t\t\n      JUMP \t\t\t\n    tag 351\t\t\t\n      JUMPDEST \t\t\t\n    tag 350\t\t\t\n      JUMPDEST \t\t\t\n      PUSH 0\t\t\t\n      PUSH [tag] 352\t\t\t\n      DUP5 \t\t\t\n      DUP3 \t\t\t\n      DUP6 \t\t\t\n      ADD \t\t\t\n      PUSH [tag] 265\t\t\t\n      JUMP \t\t\t\n    tag 352\t\t\t\n      JUMPDEST \t\t\t\n      SWAP2 \t\t\t\n      POP \t\t\t\n      POP \t\t\t\n      SWAP3 \t\t\t\n      SWAP2 \t\t\t\n      POP \t\t\t\n      POP \t\t\t\n      JUMP \t\t\t\n    tag 62\t\t\t\n      JUMPDEST \t\t\t\n      PUSH 0\t\t\t\n      PUSH 20\t\t\t\n      DUP3 \t\t\t\n      DUP5 \t\t\t\n      SUB \t\t\t\n      SLT \t\t\t\n      ISZERO \t\t\t\n      PUSH [tag] 354\t\t\t\n      JUMPI \t\t\t\n      PUSH [tag] 355\t\t\t\n      PUSH [tag] 249\t\t\t\n      JUMP \t\t\t\n    tag 355\t\t\t\n      JUMPDEST \t\t\t\n    tag 354\t\t\t\n      JUMPDEST \t\t\t\n      PUSH 0\t\t\t\n      PUSH [tag] 356\t\t\t\n      DUP5 \t\t\t\n      DUP3 \t\t\t\n      DUP6 \t\t\t\n      ADD \t\t\t\n      PUSH [tag] 257\t\t\t\n      JUMP \t\t\t\n    tag 356\t\t\t\n      JUMPDEST \t\t\t\n      SWAP2 \t\t\t\n      POP \t\t\t\n      POP \t\t\t\n      SWAP3 \t\t\t\n      SWAP2 \t\t\t\n      POP \t\t\t\n      POP \t\t\t\n      JUMP \t\t\t\n    tag 67\t\t\t\n      JUMPDEST \t\t\t\n      PUSH 0\t\t\t\n      PUSH 20\t\t\t\n      DUP3 \t\t\t\n      DUP5 \t\t\t\n      SUB \t\t\t\n      SLT \t\t\t\n      ISZERO \t\t\t\n      PUSH [tag] 358\t\t\t\n      JUMPI \t\t\t\n      PUSH [tag] 359\t\t\t\n      PUSH [tag] 249\t\t\t\n      JUMP \t\t\t\n    tag 359\t\t\t\n      JUMPDEST \t\t\t\n    tag 358\t\t\t\n      JUMPDEST \t\t\t\n      PUSH 0\t\t\t\n      PUSH [tag] 360\t\t\t\n      DUP5 \t\t\t\n      DUP3 \t\t\t\n      DUP6 \t\t\t\n      ADD \t\t\t\n      PUSH [tag] 254\t\t\t\n      JUMP \t\t\t\n    tag 360\t\t\t\n      JUMPDEST \t\t\t\n      SWAP2 \t\t\t\n      POP \t\t\t\n      POP \t\t\t\n      SWAP3 \t\t\t\n      SWAP2 \t\t\t\n      POP \t\t\t\n      POP \t\t\t\n      JUMP \t\t\t\n    tag 266\t\t\t\n      JUMPDEST \t\t\t\n      PUSH [tag] 362\t\t\t\n      DUP2 \t\t\t\n      PUSH [tag] 252\t\t\t\n      JUMP \t\t\t\n    tag 362\t\t\t\n      JUMPDEST \t\t\t\n      DUP3 \t\t\t\n      MSTORE \t\t\t\n      POP \t\t\t\n      POP \t\t\t\n      JUMP \t\t\t\n    tag 77\t\t\t\n      JUMPDEST \t\t\t\n      PUSH 0\t\t\t\n      PUSH 20\t\t\t\n      DUP3 \t\t\t\n      ADD \t\t\t\n      SWAP1 \t\t\t\n      POP \t\t\t\n      PUSH [tag] 364\t\t\t\n      PUSH 0\t\t\t\n      DUP4 \t\t\t\n      ADD \t\t\t\n      DUP5 \t\t\t\n      PUSH [tag] 266\t\t\t\n      JUMP \t\t\t\n    tag 364\t\t\t\n      JUMPDEST \t\t\t\n      SWAP3 \t\t\t\n      SWAP2 \t\t\t\n      POP \t\t\t\n      POP \t\t\t\n      JUMP \t\t\t\n    tag 95\t\t\t\n      JUMPDEST \t\t\t\n      PUSH 0\t\t\t\n      PUSH 0\t\t\t\n      PUSH 40\t\t\t\n      DUP4 \t\t\t\n      DUP6 \t\t\t\n      SUB \t\t\t\n      SLT \t\t\t\n      ISZERO \t\t\t\n      PUSH [tag] 366\t\t\t\n      JUMPI \t\t\t\n      PUSH [tag] 367\t\t\t\n      PUSH [tag] 249\t\t\t\n      JUMP \t\t\t\n    tag 367\t\t\t\n      JUMPDEST \t\t\t\n    tag 366\t\t\t\n      JUMPDEST \t\t\t\n      PUSH 0\t\t\t\n      PUSH [tag] 368\t\t\t\n      DUP6 \t\t\t\n      DUP3 \t\t\t\n      DUP7 \t\t\t\n      ADD \t\t\t\n      PUSH [tag] 254\t\t\t\n      JUMP \t\t\t\n    tag 368\t\t\t\n      JUMPDEST \t\t\t\n      SWAP3 \t\t\t\n      POP \t\t\t\n      POP \t\t\t\n      PUSH 20\t\t\t\n      PUSH [tag] 369\t\t\t\n      DUP6 \t\t\t\n      DUP3 \t\t\t\n      DUP7 \t\t\t\n      ADD \t\t\t\n      PUSH [tag] 254\t\t\t\n      JUMP \t\t\t\n    tag 369\t\t\t\n      JUMPDEST \t\t\t\n      SWAP2 \t\t\t\n      POP \t\t\t\n      POP \t\t\t\n      SWAP3 \t\t\t\n      POP \t\t\t\n      SWAP3 \t\t\t\n      SWAP1 \t\t\t\n      POP \t\t\t\n      JUMP \t\t\t\n    tag 267\t\t\t\n      JUMPDEST \t\t\t\n      PUSH 6E6F204554480000000000000000000000000000000000000000000000000000\t\t\t\n      PUSH 0\t\t\t\n      DUP3 \t\t\t\n      ADD \t\t\t\n      MSTORE \t\t\t\n      POP \t\t\t\n      JUMP \t\t\t\n    tag 268\t\t\t\n      JUMPDEST \t\t\t\n      PUSH 0\t\t\t\n      PUSH [tag] 372\t\t\t\n      PUSH 6\t\t\t\n      DUP4 \t\t\t\n      PUSH [tag] 244\t\t\t\n      JUMP \t\t\t\n    tag 372\t\t\t\n      JUMPDEST \t\t\t\n      SWAP2 \t\t\t\n      POP \t\t\t\n      PUSH [tag] 373\t\t\t\n      DUP3 \t\t\t\n      PUSH [tag] 267\t\t\t\n      JUMP \t\t\t\n    tag 373\t\t\t\n      JUMPDEST \t\t\t\n      PUSH 20\t\t\t\n      DUP3 \t\t\t\n      ADD \t\t\t\n      SWAP1 \t\t\t\n      POP \t\t\t\n      SWAP2 \t\t\t\n      SWAP1 \t\t\t\n      POP \t\t\t\n      JUMP \t\t\t\n    tag 108\t\t\t\n      JUMPDEST \t\t\t\n      PUSH 0\t\t\t\n      PUSH 20\t\t\t\n      DUP3 \t\t\t\n      ADD \t\t\t\n      SWAP1 \t\t\t\n      POP \t\t\t\n      DUP2 \t\t\t\n      DUP2 \t\t\t\n      SUB \t\t\t\n      PUSH 0\t\t\t\n      DUP4 \t\t\t\n      ADD \t\t\t\n      MSTORE \t\t\t\n      PUSH [tag] 375\t\t\t\n      DUP2 \t\t\t\n      PUSH [tag] 268\t\t\t\n      JUMP \t\t\t\n    tag 375\t\t\t\n      JUMPDEST \t\t\t\n      SWAP1 \t\t\t\n      POP \t\t\t\n      SWAP2 \t\t\t\n      SWAP1 \t\t\t\n      POP \t\t\t\n      JUMP \t\t\t\n    tag 269\t\t\t\n      JUMPDEST \t\t\t\n      PUSH 4E487B7100000000000000000000000000000000000000000000000000000000\t\t\t\n      PUSH 0\t\t\t\n      MSTORE \t\t\t\n      PUSH 11\t\t\t\n      PUSH 4\t\t\t\n      MSTORE \t\t\t\n      PUSH 24\t\t\t\n      PUSH 0\t\t\t\n      REVERT \t\t\t\n    tag 270\t\t\t\n      JUMPDEST \t\t\t\n      PUSH 0\t\t\t\n      DUP2 \t\t\t\n      PUSH 1\t\t\t\n      SHR \t\t\t\n      SWAP1 \t\t\t\n      POP \t\t\t\n      SWAP2 \t\t\t\n      SWAP1 \t\t\t\n      POP \t\t\t\n      JUMP \t\t\t\n    tag 271\t\t\t\n      JUMPDEST \t\t\t\n      PUSH 0\t\t\t\n      PUSH 0\t\t\t\n      DUP3 \t\t\t\n      SWAP2 \t\t\t\n      POP \t\t\t\n      DUP4 \t\t\t\n      SWAP1 \t\t\t\n      POP \t\t\t\n    tag 379\t\t\t\n      JUMPDEST \t\t\t\n      PUSH 1\t\t\t\n      DUP6 \t\t\t\n      GT \t\t\t\n      ISZERO \t\t\t\n      PUSH [tag] 381\t\t\t\n      JUMPI \t\t\t\n      DUP1 \t\t\t\n      DUP7 \t\t\t\n      DIV \t\t\t\n      DUP2 \t\t\t\n      GT \t\t\t\n      ISZERO \t\t\t\n      PUSH [tag] 382\t\t\t\n      JUMPI \t\t\t\n      PUSH [tag] 383\t\t\t\n      PUSH [tag] 269\t\t\t\n      JUMP \t\t\t\n    tag 383\t\t\t\n      JUMPDEST \t\t\t\n    tag 382\t\t\t\n      JUMPDEST \t\t\t\n      PUSH 1\t\t\t\n      DUP6 \t\t\t\n      AND \t\t\t\n      ISZERO \t\t\t\n      PUSH [tag] 384\t\t\t\n      JUMPI \t\t\t\n      DUP1 \t\t\t\n      DUP3 \t\t\t\n      MUL \t\t\t\n      SWAP2 \t\t\t\n      POP \t\t\t\n    tag 384\t\t\t\n      JUMPDEST \t\t\t\n      DUP1 \t\t\t\n      DUP2 \t\t\t\n      MUL \t\t\t\n      SWAP1 \t\t\t\n      POP \t\t\t\n      PUSH [tag] 385\t\t\t\n      DUP6 \t\t\t\n      PUSH [tag] 270\t\t\t\n      JUMP \t\t\t\n    tag 385\t\t\t\n      JUMPDEST \t\t\t\n      SWAP5 \t\t\t\n      POP \t\t\t\n      PUSH [tag] 379\t\t\t\n      JUMP \t\t\t\n    tag 381\t\t\t\n      JUMPDEST \t\t\t\n      SWAP5 \t\t\t\n      POP \t\t\t\n      SWAP5 \t\t\t\n      SWAP3 \t\t\t\n      POP \t\t\t\n      POP \t\t\t\n      POP \t\t\t\n      JUMP \t\t\t\n    tag 272\t\t\t\n      JUMPDEST \t\t\t\n      PUSH 0\t\t\t\n      DUP3 \t\t\t\n      PUSH [tag] 387\t\t\t\n      JUMPI \t\t\t\n      PUSH 1\t\t\t\n      SWAP1 \t\t\t\n      POP \t\t\t\n      PUSH [tag] 386\t\t\t\n      JUMP \t\t\t\n    tag 387\t\t\t\n      JUMPDEST \t\t\t\n      DUP2 \t\t\t\n      PUSH [tag] 388\t\t\t\n      JUMPI \t\t\t\n      PUSH 0\t\t\t\n      SWAP1 \t\t\t\n      POP \t\t\t\n      PUSH [tag] 386\t\t\t\n      JUMP \t\t\t\n    tag 388\t\t\t\n      JUMPDEST \t\t\t\n      DUP2 \t\t\t\n      PUSH 1\t\t\t\n      DUP2 \t\t\t\n      EQ \t\t\t\n      PUSH [tag] 390\t\t\t\n      JUMPI \t\t\t\n      PUSH 2\t\t\t\n      DUP2 \t\t\t\n      EQ \t\t\t\n      PUSH [tag] 391\t\t\t\n      JUMPI \t\t\t\n      PUSH [tag] 389\t\t\t\n      JUMP \t\t\t\n    tag 390\t\t\t\n      JUMPDEST \t\t\t\n      PUSH 1\t\t\t\n      SWAP2 \t\t\t\n      POP \t\t\t\n      POP \t\t\t\n      PUSH [tag] 386\t\t\t\n      JUMP \t\t\t\n    tag 391\t\t\t\n      JUMPDEST \t\t\t\n      PUSH FF\t\t\t\n      DUP5 \t\t\t\n      GT \t\t\t\n      ISZERO \t\t\t\n      PUSH [tag] 392\t\t\t\n      JUMPI \t\t\t\n      PUSH [tag] 393\t\t\t\n      PUSH [tag] 269\t\t\t\n      JUMP \t\t\t\n    tag 393\t\t\t\n      JUMPDEST \t\t\t\n    tag 392\t\t\t\n      JUMPDEST \t\t\t\n      DUP4 \t\t\t\n      PUSH 2\t\t\t\n      EXP \t\t\t\n      SWAP2 \t\t\t\n      POP \t\t\t\n      DUP5 \t\t\t\n      DUP3 \t\t\t\n      GT \t\t\t\n      ISZERO \t\t\t\n      PUSH [tag] 394\t\t\t\n      JUMPI \t\t\t\n      PUSH [tag] 395\t\t\t\n      PUSH [tag] 269\t\t\t\n      JUMP \t\t\t\n    tag 395\t\t\t\n      JUMPDEST \t\t\t\n    tag 394\t\t\t\n      JUMPDEST \t\t\t\n      POP \t\t\t\n      PUSH [tag] 386\t\t\t\n      JUMP \t\t\t\n    tag 389\t\t\t\n      JUMPDEST \t\t\t\n      POP \t\t\t\n      PUSH 20\t\t\t\n      DUP4 \t\t\t\n      LT \t\t\t\n      PUSH 133\t\t\t\n      DUP4 \t\t\t\n      LT \t\t\t\n      AND \t\t\t\n      PUSH 4E\t\t\t\n      DUP5 \t\t\t\n      LT \t\t\t\n      PUSH B\t\t\t\n      DUP5 \t\t\t\n      LT \t\t\t\n      AND \t\t\t\n      OR \t\t\t\n      ISZERO \t\t\t\n      PUSH [tag] 396\t\t\t\n      JUMPI \t\t\t\n      DUP3 \t\t\t\n      DUP3 \t\t\t\n      EXP \t\t\t\n      SWAP1 \t\t\t\n      POP \t\t\t\n      DUP4 \t\t\t\n      DUP2 \t\t\t\n      GT \t\t\t\n      ISZERO \t\t\t\n      PUSH [tag] 397\t\t\t\n      JUMPI \t\t\t\n      PUSH [tag] 398\t\t\t\n      PUSH [tag] 269\t\t\t\n      JUMP \t\t\t\n    tag 398\t\t\t\n      JUMPDEST \t\t\t\n    tag 397\t\t\t\n      JUMPDEST \t\t\t\n      PUSH [tag] 386\t\t\t\n      JUMP \t\t\t\n    tag 396\t\t\t\n      JUMPDEST \t\t\t\n      PUSH [tag] 399\t\t\t\n      DUP5 \t\t\t\n      DUP5 \t\t\t\n      DUP5 \t\t\t\n      PUSH 1\t\t\t\n      PUSH [tag] 271\t\t\t\n      JUMP \t\t\t\n    tag 399\t\t\t\n      JUMPDEST \t\t\t\n      SWAP3 \t\t\t\n      POP \t\t\t\n      SWAP1 \t\t\t\n      POP \t\t\t\n      DUP2 \t\t\t\n      DUP5 \t\t\t\n      DIV \t\t\t\n      DUP2 \t\t\t\n      GT \t\t\t\n      ISZERO \t\t\t\n      PUSH [tag] 400\t\t\t\n      JUMPI \t\t\t\n      PUSH [tag] 401\t\t\t\n      PUSH [tag] 269\t\t\t\n      JUMP \t\t\t\n    tag 401\t\t\t\n      JUMPDEST \t\t\t\n    tag 400\t\t\t\n      JUMPDEST \t\t\t\n      DUP2 \t\t\t\n      DUP2 \t\t\t\n      MUL \t\t\t\n      SWAP1 \t\t\t\n      POP \t\t\t\n    tag 386\t\t\t\n      JUMPDEST \t\t\t\n      SWAP4 \t\t\t\n      SWAP3 \t\t\t\n      POP \t\t\t\n      POP \t\t\t\n      POP \t\t\t\n      JUMP \t\t\t\n    tag 111\t\t\t\n      JUMPDEST \t\t\t\n      PUSH 0\t\t\t\n      PUSH [tag] 403\t\t\t\n      DUP3 \t\t\t\n      PUSH [tag] 255\t\t\t\n      JUMP \t\t\t\n    tag 403\t\t\t\n      JUMPDEST \t\t\t\n      SWAP2 \t\t\t\n      POP \t\t\t\n      PUSH [tag] 404\t\t\t\n      DUP4 \t\t\t\n      PUSH [tag] 261\t\t\t\n      JUMP \t\t\t\n    tag 404\t\t\t\n      JUMPDEST \t\t\t\n      SWAP3 \t\t\t\n      POP \t\t\t\n      PUSH [tag] 405\t\t\t\n      PUSH FFFFFFFFFFFFFFFFFFFFFFFFFFFFFFFFFFFFFFFFFFFFFFFFFFFFFFFFFFFFFFFF\t\t\t\n      DUP5 \t\t\t\n      DUP5 \t\t\t\n      PUSH [tag] 272\t\t\t\n      JUMP \t\t\t\n    tag 405\t\t\t\n      JUMPDEST \t\t\t\n      SWAP1 \t\t\t\n      POP \t\t\t\n      SWAP3 \t\t\t\n      SWAP2 \t\t\t\n      POP \t\t\t\n      POP \t\t\t\n      JUMP \t\t\t\n    tag 113\t\t\t\n      JUMPDEST \t\t\t\n      PUSH 0\t\t\t\n      PUSH [tag] 407\t\t\t\n      DUP3 \t\t\t\n      PUSH [tag] 255\t\t\t\n      JUMP \t\t\t\n    tag 407\t\t\t\n      JUMPDEST \t\t\t\n      SWAP2 \t\t\t\n      POP \t\t\t\n      PUSH [tag] 408\t\t\t\n      DUP4 \t\t\t\n      PUSH [tag] 255\t\t\t\n      JUMP \t\t\t\n    tag 408\t\t\t\n      JUMPDEST \t\t\t\n      SWAP3 \t\t\t\n      POP \t\t\t\n      DUP3 \t\t\t\n      DUP3 \t\t\t\n      MUL \t\t\t\n      PUSH [tag] 409\t\t\t\n      DUP2 \t\t\t\n      PUSH [tag] 255\t\t\t\n      JUMP \t\t\t\n    tag 409\t\t\t\n      JUMPDEST \t\t\t\n      SWAP2 \t\t\t\n      POP \t\t\t\n      DUP3 \t\t\t\n      DUP3 \t\t\t\n      DIV \t\t\t\n      DUP5 \t\t\t\n      EQ \t\t\t\n      DUP4 \t\t\t\n      ISZERO \t\t\t\n      OR \t\t\t\n      PUSH [tag] 410\t\t\t\n      JUMPI \t\t\t\n      PUSH [tag] 411\t\t\t\n      PUSH [tag] 269\t\t\t\n      JUMP \t\t\t\n    tag 411\t\t\t\n      JUMPDEST \t\t\t\n    tag 410\t\t\t\n      JUMPDEST \t\t\t\n      POP \t\t\t\n      SWAP3 \t\t\t\n      SWAP2 \t\t\t\n      POP \t\t\t\n      POP \t\t\t\n      JUMP \t\t\t\n    tag 273\t\t\t\n      JUMPDEST \t\t\t\n      PUSH 4E487B7100000000000000000000000000000000000000000000000000000000\t\t\t\n      PUSH 0\t\t\t\n      MSTORE \t\t\t\n      PUSH 12\t\t\t\n      PUSH 4\t\t\t\n      MSTORE \t\t\t\n      PUSH 24\t\t\t\n      PUSH 0\t\t\t\n      REVERT \t\t\t\n    tag 115\t\t\t\n      JUMPDEST \t\t\t\n      PUSH 0\t\t\t\n      PUSH [tag] 414\t\t\t\n      DUP3 \t\t\t\n      PUSH [tag] 255\t\t\t\n      JUMP \t\t\t\n    tag 414\t\t\t\n      JUMPDEST \t\t\t\n      SWAP2 \t\t\t\n      POP \t\t\t\n      PUSH [tag] 415\t\t\t\n      DUP4 \t\t\t\n      PUSH [tag] 255\t\t\t\n      JUMP \t\t\t\n    tag 415\t\t\t\n      JUMPDEST \t\t\t\n      SWAP3 \t\t\t\n      POP \t\t\t\n      DUP3 \t\t\t\n      PUSH [tag] 416\t\t\t\n      JUMPI \t\t\t\n      PUSH [tag] 417\t\t\t\n      PUSH [tag] 273\t\t\t\n      JUMP \t\t\t\n    tag 417\t\t\t\n      JUMPDEST \t\t\t\n    tag 416\t\t\t\n      JUMPDEST \t\t\t\n      DUP3 \t\t\t\n      DUP3 \t\t\t\n      DIV \t\t\t\n      SWAP1 \t\t\t\n      POP \t\t\t\n      SWAP3 \t\t\t\n      SWAP2 \t\t\t\n      POP \t\t\t\n      POP \t\t\t\n      JUMP \t\t\t\n    tag 274\t\t\t\n      JUMPDEST \t\t\t\n      PUSH 746F6F206C6974746C6520455448000000000000000000000000000000000000\t\t\t\n      PUSH 0\t\t\t\n      DUP3 \t\t\t\n      ADD \t\t\t\n      MSTORE \t\t\t\n      POP \t\t\t\n      JUMP \t\t\t\n    tag 275\t\t\t\n      JUMPDEST \t\t\t\n      PUSH 0\t\t\t\n      PUSH [tag] 420\t\t\t\n      PUSH E\t\t\t\n      DUP4 \t\t\t\n      PUSH [tag] 244\t\t\t\n      JUMP \t\t\t\n    tag 420\t\t\t\n      JUMPDEST \t\t\t\n      SWAP2 \t\t\t\n      POP \t\t\t\n      PUSH [tag] 421\t\t\t\n      DUP3 \t\t\t\n      PUSH [tag] 274\t\t\t\n      JUMP \t\t\t\n    tag 421\t\t\t\n      JUMPDEST \t\t\t\n      PUSH 20\t\t\t\n      DUP3 \t\t\t\n      ADD \t\t\t\n      SWAP1 \t\t\t\n      POP \t\t\t\n      SWAP2 \t\t\t\n      SWAP1 \t\t\t\n      POP \t\t\t\n      JUMP \t\t\t\n    tag 118\t\t\t\n      JUMPDEST \t\t\t\n      PUSH 0\t\t\t\n      PUSH 20\t\t\t\n      DUP3 \t\t\t\n      ADD \t\t\t\n      SWAP1 \t\t\t\n      POP \t\t\t\n      DUP2 \t\t\t\n      DUP2 \t\t\t\n      SUB \t\t\t\n      PUSH 0\t\t\t\n      DUP4 \t\t\t\n      ADD \t\t\t\n      MSTORE \t\t\t\n      PUSH [tag] 423\t\t\t\n      DUP2 \t\t\t\n      PUSH [tag] 275\t\t\t\n      JUMP \t\t\t\n    tag 423\t\t\t\n      JUMPDEST \t\t\t\n      SWAP1 \t\t\t\n      POP \t\t\t\n      SWAP2 \t\t\t\n      SWAP1 \t\t\t\n      POP \t\t\t\n      JUMP \t\t\t\n    tag 122\t\t\t\n      JUMPDEST \t\t\t\n      PUSH 0\t\t\t\n      PUSH 40\t\t\t\n      DUP3 \t\t\t\n      ADD \t\t\t\n      SWAP1 \t\t\t\n      POP \t\t\t\n      PUSH [tag] 425\t\t\t\n      PUSH 0\t\t\t\n      DUP4 \t\t\t\n      ADD \t\t\t\n      DUP6 \t\t\t\n      PUSH [tag] 260\t\t\t\n      JUMP \t\t\t\n    tag 425\t\t\t\n      JUMPDEST \t\t\t\n      PUSH [tag] 426\t\t\t\n      PUSH 20\t\t\t\n      DUP4 \t\t\t\n      ADD \t\t\t\n      DUP5 \t\t\t\n      PUSH [tag] 260\t\t\t\n      JUMP \t\t\t\n    tag 426\t\t\t\n      JUMPDEST \t\t\t\n      SWAP4 \t\t\t\n      SWAP3 \t\t\t\n      POP \t\t\t\n      POP \t\t\t\n      POP \t\t\t\n      JUMP \t\t\t\n    tag 276\t\t\t\n      JUMPDEST \t\t\t\n      PUSH 4E487B7100000000000000000000000000000000000000000000000000000000\t\t\t\n      PUSH 0\t\t\t\n      MSTORE \t\t\t\n      PUSH 22\t\t\t\n      PUSH 4\t\t\t\n      MSTORE \t\t\t\n      PUSH 24\t\t\t\n      PUSH 0\t\t\t\n      REVERT \t\t\t\n    tag 127\t\t\t\n      JUMPDEST \t\t\t\n      PUSH 0\t\t\t\n      PUSH 2\t\t\t\n      DUP3 \t\t\t\n      DIV \t\t\t\n      SWAP1 \t\t\t\n      POP \t\t\t\n      PUSH 1\t\t\t\n      DUP3 \t\t\t\n      AND \t\t\t\n      DUP1 \t\t\t\n      PUSH [tag] 429\t\t\t\n      JUMPI \t\t\t\n      PUSH 7F\t\t\t\n      DUP3 \t\t\t\n      AND \t\t\t\n      SWAP2 \t\t\t\n      POP \t\t\t\n    tag 429\t\t\t\n      JUMPDEST \t\t\t\n      PUSH 20\t\t\t\n      DUP3 \t\t\t\n      LT \t\t\t\n      DUP2 \t\t\t\n      SUB \t\t\t\n      PUSH [tag] 430\t\t\t\n      JUMPI \t\t\t\n      PUSH [tag] 431\t\t\t\n      PUSH [tag] 276\t\t\t\n      JUMP \t\t\t\n    tag 431\t\t\t\n      JUMPDEST \t\t\t\n    tag 430\t\t\t\n      JUMPDEST \t\t\t\n      POP \t\t\t\n      SWAP2 \t\t\t\n      SWAP1 \t\t\t\n      POP \t\t\t\n      JUMP \t\t\t\n    tag 277\t\t\t\n      JUMPDEST \t\t\t\n      PUSH 746F3D3000000000000000000000000000000000000000000000000000000000\t\t\t\n      PUSH 0\t\t\t\n      DUP3 \t\t\t\n      ADD \t\t\t\n      MSTORE \t\t\t\n      POP \t\t\t\n      JUMP \t\t\t\n    tag 278\t\t\t\n      JUMPDEST \t\t\t\n      PUSH 0\t\t\t\n      PUSH [tag] 434\t\t\t\n      PUSH 4\t\t\t\n      DUP4 \t\t\t\n      PUSH [tag] 244\t\t\t\n      JUMP \t\t\t\n    tag 434\t\t\t\n      JUMPDEST \t\t\t\n      SWAP2 \t\t\t\n      POP \t\t\t\n      PUSH [tag] 435\t\t\t\n      DUP3 \t\t\t\n      PUSH [tag] 277\t\t\t\n      JUMP \t\t\t\n    tag 435\t\t\t\n      JUMPDEST \t\t\t\n      PUSH 20\t\t\t\n      DUP3 \t\t\t\n      ADD \t\t\t\n      SWAP1 \t\t\t\n      POP \t\t\t\n      SWAP2 \t\t\t\n      SWAP1 \t\t\t\n      POP \t\t\t\n      JUMP \t\t\t\n    tag 151\t\t\t\n      JUMPDEST \t\t\t\n      PUSH 0\t\t\t\n      PUSH 20\t\t\t\n      DUP3 \t\t\t\n      ADD \t\t\t\n      SWAP1 \t\t\t\n      POP \t\t\t\n      DUP2 \t\t\t\n      DUP2 \t\t\t\n      SUB \t\t\t\n      PUSH 0\t\t\t\n      DUP4 \t\t\t\n      ADD \t\t\t\n      MSTORE \t\t\t\n      PUSH [tag] 437\t\t\t\n      DUP2 \t\t\t\n      PUSH [tag] 278\t\t\t\n      JUMP \t\t\t\n    tag 437\t\t\t\n      JUMPDEST \t\t\t\n      SWAP1 \t\t\t\n      POP \t\t\t\n      SWAP2 \t\t\t\n      SWAP1 \t\t\t\n      POP \t\t\t\n      JUMP \t\t\t\n    tag 279\t\t\t\n      JUMPDEST \t\t\t\n      PUSH 656D707479000000000000000000000000000000000000000000000000000000\t\t\t\n      PUSH 0\t\t\t\n      DUP3 \t\t\t\n      ADD \t\t\t\n      MSTORE \t\t\t\n      POP \t\t\t\n      JUMP \t\t\t\n    tag 280\t\t\t\n      JUMPDEST \t\t\t\n      PUSH 0\t\t\t\n      PUSH [tag] 440\t\t\t\n      PUSH 5\t\t\t\n      DUP4 \t\t\t\n      PUSH [tag] 244\t\t\t\n      JUMP \t\t\t\n    tag 440\t\t\t\n      JUMPDEST \t\t\t\n      SWAP2 \t\t\t\n      POP \t\t\t\n      PUSH [tag] 441\t\t\t\n      DUP3 \t\t\t\n      PUSH [tag] 279\t\t\t\n      JUMP \t\t\t\n    tag 441\t\t\t\n      JUMPDEST \t\t\t\n      PUSH 20\t\t\t\n      DUP3 \t\t\t\n      ADD \t\t\t\n      SWAP1 \t\t\t\n      POP \t\t\t\n      SWAP2 \t\t\t\n      SWAP1 \t\t\t\n      POP \t\t\t\n      JUMP \t\t\t\n    tag 154\t\t\t\n      JUMPDEST \t\t\t\n      PUSH 0\t\t\t\n      PUSH 20\t\t\t\n      DUP3 \t\t\t\n      ADD \t\t\t\n      SWAP1 \t\t\t\n      POP \t\t\t\n      DUP2 \t\t\t\n      DUP2 \t\t\t\n      SUB \t\t\t\n      PUSH 0\t\t\t\n      DUP4 \t\t\t\n      ADD \t\t\t\n      MSTORE \t\t\t\n      PUSH [tag] 443\t\t\t\n      DUP2 \t\t\t\n      PUSH [tag] 280\t\t\t\n      JUMP \t\t\t\n    tag 443\t\t\t\n      JUMPDEST \t\t\t\n      SWAP1 \t\t\t\n      POP \t\t\t\n      SWAP2 \t\t\t\n      SWAP1 \t\t\t\n      POP \t\t\t\n      JUMP \t\t\t\n    tag 281\t\t\t\n      JUMPDEST \t\t\t\n      PUSH 0\t\t\t\n      DUP2 \t\t\t\n      SWAP1 \t\t\t\n      POP \t\t\t\n      SWAP3 \t\t\t\n      SWAP2 \t\t\t\n      POP \t\t\t\n      POP \t\t\t\n      JUMP \t\t\t\n    tag 282\t\t\t\n      JUMPDEST \t\t\t\n      POP \t\t\t\n      JUMP \t\t\t\n    tag 283\t\t\t\n      JUMPDEST \t\t\t\n      PUSH 0\t\t\t\n      PUSH [tag] 447\t\t\t\n      PUSH 0\t\t\t\n      DUP4 \t\t\t\n      PUSH [tag] 281\t\t\t\n      JUMP \t\t\t\n    tag 447\t\t\t\n      JUMPDEST \t\t\t\n      SWAP2 \t\t\t\n      POP \t\t\t\n      PUSH [tag] 448\t\t\t\n      DUP3 \t\t\t\n      PUSH [tag] 282\t\t\t\n      JUMP \t\t\t\n    tag 448\t\t\t\n      JUMPDEST \t\t\t\n      PUSH 0\t\t\t\n      DUP3 \t\t\t\n      ADD \t\t\t\n      SWAP1 \t\t\t\n      POP \t\t\t\n      SWAP2 \t\t\t\n      SWAP1 \t\t\t\n      POP \t\t\t\n      JUMP \t\t\t\n    tag 156\t\t\t\n      JUMPDEST \t\t\t\n      PUSH 0\t\t\t\n      PUSH [tag] 450\t\t\t\n      DUP3 \t\t\t\n      PUSH [tag] 283\t\t\t\n      JUMP \t\t\t\n    tag 450\t\t\t\n      JUMPDEST \t\t\t\n      SWAP2 \t\t\t\n      POP \t\t\t\n      DUP2 \t\t\t\n      SWAP1 \t\t\t\n      POP \t\t\t\n      SWAP2 \t\t\t\n      SWAP1 \t\t\t\n      POP \t\t\t\n      JUMP \t\t\t\n    tag 284\t\t\t\n      JUMPDEST \t\t\t\n      PUSH 7769746864726177206661696C00000000000000000000000000000000000000\t\t\t\n      PUSH 0\t\t\t\n      DUP3 \t\t\t\n      ADD \t\t\t\n      MSTORE \t\t\t\n      POP \t\t\t\n      JUMP \t\t\t\n    tag 285\t\t\t\n      JUMPDEST \t\t\t\n      PUSH 0\t\t\t\n      PUSH [tag] 453\t\t\t\n      PUSH D\t\t\t\n      DUP4 \t\t\t\n      PUSH [tag] 244\t\t\t\n      JUMP \t\t\t\n    tag 453\t\t\t\n      JUMPDEST \t\t\t\n      SWAP2 \t\t\t\n      POP \t\t\t\n      PUSH [tag] 454\t\t\t\n      DUP3 \t\t\t\n      PUSH [tag] 284\t\t\t\n      JUMP \t\t\t\n    tag 454\t\t\t\n      JUMPDEST \t\t\t\n      PUSH 20\t\t\t\n      DUP3 \t\t\t\n      ADD \t\t\t\n      SWAP1 \t\t\t\n      POP \t\t\t\n      SWAP2 \t\t\t\n      SWAP1 \t\t\t\n      POP \t\t\t\n      JUMP \t\t\t\n    tag 162\t\t\t\n      JUMPDEST \t\t\t\n      PUSH 0\t\t\t\n      PUSH 20\t\t\t\n      DUP3 \t\t\t\n      ADD \t\t\t\n      SWAP1 \t\t\t\n      POP \t\t\t\n      DUP2 \t\t\t\n      DUP2 \t\t\t\n      SUB \t\t\t\n      PUSH 0\t\t\t\n      DUP4 \t\t\t\n      ADD \t\t\t\n      MSTORE \t\t\t\n      PUSH [tag] 456\t\t\t\n      DUP2 \t\t\t\n      PUSH [tag] 285\t\t\t\n      JUMP \t\t\t\n    tag 456\t\t\t\n      JUMPDEST \t\t\t\n      SWAP1 \t\t\t\n      POP \t\t\t\n      SWAP2 \t\t\t\n      SWAP1 \t\t\t\n      POP \t\t\t\n      JUMP \t\t\t\n    tag 286\t\t\t\n      JUMPDEST \t\t\t\n      PUSH 70726963653D3000000000000000000000000000000000000000000000000000\t\t\t\n      PUSH 0\t\t\t\n      DUP3 \t\t\t\n      ADD \t\t\t\n      MSTORE \t\t\t\n      POP \t\t\t\n      JUMP \t\t\t\n    tag 287\t\t\t\n      JUMPDEST \t\t\t\n      PUSH 0\t\t\t\n      PUSH [tag] 459\t\t\t\n      PUSH 7\t\t\t\n      DUP4 \t\t\t\n      PUSH [tag] 244\t\t\t\n      JUMP \t\t\t\n    tag 459\t\t\t\n      JUMPDEST \t\t\t\n      SWAP2 \t\t\t\n      POP \t\t\t\n      PUSH [tag] 460\t\t\t\n      DUP3 \t\t\t\n      PUSH [tag] 286\t\t\t\n      JUMP \t\t\t\n    tag 460\t\t\t\n      JUMPDEST \t\t\t\n      PUSH 20\t\t\t\n      DUP3 \t\t\t\n      ADD \t\t\t\n      SWAP1 \t\t\t\n      POP \t\t\t\n      SWAP2 \t\t\t\n      SWAP1 \t\t\t\n      POP \t\t\t\n      JUMP \t\t\t\n    tag 169\t\t\t\n      JUMPDEST \t\t\t\n      PUSH 0\t\t\t\n      PUSH 20\t\t\t\n      DUP3 \t\t\t\n      ADD \t\t\t\n      SWAP1 \t\t\t\n      POP \t\t\t\n      DUP2 \t\t\t\n      DUP2 \t\t\t\n      SUB \t\t\t\n      PUSH 0\t\t\t\n      DUP4 \t\t\t\n      ADD \t\t\t\n      MSTORE \t\t\t\n      PUSH [tag] 462\t\t\t\n      DUP2 \t\t\t\n      PUSH [tag] 287\t\t\t\n      JUMP \t\t\t\n    tag 462\t\t\t\n      JUMPDEST \t\t\t\n      SWAP1 \t\t\t\n      POP \t\t\t\n      SWAP2 \t\t\t\n      SWAP1 \t\t\t\n      POP \t\t\t\n      JUMP \t\t\t\n    tag 211\t\t\t\n      JUMPDEST \t\t\t\n      PUSH 0\t\t\t\n      PUSH 60\t\t\t\n      DUP3 \t\t\t\n      ADD \t\t\t\n      SWAP1 \t\t\t\n      POP \t\t\t\n      PUSH [tag] 464\t\t\t\n      PUSH 0\t\t\t\n      DUP4 \t\t\t\n      ADD \t\t\t\n      DUP7 \t\t\t\n      PUSH [tag] 266\t\t\t\n      JUMP \t\t\t\n    tag 464\t\t\t\n      JUMPDEST \t\t\t\n      PUSH [tag] 465\t\t\t\n      PUSH 20\t\t\t\n      DUP4 \t\t\t\n      ADD \t\t\t\n      DUP6 \t\t\t\n      PUSH [tag] 260\t\t\t\n      JUMP \t\t\t\n    tag 465\t\t\t\n      JUMPDEST \t\t\t\n      PUSH [tag] 466\t\t\t\n      PUSH 40\t\t\t\n      DUP4 \t\t\t\n      ADD \t\t\t\n      DUP5 \t\t\t\n      PUSH [tag] 260\t\t\t\n      JUMP \t\t\t\n    tag 466\t\t\t\n      JUMPDEST \t\t\t\n      SWAP5 \t\t\t\n      SWAP4 \t\t\t\n      POP \t\t\t\n      POP \t\t\t\n      POP \t\t\t\n      POP \t\t\t\n      JUMP \t\t\t\n    tag 229\t\t\t\n      JUMPDEST \t\t\t\n      PUSH 0\t\t\t\n      PUSH [tag] 468\t\t\t\n      DUP3 \t\t\t\n      PUSH [tag] 255\t\t\t\n      JUMP \t\t\t\n    tag 468\t\t\t\n      JUMPDEST \t\t\t\n      SWAP2 \t\t\t\n      POP \t\t\t\n      PUSH [tag] 469\t\t\t\n      DUP4 \t\t\t\n      PUSH [tag] 255\t\t\t\n      JUMP \t\t\t\n    tag 469\t\t\t\n      JUMPDEST \t\t\t\n      SWAP3 \t\t\t\n      POP \t\t\t\n      DUP3 \t\t\t\n      DUP3 \t\t\t\n      ADD \t\t\t\n      SWAP1 \t\t\t\n      POP \t\t\t\n      DUP1 \t\t\t\n      DUP3 \t\t\t\n      GT \t\t\t\n      ISZERO \t\t\t\n      PUSH [tag] 470\t\t\t\n      JUMPI \t\t\t\n      PUSH [tag] 471\t\t\t\n      PUSH [tag] 269\t\t\t\n      JUMP \t\t\t\n    tag 471\t\t\t\n      JUMPDEST \t\t\t\n    tag 470\t\t\t\n      JUMPDEST \t\t\t\n      SWAP3 \t\t\t\n      SWAP2 \t\t\t\n      POP \t\t\t\n      POP \t\t\t\n      JUMP \t\t\t\n    .data\n"
}