{
	"compilerInput": "{\"language\":\"Solidity\",\"sources\":{\"contracts/experience.sol\":{\"content\":\"// SPDX-License-Identifier: MIT\\n// Compatible con OpenZeppelin Contracts ^5.4.0\\npragma solidity ^0.8.27;\\n\\nimport {ERC721} from \\\"@openzeppelin/contracts/token/ERC721/ERC721.sol\\\";\\nimport {Ownable} from \\\"@openzeppelin/contracts/access/Ownable.sol\\\";\\nimport {IERC20} from \\\"@openzeppelin/contracts/token/ERC20/IERC20.sol\\\";\\nimport {Strings} from \\\"@openzeppelin/contracts/utils/Strings.sol\\\";\\n\\n/**\\n * @title Experience721 (EXP)\\n * @notice NFT que se compra con CBO (Carbono).\\n *         Cada NFT apunta directamente a una imagen en IPFS:\\n *         tokenURI(id) = baseURI + id + \\\".png\\\"\\n */\\ncontract Experience721 is ERC721, Ownable {\\n    IERC20 public immutable carbono;   // Token CBO para pagar\\n    address public treasury;           // Recibe CBO cobrados\\n    uint256 public priceInCBO;         // 18 decimales (3e18 = 3 CBO)\\n    uint256 public maxSupply;\\n    uint256 public totalSupply;\\n    string  private baseURI_;\\n    uint256 private _nextId = 1;\\n\\n    event Minted(address indexed buyer, uint256 qty, uint256 paidCBO);\\n    event PriceChanged(uint256 newPrice);\\n    event TreasuryChanged(address newTreasury);\\n    event BaseURIChanged(string newBaseURI);\\n\\n    constructor(\\n        address carbonoToken,           // dirección del contrato Carbono (CBO)\\n        uint256 initialPriceInCBO,      // ej: 3e18\\n        uint256 _maxSupply,\\n        string memory baseURIInit       // ej: \\\"https://.../ipfs/<CID>/\\\"\\n    ) ERC721(\\\"Experience721\\\", \\\"EXP\\\") Ownable(msg.sender) {\\n        require(carbonoToken != address(0), \\\"CBO=0\\\");\\n        require(initialPriceInCBO > 0, \\\"price=0\\\");\\n        require(_maxSupply > 0, \\\"max=0\\\");\\n\\n        carbono     = IERC20(carbonoToken);\\n        priceInCBO  = initialPriceInCBO;\\n        maxSupply   = _maxSupply;\\n        baseURI_    = baseURIInit;\\n        treasury    = msg.sender; // por defecto, el owner es la tesoreria\\n    }\\n\\n    // --- Admin ---\\n    function setPriceInCBO(uint256 newPrice) external onlyOwner {\\n        require(newPrice > 0, \\\"price=0\\\");\\n        priceInCBO = newPrice;\\n        emit PriceChanged(newPrice);\\n    }\\n\\n    function setTreasury(address newTreasury) external onlyOwner {\\n        require(newTreasury != address(0), \\\"treasury=0\\\");\\n        treasury = newTreasury;\\n        emit TreasuryChanged(newTreasury);\\n    }\\n\\n    function setBaseURI(string memory u) external onlyOwner {\\n        baseURI_ = u;\\n        emit BaseURIChanged(u);\\n    }\\n\\n    // --- Mint ---\\n    /// @notice Compra/mint de NFTs pagando en CBO (requiere allowance previo).\\n    function mint(uint256 qty) external {\\n        require(qty > 0, \\\"qty=0\\\");\\n        require(totalSupply + qty <= maxSupply, \\\"sold out\\\");\\n\\n        uint256 cost = priceInCBO * qty;\\n\\n        // El usuario debe ejecutar antes: CBO.approve(address(this), cost)\\n        bool ok = carbono.transferFrom(msg.sender, treasury, cost);\\n        require(ok, \\\"CBO transfer fail\\\");\\n\\n        for (uint256 i = 0; i < qty; i++) {\\n            uint256 tokenId = _nextId++;\\n            totalSupply += 1;\\n            _safeMint(msg.sender, tokenId);\\n        }\\n\\n        emit Minted(msg.sender, qty, cost);\\n    }\\n\\n    // --- Metadata simple (imagen directa) ---\\n    function _baseURI() internal view override returns (string memory) {\\n        return baseURI_;\\n    }\\n\\n    function tokenURI(uint256 tokenId) public view override returns (string memory) {\\n        // ownerOf revierte si el token no existe; sirve como verificación\\n        ownerOf(tokenId);\\n        return string(abi.encodePacked(baseURI_, Strings.toString(tokenId), \\\".png\\\"));\\n    }\\n}\\n\\n\"},\"@openzeppelin/contracts/utils/Strings.sol\":{\"content\":\"// SPDX-License-Identifier: MIT\\n// OpenZeppelin Contracts (last updated v5.4.0) (utils/Strings.sol)\\n\\npragma solidity ^0.8.20;\\n\\nimport {Math} from \\\"./math/Math.sol\\\";\\nimport {SafeCast} from \\\"./math/SafeCast.sol\\\";\\nimport {SignedMath} from \\\"./math/SignedMath.sol\\\";\\n\\n/**\\n * @dev String operations.\\n */\\nlibrary Strings {\\n    using SafeCast for *;\\n\\n    bytes16 private constant HEX_DIGITS = \\\"0123456789abcdef\\\";\\n    uint8 private constant ADDRESS_LENGTH = 20;\\n    uint256 private constant SPECIAL_CHARS_LOOKUP =\\n        (1 << 0x08) | // backspace\\n            (1 << 0x09) | // tab\\n            (1 << 0x0a) | // newline\\n            (1 << 0x0c) | // form feed\\n            (1 << 0x0d) | // carriage return\\n            (1 << 0x22) | // double quote\\n            (1 << 0x5c); // backslash\\n\\n    /**\\n     * @dev The `value` string doesn't fit in the specified `length`.\\n     */\\n    error StringsInsufficientHexLength(uint256 value, uint256 length);\\n\\n    /**\\n     * @dev The string being parsed contains characters that are not in scope of the given base.\\n     */\\n    error StringsInvalidChar();\\n\\n    /**\\n     * @dev The string being parsed is not a properly formatted address.\\n     */\\n    error StringsInvalidAddressFormat();\\n\\n    /**\\n     * @dev Converts a `uint256` to its ASCII `string` decimal representation.\\n     */\\n    function toString(uint256 value) internal pure returns (string memory) {\\n        unchecked {\\n            uint256 length = Math.log10(value) + 1;\\n            string memory buffer = new string(length);\\n            uint256 ptr;\\n            assembly (\\\"memory-safe\\\") {\\n                ptr := add(add(buffer, 0x20), length)\\n            }\\n            while (true) {\\n                ptr--;\\n                assembly (\\\"memory-safe\\\") {\\n                    mstore8(ptr, byte(mod(value, 10), HEX_DIGITS))\\n                }\\n                value /= 10;\\n                if (value == 0) break;\\n            }\\n            return buffer;\\n        }\\n    }\\n\\n    /**\\n     * @dev Converts a `int256` to its ASCII `string` decimal representation.\\n     */\\n    function toStringSigned(int256 value) internal pure returns (string memory) {\\n        return string.concat(value < 0 ? \\\"-\\\" : \\\"\\\", toString(SignedMath.abs(value)));\\n    }\\n\\n    /**\\n     * @dev Converts a `uint256` to its ASCII `string` hexadecimal representation.\\n     */\\n    function toHexString(uint256 value) internal pure returns (string memory) {\\n        unchecked {\\n            return toHexString(value, Math.log256(value) + 1);\\n        }\\n    }\\n\\n    /**\\n     * @dev Converts a `uint256` to its ASCII `string` hexadecimal representation with fixed length.\\n     */\\n    function toHexString(uint256 value, uint256 length) internal pure returns (string memory) {\\n        uint256 localValue = value;\\n        bytes memory buffer = new bytes(2 * length + 2);\\n        buffer[0] = \\\"0\\\";\\n        buffer[1] = \\\"x\\\";\\n        for (uint256 i = 2 * length + 1; i > 1; --i) {\\n            buffer[i] = HEX_DIGITS[localValue & 0xf];\\n            localValue >>= 4;\\n        }\\n        if (localValue != 0) {\\n            revert StringsInsufficientHexLength(value, length);\\n        }\\n        return string(buffer);\\n    }\\n\\n    /**\\n     * @dev Converts an `address` with fixed length of 20 bytes to its not checksummed ASCII `string` hexadecimal\\n     * representation.\\n     */\\n    function toHexString(address addr) internal pure returns (string memory) {\\n        return toHexString(uint256(uint160(addr)), ADDRESS_LENGTH);\\n    }\\n\\n    /**\\n     * @dev Converts an `address` with fixed length of 20 bytes to its checksummed ASCII `string` hexadecimal\\n     * representation, according to EIP-55.\\n     */\\n    function toChecksumHexString(address addr) internal pure returns (string memory) {\\n        bytes memory buffer = bytes(toHexString(addr));\\n\\n        // hash the hex part of buffer (skip length + 2 bytes, length 40)\\n        uint256 hashValue;\\n        assembly (\\\"memory-safe\\\") {\\n            hashValue := shr(96, keccak256(add(buffer, 0x22), 40))\\n        }\\n\\n        for (uint256 i = 41; i > 1; --i) {\\n            // possible values for buffer[i] are 48 (0) to 57 (9) and 97 (a) to 102 (f)\\n            if (hashValue & 0xf > 7 && uint8(buffer[i]) > 96) {\\n                // case shift by xoring with 0x20\\n                buffer[i] ^= 0x20;\\n            }\\n            hashValue >>= 4;\\n        }\\n        return string(buffer);\\n    }\\n\\n    /**\\n     * @dev Returns true if the two strings are equal.\\n     */\\n    function equal(string memory a, string memory b) internal pure returns (bool) {\\n        return bytes(a).length == bytes(b).length && keccak256(bytes(a)) == keccak256(bytes(b));\\n    }\\n\\n    /**\\n     * @dev Parse a decimal string and returns the value as a `uint256`.\\n     *\\n     * Requirements:\\n     * - The string must be formatted as `[0-9]*`\\n     * - The result must fit into an `uint256` type\\n     */\\n    function parseUint(string memory input) internal pure returns (uint256) {\\n        return parseUint(input, 0, bytes(input).length);\\n    }\\n\\n    /**\\n     * @dev Variant of {parseUint-string} that parses a substring of `input` located between position `begin` (included) and\\n     * `end` (excluded).\\n     *\\n     * Requirements:\\n     * - The substring must be formatted as `[0-9]*`\\n     * - The result must fit into an `uint256` type\\n     */\\n    function parseUint(string memory input, uint256 begin, uint256 end) internal pure returns (uint256) {\\n        (bool success, uint256 value) = tryParseUint(input, begin, end);\\n        if (!success) revert StringsInvalidChar();\\n        return value;\\n    }\\n\\n    /**\\n     * @dev Variant of {parseUint-string} that returns false if the parsing fails because of an invalid character.\\n     *\\n     * NOTE: This function will revert if the result does not fit in a `uint256`.\\n     */\\n    function tryParseUint(string memory input) internal pure returns (bool success, uint256 value) {\\n        return _tryParseUintUncheckedBounds(input, 0, bytes(input).length);\\n    }\\n\\n    /**\\n     * @dev Variant of {parseUint-string-uint256-uint256} that returns false if the parsing fails because of an invalid\\n     * character.\\n     *\\n     * NOTE: This function will revert if the result does not fit in a `uint256`.\\n     */\\n    function tryParseUint(\\n        string memory input,\\n        uint256 begin,\\n        uint256 end\\n    ) internal pure returns (bool success, uint256 value) {\\n        if (end > bytes(input).length || begin > end) return (false, 0);\\n        return _tryParseUintUncheckedBounds(input, begin, end);\\n    }\\n\\n    /**\\n     * @dev Implementation of {tryParseUint-string-uint256-uint256} that does not check bounds. Caller should make sure that\\n     * `begin <= end <= input.length`. Other inputs would result in undefined behavior.\\n     */\\n    function _tryParseUintUncheckedBounds(\\n        string memory input,\\n        uint256 begin,\\n        uint256 end\\n    ) private pure returns (bool success, uint256 value) {\\n        bytes memory buffer = bytes(input);\\n\\n        uint256 result = 0;\\n        for (uint256 i = begin; i < end; ++i) {\\n            uint8 chr = _tryParseChr(bytes1(_unsafeReadBytesOffset(buffer, i)));\\n            if (chr > 9) return (false, 0);\\n            result *= 10;\\n            result += chr;\\n        }\\n        return (true, result);\\n    }\\n\\n    /**\\n     * @dev Parse a decimal string and returns the value as a `int256`.\\n     *\\n     * Requirements:\\n     * - The string must be formatted as `[-+]?[0-9]*`\\n     * - The result must fit in an `int256` type.\\n     */\\n    function parseInt(string memory input) internal pure returns (int256) {\\n        return parseInt(input, 0, bytes(input).length);\\n    }\\n\\n    /**\\n     * @dev Variant of {parseInt-string} that parses a substring of `input` located between position `begin` (included) and\\n     * `end` (excluded).\\n     *\\n     * Requirements:\\n     * - The substring must be formatted as `[-+]?[0-9]*`\\n     * - The result must fit in an `int256` type.\\n     */\\n    function parseInt(string memory input, uint256 begin, uint256 end) internal pure returns (int256) {\\n        (bool success, int256 value) = tryParseInt(input, begin, end);\\n        if (!success) revert StringsInvalidChar();\\n        return value;\\n    }\\n\\n    /**\\n     * @dev Variant of {parseInt-string} that returns false if the parsing fails because of an invalid character or if\\n     * the result does not fit in a `int256`.\\n     *\\n     * NOTE: This function will revert if the absolute value of the result does not fit in a `uint256`.\\n     */\\n    function tryParseInt(string memory input) internal pure returns (bool success, int256 value) {\\n        return _tryParseIntUncheckedBounds(input, 0, bytes(input).length);\\n    }\\n\\n    uint256 private constant ABS_MIN_INT256 = 2 ** 255;\\n\\n    /**\\n     * @dev Variant of {parseInt-string-uint256-uint256} that returns false if the parsing fails because of an invalid\\n     * character or if the result does not fit in a `int256`.\\n     *\\n     * NOTE: This function will revert if the absolute value of the result does not fit in a `uint256`.\\n     */\\n    function tryParseInt(\\n        string memory input,\\n        uint256 begin,\\n        uint256 end\\n    ) internal pure returns (bool success, int256 value) {\\n        if (end > bytes(input).length || begin > end) return (false, 0);\\n        return _tryParseIntUncheckedBounds(input, begin, end);\\n    }\\n\\n    /**\\n     * @dev Implementation of {tryParseInt-string-uint256-uint256} that does not check bounds. Caller should make sure that\\n     * `begin <= end <= input.length`. Other inputs would result in undefined behavior.\\n     */\\n    function _tryParseIntUncheckedBounds(\\n        string memory input,\\n        uint256 begin,\\n        uint256 end\\n    ) private pure returns (bool success, int256 value) {\\n        bytes memory buffer = bytes(input);\\n\\n        // Check presence of a negative sign.\\n        bytes1 sign = begin == end ? bytes1(0) : bytes1(_unsafeReadBytesOffset(buffer, begin)); // don't do out-of-bound (possibly unsafe) read if sub-string is empty\\n        bool positiveSign = sign == bytes1(\\\"+\\\");\\n        bool negativeSign = sign == bytes1(\\\"-\\\");\\n        uint256 offset = (positiveSign || negativeSign).toUint();\\n\\n        (bool absSuccess, uint256 absValue) = tryParseUint(input, begin + offset, end);\\n\\n        if (absSuccess && absValue < ABS_MIN_INT256) {\\n            return (true, negativeSign ? -int256(absValue) : int256(absValue));\\n        } else if (absSuccess && negativeSign && absValue == ABS_MIN_INT256) {\\n            return (true, type(int256).min);\\n        } else return (false, 0);\\n    }\\n\\n    /**\\n     * @dev Parse a hexadecimal string (with or without \\\"0x\\\" prefix), and returns the value as a `uint256`.\\n     *\\n     * Requirements:\\n     * - The string must be formatted as `(0x)?[0-9a-fA-F]*`\\n     * - The result must fit in an `uint256` type.\\n     */\\n    function parseHexUint(string memory input) internal pure returns (uint256) {\\n        return parseHexUint(input, 0, bytes(input).length);\\n    }\\n\\n    /**\\n     * @dev Variant of {parseHexUint-string} that parses a substring of `input` located between position `begin` (included) and\\n     * `end` (excluded).\\n     *\\n     * Requirements:\\n     * - The substring must be formatted as `(0x)?[0-9a-fA-F]*`\\n     * - The result must fit in an `uint256` type.\\n     */\\n    function parseHexUint(string memory input, uint256 begin, uint256 end) internal pure returns (uint256) {\\n        (bool success, uint256 value) = tryParseHexUint(input, begin, end);\\n        if (!success) revert StringsInvalidChar();\\n        return value;\\n    }\\n\\n    /**\\n     * @dev Variant of {parseHexUint-string} that returns false if the parsing fails because of an invalid character.\\n     *\\n     * NOTE: This function will revert if the result does not fit in a `uint256`.\\n     */\\n    function tryParseHexUint(string memory input) internal pure returns (bool success, uint256 value) {\\n        return _tryParseHexUintUncheckedBounds(input, 0, bytes(input).length);\\n    }\\n\\n    /**\\n     * @dev Variant of {parseHexUint-string-uint256-uint256} that returns false if the parsing fails because of an\\n     * invalid character.\\n     *\\n     * NOTE: This function will revert if the result does not fit in a `uint256`.\\n     */\\n    function tryParseHexUint(\\n        string memory input,\\n        uint256 begin,\\n        uint256 end\\n    ) internal pure returns (bool success, uint256 value) {\\n        if (end > bytes(input).length || begin > end) return (false, 0);\\n        return _tryParseHexUintUncheckedBounds(input, begin, end);\\n    }\\n\\n    /**\\n     * @dev Implementation of {tryParseHexUint-string-uint256-uint256} that does not check bounds. Caller should make sure that\\n     * `begin <= end <= input.length`. Other inputs would result in undefined behavior.\\n     */\\n    function _tryParseHexUintUncheckedBounds(\\n        string memory input,\\n        uint256 begin,\\n        uint256 end\\n    ) private pure returns (bool success, uint256 value) {\\n        bytes memory buffer = bytes(input);\\n\\n        // skip 0x prefix if present\\n        bool hasPrefix = (end > begin + 1) && bytes2(_unsafeReadBytesOffset(buffer, begin)) == bytes2(\\\"0x\\\"); // don't do out-of-bound (possibly unsafe) read if sub-string is empty\\n        uint256 offset = hasPrefix.toUint() * 2;\\n\\n        uint256 result = 0;\\n        for (uint256 i = begin + offset; i < end; ++i) {\\n            uint8 chr = _tryParseChr(bytes1(_unsafeReadBytesOffset(buffer, i)));\\n            if (chr > 15) return (false, 0);\\n            result *= 16;\\n            unchecked {\\n                // Multiplying by 16 is equivalent to a shift of 4 bits (with additional overflow check).\\n                // This guarantees that adding a value < 16 will not cause an overflow, hence the unchecked.\\n                result += chr;\\n            }\\n        }\\n        return (true, result);\\n    }\\n\\n    /**\\n     * @dev Parse a hexadecimal string (with or without \\\"0x\\\" prefix), and returns the value as an `address`.\\n     *\\n     * Requirements:\\n     * - The string must be formatted as `(0x)?[0-9a-fA-F]{40}`\\n     */\\n    function parseAddress(string memory input) internal pure returns (address) {\\n        return parseAddress(input, 0, bytes(input).length);\\n    }\\n\\n    /**\\n     * @dev Variant of {parseAddress-string} that parses a substring of `input` located between position `begin` (included) and\\n     * `end` (excluded).\\n     *\\n     * Requirements:\\n     * - The substring must be formatted as `(0x)?[0-9a-fA-F]{40}`\\n     */\\n    function parseAddress(string memory input, uint256 begin, uint256 end) internal pure returns (address) {\\n        (bool success, address value) = tryParseAddress(input, begin, end);\\n        if (!success) revert StringsInvalidAddressFormat();\\n        return value;\\n    }\\n\\n    /**\\n     * @dev Variant of {parseAddress-string} that returns false if the parsing fails because the input is not a properly\\n     * formatted address. See {parseAddress-string} requirements.\\n     */\\n    function tryParseAddress(string memory input) internal pure returns (bool success, address value) {\\n        return tryParseAddress(input, 0, bytes(input).length);\\n    }\\n\\n    /**\\n     * @dev Variant of {parseAddress-string-uint256-uint256} that returns false if the parsing fails because input is not a properly\\n     * formatted address. See {parseAddress-string-uint256-uint256} requirements.\\n     */\\n    function tryParseAddress(\\n        string memory input,\\n        uint256 begin,\\n        uint256 end\\n    ) internal pure returns (bool success, address value) {\\n        if (end > bytes(input).length || begin > end) return (false, address(0));\\n\\n        bool hasPrefix = (end > begin + 1) && bytes2(_unsafeReadBytesOffset(bytes(input), begin)) == bytes2(\\\"0x\\\"); // don't do out-of-bound (possibly unsafe) read if sub-string is empty\\n        uint256 expectedLength = 40 + hasPrefix.toUint() * 2;\\n\\n        // check that input is the correct length\\n        if (end - begin == expectedLength) {\\n            // length guarantees that this does not overflow, and value is at most type(uint160).max\\n            (bool s, uint256 v) = _tryParseHexUintUncheckedBounds(input, begin, end);\\n            return (s, address(uint160(v)));\\n        } else {\\n            return (false, address(0));\\n        }\\n    }\\n\\n    function _tryParseChr(bytes1 chr) private pure returns (uint8) {\\n        uint8 value = uint8(chr);\\n\\n        // Try to parse `chr`:\\n        // - Case 1: [0-9]\\n        // - Case 2: [a-f]\\n        // - Case 3: [A-F]\\n        // - otherwise not supported\\n        unchecked {\\n            if (value > 47 && value < 58) value -= 48;\\n            else if (value > 96 && value < 103) value -= 87;\\n            else if (value > 64 && value < 71) value -= 55;\\n            else return type(uint8).max;\\n        }\\n\\n        return value;\\n    }\\n\\n    /**\\n     * @dev Escape special characters in JSON strings. This can be useful to prevent JSON injection in NFT metadata.\\n     *\\n     * WARNING: This function should only be used in double quoted JSON strings. Single quotes are not escaped.\\n     *\\n     * NOTE: This function escapes all unicode characters, and not just the ones in ranges defined in section 2.5 of\\n     * RFC-4627 (U+0000 to U+001F, U+0022 and U+005C). ECMAScript's `JSON.parse` does recover escaped unicode\\n     * characters that are not in this range, but other tooling may provide different results.\\n     */\\n    function escapeJSON(string memory input) internal pure returns (string memory) {\\n        bytes memory buffer = bytes(input);\\n        bytes memory output = new bytes(2 * buffer.length); // worst case scenario\\n        uint256 outputLength = 0;\\n\\n        for (uint256 i; i < buffer.length; ++i) {\\n            bytes1 char = bytes1(_unsafeReadBytesOffset(buffer, i));\\n            if (((SPECIAL_CHARS_LOOKUP & (1 << uint8(char))) != 0)) {\\n                output[outputLength++] = \\\"\\\\\\\\\\\";\\n                if (char == 0x08) output[outputLength++] = \\\"b\\\";\\n                else if (char == 0x09) output[outputLength++] = \\\"t\\\";\\n                else if (char == 0x0a) output[outputLength++] = \\\"n\\\";\\n                else if (char == 0x0c) output[outputLength++] = \\\"f\\\";\\n                else if (char == 0x0d) output[outputLength++] = \\\"r\\\";\\n                else if (char == 0x5c) output[outputLength++] = \\\"\\\\\\\\\\\";\\n                else if (char == 0x22) {\\n                    // solhint-disable-next-line quotes\\n                    output[outputLength++] = '\\\"';\\n                }\\n            } else {\\n                output[outputLength++] = char;\\n            }\\n        }\\n        // write the actual length and deallocate unused memory\\n        assembly (\\\"memory-safe\\\") {\\n            mstore(output, outputLength)\\n            mstore(0x40, add(output, shl(5, shr(5, add(outputLength, 63)))))\\n        }\\n\\n        return string(output);\\n    }\\n\\n    /**\\n     * @dev Reads a bytes32 from a bytes array without bounds checking.\\n     *\\n     * NOTE: making this function internal would mean it could be used with memory unsafe offset, and marking the\\n     * assembly block as such would prevent some optimizations.\\n     */\\n    function _unsafeReadBytesOffset(bytes memory buffer, uint256 offset) private pure returns (bytes32 value) {\\n        // This is not memory safe in the general case, but all calls to this private function are within bounds.\\n        assembly (\\\"memory-safe\\\") {\\n            value := mload(add(add(buffer, 0x20), offset))\\n        }\\n    }\\n}\\n\"},\"@openzeppelin/contracts/token/ERC20/IERC20.sol\":{\"content\":\"// SPDX-License-Identifier: MIT\\n// OpenZeppelin Contracts (last updated v5.4.0) (token/ERC20/IERC20.sol)\\n\\npragma solidity >=0.4.16;\\n\\n/**\\n * @dev Interface of the ERC-20 standard as defined in the ERC.\\n */\\ninterface IERC20 {\\n    /**\\n     * @dev Emitted when `value` tokens are moved from one account (`from`) to\\n     * another (`to`).\\n     *\\n     * Note that `value` may be zero.\\n     */\\n    event Transfer(address indexed from, address indexed to, uint256 value);\\n\\n    /**\\n     * @dev Emitted when the allowance of a `spender` for an `owner` is set by\\n     * a call to {approve}. `value` is the new allowance.\\n     */\\n    event Approval(address indexed owner, address indexed spender, uint256 value);\\n\\n    /**\\n     * @dev Returns the value of tokens in existence.\\n     */\\n    function totalSupply() external view returns (uint256);\\n\\n    /**\\n     * @dev Returns the value of tokens owned by `account`.\\n     */\\n    function balanceOf(address account) external view returns (uint256);\\n\\n    /**\\n     * @dev Moves a `value` amount of tokens from the caller's account to `to`.\\n     *\\n     * Returns a boolean value indicating whether the operation succeeded.\\n     *\\n     * Emits a {Transfer} event.\\n     */\\n    function transfer(address to, uint256 value) external returns (bool);\\n\\n    /**\\n     * @dev Returns the remaining number of tokens that `spender` will be\\n     * allowed to spend on behalf of `owner` through {transferFrom}. This is\\n     * zero by default.\\n     *\\n     * This value changes when {approve} or {transferFrom} are called.\\n     */\\n    function allowance(address owner, address spender) external view returns (uint256);\\n\\n    /**\\n     * @dev Sets a `value` amount of tokens as the allowance of `spender` over the\\n     * caller's tokens.\\n     *\\n     * Returns a boolean value indicating whether the operation succeeded.\\n     *\\n     * IMPORTANT: Beware that changing an allowance with this method brings the risk\\n     * that someone may use both the old and the new allowance by unfortunate\\n     * transaction ordering. One possible solution to mitigate this race\\n     * condition is to first reduce the spender's allowance to 0 and set the\\n     * desired value afterwards:\\n     * https://github.com/ethereum/EIPs/issues/20#issuecomment-263524729\\n     *\\n     * Emits an {Approval} event.\\n     */\\n    function approve(address spender, uint256 value) external returns (bool);\\n\\n    /**\\n     * @dev Moves a `value` amount of tokens from `from` to `to` using the\\n     * allowance mechanism. `value` is then deducted from the caller's\\n     * allowance.\\n     *\\n     * Returns a boolean value indicating whether the operation succeeded.\\n     *\\n     * Emits a {Transfer} event.\\n     */\\n    function transferFrom(address from, address to, uint256 value) external returns (bool);\\n}\\n\"},\"@openzeppelin/contracts/access/Ownable.sol\":{\"content\":\"// SPDX-License-Identifier: MIT\\n// OpenZeppelin Contracts (last updated v5.0.0) (access/Ownable.sol)\\n\\npragma solidity ^0.8.20;\\n\\nimport {Context} from \\\"../utils/Context.sol\\\";\\n\\n/**\\n * @dev Contract module which provides a basic access control mechanism, where\\n * there is an account (an owner) that can be granted exclusive access to\\n * specific functions.\\n *\\n * The initial owner is set to the address provided by the deployer. This can\\n * later be changed with {transferOwnership}.\\n *\\n * This module is used through inheritance. It will make available the modifier\\n * `onlyOwner`, which can be applied to your functions to restrict their use to\\n * the owner.\\n */\\nabstract contract Ownable is Context {\\n    address private _owner;\\n\\n    /**\\n     * @dev The caller account is not authorized to perform an operation.\\n     */\\n    error OwnableUnauthorizedAccount(address account);\\n\\n    /**\\n     * @dev The owner is not a valid owner account. (eg. `address(0)`)\\n     */\\n    error OwnableInvalidOwner(address owner);\\n\\n    event OwnershipTransferred(address indexed previousOwner, address indexed newOwner);\\n\\n    /**\\n     * @dev Initializes the contract setting the address provided by the deployer as the initial owner.\\n     */\\n    constructor(address initialOwner) {\\n        if (initialOwner == address(0)) {\\n            revert OwnableInvalidOwner(address(0));\\n        }\\n        _transferOwnership(initialOwner);\\n    }\\n\\n    /**\\n     * @dev Throws if called by any account other than the owner.\\n     */\\n    modifier onlyOwner() {\\n        _checkOwner();\\n        _;\\n    }\\n\\n    /**\\n     * @dev Returns the address of the current owner.\\n     */\\n    function owner() public view virtual returns (address) {\\n        return _owner;\\n    }\\n\\n    /**\\n     * @dev Throws if the sender is not the owner.\\n     */\\n    function _checkOwner() internal view virtual {\\n        if (owner() != _msgSender()) {\\n            revert OwnableUnauthorizedAccount(_msgSender());\\n        }\\n    }\\n\\n    /**\\n     * @dev Leaves the contract without owner. It will not be possible to call\\n     * `onlyOwner` functions. Can only be called by the current owner.\\n     *\\n     * NOTE: Renouncing ownership will leave the contract without an owner,\\n     * thereby disabling any functionality that is only available to the owner.\\n     */\\n    function renounceOwnership() public virtual onlyOwner {\\n        _transferOwnership(address(0));\\n    }\\n\\n    /**\\n     * @dev Transfers ownership of the contract to a new account (`newOwner`).\\n     * Can only be called by the current owner.\\n     */\\n    function transferOwnership(address newOwner) public virtual onlyOwner {\\n        if (newOwner == address(0)) {\\n            revert OwnableInvalidOwner(address(0));\\n        }\\n        _transferOwnership(newOwner);\\n    }\\n\\n    /**\\n     * @dev Transfers ownership of the contract to a new account (`newOwner`).\\n     * Internal function without access restriction.\\n     */\\n    function _transferOwnership(address newOwner) internal virtual {\\n        address oldOwner = _owner;\\n        _owner = newOwner;\\n        emit OwnershipTransferred(oldOwner, newOwner);\\n    }\\n}\\n\"},\"@openzeppelin/contracts/token/ERC721/ERC721.sol\":{\"content\":\"// SPDX-License-Identifier: MIT\\n// OpenZeppelin Contracts (last updated v5.4.0) (token/ERC721/ERC721.sol)\\n\\npragma solidity ^0.8.20;\\n\\nimport {IERC721} from \\\"./IERC721.sol\\\";\\nimport {IERC721Metadata} from \\\"./extensions/IERC721Metadata.sol\\\";\\nimport {ERC721Utils} from \\\"./utils/ERC721Utils.sol\\\";\\nimport {Context} from \\\"../../utils/Context.sol\\\";\\nimport {Strings} from \\\"../../utils/Strings.sol\\\";\\nimport {IERC165, ERC165} from \\\"../../utils/introspection/ERC165.sol\\\";\\nimport {IERC721Errors} from \\\"../../interfaces/draft-IERC6093.sol\\\";\\n\\n/**\\n * @dev Implementation of https://eips.ethereum.org/EIPS/eip-721[ERC-721] Non-Fungible Token Standard, including\\n * the Metadata extension, but not including the Enumerable extension, which is available separately as\\n * {ERC721Enumerable}.\\n */\\nabstract contract ERC721 is Context, ERC165, IERC721, IERC721Metadata, IERC721Errors {\\n    using Strings for uint256;\\n\\n    // Token name\\n    string private _name;\\n\\n    // Token symbol\\n    string private _symbol;\\n\\n    mapping(uint256 tokenId => address) private _owners;\\n\\n    mapping(address owner => uint256) private _balances;\\n\\n    mapping(uint256 tokenId => address) private _tokenApprovals;\\n\\n    mapping(address owner => mapping(address operator => bool)) private _operatorApprovals;\\n\\n    /**\\n     * @dev Initializes the contract by setting a `name` and a `symbol` to the token collection.\\n     */\\n    constructor(string memory name_, string memory symbol_) {\\n        _name = name_;\\n        _symbol = symbol_;\\n    }\\n\\n    /// @inheritdoc IERC165\\n    function supportsInterface(bytes4 interfaceId) public view virtual override(ERC165, IERC165) returns (bool) {\\n        return\\n            interfaceId == type(IERC721).interfaceId ||\\n            interfaceId == type(IERC721Metadata).interfaceId ||\\n            super.supportsInterface(interfaceId);\\n    }\\n\\n    /// @inheritdoc IERC721\\n    function balanceOf(address owner) public view virtual returns (uint256) {\\n        if (owner == address(0)) {\\n            revert ERC721InvalidOwner(address(0));\\n        }\\n        return _balances[owner];\\n    }\\n\\n    /// @inheritdoc IERC721\\n    function ownerOf(uint256 tokenId) public view virtual returns (address) {\\n        return _requireOwned(tokenId);\\n    }\\n\\n    /// @inheritdoc IERC721Metadata\\n    function name() public view virtual returns (string memory) {\\n        return _name;\\n    }\\n\\n    /// @inheritdoc IERC721Metadata\\n    function symbol() public view virtual returns (string memory) {\\n        return _symbol;\\n    }\\n\\n    /// @inheritdoc IERC721Metadata\\n    function tokenURI(uint256 tokenId) public view virtual returns (string memory) {\\n        _requireOwned(tokenId);\\n\\n        string memory baseURI = _baseURI();\\n        return bytes(baseURI).length > 0 ? string.concat(baseURI, tokenId.toString()) : \\\"\\\";\\n    }\\n\\n    /**\\n     * @dev Base URI for computing {tokenURI}. If set, the resulting URI for each\\n     * token will be the concatenation of the `baseURI` and the `tokenId`. Empty\\n     * by default, can be overridden in child contracts.\\n     */\\n    function _baseURI() internal view virtual returns (string memory) {\\n        return \\\"\\\";\\n    }\\n\\n    /// @inheritdoc IERC721\\n    function approve(address to, uint256 tokenId) public virtual {\\n        _approve(to, tokenId, _msgSender());\\n    }\\n\\n    /// @inheritdoc IERC721\\n    function getApproved(uint256 tokenId) public view virtual returns (address) {\\n        _requireOwned(tokenId);\\n\\n        return _getApproved(tokenId);\\n    }\\n\\n    /// @inheritdoc IERC721\\n    function setApprovalForAll(address operator, bool approved) public virtual {\\n        _setApprovalForAll(_msgSender(), operator, approved);\\n    }\\n\\n    /// @inheritdoc IERC721\\n    function isApprovedForAll(address owner, address operator) public view virtual returns (bool) {\\n        return _operatorApprovals[owner][operator];\\n    }\\n\\n    /// @inheritdoc IERC721\\n    function transferFrom(address from, address to, uint256 tokenId) public virtual {\\n        if (to == address(0)) {\\n            revert ERC721InvalidReceiver(address(0));\\n        }\\n        // Setting an \\\"auth\\\" arguments enables the `_isAuthorized` check which verifies that the token exists\\n        // (from != 0). Therefore, it is not needed to verify that the return value is not 0 here.\\n        address previousOwner = _update(to, tokenId, _msgSender());\\n        if (previousOwner != from) {\\n            revert ERC721IncorrectOwner(from, tokenId, previousOwner);\\n        }\\n    }\\n\\n    /// @inheritdoc IERC721\\n    function safeTransferFrom(address from, address to, uint256 tokenId) public {\\n        safeTransferFrom(from, to, tokenId, \\\"\\\");\\n    }\\n\\n    /// @inheritdoc IERC721\\n    function safeTransferFrom(address from, address to, uint256 tokenId, bytes memory data) public virtual {\\n        transferFrom(from, to, tokenId);\\n        ERC721Utils.checkOnERC721Received(_msgSender(), from, to, tokenId, data);\\n    }\\n\\n    /**\\n     * @dev Returns the owner of the `tokenId`. Does NOT revert if token doesn't exist\\n     *\\n     * IMPORTANT: Any overrides to this function that add ownership of tokens not tracked by the\\n     * core ERC-721 logic MUST be matched with the use of {_increaseBalance} to keep balances\\n     * consistent with ownership. The invariant to preserve is that for any address `a` the value returned by\\n     * `balanceOf(a)` must be equal to the number of tokens such that `_ownerOf(tokenId)` is `a`.\\n     */\\n    function _ownerOf(uint256 tokenId) internal view virtual returns (address) {\\n        return _owners[tokenId];\\n    }\\n\\n    /**\\n     * @dev Returns the approved address for `tokenId`. Returns 0 if `tokenId` is not minted.\\n     */\\n    function _getApproved(uint256 tokenId) internal view virtual returns (address) {\\n        return _tokenApprovals[tokenId];\\n    }\\n\\n    /**\\n     * @dev Returns whether `spender` is allowed to manage `owner`'s tokens, or `tokenId` in\\n     * particular (ignoring whether it is owned by `owner`).\\n     *\\n     * WARNING: This function assumes that `owner` is the actual owner of `tokenId` and does not verify this\\n     * assumption.\\n     */\\n    function _isAuthorized(address owner, address spender, uint256 tokenId) internal view virtual returns (bool) {\\n        return\\n            spender != address(0) &&\\n            (owner == spender || isApprovedForAll(owner, spender) || _getApproved(tokenId) == spender);\\n    }\\n\\n    /**\\n     * @dev Checks if `spender` can operate on `tokenId`, assuming the provided `owner` is the actual owner.\\n     * Reverts if:\\n     * - `spender` does not have approval from `owner` for `tokenId`.\\n     * - `spender` does not have approval to manage all of `owner`'s assets.\\n     *\\n     * WARNING: This function assumes that `owner` is the actual owner of `tokenId` and does not verify this\\n     * assumption.\\n     */\\n    function _checkAuthorized(address owner, address spender, uint256 tokenId) internal view virtual {\\n        if (!_isAuthorized(owner, spender, tokenId)) {\\n            if (owner == address(0)) {\\n                revert ERC721NonexistentToken(tokenId);\\n            } else {\\n                revert ERC721InsufficientApproval(spender, tokenId);\\n            }\\n        }\\n    }\\n\\n    /**\\n     * @dev Unsafe write access to the balances, used by extensions that \\\"mint\\\" tokens using an {ownerOf} override.\\n     *\\n     * NOTE: the value is limited to type(uint128).max. This protect against _balance overflow. It is unrealistic that\\n     * a uint256 would ever overflow from increments when these increments are bounded to uint128 values.\\n     *\\n     * WARNING: Increasing an account's balance using this function tends to be paired with an override of the\\n     * {_ownerOf} function to resolve the ownership of the corresponding tokens so that balances and ownership\\n     * remain consistent with one another.\\n     */\\n    function _increaseBalance(address account, uint128 value) internal virtual {\\n        unchecked {\\n            _balances[account] += value;\\n        }\\n    }\\n\\n    /**\\n     * @dev Transfers `tokenId` from its current owner to `to`, or alternatively mints (or burns) if the current owner\\n     * (or `to`) is the zero address. Returns the owner of the `tokenId` before the update.\\n     *\\n     * The `auth` argument is optional. If the value passed is non 0, then this function will check that\\n     * `auth` is either the owner of the token, or approved to operate on the token (by the owner).\\n     *\\n     * Emits a {Transfer} event.\\n     *\\n     * NOTE: If overriding this function in a way that tracks balances, see also {_increaseBalance}.\\n     */\\n    function _update(address to, uint256 tokenId, address auth) internal virtual returns (address) {\\n        address from = _ownerOf(tokenId);\\n\\n        // Perform (optional) operator check\\n        if (auth != address(0)) {\\n            _checkAuthorized(from, auth, tokenId);\\n        }\\n\\n        // Execute the update\\n        if (from != address(0)) {\\n            // Clear approval. No need to re-authorize or emit the Approval event\\n            _approve(address(0), tokenId, address(0), false);\\n\\n            unchecked {\\n                _balances[from] -= 1;\\n            }\\n        }\\n\\n        if (to != address(0)) {\\n            unchecked {\\n                _balances[to] += 1;\\n            }\\n        }\\n\\n        _owners[tokenId] = to;\\n\\n        emit Transfer(from, to, tokenId);\\n\\n        return from;\\n    }\\n\\n    /**\\n     * @dev Mints `tokenId` and transfers it to `to`.\\n     *\\n     * WARNING: Usage of this method is discouraged, use {_safeMint} whenever possible\\n     *\\n     * Requirements:\\n     *\\n     * - `tokenId` must not exist.\\n     * - `to` cannot be the zero address.\\n     *\\n     * Emits a {Transfer} event.\\n     */\\n    function _mint(address to, uint256 tokenId) internal {\\n        if (to == address(0)) {\\n            revert ERC721InvalidReceiver(address(0));\\n        }\\n        address previousOwner = _update(to, tokenId, address(0));\\n        if (previousOwner != address(0)) {\\n            revert ERC721InvalidSender(address(0));\\n        }\\n    }\\n\\n    /**\\n     * @dev Mints `tokenId`, transfers it to `to` and checks for `to` acceptance.\\n     *\\n     * Requirements:\\n     *\\n     * - `tokenId` must not exist.\\n     * - If `to` refers to a smart contract, it must implement {IERC721Receiver-onERC721Received}, which is called upon a safe transfer.\\n     *\\n     * Emits a {Transfer} event.\\n     */\\n    function _safeMint(address to, uint256 tokenId) internal {\\n        _safeMint(to, tokenId, \\\"\\\");\\n    }\\n\\n    /**\\n     * @dev Same as {xref-ERC721-_safeMint-address-uint256-}[`_safeMint`], with an additional `data` parameter which is\\n     * forwarded in {IERC721Receiver-onERC721Received} to contract recipients.\\n     */\\n    function _safeMint(address to, uint256 tokenId, bytes memory data) internal virtual {\\n        _mint(to, tokenId);\\n        ERC721Utils.checkOnERC721Received(_msgSender(), address(0), to, tokenId, data);\\n    }\\n\\n    /**\\n     * @dev Destroys `tokenId`.\\n     * The approval is cleared when the token is burned.\\n     * This is an internal function that does not check if the sender is authorized to operate on the token.\\n     *\\n     * Requirements:\\n     *\\n     * - `tokenId` must exist.\\n     *\\n     * Emits a {Transfer} event.\\n     */\\n    function _burn(uint256 tokenId) internal {\\n        address previousOwner = _update(address(0), tokenId, address(0));\\n        if (previousOwner == address(0)) {\\n            revert ERC721NonexistentToken(tokenId);\\n        }\\n    }\\n\\n    /**\\n     * @dev Transfers `tokenId` from `from` to `to`.\\n     *  As opposed to {transferFrom}, this imposes no restrictions on msg.sender.\\n     *\\n     * Requirements:\\n     *\\n     * - `to` cannot be the zero address.\\n     * - `tokenId` token must be owned by `from`.\\n     *\\n     * Emits a {Transfer} event.\\n     */\\n    function _transfer(address from, address to, uint256 tokenId) internal {\\n        if (to == address(0)) {\\n            revert ERC721InvalidReceiver(address(0));\\n        }\\n        address previousOwner = _update(to, tokenId, address(0));\\n        if (previousOwner == address(0)) {\\n            revert ERC721NonexistentToken(tokenId);\\n        } else if (previousOwner != from) {\\n            revert ERC721IncorrectOwner(from, tokenId, previousOwner);\\n        }\\n    }\\n\\n    /**\\n     * @dev Safely transfers `tokenId` token from `from` to `to`, checking that contract recipients\\n     * are aware of the ERC-721 standard to prevent tokens from being forever locked.\\n     *\\n     * `data` is additional data, it has no specified format and it is sent in call to `to`.\\n     *\\n     * This internal function is like {safeTransferFrom} in the sense that it invokes\\n     * {IERC721Receiver-onERC721Received} on the receiver, and can be used to e.g.\\n     * implement alternative mechanisms to perform token transfer, such as signature-based.\\n     *\\n     * Requirements:\\n     *\\n     * - `tokenId` token must exist and be owned by `from`.\\n     * - `to` cannot be the zero address.\\n     * - `from` cannot be the zero address.\\n     * - If `to` refers to a smart contract, it must implement {IERC721Receiver-onERC721Received}, which is called upon a safe transfer.\\n     *\\n     * Emits a {Transfer} event.\\n     */\\n    function _safeTransfer(address from, address to, uint256 tokenId) internal {\\n        _safeTransfer(from, to, tokenId, \\\"\\\");\\n    }\\n\\n    /**\\n     * @dev Same as {xref-ERC721-_safeTransfer-address-address-uint256-}[`_safeTransfer`], with an additional `data` parameter which is\\n     * forwarded in {IERC721Receiver-onERC721Received} to contract recipients.\\n     */\\n    function _safeTransfer(address from, address to, uint256 tokenId, bytes memory data) internal virtual {\\n        _transfer(from, to, tokenId);\\n        ERC721Utils.checkOnERC721Received(_msgSender(), from, to, tokenId, data);\\n    }\\n\\n    /**\\n     * @dev Approve `to` to operate on `tokenId`\\n     *\\n     * The `auth` argument is optional. If the value passed is non 0, then this function will check that `auth` is\\n     * either the owner of the token, or approved to operate on all tokens held by this owner.\\n     *\\n     * Emits an {Approval} event.\\n     *\\n     * Overrides to this logic should be done to the variant with an additional `bool emitEvent` argument.\\n     */\\n    function _approve(address to, uint256 tokenId, address auth) internal {\\n        _approve(to, tokenId, auth, true);\\n    }\\n\\n    /**\\n     * @dev Variant of `_approve` with an optional flag to enable or disable the {Approval} event. The event is not\\n     * emitted in the context of transfers.\\n     */\\n    function _approve(address to, uint256 tokenId, address auth, bool emitEvent) internal virtual {\\n        // Avoid reading the owner unless necessary\\n        if (emitEvent || auth != address(0)) {\\n            address owner = _requireOwned(tokenId);\\n\\n            // We do not use _isAuthorized because single-token approvals should not be able to call approve\\n            if (auth != address(0) && owner != auth && !isApprovedForAll(owner, auth)) {\\n                revert ERC721InvalidApprover(auth);\\n            }\\n\\n            if (emitEvent) {\\n                emit Approval(owner, to, tokenId);\\n            }\\n        }\\n\\n        _tokenApprovals[tokenId] = to;\\n    }\\n\\n    /**\\n     * @dev Approve `operator` to operate on all of `owner` tokens\\n     *\\n     * Requirements:\\n     * - operator can't be the address zero.\\n     *\\n     * Emits an {ApprovalForAll} event.\\n     */\\n    function _setApprovalForAll(address owner, address operator, bool approved) internal virtual {\\n        if (operator == address(0)) {\\n            revert ERC721InvalidOperator(operator);\\n        }\\n        _operatorApprovals[owner][operator] = approved;\\n        emit ApprovalForAll(owner, operator, approved);\\n    }\\n\\n    /**\\n     * @dev Reverts if the `tokenId` doesn't have a current owner (it hasn't been minted, or it has been burned).\\n     * Returns the owner.\\n     *\\n     * Overrides to ownership logic should be done to {_ownerOf}.\\n     */\\n    function _requireOwned(uint256 tokenId) internal view returns (address) {\\n        address owner = _ownerOf(tokenId);\\n        if (owner == address(0)) {\\n            revert ERC721NonexistentToken(tokenId);\\n        }\\n        return owner;\\n    }\\n}\\n\"},\"@openzeppelin/contracts/utils/math/SignedMath.sol\":{\"content\":\"// SPDX-License-Identifier: MIT\\n// OpenZeppelin Contracts (last updated v5.1.0) (utils/math/SignedMath.sol)\\n\\npragma solidity ^0.8.20;\\n\\nimport {SafeCast} from \\\"./SafeCast.sol\\\";\\n\\n/**\\n * @dev Standard signed math utilities missing in the Solidity language.\\n */\\nlibrary SignedMath {\\n    /**\\n     * @dev Branchless ternary evaluation for `a ? b : c`. Gas costs are constant.\\n     *\\n     * IMPORTANT: This function may reduce bytecode size and consume less gas when used standalone.\\n     * However, the compiler may optimize Solidity ternary operations (i.e. `a ? b : c`) to only compute\\n     * one branch when needed, making this function more expensive.\\n     */\\n    function ternary(bool condition, int256 a, int256 b) internal pure returns (int256) {\\n        unchecked {\\n            // branchless ternary works because:\\n            // b ^ (a ^ b) == a\\n            // b ^ 0 == b\\n            return b ^ ((a ^ b) * int256(SafeCast.toUint(condition)));\\n        }\\n    }\\n\\n    /**\\n     * @dev Returns the largest of two signed numbers.\\n     */\\n    function max(int256 a, int256 b) internal pure returns (int256) {\\n        return ternary(a > b, a, b);\\n    }\\n\\n    /**\\n     * @dev Returns the smallest of two signed numbers.\\n     */\\n    function min(int256 a, int256 b) internal pure returns (int256) {\\n        return ternary(a < b, a, b);\\n    }\\n\\n    /**\\n     * @dev Returns the average of two signed numbers without overflow.\\n     * The result is rounded towards zero.\\n     */\\n    function average(int256 a, int256 b) internal pure returns (int256) {\\n        // Formula from the book \\\"Hacker's Delight\\\"\\n        int256 x = (a & b) + ((a ^ b) >> 1);\\n        return x + (int256(uint256(x) >> 255) & (a ^ b));\\n    }\\n\\n    /**\\n     * @dev Returns the absolute unsigned value of a signed value.\\n     */\\n    function abs(int256 n) internal pure returns (uint256) {\\n        unchecked {\\n            // Formula from the \\\"Bit Twiddling Hacks\\\" by Sean Eron Anderson.\\n            // Since `n` is a signed integer, the generated bytecode will use the SAR opcode to perform the right shift,\\n            // taking advantage of the most significant (or \\\"sign\\\" bit) in two's complement representation.\\n            // This opcode adds new most significant bits set to the value of the previous most significant bit. As a result,\\n            // the mask will either be `bytes32(0)` (if n is positive) or `~bytes32(0)` (if n is negative).\\n            int256 mask = n >> 255;\\n\\n            // A `bytes32(0)` mask leaves the input unchanged, while a `~bytes32(0)` mask complements it.\\n            return uint256((n + mask) ^ mask);\\n        }\\n    }\\n}\\n\"},\"@openzeppelin/contracts/utils/math/SafeCast.sol\":{\"content\":\"// SPDX-License-Identifier: MIT\\n// OpenZeppelin Contracts (last updated v5.1.0) (utils/math/SafeCast.sol)\\n// This file was procedurally generated from scripts/generate/templates/SafeCast.js.\\n\\npragma solidity ^0.8.20;\\n\\n/**\\n * @dev Wrappers over Solidity's uintXX/intXX/bool casting operators with added overflow\\n * checks.\\n *\\n * Downcasting from uint256/int256 in Solidity does not revert on overflow. This can\\n * easily result in undesired exploitation or bugs, since developers usually\\n * assume that overflows raise errors. `SafeCast` restores this intuition by\\n * reverting the transaction when such an operation overflows.\\n *\\n * Using this library instead of the unchecked operations eliminates an entire\\n * class of bugs, so it's recommended to use it always.\\n */\\nlibrary SafeCast {\\n    /**\\n     * @dev Value doesn't fit in an uint of `bits` size.\\n     */\\n    error SafeCastOverflowedUintDowncast(uint8 bits, uint256 value);\\n\\n    /**\\n     * @dev An int value doesn't fit in an uint of `bits` size.\\n     */\\n    error SafeCastOverflowedIntToUint(int256 value);\\n\\n    /**\\n     * @dev Value doesn't fit in an int of `bits` size.\\n     */\\n    error SafeCastOverflowedIntDowncast(uint8 bits, int256 value);\\n\\n    /**\\n     * @dev An uint value doesn't fit in an int of `bits` size.\\n     */\\n    error SafeCastOverflowedUintToInt(uint256 value);\\n\\n    /**\\n     * @dev Returns the downcasted uint248 from uint256, reverting on\\n     * overflow (when the input is greater than largest uint248).\\n     *\\n     * Counterpart to Solidity's `uint248` operator.\\n     *\\n     * Requirements:\\n     *\\n     * - input must fit into 248 bits\\n     */\\n    function toUint248(uint256 value) internal pure returns (uint248) {\\n        if (value > type(uint248).max) {\\n            revert SafeCastOverflowedUintDowncast(248, value);\\n        }\\n        return uint248(value);\\n    }\\n\\n    /**\\n     * @dev Returns the downcasted uint240 from uint256, reverting on\\n     * overflow (when the input is greater than largest uint240).\\n     *\\n     * Counterpart to Solidity's `uint240` operator.\\n     *\\n     * Requirements:\\n     *\\n     * - input must fit into 240 bits\\n     */\\n    function toUint240(uint256 value) internal pure returns (uint240) {\\n        if (value > type(uint240).max) {\\n            revert SafeCastOverflowedUintDowncast(240, value);\\n        }\\n        return uint240(value);\\n    }\\n\\n    /**\\n     * @dev Returns the downcasted uint232 from uint256, reverting on\\n     * overflow (when the input is greater than largest uint232).\\n     *\\n     * Counterpart to Solidity's `uint232` operator.\\n     *\\n     * Requirements:\\n     *\\n     * - input must fit into 232 bits\\n     */\\n    function toUint232(uint256 value) internal pure returns (uint232) {\\n        if (value > type(uint232).max) {\\n            revert SafeCastOverflowedUintDowncast(232, value);\\n        }\\n        return uint232(value);\\n    }\\n\\n    /**\\n     * @dev Returns the downcasted uint224 from uint256, reverting on\\n     * overflow (when the input is greater than largest uint224).\\n     *\\n     * Counterpart to Solidity's `uint224` operator.\\n     *\\n     * Requirements:\\n     *\\n     * - input must fit into 224 bits\\n     */\\n    function toUint224(uint256 value) internal pure returns (uint224) {\\n        if (value > type(uint224).max) {\\n            revert SafeCastOverflowedUintDowncast(224, value);\\n        }\\n        return uint224(value);\\n    }\\n\\n    /**\\n     * @dev Returns the downcasted uint216 from uint256, reverting on\\n     * overflow (when the input is greater than largest uint216).\\n     *\\n     * Counterpart to Solidity's `uint216` operator.\\n     *\\n     * Requirements:\\n     *\\n     * - input must fit into 216 bits\\n     */\\n    function toUint216(uint256 value) internal pure returns (uint216) {\\n        if (value > type(uint216).max) {\\n            revert SafeCastOverflowedUintDowncast(216, value);\\n        }\\n        return uint216(value);\\n    }\\n\\n    /**\\n     * @dev Returns the downcasted uint208 from uint256, reverting on\\n     * overflow (when the input is greater than largest uint208).\\n     *\\n     * Counterpart to Solidity's `uint208` operator.\\n     *\\n     * Requirements:\\n     *\\n     * - input must fit into 208 bits\\n     */\\n    function toUint208(uint256 value) internal pure returns (uint208) {\\n        if (value > type(uint208).max) {\\n            revert SafeCastOverflowedUintDowncast(208, value);\\n        }\\n        return uint208(value);\\n    }\\n\\n    /**\\n     * @dev Returns the downcasted uint200 from uint256, reverting on\\n     * overflow (when the input is greater than largest uint200).\\n     *\\n     * Counterpart to Solidity's `uint200` operator.\\n     *\\n     * Requirements:\\n     *\\n     * - input must fit into 200 bits\\n     */\\n    function toUint200(uint256 value) internal pure returns (uint200) {\\n        if (value > type(uint200).max) {\\n            revert SafeCastOverflowedUintDowncast(200, value);\\n        }\\n        return uint200(value);\\n    }\\n\\n    /**\\n     * @dev Returns the downcasted uint192 from uint256, reverting on\\n     * overflow (when the input is greater than largest uint192).\\n     *\\n     * Counterpart to Solidity's `uint192` operator.\\n     *\\n     * Requirements:\\n     *\\n     * - input must fit into 192 bits\\n     */\\n    function toUint192(uint256 value) internal pure returns (uint192) {\\n        if (value > type(uint192).max) {\\n            revert SafeCastOverflowedUintDowncast(192, value);\\n        }\\n        return uint192(value);\\n    }\\n\\n    /**\\n     * @dev Returns the downcasted uint184 from uint256, reverting on\\n     * overflow (when the input is greater than largest uint184).\\n     *\\n     * Counterpart to Solidity's `uint184` operator.\\n     *\\n     * Requirements:\\n     *\\n     * - input must fit into 184 bits\\n     */\\n    function toUint184(uint256 value) internal pure returns (uint184) {\\n        if (value > type(uint184).max) {\\n            revert SafeCastOverflowedUintDowncast(184, value);\\n        }\\n        return uint184(value);\\n    }\\n\\n    /**\\n     * @dev Returns the downcasted uint176 from uint256, reverting on\\n     * overflow (when the input is greater than largest uint176).\\n     *\\n     * Counterpart to Solidity's `uint176` operator.\\n     *\\n     * Requirements:\\n     *\\n     * - input must fit into 176 bits\\n     */\\n    function toUint176(uint256 value) internal pure returns (uint176) {\\n        if (value > type(uint176).max) {\\n            revert SafeCastOverflowedUintDowncast(176, value);\\n        }\\n        return uint176(value);\\n    }\\n\\n    /**\\n     * @dev Returns the downcasted uint168 from uint256, reverting on\\n     * overflow (when the input is greater than largest uint168).\\n     *\\n     * Counterpart to Solidity's `uint168` operator.\\n     *\\n     * Requirements:\\n     *\\n     * - input must fit into 168 bits\\n     */\\n    function toUint168(uint256 value) internal pure returns (uint168) {\\n        if (value > type(uint168).max) {\\n            revert SafeCastOverflowedUintDowncast(168, value);\\n        }\\n        return uint168(value);\\n    }\\n\\n    /**\\n     * @dev Returns the downcasted uint160 from uint256, reverting on\\n     * overflow (when the input is greater than largest uint160).\\n     *\\n     * Counterpart to Solidity's `uint160` operator.\\n     *\\n     * Requirements:\\n     *\\n     * - input must fit into 160 bits\\n     */\\n    function toUint160(uint256 value) internal pure returns (uint160) {\\n        if (value > type(uint160).max) {\\n            revert SafeCastOverflowedUintDowncast(160, value);\\n        }\\n        return uint160(value);\\n    }\\n\\n    /**\\n     * @dev Returns the downcasted uint152 from uint256, reverting on\\n     * overflow (when the input is greater than largest uint152).\\n     *\\n     * Counterpart to Solidity's `uint152` operator.\\n     *\\n     * Requirements:\\n     *\\n     * - input must fit into 152 bits\\n     */\\n    function toUint152(uint256 value) internal pure returns (uint152) {\\n        if (value > type(uint152).max) {\\n            revert SafeCastOverflowedUintDowncast(152, value);\\n        }\\n        return uint152(value);\\n    }\\n\\n    /**\\n     * @dev Returns the downcasted uint144 from uint256, reverting on\\n     * overflow (when the input is greater than largest uint144).\\n     *\\n     * Counterpart to Solidity's `uint144` operator.\\n     *\\n     * Requirements:\\n     *\\n     * - input must fit into 144 bits\\n     */\\n    function toUint144(uint256 value) internal pure returns (uint144) {\\n        if (value > type(uint144).max) {\\n            revert SafeCastOverflowedUintDowncast(144, value);\\n        }\\n        return uint144(value);\\n    }\\n\\n    /**\\n     * @dev Returns the downcasted uint136 from uint256, reverting on\\n     * overflow (when the input is greater than largest uint136).\\n     *\\n     * Counterpart to Solidity's `uint136` operator.\\n     *\\n     * Requirements:\\n     *\\n     * - input must fit into 136 bits\\n     */\\n    function toUint136(uint256 value) internal pure returns (uint136) {\\n        if (value > type(uint136).max) {\\n            revert SafeCastOverflowedUintDowncast(136, value);\\n        }\\n        return uint136(value);\\n    }\\n\\n    /**\\n     * @dev Returns the downcasted uint128 from uint256, reverting on\\n     * overflow (when the input is greater than largest uint128).\\n     *\\n     * Counterpart to Solidity's `uint128` operator.\\n     *\\n     * Requirements:\\n     *\\n     * - input must fit into 128 bits\\n     */\\n    function toUint128(uint256 value) internal pure returns (uint128) {\\n        if (value > type(uint128).max) {\\n            revert SafeCastOverflowedUintDowncast(128, value);\\n        }\\n        return uint128(value);\\n    }\\n\\n    /**\\n     * @dev Returns the downcasted uint120 from uint256, reverting on\\n     * overflow (when the input is greater than largest uint120).\\n     *\\n     * Counterpart to Solidity's `uint120` operator.\\n     *\\n     * Requirements:\\n     *\\n     * - input must fit into 120 bits\\n     */\\n    function toUint120(uint256 value) internal pure returns (uint120) {\\n        if (value > type(uint120).max) {\\n            revert SafeCastOverflowedUintDowncast(120, value);\\n        }\\n        return uint120(value);\\n    }\\n\\n    /**\\n     * @dev Returns the downcasted uint112 from uint256, reverting on\\n     * overflow (when the input is greater than largest uint112).\\n     *\\n     * Counterpart to Solidity's `uint112` operator.\\n     *\\n     * Requirements:\\n     *\\n     * - input must fit into 112 bits\\n     */\\n    function toUint112(uint256 value) internal pure returns (uint112) {\\n        if (value > type(uint112).max) {\\n            revert SafeCastOverflowedUintDowncast(112, value);\\n        }\\n        return uint112(value);\\n    }\\n\\n    /**\\n     * @dev Returns the downcasted uint104 from uint256, reverting on\\n     * overflow (when the input is greater than largest uint104).\\n     *\\n     * Counterpart to Solidity's `uint104` operator.\\n     *\\n     * Requirements:\\n     *\\n     * - input must fit into 104 bits\\n     */\\n    function toUint104(uint256 value) internal pure returns (uint104) {\\n        if (value > type(uint104).max) {\\n            revert SafeCastOverflowedUintDowncast(104, value);\\n        }\\n        return uint104(value);\\n    }\\n\\n    /**\\n     * @dev Returns the downcasted uint96 from uint256, reverting on\\n     * overflow (when the input is greater than largest uint96).\\n     *\\n     * Counterpart to Solidity's `uint96` operator.\\n     *\\n     * Requirements:\\n     *\\n     * - input must fit into 96 bits\\n     */\\n    function toUint96(uint256 value) internal pure returns (uint96) {\\n        if (value > type(uint96).max) {\\n            revert SafeCastOverflowedUintDowncast(96, value);\\n        }\\n        return uint96(value);\\n    }\\n\\n    /**\\n     * @dev Returns the downcasted uint88 from uint256, reverting on\\n     * overflow (when the input is greater than largest uint88).\\n     *\\n     * Counterpart to Solidity's `uint88` operator.\\n     *\\n     * Requirements:\\n     *\\n     * - input must fit into 88 bits\\n     */\\n    function toUint88(uint256 value) internal pure returns (uint88) {\\n        if (value > type(uint88).max) {\\n            revert SafeCastOverflowedUintDowncast(88, value);\\n        }\\n        return uint88(value);\\n    }\\n\\n    /**\\n     * @dev Returns the downcasted uint80 from uint256, reverting on\\n     * overflow (when the input is greater than largest uint80).\\n     *\\n     * Counterpart to Solidity's `uint80` operator.\\n     *\\n     * Requirements:\\n     *\\n     * - input must fit into 80 bits\\n     */\\n    function toUint80(uint256 value) internal pure returns (uint80) {\\n        if (value > type(uint80).max) {\\n            revert SafeCastOverflowedUintDowncast(80, value);\\n        }\\n        return uint80(value);\\n    }\\n\\n    /**\\n     * @dev Returns the downcasted uint72 from uint256, reverting on\\n     * overflow (when the input is greater than largest uint72).\\n     *\\n     * Counterpart to Solidity's `uint72` operator.\\n     *\\n     * Requirements:\\n     *\\n     * - input must fit into 72 bits\\n     */\\n    function toUint72(uint256 value) internal pure returns (uint72) {\\n        if (value > type(uint72).max) {\\n            revert SafeCastOverflowedUintDowncast(72, value);\\n        }\\n        return uint72(value);\\n    }\\n\\n    /**\\n     * @dev Returns the downcasted uint64 from uint256, reverting on\\n     * overflow (when the input is greater than largest uint64).\\n     *\\n     * Counterpart to Solidity's `uint64` operator.\\n     *\\n     * Requirements:\\n     *\\n     * - input must fit into 64 bits\\n     */\\n    function toUint64(uint256 value) internal pure returns (uint64) {\\n        if (value > type(uint64).max) {\\n            revert SafeCastOverflowedUintDowncast(64, value);\\n        }\\n        return uint64(value);\\n    }\\n\\n    /**\\n     * @dev Returns the downcasted uint56 from uint256, reverting on\\n     * overflow (when the input is greater than largest uint56).\\n     *\\n     * Counterpart to Solidity's `uint56` operator.\\n     *\\n     * Requirements:\\n     *\\n     * - input must fit into 56 bits\\n     */\\n    function toUint56(uint256 value) internal pure returns (uint56) {\\n        if (value > type(uint56).max) {\\n            revert SafeCastOverflowedUintDowncast(56, value);\\n        }\\n        return uint56(value);\\n    }\\n\\n    /**\\n     * @dev Returns the downcasted uint48 from uint256, reverting on\\n     * overflow (when the input is greater than largest uint48).\\n     *\\n     * Counterpart to Solidity's `uint48` operator.\\n     *\\n     * Requirements:\\n     *\\n     * - input must fit into 48 bits\\n     */\\n    function toUint48(uint256 value) internal pure returns (uint48) {\\n        if (value > type(uint48).max) {\\n            revert SafeCastOverflowedUintDowncast(48, value);\\n        }\\n        return uint48(value);\\n    }\\n\\n    /**\\n     * @dev Returns the downcasted uint40 from uint256, reverting on\\n     * overflow (when the input is greater than largest uint40).\\n     *\\n     * Counterpart to Solidity's `uint40` operator.\\n     *\\n     * Requirements:\\n     *\\n     * - input must fit into 40 bits\\n     */\\n    function toUint40(uint256 value) internal pure returns (uint40) {\\n        if (value > type(uint40).max) {\\n            revert SafeCastOverflowedUintDowncast(40, value);\\n        }\\n        return uint40(value);\\n    }\\n\\n    /**\\n     * @dev Returns the downcasted uint32 from uint256, reverting on\\n     * overflow (when the input is greater than largest uint32).\\n     *\\n     * Counterpart to Solidity's `uint32` operator.\\n     *\\n     * Requirements:\\n     *\\n     * - input must fit into 32 bits\\n     */\\n    function toUint32(uint256 value) internal pure returns (uint32) {\\n        if (value > type(uint32).max) {\\n            revert SafeCastOverflowedUintDowncast(32, value);\\n        }\\n        return uint32(value);\\n    }\\n\\n    /**\\n     * @dev Returns the downcasted uint24 from uint256, reverting on\\n     * overflow (when the input is greater than largest uint24).\\n     *\\n     * Counterpart to Solidity's `uint24` operator.\\n     *\\n     * Requirements:\\n     *\\n     * - input must fit into 24 bits\\n     */\\n    function toUint24(uint256 value) internal pure returns (uint24) {\\n        if (value > type(uint24).max) {\\n            revert SafeCastOverflowedUintDowncast(24, value);\\n        }\\n        return uint24(value);\\n    }\\n\\n    /**\\n     * @dev Returns the downcasted uint16 from uint256, reverting on\\n     * overflow (when the input is greater than largest uint16).\\n     *\\n     * Counterpart to Solidity's `uint16` operator.\\n     *\\n     * Requirements:\\n     *\\n     * - input must fit into 16 bits\\n     */\\n    function toUint16(uint256 value) internal pure returns (uint16) {\\n        if (value > type(uint16).max) {\\n            revert SafeCastOverflowedUintDowncast(16, value);\\n        }\\n        return uint16(value);\\n    }\\n\\n    /**\\n     * @dev Returns the downcasted uint8 from uint256, reverting on\\n     * overflow (when the input is greater than largest uint8).\\n     *\\n     * Counterpart to Solidity's `uint8` operator.\\n     *\\n     * Requirements:\\n     *\\n     * - input must fit into 8 bits\\n     */\\n    function toUint8(uint256 value) internal pure returns (uint8) {\\n        if (value > type(uint8).max) {\\n            revert SafeCastOverflowedUintDowncast(8, value);\\n        }\\n        return uint8(value);\\n    }\\n\\n    /**\\n     * @dev Converts a signed int256 into an unsigned uint256.\\n     *\\n     * Requirements:\\n     *\\n     * - input must be greater than or equal to 0.\\n     */\\n    function toUint256(int256 value) internal pure returns (uint256) {\\n        if (value < 0) {\\n            revert SafeCastOverflowedIntToUint(value);\\n        }\\n        return uint256(value);\\n    }\\n\\n    /**\\n     * @dev Returns the downcasted int248 from int256, reverting on\\n     * overflow (when the input is less than smallest int248 or\\n     * greater than largest int248).\\n     *\\n     * Counterpart to Solidity's `int248` operator.\\n     *\\n     * Requirements:\\n     *\\n     * - input must fit into 248 bits\\n     */\\n    function toInt248(int256 value) internal pure returns (int248 downcasted) {\\n        downcasted = int248(value);\\n        if (downcasted != value) {\\n            revert SafeCastOverflowedIntDowncast(248, value);\\n        }\\n    }\\n\\n    /**\\n     * @dev Returns the downcasted int240 from int256, reverting on\\n     * overflow (when the input is less than smallest int240 or\\n     * greater than largest int240).\\n     *\\n     * Counterpart to Solidity's `int240` operator.\\n     *\\n     * Requirements:\\n     *\\n     * - input must fit into 240 bits\\n     */\\n    function toInt240(int256 value) internal pure returns (int240 downcasted) {\\n        downcasted = int240(value);\\n        if (downcasted != value) {\\n            revert SafeCastOverflowedIntDowncast(240, value);\\n        }\\n    }\\n\\n    /**\\n     * @dev Returns the downcasted int232 from int256, reverting on\\n     * overflow (when the input is less than smallest int232 or\\n     * greater than largest int232).\\n     *\\n     * Counterpart to Solidity's `int232` operator.\\n     *\\n     * Requirements:\\n     *\\n     * - input must fit into 232 bits\\n     */\\n    function toInt232(int256 value) internal pure returns (int232 downcasted) {\\n        downcasted = int232(value);\\n        if (downcasted != value) {\\n            revert SafeCastOverflowedIntDowncast(232, value);\\n        }\\n    }\\n\\n    /**\\n     * @dev Returns the downcasted int224 from int256, reverting on\\n     * overflow (when the input is less than smallest int224 or\\n     * greater than largest int224).\\n     *\\n     * Counterpart to Solidity's `int224` operator.\\n     *\\n     * Requirements:\\n     *\\n     * - input must fit into 224 bits\\n     */\\n    function toInt224(int256 value) internal pure returns (int224 downcasted) {\\n        downcasted = int224(value);\\n        if (downcasted != value) {\\n            revert SafeCastOverflowedIntDowncast(224, value);\\n        }\\n    }\\n\\n    /**\\n     * @dev Returns the downcasted int216 from int256, reverting on\\n     * overflow (when the input is less than smallest int216 or\\n     * greater than largest int216).\\n     *\\n     * Counterpart to Solidity's `int216` operator.\\n     *\\n     * Requirements:\\n     *\\n     * - input must fit into 216 bits\\n     */\\n    function toInt216(int256 value) internal pure returns (int216 downcasted) {\\n        downcasted = int216(value);\\n        if (downcasted != value) {\\n            revert SafeCastOverflowedIntDowncast(216, value);\\n        }\\n    }\\n\\n    /**\\n     * @dev Returns the downcasted int208 from int256, reverting on\\n     * overflow (when the input is less than smallest int208 or\\n     * greater than largest int208).\\n     *\\n     * Counterpart to Solidity's `int208` operator.\\n     *\\n     * Requirements:\\n     *\\n     * - input must fit into 208 bits\\n     */\\n    function toInt208(int256 value) internal pure returns (int208 downcasted) {\\n        downcasted = int208(value);\\n        if (downcasted != value) {\\n            revert SafeCastOverflowedIntDowncast(208, value);\\n        }\\n    }\\n\\n    /**\\n     * @dev Returns the downcasted int200 from int256, reverting on\\n     * overflow (when the input is less than smallest int200 or\\n     * greater than largest int200).\\n     *\\n     * Counterpart to Solidity's `int200` operator.\\n     *\\n     * Requirements:\\n     *\\n     * - input must fit into 200 bits\\n     */\\n    function toInt200(int256 value) internal pure returns (int200 downcasted) {\\n        downcasted = int200(value);\\n        if (downcasted != value) {\\n            revert SafeCastOverflowedIntDowncast(200, value);\\n        }\\n    }\\n\\n    /**\\n     * @dev Returns the downcasted int192 from int256, reverting on\\n     * overflow (when the input is less than smallest int192 or\\n     * greater than largest int192).\\n     *\\n     * Counterpart to Solidity's `int192` operator.\\n     *\\n     * Requirements:\\n     *\\n     * - input must fit into 192 bits\\n     */\\n    function toInt192(int256 value) internal pure returns (int192 downcasted) {\\n        downcasted = int192(value);\\n        if (downcasted != value) {\\n            revert SafeCastOverflowedIntDowncast(192, value);\\n        }\\n    }\\n\\n    /**\\n     * @dev Returns the downcasted int184 from int256, reverting on\\n     * overflow (when the input is less than smallest int184 or\\n     * greater than largest int184).\\n     *\\n     * Counterpart to Solidity's `int184` operator.\\n     *\\n     * Requirements:\\n     *\\n     * - input must fit into 184 bits\\n     */\\n    function toInt184(int256 value) internal pure returns (int184 downcasted) {\\n        downcasted = int184(value);\\n        if (downcasted != value) {\\n            revert SafeCastOverflowedIntDowncast(184, value);\\n        }\\n    }\\n\\n    /**\\n     * @dev Returns the downcasted int176 from int256, reverting on\\n     * overflow (when the input is less than smallest int176 or\\n     * greater than largest int176).\\n     *\\n     * Counterpart to Solidity's `int176` operator.\\n     *\\n     * Requirements:\\n     *\\n     * - input must fit into 176 bits\\n     */\\n    function toInt176(int256 value) internal pure returns (int176 downcasted) {\\n        downcasted = int176(value);\\n        if (downcasted != value) {\\n            revert SafeCastOverflowedIntDowncast(176, value);\\n        }\\n    }\\n\\n    /**\\n     * @dev Returns the downcasted int168 from int256, reverting on\\n     * overflow (when the input is less than smallest int168 or\\n     * greater than largest int168).\\n     *\\n     * Counterpart to Solidity's `int168` operator.\\n     *\\n     * Requirements:\\n     *\\n     * - input must fit into 168 bits\\n     */\\n    function toInt168(int256 value) internal pure returns (int168 downcasted) {\\n        downcasted = int168(value);\\n        if (downcasted != value) {\\n            revert SafeCastOverflowedIntDowncast(168, value);\\n        }\\n    }\\n\\n    /**\\n     * @dev Returns the downcasted int160 from int256, reverting on\\n     * overflow (when the input is less than smallest int160 or\\n     * greater than largest int160).\\n     *\\n     * Counterpart to Solidity's `int160` operator.\\n     *\\n     * Requirements:\\n     *\\n     * - input must fit into 160 bits\\n     */\\n    function toInt160(int256 value) internal pure returns (int160 downcasted) {\\n        downcasted = int160(value);\\n        if (downcasted != value) {\\n            revert SafeCastOverflowedIntDowncast(160, value);\\n        }\\n    }\\n\\n    /**\\n     * @dev Returns the downcasted int152 from int256, reverting on\\n     * overflow (when the input is less than smallest int152 or\\n     * greater than largest int152).\\n     *\\n     * Counterpart to Solidity's `int152` operator.\\n     *\\n     * Requirements:\\n     *\\n     * - input must fit into 152 bits\\n     */\\n    function toInt152(int256 value) internal pure returns (int152 downcasted) {\\n        downcasted = int152(value);\\n        if (downcasted != value) {\\n            revert SafeCastOverflowedIntDowncast(152, value);\\n        }\\n    }\\n\\n    /**\\n     * @dev Returns the downcasted int144 from int256, reverting on\\n     * overflow (when the input is less than smallest int144 or\\n     * greater than largest int144).\\n     *\\n     * Counterpart to Solidity's `int144` operator.\\n     *\\n     * Requirements:\\n     *\\n     * - input must fit into 144 bits\\n     */\\n    function toInt144(int256 value) internal pure returns (int144 downcasted) {\\n        downcasted = int144(value);\\n        if (downcasted != value) {\\n            revert SafeCastOverflowedIntDowncast(144, value);\\n        }\\n    }\\n\\n    /**\\n     * @dev Returns the downcasted int136 from int256, reverting on\\n     * overflow (when the input is less than smallest int136 or\\n     * greater than largest int136).\\n     *\\n     * Counterpart to Solidity's `int136` operator.\\n     *\\n     * Requirements:\\n     *\\n     * - input must fit into 136 bits\\n     */\\n    function toInt136(int256 value) internal pure returns (int136 downcasted) {\\n        downcasted = int136(value);\\n        if (downcasted != value) {\\n            revert SafeCastOverflowedIntDowncast(136, value);\\n        }\\n    }\\n\\n    /**\\n     * @dev Returns the downcasted int128 from int256, reverting on\\n     * overflow (when the input is less than smallest int128 or\\n     * greater than largest int128).\\n     *\\n     * Counterpart to Solidity's `int128` operator.\\n     *\\n     * Requirements:\\n     *\\n     * - input must fit into 128 bits\\n     */\\n    function toInt128(int256 value) internal pure returns (int128 downcasted) {\\n        downcasted = int128(value);\\n        if (downcasted != value) {\\n            revert SafeCastOverflowedIntDowncast(128, value);\\n        }\\n    }\\n\\n    /**\\n     * @dev Returns the downcasted int120 from int256, reverting on\\n     * overflow (when the input is less than smallest int120 or\\n     * greater than largest int120).\\n     *\\n     * Counterpart to Solidity's `int120` operator.\\n     *\\n     * Requirements:\\n     *\\n     * - input must fit into 120 bits\\n     */\\n    function toInt120(int256 value) internal pure returns (int120 downcasted) {\\n        downcasted = int120(value);\\n        if (downcasted != value) {\\n            revert SafeCastOverflowedIntDowncast(120, value);\\n        }\\n    }\\n\\n    /**\\n     * @dev Returns the downcasted int112 from int256, reverting on\\n     * overflow (when the input is less than smallest int112 or\\n     * greater than largest int112).\\n     *\\n     * Counterpart to Solidity's `int112` operator.\\n     *\\n     * Requirements:\\n     *\\n     * - input must fit into 112 bits\\n     */\\n    function toInt112(int256 value) internal pure returns (int112 downcasted) {\\n        downcasted = int112(value);\\n        if (downcasted != value) {\\n            revert SafeCastOverflowedIntDowncast(112, value);\\n        }\\n    }\\n\\n    /**\\n     * @dev Returns the downcasted int104 from int256, reverting on\\n     * overflow (when the input is less than smallest int104 or\\n     * greater than largest int104).\\n     *\\n     * Counterpart to Solidity's `int104` operator.\\n     *\\n     * Requirements:\\n     *\\n     * - input must fit into 104 bits\\n     */\\n    function toInt104(int256 value) internal pure returns (int104 downcasted) {\\n        downcasted = int104(value);\\n        if (downcasted != value) {\\n            revert SafeCastOverflowedIntDowncast(104, value);\\n        }\\n    }\\n\\n    /**\\n     * @dev Returns the downcasted int96 from int256, reverting on\\n     * overflow (when the input is less than smallest int96 or\\n     * greater than largest int96).\\n     *\\n     * Counterpart to Solidity's `int96` operator.\\n     *\\n     * Requirements:\\n     *\\n     * - input must fit into 96 bits\\n     */\\n    function toInt96(int256 value) internal pure returns (int96 downcasted) {\\n        downcasted = int96(value);\\n        if (downcasted != value) {\\n            revert SafeCastOverflowedIntDowncast(96, value);\\n        }\\n    }\\n\\n    /**\\n     * @dev Returns the downcasted int88 from int256, reverting on\\n     * overflow (when the input is less than smallest int88 or\\n     * greater than largest int88).\\n     *\\n     * Counterpart to Solidity's `int88` operator.\\n     *\\n     * Requirements:\\n     *\\n     * - input must fit into 88 bits\\n     */\\n    function toInt88(int256 value) internal pure returns (int88 downcasted) {\\n        downcasted = int88(value);\\n        if (downcasted != value) {\\n            revert SafeCastOverflowedIntDowncast(88, value);\\n        }\\n    }\\n\\n    /**\\n     * @dev Returns the downcasted int80 from int256, reverting on\\n     * overflow (when the input is less than smallest int80 or\\n     * greater than largest int80).\\n     *\\n     * Counterpart to Solidity's `int80` operator.\\n     *\\n     * Requirements:\\n     *\\n     * - input must fit into 80 bits\\n     */\\n    function toInt80(int256 value) internal pure returns (int80 downcasted) {\\n        downcasted = int80(value);\\n        if (downcasted != value) {\\n            revert SafeCastOverflowedIntDowncast(80, value);\\n        }\\n    }\\n\\n    /**\\n     * @dev Returns the downcasted int72 from int256, reverting on\\n     * overflow (when the input is less than smallest int72 or\\n     * greater than largest int72).\\n     *\\n     * Counterpart to Solidity's `int72` operator.\\n     *\\n     * Requirements:\\n     *\\n     * - input must fit into 72 bits\\n     */\\n    function toInt72(int256 value) internal pure returns (int72 downcasted) {\\n        downcasted = int72(value);\\n        if (downcasted != value) {\\n            revert SafeCastOverflowedIntDowncast(72, value);\\n        }\\n    }\\n\\n    /**\\n     * @dev Returns the downcasted int64 from int256, reverting on\\n     * overflow (when the input is less than smallest int64 or\\n     * greater than largest int64).\\n     *\\n     * Counterpart to Solidity's `int64` operator.\\n     *\\n     * Requirements:\\n     *\\n     * - input must fit into 64 bits\\n     */\\n    function toInt64(int256 value) internal pure returns (int64 downcasted) {\\n        downcasted = int64(value);\\n        if (downcasted != value) {\\n            revert SafeCastOverflowedIntDowncast(64, value);\\n        }\\n    }\\n\\n    /**\\n     * @dev Returns the downcasted int56 from int256, reverting on\\n     * overflow (when the input is less than smallest int56 or\\n     * greater than largest int56).\\n     *\\n     * Counterpart to Solidity's `int56` operator.\\n     *\\n     * Requirements:\\n     *\\n     * - input must fit into 56 bits\\n     */\\n    function toInt56(int256 value) internal pure returns (int56 downcasted) {\\n        downcasted = int56(value);\\n        if (downcasted != value) {\\n            revert SafeCastOverflowedIntDowncast(56, value);\\n        }\\n    }\\n\\n    /**\\n     * @dev Returns the downcasted int48 from int256, reverting on\\n     * overflow (when the input is less than smallest int48 or\\n     * greater than largest int48).\\n     *\\n     * Counterpart to Solidity's `int48` operator.\\n     *\\n     * Requirements:\\n     *\\n     * - input must fit into 48 bits\\n     */\\n    function toInt48(int256 value) internal pure returns (int48 downcasted) {\\n        downcasted = int48(value);\\n        if (downcasted != value) {\\n            revert SafeCastOverflowedIntDowncast(48, value);\\n        }\\n    }\\n\\n    /**\\n     * @dev Returns the downcasted int40 from int256, reverting on\\n     * overflow (when the input is less than smallest int40 or\\n     * greater than largest int40).\\n     *\\n     * Counterpart to Solidity's `int40` operator.\\n     *\\n     * Requirements:\\n     *\\n     * - input must fit into 40 bits\\n     */\\n    function toInt40(int256 value) internal pure returns (int40 downcasted) {\\n        downcasted = int40(value);\\n        if (downcasted != value) {\\n            revert SafeCastOverflowedIntDowncast(40, value);\\n        }\\n    }\\n\\n    /**\\n     * @dev Returns the downcasted int32 from int256, reverting on\\n     * overflow (when the input is less than smallest int32 or\\n     * greater than largest int32).\\n     *\\n     * Counterpart to Solidity's `int32` operator.\\n     *\\n     * Requirements:\\n     *\\n     * - input must fit into 32 bits\\n     */\\n    function toInt32(int256 value) internal pure returns (int32 downcasted) {\\n        downcasted = int32(value);\\n        if (downcasted != value) {\\n            revert SafeCastOverflowedIntDowncast(32, value);\\n        }\\n    }\\n\\n    /**\\n     * @dev Returns the downcasted int24 from int256, reverting on\\n     * overflow (when the input is less than smallest int24 or\\n     * greater than largest int24).\\n     *\\n     * Counterpart to Solidity's `int24` operator.\\n     *\\n     * Requirements:\\n     *\\n     * - input must fit into 24 bits\\n     */\\n    function toInt24(int256 value) internal pure returns (int24 downcasted) {\\n        downcasted = int24(value);\\n        if (downcasted != value) {\\n            revert SafeCastOverflowedIntDowncast(24, value);\\n        }\\n    }\\n\\n    /**\\n     * @dev Returns the downcasted int16 from int256, reverting on\\n     * overflow (when the input is less than smallest int16 or\\n     * greater than largest int16).\\n     *\\n     * Counterpart to Solidity's `int16` operator.\\n     *\\n     * Requirements:\\n     *\\n     * - input must fit into 16 bits\\n     */\\n    function toInt16(int256 value) internal pure returns (int16 downcasted) {\\n        downcasted = int16(value);\\n        if (downcasted != value) {\\n            revert SafeCastOverflowedIntDowncast(16, value);\\n        }\\n    }\\n\\n    /**\\n     * @dev Returns the downcasted int8 from int256, reverting on\\n     * overflow (when the input is less than smallest int8 or\\n     * greater than largest int8).\\n     *\\n     * Counterpart to Solidity's `int8` operator.\\n     *\\n     * Requirements:\\n     *\\n     * - input must fit into 8 bits\\n     */\\n    function toInt8(int256 value) internal pure returns (int8 downcasted) {\\n        downcasted = int8(value);\\n        if (downcasted != value) {\\n            revert SafeCastOverflowedIntDowncast(8, value);\\n        }\\n    }\\n\\n    /**\\n     * @dev Converts an unsigned uint256 into a signed int256.\\n     *\\n     * Requirements:\\n     *\\n     * - input must be less than or equal to maxInt256.\\n     */\\n    function toInt256(uint256 value) internal pure returns (int256) {\\n        // Note: Unsafe cast below is okay because `type(int256).max` is guaranteed to be positive\\n        if (value > uint256(type(int256).max)) {\\n            revert SafeCastOverflowedUintToInt(value);\\n        }\\n        return int256(value);\\n    }\\n\\n    /**\\n     * @dev Cast a boolean (false or true) to a uint256 (0 or 1) with no jump.\\n     */\\n    function toUint(bool b) internal pure returns (uint256 u) {\\n        assembly (\\\"memory-safe\\\") {\\n            u := iszero(iszero(b))\\n        }\\n    }\\n}\\n\"},\"@openzeppelin/contracts/utils/math/Math.sol\":{\"content\":\"// SPDX-License-Identifier: MIT\\n// OpenZeppelin Contracts (last updated v5.3.0) (utils/math/Math.sol)\\n\\npragma solidity ^0.8.20;\\n\\nimport {Panic} from \\\"../Panic.sol\\\";\\nimport {SafeCast} from \\\"./SafeCast.sol\\\";\\n\\n/**\\n * @dev Standard math utilities missing in the Solidity language.\\n */\\nlibrary Math {\\n    enum Rounding {\\n        Floor, // Toward negative infinity\\n        Ceil, // Toward positive infinity\\n        Trunc, // Toward zero\\n        Expand // Away from zero\\n    }\\n\\n    /**\\n     * @dev Return the 512-bit addition of two uint256.\\n     *\\n     * The result is stored in two 256 variables such that sum = high * 2²⁵⁶ + low.\\n     */\\n    function add512(uint256 a, uint256 b) internal pure returns (uint256 high, uint256 low) {\\n        assembly (\\\"memory-safe\\\") {\\n            low := add(a, b)\\n            high := lt(low, a)\\n        }\\n    }\\n\\n    /**\\n     * @dev Return the 512-bit multiplication of two uint256.\\n     *\\n     * The result is stored in two 256 variables such that product = high * 2²⁵⁶ + low.\\n     */\\n    function mul512(uint256 a, uint256 b) internal pure returns (uint256 high, uint256 low) {\\n        // 512-bit multiply [high low] = x * y. Compute the product mod 2²⁵⁶ and mod 2²⁵⁶ - 1, then use\\n        // the Chinese Remainder Theorem to reconstruct the 512 bit result. The result is stored in two 256\\n        // variables such that product = high * 2²⁵⁶ + low.\\n        assembly (\\\"memory-safe\\\") {\\n            let mm := mulmod(a, b, not(0))\\n            low := mul(a, b)\\n            high := sub(sub(mm, low), lt(mm, low))\\n        }\\n    }\\n\\n    /**\\n     * @dev Returns the addition of two unsigned integers, with a success flag (no overflow).\\n     */\\n    function tryAdd(uint256 a, uint256 b) internal pure returns (bool success, uint256 result) {\\n        unchecked {\\n            uint256 c = a + b;\\n            success = c >= a;\\n            result = c * SafeCast.toUint(success);\\n        }\\n    }\\n\\n    /**\\n     * @dev Returns the subtraction of two unsigned integers, with a success flag (no overflow).\\n     */\\n    function trySub(uint256 a, uint256 b) internal pure returns (bool success, uint256 result) {\\n        unchecked {\\n            uint256 c = a - b;\\n            success = c <= a;\\n            result = c * SafeCast.toUint(success);\\n        }\\n    }\\n\\n    /**\\n     * @dev Returns the multiplication of two unsigned integers, with a success flag (no overflow).\\n     */\\n    function tryMul(uint256 a, uint256 b) internal pure returns (bool success, uint256 result) {\\n        unchecked {\\n            uint256 c = a * b;\\n            assembly (\\\"memory-safe\\\") {\\n                // Only true when the multiplication doesn't overflow\\n                // (c / a == b) || (a == 0)\\n                success := or(eq(div(c, a), b), iszero(a))\\n            }\\n            // equivalent to: success ? c : 0\\n            result = c * SafeCast.toUint(success);\\n        }\\n    }\\n\\n    /**\\n     * @dev Returns the division of two unsigned integers, with a success flag (no division by zero).\\n     */\\n    function tryDiv(uint256 a, uint256 b) internal pure returns (bool success, uint256 result) {\\n        unchecked {\\n            success = b > 0;\\n            assembly (\\\"memory-safe\\\") {\\n                // The `DIV` opcode returns zero when the denominator is 0.\\n                result := div(a, b)\\n            }\\n        }\\n    }\\n\\n    /**\\n     * @dev Returns the remainder of dividing two unsigned integers, with a success flag (no division by zero).\\n     */\\n    function tryMod(uint256 a, uint256 b) internal pure returns (bool success, uint256 result) {\\n        unchecked {\\n            success = b > 0;\\n            assembly (\\\"memory-safe\\\") {\\n                // The `MOD` opcode returns zero when the denominator is 0.\\n                result := mod(a, b)\\n            }\\n        }\\n    }\\n\\n    /**\\n     * @dev Unsigned saturating addition, bounds to `2²⁵⁶ - 1` instead of overflowing.\\n     */\\n    function saturatingAdd(uint256 a, uint256 b) internal pure returns (uint256) {\\n        (bool success, uint256 result) = tryAdd(a, b);\\n        return ternary(success, result, type(uint256).max);\\n    }\\n\\n    /**\\n     * @dev Unsigned saturating subtraction, bounds to zero instead of overflowing.\\n     */\\n    function saturatingSub(uint256 a, uint256 b) internal pure returns (uint256) {\\n        (, uint256 result) = trySub(a, b);\\n        return result;\\n    }\\n\\n    /**\\n     * @dev Unsigned saturating multiplication, bounds to `2²⁵⁶ - 1` instead of overflowing.\\n     */\\n    function saturatingMul(uint256 a, uint256 b) internal pure returns (uint256) {\\n        (bool success, uint256 result) = tryMul(a, b);\\n        return ternary(success, result, type(uint256).max);\\n    }\\n\\n    /**\\n     * @dev Branchless ternary evaluation for `a ? b : c`. Gas costs are constant.\\n     *\\n     * IMPORTANT: This function may reduce bytecode size and consume less gas when used standalone.\\n     * However, the compiler may optimize Solidity ternary operations (i.e. `a ? b : c`) to only compute\\n     * one branch when needed, making this function more expensive.\\n     */\\n    function ternary(bool condition, uint256 a, uint256 b) internal pure returns (uint256) {\\n        unchecked {\\n            // branchless ternary works because:\\n            // b ^ (a ^ b) == a\\n            // b ^ 0 == b\\n            return b ^ ((a ^ b) * SafeCast.toUint(condition));\\n        }\\n    }\\n\\n    /**\\n     * @dev Returns the largest of two numbers.\\n     */\\n    function max(uint256 a, uint256 b) internal pure returns (uint256) {\\n        return ternary(a > b, a, b);\\n    }\\n\\n    /**\\n     * @dev Returns the smallest of two numbers.\\n     */\\n    function min(uint256 a, uint256 b) internal pure returns (uint256) {\\n        return ternary(a < b, a, b);\\n    }\\n\\n    /**\\n     * @dev Returns the average of two numbers. The result is rounded towards\\n     * zero.\\n     */\\n    function average(uint256 a, uint256 b) internal pure returns (uint256) {\\n        // (a + b) / 2 can overflow.\\n        return (a & b) + (a ^ b) / 2;\\n    }\\n\\n    /**\\n     * @dev Returns the ceiling of the division of two numbers.\\n     *\\n     * This differs from standard division with `/` in that it rounds towards infinity instead\\n     * of rounding towards zero.\\n     */\\n    function ceilDiv(uint256 a, uint256 b) internal pure returns (uint256) {\\n        if (b == 0) {\\n            // Guarantee the same behavior as in a regular Solidity division.\\n            Panic.panic(Panic.DIVISION_BY_ZERO);\\n        }\\n\\n        // The following calculation ensures accurate ceiling division without overflow.\\n        // Since a is non-zero, (a - 1) / b will not overflow.\\n        // The largest possible result occurs when (a - 1) / b is type(uint256).max,\\n        // but the largest value we can obtain is type(uint256).max - 1, which happens\\n        // when a = type(uint256).max and b = 1.\\n        unchecked {\\n            return SafeCast.toUint(a > 0) * ((a - 1) / b + 1);\\n        }\\n    }\\n\\n    /**\\n     * @dev Calculates floor(x * y / denominator) with full precision. Throws if result overflows a uint256 or\\n     * denominator == 0.\\n     *\\n     * Original credit to Remco Bloemen under MIT license (https://xn--2-umb.com/21/muldiv) with further edits by\\n     * Uniswap Labs also under MIT license.\\n     */\\n    function mulDiv(uint256 x, uint256 y, uint256 denominator) internal pure returns (uint256 result) {\\n        unchecked {\\n            (uint256 high, uint256 low) = mul512(x, y);\\n\\n            // Handle non-overflow cases, 256 by 256 division.\\n            if (high == 0) {\\n                // Solidity will revert if denominator == 0, unlike the div opcode on its own.\\n                // The surrounding unchecked block does not change this fact.\\n                // See https://docs.soliditylang.org/en/latest/control-structures.html#checked-or-unchecked-arithmetic.\\n                return low / denominator;\\n            }\\n\\n            // Make sure the result is less than 2²⁵⁶. Also prevents denominator == 0.\\n            if (denominator <= high) {\\n                Panic.panic(ternary(denominator == 0, Panic.DIVISION_BY_ZERO, Panic.UNDER_OVERFLOW));\\n            }\\n\\n            ///////////////////////////////////////////////\\n            // 512 by 256 division.\\n            ///////////////////////////////////////////////\\n\\n            // Make division exact by subtracting the remainder from [high low].\\n            uint256 remainder;\\n            assembly (\\\"memory-safe\\\") {\\n                // Compute remainder using mulmod.\\n                remainder := mulmod(x, y, denominator)\\n\\n                // Subtract 256 bit number from 512 bit number.\\n                high := sub(high, gt(remainder, low))\\n                low := sub(low, remainder)\\n            }\\n\\n            // Factor powers of two out of denominator and compute largest power of two divisor of denominator.\\n            // Always >= 1. See https://cs.stackexchange.com/q/138556/92363.\\n\\n            uint256 twos = denominator & (0 - denominator);\\n            assembly (\\\"memory-safe\\\") {\\n                // Divide denominator by twos.\\n                denominator := div(denominator, twos)\\n\\n                // Divide [high low] by twos.\\n                low := div(low, twos)\\n\\n                // Flip twos such that it is 2²⁵⁶ / twos. If twos is zero, then it becomes one.\\n                twos := add(div(sub(0, twos), twos), 1)\\n            }\\n\\n            // Shift in bits from high into low.\\n            low |= high * twos;\\n\\n            // Invert denominator mod 2²⁵⁶. Now that denominator is an odd number, it has an inverse modulo 2²⁵⁶ such\\n            // that denominator * inv ≡ 1 mod 2²⁵⁶. Compute the inverse by starting with a seed that is correct for\\n            // four bits. That is, denominator * inv ≡ 1 mod 2⁴.\\n            uint256 inverse = (3 * denominator) ^ 2;\\n\\n            // Use the Newton-Raphson iteration to improve the precision. Thanks to Hensel's lifting lemma, this also\\n            // works in modular arithmetic, doubling the correct bits in each step.\\n            inverse *= 2 - denominator * inverse; // inverse mod 2⁸\\n            inverse *= 2 - denominator * inverse; // inverse mod 2¹⁶\\n            inverse *= 2 - denominator * inverse; // inverse mod 2³²\\n            inverse *= 2 - denominator * inverse; // inverse mod 2⁶⁴\\n            inverse *= 2 - denominator * inverse; // inverse mod 2¹²⁸\\n            inverse *= 2 - denominator * inverse; // inverse mod 2²⁵⁶\\n\\n            // Because the division is now exact we can divide by multiplying with the modular inverse of denominator.\\n            // This will give us the correct result modulo 2²⁵⁶. Since the preconditions guarantee that the outcome is\\n            // less than 2²⁵⁶, this is the final result. We don't need to compute the high bits of the result and high\\n            // is no longer required.\\n            result = low * inverse;\\n            return result;\\n        }\\n    }\\n\\n    /**\\n     * @dev Calculates x * y / denominator with full precision, following the selected rounding direction.\\n     */\\n    function mulDiv(uint256 x, uint256 y, uint256 denominator, Rounding rounding) internal pure returns (uint256) {\\n        return mulDiv(x, y, denominator) + SafeCast.toUint(unsignedRoundsUp(rounding) && mulmod(x, y, denominator) > 0);\\n    }\\n\\n    /**\\n     * @dev Calculates floor(x * y >> n) with full precision. Throws if result overflows a uint256.\\n     */\\n    function mulShr(uint256 x, uint256 y, uint8 n) internal pure returns (uint256 result) {\\n        unchecked {\\n            (uint256 high, uint256 low) = mul512(x, y);\\n            if (high >= 1 << n) {\\n                Panic.panic(Panic.UNDER_OVERFLOW);\\n            }\\n            return (high << (256 - n)) | (low >> n);\\n        }\\n    }\\n\\n    /**\\n     * @dev Calculates x * y >> n with full precision, following the selected rounding direction.\\n     */\\n    function mulShr(uint256 x, uint256 y, uint8 n, Rounding rounding) internal pure returns (uint256) {\\n        return mulShr(x, y, n) + SafeCast.toUint(unsignedRoundsUp(rounding) && mulmod(x, y, 1 << n) > 0);\\n    }\\n\\n    /**\\n     * @dev Calculate the modular multiplicative inverse of a number in Z/nZ.\\n     *\\n     * If n is a prime, then Z/nZ is a field. In that case all elements are inversible, except 0.\\n     * If n is not a prime, then Z/nZ is not a field, and some elements might not be inversible.\\n     *\\n     * If the input value is not inversible, 0 is returned.\\n     *\\n     * NOTE: If you know for sure that n is (big) a prime, it may be cheaper to use Fermat's little theorem and get the\\n     * inverse using `Math.modExp(a, n - 2, n)`. See {invModPrime}.\\n     */\\n    function invMod(uint256 a, uint256 n) internal pure returns (uint256) {\\n        unchecked {\\n            if (n == 0) return 0;\\n\\n            // The inverse modulo is calculated using the Extended Euclidean Algorithm (iterative version)\\n            // Used to compute integers x and y such that: ax + ny = gcd(a, n).\\n            // When the gcd is 1, then the inverse of a modulo n exists and it's x.\\n            // ax + ny = 1\\n            // ax = 1 + (-y)n\\n            // ax ≡ 1 (mod n) # x is the inverse of a modulo n\\n\\n            // If the remainder is 0 the gcd is n right away.\\n            uint256 remainder = a % n;\\n            uint256 gcd = n;\\n\\n            // Therefore the initial coefficients are:\\n            // ax + ny = gcd(a, n) = n\\n            // 0a + 1n = n\\n            int256 x = 0;\\n            int256 y = 1;\\n\\n            while (remainder != 0) {\\n                uint256 quotient = gcd / remainder;\\n\\n                (gcd, remainder) = (\\n                    // The old remainder is the next gcd to try.\\n                    remainder,\\n                    // Compute the next remainder.\\n                    // Can't overflow given that (a % gcd) * (gcd // (a % gcd)) <= gcd\\n                    // where gcd is at most n (capped to type(uint256).max)\\n                    gcd - remainder * quotient\\n                );\\n\\n                (x, y) = (\\n                    // Increment the coefficient of a.\\n                    y,\\n                    // Decrement the coefficient of n.\\n                    // Can overflow, but the result is casted to uint256 so that the\\n                    // next value of y is \\\"wrapped around\\\" to a value between 0 and n - 1.\\n                    x - y * int256(quotient)\\n                );\\n            }\\n\\n            if (gcd != 1) return 0; // No inverse exists.\\n            return ternary(x < 0, n - uint256(-x), uint256(x)); // Wrap the result if it's negative.\\n        }\\n    }\\n\\n    /**\\n     * @dev Variant of {invMod}. More efficient, but only works if `p` is known to be a prime greater than `2`.\\n     *\\n     * From https://en.wikipedia.org/wiki/Fermat%27s_little_theorem[Fermat's little theorem], we know that if p is\\n     * prime, then `a**(p-1) ≡ 1 mod p`. As a consequence, we have `a * a**(p-2) ≡ 1 mod p`, which means that\\n     * `a**(p-2)` is the modular multiplicative inverse of a in Fp.\\n     *\\n     * NOTE: this function does NOT check that `p` is a prime greater than `2`.\\n     */\\n    function invModPrime(uint256 a, uint256 p) internal view returns (uint256) {\\n        unchecked {\\n            return Math.modExp(a, p - 2, p);\\n        }\\n    }\\n\\n    /**\\n     * @dev Returns the modular exponentiation of the specified base, exponent and modulus (b ** e % m)\\n     *\\n     * Requirements:\\n     * - modulus can't be zero\\n     * - underlying staticcall to precompile must succeed\\n     *\\n     * IMPORTANT: The result is only valid if the underlying call succeeds. When using this function, make\\n     * sure the chain you're using it on supports the precompiled contract for modular exponentiation\\n     * at address 0x05 as specified in https://eips.ethereum.org/EIPS/eip-198[EIP-198]. Otherwise,\\n     * the underlying function will succeed given the lack of a revert, but the result may be incorrectly\\n     * interpreted as 0.\\n     */\\n    function modExp(uint256 b, uint256 e, uint256 m) internal view returns (uint256) {\\n        (bool success, uint256 result) = tryModExp(b, e, m);\\n        if (!success) {\\n            Panic.panic(Panic.DIVISION_BY_ZERO);\\n        }\\n        return result;\\n    }\\n\\n    /**\\n     * @dev Returns the modular exponentiation of the specified base, exponent and modulus (b ** e % m).\\n     * It includes a success flag indicating if the operation succeeded. Operation will be marked as failed if trying\\n     * to operate modulo 0 or if the underlying precompile reverted.\\n     *\\n     * IMPORTANT: The result is only valid if the success flag is true. When using this function, make sure the chain\\n     * you're using it on supports the precompiled contract for modular exponentiation at address 0x05 as specified in\\n     * https://eips.ethereum.org/EIPS/eip-198[EIP-198]. Otherwise, the underlying function will succeed given the lack\\n     * of a revert, but the result may be incorrectly interpreted as 0.\\n     */\\n    function tryModExp(uint256 b, uint256 e, uint256 m) internal view returns (bool success, uint256 result) {\\n        if (m == 0) return (false, 0);\\n        assembly (\\\"memory-safe\\\") {\\n            let ptr := mload(0x40)\\n            // | Offset    | Content    | Content (Hex)                                                      |\\n            // |-----------|------------|--------------------------------------------------------------------|\\n            // | 0x00:0x1f | size of b  | 0x0000000000000000000000000000000000000000000000000000000000000020 |\\n            // | 0x20:0x3f | size of e  | 0x0000000000000000000000000000000000000000000000000000000000000020 |\\n            // | 0x40:0x5f | size of m  | 0x0000000000000000000000000000000000000000000000000000000000000020 |\\n            // | 0x60:0x7f | value of b | 0x<.............................................................b> |\\n            // | 0x80:0x9f | value of e | 0x<.............................................................e> |\\n            // | 0xa0:0xbf | value of m | 0x<.............................................................m> |\\n            mstore(ptr, 0x20)\\n            mstore(add(ptr, 0x20), 0x20)\\n            mstore(add(ptr, 0x40), 0x20)\\n            mstore(add(ptr, 0x60), b)\\n            mstore(add(ptr, 0x80), e)\\n            mstore(add(ptr, 0xa0), m)\\n\\n            // Given the result < m, it's guaranteed to fit in 32 bytes,\\n            // so we can use the memory scratch space located at offset 0.\\n            success := staticcall(gas(), 0x05, ptr, 0xc0, 0x00, 0x20)\\n            result := mload(0x00)\\n        }\\n    }\\n\\n    /**\\n     * @dev Variant of {modExp} that supports inputs of arbitrary length.\\n     */\\n    function modExp(bytes memory b, bytes memory e, bytes memory m) internal view returns (bytes memory) {\\n        (bool success, bytes memory result) = tryModExp(b, e, m);\\n        if (!success) {\\n            Panic.panic(Panic.DIVISION_BY_ZERO);\\n        }\\n        return result;\\n    }\\n\\n    /**\\n     * @dev Variant of {tryModExp} that supports inputs of arbitrary length.\\n     */\\n    function tryModExp(\\n        bytes memory b,\\n        bytes memory e,\\n        bytes memory m\\n    ) internal view returns (bool success, bytes memory result) {\\n        if (_zeroBytes(m)) return (false, new bytes(0));\\n\\n        uint256 mLen = m.length;\\n\\n        // Encode call args in result and move the free memory pointer\\n        result = abi.encodePacked(b.length, e.length, mLen, b, e, m);\\n\\n        assembly (\\\"memory-safe\\\") {\\n            let dataPtr := add(result, 0x20)\\n            // Write result on top of args to avoid allocating extra memory.\\n            success := staticcall(gas(), 0x05, dataPtr, mload(result), dataPtr, mLen)\\n            // Overwrite the length.\\n            // result.length > returndatasize() is guaranteed because returndatasize() == m.length\\n            mstore(result, mLen)\\n            // Set the memory pointer after the returned data.\\n            mstore(0x40, add(dataPtr, mLen))\\n        }\\n    }\\n\\n    /**\\n     * @dev Returns whether the provided byte array is zero.\\n     */\\n    function _zeroBytes(bytes memory byteArray) private pure returns (bool) {\\n        for (uint256 i = 0; i < byteArray.length; ++i) {\\n            if (byteArray[i] != 0) {\\n                return false;\\n            }\\n        }\\n        return true;\\n    }\\n\\n    /**\\n     * @dev Returns the square root of a number. If the number is not a perfect square, the value is rounded\\n     * towards zero.\\n     *\\n     * This method is based on Newton's method for computing square roots; the algorithm is restricted to only\\n     * using integer operations.\\n     */\\n    function sqrt(uint256 a) internal pure returns (uint256) {\\n        unchecked {\\n            // Take care of easy edge cases when a == 0 or a == 1\\n            if (a <= 1) {\\n                return a;\\n            }\\n\\n            // In this function, we use Newton's method to get a root of `f(x) := x² - a`. It involves building a\\n            // sequence x_n that converges toward sqrt(a). For each iteration x_n, we also define the error between\\n            // the current value as `ε_n = | x_n - sqrt(a) |`.\\n            //\\n            // For our first estimation, we consider `e` the smallest power of 2 which is bigger than the square root\\n            // of the target. (i.e. `2**(e-1) ≤ sqrt(a) < 2**e`). We know that `e ≤ 128` because `(2¹²⁸)² = 2²⁵⁶` is\\n            // bigger than any uint256.\\n            //\\n            // By noticing that\\n            // `2**(e-1) ≤ sqrt(a) < 2**e → (2**(e-1))² ≤ a < (2**e)² → 2**(2*e-2) ≤ a < 2**(2*e)`\\n            // we can deduce that `e - 1` is `log2(a) / 2`. We can thus compute `x_n = 2**(e-1)` using a method similar\\n            // to the msb function.\\n            uint256 aa = a;\\n            uint256 xn = 1;\\n\\n            if (aa >= (1 << 128)) {\\n                aa >>= 128;\\n                xn <<= 64;\\n            }\\n            if (aa >= (1 << 64)) {\\n                aa >>= 64;\\n                xn <<= 32;\\n            }\\n            if (aa >= (1 << 32)) {\\n                aa >>= 32;\\n                xn <<= 16;\\n            }\\n            if (aa >= (1 << 16)) {\\n                aa >>= 16;\\n                xn <<= 8;\\n            }\\n            if (aa >= (1 << 8)) {\\n                aa >>= 8;\\n                xn <<= 4;\\n            }\\n            if (aa >= (1 << 4)) {\\n                aa >>= 4;\\n                xn <<= 2;\\n            }\\n            if (aa >= (1 << 2)) {\\n                xn <<= 1;\\n            }\\n\\n            // We now have x_n such that `x_n = 2**(e-1) ≤ sqrt(a) < 2**e = 2 * x_n`. This implies ε_n ≤ 2**(e-1).\\n            //\\n            // We can refine our estimation by noticing that the middle of that interval minimizes the error.\\n            // If we move x_n to equal 2**(e-1) + 2**(e-2), then we reduce the error to ε_n ≤ 2**(e-2).\\n            // This is going to be our x_0 (and ε_0)\\n            xn = (3 * xn) >> 1; // ε_0 := | x_0 - sqrt(a) | ≤ 2**(e-2)\\n\\n            // From here, Newton's method give us:\\n            // x_{n+1} = (x_n + a / x_n) / 2\\n            //\\n            // One should note that:\\n            // x_{n+1}² - a = ((x_n + a / x_n) / 2)² - a\\n            //              = ((x_n² + a) / (2 * x_n))² - a\\n            //              = (x_n⁴ + 2 * a * x_n² + a²) / (4 * x_n²) - a\\n            //              = (x_n⁴ + 2 * a * x_n² + a² - 4 * a * x_n²) / (4 * x_n²)\\n            //              = (x_n⁴ - 2 * a * x_n² + a²) / (4 * x_n²)\\n            //              = (x_n² - a)² / (2 * x_n)²\\n            //              = ((x_n² - a) / (2 * x_n))²\\n            //              ≥ 0\\n            // Which proves that for all n ≥ 1, sqrt(a) ≤ x_n\\n            //\\n            // This gives us the proof of quadratic convergence of the sequence:\\n            // ε_{n+1} = | x_{n+1} - sqrt(a) |\\n            //         = | (x_n + a / x_n) / 2 - sqrt(a) |\\n            //         = | (x_n² + a - 2*x_n*sqrt(a)) / (2 * x_n) |\\n            //         = | (x_n - sqrt(a))² / (2 * x_n) |\\n            //         = | ε_n² / (2 * x_n) |\\n            //         = ε_n² / | (2 * x_n) |\\n            //\\n            // For the first iteration, we have a special case where x_0 is known:\\n            // ε_1 = ε_0² / | (2 * x_0) |\\n            //     ≤ (2**(e-2))² / (2 * (2**(e-1) + 2**(e-2)))\\n            //     ≤ 2**(2*e-4) / (3 * 2**(e-1))\\n            //     ≤ 2**(e-3) / 3\\n            //     ≤ 2**(e-3-log2(3))\\n            //     ≤ 2**(e-4.5)\\n            //\\n            // For the following iterations, we use the fact that, 2**(e-1) ≤ sqrt(a) ≤ x_n:\\n            // ε_{n+1} = ε_n² / | (2 * x_n) |\\n            //         ≤ (2**(e-k))² / (2 * 2**(e-1))\\n            //         ≤ 2**(2*e-2*k) / 2**e\\n            //         ≤ 2**(e-2*k)\\n            xn = (xn + a / xn) >> 1; // ε_1 := | x_1 - sqrt(a) | ≤ 2**(e-4.5)  -- special case, see above\\n            xn = (xn + a / xn) >> 1; // ε_2 := | x_2 - sqrt(a) | ≤ 2**(e-9)    -- general case with k = 4.5\\n            xn = (xn + a / xn) >> 1; // ε_3 := | x_3 - sqrt(a) | ≤ 2**(e-18)   -- general case with k = 9\\n            xn = (xn + a / xn) >> 1; // ε_4 := | x_4 - sqrt(a) | ≤ 2**(e-36)   -- general case with k = 18\\n            xn = (xn + a / xn) >> 1; // ε_5 := | x_5 - sqrt(a) | ≤ 2**(e-72)   -- general case with k = 36\\n            xn = (xn + a / xn) >> 1; // ε_6 := | x_6 - sqrt(a) | ≤ 2**(e-144)  -- general case with k = 72\\n\\n            // Because e ≤ 128 (as discussed during the first estimation phase), we know have reached a precision\\n            // ε_6 ≤ 2**(e-144) < 1. Given we're operating on integers, then we can ensure that xn is now either\\n            // sqrt(a) or sqrt(a) + 1.\\n            return xn - SafeCast.toUint(xn > a / xn);\\n        }\\n    }\\n\\n    /**\\n     * @dev Calculates sqrt(a), following the selected rounding direction.\\n     */\\n    function sqrt(uint256 a, Rounding rounding) internal pure returns (uint256) {\\n        unchecked {\\n            uint256 result = sqrt(a);\\n            return result + SafeCast.toUint(unsignedRoundsUp(rounding) && result * result < a);\\n        }\\n    }\\n\\n    /**\\n     * @dev Return the log in base 2 of a positive value rounded towards zero.\\n     * Returns 0 if given 0.\\n     */\\n    function log2(uint256 x) internal pure returns (uint256 r) {\\n        // If value has upper 128 bits set, log2 result is at least 128\\n        r = SafeCast.toUint(x > 0xffffffffffffffffffffffffffffffff) << 7;\\n        // If upper 64 bits of 128-bit half set, add 64 to result\\n        r |= SafeCast.toUint((x >> r) > 0xffffffffffffffff) << 6;\\n        // If upper 32 bits of 64-bit half set, add 32 to result\\n        r |= SafeCast.toUint((x >> r) > 0xffffffff) << 5;\\n        // If upper 16 bits of 32-bit half set, add 16 to result\\n        r |= SafeCast.toUint((x >> r) > 0xffff) << 4;\\n        // If upper 8 bits of 16-bit half set, add 8 to result\\n        r |= SafeCast.toUint((x >> r) > 0xff) << 3;\\n        // If upper 4 bits of 8-bit half set, add 4 to result\\n        r |= SafeCast.toUint((x >> r) > 0xf) << 2;\\n\\n        // Shifts value right by the current result and use it as an index into this lookup table:\\n        //\\n        // | x (4 bits) |  index  | table[index] = MSB position |\\n        // |------------|---------|-----------------------------|\\n        // |    0000    |    0    |        table[0] = 0         |\\n        // |    0001    |    1    |        table[1] = 0         |\\n        // |    0010    |    2    |        table[2] = 1         |\\n        // |    0011    |    3    |        table[3] = 1         |\\n        // |    0100    |    4    |        table[4] = 2         |\\n        // |    0101    |    5    |        table[5] = 2         |\\n        // |    0110    |    6    |        table[6] = 2         |\\n        // |    0111    |    7    |        table[7] = 2         |\\n        // |    1000    |    8    |        table[8] = 3         |\\n        // |    1001    |    9    |        table[9] = 3         |\\n        // |    1010    |   10    |        table[10] = 3        |\\n        // |    1011    |   11    |        table[11] = 3        |\\n        // |    1100    |   12    |        table[12] = 3        |\\n        // |    1101    |   13    |        table[13] = 3        |\\n        // |    1110    |   14    |        table[14] = 3        |\\n        // |    1111    |   15    |        table[15] = 3        |\\n        //\\n        // The lookup table is represented as a 32-byte value with the MSB positions for 0-15 in the last 16 bytes.\\n        assembly (\\\"memory-safe\\\") {\\n            r := or(r, byte(shr(r, x), 0x0000010102020202030303030303030300000000000000000000000000000000))\\n        }\\n    }\\n\\n    /**\\n     * @dev Return the log in base 2, following the selected rounding direction, of a positive value.\\n     * Returns 0 if given 0.\\n     */\\n    function log2(uint256 value, Rounding rounding) internal pure returns (uint256) {\\n        unchecked {\\n            uint256 result = log2(value);\\n            return result + SafeCast.toUint(unsignedRoundsUp(rounding) && 1 << result < value);\\n        }\\n    }\\n\\n    /**\\n     * @dev Return the log in base 10 of a positive value rounded towards zero.\\n     * Returns 0 if given 0.\\n     */\\n    function log10(uint256 value) internal pure returns (uint256) {\\n        uint256 result = 0;\\n        unchecked {\\n            if (value >= 10 ** 64) {\\n                value /= 10 ** 64;\\n                result += 64;\\n            }\\n            if (value >= 10 ** 32) {\\n                value /= 10 ** 32;\\n                result += 32;\\n            }\\n            if (value >= 10 ** 16) {\\n                value /= 10 ** 16;\\n                result += 16;\\n            }\\n            if (value >= 10 ** 8) {\\n                value /= 10 ** 8;\\n                result += 8;\\n            }\\n            if (value >= 10 ** 4) {\\n                value /= 10 ** 4;\\n                result += 4;\\n            }\\n            if (value >= 10 ** 2) {\\n                value /= 10 ** 2;\\n                result += 2;\\n            }\\n            if (value >= 10 ** 1) {\\n                result += 1;\\n            }\\n        }\\n        return result;\\n    }\\n\\n    /**\\n     * @dev Return the log in base 10, following the selected rounding direction, of a positive value.\\n     * Returns 0 if given 0.\\n     */\\n    function log10(uint256 value, Rounding rounding) internal pure returns (uint256) {\\n        unchecked {\\n            uint256 result = log10(value);\\n            return result + SafeCast.toUint(unsignedRoundsUp(rounding) && 10 ** result < value);\\n        }\\n    }\\n\\n    /**\\n     * @dev Return the log in base 256 of a positive value rounded towards zero.\\n     * Returns 0 if given 0.\\n     *\\n     * Adding one to the result gives the number of pairs of hex symbols needed to represent `value` as a hex string.\\n     */\\n    function log256(uint256 x) internal pure returns (uint256 r) {\\n        // If value has upper 128 bits set, log2 result is at least 128\\n        r = SafeCast.toUint(x > 0xffffffffffffffffffffffffffffffff) << 7;\\n        // If upper 64 bits of 128-bit half set, add 64 to result\\n        r |= SafeCast.toUint((x >> r) > 0xffffffffffffffff) << 6;\\n        // If upper 32 bits of 64-bit half set, add 32 to result\\n        r |= SafeCast.toUint((x >> r) > 0xffffffff) << 5;\\n        // If upper 16 bits of 32-bit half set, add 16 to result\\n        r |= SafeCast.toUint((x >> r) > 0xffff) << 4;\\n        // Add 1 if upper 8 bits of 16-bit half set, and divide accumulated result by 8\\n        return (r >> 3) | SafeCast.toUint((x >> r) > 0xff);\\n    }\\n\\n    /**\\n     * @dev Return the log in base 256, following the selected rounding direction, of a positive value.\\n     * Returns 0 if given 0.\\n     */\\n    function log256(uint256 value, Rounding rounding) internal pure returns (uint256) {\\n        unchecked {\\n            uint256 result = log256(value);\\n            return result + SafeCast.toUint(unsignedRoundsUp(rounding) && 1 << (result << 3) < value);\\n        }\\n    }\\n\\n    /**\\n     * @dev Returns whether a provided rounding mode is considered rounding up for unsigned integers.\\n     */\\n    function unsignedRoundsUp(Rounding rounding) internal pure returns (bool) {\\n        return uint8(rounding) % 2 == 1;\\n    }\\n}\\n\"},\"@openzeppelin/contracts/interfaces/draft-IERC6093.sol\":{\"content\":\"// SPDX-License-Identifier: MIT\\n// OpenZeppelin Contracts (last updated v5.4.0) (interfaces/draft-IERC6093.sol)\\npragma solidity >=0.8.4;\\n\\n/**\\n * @dev Standard ERC-20 Errors\\n * Interface of the https://eips.ethereum.org/EIPS/eip-6093[ERC-6093] custom errors for ERC-20 tokens.\\n */\\ninterface IERC20Errors {\\n    /**\\n     * @dev Indicates an error related to the current `balance` of a `sender`. Used in transfers.\\n     * @param sender Address whose tokens are being transferred.\\n     * @param balance Current balance for the interacting account.\\n     * @param needed Minimum amount required to perform a transfer.\\n     */\\n    error ERC20InsufficientBalance(address sender, uint256 balance, uint256 needed);\\n\\n    /**\\n     * @dev Indicates a failure with the token `sender`. Used in transfers.\\n     * @param sender Address whose tokens are being transferred.\\n     */\\n    error ERC20InvalidSender(address sender);\\n\\n    /**\\n     * @dev Indicates a failure with the token `receiver`. Used in transfers.\\n     * @param receiver Address to which tokens are being transferred.\\n     */\\n    error ERC20InvalidReceiver(address receiver);\\n\\n    /**\\n     * @dev Indicates a failure with the `spender`’s `allowance`. Used in transfers.\\n     * @param spender Address that may be allowed to operate on tokens without being their owner.\\n     * @param allowance Amount of tokens a `spender` is allowed to operate with.\\n     * @param needed Minimum amount required to perform a transfer.\\n     */\\n    error ERC20InsufficientAllowance(address spender, uint256 allowance, uint256 needed);\\n\\n    /**\\n     * @dev Indicates a failure with the `approver` of a token to be approved. Used in approvals.\\n     * @param approver Address initiating an approval operation.\\n     */\\n    error ERC20InvalidApprover(address approver);\\n\\n    /**\\n     * @dev Indicates a failure with the `spender` to be approved. Used in approvals.\\n     * @param spender Address that may be allowed to operate on tokens without being their owner.\\n     */\\n    error ERC20InvalidSpender(address spender);\\n}\\n\\n/**\\n * @dev Standard ERC-721 Errors\\n * Interface of the https://eips.ethereum.org/EIPS/eip-6093[ERC-6093] custom errors for ERC-721 tokens.\\n */\\ninterface IERC721Errors {\\n    /**\\n     * @dev Indicates that an address can't be an owner. For example, `address(0)` is a forbidden owner in ERC-20.\\n     * Used in balance queries.\\n     * @param owner Address of the current owner of a token.\\n     */\\n    error ERC721InvalidOwner(address owner);\\n\\n    /**\\n     * @dev Indicates a `tokenId` whose `owner` is the zero address.\\n     * @param tokenId Identifier number of a token.\\n     */\\n    error ERC721NonexistentToken(uint256 tokenId);\\n\\n    /**\\n     * @dev Indicates an error related to the ownership over a particular token. Used in transfers.\\n     * @param sender Address whose tokens are being transferred.\\n     * @param tokenId Identifier number of a token.\\n     * @param owner Address of the current owner of a token.\\n     */\\n    error ERC721IncorrectOwner(address sender, uint256 tokenId, address owner);\\n\\n    /**\\n     * @dev Indicates a failure with the token `sender`. Used in transfers.\\n     * @param sender Address whose tokens are being transferred.\\n     */\\n    error ERC721InvalidSender(address sender);\\n\\n    /**\\n     * @dev Indicates a failure with the token `receiver`. Used in transfers.\\n     * @param receiver Address to which tokens are being transferred.\\n     */\\n    error ERC721InvalidReceiver(address receiver);\\n\\n    /**\\n     * @dev Indicates a failure with the `operator`’s approval. Used in transfers.\\n     * @param operator Address that may be allowed to operate on tokens without being their owner.\\n     * @param tokenId Identifier number of a token.\\n     */\\n    error ERC721InsufficientApproval(address operator, uint256 tokenId);\\n\\n    /**\\n     * @dev Indicates a failure with the `approver` of a token to be approved. Used in approvals.\\n     * @param approver Address initiating an approval operation.\\n     */\\n    error ERC721InvalidApprover(address approver);\\n\\n    /**\\n     * @dev Indicates a failure with the `operator` to be approved. Used in approvals.\\n     * @param operator Address that may be allowed to operate on tokens without being their owner.\\n     */\\n    error ERC721InvalidOperator(address operator);\\n}\\n\\n/**\\n * @dev Standard ERC-1155 Errors\\n * Interface of the https://eips.ethereum.org/EIPS/eip-6093[ERC-6093] custom errors for ERC-1155 tokens.\\n */\\ninterface IERC1155Errors {\\n    /**\\n     * @dev Indicates an error related to the current `balance` of a `sender`. Used in transfers.\\n     * @param sender Address whose tokens are being transferred.\\n     * @param balance Current balance for the interacting account.\\n     * @param needed Minimum amount required to perform a transfer.\\n     * @param tokenId Identifier number of a token.\\n     */\\n    error ERC1155InsufficientBalance(address sender, uint256 balance, uint256 needed, uint256 tokenId);\\n\\n    /**\\n     * @dev Indicates a failure with the token `sender`. Used in transfers.\\n     * @param sender Address whose tokens are being transferred.\\n     */\\n    error ERC1155InvalidSender(address sender);\\n\\n    /**\\n     * @dev Indicates a failure with the token `receiver`. Used in transfers.\\n     * @param receiver Address to which tokens are being transferred.\\n     */\\n    error ERC1155InvalidReceiver(address receiver);\\n\\n    /**\\n     * @dev Indicates a failure with the `operator`’s approval. Used in transfers.\\n     * @param operator Address that may be allowed to operate on tokens without being their owner.\\n     * @param owner Address of the current owner of a token.\\n     */\\n    error ERC1155MissingApprovalForAll(address operator, address owner);\\n\\n    /**\\n     * @dev Indicates a failure with the `approver` of a token to be approved. Used in approvals.\\n     * @param approver Address initiating an approval operation.\\n     */\\n    error ERC1155InvalidApprover(address approver);\\n\\n    /**\\n     * @dev Indicates a failure with the `operator` to be approved. Used in approvals.\\n     * @param operator Address that may be allowed to operate on tokens without being their owner.\\n     */\\n    error ERC1155InvalidOperator(address operator);\\n\\n    /**\\n     * @dev Indicates an array length mismatch between ids and values in a safeBatchTransferFrom operation.\\n     * Used in batch transfers.\\n     * @param idsLength Length of the array of token identifiers\\n     * @param valuesLength Length of the array of token amounts\\n     */\\n    error ERC1155InvalidArrayLength(uint256 idsLength, uint256 valuesLength);\\n}\\n\"},\"@openzeppelin/contracts/utils/introspection/ERC165.sol\":{\"content\":\"// SPDX-License-Identifier: MIT\\n// OpenZeppelin Contracts (last updated v5.4.0) (utils/introspection/ERC165.sol)\\n\\npragma solidity ^0.8.20;\\n\\nimport {IERC165} from \\\"./IERC165.sol\\\";\\n\\n/**\\n * @dev Implementation of the {IERC165} interface.\\n *\\n * Contracts that want to implement ERC-165 should inherit from this contract and override {supportsInterface} to check\\n * for the additional interface id that will be supported. For example:\\n *\\n * ```solidity\\n * function supportsInterface(bytes4 interfaceId) public view virtual override returns (bool) {\\n *     return interfaceId == type(MyInterface).interfaceId || super.supportsInterface(interfaceId);\\n * }\\n * ```\\n */\\nabstract contract ERC165 is IERC165 {\\n    /// @inheritdoc IERC165\\n    function supportsInterface(bytes4 interfaceId) public view virtual returns (bool) {\\n        return interfaceId == type(IERC165).interfaceId;\\n    }\\n}\\n\"},\"@openzeppelin/contracts/utils/Context.sol\":{\"content\":\"// SPDX-License-Identifier: MIT\\n// OpenZeppelin Contracts (last updated v5.0.1) (utils/Context.sol)\\n\\npragma solidity ^0.8.20;\\n\\n/**\\n * @dev Provides information about the current execution context, including the\\n * sender of the transaction and its data. While these are generally available\\n * via msg.sender and msg.data, they should not be accessed in such a direct\\n * manner, since when dealing with meta-transactions the account sending and\\n * paying for execution may not be the actual sender (as far as an application\\n * is concerned).\\n *\\n * This contract is only required for intermediate, library-like contracts.\\n */\\nabstract contract Context {\\n    function _msgSender() internal view virtual returns (address) {\\n        return msg.sender;\\n    }\\n\\n    function _msgData() internal view virtual returns (bytes calldata) {\\n        return msg.data;\\n    }\\n\\n    function _contextSuffixLength() internal view virtual returns (uint256) {\\n        return 0;\\n    }\\n}\\n\"},\"@openzeppelin/contracts/token/ERC721/utils/ERC721Utils.sol\":{\"content\":\"// SPDX-License-Identifier: MIT\\n// OpenZeppelin Contracts (last updated v5.4.0) (token/ERC721/utils/ERC721Utils.sol)\\n\\npragma solidity ^0.8.20;\\n\\nimport {IERC721Receiver} from \\\"../IERC721Receiver.sol\\\";\\nimport {IERC721Errors} from \\\"../../../interfaces/draft-IERC6093.sol\\\";\\n\\n/**\\n * @dev Library that provide common ERC-721 utility functions.\\n *\\n * See https://eips.ethereum.org/EIPS/eip-721[ERC-721].\\n *\\n * _Available since v5.1._\\n */\\nlibrary ERC721Utils {\\n    /**\\n     * @dev Performs an acceptance check for the provided `operator` by calling {IERC721Receiver-onERC721Received}\\n     * on the `to` address. The `operator` is generally the address that initiated the token transfer (i.e. `msg.sender`).\\n     *\\n     * The acceptance call is not executed and treated as a no-op if the target address doesn't contain code (i.e. an EOA).\\n     * Otherwise, the recipient must implement {IERC721Receiver-onERC721Received} and return the acceptance magic value to accept\\n     * the transfer.\\n     */\\n    function checkOnERC721Received(\\n        address operator,\\n        address from,\\n        address to,\\n        uint256 tokenId,\\n        bytes memory data\\n    ) internal {\\n        if (to.code.length > 0) {\\n            try IERC721Receiver(to).onERC721Received(operator, from, tokenId, data) returns (bytes4 retval) {\\n                if (retval != IERC721Receiver.onERC721Received.selector) {\\n                    // Token rejected\\n                    revert IERC721Errors.ERC721InvalidReceiver(to);\\n                }\\n            } catch (bytes memory reason) {\\n                if (reason.length == 0) {\\n                    // non-IERC721Receiver implementer\\n                    revert IERC721Errors.ERC721InvalidReceiver(to);\\n                } else {\\n                    assembly (\\\"memory-safe\\\") {\\n                        revert(add(reason, 0x20), mload(reason))\\n                    }\\n                }\\n            }\\n        }\\n    }\\n}\\n\"},\"@openzeppelin/contracts/token/ERC721/extensions/IERC721Metadata.sol\":{\"content\":\"// SPDX-License-Identifier: MIT\\n// OpenZeppelin Contracts (last updated v5.4.0) (token/ERC721/extensions/IERC721Metadata.sol)\\n\\npragma solidity >=0.6.2;\\n\\nimport {IERC721} from \\\"../IERC721.sol\\\";\\n\\n/**\\n * @title ERC-721 Non-Fungible Token Standard, optional metadata extension\\n * @dev See https://eips.ethereum.org/EIPS/eip-721\\n */\\ninterface IERC721Metadata is IERC721 {\\n    /**\\n     * @dev Returns the token collection name.\\n     */\\n    function name() external view returns (string memory);\\n\\n    /**\\n     * @dev Returns the token collection symbol.\\n     */\\n    function symbol() external view returns (string memory);\\n\\n    /**\\n     * @dev Returns the Uniform Resource Identifier (URI) for `tokenId` token.\\n     */\\n    function tokenURI(uint256 tokenId) external view returns (string memory);\\n}\\n\"},\"@openzeppelin/contracts/token/ERC721/IERC721.sol\":{\"content\":\"// SPDX-License-Identifier: MIT\\n// OpenZeppelin Contracts (last updated v5.4.0) (token/ERC721/IERC721.sol)\\n\\npragma solidity >=0.6.2;\\n\\nimport {IERC165} from \\\"../../utils/introspection/IERC165.sol\\\";\\n\\n/**\\n * @dev Required interface of an ERC-721 compliant contract.\\n */\\ninterface IERC721 is IERC165 {\\n    /**\\n     * @dev Emitted when `tokenId` token is transferred from `from` to `to`.\\n     */\\n    event Transfer(address indexed from, address indexed to, uint256 indexed tokenId);\\n\\n    /**\\n     * @dev Emitted when `owner` enables `approved` to manage the `tokenId` token.\\n     */\\n    event Approval(address indexed owner, address indexed approved, uint256 indexed tokenId);\\n\\n    /**\\n     * @dev Emitted when `owner` enables or disables (`approved`) `operator` to manage all of its assets.\\n     */\\n    event ApprovalForAll(address indexed owner, address indexed operator, bool approved);\\n\\n    /**\\n     * @dev Returns the number of tokens in ``owner``'s account.\\n     */\\n    function balanceOf(address owner) external view returns (uint256 balance);\\n\\n    /**\\n     * @dev Returns the owner of the `tokenId` token.\\n     *\\n     * Requirements:\\n     *\\n     * - `tokenId` must exist.\\n     */\\n    function ownerOf(uint256 tokenId) external view returns (address owner);\\n\\n    /**\\n     * @dev Safely transfers `tokenId` token from `from` to `to`.\\n     *\\n     * Requirements:\\n     *\\n     * - `from` cannot be the zero address.\\n     * - `to` cannot be the zero address.\\n     * - `tokenId` token must exist and be owned by `from`.\\n     * - If the caller is not `from`, it must be approved to move this token by either {approve} or {setApprovalForAll}.\\n     * - If `to` refers to a smart contract, it must implement {IERC721Receiver-onERC721Received}, which is called upon\\n     *   a safe transfer.\\n     *\\n     * Emits a {Transfer} event.\\n     */\\n    function safeTransferFrom(address from, address to, uint256 tokenId, bytes calldata data) external;\\n\\n    /**\\n     * @dev Safely transfers `tokenId` token from `from` to `to`, checking first that contract recipients\\n     * are aware of the ERC-721 protocol to prevent tokens from being forever locked.\\n     *\\n     * Requirements:\\n     *\\n     * - `from` cannot be the zero address.\\n     * - `to` cannot be the zero address.\\n     * - `tokenId` token must exist and be owned by `from`.\\n     * - If the caller is not `from`, it must have been allowed to move this token by either {approve} or\\n     *   {setApprovalForAll}.\\n     * - If `to` refers to a smart contract, it must implement {IERC721Receiver-onERC721Received}, which is called upon\\n     *   a safe transfer.\\n     *\\n     * Emits a {Transfer} event.\\n     */\\n    function safeTransferFrom(address from, address to, uint256 tokenId) external;\\n\\n    /**\\n     * @dev Transfers `tokenId` token from `from` to `to`.\\n     *\\n     * WARNING: Note that the caller is responsible to confirm that the recipient is capable of receiving ERC-721\\n     * or else they may be permanently lost. Usage of {safeTransferFrom} prevents loss, though the caller must\\n     * understand this adds an external call which potentially creates a reentrancy vulnerability.\\n     *\\n     * Requirements:\\n     *\\n     * - `from` cannot be the zero address.\\n     * - `to` cannot be the zero address.\\n     * - `tokenId` token must be owned by `from`.\\n     * - If the caller is not `from`, it must be approved to move this token by either {approve} or {setApprovalForAll}.\\n     *\\n     * Emits a {Transfer} event.\\n     */\\n    function transferFrom(address from, address to, uint256 tokenId) external;\\n\\n    /**\\n     * @dev Gives permission to `to` to transfer `tokenId` token to another account.\\n     * The approval is cleared when the token is transferred.\\n     *\\n     * Only a single account can be approved at a time, so approving the zero address clears previous approvals.\\n     *\\n     * Requirements:\\n     *\\n     * - The caller must own the token or be an approved operator.\\n     * - `tokenId` must exist.\\n     *\\n     * Emits an {Approval} event.\\n     */\\n    function approve(address to, uint256 tokenId) external;\\n\\n    /**\\n     * @dev Approve or remove `operator` as an operator for the caller.\\n     * Operators can call {transferFrom} or {safeTransferFrom} for any token owned by the caller.\\n     *\\n     * Requirements:\\n     *\\n     * - The `operator` cannot be the address zero.\\n     *\\n     * Emits an {ApprovalForAll} event.\\n     */\\n    function setApprovalForAll(address operator, bool approved) external;\\n\\n    /**\\n     * @dev Returns the account approved for `tokenId` token.\\n     *\\n     * Requirements:\\n     *\\n     * - `tokenId` must exist.\\n     */\\n    function getApproved(uint256 tokenId) external view returns (address operator);\\n\\n    /**\\n     * @dev Returns if the `operator` is allowed to manage all of the assets of `owner`.\\n     *\\n     * See {setApprovalForAll}\\n     */\\n    function isApprovedForAll(address owner, address operator) external view returns (bool);\\n}\\n\"},\"@openzeppelin/contracts/utils/Panic.sol\":{\"content\":\"// SPDX-License-Identifier: MIT\\n// OpenZeppelin Contracts (last updated v5.1.0) (utils/Panic.sol)\\n\\npragma solidity ^0.8.20;\\n\\n/**\\n * @dev Helper library for emitting standardized panic codes.\\n *\\n * ```solidity\\n * contract Example {\\n *      using Panic for uint256;\\n *\\n *      // Use any of the declared internal constants\\n *      function foo() { Panic.GENERIC.panic(); }\\n *\\n *      // Alternatively\\n *      function foo() { Panic.panic(Panic.GENERIC); }\\n * }\\n * ```\\n *\\n * Follows the list from https://github.com/ethereum/solidity/blob/v0.8.24/libsolutil/ErrorCodes.h[libsolutil].\\n *\\n * _Available since v5.1._\\n */\\n// slither-disable-next-line unused-state\\nlibrary Panic {\\n    /// @dev generic / unspecified error\\n    uint256 internal constant GENERIC = 0x00;\\n    /// @dev used by the assert() builtin\\n    uint256 internal constant ASSERT = 0x01;\\n    /// @dev arithmetic underflow or overflow\\n    uint256 internal constant UNDER_OVERFLOW = 0x11;\\n    /// @dev division or modulo by zero\\n    uint256 internal constant DIVISION_BY_ZERO = 0x12;\\n    /// @dev enum conversion error\\n    uint256 internal constant ENUM_CONVERSION_ERROR = 0x21;\\n    /// @dev invalid encoding in storage\\n    uint256 internal constant STORAGE_ENCODING_ERROR = 0x22;\\n    /// @dev empty array pop\\n    uint256 internal constant EMPTY_ARRAY_POP = 0x31;\\n    /// @dev array out of bounds access\\n    uint256 internal constant ARRAY_OUT_OF_BOUNDS = 0x32;\\n    /// @dev resource error (too large allocation or too large array)\\n    uint256 internal constant RESOURCE_ERROR = 0x41;\\n    /// @dev calling invalid internal function\\n    uint256 internal constant INVALID_INTERNAL_FUNCTION = 0x51;\\n\\n    /// @dev Reverts with a panic code. Recommended to use with\\n    /// the internal constants with predefined codes.\\n    function panic(uint256 code) internal pure {\\n        assembly (\\\"memory-safe\\\") {\\n            mstore(0x00, 0x4e487b71)\\n            mstore(0x20, code)\\n            revert(0x1c, 0x24)\\n        }\\n    }\\n}\\n\"},\"@openzeppelin/contracts/utils/introspection/IERC165.sol\":{\"content\":\"// SPDX-License-Identifier: MIT\\n// OpenZeppelin Contracts (last updated v5.4.0) (utils/introspection/IERC165.sol)\\n\\npragma solidity >=0.4.16;\\n\\n/**\\n * @dev Interface of the ERC-165 standard, as defined in the\\n * https://eips.ethereum.org/EIPS/eip-165[ERC].\\n *\\n * Implementers can declare support of contract interfaces, which can then be\\n * queried by others ({ERC165Checker}).\\n *\\n * For an implementation, see {ERC165}.\\n */\\ninterface IERC165 {\\n    /**\\n     * @dev Returns true if this contract implements the interface defined by\\n     * `interfaceId`. See the corresponding\\n     * https://eips.ethereum.org/EIPS/eip-165#how-interfaces-are-identified[ERC section]\\n     * to learn more about how these ids are created.\\n     *\\n     * This function call must use less than 30 000 gas.\\n     */\\n    function supportsInterface(bytes4 interfaceId) external view returns (bool);\\n}\\n\"},\"@openzeppelin/contracts/token/ERC721/IERC721Receiver.sol\":{\"content\":\"// SPDX-License-Identifier: MIT\\n// OpenZeppelin Contracts (last updated v5.4.0) (token/ERC721/IERC721Receiver.sol)\\n\\npragma solidity >=0.5.0;\\n\\n/**\\n * @title ERC-721 token receiver interface\\n * @dev Interface for any contract that wants to support safeTransfers\\n * from ERC-721 asset contracts.\\n */\\ninterface IERC721Receiver {\\n    /**\\n     * @dev Whenever an {IERC721} `tokenId` token is transferred to this contract via {IERC721-safeTransferFrom}\\n     * by `operator` from `from`, this function is called.\\n     *\\n     * It must return its Solidity selector to confirm the token transfer.\\n     * If any other value is returned or the interface is not implemented by the recipient, the transfer will be\\n     * reverted.\\n     *\\n     * The selector can be obtained in Solidity with `IERC721Receiver.onERC721Received.selector`.\\n     */\\n    function onERC721Received(\\n        address operator,\\n        address from,\\n        uint256 tokenId,\\n        bytes calldata data\\n    ) external returns (bytes4);\\n}\\n\"}},\"settings\":{\"optimizer\":{\"enabled\":false,\"runs\":200},\"outputSelection\":{\"*\":{\"\":[\"ast\"],\"*\":[\"abi\",\"metadata\",\"devdoc\",\"userdoc\",\"storageLayout\",\"evm.legacyAssembly\",\"evm.bytecode\",\"evm.deployedBytecode\",\"evm.methodIdentifiers\",\"evm.gasEstimates\",\"evm.assembly\"]}},\"remappings\":[]}}",
	"name": "Experience721",
	"bytecode": {
		"linkReferences": {},
		"object": "60a06040526001600c55348015610014575f5ffd5b5060405161379f38038061379f8339818101604052810190610036919061056e565b336040518060400160405280600d81526020017f457870657269656e6365373231000000000000000000000000000000000000008152506040518060400160405280600381526020017f4558500000000000000000000000000000000000000000000000000000000000815250815f90816100b191906107f5565b5080600190816100c191906107f5565b5050505f73ffffffffffffffffffffffffffffffffffffffff168173ffffffffffffffffffffffffffffffffffffffff1603610134575f6040517f1e4fbdf700000000000000000000000000000000000000000000000000000000815260040161012b91906108d3565b60405180910390fd5b610143816102d160201b60201c565b505f73ffffffffffffffffffffffffffffffffffffffff168473ffffffffffffffffffffffffffffffffffffffff16036101b2576040517f08c379a00000000000000000000000000000000000000000000000000000000081526004016101a990610946565b60405180910390fd5b5f83116101f4576040517f08c379a00000000000000000000000000000000000000000000000000000000081526004016101eb906109ae565b60405180910390fd5b5f8211610236576040517f08c379a000000000000000000000000000000000000000000000000000000000815260040161022d90610a16565b60405180910390fd5b8373ffffffffffffffffffffffffffffffffffffffff1660808173ffffffffffffffffffffffffffffffffffffffff1681525050826008819055508160098190555080600b908161028791906107f5565b503360075f6101000a81548173ffffffffffffffffffffffffffffffffffffffff021916908373ffffffffffffffffffffffffffffffffffffffff16021790555050505050610a34565b5f60065f9054906101000a900473ffffffffffffffffffffffffffffffffffffffff1690508160065f6101000a81548173ffffffffffffffffffffffffffffffffffffffff021916908373ffffffffffffffffffffffffffffffffffffffff1602179055508173ffffffffffffffffffffffffffffffffffffffff168173ffffffffffffffffffffffffffffffffffffffff167f8be0079c531659141344cd1fd0a4f28419497f9722a3daafe3b4186f6b6457e060405160405180910390a35050565b5f604051905090565b5f5ffd5b5f5ffd5b5f73ffffffffffffffffffffffffffffffffffffffff82169050919050565b5f6103ce826103a5565b9050919050565b6103de816103c4565b81146103e8575f5ffd5b50565b5f815190506103f9816103d5565b92915050565b5f819050919050565b610411816103ff565b811461041b575f5ffd5b50565b5f8151905061042c81610408565b92915050565b5f5ffd5b5f5ffd5b5f601f19601f8301169050919050565b7f4e487b71000000000000000000000000000000000000000000000000000000005f52604160045260245ffd5b6104808261043a565b810181811067ffffffffffffffff8211171561049f5761049e61044a565b5b80604052505050565b5f6104b1610394565b90506104bd8282610477565b919050565b5f67ffffffffffffffff8211156104dc576104db61044a565b5b6104e58261043a565b9050602081019050919050565b8281835e5f83830152505050565b5f61051261050d846104c2565b6104a8565b90508281526020810184848401111561052e5761052d610436565b5b6105398482856104f2565b509392505050565b5f82601f83011261055557610554610432565b5b8151610565848260208601610500565b91505092915050565b5f5f5f5f608085870312156105865761058561039d565b5b5f610593878288016103eb565b94505060206105a48782880161041e565b93505060406105b58782880161041e565b925050606085015167ffffffffffffffff8111156105d6576105d56103a1565b5b6105e287828801610541565b91505092959194509250565b5f81519050919050565b7f4e487b71000000000000000000000000000000000000000000000000000000005f52602260045260245ffd5b5f600282049050600182168061063c57607f821691505b60208210810361064f5761064e6105f8565b5b50919050565b5f819050815f5260205f209050919050565b5f6020601f8301049050919050565b5f82821b905092915050565b5f600883026106b17fffffffffffffffffffffffffffffffffffffffffffffffffffffffffffffffff82610676565b6106bb8683610676565b95508019841693508086168417925050509392505050565b5f819050919050565b5f6106f66106f16106ec846103ff565b6106d3565b6103ff565b9050919050565b5f819050919050565b61070f836106dc565b61072361071b826106fd565b848454610682565b825550505050565b5f5f905090565b61073a61072b565b610745818484610706565b505050565b5b818110156107685761075d5f82610732565b60018101905061074b565b5050565b601f8211156107ad5761077e81610655565b61078784610667565b81016020851015610796578190505b6107aa6107a285610667565b83018261074a565b50505b505050565b5f82821c905092915050565b5f6107cd5f19846008026107b2565b1980831691505092915050565b5f6107e583836107be565b9150826002028217905092915050565b6107fe826105ee565b67ffffffffffffffff8111156108175761081661044a565b5b6108218254610625565b61082c82828561076c565b5f60209050601f83116001811461085d575f841561084b578287015190505b61085585826107da565b8655506108bc565b601f19841661086b86610655565b5f5b828110156108925784890151825560018201915060208501945060208101905061086d565b868310156108af57848901516108ab601f8916826107be565b8355505b6001600288020188555050505b505050505050565b6108cd816103c4565b82525050565b5f6020820190506108e65f8301846108c4565b92915050565b5f82825260208201905092915050565b7f43424f3d300000000000000000000000000000000000000000000000000000005f82015250565b5f6109306005836108ec565b915061093b826108fc565b602082019050919050565b5f6020820190508181035f83015261095d81610924565b9050919050565b7f70726963653d30000000000000000000000000000000000000000000000000005f82015250565b5f6109986007836108ec565b91506109a382610964565b602082019050919050565b5f6020820190508181035f8301526109c58161098c565b9050919050565b7f6d61783d300000000000000000000000000000000000000000000000000000005f82015250565b5f610a006005836108ec565b9150610a0b826109cc565b602082019050919050565b5f6020820190508181035f830152610a2d816109f4565b9050919050565b608051612d4c610a535f395f818161074f0152610a410152612d4c5ff3fe608060405234801561000f575f5ffd5b5060043610610171575f3560e01c8063715018a6116100dc578063c87b56dd11610095578063e985e9c51161006f578063e985e9c514610421578063f0f4426014610451578063f2fde38b1461046d578063fb29ada61461048957610171565b8063c87b56dd146103b7578063ce0ed706146103e7578063d5abeb011461040357610171565b8063715018a61461031d5780638da5cb5b1461032757806395d89b4114610345578063a0712d6814610363578063a22cb4651461037f578063b88d4fde1461039b57610171565b806333862d671161012e57806333862d671461024957806342842e0e1461026757806355f804b31461028357806361d027b31461029f5780636352211e146102bd57806370a08231146102ed57610171565b806301ffc9a71461017557806306fdde03146101a5578063081812fc146101c3578063095ea7b3146101f357806318160ddd1461020f57806323b872dd1461022d575b5f5ffd5b61018f600480360381019061018a9190611dd8565b6104a7565b60405161019c9190611e1d565b60405180910390f35b6101ad610588565b6040516101ba9190611ea6565b60405180910390f35b6101dd60048036038101906101d89190611ef9565b610617565b6040516101ea9190611f63565b60405180910390f35b61020d60048036038101906102089190611fa6565b610632565b005b610217610648565b6040516102249190611ff3565b60405180910390f35b6102476004803603810190610242919061200c565b61064e565b005b61025161074d565b60405161025e91906120b7565b60405180910390f35b610281600480360381019061027c919061200c565b610771565b005b61029d600480360381019061029891906121fc565b610790565b005b6102a76107e2565b6040516102b49190611f63565b60405180910390f35b6102d760048036038101906102d29190611ef9565b610807565b6040516102e49190611f63565b60405180910390f35b61030760048036038101906103029190612243565b610818565b6040516103149190611ff3565b60405180910390f35b6103256108ce565b005b61032f6108e1565b60405161033c9190611f63565b60405180910390f35b61034d610909565b60405161035a9190611ea6565b60405180910390f35b61037d60048036038101906103789190611ef9565b610999565b005b61039960048036038101906103949190612298565b610bec565b005b6103b560048036038101906103b09190612374565b610c02565b005b6103d160048036038101906103cc9190611ef9565b610c27565b6040516103de9190611ea6565b60405180910390f35b61040160048036038101906103fc9190611ef9565b610c65565b005b61040b610cf0565b6040516104189190611ff3565b60405180910390f35b61043b600480360381019061043691906123f4565b610cf6565b6040516104489190611e1d565b60405180910390f35b61046b60048036038101906104669190612243565b610d84565b005b61048760048036038101906104829190612243565b610e74565b005b610491610ef8565b60405161049e9190611ff3565b60405180910390f35b5f7f80ac58cd000000000000000000000000000000000000000000000000000000007bffffffffffffffffffffffffffffffffffffffffffffffffffffffff1916827bffffffffffffffffffffffffffffffffffffffffffffffffffffffff1916148061057157507f5b5e139f000000000000000000000000000000000000000000000000000000007bffffffffffffffffffffffffffffffffffffffffffffffffffffffff1916827bffffffffffffffffffffffffffffffffffffffffffffffffffffffff1916145b80610581575061058082610efe565b5b9050919050565b60605f80546105969061245f565b80601f01602080910402602001604051908101604052809291908181526020018280546105c29061245f565b801561060d5780601f106105e45761010080835404028352916020019161060d565b820191905f5260205f20905b8154815290600101906020018083116105f057829003601f168201915b5050505050905090565b5f61062182610f67565b5061062b82610fed565b9050919050565b610644828261063f611026565b61102d565b5050565b600a5481565b5f73ffffffffffffffffffffffffffffffffffffffff168273ffffffffffffffffffffffffffffffffffffffff16036106be575f6040517f64a0ae920000000000000000000000000000000000000000000000000000000081526004016106b59190611f63565b60405180910390fd5b5f6106d183836106cc611026565b61103f565b90508373ffffffffffffffffffffffffffffffffffffffff168173ffffffffffffffffffffffffffffffffffffffff1614610747578382826040517f64283d7b00000000000000000000000000000000000000000000000000000000815260040161073e9392919061248f565b60405180910390fd5b50505050565b7f000000000000000000000000000000000000000000000000000000000000000081565b61078b83838360405180602001604052805f815250610c02565b505050565b61079861124a565b80600b90816107a7919061265b565b507f5411e8ebf1636d9e83d5fc4900bf80cbac82e8790da2a4c94db4895e889eedf6816040516107d79190611ea6565b60405180910390a150565b60075f9054906101000a900473ffffffffffffffffffffffffffffffffffffffff1681565b5f61081182610f67565b9050919050565b5f5f73ffffffffffffffffffffffffffffffffffffffff168273ffffffffffffffffffffffffffffffffffffffff1603610889575f6040517f89c62b640000000000000000000000000000000000000000000000000000000081526004016108809190611f63565b60405180910390fd5b60035f8373ffffffffffffffffffffffffffffffffffffffff1673ffffffffffffffffffffffffffffffffffffffff1681526020019081526020015f20549050919050565b6108d661124a565b6108df5f6112d1565b565b5f60065f9054906101000a900473ffffffffffffffffffffffffffffffffffffffff16905090565b6060600180546109189061245f565b80601f01602080910402602001604051908101604052809291908181526020018280546109449061245f565b801561098f5780601f106109665761010080835404028352916020019161098f565b820191905f5260205f20905b81548152906001019060200180831161097257829003601f168201915b5050505050905090565b5f81116109db576040517f08c379a00000000000000000000000000000000000000000000000000000000081526004016109d290612774565b60405180910390fd5b60095481600a546109ec91906127bf565b1115610a2d576040517f08c379a0000000000000000000000000000000000000000000000000000000008152600401610a249061283c565b60405180910390fd5b5f81600854610a3c919061285a565b90505f7f000000000000000000000000000000000000000000000000000000000000000073ffffffffffffffffffffffffffffffffffffffff166323b872dd3360075f9054906101000a900473ffffffffffffffffffffffffffffffffffffffff16856040518463ffffffff1660e01b8152600401610abd9392919061289b565b6020604051808303815f875af1158015610ad9573d5f5f3e3d5ffd5b505050506040513d601f19601f82011682018060405250810190610afd91906128e4565b905080610b3f576040517f08c379a0000000000000000000000000000000000000000000000000000000008152600401610b3690612959565b60405180910390fd5b5f5f90505b83811015610b96575f600c5f815480929190610b5f90612977565b9190505590506001600a5f828254610b7791906127bf565b92505081905550610b883382611394565b508080600101915050610b44565b503373ffffffffffffffffffffffffffffffffffffffff167f25b428dfde728ccfaddad7e29e4ac23c24ed7fd1a6e3e3f91894a9a073f5dfff8484604051610bdf9291906129be565b60405180910390a2505050565b610bfe610bf7611026565b83836113b1565b5050565b610c0d84848461064e565b610c21610c18611026565b8585858561151a565b50505050565b6060610c3282610807565b50600b610c3e836116c6565b604051602001610c4f929190612ae9565b6040516020818303038152906040529050919050565b610c6d61124a565b5f8111610caf576040517f08c379a0000000000000000000000000000000000000000000000000000000008152600401610ca690612b61565b60405180910390fd5b806008819055507fa6dc15bdb68da224c66db4b3838d9a2b205138e8cff6774e57d0af91e196d62281604051610ce59190611ff3565b60405180910390a150565b60095481565b5f60055f8473ffffffffffffffffffffffffffffffffffffffff1673ffffffffffffffffffffffffffffffffffffffff1681526020019081526020015f205f8373ffffffffffffffffffffffffffffffffffffffff1673ffffffffffffffffffffffffffffffffffffffff1681526020019081526020015f205f9054906101000a900460ff16905092915050565b610d8c61124a565b5f73ffffffffffffffffffffffffffffffffffffffff168173ffffffffffffffffffffffffffffffffffffffff1603610dfa576040517f08c379a0000000000000000000000000000000000000000000000000000000008152600401610df190612bc9565b60405180910390fd5b8060075f6101000a81548173ffffffffffffffffffffffffffffffffffffffff021916908373ffffffffffffffffffffffffffffffffffffffff1602179055507fc714d22a2f08b695f81e7c707058db484aa5b4d6b4c9fd64beb10fe85832f60881604051610e699190611f63565b60405180910390a150565b610e7c61124a565b5f73ffffffffffffffffffffffffffffffffffffffff168173ffffffffffffffffffffffffffffffffffffffff1603610eec575f6040517f1e4fbdf7000000000000000000000000000000000000000000000000000000008152600401610ee39190611f63565b60405180910390fd5b610ef5816112d1565b50565b60085481565b5f7f01ffc9a7000000000000000000000000000000000000000000000000000000007bffffffffffffffffffffffffffffffffffffffffffffffffffffffff1916827bffffffffffffffffffffffffffffffffffffffffffffffffffffffff1916149050919050565b5f5f610f7283611790565b90505f73ffffffffffffffffffffffffffffffffffffffff168173ffffffffffffffffffffffffffffffffffffffff1603610fe457826040517f7e273289000000000000000000000000000000000000000000000000000000008152600401610fdb9190611ff3565b60405180910390fd5b80915050919050565b5f60045f8381526020019081526020015f205f9054906101000a900473ffffffffffffffffffffffffffffffffffffffff169050919050565b5f33905090565b61103a83838360016117c9565b505050565b5f5f61104a84611790565b90505f73ffffffffffffffffffffffffffffffffffffffff168373ffffffffffffffffffffffffffffffffffffffff161461108b5761108a818486611988565b5b5f73ffffffffffffffffffffffffffffffffffffffff168173ffffffffffffffffffffffffffffffffffffffff1614611116576110ca5f855f5f6117c9565b600160035f8373ffffffffffffffffffffffffffffffffffffffff1673ffffffffffffffffffffffffffffffffffffffff1681526020019081526020015f205f82825403925050819055505b5f73ffffffffffffffffffffffffffffffffffffffff168573ffffffffffffffffffffffffffffffffffffffff161461119557600160035f8773ffffffffffffffffffffffffffffffffffffffff1673ffffffffffffffffffffffffffffffffffffffff1681526020019081526020015f205f82825401925050819055505b8460025f8681526020019081526020015f205f6101000a81548173ffffffffffffffffffffffffffffffffffffffff021916908373ffffffffffffffffffffffffffffffffffffffff160217905550838573ffffffffffffffffffffffffffffffffffffffff168273ffffffffffffffffffffffffffffffffffffffff167fddf252ad1be2c89b69c2b068fc378daa952ba7f163c4a11628f55a4df523b3ef60405160405180910390a4809150509392505050565b611252611026565b73ffffffffffffffffffffffffffffffffffffffff166112706108e1565b73ffffffffffffffffffffffffffffffffffffffff16146112cf57611293611026565b6040517f118cdaa70000000000000000000000000000000000000000000000000000000081526004016112c69190611f63565b60405180910390fd5b565b5f60065f9054906101000a900473ffffffffffffffffffffffffffffffffffffffff1690508160065f6101000a81548173ffffffffffffffffffffffffffffffffffffffff021916908373ffffffffffffffffffffffffffffffffffffffff1602179055508173ffffffffffffffffffffffffffffffffffffffff168173ffffffffffffffffffffffffffffffffffffffff167f8be0079c531659141344cd1fd0a4f28419497f9722a3daafe3b4186f6b6457e060405160405180910390a35050565b6113ad828260405180602001604052805f815250611a4b565b5050565b5f73ffffffffffffffffffffffffffffffffffffffff168273ffffffffffffffffffffffffffffffffffffffff160361142157816040517f5b08ba180000000000000000000000000000000000000000000000000000000081526004016114189190611f63565b60405180910390fd5b8060055f8573ffffffffffffffffffffffffffffffffffffffff1673ffffffffffffffffffffffffffffffffffffffff1681526020019081526020015f205f8473ffffffffffffffffffffffffffffffffffffffff1673ffffffffffffffffffffffffffffffffffffffff1681526020019081526020015f205f6101000a81548160ff0219169083151502179055508173ffffffffffffffffffffffffffffffffffffffff168373ffffffffffffffffffffffffffffffffffffffff167f17307eab39ab6107e8899845ad3d59bd9653f200f220920489ca2b5937696c318360405161150d9190611e1d565b60405180910390a3505050565b5f8373ffffffffffffffffffffffffffffffffffffffff163b11156116bf578273ffffffffffffffffffffffffffffffffffffffff1663150b7a02868685856040518563ffffffff1660e01b81526004016115789493929190612c39565b6020604051808303815f875af19250505080156115b357506040513d601f19601f820116820180604052508101906115b09190612c97565b60015b611634573d805f81146115e1576040519150601f19603f3d011682016040523d82523d5f602084013e6115e6565b606091505b505f81510361162c57836040517f64a0ae920000000000000000000000000000000000000000000000000000000081526004016116239190611f63565b60405180910390fd5b805160208201fd5b63150b7a0260e01b7bffffffffffffffffffffffffffffffffffffffffffffffffffffffff1916817bffffffffffffffffffffffffffffffffffffffffffffffffffffffff1916146116bd57836040517f64a0ae920000000000000000000000000000000000000000000000000000000081526004016116b49190611f63565b60405180910390fd5b505b5050505050565b60605f60016116d484611a6e565b0190505f8167ffffffffffffffff8111156116f2576116f16120d8565b5b6040519080825280601f01601f1916602001820160405280156117245781602001600182028036833780820191505090505b5090505f82602083010190505b600115611785578080600190039150507f3031323334353637383961626364656600000000000000000000000000000000600a86061a8153600a858161177a57611779612cc2565b5b0494505f8503611731575b819350505050919050565b5f60025f8381526020019081526020015f205f9054906101000a900473ffffffffffffffffffffffffffffffffffffffff169050919050565b808061180157505f73ffffffffffffffffffffffffffffffffffffffff168273ffffffffffffffffffffffffffffffffffffffff1614155b15611933575f61181084610f67565b90505f73ffffffffffffffffffffffffffffffffffffffff168373ffffffffffffffffffffffffffffffffffffffff161415801561187a57508273ffffffffffffffffffffffffffffffffffffffff168173ffffffffffffffffffffffffffffffffffffffff1614155b801561188d575061188b8184610cf6565b155b156118cf57826040517fa9fbf51f0000000000000000000000000000000000000000000000000000000081526004016118c69190611f63565b60405180910390fd5b811561193157838573ffffffffffffffffffffffffffffffffffffffff168273ffffffffffffffffffffffffffffffffffffffff167f8c5be1e5ebec7d5bd14f71427d1e84f3dd0314c0f7b2291e5b200ac8c7c3b92560405160405180910390a45b505b8360045f8581526020019081526020015f205f6101000a81548173ffffffffffffffffffffffffffffffffffffffff021916908373ffffffffffffffffffffffffffffffffffffffff16021790555050505050565b611993838383611bbf565b611a46575f73ffffffffffffffffffffffffffffffffffffffff168373ffffffffffffffffffffffffffffffffffffffff1603611a0757806040517f7e2732890000000000000000000000000000000000000000000000000000000081526004016119fe9190611ff3565b60405180910390fd5b81816040517f177e802f000000000000000000000000000000000000000000000000000000008152600401611a3d929190612cef565b60405180910390fd5b505050565b611a558383611c7f565b611a69611a60611026565b5f85858561151a565b505050565b5f5f5f90507a184f03e93ff9f4daa797ed6e38ed64bf6a1f0100000000000000008310611aca577a184f03e93ff9f4daa797ed6e38ed64bf6a1f0100000000000000008381611ac057611abf612cc2565b5b0492506040810190505b6d04ee2d6d415b85acef81000000008310611b07576d04ee2d6d415b85acef81000000008381611afd57611afc612cc2565b5b0492506020810190505b662386f26fc100008310611b3657662386f26fc100008381611b2c57611b2b612cc2565b5b0492506010810190505b6305f5e1008310611b5f576305f5e1008381611b5557611b54612cc2565b5b0492506008810190505b6127108310611b84576127108381611b7a57611b79612cc2565b5b0492506004810190505b60648310611ba75760648381611b9d57611b9c612cc2565b5b0492506002810190505b600a8310611bb6576001810190505b80915050919050565b5f5f73ffffffffffffffffffffffffffffffffffffffff168373ffffffffffffffffffffffffffffffffffffffff1614158015611c7657508273ffffffffffffffffffffffffffffffffffffffff168473ffffffffffffffffffffffffffffffffffffffff161480611c375750611c368484610cf6565b5b80611c7557508273ffffffffffffffffffffffffffffffffffffffff16611c5d83610fed565b73ffffffffffffffffffffffffffffffffffffffff16145b5b90509392505050565b5f73ffffffffffffffffffffffffffffffffffffffff168273ffffffffffffffffffffffffffffffffffffffff1603611cef575f6040517f64a0ae92000000000000000000000000000000000000000000000000000000008152600401611ce69190611f63565b60405180910390fd5b5f611cfb83835f61103f565b90505f73ffffffffffffffffffffffffffffffffffffffff168173ffffffffffffffffffffffffffffffffffffffff1614611d6d575f6040517f73c6ac6e000000000000000000000000000000000000000000000000000000008152600401611d649190611f63565b60405180910390fd5b505050565b5f604051905090565b5f5ffd5b5f5ffd5b5f7fffffffff0000000000000000000000000000000000000000000000000000000082169050919050565b611db781611d83565b8114611dc1575f5ffd5b50565b5f81359050611dd281611dae565b92915050565b5f60208284031215611ded57611dec611d7b565b5b5f611dfa84828501611dc4565b91505092915050565b5f8115159050919050565b611e1781611e03565b82525050565b5f602082019050611e305f830184611e0e565b92915050565b5f81519050919050565b5f82825260208201905092915050565b8281835e5f83830152505050565b5f601f19601f8301169050919050565b5f611e7882611e36565b611e828185611e40565b9350611e92818560208601611e50565b611e9b81611e5e565b840191505092915050565b5f6020820190508181035f830152611ebe8184611e6e565b905092915050565b5f819050919050565b611ed881611ec6565b8114611ee2575f5ffd5b50565b5f81359050611ef381611ecf565b92915050565b5f60208284031215611f0e57611f0d611d7b565b5b5f611f1b84828501611ee5565b91505092915050565b5f73ffffffffffffffffffffffffffffffffffffffff82169050919050565b5f611f4d82611f24565b9050919050565b611f5d81611f43565b82525050565b5f602082019050611f765f830184611f54565b92915050565b611f8581611f43565b8114611f8f575f5ffd5b50565b5f81359050611fa081611f7c565b92915050565b5f5f60408385031215611fbc57611fbb611d7b565b5b5f611fc985828601611f92565b9250506020611fda85828601611ee5565b9150509250929050565b611fed81611ec6565b82525050565b5f6020820190506120065f830184611fe4565b92915050565b5f5f5f6060848603121561202357612022611d7b565b5b5f61203086828701611f92565b935050602061204186828701611f92565b925050604061205286828701611ee5565b9150509250925092565b5f819050919050565b5f61207f61207a61207584611f24565b61205c565b611f24565b9050919050565b5f61209082612065565b9050919050565b5f6120a182612086565b9050919050565b6120b181612097565b82525050565b5f6020820190506120ca5f8301846120a8565b92915050565b5f5ffd5b5f5ffd5b7f4e487b71000000000000000000000000000000000000000000000000000000005f52604160045260245ffd5b61210e82611e5e565b810181811067ffffffffffffffff8211171561212d5761212c6120d8565b5b80604052505050565b5f61213f611d72565b905061214b8282612105565b919050565b5f67ffffffffffffffff82111561216a576121696120d8565b5b61217382611e5e565b9050602081019050919050565b828183375f83830152505050565b5f6121a061219b84612150565b612136565b9050828152602081018484840111156121bc576121bb6120d4565b5b6121c7848285612180565b509392505050565b5f82601f8301126121e3576121e26120d0565b5b81356121f384826020860161218e565b91505092915050565b5f6020828403121561221157612210611d7b565b5b5f82013567ffffffffffffffff81111561222e5761222d611d7f565b5b61223a848285016121cf565b91505092915050565b5f6020828403121561225857612257611d7b565b5b5f61226584828501611f92565b91505092915050565b61227781611e03565b8114612281575f5ffd5b50565b5f813590506122928161226e565b92915050565b5f5f604083850312156122ae576122ad611d7b565b5b5f6122bb85828601611f92565b92505060206122cc85828601612284565b9150509250929050565b5f67ffffffffffffffff8211156122f0576122ef6120d8565b5b6122f982611e5e565b9050602081019050919050565b5f612318612313846122d6565b612136565b905082815260208101848484011115612334576123336120d4565b5b61233f848285612180565b509392505050565b5f82601f83011261235b5761235a6120d0565b5b813561236b848260208601612306565b91505092915050565b5f5f5f5f6080858703121561238c5761238b611d7b565b5b5f61239987828801611f92565b94505060206123aa87828801611f92565b93505060406123bb87828801611ee5565b925050606085013567ffffffffffffffff8111156123dc576123db611d7f565b5b6123e887828801612347565b91505092959194509250565b5f5f6040838503121561240a57612409611d7b565b5b5f61241785828601611f92565b925050602061242885828601611f92565b9150509250929050565b7f4e487b71000000000000000000000000000000000000000000000000000000005f52602260045260245ffd5b5f600282049050600182168061247657607f821691505b60208210810361248957612488612432565b5b50919050565b5f6060820190506124a25f830186611f54565b6124af6020830185611fe4565b6124bc6040830184611f54565b949350505050565b5f819050815f5260205f209050919050565b5f6020601f8301049050919050565b5f82821b905092915050565b5f600883026125207fffffffffffffffffffffffffffffffffffffffffffffffffffffffffffffffff826124e5565b61252a86836124e5565b95508019841693508086168417925050509392505050565b5f61255c61255761255284611ec6565b61205c565b611ec6565b9050919050565b5f819050919050565b61257583612542565b61258961258182612563565b8484546124f1565b825550505050565b5f5f905090565b6125a0612591565b6125ab81848461256c565b505050565b5b818110156125ce576125c35f82612598565b6001810190506125b1565b5050565b601f821115612613576125e4816124c4565b6125ed846124d6565b810160208510156125fc578190505b612610612608856124d6565b8301826125b0565b50505b505050565b5f82821c905092915050565b5f6126335f1984600802612618565b1980831691505092915050565b5f61264b8383612624565b9150826002028217905092915050565b61266482611e36565b67ffffffffffffffff81111561267d5761267c6120d8565b5b612687825461245f565b6126928282856125d2565b5f60209050601f8311600181146126c3575f84156126b1578287015190505b6126bb8582612640565b865550612722565b601f1984166126d1866124c4565b5f5b828110156126f8578489015182556001820191506020850194506020810190506126d3565b868310156127155784890151612711601f891682612624565b8355505b6001600288020188555050505b505050505050565b7f7174793d300000000000000000000000000000000000000000000000000000005f82015250565b5f61275e600583611e40565b91506127698261272a565b602082019050919050565b5f6020820190508181035f83015261278b81612752565b9050919050565b7f4e487b71000000000000000000000000000000000000000000000000000000005f52601160045260245ffd5b5f6127c982611ec6565b91506127d483611ec6565b92508282019050808211156127ec576127eb612792565b5b92915050565b7f736f6c64206f75740000000000000000000000000000000000000000000000005f82015250565b5f612826600883611e40565b9150612831826127f2565b602082019050919050565b5f6020820190508181035f8301526128538161281a565b9050919050565b5f61286482611ec6565b915061286f83611ec6565b925082820261287d81611ec6565b9150828204841483151761289457612893612792565b5b5092915050565b5f6060820190506128ae5f830186611f54565b6128bb6020830185611f54565b6128c86040830184611fe4565b949350505050565b5f815190506128de8161226e565b92915050565b5f602082840312156128f9576128f8611d7b565b5b5f612906848285016128d0565b91505092915050565b7f43424f207472616e73666572206661696c0000000000000000000000000000005f82015250565b5f612943601183611e40565b915061294e8261290f565b602082019050919050565b5f6020820190508181035f83015261297081612937565b9050919050565b5f61298182611ec6565b91507fffffffffffffffffffffffffffffffffffffffffffffffffffffffffffffffff82036129b3576129b2612792565b5b600182019050919050565b5f6040820190506129d15f830185611fe4565b6129de6020830184611fe4565b9392505050565b5f81905092915050565b5f81546129fb8161245f565b612a0581866129e5565b9450600182165f8114612a1f5760018114612a3457612a66565b60ff1983168652811515820286019350612a66565b612a3d856124c4565b5f5b83811015612a5e57815481890152600182019150602081019050612a3f565b838801955050505b50505092915050565b5f612a7982611e36565b612a8381856129e5565b9350612a93818560208601611e50565b80840191505092915050565b7f2e706e67000000000000000000000000000000000000000000000000000000005f82015250565b5f612ad36004836129e5565b9150612ade82612a9f565b600482019050919050565b5f612af482856129ef565b9150612b008284612a6f565b9150612b0b82612ac7565b91508190509392505050565b7f70726963653d30000000000000000000000000000000000000000000000000005f82015250565b5f612b4b600783611e40565b9150612b5682612b17565b602082019050919050565b5f6020820190508181035f830152612b7881612b3f565b9050919050565b7f74726561737572793d30000000000000000000000000000000000000000000005f82015250565b5f612bb3600a83611e40565b9150612bbe82612b7f565b602082019050919050565b5f6020820190508181035f830152612be081612ba7565b9050919050565b5f81519050919050565b5f82825260208201905092915050565b5f612c0b82612be7565b612c158185612bf1565b9350612c25818560208601611e50565b612c2e81611e5e565b840191505092915050565b5f608082019050612c4c5f830187611f54565b612c596020830186611f54565b612c666040830185611fe4565b8181036060830152612c788184612c01565b905095945050505050565b5f81519050612c9181611dae565b92915050565b5f60208284031215612cac57612cab611d7b565b5b5f612cb984828501612c83565b91505092915050565b7f4e487b71000000000000000000000000000000000000000000000000000000005f52601260045260245ffd5b5f604082019050612d025f830185611f54565b612d0f6020830184611fe4565b939250505056fea2646970667358221220025070e199aa05acb4383330ee60eb7ddce44e65cba70b6a4eb300fb2ac049dd64736f6c634300081e0033",
		"opcodes": "PUSH1 0xA0 PUSH1 0x40 MSTORE PUSH1 0x1 PUSH1 0xC SSTORE CALLVALUE DUP1 ISZERO PUSH2 0x14 JUMPI PUSH0 PUSH0 REVERT JUMPDEST POP PUSH1 0x40 MLOAD PUSH2 0x379F CODESIZE SUB DUP1 PUSH2 0x379F DUP4 CODECOPY DUP2 DUP2 ADD PUSH1 0x40 MSTORE DUP2 ADD SWAP1 PUSH2 0x36 SWAP2 SWAP1 PUSH2 0x56E JUMP JUMPDEST CALLER PUSH1 0x40 MLOAD DUP1 PUSH1 0x40 ADD PUSH1 0x40 MSTORE DUP1 PUSH1 0xD DUP2 MSTORE PUSH1 0x20 ADD PUSH32 0x457870657269656E636537323100000000000000000000000000000000000000 DUP2 MSTORE POP PUSH1 0x40 MLOAD DUP1 PUSH1 0x40 ADD PUSH1 0x40 MSTORE DUP1 PUSH1 0x3 DUP2 MSTORE PUSH1 0x20 ADD PUSH32 0x4558500000000000000000000000000000000000000000000000000000000000 DUP2 MSTORE POP DUP2 PUSH0 SWAP1 DUP2 PUSH2 0xB1 SWAP2 SWAP1 PUSH2 0x7F5 JUMP JUMPDEST POP DUP1 PUSH1 0x1 SWAP1 DUP2 PUSH2 0xC1 SWAP2 SWAP1 PUSH2 0x7F5 JUMP JUMPDEST POP POP POP PUSH0 PUSH20 0xFFFFFFFFFFFFFFFFFFFFFFFFFFFFFFFFFFFFFFFF AND DUP2 PUSH20 0xFFFFFFFFFFFFFFFFFFFFFFFFFFFFFFFFFFFFFFFF AND SUB PUSH2 0x134 JUMPI PUSH0 PUSH1 0x40 MLOAD PUSH32 0x1E4FBDF700000000000000000000000000000000000000000000000000000000 DUP2 MSTORE PUSH1 0x4 ADD PUSH2 0x12B SWAP2 SWAP1 PUSH2 0x8D3 JUMP JUMPDEST PUSH1 0x40 MLOAD DUP1 SWAP2 SUB SWAP1 REVERT JUMPDEST PUSH2 0x143 DUP2 PUSH2 0x2D1 PUSH1 0x20 SHL PUSH1 0x20 SHR JUMP JUMPDEST POP PUSH0 PUSH20 0xFFFFFFFFFFFFFFFFFFFFFFFFFFFFFFFFFFFFFFFF AND DUP5 PUSH20 0xFFFFFFFFFFFFFFFFFFFFFFFFFFFFFFFFFFFFFFFF AND SUB PUSH2 0x1B2 JUMPI PUSH1 0x40 MLOAD PUSH32 0x8C379A000000000000000000000000000000000000000000000000000000000 DUP2 MSTORE PUSH1 0x4 ADD PUSH2 0x1A9 SWAP1 PUSH2 0x946 JUMP JUMPDEST PUSH1 0x40 MLOAD DUP1 SWAP2 SUB SWAP1 REVERT JUMPDEST PUSH0 DUP4 GT PUSH2 0x1F4 JUMPI PUSH1 0x40 MLOAD PUSH32 0x8C379A000000000000000000000000000000000000000000000000000000000 DUP2 MSTORE PUSH1 0x4 ADD PUSH2 0x1EB SWAP1 PUSH2 0x9AE JUMP JUMPDEST PUSH1 0x40 MLOAD DUP1 SWAP2 SUB SWAP1 REVERT JUMPDEST PUSH0 DUP3 GT PUSH2 0x236 JUMPI PUSH1 0x40 MLOAD PUSH32 0x8C379A000000000000000000000000000000000000000000000000000000000 DUP2 MSTORE PUSH1 0x4 ADD PUSH2 0x22D SWAP1 PUSH2 0xA16 JUMP JUMPDEST PUSH1 0x40 MLOAD DUP1 SWAP2 SUB SWAP1 REVERT JUMPDEST DUP4 PUSH20 0xFFFFFFFFFFFFFFFFFFFFFFFFFFFFFFFFFFFFFFFF AND PUSH1 0x80 DUP2 PUSH20 0xFFFFFFFFFFFFFFFFFFFFFFFFFFFFFFFFFFFFFFFF AND DUP2 MSTORE POP POP DUP3 PUSH1 0x8 DUP2 SWAP1 SSTORE POP DUP2 PUSH1 0x9 DUP2 SWAP1 SSTORE POP DUP1 PUSH1 0xB SWAP1 DUP2 PUSH2 0x287 SWAP2 SWAP1 PUSH2 0x7F5 JUMP JUMPDEST POP CALLER PUSH1 0x7 PUSH0 PUSH2 0x100 EXP DUP2 SLOAD DUP2 PUSH20 0xFFFFFFFFFFFFFFFFFFFFFFFFFFFFFFFFFFFFFFFF MUL NOT AND SWAP1 DUP4 PUSH20 0xFFFFFFFFFFFFFFFFFFFFFFFFFFFFFFFFFFFFFFFF AND MUL OR SWAP1 SSTORE POP POP POP POP POP PUSH2 0xA34 JUMP JUMPDEST PUSH0 PUSH1 0x6 PUSH0 SWAP1 SLOAD SWAP1 PUSH2 0x100 EXP SWAP1 DIV PUSH20 0xFFFFFFFFFFFFFFFFFFFFFFFFFFFFFFFFFFFFFFFF AND SWAP1 POP DUP2 PUSH1 0x6 PUSH0 PUSH2 0x100 EXP DUP2 SLOAD DUP2 PUSH20 0xFFFFFFFFFFFFFFFFFFFFFFFFFFFFFFFFFFFFFFFF MUL NOT AND SWAP1 DUP4 PUSH20 0xFFFFFFFFFFFFFFFFFFFFFFFFFFFFFFFFFFFFFFFF AND MUL OR SWAP1 SSTORE POP DUP2 PUSH20 0xFFFFFFFFFFFFFFFFFFFFFFFFFFFFFFFFFFFFFFFF AND DUP2 PUSH20 0xFFFFFFFFFFFFFFFFFFFFFFFFFFFFFFFFFFFFFFFF AND PUSH32 0x8BE0079C531659141344CD1FD0A4F28419497F9722A3DAAFE3B4186F6B6457E0 PUSH1 0x40 MLOAD PUSH1 0x40 MLOAD DUP1 SWAP2 SUB SWAP1 LOG3 POP POP JUMP JUMPDEST PUSH0 PUSH1 0x40 MLOAD SWAP1 POP SWAP1 JUMP JUMPDEST PUSH0 PUSH0 REVERT JUMPDEST PUSH0 PUSH0 REVERT JUMPDEST PUSH0 PUSH20 0xFFFFFFFFFFFFFFFFFFFFFFFFFFFFFFFFFFFFFFFF DUP3 AND SWAP1 POP SWAP2 SWAP1 POP JUMP JUMPDEST PUSH0 PUSH2 0x3CE DUP3 PUSH2 0x3A5 JUMP JUMPDEST SWAP1 POP SWAP2 SWAP1 POP JUMP JUMPDEST PUSH2 0x3DE DUP2 PUSH2 0x3C4 JUMP JUMPDEST DUP2 EQ PUSH2 0x3E8 JUMPI PUSH0 PUSH0 REVERT JUMPDEST POP JUMP JUMPDEST PUSH0 DUP2 MLOAD SWAP1 POP PUSH2 0x3F9 DUP2 PUSH2 0x3D5 JUMP JUMPDEST SWAP3 SWAP2 POP POP JUMP JUMPDEST PUSH0 DUP2 SWAP1 POP SWAP2 SWAP1 POP JUMP JUMPDEST PUSH2 0x411 DUP2 PUSH2 0x3FF JUMP JUMPDEST DUP2 EQ PUSH2 0x41B JUMPI PUSH0 PUSH0 REVERT JUMPDEST POP JUMP JUMPDEST PUSH0 DUP2 MLOAD SWAP1 POP PUSH2 0x42C DUP2 PUSH2 0x408 JUMP JUMPDEST SWAP3 SWAP2 POP POP JUMP JUMPDEST PUSH0 PUSH0 REVERT JUMPDEST PUSH0 PUSH0 REVERT JUMPDEST PUSH0 PUSH1 0x1F NOT PUSH1 0x1F DUP4 ADD AND SWAP1 POP SWAP2 SWAP1 POP JUMP JUMPDEST PUSH32 0x4E487B7100000000000000000000000000000000000000000000000000000000 PUSH0 MSTORE PUSH1 0x41 PUSH1 0x4 MSTORE PUSH1 0x24 PUSH0 REVERT JUMPDEST PUSH2 0x480 DUP3 PUSH2 0x43A JUMP JUMPDEST DUP2 ADD DUP2 DUP2 LT PUSH8 0xFFFFFFFFFFFFFFFF DUP3 GT OR ISZERO PUSH2 0x49F JUMPI PUSH2 0x49E PUSH2 0x44A JUMP JUMPDEST JUMPDEST DUP1 PUSH1 0x40 MSTORE POP POP POP JUMP JUMPDEST PUSH0 PUSH2 0x4B1 PUSH2 0x394 JUMP JUMPDEST SWAP1 POP PUSH2 0x4BD DUP3 DUP3 PUSH2 0x477 JUMP JUMPDEST SWAP2 SWAP1 POP JUMP JUMPDEST PUSH0 PUSH8 0xFFFFFFFFFFFFFFFF DUP3 GT ISZERO PUSH2 0x4DC JUMPI PUSH2 0x4DB PUSH2 0x44A JUMP JUMPDEST JUMPDEST PUSH2 0x4E5 DUP3 PUSH2 0x43A JUMP JUMPDEST SWAP1 POP PUSH1 0x20 DUP2 ADD SWAP1 POP SWAP2 SWAP1 POP JUMP JUMPDEST DUP3 DUP2 DUP4 MCOPY PUSH0 DUP4 DUP4 ADD MSTORE POP POP POP JUMP JUMPDEST PUSH0 PUSH2 0x512 PUSH2 0x50D DUP5 PUSH2 0x4C2 JUMP JUMPDEST PUSH2 0x4A8 JUMP JUMPDEST SWAP1 POP DUP3 DUP2 MSTORE PUSH1 0x20 DUP2 ADD DUP5 DUP5 DUP5 ADD GT ISZERO PUSH2 0x52E JUMPI PUSH2 0x52D PUSH2 0x436 JUMP JUMPDEST JUMPDEST PUSH2 0x539 DUP5 DUP3 DUP6 PUSH2 0x4F2 JUMP JUMPDEST POP SWAP4 SWAP3 POP POP POP JUMP JUMPDEST PUSH0 DUP3 PUSH1 0x1F DUP4 ADD SLT PUSH2 0x555 JUMPI PUSH2 0x554 PUSH2 0x432 JUMP JUMPDEST JUMPDEST DUP2 MLOAD PUSH2 0x565 DUP5 DUP3 PUSH1 0x20 DUP7 ADD PUSH2 0x500 JUMP JUMPDEST SWAP2 POP POP SWAP3 SWAP2 POP POP JUMP JUMPDEST PUSH0 PUSH0 PUSH0 PUSH0 PUSH1 0x80 DUP6 DUP8 SUB SLT ISZERO PUSH2 0x586 JUMPI PUSH2 0x585 PUSH2 0x39D JUMP JUMPDEST JUMPDEST PUSH0 PUSH2 0x593 DUP8 DUP3 DUP9 ADD PUSH2 0x3EB JUMP JUMPDEST SWAP5 POP POP PUSH1 0x20 PUSH2 0x5A4 DUP8 DUP3 DUP9 ADD PUSH2 0x41E JUMP JUMPDEST SWAP4 POP POP PUSH1 0x40 PUSH2 0x5B5 DUP8 DUP3 DUP9 ADD PUSH2 0x41E JUMP JUMPDEST SWAP3 POP POP PUSH1 0x60 DUP6 ADD MLOAD PUSH8 0xFFFFFFFFFFFFFFFF DUP2 GT ISZERO PUSH2 0x5D6 JUMPI PUSH2 0x5D5 PUSH2 0x3A1 JUMP JUMPDEST JUMPDEST PUSH2 0x5E2 DUP8 DUP3 DUP9 ADD PUSH2 0x541 JUMP JUMPDEST SWAP2 POP POP SWAP3 SWAP6 SWAP2 SWAP5 POP SWAP3 POP JUMP JUMPDEST PUSH0 DUP2 MLOAD SWAP1 POP SWAP2 SWAP1 POP JUMP JUMPDEST PUSH32 0x4E487B7100000000000000000000000000000000000000000000000000000000 PUSH0 MSTORE PUSH1 0x22 PUSH1 0x4 MSTORE PUSH1 0x24 PUSH0 REVERT JUMPDEST PUSH0 PUSH1 0x2 DUP3 DIV SWAP1 POP PUSH1 0x1 DUP3 AND DUP1 PUSH2 0x63C JUMPI PUSH1 0x7F DUP3 AND SWAP2 POP JUMPDEST PUSH1 0x20 DUP3 LT DUP2 SUB PUSH2 0x64F JUMPI PUSH2 0x64E PUSH2 0x5F8 JUMP JUMPDEST JUMPDEST POP SWAP2 SWAP1 POP JUMP JUMPDEST PUSH0 DUP2 SWAP1 POP DUP2 PUSH0 MSTORE PUSH1 0x20 PUSH0 KECCAK256 SWAP1 POP SWAP2 SWAP1 POP JUMP JUMPDEST PUSH0 PUSH1 0x20 PUSH1 0x1F DUP4 ADD DIV SWAP1 POP SWAP2 SWAP1 POP JUMP JUMPDEST PUSH0 DUP3 DUP3 SHL SWAP1 POP SWAP3 SWAP2 POP POP JUMP JUMPDEST PUSH0 PUSH1 0x8 DUP4 MUL PUSH2 0x6B1 PUSH32 0xFFFFFFFFFFFFFFFFFFFFFFFFFFFFFFFFFFFFFFFFFFFFFFFFFFFFFFFFFFFFFFFF DUP3 PUSH2 0x676 JUMP JUMPDEST PUSH2 0x6BB DUP7 DUP4 PUSH2 0x676 JUMP JUMPDEST SWAP6 POP DUP1 NOT DUP5 AND SWAP4 POP DUP1 DUP7 AND DUP5 OR SWAP3 POP POP POP SWAP4 SWAP3 POP POP POP JUMP JUMPDEST PUSH0 DUP2 SWAP1 POP SWAP2 SWAP1 POP JUMP JUMPDEST PUSH0 PUSH2 0x6F6 PUSH2 0x6F1 PUSH2 0x6EC DUP5 PUSH2 0x3FF JUMP JUMPDEST PUSH2 0x6D3 JUMP JUMPDEST PUSH2 0x3FF JUMP JUMPDEST SWAP1 POP SWAP2 SWAP1 POP JUMP JUMPDEST PUSH0 DUP2 SWAP1 POP SWAP2 SWAP1 POP JUMP JUMPDEST PUSH2 0x70F DUP4 PUSH2 0x6DC JUMP JUMPDEST PUSH2 0x723 PUSH2 0x71B DUP3 PUSH2 0x6FD JUMP JUMPDEST DUP5 DUP5 SLOAD PUSH2 0x682 JUMP JUMPDEST DUP3 SSTORE POP POP POP POP JUMP JUMPDEST PUSH0 PUSH0 SWAP1 POP SWAP1 JUMP JUMPDEST PUSH2 0x73A PUSH2 0x72B JUMP JUMPDEST PUSH2 0x745 DUP2 DUP5 DUP5 PUSH2 0x706 JUMP JUMPDEST POP POP POP JUMP JUMPDEST JUMPDEST DUP2 DUP2 LT ISZERO PUSH2 0x768 JUMPI PUSH2 0x75D PUSH0 DUP3 PUSH2 0x732 JUMP JUMPDEST PUSH1 0x1 DUP2 ADD SWAP1 POP PUSH2 0x74B JUMP JUMPDEST POP POP JUMP JUMPDEST PUSH1 0x1F DUP3 GT ISZERO PUSH2 0x7AD JUMPI PUSH2 0x77E DUP2 PUSH2 0x655 JUMP JUMPDEST PUSH2 0x787 DUP5 PUSH2 0x667 JUMP JUMPDEST DUP2 ADD PUSH1 0x20 DUP6 LT ISZERO PUSH2 0x796 JUMPI DUP2 SWAP1 POP JUMPDEST PUSH2 0x7AA PUSH2 0x7A2 DUP6 PUSH2 0x667 JUMP JUMPDEST DUP4 ADD DUP3 PUSH2 0x74A JUMP JUMPDEST POP POP JUMPDEST POP POP POP JUMP JUMPDEST PUSH0 DUP3 DUP3 SHR SWAP1 POP SWAP3 SWAP2 POP POP JUMP JUMPDEST PUSH0 PUSH2 0x7CD PUSH0 NOT DUP5 PUSH1 0x8 MUL PUSH2 0x7B2 JUMP JUMPDEST NOT DUP1 DUP4 AND SWAP2 POP POP SWAP3 SWAP2 POP POP JUMP JUMPDEST PUSH0 PUSH2 0x7E5 DUP4 DUP4 PUSH2 0x7BE JUMP JUMPDEST SWAP2 POP DUP3 PUSH1 0x2 MUL DUP3 OR SWAP1 POP SWAP3 SWAP2 POP POP JUMP JUMPDEST PUSH2 0x7FE DUP3 PUSH2 0x5EE JUMP JUMPDEST PUSH8 0xFFFFFFFFFFFFFFFF DUP2 GT ISZERO PUSH2 0x817 JUMPI PUSH2 0x816 PUSH2 0x44A JUMP JUMPDEST JUMPDEST PUSH2 0x821 DUP3 SLOAD PUSH2 0x625 JUMP JUMPDEST PUSH2 0x82C DUP3 DUP3 DUP6 PUSH2 0x76C JUMP JUMPDEST PUSH0 PUSH1 0x20 SWAP1 POP PUSH1 0x1F DUP4 GT PUSH1 0x1 DUP2 EQ PUSH2 0x85D JUMPI PUSH0 DUP5 ISZERO PUSH2 0x84B JUMPI DUP3 DUP8 ADD MLOAD SWAP1 POP JUMPDEST PUSH2 0x855 DUP6 DUP3 PUSH2 0x7DA JUMP JUMPDEST DUP7 SSTORE POP PUSH2 0x8BC JUMP JUMPDEST PUSH1 0x1F NOT DUP5 AND PUSH2 0x86B DUP7 PUSH2 0x655 JUMP JUMPDEST PUSH0 JUMPDEST DUP3 DUP2 LT ISZERO PUSH2 0x892 JUMPI DUP5 DUP10 ADD MLOAD DUP3 SSTORE PUSH1 0x1 DUP3 ADD SWAP2 POP PUSH1 0x20 DUP6 ADD SWAP5 POP PUSH1 0x20 DUP2 ADD SWAP1 POP PUSH2 0x86D JUMP JUMPDEST DUP7 DUP4 LT ISZERO PUSH2 0x8AF JUMPI DUP5 DUP10 ADD MLOAD PUSH2 0x8AB PUSH1 0x1F DUP10 AND DUP3 PUSH2 0x7BE JUMP JUMPDEST DUP4 SSTORE POP JUMPDEST PUSH1 0x1 PUSH1 0x2 DUP9 MUL ADD DUP9 SSTORE POP POP POP JUMPDEST POP POP POP POP POP POP JUMP JUMPDEST PUSH2 0x8CD DUP2 PUSH2 0x3C4 JUMP JUMPDEST DUP3 MSTORE POP POP JUMP JUMPDEST PUSH0 PUSH1 0x20 DUP3 ADD SWAP1 POP PUSH2 0x8E6 PUSH0 DUP4 ADD DUP5 PUSH2 0x8C4 JUMP JUMPDEST SWAP3 SWAP2 POP POP JUMP JUMPDEST PUSH0 DUP3 DUP3 MSTORE PUSH1 0x20 DUP3 ADD SWAP1 POP SWAP3 SWAP2 POP POP JUMP JUMPDEST PUSH32 0x43424F3D30000000000000000000000000000000000000000000000000000000 PUSH0 DUP3 ADD MSTORE POP JUMP JUMPDEST PUSH0 PUSH2 0x930 PUSH1 0x5 DUP4 PUSH2 0x8EC JUMP JUMPDEST SWAP2 POP PUSH2 0x93B DUP3 PUSH2 0x8FC JUMP JUMPDEST PUSH1 0x20 DUP3 ADD SWAP1 POP SWAP2 SWAP1 POP JUMP JUMPDEST PUSH0 PUSH1 0x20 DUP3 ADD SWAP1 POP DUP2 DUP2 SUB PUSH0 DUP4 ADD MSTORE PUSH2 0x95D DUP2 PUSH2 0x924 JUMP JUMPDEST SWAP1 POP SWAP2 SWAP1 POP JUMP JUMPDEST PUSH32 0x70726963653D3000000000000000000000000000000000000000000000000000 PUSH0 DUP3 ADD MSTORE POP JUMP JUMPDEST PUSH0 PUSH2 0x998 PUSH1 0x7 DUP4 PUSH2 0x8EC JUMP JUMPDEST SWAP2 POP PUSH2 0x9A3 DUP3 PUSH2 0x964 JUMP JUMPDEST PUSH1 0x20 DUP3 ADD SWAP1 POP SWAP2 SWAP1 POP JUMP JUMPDEST PUSH0 PUSH1 0x20 DUP3 ADD SWAP1 POP DUP2 DUP2 SUB PUSH0 DUP4 ADD MSTORE PUSH2 0x9C5 DUP2 PUSH2 0x98C JUMP JUMPDEST SWAP1 POP SWAP2 SWAP1 POP JUMP JUMPDEST PUSH32 0x6D61783D30000000000000000000000000000000000000000000000000000000 PUSH0 DUP3 ADD MSTORE POP JUMP JUMPDEST PUSH0 PUSH2 0xA00 PUSH1 0x5 DUP4 PUSH2 0x8EC JUMP JUMPDEST SWAP2 POP PUSH2 0xA0B DUP3 PUSH2 0x9CC JUMP JUMPDEST PUSH1 0x20 DUP3 ADD SWAP1 POP SWAP2 SWAP1 POP JUMP JUMPDEST PUSH0 PUSH1 0x20 DUP3 ADD SWAP1 POP DUP2 DUP2 SUB PUSH0 DUP4 ADD MSTORE PUSH2 0xA2D DUP2 PUSH2 0x9F4 JUMP JUMPDEST SWAP1 POP SWAP2 SWAP1 POP JUMP JUMPDEST PUSH1 0x80 MLOAD PUSH2 0x2D4C PUSH2 0xA53 PUSH0 CODECOPY PUSH0 DUP2 DUP2 PUSH2 0x74F ADD MSTORE PUSH2 0xA41 ADD MSTORE PUSH2 0x2D4C PUSH0 RETURN INVALID PUSH1 0x80 PUSH1 0x40 MSTORE CALLVALUE DUP1 ISZERO PUSH2 0xF JUMPI PUSH0 PUSH0 REVERT JUMPDEST POP PUSH1 0x4 CALLDATASIZE LT PUSH2 0x171 JUMPI PUSH0 CALLDATALOAD PUSH1 0xE0 SHR DUP1 PUSH4 0x715018A6 GT PUSH2 0xDC JUMPI DUP1 PUSH4 0xC87B56DD GT PUSH2 0x95 JUMPI DUP1 PUSH4 0xE985E9C5 GT PUSH2 0x6F JUMPI DUP1 PUSH4 0xE985E9C5 EQ PUSH2 0x421 JUMPI DUP1 PUSH4 0xF0F44260 EQ PUSH2 0x451 JUMPI DUP1 PUSH4 0xF2FDE38B EQ PUSH2 0x46D JUMPI DUP1 PUSH4 0xFB29ADA6 EQ PUSH2 0x489 JUMPI PUSH2 0x171 JUMP JUMPDEST DUP1 PUSH4 0xC87B56DD EQ PUSH2 0x3B7 JUMPI DUP1 PUSH4 0xCE0ED706 EQ PUSH2 0x3E7 JUMPI DUP1 PUSH4 0xD5ABEB01 EQ PUSH2 0x403 JUMPI PUSH2 0x171 JUMP JUMPDEST DUP1 PUSH4 0x715018A6 EQ PUSH2 0x31D JUMPI DUP1 PUSH4 0x8DA5CB5B EQ PUSH2 0x327 JUMPI DUP1 PUSH4 0x95D89B41 EQ PUSH2 0x345 JUMPI DUP1 PUSH4 0xA0712D68 EQ PUSH2 0x363 JUMPI DUP1 PUSH4 0xA22CB465 EQ PUSH2 0x37F JUMPI DUP1 PUSH4 0xB88D4FDE EQ PUSH2 0x39B JUMPI PUSH2 0x171 JUMP JUMPDEST DUP1 PUSH4 0x33862D67 GT PUSH2 0x12E JUMPI DUP1 PUSH4 0x33862D67 EQ PUSH2 0x249 JUMPI DUP1 PUSH4 0x42842E0E EQ PUSH2 0x267 JUMPI DUP1 PUSH4 0x55F804B3 EQ PUSH2 0x283 JUMPI DUP1 PUSH4 0x61D027B3 EQ PUSH2 0x29F JUMPI DUP1 PUSH4 0x6352211E EQ PUSH2 0x2BD JUMPI DUP1 PUSH4 0x70A08231 EQ PUSH2 0x2ED JUMPI PUSH2 0x171 JUMP JUMPDEST DUP1 PUSH4 0x1FFC9A7 EQ PUSH2 0x175 JUMPI DUP1 PUSH4 0x6FDDE03 EQ PUSH2 0x1A5 JUMPI DUP1 PUSH4 0x81812FC EQ PUSH2 0x1C3 JUMPI DUP1 PUSH4 0x95EA7B3 EQ PUSH2 0x1F3 JUMPI DUP1 PUSH4 0x18160DDD EQ PUSH2 0x20F JUMPI DUP1 PUSH4 0x23B872DD EQ PUSH2 0x22D JUMPI JUMPDEST PUSH0 PUSH0 REVERT JUMPDEST PUSH2 0x18F PUSH1 0x4 DUP1 CALLDATASIZE SUB DUP2 ADD SWAP1 PUSH2 0x18A SWAP2 SWAP1 PUSH2 0x1DD8 JUMP JUMPDEST PUSH2 0x4A7 JUMP JUMPDEST PUSH1 0x40 MLOAD PUSH2 0x19C SWAP2 SWAP1 PUSH2 0x1E1D JUMP JUMPDEST PUSH1 0x40 MLOAD DUP1 SWAP2 SUB SWAP1 RETURN JUMPDEST PUSH2 0x1AD PUSH2 0x588 JUMP JUMPDEST PUSH1 0x40 MLOAD PUSH2 0x1BA SWAP2 SWAP1 PUSH2 0x1EA6 JUMP JUMPDEST PUSH1 0x40 MLOAD DUP1 SWAP2 SUB SWAP1 RETURN JUMPDEST PUSH2 0x1DD PUSH1 0x4 DUP1 CALLDATASIZE SUB DUP2 ADD SWAP1 PUSH2 0x1D8 SWAP2 SWAP1 PUSH2 0x1EF9 JUMP JUMPDEST PUSH2 0x617 JUMP JUMPDEST PUSH1 0x40 MLOAD PUSH2 0x1EA SWAP2 SWAP1 PUSH2 0x1F63 JUMP JUMPDEST PUSH1 0x40 MLOAD DUP1 SWAP2 SUB SWAP1 RETURN JUMPDEST PUSH2 0x20D PUSH1 0x4 DUP1 CALLDATASIZE SUB DUP2 ADD SWAP1 PUSH2 0x208 SWAP2 SWAP1 PUSH2 0x1FA6 JUMP JUMPDEST PUSH2 0x632 JUMP JUMPDEST STOP JUMPDEST PUSH2 0x217 PUSH2 0x648 JUMP JUMPDEST PUSH1 0x40 MLOAD PUSH2 0x224 SWAP2 SWAP1 PUSH2 0x1FF3 JUMP JUMPDEST PUSH1 0x40 MLOAD DUP1 SWAP2 SUB SWAP1 RETURN JUMPDEST PUSH2 0x247 PUSH1 0x4 DUP1 CALLDATASIZE SUB DUP2 ADD SWAP1 PUSH2 0x242 SWAP2 SWAP1 PUSH2 0x200C JUMP JUMPDEST PUSH2 0x64E JUMP JUMPDEST STOP JUMPDEST PUSH2 0x251 PUSH2 0x74D JUMP JUMPDEST PUSH1 0x40 MLOAD PUSH2 0x25E SWAP2 SWAP1 PUSH2 0x20B7 JUMP JUMPDEST PUSH1 0x40 MLOAD DUP1 SWAP2 SUB SWAP1 RETURN JUMPDEST PUSH2 0x281 PUSH1 0x4 DUP1 CALLDATASIZE SUB DUP2 ADD SWAP1 PUSH2 0x27C SWAP2 SWAP1 PUSH2 0x200C JUMP JUMPDEST PUSH2 0x771 JUMP JUMPDEST STOP JUMPDEST PUSH2 0x29D PUSH1 0x4 DUP1 CALLDATASIZE SUB DUP2 ADD SWAP1 PUSH2 0x298 SWAP2 SWAP1 PUSH2 0x21FC JUMP JUMPDEST PUSH2 0x790 JUMP JUMPDEST STOP JUMPDEST PUSH2 0x2A7 PUSH2 0x7E2 JUMP JUMPDEST PUSH1 0x40 MLOAD PUSH2 0x2B4 SWAP2 SWAP1 PUSH2 0x1F63 JUMP JUMPDEST PUSH1 0x40 MLOAD DUP1 SWAP2 SUB SWAP1 RETURN JUMPDEST PUSH2 0x2D7 PUSH1 0x4 DUP1 CALLDATASIZE SUB DUP2 ADD SWAP1 PUSH2 0x2D2 SWAP2 SWAP1 PUSH2 0x1EF9 JUMP JUMPDEST PUSH2 0x807 JUMP JUMPDEST PUSH1 0x40 MLOAD PUSH2 0x2E4 SWAP2 SWAP1 PUSH2 0x1F63 JUMP JUMPDEST PUSH1 0x40 MLOAD DUP1 SWAP2 SUB SWAP1 RETURN JUMPDEST PUSH2 0x307 PUSH1 0x4 DUP1 CALLDATASIZE SUB DUP2 ADD SWAP1 PUSH2 0x302 SWAP2 SWAP1 PUSH2 0x2243 JUMP JUMPDEST PUSH2 0x818 JUMP JUMPDEST PUSH1 0x40 MLOAD PUSH2 0x314 SWAP2 SWAP1 PUSH2 0x1FF3 JUMP JUMPDEST PUSH1 0x40 MLOAD DUP1 SWAP2 SUB SWAP1 RETURN JUMPDEST PUSH2 0x325 PUSH2 0x8CE JUMP JUMPDEST STOP JUMPDEST PUSH2 0x32F PUSH2 0x8E1 JUMP JUMPDEST PUSH1 0x40 MLOAD PUSH2 0x33C SWAP2 SWAP1 PUSH2 0x1F63 JUMP JUMPDEST PUSH1 0x40 MLOAD DUP1 SWAP2 SUB SWAP1 RETURN JUMPDEST PUSH2 0x34D PUSH2 0x909 JUMP JUMPDEST PUSH1 0x40 MLOAD PUSH2 0x35A SWAP2 SWAP1 PUSH2 0x1EA6 JUMP JUMPDEST PUSH1 0x40 MLOAD DUP1 SWAP2 SUB SWAP1 RETURN JUMPDEST PUSH2 0x37D PUSH1 0x4 DUP1 CALLDATASIZE SUB DUP2 ADD SWAP1 PUSH2 0x378 SWAP2 SWAP1 PUSH2 0x1EF9 JUMP JUMPDEST PUSH2 0x999 JUMP JUMPDEST STOP JUMPDEST PUSH2 0x399 PUSH1 0x4 DUP1 CALLDATASIZE SUB DUP2 ADD SWAP1 PUSH2 0x394 SWAP2 SWAP1 PUSH2 0x2298 JUMP JUMPDEST PUSH2 0xBEC JUMP JUMPDEST STOP JUMPDEST PUSH2 0x3B5 PUSH1 0x4 DUP1 CALLDATASIZE SUB DUP2 ADD SWAP1 PUSH2 0x3B0 SWAP2 SWAP1 PUSH2 0x2374 JUMP JUMPDEST PUSH2 0xC02 JUMP JUMPDEST STOP JUMPDEST PUSH2 0x3D1 PUSH1 0x4 DUP1 CALLDATASIZE SUB DUP2 ADD SWAP1 PUSH2 0x3CC SWAP2 SWAP1 PUSH2 0x1EF9 JUMP JUMPDEST PUSH2 0xC27 JUMP JUMPDEST PUSH1 0x40 MLOAD PUSH2 0x3DE SWAP2 SWAP1 PUSH2 0x1EA6 JUMP JUMPDEST PUSH1 0x40 MLOAD DUP1 SWAP2 SUB SWAP1 RETURN JUMPDEST PUSH2 0x401 PUSH1 0x4 DUP1 CALLDATASIZE SUB DUP2 ADD SWAP1 PUSH2 0x3FC SWAP2 SWAP1 PUSH2 0x1EF9 JUMP JUMPDEST PUSH2 0xC65 JUMP JUMPDEST STOP JUMPDEST PUSH2 0x40B PUSH2 0xCF0 JUMP JUMPDEST PUSH1 0x40 MLOAD PUSH2 0x418 SWAP2 SWAP1 PUSH2 0x1FF3 JUMP JUMPDEST PUSH1 0x40 MLOAD DUP1 SWAP2 SUB SWAP1 RETURN JUMPDEST PUSH2 0x43B PUSH1 0x4 DUP1 CALLDATASIZE SUB DUP2 ADD SWAP1 PUSH2 0x436 SWAP2 SWAP1 PUSH2 0x23F4 JUMP JUMPDEST PUSH2 0xCF6 JUMP JUMPDEST PUSH1 0x40 MLOAD PUSH2 0x448 SWAP2 SWAP1 PUSH2 0x1E1D JUMP JUMPDEST PUSH1 0x40 MLOAD DUP1 SWAP2 SUB SWAP1 RETURN JUMPDEST PUSH2 0x46B PUSH1 0x4 DUP1 CALLDATASIZE SUB DUP2 ADD SWAP1 PUSH2 0x466 SWAP2 SWAP1 PUSH2 0x2243 JUMP JUMPDEST PUSH2 0xD84 JUMP JUMPDEST STOP JUMPDEST PUSH2 0x487 PUSH1 0x4 DUP1 CALLDATASIZE SUB DUP2 ADD SWAP1 PUSH2 0x482 SWAP2 SWAP1 PUSH2 0x2243 JUMP JUMPDEST PUSH2 0xE74 JUMP JUMPDEST STOP JUMPDEST PUSH2 0x491 PUSH2 0xEF8 JUMP JUMPDEST PUSH1 0x40 MLOAD PUSH2 0x49E SWAP2 SWAP1 PUSH2 0x1FF3 JUMP JUMPDEST PUSH1 0x40 MLOAD DUP1 SWAP2 SUB SWAP1 RETURN JUMPDEST PUSH0 PUSH32 0x80AC58CD00000000000000000000000000000000000000000000000000000000 PUSH28 0xFFFFFFFFFFFFFFFFFFFFFFFFFFFFFFFFFFFFFFFFFFFFFFFFFFFFFFFF NOT AND DUP3 PUSH28 0xFFFFFFFFFFFFFFFFFFFFFFFFFFFFFFFFFFFFFFFFFFFFFFFFFFFFFFFF NOT AND EQ DUP1 PUSH2 0x571 JUMPI POP PUSH32 0x5B5E139F00000000000000000000000000000000000000000000000000000000 PUSH28 0xFFFFFFFFFFFFFFFFFFFFFFFFFFFFFFFFFFFFFFFFFFFFFFFFFFFFFFFF NOT AND DUP3 PUSH28 0xFFFFFFFFFFFFFFFFFFFFFFFFFFFFFFFFFFFFFFFFFFFFFFFFFFFFFFFF NOT AND EQ JUMPDEST DUP1 PUSH2 0x581 JUMPI POP PUSH2 0x580 DUP3 PUSH2 0xEFE JUMP JUMPDEST JUMPDEST SWAP1 POP SWAP2 SWAP1 POP JUMP JUMPDEST PUSH1 0x60 PUSH0 DUP1 SLOAD PUSH2 0x596 SWAP1 PUSH2 0x245F JUMP JUMPDEST DUP1 PUSH1 0x1F ADD PUSH1 0x20 DUP1 SWAP2 DIV MUL PUSH1 0x20 ADD PUSH1 0x40 MLOAD SWAP1 DUP2 ADD PUSH1 0x40 MSTORE DUP1 SWAP3 SWAP2 SWAP1 DUP2 DUP2 MSTORE PUSH1 0x20 ADD DUP3 DUP1 SLOAD PUSH2 0x5C2 SWAP1 PUSH2 0x245F JUMP JUMPDEST DUP1 ISZERO PUSH2 0x60D JUMPI DUP1 PUSH1 0x1F LT PUSH2 0x5E4 JUMPI PUSH2 0x100 DUP1 DUP4 SLOAD DIV MUL DUP4 MSTORE SWAP2 PUSH1 0x20 ADD SWAP2 PUSH2 0x60D JUMP JUMPDEST DUP3 ADD SWAP2 SWAP1 PUSH0 MSTORE PUSH1 0x20 PUSH0 KECCAK256 SWAP1 JUMPDEST DUP2 SLOAD DUP2 MSTORE SWAP1 PUSH1 0x1 ADD SWAP1 PUSH1 0x20 ADD DUP1 DUP4 GT PUSH2 0x5F0 JUMPI DUP3 SWAP1 SUB PUSH1 0x1F AND DUP3 ADD SWAP2 JUMPDEST POP POP POP POP POP SWAP1 POP SWAP1 JUMP JUMPDEST PUSH0 PUSH2 0x621 DUP3 PUSH2 0xF67 JUMP JUMPDEST POP PUSH2 0x62B DUP3 PUSH2 0xFED JUMP JUMPDEST SWAP1 POP SWAP2 SWAP1 POP JUMP JUMPDEST PUSH2 0x644 DUP3 DUP3 PUSH2 0x63F PUSH2 0x1026 JUMP JUMPDEST PUSH2 0x102D JUMP JUMPDEST POP POP JUMP JUMPDEST PUSH1 0xA SLOAD DUP2 JUMP JUMPDEST PUSH0 PUSH20 0xFFFFFFFFFFFFFFFFFFFFFFFFFFFFFFFFFFFFFFFF AND DUP3 PUSH20 0xFFFFFFFFFFFFFFFFFFFFFFFFFFFFFFFFFFFFFFFF AND SUB PUSH2 0x6BE JUMPI PUSH0 PUSH1 0x40 MLOAD PUSH32 0x64A0AE9200000000000000000000000000000000000000000000000000000000 DUP2 MSTORE PUSH1 0x4 ADD PUSH2 0x6B5 SWAP2 SWAP1 PUSH2 0x1F63 JUMP JUMPDEST PUSH1 0x40 MLOAD DUP1 SWAP2 SUB SWAP1 REVERT JUMPDEST PUSH0 PUSH2 0x6D1 DUP4 DUP4 PUSH2 0x6CC PUSH2 0x1026 JUMP JUMPDEST PUSH2 0x103F JUMP JUMPDEST SWAP1 POP DUP4 PUSH20 0xFFFFFFFFFFFFFFFFFFFFFFFFFFFFFFFFFFFFFFFF AND DUP2 PUSH20 0xFFFFFFFFFFFFFFFFFFFFFFFFFFFFFFFFFFFFFFFF AND EQ PUSH2 0x747 JUMPI DUP4 DUP3 DUP3 PUSH1 0x40 MLOAD PUSH32 0x64283D7B00000000000000000000000000000000000000000000000000000000 DUP2 MSTORE PUSH1 0x4 ADD PUSH2 0x73E SWAP4 SWAP3 SWAP2 SWAP1 PUSH2 0x248F JUMP JUMPDEST PUSH1 0x40 MLOAD DUP1 SWAP2 SUB SWAP1 REVERT JUMPDEST POP POP POP POP JUMP JUMPDEST PUSH32 0x0 DUP2 JUMP JUMPDEST PUSH2 0x78B DUP4 DUP4 DUP4 PUSH1 0x40 MLOAD DUP1 PUSH1 0x20 ADD PUSH1 0x40 MSTORE DUP1 PUSH0 DUP2 MSTORE POP PUSH2 0xC02 JUMP JUMPDEST POP POP POP JUMP JUMPDEST PUSH2 0x798 PUSH2 0x124A JUMP JUMPDEST DUP1 PUSH1 0xB SWAP1 DUP2 PUSH2 0x7A7 SWAP2 SWAP1 PUSH2 0x265B JUMP JUMPDEST POP PUSH32 0x5411E8EBF1636D9E83D5FC4900BF80CBAC82E8790DA2A4C94DB4895E889EEDF6 DUP2 PUSH1 0x40 MLOAD PUSH2 0x7D7 SWAP2 SWAP1 PUSH2 0x1EA6 JUMP JUMPDEST PUSH1 0x40 MLOAD DUP1 SWAP2 SUB SWAP1 LOG1 POP JUMP JUMPDEST PUSH1 0x7 PUSH0 SWAP1 SLOAD SWAP1 PUSH2 0x100 EXP SWAP1 DIV PUSH20 0xFFFFFFFFFFFFFFFFFFFFFFFFFFFFFFFFFFFFFFFF AND DUP2 JUMP JUMPDEST PUSH0 PUSH2 0x811 DUP3 PUSH2 0xF67 JUMP JUMPDEST SWAP1 POP SWAP2 SWAP1 POP JUMP JUMPDEST PUSH0 PUSH0 PUSH20 0xFFFFFFFFFFFFFFFFFFFFFFFFFFFFFFFFFFFFFFFF AND DUP3 PUSH20 0xFFFFFFFFFFFFFFFFFFFFFFFFFFFFFFFFFFFFFFFF AND SUB PUSH2 0x889 JUMPI PUSH0 PUSH1 0x40 MLOAD PUSH32 0x89C62B6400000000000000000000000000000000000000000000000000000000 DUP2 MSTORE PUSH1 0x4 ADD PUSH2 0x880 SWAP2 SWAP1 PUSH2 0x1F63 JUMP JUMPDEST PUSH1 0x40 MLOAD DUP1 SWAP2 SUB SWAP1 REVERT JUMPDEST PUSH1 0x3 PUSH0 DUP4 PUSH20 0xFFFFFFFFFFFFFFFFFFFFFFFFFFFFFFFFFFFFFFFF AND PUSH20 0xFFFFFFFFFFFFFFFFFFFFFFFFFFFFFFFFFFFFFFFF AND DUP2 MSTORE PUSH1 0x20 ADD SWAP1 DUP2 MSTORE PUSH1 0x20 ADD PUSH0 KECCAK256 SLOAD SWAP1 POP SWAP2 SWAP1 POP JUMP JUMPDEST PUSH2 0x8D6 PUSH2 0x124A JUMP JUMPDEST PUSH2 0x8DF PUSH0 PUSH2 0x12D1 JUMP JUMPDEST JUMP JUMPDEST PUSH0 PUSH1 0x6 PUSH0 SWAP1 SLOAD SWAP1 PUSH2 0x100 EXP SWAP1 DIV PUSH20 0xFFFFFFFFFFFFFFFFFFFFFFFFFFFFFFFFFFFFFFFF AND SWAP1 POP SWAP1 JUMP JUMPDEST PUSH1 0x60 PUSH1 0x1 DUP1 SLOAD PUSH2 0x918 SWAP1 PUSH2 0x245F JUMP JUMPDEST DUP1 PUSH1 0x1F ADD PUSH1 0x20 DUP1 SWAP2 DIV MUL PUSH1 0x20 ADD PUSH1 0x40 MLOAD SWAP1 DUP2 ADD PUSH1 0x40 MSTORE DUP1 SWAP3 SWAP2 SWAP1 DUP2 DUP2 MSTORE PUSH1 0x20 ADD DUP3 DUP1 SLOAD PUSH2 0x944 SWAP1 PUSH2 0x245F JUMP JUMPDEST DUP1 ISZERO PUSH2 0x98F JUMPI DUP1 PUSH1 0x1F LT PUSH2 0x966 JUMPI PUSH2 0x100 DUP1 DUP4 SLOAD DIV MUL DUP4 MSTORE SWAP2 PUSH1 0x20 ADD SWAP2 PUSH2 0x98F JUMP JUMPDEST DUP3 ADD SWAP2 SWAP1 PUSH0 MSTORE PUSH1 0x20 PUSH0 KECCAK256 SWAP1 JUMPDEST DUP2 SLOAD DUP2 MSTORE SWAP1 PUSH1 0x1 ADD SWAP1 PUSH1 0x20 ADD DUP1 DUP4 GT PUSH2 0x972 JUMPI DUP3 SWAP1 SUB PUSH1 0x1F AND DUP3 ADD SWAP2 JUMPDEST POP POP POP POP POP SWAP1 POP SWAP1 JUMP JUMPDEST PUSH0 DUP2 GT PUSH2 0x9DB JUMPI PUSH1 0x40 MLOAD PUSH32 0x8C379A000000000000000000000000000000000000000000000000000000000 DUP2 MSTORE PUSH1 0x4 ADD PUSH2 0x9D2 SWAP1 PUSH2 0x2774 JUMP JUMPDEST PUSH1 0x40 MLOAD DUP1 SWAP2 SUB SWAP1 REVERT JUMPDEST PUSH1 0x9 SLOAD DUP2 PUSH1 0xA SLOAD PUSH2 0x9EC SWAP2 SWAP1 PUSH2 0x27BF JUMP JUMPDEST GT ISZERO PUSH2 0xA2D JUMPI PUSH1 0x40 MLOAD PUSH32 0x8C379A000000000000000000000000000000000000000000000000000000000 DUP2 MSTORE PUSH1 0x4 ADD PUSH2 0xA24 SWAP1 PUSH2 0x283C JUMP JUMPDEST PUSH1 0x40 MLOAD DUP1 SWAP2 SUB SWAP1 REVERT JUMPDEST PUSH0 DUP2 PUSH1 0x8 SLOAD PUSH2 0xA3C SWAP2 SWAP1 PUSH2 0x285A JUMP JUMPDEST SWAP1 POP PUSH0 PUSH32 0x0 PUSH20 0xFFFFFFFFFFFFFFFFFFFFFFFFFFFFFFFFFFFFFFFF AND PUSH4 0x23B872DD CALLER PUSH1 0x7 PUSH0 SWAP1 SLOAD SWAP1 PUSH2 0x100 EXP SWAP1 DIV PUSH20 0xFFFFFFFFFFFFFFFFFFFFFFFFFFFFFFFFFFFFFFFF AND DUP6 PUSH1 0x40 MLOAD DUP5 PUSH4 0xFFFFFFFF AND PUSH1 0xE0 SHL DUP2 MSTORE PUSH1 0x4 ADD PUSH2 0xABD SWAP4 SWAP3 SWAP2 SWAP1 PUSH2 0x289B JUMP JUMPDEST PUSH1 0x20 PUSH1 0x40 MLOAD DUP1 DUP4 SUB DUP2 PUSH0 DUP8 GAS CALL ISZERO DUP1 ISZERO PUSH2 0xAD9 JUMPI RETURNDATASIZE PUSH0 PUSH0 RETURNDATACOPY RETURNDATASIZE PUSH0 REVERT JUMPDEST POP POP POP POP PUSH1 0x40 MLOAD RETURNDATASIZE PUSH1 0x1F NOT PUSH1 0x1F DUP3 ADD AND DUP3 ADD DUP1 PUSH1 0x40 MSTORE POP DUP2 ADD SWAP1 PUSH2 0xAFD SWAP2 SWAP1 PUSH2 0x28E4 JUMP JUMPDEST SWAP1 POP DUP1 PUSH2 0xB3F JUMPI PUSH1 0x40 MLOAD PUSH32 0x8C379A000000000000000000000000000000000000000000000000000000000 DUP2 MSTORE PUSH1 0x4 ADD PUSH2 0xB36 SWAP1 PUSH2 0x2959 JUMP JUMPDEST PUSH1 0x40 MLOAD DUP1 SWAP2 SUB SWAP1 REVERT JUMPDEST PUSH0 PUSH0 SWAP1 POP JUMPDEST DUP4 DUP2 LT ISZERO PUSH2 0xB96 JUMPI PUSH0 PUSH1 0xC PUSH0 DUP2 SLOAD DUP1 SWAP3 SWAP2 SWAP1 PUSH2 0xB5F SWAP1 PUSH2 0x2977 JUMP JUMPDEST SWAP2 SWAP1 POP SSTORE SWAP1 POP PUSH1 0x1 PUSH1 0xA PUSH0 DUP3 DUP3 SLOAD PUSH2 0xB77 SWAP2 SWAP1 PUSH2 0x27BF JUMP JUMPDEST SWAP3 POP POP DUP2 SWAP1 SSTORE POP PUSH2 0xB88 CALLER DUP3 PUSH2 0x1394 JUMP JUMPDEST POP DUP1 DUP1 PUSH1 0x1 ADD SWAP2 POP POP PUSH2 0xB44 JUMP JUMPDEST POP CALLER PUSH20 0xFFFFFFFFFFFFFFFFFFFFFFFFFFFFFFFFFFFFFFFF AND PUSH32 0x25B428DFDE728CCFADDAD7E29E4AC23C24ED7FD1A6E3E3F91894A9A073F5DFFF DUP5 DUP5 PUSH1 0x40 MLOAD PUSH2 0xBDF SWAP3 SWAP2 SWAP1 PUSH2 0x29BE JUMP JUMPDEST PUSH1 0x40 MLOAD DUP1 SWAP2 SUB SWAP1 LOG2 POP POP POP JUMP JUMPDEST PUSH2 0xBFE PUSH2 0xBF7 PUSH2 0x1026 JUMP JUMPDEST DUP4 DUP4 PUSH2 0x13B1 JUMP JUMPDEST POP POP JUMP JUMPDEST PUSH2 0xC0D DUP5 DUP5 DUP5 PUSH2 0x64E JUMP JUMPDEST PUSH2 0xC21 PUSH2 0xC18 PUSH2 0x1026 JUMP JUMPDEST DUP6 DUP6 DUP6 DUP6 PUSH2 0x151A JUMP JUMPDEST POP POP POP POP JUMP JUMPDEST PUSH1 0x60 PUSH2 0xC32 DUP3 PUSH2 0x807 JUMP JUMPDEST POP PUSH1 0xB PUSH2 0xC3E DUP4 PUSH2 0x16C6 JUMP JUMPDEST PUSH1 0x40 MLOAD PUSH1 0x20 ADD PUSH2 0xC4F SWAP3 SWAP2 SWAP1 PUSH2 0x2AE9 JUMP JUMPDEST PUSH1 0x40 MLOAD PUSH1 0x20 DUP2 DUP4 SUB SUB DUP2 MSTORE SWAP1 PUSH1 0x40 MSTORE SWAP1 POP SWAP2 SWAP1 POP JUMP JUMPDEST PUSH2 0xC6D PUSH2 0x124A JUMP JUMPDEST PUSH0 DUP2 GT PUSH2 0xCAF JUMPI PUSH1 0x40 MLOAD PUSH32 0x8C379A000000000000000000000000000000000000000000000000000000000 DUP2 MSTORE PUSH1 0x4 ADD PUSH2 0xCA6 SWAP1 PUSH2 0x2B61 JUMP JUMPDEST PUSH1 0x40 MLOAD DUP1 SWAP2 SUB SWAP1 REVERT JUMPDEST DUP1 PUSH1 0x8 DUP2 SWAP1 SSTORE POP PUSH32 0xA6DC15BDB68DA224C66DB4B3838D9A2B205138E8CFF6774E57D0AF91E196D622 DUP2 PUSH1 0x40 MLOAD PUSH2 0xCE5 SWAP2 SWAP1 PUSH2 0x1FF3 JUMP JUMPDEST PUSH1 0x40 MLOAD DUP1 SWAP2 SUB SWAP1 LOG1 POP JUMP JUMPDEST PUSH1 0x9 SLOAD DUP2 JUMP JUMPDEST PUSH0 PUSH1 0x5 PUSH0 DUP5 PUSH20 0xFFFFFFFFFFFFFFFFFFFFFFFFFFFFFFFFFFFFFFFF AND PUSH20 0xFFFFFFFFFFFFFFFFFFFFFFFFFFFFFFFFFFFFFFFF AND DUP2 MSTORE PUSH1 0x20 ADD SWAP1 DUP2 MSTORE PUSH1 0x20 ADD PUSH0 KECCAK256 PUSH0 DUP4 PUSH20 0xFFFFFFFFFFFFFFFFFFFFFFFFFFFFFFFFFFFFFFFF AND PUSH20 0xFFFFFFFFFFFFFFFFFFFFFFFFFFFFFFFFFFFFFFFF AND DUP2 MSTORE PUSH1 0x20 ADD SWAP1 DUP2 MSTORE PUSH1 0x20 ADD PUSH0 KECCAK256 PUSH0 SWAP1 SLOAD SWAP1 PUSH2 0x100 EXP SWAP1 DIV PUSH1 0xFF AND SWAP1 POP SWAP3 SWAP2 POP POP JUMP JUMPDEST PUSH2 0xD8C PUSH2 0x124A JUMP JUMPDEST PUSH0 PUSH20 0xFFFFFFFFFFFFFFFFFFFFFFFFFFFFFFFFFFFFFFFF AND DUP2 PUSH20 0xFFFFFFFFFFFFFFFFFFFFFFFFFFFFFFFFFFFFFFFF AND SUB PUSH2 0xDFA JUMPI PUSH1 0x40 MLOAD PUSH32 0x8C379A000000000000000000000000000000000000000000000000000000000 DUP2 MSTORE PUSH1 0x4 ADD PUSH2 0xDF1 SWAP1 PUSH2 0x2BC9 JUMP JUMPDEST PUSH1 0x40 MLOAD DUP1 SWAP2 SUB SWAP1 REVERT JUMPDEST DUP1 PUSH1 0x7 PUSH0 PUSH2 0x100 EXP DUP2 SLOAD DUP2 PUSH20 0xFFFFFFFFFFFFFFFFFFFFFFFFFFFFFFFFFFFFFFFF MUL NOT AND SWAP1 DUP4 PUSH20 0xFFFFFFFFFFFFFFFFFFFFFFFFFFFFFFFFFFFFFFFF AND MUL OR SWAP1 SSTORE POP PUSH32 0xC714D22A2F08B695F81E7C707058DB484AA5B4D6B4C9FD64BEB10FE85832F608 DUP2 PUSH1 0x40 MLOAD PUSH2 0xE69 SWAP2 SWAP1 PUSH2 0x1F63 JUMP JUMPDEST PUSH1 0x40 MLOAD DUP1 SWAP2 SUB SWAP1 LOG1 POP JUMP JUMPDEST PUSH2 0xE7C PUSH2 0x124A JUMP JUMPDEST PUSH0 PUSH20 0xFFFFFFFFFFFFFFFFFFFFFFFFFFFFFFFFFFFFFFFF AND DUP2 PUSH20 0xFFFFFFFFFFFFFFFFFFFFFFFFFFFFFFFFFFFFFFFF AND SUB PUSH2 0xEEC JUMPI PUSH0 PUSH1 0x40 MLOAD PUSH32 0x1E4FBDF700000000000000000000000000000000000000000000000000000000 DUP2 MSTORE PUSH1 0x4 ADD PUSH2 0xEE3 SWAP2 SWAP1 PUSH2 0x1F63 JUMP JUMPDEST PUSH1 0x40 MLOAD DUP1 SWAP2 SUB SWAP1 REVERT JUMPDEST PUSH2 0xEF5 DUP2 PUSH2 0x12D1 JUMP JUMPDEST POP JUMP JUMPDEST PUSH1 0x8 SLOAD DUP2 JUMP JUMPDEST PUSH0 PUSH32 0x1FFC9A700000000000000000000000000000000000000000000000000000000 PUSH28 0xFFFFFFFFFFFFFFFFFFFFFFFFFFFFFFFFFFFFFFFFFFFFFFFFFFFFFFFF NOT AND DUP3 PUSH28 0xFFFFFFFFFFFFFFFFFFFFFFFFFFFFFFFFFFFFFFFFFFFFFFFFFFFFFFFF NOT AND EQ SWAP1 POP SWAP2 SWAP1 POP JUMP JUMPDEST PUSH0 PUSH0 PUSH2 0xF72 DUP4 PUSH2 0x1790 JUMP JUMPDEST SWAP1 POP PUSH0 PUSH20 0xFFFFFFFFFFFFFFFFFFFFFFFFFFFFFFFFFFFFFFFF AND DUP2 PUSH20 0xFFFFFFFFFFFFFFFFFFFFFFFFFFFFFFFFFFFFFFFF AND SUB PUSH2 0xFE4 JUMPI DUP3 PUSH1 0x40 MLOAD PUSH32 0x7E27328900000000000000000000000000000000000000000000000000000000 DUP2 MSTORE PUSH1 0x4 ADD PUSH2 0xFDB SWAP2 SWAP1 PUSH2 0x1FF3 JUMP JUMPDEST PUSH1 0x40 MLOAD DUP1 SWAP2 SUB SWAP1 REVERT JUMPDEST DUP1 SWAP2 POP POP SWAP2 SWAP1 POP JUMP JUMPDEST PUSH0 PUSH1 0x4 PUSH0 DUP4 DUP2 MSTORE PUSH1 0x20 ADD SWAP1 DUP2 MSTORE PUSH1 0x20 ADD PUSH0 KECCAK256 PUSH0 SWAP1 SLOAD SWAP1 PUSH2 0x100 EXP SWAP1 DIV PUSH20 0xFFFFFFFFFFFFFFFFFFFFFFFFFFFFFFFFFFFFFFFF AND SWAP1 POP SWAP2 SWAP1 POP JUMP JUMPDEST PUSH0 CALLER SWAP1 POP SWAP1 JUMP JUMPDEST PUSH2 0x103A DUP4 DUP4 DUP4 PUSH1 0x1 PUSH2 0x17C9 JUMP JUMPDEST POP POP POP JUMP JUMPDEST PUSH0 PUSH0 PUSH2 0x104A DUP5 PUSH2 0x1790 JUMP JUMPDEST SWAP1 POP PUSH0 PUSH20 0xFFFFFFFFFFFFFFFFFFFFFFFFFFFFFFFFFFFFFFFF AND DUP4 PUSH20 0xFFFFFFFFFFFFFFFFFFFFFFFFFFFFFFFFFFFFFFFF AND EQ PUSH2 0x108B JUMPI PUSH2 0x108A DUP2 DUP5 DUP7 PUSH2 0x1988 JUMP JUMPDEST JUMPDEST PUSH0 PUSH20 0xFFFFFFFFFFFFFFFFFFFFFFFFFFFFFFFFFFFFFFFF AND DUP2 PUSH20 0xFFFFFFFFFFFFFFFFFFFFFFFFFFFFFFFFFFFFFFFF AND EQ PUSH2 0x1116 JUMPI PUSH2 0x10CA PUSH0 DUP6 PUSH0 PUSH0 PUSH2 0x17C9 JUMP JUMPDEST PUSH1 0x1 PUSH1 0x3 PUSH0 DUP4 PUSH20 0xFFFFFFFFFFFFFFFFFFFFFFFFFFFFFFFFFFFFFFFF AND PUSH20 0xFFFFFFFFFFFFFFFFFFFFFFFFFFFFFFFFFFFFFFFF AND DUP2 MSTORE PUSH1 0x20 ADD SWAP1 DUP2 MSTORE PUSH1 0x20 ADD PUSH0 KECCAK256 PUSH0 DUP3 DUP3 SLOAD SUB SWAP3 POP POP DUP2 SWAP1 SSTORE POP JUMPDEST PUSH0 PUSH20 0xFFFFFFFFFFFFFFFFFFFFFFFFFFFFFFFFFFFFFFFF AND DUP6 PUSH20 0xFFFFFFFFFFFFFFFFFFFFFFFFFFFFFFFFFFFFFFFF AND EQ PUSH2 0x1195 JUMPI PUSH1 0x1 PUSH1 0x3 PUSH0 DUP8 PUSH20 0xFFFFFFFFFFFFFFFFFFFFFFFFFFFFFFFFFFFFFFFF AND PUSH20 0xFFFFFFFFFFFFFFFFFFFFFFFFFFFFFFFFFFFFFFFF AND DUP2 MSTORE PUSH1 0x20 ADD SWAP1 DUP2 MSTORE PUSH1 0x20 ADD PUSH0 KECCAK256 PUSH0 DUP3 DUP3 SLOAD ADD SWAP3 POP POP DUP2 SWAP1 SSTORE POP JUMPDEST DUP5 PUSH1 0x2 PUSH0 DUP7 DUP2 MSTORE PUSH1 0x20 ADD SWAP1 DUP2 MSTORE PUSH1 0x20 ADD PUSH0 KECCAK256 PUSH0 PUSH2 0x100 EXP DUP2 SLOAD DUP2 PUSH20 0xFFFFFFFFFFFFFFFFFFFFFFFFFFFFFFFFFFFFFFFF MUL NOT AND SWAP1 DUP4 PUSH20 0xFFFFFFFFFFFFFFFFFFFFFFFFFFFFFFFFFFFFFFFF AND MUL OR SWAP1 SSTORE POP DUP4 DUP6 PUSH20 0xFFFFFFFFFFFFFFFFFFFFFFFFFFFFFFFFFFFFFFFF AND DUP3 PUSH20 0xFFFFFFFFFFFFFFFFFFFFFFFFFFFFFFFFFFFFFFFF AND PUSH32 0xDDF252AD1BE2C89B69C2B068FC378DAA952BA7F163C4A11628F55A4DF523B3EF PUSH1 0x40 MLOAD PUSH1 0x40 MLOAD DUP1 SWAP2 SUB SWAP1 LOG4 DUP1 SWAP2 POP POP SWAP4 SWAP3 POP POP POP JUMP JUMPDEST PUSH2 0x1252 PUSH2 0x1026 JUMP JUMPDEST PUSH20 0xFFFFFFFFFFFFFFFFFFFFFFFFFFFFFFFFFFFFFFFF AND PUSH2 0x1270 PUSH2 0x8E1 JUMP JUMPDEST PUSH20 0xFFFFFFFFFFFFFFFFFFFFFFFFFFFFFFFFFFFFFFFF AND EQ PUSH2 0x12CF JUMPI PUSH2 0x1293 PUSH2 0x1026 JUMP JUMPDEST PUSH1 0x40 MLOAD PUSH32 0x118CDAA700000000000000000000000000000000000000000000000000000000 DUP2 MSTORE PUSH1 0x4 ADD PUSH2 0x12C6 SWAP2 SWAP1 PUSH2 0x1F63 JUMP JUMPDEST PUSH1 0x40 MLOAD DUP1 SWAP2 SUB SWAP1 REVERT JUMPDEST JUMP JUMPDEST PUSH0 PUSH1 0x6 PUSH0 SWAP1 SLOAD SWAP1 PUSH2 0x100 EXP SWAP1 DIV PUSH20 0xFFFFFFFFFFFFFFFFFFFFFFFFFFFFFFFFFFFFFFFF AND SWAP1 POP DUP2 PUSH1 0x6 PUSH0 PUSH2 0x100 EXP DUP2 SLOAD DUP2 PUSH20 0xFFFFFFFFFFFFFFFFFFFFFFFFFFFFFFFFFFFFFFFF MUL NOT AND SWAP1 DUP4 PUSH20 0xFFFFFFFFFFFFFFFFFFFFFFFFFFFFFFFFFFFFFFFF AND MUL OR SWAP1 SSTORE POP DUP2 PUSH20 0xFFFFFFFFFFFFFFFFFFFFFFFFFFFFFFFFFFFFFFFF AND DUP2 PUSH20 0xFFFFFFFFFFFFFFFFFFFFFFFFFFFFFFFFFFFFFFFF AND PUSH32 0x8BE0079C531659141344CD1FD0A4F28419497F9722A3DAAFE3B4186F6B6457E0 PUSH1 0x40 MLOAD PUSH1 0x40 MLOAD DUP1 SWAP2 SUB SWAP1 LOG3 POP POP JUMP JUMPDEST PUSH2 0x13AD DUP3 DUP3 PUSH1 0x40 MLOAD DUP1 PUSH1 0x20 ADD PUSH1 0x40 MSTORE DUP1 PUSH0 DUP2 MSTORE POP PUSH2 0x1A4B JUMP JUMPDEST POP POP JUMP JUMPDEST PUSH0 PUSH20 0xFFFFFFFFFFFFFFFFFFFFFFFFFFFFFFFFFFFFFFFF AND DUP3 PUSH20 0xFFFFFFFFFFFFFFFFFFFFFFFFFFFFFFFFFFFFFFFF AND SUB PUSH2 0x1421 JUMPI DUP2 PUSH1 0x40 MLOAD PUSH32 0x5B08BA1800000000000000000000000000000000000000000000000000000000 DUP2 MSTORE PUSH1 0x4 ADD PUSH2 0x1418 SWAP2 SWAP1 PUSH2 0x1F63 JUMP JUMPDEST PUSH1 0x40 MLOAD DUP1 SWAP2 SUB SWAP1 REVERT JUMPDEST DUP1 PUSH1 0x5 PUSH0 DUP6 PUSH20 0xFFFFFFFFFFFFFFFFFFFFFFFFFFFFFFFFFFFFFFFF AND PUSH20 0xFFFFFFFFFFFFFFFFFFFFFFFFFFFFFFFFFFFFFFFF AND DUP2 MSTORE PUSH1 0x20 ADD SWAP1 DUP2 MSTORE PUSH1 0x20 ADD PUSH0 KECCAK256 PUSH0 DUP5 PUSH20 0xFFFFFFFFFFFFFFFFFFFFFFFFFFFFFFFFFFFFFFFF AND PUSH20 0xFFFFFFFFFFFFFFFFFFFFFFFFFFFFFFFFFFFFFFFF AND DUP2 MSTORE PUSH1 0x20 ADD SWAP1 DUP2 MSTORE PUSH1 0x20 ADD PUSH0 KECCAK256 PUSH0 PUSH2 0x100 EXP DUP2 SLOAD DUP2 PUSH1 0xFF MUL NOT AND SWAP1 DUP4 ISZERO ISZERO MUL OR SWAP1 SSTORE POP DUP2 PUSH20 0xFFFFFFFFFFFFFFFFFFFFFFFFFFFFFFFFFFFFFFFF AND DUP4 PUSH20 0xFFFFFFFFFFFFFFFFFFFFFFFFFFFFFFFFFFFFFFFF AND PUSH32 0x17307EAB39AB6107E8899845AD3D59BD9653F200F220920489CA2B5937696C31 DUP4 PUSH1 0x40 MLOAD PUSH2 0x150D SWAP2 SWAP1 PUSH2 0x1E1D JUMP JUMPDEST PUSH1 0x40 MLOAD DUP1 SWAP2 SUB SWAP1 LOG3 POP POP POP JUMP JUMPDEST PUSH0 DUP4 PUSH20 0xFFFFFFFFFFFFFFFFFFFFFFFFFFFFFFFFFFFFFFFF AND EXTCODESIZE GT ISZERO PUSH2 0x16BF JUMPI DUP3 PUSH20 0xFFFFFFFFFFFFFFFFFFFFFFFFFFFFFFFFFFFFFFFF AND PUSH4 0x150B7A02 DUP7 DUP7 DUP6 DUP6 PUSH1 0x40 MLOAD DUP6 PUSH4 0xFFFFFFFF AND PUSH1 0xE0 SHL DUP2 MSTORE PUSH1 0x4 ADD PUSH2 0x1578 SWAP5 SWAP4 SWAP3 SWAP2 SWAP1 PUSH2 0x2C39 JUMP JUMPDEST PUSH1 0x20 PUSH1 0x40 MLOAD DUP1 DUP4 SUB DUP2 PUSH0 DUP8 GAS CALL SWAP3 POP POP POP DUP1 ISZERO PUSH2 0x15B3 JUMPI POP PUSH1 0x40 MLOAD RETURNDATASIZE PUSH1 0x1F NOT PUSH1 0x1F DUP3 ADD AND DUP3 ADD DUP1 PUSH1 0x40 MSTORE POP DUP2 ADD SWAP1 PUSH2 0x15B0 SWAP2 SWAP1 PUSH2 0x2C97 JUMP JUMPDEST PUSH1 0x1 JUMPDEST PUSH2 0x1634 JUMPI RETURNDATASIZE DUP1 PUSH0 DUP2 EQ PUSH2 0x15E1 JUMPI PUSH1 0x40 MLOAD SWAP2 POP PUSH1 0x1F NOT PUSH1 0x3F RETURNDATASIZE ADD AND DUP3 ADD PUSH1 0x40 MSTORE RETURNDATASIZE DUP3 MSTORE RETURNDATASIZE PUSH0 PUSH1 0x20 DUP5 ADD RETURNDATACOPY PUSH2 0x15E6 JUMP JUMPDEST PUSH1 0x60 SWAP2 POP JUMPDEST POP PUSH0 DUP2 MLOAD SUB PUSH2 0x162C JUMPI DUP4 PUSH1 0x40 MLOAD PUSH32 0x64A0AE9200000000000000000000000000000000000000000000000000000000 DUP2 MSTORE PUSH1 0x4 ADD PUSH2 0x1623 SWAP2 SWAP1 PUSH2 0x1F63 JUMP JUMPDEST PUSH1 0x40 MLOAD DUP1 SWAP2 SUB SWAP1 REVERT JUMPDEST DUP1 MLOAD PUSH1 0x20 DUP3 ADD REVERT JUMPDEST PUSH4 0x150B7A02 PUSH1 0xE0 SHL PUSH28 0xFFFFFFFFFFFFFFFFFFFFFFFFFFFFFFFFFFFFFFFFFFFFFFFFFFFFFFFF NOT AND DUP2 PUSH28 0xFFFFFFFFFFFFFFFFFFFFFFFFFFFFFFFFFFFFFFFFFFFFFFFFFFFFFFFF NOT AND EQ PUSH2 0x16BD JUMPI DUP4 PUSH1 0x40 MLOAD PUSH32 0x64A0AE9200000000000000000000000000000000000000000000000000000000 DUP2 MSTORE PUSH1 0x4 ADD PUSH2 0x16B4 SWAP2 SWAP1 PUSH2 0x1F63 JUMP JUMPDEST PUSH1 0x40 MLOAD DUP1 SWAP2 SUB SWAP1 REVERT JUMPDEST POP JUMPDEST POP POP POP POP POP JUMP JUMPDEST PUSH1 0x60 PUSH0 PUSH1 0x1 PUSH2 0x16D4 DUP5 PUSH2 0x1A6E JUMP JUMPDEST ADD SWAP1 POP PUSH0 DUP2 PUSH8 0xFFFFFFFFFFFFFFFF DUP2 GT ISZERO PUSH2 0x16F2 JUMPI PUSH2 0x16F1 PUSH2 0x20D8 JUMP JUMPDEST JUMPDEST PUSH1 0x40 MLOAD SWAP1 DUP1 DUP3 MSTORE DUP1 PUSH1 0x1F ADD PUSH1 0x1F NOT AND PUSH1 0x20 ADD DUP3 ADD PUSH1 0x40 MSTORE DUP1 ISZERO PUSH2 0x1724 JUMPI DUP2 PUSH1 0x20 ADD PUSH1 0x1 DUP3 MUL DUP1 CALLDATASIZE DUP4 CALLDATACOPY DUP1 DUP3 ADD SWAP2 POP POP SWAP1 POP JUMPDEST POP SWAP1 POP PUSH0 DUP3 PUSH1 0x20 DUP4 ADD ADD SWAP1 POP JUMPDEST PUSH1 0x1 ISZERO PUSH2 0x1785 JUMPI DUP1 DUP1 PUSH1 0x1 SWAP1 SUB SWAP2 POP POP PUSH32 0x3031323334353637383961626364656600000000000000000000000000000000 PUSH1 0xA DUP7 MOD BYTE DUP2 MSTORE8 PUSH1 0xA DUP6 DUP2 PUSH2 0x177A JUMPI PUSH2 0x1779 PUSH2 0x2CC2 JUMP JUMPDEST JUMPDEST DIV SWAP5 POP PUSH0 DUP6 SUB PUSH2 0x1731 JUMPI JUMPDEST DUP2 SWAP4 POP POP POP POP SWAP2 SWAP1 POP JUMP JUMPDEST PUSH0 PUSH1 0x2 PUSH0 DUP4 DUP2 MSTORE PUSH1 0x20 ADD SWAP1 DUP2 MSTORE PUSH1 0x20 ADD PUSH0 KECCAK256 PUSH0 SWAP1 SLOAD SWAP1 PUSH2 0x100 EXP SWAP1 DIV PUSH20 0xFFFFFFFFFFFFFFFFFFFFFFFFFFFFFFFFFFFFFFFF AND SWAP1 POP SWAP2 SWAP1 POP JUMP JUMPDEST DUP1 DUP1 PUSH2 0x1801 JUMPI POP PUSH0 PUSH20 0xFFFFFFFFFFFFFFFFFFFFFFFFFFFFFFFFFFFFFFFF AND DUP3 PUSH20 0xFFFFFFFFFFFFFFFFFFFFFFFFFFFFFFFFFFFFFFFF AND EQ ISZERO JUMPDEST ISZERO PUSH2 0x1933 JUMPI PUSH0 PUSH2 0x1810 DUP5 PUSH2 0xF67 JUMP JUMPDEST SWAP1 POP PUSH0 PUSH20 0xFFFFFFFFFFFFFFFFFFFFFFFFFFFFFFFFFFFFFFFF AND DUP4 PUSH20 0xFFFFFFFFFFFFFFFFFFFFFFFFFFFFFFFFFFFFFFFF AND EQ ISZERO DUP1 ISZERO PUSH2 0x187A JUMPI POP DUP3 PUSH20 0xFFFFFFFFFFFFFFFFFFFFFFFFFFFFFFFFFFFFFFFF AND DUP2 PUSH20 0xFFFFFFFFFFFFFFFFFFFFFFFFFFFFFFFFFFFFFFFF AND EQ ISZERO JUMPDEST DUP1 ISZERO PUSH2 0x188D JUMPI POP PUSH2 0x188B DUP2 DUP5 PUSH2 0xCF6 JUMP JUMPDEST ISZERO JUMPDEST ISZERO PUSH2 0x18CF JUMPI DUP3 PUSH1 0x40 MLOAD PUSH32 0xA9FBF51F00000000000000000000000000000000000000000000000000000000 DUP2 MSTORE PUSH1 0x4 ADD PUSH2 0x18C6 SWAP2 SWAP1 PUSH2 0x1F63 JUMP JUMPDEST PUSH1 0x40 MLOAD DUP1 SWAP2 SUB SWAP1 REVERT JUMPDEST DUP2 ISZERO PUSH2 0x1931 JUMPI DUP4 DUP6 PUSH20 0xFFFFFFFFFFFFFFFFFFFFFFFFFFFFFFFFFFFFFFFF AND DUP3 PUSH20 0xFFFFFFFFFFFFFFFFFFFFFFFFFFFFFFFFFFFFFFFF AND PUSH32 0x8C5BE1E5EBEC7D5BD14F71427D1E84F3DD0314C0F7B2291E5B200AC8C7C3B925 PUSH1 0x40 MLOAD PUSH1 0x40 MLOAD DUP1 SWAP2 SUB SWAP1 LOG4 JUMPDEST POP JUMPDEST DUP4 PUSH1 0x4 PUSH0 DUP6 DUP2 MSTORE PUSH1 0x20 ADD SWAP1 DUP2 MSTORE PUSH1 0x20 ADD PUSH0 KECCAK256 PUSH0 PUSH2 0x100 EXP DUP2 SLOAD DUP2 PUSH20 0xFFFFFFFFFFFFFFFFFFFFFFFFFFFFFFFFFFFFFFFF MUL NOT AND SWAP1 DUP4 PUSH20 0xFFFFFFFFFFFFFFFFFFFFFFFFFFFFFFFFFFFFFFFF AND MUL OR SWAP1 SSTORE POP POP POP POP POP JUMP JUMPDEST PUSH2 0x1993 DUP4 DUP4 DUP4 PUSH2 0x1BBF JUMP JUMPDEST PUSH2 0x1A46 JUMPI PUSH0 PUSH20 0xFFFFFFFFFFFFFFFFFFFFFFFFFFFFFFFFFFFFFFFF AND DUP4 PUSH20 0xFFFFFFFFFFFFFFFFFFFFFFFFFFFFFFFFFFFFFFFF AND SUB PUSH2 0x1A07 JUMPI DUP1 PUSH1 0x40 MLOAD PUSH32 0x7E27328900000000000000000000000000000000000000000000000000000000 DUP2 MSTORE PUSH1 0x4 ADD PUSH2 0x19FE SWAP2 SWAP1 PUSH2 0x1FF3 JUMP JUMPDEST PUSH1 0x40 MLOAD DUP1 SWAP2 SUB SWAP1 REVERT JUMPDEST DUP2 DUP2 PUSH1 0x40 MLOAD PUSH32 0x177E802F00000000000000000000000000000000000000000000000000000000 DUP2 MSTORE PUSH1 0x4 ADD PUSH2 0x1A3D SWAP3 SWAP2 SWAP1 PUSH2 0x2CEF JUMP JUMPDEST PUSH1 0x40 MLOAD DUP1 SWAP2 SUB SWAP1 REVERT JUMPDEST POP POP POP JUMP JUMPDEST PUSH2 0x1A55 DUP4 DUP4 PUSH2 0x1C7F JUMP JUMPDEST PUSH2 0x1A69 PUSH2 0x1A60 PUSH2 0x1026 JUMP JUMPDEST PUSH0 DUP6 DUP6 DUP6 PUSH2 0x151A JUMP JUMPDEST POP POP POP JUMP JUMPDEST PUSH0 PUSH0 PUSH0 SWAP1 POP PUSH27 0x184F03E93FF9F4DAA797ED6E38ED64BF6A1F010000000000000000 DUP4 LT PUSH2 0x1ACA JUMPI PUSH27 0x184F03E93FF9F4DAA797ED6E38ED64BF6A1F010000000000000000 DUP4 DUP2 PUSH2 0x1AC0 JUMPI PUSH2 0x1ABF PUSH2 0x2CC2 JUMP JUMPDEST JUMPDEST DIV SWAP3 POP PUSH1 0x40 DUP2 ADD SWAP1 POP JUMPDEST PUSH14 0x4EE2D6D415B85ACEF8100000000 DUP4 LT PUSH2 0x1B07 JUMPI PUSH14 0x4EE2D6D415B85ACEF8100000000 DUP4 DUP2 PUSH2 0x1AFD JUMPI PUSH2 0x1AFC PUSH2 0x2CC2 JUMP JUMPDEST JUMPDEST DIV SWAP3 POP PUSH1 0x20 DUP2 ADD SWAP1 POP JUMPDEST PUSH7 0x2386F26FC10000 DUP4 LT PUSH2 0x1B36 JUMPI PUSH7 0x2386F26FC10000 DUP4 DUP2 PUSH2 0x1B2C JUMPI PUSH2 0x1B2B PUSH2 0x2CC2 JUMP JUMPDEST JUMPDEST DIV SWAP3 POP PUSH1 0x10 DUP2 ADD SWAP1 POP JUMPDEST PUSH4 0x5F5E100 DUP4 LT PUSH2 0x1B5F JUMPI PUSH4 0x5F5E100 DUP4 DUP2 PUSH2 0x1B55 JUMPI PUSH2 0x1B54 PUSH2 0x2CC2 JUMP JUMPDEST JUMPDEST DIV SWAP3 POP PUSH1 0x8 DUP2 ADD SWAP1 POP JUMPDEST PUSH2 0x2710 DUP4 LT PUSH2 0x1B84 JUMPI PUSH2 0x2710 DUP4 DUP2 PUSH2 0x1B7A JUMPI PUSH2 0x1B79 PUSH2 0x2CC2 JUMP JUMPDEST JUMPDEST DIV SWAP3 POP PUSH1 0x4 DUP2 ADD SWAP1 POP JUMPDEST PUSH1 0x64 DUP4 LT PUSH2 0x1BA7 JUMPI PUSH1 0x64 DUP4 DUP2 PUSH2 0x1B9D JUMPI PUSH2 0x1B9C PUSH2 0x2CC2 JUMP JUMPDEST JUMPDEST DIV SWAP3 POP PUSH1 0x2 DUP2 ADD SWAP1 POP JUMPDEST PUSH1 0xA DUP4 LT PUSH2 0x1BB6 JUMPI PUSH1 0x1 DUP2 ADD SWAP1 POP JUMPDEST DUP1 SWAP2 POP POP SWAP2 SWAP1 POP JUMP JUMPDEST PUSH0 PUSH0 PUSH20 0xFFFFFFFFFFFFFFFFFFFFFFFFFFFFFFFFFFFFFFFF AND DUP4 PUSH20 0xFFFFFFFFFFFFFFFFFFFFFFFFFFFFFFFFFFFFFFFF AND EQ ISZERO DUP1 ISZERO PUSH2 0x1C76 JUMPI POP DUP3 PUSH20 0xFFFFFFFFFFFFFFFFFFFFFFFFFFFFFFFFFFFFFFFF AND DUP5 PUSH20 0xFFFFFFFFFFFFFFFFFFFFFFFFFFFFFFFFFFFFFFFF AND EQ DUP1 PUSH2 0x1C37 JUMPI POP PUSH2 0x1C36 DUP5 DUP5 PUSH2 0xCF6 JUMP JUMPDEST JUMPDEST DUP1 PUSH2 0x1C75 JUMPI POP DUP3 PUSH20 0xFFFFFFFFFFFFFFFFFFFFFFFFFFFFFFFFFFFFFFFF AND PUSH2 0x1C5D DUP4 PUSH2 0xFED JUMP JUMPDEST PUSH20 0xFFFFFFFFFFFFFFFFFFFFFFFFFFFFFFFFFFFFFFFF AND EQ JUMPDEST JUMPDEST SWAP1 POP SWAP4 SWAP3 POP POP POP JUMP JUMPDEST PUSH0 PUSH20 0xFFFFFFFFFFFFFFFFFFFFFFFFFFFFFFFFFFFFFFFF AND DUP3 PUSH20 0xFFFFFFFFFFFFFFFFFFFFFFFFFFFFFFFFFFFFFFFF AND SUB PUSH2 0x1CEF JUMPI PUSH0 PUSH1 0x40 MLOAD PUSH32 0x64A0AE9200000000000000000000000000000000000000000000000000000000 DUP2 MSTORE PUSH1 0x4 ADD PUSH2 0x1CE6 SWAP2 SWAP1 PUSH2 0x1F63 JUMP JUMPDEST PUSH1 0x40 MLOAD DUP1 SWAP2 SUB SWAP1 REVERT JUMPDEST PUSH0 PUSH2 0x1CFB DUP4 DUP4 PUSH0 PUSH2 0x103F JUMP JUMPDEST SWAP1 POP PUSH0 PUSH20 0xFFFFFFFFFFFFFFFFFFFFFFFFFFFFFFFFFFFFFFFF AND DUP2 PUSH20 0xFFFFFFFFFFFFFFFFFFFFFFFFFFFFFFFFFFFFFFFF AND EQ PUSH2 0x1D6D JUMPI PUSH0 PUSH1 0x40 MLOAD PUSH32 0x73C6AC6E00000000000000000000000000000000000000000000000000000000 DUP2 MSTORE PUSH1 0x4 ADD PUSH2 0x1D64 SWAP2 SWAP1 PUSH2 0x1F63 JUMP JUMPDEST PUSH1 0x40 MLOAD DUP1 SWAP2 SUB SWAP1 REVERT JUMPDEST POP POP POP JUMP JUMPDEST PUSH0 PUSH1 0x40 MLOAD SWAP1 POP SWAP1 JUMP JUMPDEST PUSH0 PUSH0 REVERT JUMPDEST PUSH0 PUSH0 REVERT JUMPDEST PUSH0 PUSH32 0xFFFFFFFF00000000000000000000000000000000000000000000000000000000 DUP3 AND SWAP1 POP SWAP2 SWAP1 POP JUMP JUMPDEST PUSH2 0x1DB7 DUP2 PUSH2 0x1D83 JUMP JUMPDEST DUP2 EQ PUSH2 0x1DC1 JUMPI PUSH0 PUSH0 REVERT JUMPDEST POP JUMP JUMPDEST PUSH0 DUP2 CALLDATALOAD SWAP1 POP PUSH2 0x1DD2 DUP2 PUSH2 0x1DAE JUMP JUMPDEST SWAP3 SWAP2 POP POP JUMP JUMPDEST PUSH0 PUSH1 0x20 DUP3 DUP5 SUB SLT ISZERO PUSH2 0x1DED JUMPI PUSH2 0x1DEC PUSH2 0x1D7B JUMP JUMPDEST JUMPDEST PUSH0 PUSH2 0x1DFA DUP5 DUP3 DUP6 ADD PUSH2 0x1DC4 JUMP JUMPDEST SWAP2 POP POP SWAP3 SWAP2 POP POP JUMP JUMPDEST PUSH0 DUP2 ISZERO ISZERO SWAP1 POP SWAP2 SWAP1 POP JUMP JUMPDEST PUSH2 0x1E17 DUP2 PUSH2 0x1E03 JUMP JUMPDEST DUP3 MSTORE POP POP JUMP JUMPDEST PUSH0 PUSH1 0x20 DUP3 ADD SWAP1 POP PUSH2 0x1E30 PUSH0 DUP4 ADD DUP5 PUSH2 0x1E0E JUMP JUMPDEST SWAP3 SWAP2 POP POP JUMP JUMPDEST PUSH0 DUP2 MLOAD SWAP1 POP SWAP2 SWAP1 POP JUMP JUMPDEST PUSH0 DUP3 DUP3 MSTORE PUSH1 0x20 DUP3 ADD SWAP1 POP SWAP3 SWAP2 POP POP JUMP JUMPDEST DUP3 DUP2 DUP4 MCOPY PUSH0 DUP4 DUP4 ADD MSTORE POP POP POP JUMP JUMPDEST PUSH0 PUSH1 0x1F NOT PUSH1 0x1F DUP4 ADD AND SWAP1 POP SWAP2 SWAP1 POP JUMP JUMPDEST PUSH0 PUSH2 0x1E78 DUP3 PUSH2 0x1E36 JUMP JUMPDEST PUSH2 0x1E82 DUP2 DUP6 PUSH2 0x1E40 JUMP JUMPDEST SWAP4 POP PUSH2 0x1E92 DUP2 DUP6 PUSH1 0x20 DUP7 ADD PUSH2 0x1E50 JUMP JUMPDEST PUSH2 0x1E9B DUP2 PUSH2 0x1E5E JUMP JUMPDEST DUP5 ADD SWAP2 POP POP SWAP3 SWAP2 POP POP JUMP JUMPDEST PUSH0 PUSH1 0x20 DUP3 ADD SWAP1 POP DUP2 DUP2 SUB PUSH0 DUP4 ADD MSTORE PUSH2 0x1EBE DUP2 DUP5 PUSH2 0x1E6E JUMP JUMPDEST SWAP1 POP SWAP3 SWAP2 POP POP JUMP JUMPDEST PUSH0 DUP2 SWAP1 POP SWAP2 SWAP1 POP JUMP JUMPDEST PUSH2 0x1ED8 DUP2 PUSH2 0x1EC6 JUMP JUMPDEST DUP2 EQ PUSH2 0x1EE2 JUMPI PUSH0 PUSH0 REVERT JUMPDEST POP JUMP JUMPDEST PUSH0 DUP2 CALLDATALOAD SWAP1 POP PUSH2 0x1EF3 DUP2 PUSH2 0x1ECF JUMP JUMPDEST SWAP3 SWAP2 POP POP JUMP JUMPDEST PUSH0 PUSH1 0x20 DUP3 DUP5 SUB SLT ISZERO PUSH2 0x1F0E JUMPI PUSH2 0x1F0D PUSH2 0x1D7B JUMP JUMPDEST JUMPDEST PUSH0 PUSH2 0x1F1B DUP5 DUP3 DUP6 ADD PUSH2 0x1EE5 JUMP JUMPDEST SWAP2 POP POP SWAP3 SWAP2 POP POP JUMP JUMPDEST PUSH0 PUSH20 0xFFFFFFFFFFFFFFFFFFFFFFFFFFFFFFFFFFFFFFFF DUP3 AND SWAP1 POP SWAP2 SWAP1 POP JUMP JUMPDEST PUSH0 PUSH2 0x1F4D DUP3 PUSH2 0x1F24 JUMP JUMPDEST SWAP1 POP SWAP2 SWAP1 POP JUMP JUMPDEST PUSH2 0x1F5D DUP2 PUSH2 0x1F43 JUMP JUMPDEST DUP3 MSTORE POP POP JUMP JUMPDEST PUSH0 PUSH1 0x20 DUP3 ADD SWAP1 POP PUSH2 0x1F76 PUSH0 DUP4 ADD DUP5 PUSH2 0x1F54 JUMP JUMPDEST SWAP3 SWAP2 POP POP JUMP JUMPDEST PUSH2 0x1F85 DUP2 PUSH2 0x1F43 JUMP JUMPDEST DUP2 EQ PUSH2 0x1F8F JUMPI PUSH0 PUSH0 REVERT JUMPDEST POP JUMP JUMPDEST PUSH0 DUP2 CALLDATALOAD SWAP1 POP PUSH2 0x1FA0 DUP2 PUSH2 0x1F7C JUMP JUMPDEST SWAP3 SWAP2 POP POP JUMP JUMPDEST PUSH0 PUSH0 PUSH1 0x40 DUP4 DUP6 SUB SLT ISZERO PUSH2 0x1FBC JUMPI PUSH2 0x1FBB PUSH2 0x1D7B JUMP JUMPDEST JUMPDEST PUSH0 PUSH2 0x1FC9 DUP6 DUP3 DUP7 ADD PUSH2 0x1F92 JUMP JUMPDEST SWAP3 POP POP PUSH1 0x20 PUSH2 0x1FDA DUP6 DUP3 DUP7 ADD PUSH2 0x1EE5 JUMP JUMPDEST SWAP2 POP POP SWAP3 POP SWAP3 SWAP1 POP JUMP JUMPDEST PUSH2 0x1FED DUP2 PUSH2 0x1EC6 JUMP JUMPDEST DUP3 MSTORE POP POP JUMP JUMPDEST PUSH0 PUSH1 0x20 DUP3 ADD SWAP1 POP PUSH2 0x2006 PUSH0 DUP4 ADD DUP5 PUSH2 0x1FE4 JUMP JUMPDEST SWAP3 SWAP2 POP POP JUMP JUMPDEST PUSH0 PUSH0 PUSH0 PUSH1 0x60 DUP5 DUP7 SUB SLT ISZERO PUSH2 0x2023 JUMPI PUSH2 0x2022 PUSH2 0x1D7B JUMP JUMPDEST JUMPDEST PUSH0 PUSH2 0x2030 DUP7 DUP3 DUP8 ADD PUSH2 0x1F92 JUMP JUMPDEST SWAP4 POP POP PUSH1 0x20 PUSH2 0x2041 DUP7 DUP3 DUP8 ADD PUSH2 0x1F92 JUMP JUMPDEST SWAP3 POP POP PUSH1 0x40 PUSH2 0x2052 DUP7 DUP3 DUP8 ADD PUSH2 0x1EE5 JUMP JUMPDEST SWAP2 POP POP SWAP3 POP SWAP3 POP SWAP3 JUMP JUMPDEST PUSH0 DUP2 SWAP1 POP SWAP2 SWAP1 POP JUMP JUMPDEST PUSH0 PUSH2 0x207F PUSH2 0x207A PUSH2 0x2075 DUP5 PUSH2 0x1F24 JUMP JUMPDEST PUSH2 0x205C JUMP JUMPDEST PUSH2 0x1F24 JUMP JUMPDEST SWAP1 POP SWAP2 SWAP1 POP JUMP JUMPDEST PUSH0 PUSH2 0x2090 DUP3 PUSH2 0x2065 JUMP JUMPDEST SWAP1 POP SWAP2 SWAP1 POP JUMP JUMPDEST PUSH0 PUSH2 0x20A1 DUP3 PUSH2 0x2086 JUMP JUMPDEST SWAP1 POP SWAP2 SWAP1 POP JUMP JUMPDEST PUSH2 0x20B1 DUP2 PUSH2 0x2097 JUMP JUMPDEST DUP3 MSTORE POP POP JUMP JUMPDEST PUSH0 PUSH1 0x20 DUP3 ADD SWAP1 POP PUSH2 0x20CA PUSH0 DUP4 ADD DUP5 PUSH2 0x20A8 JUMP JUMPDEST SWAP3 SWAP2 POP POP JUMP JUMPDEST PUSH0 PUSH0 REVERT JUMPDEST PUSH0 PUSH0 REVERT JUMPDEST PUSH32 0x4E487B7100000000000000000000000000000000000000000000000000000000 PUSH0 MSTORE PUSH1 0x41 PUSH1 0x4 MSTORE PUSH1 0x24 PUSH0 REVERT JUMPDEST PUSH2 0x210E DUP3 PUSH2 0x1E5E JUMP JUMPDEST DUP2 ADD DUP2 DUP2 LT PUSH8 0xFFFFFFFFFFFFFFFF DUP3 GT OR ISZERO PUSH2 0x212D JUMPI PUSH2 0x212C PUSH2 0x20D8 JUMP JUMPDEST JUMPDEST DUP1 PUSH1 0x40 MSTORE POP POP POP JUMP JUMPDEST PUSH0 PUSH2 0x213F PUSH2 0x1D72 JUMP JUMPDEST SWAP1 POP PUSH2 0x214B DUP3 DUP3 PUSH2 0x2105 JUMP JUMPDEST SWAP2 SWAP1 POP JUMP JUMPDEST PUSH0 PUSH8 0xFFFFFFFFFFFFFFFF DUP3 GT ISZERO PUSH2 0x216A JUMPI PUSH2 0x2169 PUSH2 0x20D8 JUMP JUMPDEST JUMPDEST PUSH2 0x2173 DUP3 PUSH2 0x1E5E JUMP JUMPDEST SWAP1 POP PUSH1 0x20 DUP2 ADD SWAP1 POP SWAP2 SWAP1 POP JUMP JUMPDEST DUP3 DUP2 DUP4 CALLDATACOPY PUSH0 DUP4 DUP4 ADD MSTORE POP POP POP JUMP JUMPDEST PUSH0 PUSH2 0x21A0 PUSH2 0x219B DUP5 PUSH2 0x2150 JUMP JUMPDEST PUSH2 0x2136 JUMP JUMPDEST SWAP1 POP DUP3 DUP2 MSTORE PUSH1 0x20 DUP2 ADD DUP5 DUP5 DUP5 ADD GT ISZERO PUSH2 0x21BC JUMPI PUSH2 0x21BB PUSH2 0x20D4 JUMP JUMPDEST JUMPDEST PUSH2 0x21C7 DUP5 DUP3 DUP6 PUSH2 0x2180 JUMP JUMPDEST POP SWAP4 SWAP3 POP POP POP JUMP JUMPDEST PUSH0 DUP3 PUSH1 0x1F DUP4 ADD SLT PUSH2 0x21E3 JUMPI PUSH2 0x21E2 PUSH2 0x20D0 JUMP JUMPDEST JUMPDEST DUP2 CALLDATALOAD PUSH2 0x21F3 DUP5 DUP3 PUSH1 0x20 DUP7 ADD PUSH2 0x218E JUMP JUMPDEST SWAP2 POP POP SWAP3 SWAP2 POP POP JUMP JUMPDEST PUSH0 PUSH1 0x20 DUP3 DUP5 SUB SLT ISZERO PUSH2 0x2211 JUMPI PUSH2 0x2210 PUSH2 0x1D7B JUMP JUMPDEST JUMPDEST PUSH0 DUP3 ADD CALLDATALOAD PUSH8 0xFFFFFFFFFFFFFFFF DUP2 GT ISZERO PUSH2 0x222E JUMPI PUSH2 0x222D PUSH2 0x1D7F JUMP JUMPDEST JUMPDEST PUSH2 0x223A DUP5 DUP3 DUP6 ADD PUSH2 0x21CF JUMP JUMPDEST SWAP2 POP POP SWAP3 SWAP2 POP POP JUMP JUMPDEST PUSH0 PUSH1 0x20 DUP3 DUP5 SUB SLT ISZERO PUSH2 0x2258 JUMPI PUSH2 0x2257 PUSH2 0x1D7B JUMP JUMPDEST JUMPDEST PUSH0 PUSH2 0x2265 DUP5 DUP3 DUP6 ADD PUSH2 0x1F92 JUMP JUMPDEST SWAP2 POP POP SWAP3 SWAP2 POP POP JUMP JUMPDEST PUSH2 0x2277 DUP2 PUSH2 0x1E03 JUMP JUMPDEST DUP2 EQ PUSH2 0x2281 JUMPI PUSH0 PUSH0 REVERT JUMPDEST POP JUMP JUMPDEST PUSH0 DUP2 CALLDATALOAD SWAP1 POP PUSH2 0x2292 DUP2 PUSH2 0x226E JUMP JUMPDEST SWAP3 SWAP2 POP POP JUMP JUMPDEST PUSH0 PUSH0 PUSH1 0x40 DUP4 DUP6 SUB SLT ISZERO PUSH2 0x22AE JUMPI PUSH2 0x22AD PUSH2 0x1D7B JUMP JUMPDEST JUMPDEST PUSH0 PUSH2 0x22BB DUP6 DUP3 DUP7 ADD PUSH2 0x1F92 JUMP JUMPDEST SWAP3 POP POP PUSH1 0x20 PUSH2 0x22CC DUP6 DUP3 DUP7 ADD PUSH2 0x2284 JUMP JUMPDEST SWAP2 POP POP SWAP3 POP SWAP3 SWAP1 POP JUMP JUMPDEST PUSH0 PUSH8 0xFFFFFFFFFFFFFFFF DUP3 GT ISZERO PUSH2 0x22F0 JUMPI PUSH2 0x22EF PUSH2 0x20D8 JUMP JUMPDEST JUMPDEST PUSH2 0x22F9 DUP3 PUSH2 0x1E5E JUMP JUMPDEST SWAP1 POP PUSH1 0x20 DUP2 ADD SWAP1 POP SWAP2 SWAP1 POP JUMP JUMPDEST PUSH0 PUSH2 0x2318 PUSH2 0x2313 DUP5 PUSH2 0x22D6 JUMP JUMPDEST PUSH2 0x2136 JUMP JUMPDEST SWAP1 POP DUP3 DUP2 MSTORE PUSH1 0x20 DUP2 ADD DUP5 DUP5 DUP5 ADD GT ISZERO PUSH2 0x2334 JUMPI PUSH2 0x2333 PUSH2 0x20D4 JUMP JUMPDEST JUMPDEST PUSH2 0x233F DUP5 DUP3 DUP6 PUSH2 0x2180 JUMP JUMPDEST POP SWAP4 SWAP3 POP POP POP JUMP JUMPDEST PUSH0 DUP3 PUSH1 0x1F DUP4 ADD SLT PUSH2 0x235B JUMPI PUSH2 0x235A PUSH2 0x20D0 JUMP JUMPDEST JUMPDEST DUP2 CALLDATALOAD PUSH2 0x236B DUP5 DUP3 PUSH1 0x20 DUP7 ADD PUSH2 0x2306 JUMP JUMPDEST SWAP2 POP POP SWAP3 SWAP2 POP POP JUMP JUMPDEST PUSH0 PUSH0 PUSH0 PUSH0 PUSH1 0x80 DUP6 DUP8 SUB SLT ISZERO PUSH2 0x238C JUMPI PUSH2 0x238B PUSH2 0x1D7B JUMP JUMPDEST JUMPDEST PUSH0 PUSH2 0x2399 DUP8 DUP3 DUP9 ADD PUSH2 0x1F92 JUMP JUMPDEST SWAP5 POP POP PUSH1 0x20 PUSH2 0x23AA DUP8 DUP3 DUP9 ADD PUSH2 0x1F92 JUMP JUMPDEST SWAP4 POP POP PUSH1 0x40 PUSH2 0x23BB DUP8 DUP3 DUP9 ADD PUSH2 0x1EE5 JUMP JUMPDEST SWAP3 POP POP PUSH1 0x60 DUP6 ADD CALLDATALOAD PUSH8 0xFFFFFFFFFFFFFFFF DUP2 GT ISZERO PUSH2 0x23DC JUMPI PUSH2 0x23DB PUSH2 0x1D7F JUMP JUMPDEST JUMPDEST PUSH2 0x23E8 DUP8 DUP3 DUP9 ADD PUSH2 0x2347 JUMP JUMPDEST SWAP2 POP POP SWAP3 SWAP6 SWAP2 SWAP5 POP SWAP3 POP JUMP JUMPDEST PUSH0 PUSH0 PUSH1 0x40 DUP4 DUP6 SUB SLT ISZERO PUSH2 0x240A JUMPI PUSH2 0x2409 PUSH2 0x1D7B JUMP JUMPDEST JUMPDEST PUSH0 PUSH2 0x2417 DUP6 DUP3 DUP7 ADD PUSH2 0x1F92 JUMP JUMPDEST SWAP3 POP POP PUSH1 0x20 PUSH2 0x2428 DUP6 DUP3 DUP7 ADD PUSH2 0x1F92 JUMP JUMPDEST SWAP2 POP POP SWAP3 POP SWAP3 SWAP1 POP JUMP JUMPDEST PUSH32 0x4E487B7100000000000000000000000000000000000000000000000000000000 PUSH0 MSTORE PUSH1 0x22 PUSH1 0x4 MSTORE PUSH1 0x24 PUSH0 REVERT JUMPDEST PUSH0 PUSH1 0x2 DUP3 DIV SWAP1 POP PUSH1 0x1 DUP3 AND DUP1 PUSH2 0x2476 JUMPI PUSH1 0x7F DUP3 AND SWAP2 POP JUMPDEST PUSH1 0x20 DUP3 LT DUP2 SUB PUSH2 0x2489 JUMPI PUSH2 0x2488 PUSH2 0x2432 JUMP JUMPDEST JUMPDEST POP SWAP2 SWAP1 POP JUMP JUMPDEST PUSH0 PUSH1 0x60 DUP3 ADD SWAP1 POP PUSH2 0x24A2 PUSH0 DUP4 ADD DUP7 PUSH2 0x1F54 JUMP JUMPDEST PUSH2 0x24AF PUSH1 0x20 DUP4 ADD DUP6 PUSH2 0x1FE4 JUMP JUMPDEST PUSH2 0x24BC PUSH1 0x40 DUP4 ADD DUP5 PUSH2 0x1F54 JUMP JUMPDEST SWAP5 SWAP4 POP POP POP POP JUMP JUMPDEST PUSH0 DUP2 SWAP1 POP DUP2 PUSH0 MSTORE PUSH1 0x20 PUSH0 KECCAK256 SWAP1 POP SWAP2 SWAP1 POP JUMP JUMPDEST PUSH0 PUSH1 0x20 PUSH1 0x1F DUP4 ADD DIV SWAP1 POP SWAP2 SWAP1 POP JUMP JUMPDEST PUSH0 DUP3 DUP3 SHL SWAP1 POP SWAP3 SWAP2 POP POP JUMP JUMPDEST PUSH0 PUSH1 0x8 DUP4 MUL PUSH2 0x2520 PUSH32 0xFFFFFFFFFFFFFFFFFFFFFFFFFFFFFFFFFFFFFFFFFFFFFFFFFFFFFFFFFFFFFFFF DUP3 PUSH2 0x24E5 JUMP JUMPDEST PUSH2 0x252A DUP7 DUP4 PUSH2 0x24E5 JUMP JUMPDEST SWAP6 POP DUP1 NOT DUP5 AND SWAP4 POP DUP1 DUP7 AND DUP5 OR SWAP3 POP POP POP SWAP4 SWAP3 POP POP POP JUMP JUMPDEST PUSH0 PUSH2 0x255C PUSH2 0x2557 PUSH2 0x2552 DUP5 PUSH2 0x1EC6 JUMP JUMPDEST PUSH2 0x205C JUMP JUMPDEST PUSH2 0x1EC6 JUMP JUMPDEST SWAP1 POP SWAP2 SWAP1 POP JUMP JUMPDEST PUSH0 DUP2 SWAP1 POP SWAP2 SWAP1 POP JUMP JUMPDEST PUSH2 0x2575 DUP4 PUSH2 0x2542 JUMP JUMPDEST PUSH2 0x2589 PUSH2 0x2581 DUP3 PUSH2 0x2563 JUMP JUMPDEST DUP5 DUP5 SLOAD PUSH2 0x24F1 JUMP JUMPDEST DUP3 SSTORE POP POP POP POP JUMP JUMPDEST PUSH0 PUSH0 SWAP1 POP SWAP1 JUMP JUMPDEST PUSH2 0x25A0 PUSH2 0x2591 JUMP JUMPDEST PUSH2 0x25AB DUP2 DUP5 DUP5 PUSH2 0x256C JUMP JUMPDEST POP POP POP JUMP JUMPDEST JUMPDEST DUP2 DUP2 LT ISZERO PUSH2 0x25CE JUMPI PUSH2 0x25C3 PUSH0 DUP3 PUSH2 0x2598 JUMP JUMPDEST PUSH1 0x1 DUP2 ADD SWAP1 POP PUSH2 0x25B1 JUMP JUMPDEST POP POP JUMP JUMPDEST PUSH1 0x1F DUP3 GT ISZERO PUSH2 0x2613 JUMPI PUSH2 0x25E4 DUP2 PUSH2 0x24C4 JUMP JUMPDEST PUSH2 0x25ED DUP5 PUSH2 0x24D6 JUMP JUMPDEST DUP2 ADD PUSH1 0x20 DUP6 LT ISZERO PUSH2 0x25FC JUMPI DUP2 SWAP1 POP JUMPDEST PUSH2 0x2610 PUSH2 0x2608 DUP6 PUSH2 0x24D6 JUMP JUMPDEST DUP4 ADD DUP3 PUSH2 0x25B0 JUMP JUMPDEST POP POP JUMPDEST POP POP POP JUMP JUMPDEST PUSH0 DUP3 DUP3 SHR SWAP1 POP SWAP3 SWAP2 POP POP JUMP JUMPDEST PUSH0 PUSH2 0x2633 PUSH0 NOT DUP5 PUSH1 0x8 MUL PUSH2 0x2618 JUMP JUMPDEST NOT DUP1 DUP4 AND SWAP2 POP POP SWAP3 SWAP2 POP POP JUMP JUMPDEST PUSH0 PUSH2 0x264B DUP4 DUP4 PUSH2 0x2624 JUMP JUMPDEST SWAP2 POP DUP3 PUSH1 0x2 MUL DUP3 OR SWAP1 POP SWAP3 SWAP2 POP POP JUMP JUMPDEST PUSH2 0x2664 DUP3 PUSH2 0x1E36 JUMP JUMPDEST PUSH8 0xFFFFFFFFFFFFFFFF DUP2 GT ISZERO PUSH2 0x267D JUMPI PUSH2 0x267C PUSH2 0x20D8 JUMP JUMPDEST JUMPDEST PUSH2 0x2687 DUP3 SLOAD PUSH2 0x245F JUMP JUMPDEST PUSH2 0x2692 DUP3 DUP3 DUP6 PUSH2 0x25D2 JUMP JUMPDEST PUSH0 PUSH1 0x20 SWAP1 POP PUSH1 0x1F DUP4 GT PUSH1 0x1 DUP2 EQ PUSH2 0x26C3 JUMPI PUSH0 DUP5 ISZERO PUSH2 0x26B1 JUMPI DUP3 DUP8 ADD MLOAD SWAP1 POP JUMPDEST PUSH2 0x26BB DUP6 DUP3 PUSH2 0x2640 JUMP JUMPDEST DUP7 SSTORE POP PUSH2 0x2722 JUMP JUMPDEST PUSH1 0x1F NOT DUP5 AND PUSH2 0x26D1 DUP7 PUSH2 0x24C4 JUMP JUMPDEST PUSH0 JUMPDEST DUP3 DUP2 LT ISZERO PUSH2 0x26F8 JUMPI DUP5 DUP10 ADD MLOAD DUP3 SSTORE PUSH1 0x1 DUP3 ADD SWAP2 POP PUSH1 0x20 DUP6 ADD SWAP5 POP PUSH1 0x20 DUP2 ADD SWAP1 POP PUSH2 0x26D3 JUMP JUMPDEST DUP7 DUP4 LT ISZERO PUSH2 0x2715 JUMPI DUP5 DUP10 ADD MLOAD PUSH2 0x2711 PUSH1 0x1F DUP10 AND DUP3 PUSH2 0x2624 JUMP JUMPDEST DUP4 SSTORE POP JUMPDEST PUSH1 0x1 PUSH1 0x2 DUP9 MUL ADD DUP9 SSTORE POP POP POP JUMPDEST POP POP POP POP POP POP JUMP JUMPDEST PUSH32 0x7174793D30000000000000000000000000000000000000000000000000000000 PUSH0 DUP3 ADD MSTORE POP JUMP JUMPDEST PUSH0 PUSH2 0x275E PUSH1 0x5 DUP4 PUSH2 0x1E40 JUMP JUMPDEST SWAP2 POP PUSH2 0x2769 DUP3 PUSH2 0x272A JUMP JUMPDEST PUSH1 0x20 DUP3 ADD SWAP1 POP SWAP2 SWAP1 POP JUMP JUMPDEST PUSH0 PUSH1 0x20 DUP3 ADD SWAP1 POP DUP2 DUP2 SUB PUSH0 DUP4 ADD MSTORE PUSH2 0x278B DUP2 PUSH2 0x2752 JUMP JUMPDEST SWAP1 POP SWAP2 SWAP1 POP JUMP JUMPDEST PUSH32 0x4E487B7100000000000000000000000000000000000000000000000000000000 PUSH0 MSTORE PUSH1 0x11 PUSH1 0x4 MSTORE PUSH1 0x24 PUSH0 REVERT JUMPDEST PUSH0 PUSH2 0x27C9 DUP3 PUSH2 0x1EC6 JUMP JUMPDEST SWAP2 POP PUSH2 0x27D4 DUP4 PUSH2 0x1EC6 JUMP JUMPDEST SWAP3 POP DUP3 DUP3 ADD SWAP1 POP DUP1 DUP3 GT ISZERO PUSH2 0x27EC JUMPI PUSH2 0x27EB PUSH2 0x2792 JUMP JUMPDEST JUMPDEST SWAP3 SWAP2 POP POP JUMP JUMPDEST PUSH32 0x736F6C64206F7574000000000000000000000000000000000000000000000000 PUSH0 DUP3 ADD MSTORE POP JUMP JUMPDEST PUSH0 PUSH2 0x2826 PUSH1 0x8 DUP4 PUSH2 0x1E40 JUMP JUMPDEST SWAP2 POP PUSH2 0x2831 DUP3 PUSH2 0x27F2 JUMP JUMPDEST PUSH1 0x20 DUP3 ADD SWAP1 POP SWAP2 SWAP1 POP JUMP JUMPDEST PUSH0 PUSH1 0x20 DUP3 ADD SWAP1 POP DUP2 DUP2 SUB PUSH0 DUP4 ADD MSTORE PUSH2 0x2853 DUP2 PUSH2 0x281A JUMP JUMPDEST SWAP1 POP SWAP2 SWAP1 POP JUMP JUMPDEST PUSH0 PUSH2 0x2864 DUP3 PUSH2 0x1EC6 JUMP JUMPDEST SWAP2 POP PUSH2 0x286F DUP4 PUSH2 0x1EC6 JUMP JUMPDEST SWAP3 POP DUP3 DUP3 MUL PUSH2 0x287D DUP2 PUSH2 0x1EC6 JUMP JUMPDEST SWAP2 POP DUP3 DUP3 DIV DUP5 EQ DUP4 ISZERO OR PUSH2 0x2894 JUMPI PUSH2 0x2893 PUSH2 0x2792 JUMP JUMPDEST JUMPDEST POP SWAP3 SWAP2 POP POP JUMP JUMPDEST PUSH0 PUSH1 0x60 DUP3 ADD SWAP1 POP PUSH2 0x28AE PUSH0 DUP4 ADD DUP7 PUSH2 0x1F54 JUMP JUMPDEST PUSH2 0x28BB PUSH1 0x20 DUP4 ADD DUP6 PUSH2 0x1F54 JUMP JUMPDEST PUSH2 0x28C8 PUSH1 0x40 DUP4 ADD DUP5 PUSH2 0x1FE4 JUMP JUMPDEST SWAP5 SWAP4 POP POP POP POP JUMP JUMPDEST PUSH0 DUP2 MLOAD SWAP1 POP PUSH2 0x28DE DUP2 PUSH2 0x226E JUMP JUMPDEST SWAP3 SWAP2 POP POP JUMP JUMPDEST PUSH0 PUSH1 0x20 DUP3 DUP5 SUB SLT ISZERO PUSH2 0x28F9 JUMPI PUSH2 0x28F8 PUSH2 0x1D7B JUMP JUMPDEST JUMPDEST PUSH0 PUSH2 0x2906 DUP5 DUP3 DUP6 ADD PUSH2 0x28D0 JUMP JUMPDEST SWAP2 POP POP SWAP3 SWAP2 POP POP JUMP JUMPDEST PUSH32 0x43424F207472616E73666572206661696C000000000000000000000000000000 PUSH0 DUP3 ADD MSTORE POP JUMP JUMPDEST PUSH0 PUSH2 0x2943 PUSH1 0x11 DUP4 PUSH2 0x1E40 JUMP JUMPDEST SWAP2 POP PUSH2 0x294E DUP3 PUSH2 0x290F JUMP JUMPDEST PUSH1 0x20 DUP3 ADD SWAP1 POP SWAP2 SWAP1 POP JUMP JUMPDEST PUSH0 PUSH1 0x20 DUP3 ADD SWAP1 POP DUP2 DUP2 SUB PUSH0 DUP4 ADD MSTORE PUSH2 0x2970 DUP2 PUSH2 0x2937 JUMP JUMPDEST SWAP1 POP SWAP2 SWAP1 POP JUMP JUMPDEST PUSH0 PUSH2 0x2981 DUP3 PUSH2 0x1EC6 JUMP JUMPDEST SWAP2 POP PUSH32 0xFFFFFFFFFFFFFFFFFFFFFFFFFFFFFFFFFFFFFFFFFFFFFFFFFFFFFFFFFFFFFFFF DUP3 SUB PUSH2 0x29B3 JUMPI PUSH2 0x29B2 PUSH2 0x2792 JUMP JUMPDEST JUMPDEST PUSH1 0x1 DUP3 ADD SWAP1 POP SWAP2 SWAP1 POP JUMP JUMPDEST PUSH0 PUSH1 0x40 DUP3 ADD SWAP1 POP PUSH2 0x29D1 PUSH0 DUP4 ADD DUP6 PUSH2 0x1FE4 JUMP JUMPDEST PUSH2 0x29DE PUSH1 0x20 DUP4 ADD DUP5 PUSH2 0x1FE4 JUMP JUMPDEST SWAP4 SWAP3 POP POP POP JUMP JUMPDEST PUSH0 DUP2 SWAP1 POP SWAP3 SWAP2 POP POP JUMP JUMPDEST PUSH0 DUP2 SLOAD PUSH2 0x29FB DUP2 PUSH2 0x245F JUMP JUMPDEST PUSH2 0x2A05 DUP2 DUP7 PUSH2 0x29E5 JUMP JUMPDEST SWAP5 POP PUSH1 0x1 DUP3 AND PUSH0 DUP2 EQ PUSH2 0x2A1F JUMPI PUSH1 0x1 DUP2 EQ PUSH2 0x2A34 JUMPI PUSH2 0x2A66 JUMP JUMPDEST PUSH1 0xFF NOT DUP4 AND DUP7 MSTORE DUP2 ISZERO ISZERO DUP3 MUL DUP7 ADD SWAP4 POP PUSH2 0x2A66 JUMP JUMPDEST PUSH2 0x2A3D DUP6 PUSH2 0x24C4 JUMP JUMPDEST PUSH0 JUMPDEST DUP4 DUP2 LT ISZERO PUSH2 0x2A5E JUMPI DUP2 SLOAD DUP2 DUP10 ADD MSTORE PUSH1 0x1 DUP3 ADD SWAP2 POP PUSH1 0x20 DUP2 ADD SWAP1 POP PUSH2 0x2A3F JUMP JUMPDEST DUP4 DUP9 ADD SWAP6 POP POP POP JUMPDEST POP POP POP SWAP3 SWAP2 POP POP JUMP JUMPDEST PUSH0 PUSH2 0x2A79 DUP3 PUSH2 0x1E36 JUMP JUMPDEST PUSH2 0x2A83 DUP2 DUP6 PUSH2 0x29E5 JUMP JUMPDEST SWAP4 POP PUSH2 0x2A93 DUP2 DUP6 PUSH1 0x20 DUP7 ADD PUSH2 0x1E50 JUMP JUMPDEST DUP1 DUP5 ADD SWAP2 POP POP SWAP3 SWAP2 POP POP JUMP JUMPDEST PUSH32 0x2E706E6700000000000000000000000000000000000000000000000000000000 PUSH0 DUP3 ADD MSTORE POP JUMP JUMPDEST PUSH0 PUSH2 0x2AD3 PUSH1 0x4 DUP4 PUSH2 0x29E5 JUMP JUMPDEST SWAP2 POP PUSH2 0x2ADE DUP3 PUSH2 0x2A9F JUMP JUMPDEST PUSH1 0x4 DUP3 ADD SWAP1 POP SWAP2 SWAP1 POP JUMP JUMPDEST PUSH0 PUSH2 0x2AF4 DUP3 DUP6 PUSH2 0x29EF JUMP JUMPDEST SWAP2 POP PUSH2 0x2B00 DUP3 DUP5 PUSH2 0x2A6F JUMP JUMPDEST SWAP2 POP PUSH2 0x2B0B DUP3 PUSH2 0x2AC7 JUMP JUMPDEST SWAP2 POP DUP2 SWAP1 POP SWAP4 SWAP3 POP POP POP JUMP JUMPDEST PUSH32 0x70726963653D3000000000000000000000000000000000000000000000000000 PUSH0 DUP3 ADD MSTORE POP JUMP JUMPDEST PUSH0 PUSH2 0x2B4B PUSH1 0x7 DUP4 PUSH2 0x1E40 JUMP JUMPDEST SWAP2 POP PUSH2 0x2B56 DUP3 PUSH2 0x2B17 JUMP JUMPDEST PUSH1 0x20 DUP3 ADD SWAP1 POP SWAP2 SWAP1 POP JUMP JUMPDEST PUSH0 PUSH1 0x20 DUP3 ADD SWAP1 POP DUP2 DUP2 SUB PUSH0 DUP4 ADD MSTORE PUSH2 0x2B78 DUP2 PUSH2 0x2B3F JUMP JUMPDEST SWAP1 POP SWAP2 SWAP1 POP JUMP JUMPDEST PUSH32 0x74726561737572793D3000000000000000000000000000000000000000000000 PUSH0 DUP3 ADD MSTORE POP JUMP JUMPDEST PUSH0 PUSH2 0x2BB3 PUSH1 0xA DUP4 PUSH2 0x1E40 JUMP JUMPDEST SWAP2 POP PUSH2 0x2BBE DUP3 PUSH2 0x2B7F JUMP JUMPDEST PUSH1 0x20 DUP3 ADD SWAP1 POP SWAP2 SWAP1 POP JUMP JUMPDEST PUSH0 PUSH1 0x20 DUP3 ADD SWAP1 POP DUP2 DUP2 SUB PUSH0 DUP4 ADD MSTORE PUSH2 0x2BE0 DUP2 PUSH2 0x2BA7 JUMP JUMPDEST SWAP1 POP SWAP2 SWAP1 POP JUMP JUMPDEST PUSH0 DUP2 MLOAD SWAP1 POP SWAP2 SWAP1 POP JUMP JUMPDEST PUSH0 DUP3 DUP3 MSTORE PUSH1 0x20 DUP3 ADD SWAP1 POP SWAP3 SWAP2 POP POP JUMP JUMPDEST PUSH0 PUSH2 0x2C0B DUP3 PUSH2 0x2BE7 JUMP JUMPDEST PUSH2 0x2C15 DUP2 DUP6 PUSH2 0x2BF1 JUMP JUMPDEST SWAP4 POP PUSH2 0x2C25 DUP2 DUP6 PUSH1 0x20 DUP7 ADD PUSH2 0x1E50 JUMP JUMPDEST PUSH2 0x2C2E DUP2 PUSH2 0x1E5E JUMP JUMPDEST DUP5 ADD SWAP2 POP POP SWAP3 SWAP2 POP POP JUMP JUMPDEST PUSH0 PUSH1 0x80 DUP3 ADD SWAP1 POP PUSH2 0x2C4C PUSH0 DUP4 ADD DUP8 PUSH2 0x1F54 JUMP JUMPDEST PUSH2 0x2C59 PUSH1 0x20 DUP4 ADD DUP7 PUSH2 0x1F54 JUMP JUMPDEST PUSH2 0x2C66 PUSH1 0x40 DUP4 ADD DUP6 PUSH2 0x1FE4 JUMP JUMPDEST DUP2 DUP2 SUB PUSH1 0x60 DUP4 ADD MSTORE PUSH2 0x2C78 DUP2 DUP5 PUSH2 0x2C01 JUMP JUMPDEST SWAP1 POP SWAP6 SWAP5 POP POP POP POP POP JUMP JUMPDEST PUSH0 DUP2 MLOAD SWAP1 POP PUSH2 0x2C91 DUP2 PUSH2 0x1DAE JUMP JUMPDEST SWAP3 SWAP2 POP POP JUMP JUMPDEST PUSH0 PUSH1 0x20 DUP3 DUP5 SUB SLT ISZERO PUSH2 0x2CAC JUMPI PUSH2 0x2CAB PUSH2 0x1D7B JUMP JUMPDEST JUMPDEST PUSH0 PUSH2 0x2CB9 DUP5 DUP3 DUP6 ADD PUSH2 0x2C83 JUMP JUMPDEST SWAP2 POP POP SWAP3 SWAP2 POP POP JUMP JUMPDEST PUSH32 0x4E487B7100000000000000000000000000000000000000000000000000000000 PUSH0 MSTORE PUSH1 0x12 PUSH1 0x4 MSTORE PUSH1 0x24 PUSH0 REVERT JUMPDEST PUSH0 PUSH1 0x40 DUP3 ADD SWAP1 POP PUSH2 0x2D02 PUSH0 DUP4 ADD DUP6 PUSH2 0x1F54 JUMP JUMPDEST PUSH2 0x2D0F PUSH1 0x20 DUP4 ADD DUP5 PUSH2 0x1FE4 JUMP JUMPDEST SWAP4 SWAP3 POP POP POP JUMP INVALID LOG2 PUSH5 0x6970667358 0x22 SLT KECCAK256 MUL POP PUSH17 0xE199AA05ACB4383330EE60EB7DDCE44E65 0xCB 0xA7 SIGNEXTEND PUSH11 0x4EB300FB2AC049DD64736F PUSH13 0x634300081E0033000000000000 "
	},
	"abi": [
		{
			"inputs": [
				{
					"internalType": "address",
					"name": "to",
					"type": "address"
				},
				{
					"internalType": "uint256",
					"name": "tokenId",
					"type": "uint256"
				}
			],
			"name": "approve",
			"outputs": [],
			"stateMutability": "nonpayable",
			"type": "function"
		},
		{
			"inputs": [
				{
					"internalType": "address",
					"name": "carbonoToken",
					"type": "address"
				},
				{
					"internalType": "uint256",
					"name": "initialPriceInCBO",
					"type": "uint256"
				},
				{
					"internalType": "uint256",
					"name": "_maxSupply",
					"type": "uint256"
				},
				{
					"internalType": "string",
					"name": "baseURIInit",
					"type": "string"
				}
			],
			"stateMutability": "nonpayable",
			"type": "constructor"
		},
		{
			"inputs": [
				{
					"internalType": "address",
					"name": "sender",
					"type": "address"
				},
				{
					"internalType": "uint256",
					"name": "tokenId",
					"type": "uint256"
				},
				{
					"internalType": "address",
					"name": "owner",
					"type": "address"
				}
			],
			"name": "ERC721IncorrectOwner",
			"type": "error"
		},
		{
			"inputs": [
				{
					"internalType": "address",
					"name": "operator",
					"type": "address"
				},
				{
					"internalType": "uint256",
					"name": "tokenId",
					"type": "uint256"
				}
			],
			"name": "ERC721InsufficientApproval",
			"type": "error"
		},
		{
			"inputs": [
				{
					"internalType": "address",
					"name": "approver",
					"type": "address"
				}
			],
			"name": "ERC721InvalidApprover",
			"type": "error"
		},
		{
			"inputs": [
				{
					"internalType": "address",
					"name": "operator",
					"type": "address"
				}
			],
			"name": "ERC721InvalidOperator",
			"type": "error"
		},
		{
			"inputs": [
				{
					"internalType": "address",
					"name": "owner",
					"type": "address"
				}
			],
			"name": "ERC721InvalidOwner",
			"type": "error"
		},
		{
			"inputs": [
				{
					"internalType": "address",
					"name": "receiver",
					"type": "address"
				}
			],
			"name": "ERC721InvalidReceiver",
			"type": "error"
		},
		{
			"inputs": [
				{
					"internalType": "address",
					"name": "sender",
					"type": "address"
				}
			],
			"name": "ERC721InvalidSender",
			"type": "error"
		},
		{
			"inputs": [
				{
					"internalType": "uint256",
					"name": "tokenId",
					"type": "uint256"
				}
			],
			"name": "ERC721NonexistentToken",
			"type": "error"
		},
		{
			"inputs": [
				{
					"internalType": "address",
					"name": "owner",
					"type": "address"
				}
			],
			"name": "OwnableInvalidOwner",
			"type": "error"
		},
		{
			"inputs": [
				{
					"internalType": "address",
					"name": "account",
					"type": "address"
				}
			],
			"name": "OwnableUnauthorizedAccount",
			"type": "error"
		},
		{
			"anonymous": false,
			"inputs": [
				{
					"indexed": true,
					"internalType": "address",
					"name": "owner",
					"type": "address"
				},
				{
					"indexed": true,
					"internalType": "address",
					"name": "approved",
					"type": "address"
				},
				{
					"indexed": true,
					"internalType": "uint256",
					"name": "tokenId",
					"type": "uint256"
				}
			],
			"name": "Approval",
			"type": "event"
		},
		{
			"anonymous": false,
			"inputs": [
				{
					"indexed": true,
					"internalType": "address",
					"name": "owner",
					"type": "address"
				},
				{
					"indexed": true,
					"internalType": "address",
					"name": "operator",
					"type": "address"
				},
				{
					"indexed": false,
					"internalType": "bool",
					"name": "approved",
					"type": "bool"
				}
			],
			"name": "ApprovalForAll",
			"type": "event"
		},
		{
			"anonymous": false,
			"inputs": [
				{
					"indexed": false,
					"internalType": "string",
					"name": "newBaseURI",
					"type": "string"
				}
			],
			"name": "BaseURIChanged",
			"type": "event"
		},
		{
			"inputs": [
				{
					"internalType": "uint256",
					"name": "qty",
					"type": "uint256"
				}
			],
			"name": "mint",
			"outputs": [],
			"stateMutability": "nonpayable",
			"type": "function"
		},
		{
			"anonymous": false,
			"inputs": [
				{
					"indexed": true,
					"internalType": "address",
					"name": "buyer",
					"type": "address"
				},
				{
					"indexed": false,
					"internalType": "uint256",
					"name": "qty",
					"type": "uint256"
				},
				{
					"indexed": false,
					"internalType": "uint256",
					"name": "paidCBO",
					"type": "uint256"
				}
			],
			"name": "Minted",
			"type": "event"
		},
		{
			"anonymous": false,
			"inputs": [
				{
					"indexed": true,
					"internalType": "address",
					"name": "previousOwner",
					"type": "address"
				},
				{
					"indexed": true,
					"internalType": "address",
					"name": "newOwner",
					"type": "address"
				}
			],
			"name": "OwnershipTransferred",
			"type": "event"
		},
		{
			"anonymous": false,
			"inputs": [
				{
					"indexed": false,
					"internalType": "uint256",
					"name": "newPrice",
					"type": "uint256"
				}
			],
			"name": "PriceChanged",
			"type": "event"
		},
		{
			"inputs": [],
			"name": "renounceOwnership",
			"outputs": [],
			"stateMutability": "nonpayable",
			"type": "function"
		},
		{
			"inputs": [
				{
					"internalType": "address",
					"name": "from",
					"type": "address"
				},
				{
					"internalType": "address",
					"name": "to",
					"type": "address"
				},
				{
					"internalType": "uint256",
					"name": "tokenId",
					"type": "uint256"
				}
			],
			"name": "safeTransferFrom",
			"outputs": [],
			"stateMutability": "nonpayable",
			"type": "function"
		},
		{
			"inputs": [
				{
					"internalType": "address",
					"name": "from",
					"type": "address"
				},
				{
					"internalType": "address",
					"name": "to",
					"type": "address"
				},
				{
					"internalType": "uint256",
					"name": "tokenId",
					"type": "uint256"
				},
				{
					"internalType": "bytes",
					"name": "data",
					"type": "bytes"
				}
			],
			"name": "safeTransferFrom",
			"outputs": [],
			"stateMutability": "nonpayable",
			"type": "function"
		},
		{
			"inputs": [
				{
					"internalType": "address",
					"name": "operator",
					"type": "address"
				},
				{
					"internalType": "bool",
					"name": "approved",
					"type": "bool"
				}
			],
			"name": "setApprovalForAll",
			"outputs": [],
			"stateMutability": "nonpayable",
			"type": "function"
		},
		{
			"inputs": [
				{
					"internalType": "string",
					"name": "u",
					"type": "string"
				}
			],
			"name": "setBaseURI",
			"outputs": [],
			"stateMutability": "nonpayable",
			"type": "function"
		},
		{
			"inputs": [
				{
					"internalType": "uint256",
					"name": "newPrice",
					"type": "uint256"
				}
			],
			"name": "setPriceInCBO",
			"outputs": [],
			"stateMutability": "nonpayable",
			"type": "function"
		},
		{
			"inputs": [
				{
					"internalType": "address",
					"name": "newTreasury",
					"type": "address"
				}
			],
			"name": "setTreasury",
			"outputs": [],
			"stateMutability": "nonpayable",
			"type": "function"
		},
		{
			"anonymous": false,
			"inputs": [
				{
					"indexed": true,
					"internalType": "address",
					"name": "from",
					"type": "address"
				},
				{
					"indexed": true,
					"internalType": "address",
					"name": "to",
					"type": "address"
				},
				{
					"indexed": true,
					"internalType": "uint256",
					"name": "tokenId",
					"type": "uint256"
				}
			],
			"name": "Transfer",
			"type": "event"
		},
		{
			"inputs": [
				{
					"internalType": "address",
					"name": "from",
					"type": "address"
				},
				{
					"internalType": "address",
					"name": "to",
					"type": "address"
				},
				{
					"internalType": "uint256",
					"name": "tokenId",
					"type": "uint256"
				}
			],
			"name": "transferFrom",
			"outputs": [],
			"stateMutability": "nonpayable",
			"type": "function"
		},
		{
			"inputs": [
				{
					"internalType": "address",
					"name": "newOwner",
					"type": "address"
				}
			],
			"name": "transferOwnership",
			"outputs": [],
			"stateMutability": "nonpayable",
			"type": "function"
		},
		{
			"anonymous": false,
			"inputs": [
				{
					"indexed": false,
					"internalType": "address",
					"name": "newTreasury",
					"type": "address"
				}
			],
			"name": "TreasuryChanged",
			"type": "event"
		},
		{
			"inputs": [
				{
					"internalType": "address",
					"name": "owner",
					"type": "address"
				}
			],
			"name": "balanceOf",
			"outputs": [
				{
					"internalType": "uint256",
					"name": "",
					"type": "uint256"
				}
			],
			"stateMutability": "view",
			"type": "function"
		},
		{
			"inputs": [],
			"name": "carbono",
			"outputs": [
				{
					"internalType": "contract IERC20",
					"name": "",
					"type": "address"
				}
			],
			"stateMutability": "view",
			"type": "function"
		},
		{
			"inputs": [
				{
					"internalType": "uint256",
					"name": "tokenId",
					"type": "uint256"
				}
			],
			"name": "getApproved",
			"outputs": [
				{
					"internalType": "address",
					"name": "",
					"type": "address"
				}
			],
			"stateMutability": "view",
			"type": "function"
		},
		{
			"inputs": [
				{
					"internalType": "address",
					"name": "owner",
					"type": "address"
				},
				{
					"internalType": "address",
					"name": "operator",
					"type": "address"
				}
			],
			"name": "isApprovedForAll",
			"outputs": [
				{
					"internalType": "bool",
					"name": "",
					"type": "bool"
				}
			],
			"stateMutability": "view",
			"type": "function"
		},
		{
			"inputs": [],
			"name": "maxSupply",
			"outputs": [
				{
					"internalType": "uint256",
					"name": "",
					"type": "uint256"
				}
			],
			"stateMutability": "view",
			"type": "function"
		},
		{
			"inputs": [],
			"name": "name",
			"outputs": [
				{
					"internalType": "string",
					"name": "",
					"type": "string"
				}
			],
			"stateMutability": "view",
			"type": "function"
		},
		{
			"inputs": [],
			"name": "owner",
			"outputs": [
				{
					"internalType": "address",
					"name": "",
					"type": "address"
				}
			],
			"stateMutability": "view",
			"type": "function"
		},
		{
			"inputs": [
				{
					"internalType": "uint256",
					"name": "tokenId",
					"type": "uint256"
				}
			],
			"name": "ownerOf",
			"outputs": [
				{
					"internalType": "address",
					"name": "",
					"type": "address"
				}
			],
			"stateMutability": "view",
			"type": "function"
		},
		{
			"inputs": [],
			"name": "priceInCBO",
			"outputs": [
				{
					"internalType": "uint256",
					"name": "",
					"type": "uint256"
				}
			],
			"stateMutability": "view",
			"type": "function"
		},
		{
			"inputs": [
				{
					"internalType": "bytes4",
					"name": "interfaceId",
					"type": "bytes4"
				}
			],
			"name": "supportsInterface",
			"outputs": [
				{
					"internalType": "bool",
					"name": "",
					"type": "bool"
				}
			],
			"stateMutability": "view",
			"type": "function"
		},
		{
			"inputs": [],
			"name": "symbol",
			"outputs": [
				{
					"internalType": "string",
					"name": "",
					"type": "string"
				}
			],
			"stateMutability": "view",
			"type": "function"
		},
		{
			"inputs": [
				{
					"internalType": "uint256",
					"name": "tokenId",
					"type": "uint256"
				}
			],
			"name": "tokenURI",
			"outputs": [
				{
					"internalType": "string",
					"name": "",
					"type": "string"
				}
			],
			"stateMutability": "view",
			"type": "function"
		},
		{
			"inputs": [],
			"name": "totalSupply",
			"outputs": [
				{
					"internalType": "uint256",
					"name": "",
					"type": "uint256"
				}
			],
			"stateMutability": "view",
			"type": "function"
		},
		{
			"inputs": [],
			"name": "treasury",
			"outputs": [
				{
					"internalType": "address",
					"name": "",
					"type": "address"
				}
			],
			"stateMutability": "view",
			"type": "function"
		}
	],
	"storageLayout": {
		"storage": [
			{
				"astId": 395,
				"contract": "contracts/experience.sol:Experience721",
				"label": "_name",
				"offset": 0,
				"slot": "0",
				"type": "t_string_storage"
			},
			{
				"astId": 397,
				"contract": "contracts/experience.sol:Experience721",
				"label": "_symbol",
				"offset": 0,
				"slot": "1",
				"type": "t_string_storage"
			},
			{
				"astId": 401,
				"contract": "contracts/experience.sol:Experience721",
				"label": "_owners",
				"offset": 0,
				"slot": "2",
				"type": "t_mapping(t_uint256,t_address)"
			},
			{
				"astId": 405,
				"contract": "contracts/experience.sol:Experience721",
				"label": "_balances",
				"offset": 0,
				"slot": "3",
				"type": "t_mapping(t_address,t_uint256)"
			},
			{
				"astId": 409,
				"contract": "contracts/experience.sol:Experience721",
				"label": "_tokenApprovals",
				"offset": 0,
				"slot": "4",
				"type": "t_mapping(t_uint256,t_address)"
			},
			{
				"astId": 415,
				"contract": "contracts/experience.sol:Experience721",
				"label": "_operatorApprovals",
				"offset": 0,
				"slot": "5",
				"type": "t_mapping(t_address,t_mapping(t_address,t_bool))"
			},
			{
				"astId": 8,
				"contract": "contracts/experience.sol:Experience721",
				"label": "_owner",
				"offset": 0,
				"slot": "6",
				"type": "t_address"
			},
			{
				"astId": 6629,
				"contract": "contracts/experience.sol:Experience721",
				"label": "treasury",
				"offset": 0,
				"slot": "7",
				"type": "t_address"
			},
			{
				"astId": 6631,
				"contract": "contracts/experience.sol:Experience721",
				"label": "priceInCBO",
				"offset": 0,
				"slot": "8",
				"type": "t_uint256"
			},
			{
				"astId": 6633,
				"contract": "contracts/experience.sol:Experience721",
				"label": "maxSupply",
				"offset": 0,
				"slot": "9",
				"type": "t_uint256"
			},
			{
				"astId": 6635,
				"contract": "contracts/experience.sol:Experience721",
				"label": "totalSupply",
				"offset": 0,
				"slot": "10",
				"type": "t_uint256"
			},
			{
				"astId": 6637,
				"contract": "contracts/experience.sol:Experience721",
				"label": "baseURI_",
				"offset": 0,
				"slot": "11",
				"type": "t_string_storage"
			},
			{
				"astId": 6640,
				"contract": "contracts/experience.sol:Experience721",
				"label": "_nextId",
				"offset": 0,
				"slot": "12",
				"type": "t_uint256"
			}
		],
		"types": {
			"t_address": {
				"encoding": "inplace",
				"label": "address",
				"numberOfBytes": "20"
			},
			"t_bool": {
				"encoding": "inplace",
				"label": "bool",
				"numberOfBytes": "1"
			},
			"t_mapping(t_address,t_bool)": {
				"encoding": "mapping",
				"key": "t_address",
				"label": "mapping(address => bool)",
				"numberOfBytes": "32",
				"value": "t_bool"
			},
			"t_mapping(t_address,t_mapping(t_address,t_bool))": {
				"encoding": "mapping",
				"key": "t_address",
				"label": "mapping(address => mapping(address => bool))",
				"numberOfBytes": "32",
				"value": "t_mapping(t_address,t_bool)"
			},
			"t_mapping(t_address,t_uint256)": {
				"encoding": "mapping",
				"key": "t_address",
				"label": "mapping(address => uint256)",
				"numberOfBytes": "32",
				"value": "t_uint256"
			},
			"t_mapping(t_uint256,t_address)": {
				"encoding": "mapping",
				"key": "t_uint256",
				"label": "mapping(uint256 => address)",
				"numberOfBytes": "32",
				"value": "t_address"
			},
			"t_string_storage": {
				"encoding": "bytes",
				"label": "string",
				"numberOfBytes": "32"
			},
			"t_uint256": {
				"encoding": "inplace",
				"label": "uint256",
				"numberOfBytes": "32"
			}
		}
	},
	"web3Deploy": "var carbonoToken = /* var of type address here */ ;\nvar initialPriceInCBO = /* var of type uint256 here */ ;\nvar _maxSupply = /* var of type uint256 here */ ;\nvar baseURIInit = /* var of type string here */ ;\nvar experience721Contract = new web3.eth.Contract([{\"inputs\":[{\"internalType\":\"address\",\"name\":\"carbonoToken\",\"type\":\"address\"},{\"internalType\":\"uint256\",\"name\":\"initialPriceInCBO\",\"type\":\"uint256\"},{\"internalType\":\"uint256\",\"name\":\"_maxSupply\",\"type\":\"uint256\"},{\"internalType\":\"string\",\"name\":\"baseURIInit\",\"type\":\"string\"}],\"stateMutability\":\"nonpayable\",\"type\":\"constructor\"},{\"inputs\":[{\"internalType\":\"address\",\"name\":\"sender\",\"type\":\"address\"},{\"internalType\":\"uint256\",\"name\":\"tokenId\",\"type\":\"uint256\"},{\"internalType\":\"address\",\"name\":\"owner\",\"type\":\"address\"}],\"name\":\"ERC721IncorrectOwner\",\"type\":\"error\"},{\"inputs\":[{\"internalType\":\"address\",\"name\":\"operator\",\"type\":\"address\"},{\"internalType\":\"uint256\",\"name\":\"tokenId\",\"type\":\"uint256\"}],\"name\":\"ERC721InsufficientApproval\",\"type\":\"error\"},{\"inputs\":[{\"internalType\":\"address\",\"name\":\"approver\",\"type\":\"address\"}],\"name\":\"ERC721InvalidApprover\",\"type\":\"error\"},{\"inputs\":[{\"internalType\":\"address\",\"name\":\"operator\",\"type\":\"address\"}],\"name\":\"ERC721InvalidOperator\",\"type\":\"error\"},{\"inputs\":[{\"internalType\":\"address\",\"name\":\"owner\",\"type\":\"address\"}],\"name\":\"ERC721InvalidOwner\",\"type\":\"error\"},{\"inputs\":[{\"internalType\":\"address\",\"name\":\"receiver\",\"type\":\"address\"}],\"name\":\"ERC721InvalidReceiver\",\"type\":\"error\"},{\"inputs\":[{\"internalType\":\"address\",\"name\":\"sender\",\"type\":\"address\"}],\"name\":\"ERC721InvalidSender\",\"type\":\"error\"},{\"inputs\":[{\"internalType\":\"uint256\",\"name\":\"tokenId\",\"type\":\"uint256\"}],\"name\":\"ERC721NonexistentToken\",\"type\":\"error\"},{\"inputs\":[{\"internalType\":\"address\",\"name\":\"owner\",\"type\":\"address\"}],\"name\":\"OwnableInvalidOwner\",\"type\":\"error\"},{\"inputs\":[{\"internalType\":\"address\",\"name\":\"account\",\"type\":\"address\"}],\"name\":\"OwnableUnauthorizedAccount\",\"type\":\"error\"},{\"anonymous\":false,\"inputs\":[{\"indexed\":true,\"internalType\":\"address\",\"name\":\"owner\",\"type\":\"address\"},{\"indexed\":true,\"internalType\":\"address\",\"name\":\"approved\",\"type\":\"address\"},{\"indexed\":true,\"internalType\":\"uint256\",\"name\":\"tokenId\",\"type\":\"uint256\"}],\"name\":\"Approval\",\"type\":\"event\"},{\"anonymous\":false,\"inputs\":[{\"indexed\":true,\"internalType\":\"address\",\"name\":\"owner\",\"type\":\"address\"},{\"indexed\":true,\"internalType\":\"address\",\"name\":\"operator\",\"type\":\"address\"},{\"indexed\":false,\"internalType\":\"bool\",\"name\":\"approved\",\"type\":\"bool\"}],\"name\":\"ApprovalForAll\",\"type\":\"event\"},{\"anonymous\":false,\"inputs\":[{\"indexed\":false,\"internalType\":\"string\",\"name\":\"newBaseURI\",\"type\":\"string\"}],\"name\":\"BaseURIChanged\",\"type\":\"event\"},{\"anonymous\":false,\"inputs\":[{\"indexed\":true,\"internalType\":\"address\",\"name\":\"buyer\",\"type\":\"address\"},{\"indexed\":false,\"internalType\":\"uint256\",\"name\":\"qty\",\"type\":\"uint256\"},{\"indexed\":false,\"internalType\":\"uint256\",\"name\":\"paidCBO\",\"type\":\"uint256\"}],\"name\":\"Minted\",\"type\":\"event\"},{\"anonymous\":false,\"inputs\":[{\"indexed\":true,\"internalType\":\"address\",\"name\":\"previousOwner\",\"type\":\"address\"},{\"indexed\":true,\"internalType\":\"address\",\"name\":\"newOwner\",\"type\":\"address\"}],\"name\":\"OwnershipTransferred\",\"type\":\"event\"},{\"anonymous\":false,\"inputs\":[{\"indexed\":false,\"internalType\":\"uint256\",\"name\":\"newPrice\",\"type\":\"uint256\"}],\"name\":\"PriceChanged\",\"type\":\"event\"},{\"anonymous\":false,\"inputs\":[{\"indexed\":true,\"internalType\":\"address\",\"name\":\"from\",\"type\":\"address\"},{\"indexed\":true,\"internalType\":\"address\",\"name\":\"to\",\"type\":\"address\"},{\"indexed\":true,\"internalType\":\"uint256\",\"name\":\"tokenId\",\"type\":\"uint256\"}],\"name\":\"Transfer\",\"type\":\"event\"},{\"anonymous\":false,\"inputs\":[{\"indexed\":false,\"internalType\":\"address\",\"name\":\"newTreasury\",\"type\":\"address\"}],\"name\":\"TreasuryChanged\",\"type\":\"event\"},{\"inputs\":[{\"internalType\":\"address\",\"name\":\"to\",\"type\":\"address\"},{\"internalType\":\"uint256\",\"name\":\"tokenId\",\"type\":\"uint256\"}],\"name\":\"approve\",\"outputs\":[],\"stateMutability\":\"nonpayable\",\"type\":\"function\"},{\"inputs\":[{\"internalType\":\"address\",\"name\":\"owner\",\"type\":\"address\"}],\"name\":\"balanceOf\",\"outputs\":[{\"internalType\":\"uint256\",\"name\":\"\",\"type\":\"uint256\"}],\"stateMutability\":\"view\",\"type\":\"function\"},{\"inputs\":[],\"name\":\"carbono\",\"outputs\":[{\"internalType\":\"contract IERC20\",\"name\":\"\",\"type\":\"address\"}],\"stateMutability\":\"view\",\"type\":\"function\"},{\"inputs\":[{\"internalType\":\"uint256\",\"name\":\"tokenId\",\"type\":\"uint256\"}],\"name\":\"getApproved\",\"outputs\":[{\"internalType\":\"address\",\"name\":\"\",\"type\":\"address\"}],\"stateMutability\":\"view\",\"type\":\"function\"},{\"inputs\":[{\"internalType\":\"address\",\"name\":\"owner\",\"type\":\"address\"},{\"internalType\":\"address\",\"name\":\"operator\",\"type\":\"address\"}],\"name\":\"isApprovedForAll\",\"outputs\":[{\"internalType\":\"bool\",\"name\":\"\",\"type\":\"bool\"}],\"stateMutability\":\"view\",\"type\":\"function\"},{\"inputs\":[],\"name\":\"maxSupply\",\"outputs\":[{\"internalType\":\"uint256\",\"name\":\"\",\"type\":\"uint256\"}],\"stateMutability\":\"view\",\"type\":\"function\"},{\"inputs\":[{\"internalType\":\"uint256\",\"name\":\"qty\",\"type\":\"uint256\"}],\"name\":\"mint\",\"outputs\":[],\"stateMutability\":\"nonpayable\",\"type\":\"function\"},{\"inputs\":[],\"name\":\"name\",\"outputs\":[{\"internalType\":\"string\",\"name\":\"\",\"type\":\"string\"}],\"stateMutability\":\"view\",\"type\":\"function\"},{\"inputs\":[],\"name\":\"owner\",\"outputs\":[{\"internalType\":\"address\",\"name\":\"\",\"type\":\"address\"}],\"stateMutability\":\"view\",\"type\":\"function\"},{\"inputs\":[{\"internalType\":\"uint256\",\"name\":\"tokenId\",\"type\":\"uint256\"}],\"name\":\"ownerOf\",\"outputs\":[{\"internalType\":\"address\",\"name\":\"\",\"type\":\"address\"}],\"stateMutability\":\"view\",\"type\":\"function\"},{\"inputs\":[],\"name\":\"priceInCBO\",\"outputs\":[{\"internalType\":\"uint256\",\"name\":\"\",\"type\":\"uint256\"}],\"stateMutability\":\"view\",\"type\":\"function\"},{\"inputs\":[],\"name\":\"renounceOwnership\",\"outputs\":[],\"stateMutability\":\"nonpayable\",\"type\":\"function\"},{\"inputs\":[{\"internalType\":\"address\",\"name\":\"from\",\"type\":\"address\"},{\"internalType\":\"address\",\"name\":\"to\",\"type\":\"address\"},{\"internalType\":\"uint256\",\"name\":\"tokenId\",\"type\":\"uint256\"}],\"name\":\"safeTransferFrom\",\"outputs\":[],\"stateMutability\":\"nonpayable\",\"type\":\"function\"},{\"inputs\":[{\"internalType\":\"address\",\"name\":\"from\",\"type\":\"address\"},{\"internalType\":\"address\",\"name\":\"to\",\"type\":\"address\"},{\"internalType\":\"uint256\",\"name\":\"tokenId\",\"type\":\"uint256\"},{\"internalType\":\"bytes\",\"name\":\"data\",\"type\":\"bytes\"}],\"name\":\"safeTransferFrom\",\"outputs\":[],\"stateMutability\":\"nonpayable\",\"type\":\"function\"},{\"inputs\":[{\"internalType\":\"address\",\"name\":\"operator\",\"type\":\"address\"},{\"internalType\":\"bool\",\"name\":\"approved\",\"type\":\"bool\"}],\"name\":\"setApprovalForAll\",\"outputs\":[],\"stateMutability\":\"nonpayable\",\"type\":\"function\"},{\"inputs\":[{\"internalType\":\"string\",\"name\":\"u\",\"type\":\"string\"}],\"name\":\"setBaseURI\",\"outputs\":[],\"stateMutability\":\"nonpayable\",\"type\":\"function\"},{\"inputs\":[{\"internalType\":\"uint256\",\"name\":\"newPrice\",\"type\":\"uint256\"}],\"name\":\"setPriceInCBO\",\"outputs\":[],\"stateMutability\":\"nonpayable\",\"type\":\"function\"},{\"inputs\":[{\"internalType\":\"address\",\"name\":\"newTreasury\",\"type\":\"address\"}],\"name\":\"setTreasury\",\"outputs\":[],\"stateMutability\":\"nonpayable\",\"type\":\"function\"},{\"inputs\":[{\"internalType\":\"bytes4\",\"name\":\"interfaceId\",\"type\":\"bytes4\"}],\"name\":\"supportsInterface\",\"outputs\":[{\"internalType\":\"bool\",\"name\":\"\",\"type\":\"bool\"}],\"stateMutability\":\"view\",\"type\":\"function\"},{\"inputs\":[],\"name\":\"symbol\",\"outputs\":[{\"internalType\":\"string\",\"name\":\"\",\"type\":\"string\"}],\"stateMutability\":\"view\",\"type\":\"function\"},{\"inputs\":[{\"internalType\":\"uint256\",\"name\":\"tokenId\",\"type\":\"uint256\"}],\"name\":\"tokenURI\",\"outputs\":[{\"internalType\":\"string\",\"name\":\"\",\"type\":\"string\"}],\"stateMutability\":\"view\",\"type\":\"function\"},{\"inputs\":[],\"name\":\"totalSupply\",\"outputs\":[{\"internalType\":\"uint256\",\"name\":\"\",\"type\":\"uint256\"}],\"stateMutability\":\"view\",\"type\":\"function\"},{\"inputs\":[{\"internalType\":\"address\",\"name\":\"from\",\"type\":\"address\"},{\"internalType\":\"address\",\"name\":\"to\",\"type\":\"address\"},{\"internalType\":\"uint256\",\"name\":\"tokenId\",\"type\":\"uint256\"}],\"name\":\"transferFrom\",\"outputs\":[],\"stateMutability\":\"nonpayable\",\"type\":\"function\"},{\"inputs\":[{\"internalType\":\"address\",\"name\":\"newOwner\",\"type\":\"address\"}],\"name\":\"transferOwnership\",\"outputs\":[],\"stateMutability\":\"nonpayable\",\"type\":\"function\"},{\"inputs\":[],\"name\":\"treasury\",\"outputs\":[{\"internalType\":\"address\",\"name\":\"\",\"type\":\"address\"}],\"stateMutability\":\"view\",\"type\":\"function\"}]);\nvar experience721 = experience721Contract.deploy({\n     data: '0x60a06040526001600c55348015610014575f5ffd5b5060405161379f38038061379f8339818101604052810190610036919061056e565b336040518060400160405280600d81526020017f457870657269656e6365373231000000000000000000000000000000000000008152506040518060400160405280600381526020017f4558500000000000000000000000000000000000000000000000000000000000815250815f90816100b191906107f5565b5080600190816100c191906107f5565b5050505f73ffffffffffffffffffffffffffffffffffffffff168173ffffffffffffffffffffffffffffffffffffffff1603610134575f6040517f1e4fbdf700000000000000000000000000000000000000000000000000000000815260040161012b91906108d3565b60405180910390fd5b610143816102d160201b60201c565b505f73ffffffffffffffffffffffffffffffffffffffff168473ffffffffffffffffffffffffffffffffffffffff16036101b2576040517f08c379a00000000000000000000000000000000000000000000000000000000081526004016101a990610946565b60405180910390fd5b5f83116101f4576040517f08c379a00000000000000000000000000000000000000000000000000000000081526004016101eb906109ae565b60405180910390fd5b5f8211610236576040517f08c379a000000000000000000000000000000000000000000000000000000000815260040161022d90610a16565b60405180910390fd5b8373ffffffffffffffffffffffffffffffffffffffff1660808173ffffffffffffffffffffffffffffffffffffffff1681525050826008819055508160098190555080600b908161028791906107f5565b503360075f6101000a81548173ffffffffffffffffffffffffffffffffffffffff021916908373ffffffffffffffffffffffffffffffffffffffff16021790555050505050610a34565b5f60065f9054906101000a900473ffffffffffffffffffffffffffffffffffffffff1690508160065f6101000a81548173ffffffffffffffffffffffffffffffffffffffff021916908373ffffffffffffffffffffffffffffffffffffffff1602179055508173ffffffffffffffffffffffffffffffffffffffff168173ffffffffffffffffffffffffffffffffffffffff167f8be0079c531659141344cd1fd0a4f28419497f9722a3daafe3b4186f6b6457e060405160405180910390a35050565b5f604051905090565b5f5ffd5b5f5ffd5b5f73ffffffffffffffffffffffffffffffffffffffff82169050919050565b5f6103ce826103a5565b9050919050565b6103de816103c4565b81146103e8575f5ffd5b50565b5f815190506103f9816103d5565b92915050565b5f819050919050565b610411816103ff565b811461041b575f5ffd5b50565b5f8151905061042c81610408565b92915050565b5f5ffd5b5f5ffd5b5f601f19601f8301169050919050565b7f4e487b71000000000000000000000000000000000000000000000000000000005f52604160045260245ffd5b6104808261043a565b810181811067ffffffffffffffff8211171561049f5761049e61044a565b5b80604052505050565b5f6104b1610394565b90506104bd8282610477565b919050565b5f67ffffffffffffffff8211156104dc576104db61044a565b5b6104e58261043a565b9050602081019050919050565b8281835e5f83830152505050565b5f61051261050d846104c2565b6104a8565b90508281526020810184848401111561052e5761052d610436565b5b6105398482856104f2565b509392505050565b5f82601f83011261055557610554610432565b5b8151610565848260208601610500565b91505092915050565b5f5f5f5f608085870312156105865761058561039d565b5b5f610593878288016103eb565b94505060206105a48782880161041e565b93505060406105b58782880161041e565b925050606085015167ffffffffffffffff8111156105d6576105d56103a1565b5b6105e287828801610541565b91505092959194509250565b5f81519050919050565b7f4e487b71000000000000000000000000000000000000000000000000000000005f52602260045260245ffd5b5f600282049050600182168061063c57607f821691505b60208210810361064f5761064e6105f8565b5b50919050565b5f819050815f5260205f209050919050565b5f6020601f8301049050919050565b5f82821b905092915050565b5f600883026106b17fffffffffffffffffffffffffffffffffffffffffffffffffffffffffffffffff82610676565b6106bb8683610676565b95508019841693508086168417925050509392505050565b5f819050919050565b5f6106f66106f16106ec846103ff565b6106d3565b6103ff565b9050919050565b5f819050919050565b61070f836106dc565b61072361071b826106fd565b848454610682565b825550505050565b5f5f905090565b61073a61072b565b610745818484610706565b505050565b5b818110156107685761075d5f82610732565b60018101905061074b565b5050565b601f8211156107ad5761077e81610655565b61078784610667565b81016020851015610796578190505b6107aa6107a285610667565b83018261074a565b50505b505050565b5f82821c905092915050565b5f6107cd5f19846008026107b2565b1980831691505092915050565b5f6107e583836107be565b9150826002028217905092915050565b6107fe826105ee565b67ffffffffffffffff8111156108175761081661044a565b5b6108218254610625565b61082c82828561076c565b5f60209050601f83116001811461085d575f841561084b578287015190505b61085585826107da565b8655506108bc565b601f19841661086b86610655565b5f5b828110156108925784890151825560018201915060208501945060208101905061086d565b868310156108af57848901516108ab601f8916826107be565b8355505b6001600288020188555050505b505050505050565b6108cd816103c4565b82525050565b5f6020820190506108e65f8301846108c4565b92915050565b5f82825260208201905092915050565b7f43424f3d300000000000000000000000000000000000000000000000000000005f82015250565b5f6109306005836108ec565b915061093b826108fc565b602082019050919050565b5f6020820190508181035f83015261095d81610924565b9050919050565b7f70726963653d30000000000000000000000000000000000000000000000000005f82015250565b5f6109986007836108ec565b91506109a382610964565b602082019050919050565b5f6020820190508181035f8301526109c58161098c565b9050919050565b7f6d61783d300000000000000000000000000000000000000000000000000000005f82015250565b5f610a006005836108ec565b9150610a0b826109cc565b602082019050919050565b5f6020820190508181035f830152610a2d816109f4565b9050919050565b608051612d4c610a535f395f818161074f0152610a410152612d4c5ff3fe608060405234801561000f575f5ffd5b5060043610610171575f3560e01c8063715018a6116100dc578063c87b56dd11610095578063e985e9c51161006f578063e985e9c514610421578063f0f4426014610451578063f2fde38b1461046d578063fb29ada61461048957610171565b8063c87b56dd146103b7578063ce0ed706146103e7578063d5abeb011461040357610171565b8063715018a61461031d5780638da5cb5b1461032757806395d89b4114610345578063a0712d6814610363578063a22cb4651461037f578063b88d4fde1461039b57610171565b806333862d671161012e57806333862d671461024957806342842e0e1461026757806355f804b31461028357806361d027b31461029f5780636352211e146102bd57806370a08231146102ed57610171565b806301ffc9a71461017557806306fdde03146101a5578063081812fc146101c3578063095ea7b3146101f357806318160ddd1461020f57806323b872dd1461022d575b5f5ffd5b61018f600480360381019061018a9190611dd8565b6104a7565b60405161019c9190611e1d565b60405180910390f35b6101ad610588565b6040516101ba9190611ea6565b60405180910390f35b6101dd60048036038101906101d89190611ef9565b610617565b6040516101ea9190611f63565b60405180910390f35b61020d60048036038101906102089190611fa6565b610632565b005b610217610648565b6040516102249190611ff3565b60405180910390f35b6102476004803603810190610242919061200c565b61064e565b005b61025161074d565b60405161025e91906120b7565b60405180910390f35b610281600480360381019061027c919061200c565b610771565b005b61029d600480360381019061029891906121fc565b610790565b005b6102a76107e2565b6040516102b49190611f63565b60405180910390f35b6102d760048036038101906102d29190611ef9565b610807565b6040516102e49190611f63565b60405180910390f35b61030760048036038101906103029190612243565b610818565b6040516103149190611ff3565b60405180910390f35b6103256108ce565b005b61032f6108e1565b60405161033c9190611f63565b60405180910390f35b61034d610909565b60405161035a9190611ea6565b60405180910390f35b61037d60048036038101906103789190611ef9565b610999565b005b61039960048036038101906103949190612298565b610bec565b005b6103b560048036038101906103b09190612374565b610c02565b005b6103d160048036038101906103cc9190611ef9565b610c27565b6040516103de9190611ea6565b60405180910390f35b61040160048036038101906103fc9190611ef9565b610c65565b005b61040b610cf0565b6040516104189190611ff3565b60405180910390f35b61043b600480360381019061043691906123f4565b610cf6565b6040516104489190611e1d565b60405180910390f35b61046b60048036038101906104669190612243565b610d84565b005b61048760048036038101906104829190612243565b610e74565b005b610491610ef8565b60405161049e9190611ff3565b60405180910390f35b5f7f80ac58cd000000000000000000000000000000000000000000000000000000007bffffffffffffffffffffffffffffffffffffffffffffffffffffffff1916827bffffffffffffffffffffffffffffffffffffffffffffffffffffffff1916148061057157507f5b5e139f000000000000000000000000000000000000000000000000000000007bffffffffffffffffffffffffffffffffffffffffffffffffffffffff1916827bffffffffffffffffffffffffffffffffffffffffffffffffffffffff1916145b80610581575061058082610efe565b5b9050919050565b60605f80546105969061245f565b80601f01602080910402602001604051908101604052809291908181526020018280546105c29061245f565b801561060d5780601f106105e45761010080835404028352916020019161060d565b820191905f5260205f20905b8154815290600101906020018083116105f057829003601f168201915b5050505050905090565b5f61062182610f67565b5061062b82610fed565b9050919050565b610644828261063f611026565b61102d565b5050565b600a5481565b5f73ffffffffffffffffffffffffffffffffffffffff168273ffffffffffffffffffffffffffffffffffffffff16036106be575f6040517f64a0ae920000000000000000000000000000000000000000000000000000000081526004016106b59190611f63565b60405180910390fd5b5f6106d183836106cc611026565b61103f565b90508373ffffffffffffffffffffffffffffffffffffffff168173ffffffffffffffffffffffffffffffffffffffff1614610747578382826040517f64283d7b00000000000000000000000000000000000000000000000000000000815260040161073e9392919061248f565b60405180910390fd5b50505050565b7f000000000000000000000000000000000000000000000000000000000000000081565b61078b83838360405180602001604052805f815250610c02565b505050565b61079861124a565b80600b90816107a7919061265b565b507f5411e8ebf1636d9e83d5fc4900bf80cbac82e8790da2a4c94db4895e889eedf6816040516107d79190611ea6565b60405180910390a150565b60075f9054906101000a900473ffffffffffffffffffffffffffffffffffffffff1681565b5f61081182610f67565b9050919050565b5f5f73ffffffffffffffffffffffffffffffffffffffff168273ffffffffffffffffffffffffffffffffffffffff1603610889575f6040517f89c62b640000000000000000000000000000000000000000000000000000000081526004016108809190611f63565b60405180910390fd5b60035f8373ffffffffffffffffffffffffffffffffffffffff1673ffffffffffffffffffffffffffffffffffffffff1681526020019081526020015f20549050919050565b6108d661124a565b6108df5f6112d1565b565b5f60065f9054906101000a900473ffffffffffffffffffffffffffffffffffffffff16905090565b6060600180546109189061245f565b80601f01602080910402602001604051908101604052809291908181526020018280546109449061245f565b801561098f5780601f106109665761010080835404028352916020019161098f565b820191905f5260205f20905b81548152906001019060200180831161097257829003601f168201915b5050505050905090565b5f81116109db576040517f08c379a00000000000000000000000000000000000000000000000000000000081526004016109d290612774565b60405180910390fd5b60095481600a546109ec91906127bf565b1115610a2d576040517f08c379a0000000000000000000000000000000000000000000000000000000008152600401610a249061283c565b60405180910390fd5b5f81600854610a3c919061285a565b90505f7f000000000000000000000000000000000000000000000000000000000000000073ffffffffffffffffffffffffffffffffffffffff166323b872dd3360075f9054906101000a900473ffffffffffffffffffffffffffffffffffffffff16856040518463ffffffff1660e01b8152600401610abd9392919061289b565b6020604051808303815f875af1158015610ad9573d5f5f3e3d5ffd5b505050506040513d601f19601f82011682018060405250810190610afd91906128e4565b905080610b3f576040517f08c379a0000000000000000000000000000000000000000000000000000000008152600401610b3690612959565b60405180910390fd5b5f5f90505b83811015610b96575f600c5f815480929190610b5f90612977565b9190505590506001600a5f828254610b7791906127bf565b92505081905550610b883382611394565b508080600101915050610b44565b503373ffffffffffffffffffffffffffffffffffffffff167f25b428dfde728ccfaddad7e29e4ac23c24ed7fd1a6e3e3f91894a9a073f5dfff8484604051610bdf9291906129be565b60405180910390a2505050565b610bfe610bf7611026565b83836113b1565b5050565b610c0d84848461064e565b610c21610c18611026565b8585858561151a565b50505050565b6060610c3282610807565b50600b610c3e836116c6565b604051602001610c4f929190612ae9565b6040516020818303038152906040529050919050565b610c6d61124a565b5f8111610caf576040517f08c379a0000000000000000000000000000000000000000000000000000000008152600401610ca690612b61565b60405180910390fd5b806008819055507fa6dc15bdb68da224c66db4b3838d9a2b205138e8cff6774e57d0af91e196d62281604051610ce59190611ff3565b60405180910390a150565b60095481565b5f60055f8473ffffffffffffffffffffffffffffffffffffffff1673ffffffffffffffffffffffffffffffffffffffff1681526020019081526020015f205f8373ffffffffffffffffffffffffffffffffffffffff1673ffffffffffffffffffffffffffffffffffffffff1681526020019081526020015f205f9054906101000a900460ff16905092915050565b610d8c61124a565b5f73ffffffffffffffffffffffffffffffffffffffff168173ffffffffffffffffffffffffffffffffffffffff1603610dfa576040517f08c379a0000000000000000000000000000000000000000000000000000000008152600401610df190612bc9565b60405180910390fd5b8060075f6101000a81548173ffffffffffffffffffffffffffffffffffffffff021916908373ffffffffffffffffffffffffffffffffffffffff1602179055507fc714d22a2f08b695f81e7c707058db484aa5b4d6b4c9fd64beb10fe85832f60881604051610e699190611f63565b60405180910390a150565b610e7c61124a565b5f73ffffffffffffffffffffffffffffffffffffffff168173ffffffffffffffffffffffffffffffffffffffff1603610eec575f6040517f1e4fbdf7000000000000000000000000000000000000000000000000000000008152600401610ee39190611f63565b60405180910390fd5b610ef5816112d1565b50565b60085481565b5f7f01ffc9a7000000000000000000000000000000000000000000000000000000007bffffffffffffffffffffffffffffffffffffffffffffffffffffffff1916827bffffffffffffffffffffffffffffffffffffffffffffffffffffffff1916149050919050565b5f5f610f7283611790565b90505f73ffffffffffffffffffffffffffffffffffffffff168173ffffffffffffffffffffffffffffffffffffffff1603610fe457826040517f7e273289000000000000000000000000000000000000000000000000000000008152600401610fdb9190611ff3565b60405180910390fd5b80915050919050565b5f60045f8381526020019081526020015f205f9054906101000a900473ffffffffffffffffffffffffffffffffffffffff169050919050565b5f33905090565b61103a83838360016117c9565b505050565b5f5f61104a84611790565b90505f73ffffffffffffffffffffffffffffffffffffffff168373ffffffffffffffffffffffffffffffffffffffff161461108b5761108a818486611988565b5b5f73ffffffffffffffffffffffffffffffffffffffff168173ffffffffffffffffffffffffffffffffffffffff1614611116576110ca5f855f5f6117c9565b600160035f8373ffffffffffffffffffffffffffffffffffffffff1673ffffffffffffffffffffffffffffffffffffffff1681526020019081526020015f205f82825403925050819055505b5f73ffffffffffffffffffffffffffffffffffffffff168573ffffffffffffffffffffffffffffffffffffffff161461119557600160035f8773ffffffffffffffffffffffffffffffffffffffff1673ffffffffffffffffffffffffffffffffffffffff1681526020019081526020015f205f82825401925050819055505b8460025f8681526020019081526020015f205f6101000a81548173ffffffffffffffffffffffffffffffffffffffff021916908373ffffffffffffffffffffffffffffffffffffffff160217905550838573ffffffffffffffffffffffffffffffffffffffff168273ffffffffffffffffffffffffffffffffffffffff167fddf252ad1be2c89b69c2b068fc378daa952ba7f163c4a11628f55a4df523b3ef60405160405180910390a4809150509392505050565b611252611026565b73ffffffffffffffffffffffffffffffffffffffff166112706108e1565b73ffffffffffffffffffffffffffffffffffffffff16146112cf57611293611026565b6040517f118cdaa70000000000000000000000000000000000000000000000000000000081526004016112c69190611f63565b60405180910390fd5b565b5f60065f9054906101000a900473ffffffffffffffffffffffffffffffffffffffff1690508160065f6101000a81548173ffffffffffffffffffffffffffffffffffffffff021916908373ffffffffffffffffffffffffffffffffffffffff1602179055508173ffffffffffffffffffffffffffffffffffffffff168173ffffffffffffffffffffffffffffffffffffffff167f8be0079c531659141344cd1fd0a4f28419497f9722a3daafe3b4186f6b6457e060405160405180910390a35050565b6113ad828260405180602001604052805f815250611a4b565b5050565b5f73ffffffffffffffffffffffffffffffffffffffff168273ffffffffffffffffffffffffffffffffffffffff160361142157816040517f5b08ba180000000000000000000000000000000000000000000000000000000081526004016114189190611f63565b60405180910390fd5b8060055f8573ffffffffffffffffffffffffffffffffffffffff1673ffffffffffffffffffffffffffffffffffffffff1681526020019081526020015f205f8473ffffffffffffffffffffffffffffffffffffffff1673ffffffffffffffffffffffffffffffffffffffff1681526020019081526020015f205f6101000a81548160ff0219169083151502179055508173ffffffffffffffffffffffffffffffffffffffff168373ffffffffffffffffffffffffffffffffffffffff167f17307eab39ab6107e8899845ad3d59bd9653f200f220920489ca2b5937696c318360405161150d9190611e1d565b60405180910390a3505050565b5f8373ffffffffffffffffffffffffffffffffffffffff163b11156116bf578273ffffffffffffffffffffffffffffffffffffffff1663150b7a02868685856040518563ffffffff1660e01b81526004016115789493929190612c39565b6020604051808303815f875af19250505080156115b357506040513d601f19601f820116820180604052508101906115b09190612c97565b60015b611634573d805f81146115e1576040519150601f19603f3d011682016040523d82523d5f602084013e6115e6565b606091505b505f81510361162c57836040517f64a0ae920000000000000000000000000000000000000000000000000000000081526004016116239190611f63565b60405180910390fd5b805160208201fd5b63150b7a0260e01b7bffffffffffffffffffffffffffffffffffffffffffffffffffffffff1916817bffffffffffffffffffffffffffffffffffffffffffffffffffffffff1916146116bd57836040517f64a0ae920000000000000000000000000000000000000000000000000000000081526004016116b49190611f63565b60405180910390fd5b505b5050505050565b60605f60016116d484611a6e565b0190505f8167ffffffffffffffff8111156116f2576116f16120d8565b5b6040519080825280601f01601f1916602001820160405280156117245781602001600182028036833780820191505090505b5090505f82602083010190505b600115611785578080600190039150507f3031323334353637383961626364656600000000000000000000000000000000600a86061a8153600a858161177a57611779612cc2565b5b0494505f8503611731575b819350505050919050565b5f60025f8381526020019081526020015f205f9054906101000a900473ffffffffffffffffffffffffffffffffffffffff169050919050565b808061180157505f73ffffffffffffffffffffffffffffffffffffffff168273ffffffffffffffffffffffffffffffffffffffff1614155b15611933575f61181084610f67565b90505f73ffffffffffffffffffffffffffffffffffffffff168373ffffffffffffffffffffffffffffffffffffffff161415801561187a57508273ffffffffffffffffffffffffffffffffffffffff168173ffffffffffffffffffffffffffffffffffffffff1614155b801561188d575061188b8184610cf6565b155b156118cf57826040517fa9fbf51f0000000000000000000000000000000000000000000000000000000081526004016118c69190611f63565b60405180910390fd5b811561193157838573ffffffffffffffffffffffffffffffffffffffff168273ffffffffffffffffffffffffffffffffffffffff167f8c5be1e5ebec7d5bd14f71427d1e84f3dd0314c0f7b2291e5b200ac8c7c3b92560405160405180910390a45b505b8360045f8581526020019081526020015f205f6101000a81548173ffffffffffffffffffffffffffffffffffffffff021916908373ffffffffffffffffffffffffffffffffffffffff16021790555050505050565b611993838383611bbf565b611a46575f73ffffffffffffffffffffffffffffffffffffffff168373ffffffffffffffffffffffffffffffffffffffff1603611a0757806040517f7e2732890000000000000000000000000000000000000000000000000000000081526004016119fe9190611ff3565b60405180910390fd5b81816040517f177e802f000000000000000000000000000000000000000000000000000000008152600401611a3d929190612cef565b60405180910390fd5b505050565b611a558383611c7f565b611a69611a60611026565b5f85858561151a565b505050565b5f5f5f90507a184f03e93ff9f4daa797ed6e38ed64bf6a1f0100000000000000008310611aca577a184f03e93ff9f4daa797ed6e38ed64bf6a1f0100000000000000008381611ac057611abf612cc2565b5b0492506040810190505b6d04ee2d6d415b85acef81000000008310611b07576d04ee2d6d415b85acef81000000008381611afd57611afc612cc2565b5b0492506020810190505b662386f26fc100008310611b3657662386f26fc100008381611b2c57611b2b612cc2565b5b0492506010810190505b6305f5e1008310611b5f576305f5e1008381611b5557611b54612cc2565b5b0492506008810190505b6127108310611b84576127108381611b7a57611b79612cc2565b5b0492506004810190505b60648310611ba75760648381611b9d57611b9c612cc2565b5b0492506002810190505b600a8310611bb6576001810190505b80915050919050565b5f5f73ffffffffffffffffffffffffffffffffffffffff168373ffffffffffffffffffffffffffffffffffffffff1614158015611c7657508273ffffffffffffffffffffffffffffffffffffffff168473ffffffffffffffffffffffffffffffffffffffff161480611c375750611c368484610cf6565b5b80611c7557508273ffffffffffffffffffffffffffffffffffffffff16611c5d83610fed565b73ffffffffffffffffffffffffffffffffffffffff16145b5b90509392505050565b5f73ffffffffffffffffffffffffffffffffffffffff168273ffffffffffffffffffffffffffffffffffffffff1603611cef575f6040517f64a0ae92000000000000000000000000000000000000000000000000000000008152600401611ce69190611f63565b60405180910390fd5b5f611cfb83835f61103f565b90505f73ffffffffffffffffffffffffffffffffffffffff168173ffffffffffffffffffffffffffffffffffffffff1614611d6d575f6040517f73c6ac6e000000000000000000000000000000000000000000000000000000008152600401611d649190611f63565b60405180910390fd5b505050565b5f604051905090565b5f5ffd5b5f5ffd5b5f7fffffffff0000000000000000000000000000000000000000000000000000000082169050919050565b611db781611d83565b8114611dc1575f5ffd5b50565b5f81359050611dd281611dae565b92915050565b5f60208284031215611ded57611dec611d7b565b5b5f611dfa84828501611dc4565b91505092915050565b5f8115159050919050565b611e1781611e03565b82525050565b5f602082019050611e305f830184611e0e565b92915050565b5f81519050919050565b5f82825260208201905092915050565b8281835e5f83830152505050565b5f601f19601f8301169050919050565b5f611e7882611e36565b611e828185611e40565b9350611e92818560208601611e50565b611e9b81611e5e565b840191505092915050565b5f6020820190508181035f830152611ebe8184611e6e565b905092915050565b5f819050919050565b611ed881611ec6565b8114611ee2575f5ffd5b50565b5f81359050611ef381611ecf565b92915050565b5f60208284031215611f0e57611f0d611d7b565b5b5f611f1b84828501611ee5565b91505092915050565b5f73ffffffffffffffffffffffffffffffffffffffff82169050919050565b5f611f4d82611f24565b9050919050565b611f5d81611f43565b82525050565b5f602082019050611f765f830184611f54565b92915050565b611f8581611f43565b8114611f8f575f5ffd5b50565b5f81359050611fa081611f7c565b92915050565b5f5f60408385031215611fbc57611fbb611d7b565b5b5f611fc985828601611f92565b9250506020611fda85828601611ee5565b9150509250929050565b611fed81611ec6565b82525050565b5f6020820190506120065f830184611fe4565b92915050565b5f5f5f6060848603121561202357612022611d7b565b5b5f61203086828701611f92565b935050602061204186828701611f92565b925050604061205286828701611ee5565b9150509250925092565b5f819050919050565b5f61207f61207a61207584611f24565b61205c565b611f24565b9050919050565b5f61209082612065565b9050919050565b5f6120a182612086565b9050919050565b6120b181612097565b82525050565b5f6020820190506120ca5f8301846120a8565b92915050565b5f5ffd5b5f5ffd5b7f4e487b71000000000000000000000000000000000000000000000000000000005f52604160045260245ffd5b61210e82611e5e565b810181811067ffffffffffffffff8211171561212d5761212c6120d8565b5b80604052505050565b5f61213f611d72565b905061214b8282612105565b919050565b5f67ffffffffffffffff82111561216a576121696120d8565b5b61217382611e5e565b9050602081019050919050565b828183375f83830152505050565b5f6121a061219b84612150565b612136565b9050828152602081018484840111156121bc576121bb6120d4565b5b6121c7848285612180565b509392505050565b5f82601f8301126121e3576121e26120d0565b5b81356121f384826020860161218e565b91505092915050565b5f6020828403121561221157612210611d7b565b5b5f82013567ffffffffffffffff81111561222e5761222d611d7f565b5b61223a848285016121cf565b91505092915050565b5f6020828403121561225857612257611d7b565b5b5f61226584828501611f92565b91505092915050565b61227781611e03565b8114612281575f5ffd5b50565b5f813590506122928161226e565b92915050565b5f5f604083850312156122ae576122ad611d7b565b5b5f6122bb85828601611f92565b92505060206122cc85828601612284565b9150509250929050565b5f67ffffffffffffffff8211156122f0576122ef6120d8565b5b6122f982611e5e565b9050602081019050919050565b5f612318612313846122d6565b612136565b905082815260208101848484011115612334576123336120d4565b5b61233f848285612180565b509392505050565b5f82601f83011261235b5761235a6120d0565b5b813561236b848260208601612306565b91505092915050565b5f5f5f5f6080858703121561238c5761238b611d7b565b5b5f61239987828801611f92565b94505060206123aa87828801611f92565b93505060406123bb87828801611ee5565b925050606085013567ffffffffffffffff8111156123dc576123db611d7f565b5b6123e887828801612347565b91505092959194509250565b5f5f6040838503121561240a57612409611d7b565b5b5f61241785828601611f92565b925050602061242885828601611f92565b9150509250929050565b7f4e487b71000000000000000000000000000000000000000000000000000000005f52602260045260245ffd5b5f600282049050600182168061247657607f821691505b60208210810361248957612488612432565b5b50919050565b5f6060820190506124a25f830186611f54565b6124af6020830185611fe4565b6124bc6040830184611f54565b949350505050565b5f819050815f5260205f209050919050565b5f6020601f8301049050919050565b5f82821b905092915050565b5f600883026125207fffffffffffffffffffffffffffffffffffffffffffffffffffffffffffffffff826124e5565b61252a86836124e5565b95508019841693508086168417925050509392505050565b5f61255c61255761255284611ec6565b61205c565b611ec6565b9050919050565b5f819050919050565b61257583612542565b61258961258182612563565b8484546124f1565b825550505050565b5f5f905090565b6125a0612591565b6125ab81848461256c565b505050565b5b818110156125ce576125c35f82612598565b6001810190506125b1565b5050565b601f821115612613576125e4816124c4565b6125ed846124d6565b810160208510156125fc578190505b612610612608856124d6565b8301826125b0565b50505b505050565b5f82821c905092915050565b5f6126335f1984600802612618565b1980831691505092915050565b5f61264b8383612624565b9150826002028217905092915050565b61266482611e36565b67ffffffffffffffff81111561267d5761267c6120d8565b5b612687825461245f565b6126928282856125d2565b5f60209050601f8311600181146126c3575f84156126b1578287015190505b6126bb8582612640565b865550612722565b601f1984166126d1866124c4565b5f5b828110156126f8578489015182556001820191506020850194506020810190506126d3565b868310156127155784890151612711601f891682612624565b8355505b6001600288020188555050505b505050505050565b7f7174793d300000000000000000000000000000000000000000000000000000005f82015250565b5f61275e600583611e40565b91506127698261272a565b602082019050919050565b5f6020820190508181035f83015261278b81612752565b9050919050565b7f4e487b71000000000000000000000000000000000000000000000000000000005f52601160045260245ffd5b5f6127c982611ec6565b91506127d483611ec6565b92508282019050808211156127ec576127eb612792565b5b92915050565b7f736f6c64206f75740000000000000000000000000000000000000000000000005f82015250565b5f612826600883611e40565b9150612831826127f2565b602082019050919050565b5f6020820190508181035f8301526128538161281a565b9050919050565b5f61286482611ec6565b915061286f83611ec6565b925082820261287d81611ec6565b9150828204841483151761289457612893612792565b5b5092915050565b5f6060820190506128ae5f830186611f54565b6128bb6020830185611f54565b6128c86040830184611fe4565b949350505050565b5f815190506128de8161226e565b92915050565b5f602082840312156128f9576128f8611d7b565b5b5f612906848285016128d0565b91505092915050565b7f43424f207472616e73666572206661696c0000000000000000000000000000005f82015250565b5f612943601183611e40565b915061294e8261290f565b602082019050919050565b5f6020820190508181035f83015261297081612937565b9050919050565b5f61298182611ec6565b91507fffffffffffffffffffffffffffffffffffffffffffffffffffffffffffffffff82036129b3576129b2612792565b5b600182019050919050565b5f6040820190506129d15f830185611fe4565b6129de6020830184611fe4565b9392505050565b5f81905092915050565b5f81546129fb8161245f565b612a0581866129e5565b9450600182165f8114612a1f5760018114612a3457612a66565b60ff1983168652811515820286019350612a66565b612a3d856124c4565b5f5b83811015612a5e57815481890152600182019150602081019050612a3f565b838801955050505b50505092915050565b5f612a7982611e36565b612a8381856129e5565b9350612a93818560208601611e50565b80840191505092915050565b7f2e706e67000000000000000000000000000000000000000000000000000000005f82015250565b5f612ad36004836129e5565b9150612ade82612a9f565b600482019050919050565b5f612af482856129ef565b9150612b008284612a6f565b9150612b0b82612ac7565b91508190509392505050565b7f70726963653d30000000000000000000000000000000000000000000000000005f82015250565b5f612b4b600783611e40565b9150612b5682612b17565b602082019050919050565b5f6020820190508181035f830152612b7881612b3f565b9050919050565b7f74726561737572793d30000000000000000000000000000000000000000000005f82015250565b5f612bb3600a83611e40565b9150612bbe82612b7f565b602082019050919050565b5f6020820190508181035f830152612be081612ba7565b9050919050565b5f81519050919050565b5f82825260208201905092915050565b5f612c0b82612be7565b612c158185612bf1565b9350612c25818560208601611e50565b612c2e81611e5e565b840191505092915050565b5f608082019050612c4c5f830187611f54565b612c596020830186611f54565b612c666040830185611fe4565b8181036060830152612c788184612c01565b905095945050505050565b5f81519050612c9181611dae565b92915050565b5f60208284031215612cac57612cab611d7b565b5b5f612cb984828501612c83565b91505092915050565b7f4e487b71000000000000000000000000000000000000000000000000000000005f52601260045260245ffd5b5f604082019050612d025f830185611f54565b612d0f6020830184611fe4565b939250505056fea2646970667358221220025070e199aa05acb4383330ee60eb7ddce44e65cba70b6a4eb300fb2ac049dd64736f6c634300081e0033', \n     arguments: [\n          carbonoToken,\n          initialPriceInCBO,\n          _maxSupply,\n          baseURIInit,\n     ]\n}).send({\n     from: web3.eth.accounts[0], \n     gas: '4700000'\n   }, function (e, contract){\n    console.log(e, contract);\n    if (typeof contract.address !== 'undefined') {\n         console.log('Contract mined! address: ' + contract.address + ' transactionHash: ' + contract.transactionHash);\n    }\n })",
	"functionHashes": {
		"095ea7b3": "approve(address,uint256)",
		"70a08231": "balanceOf(address)",
		"33862d67": "carbono()",
		"081812fc": "getApproved(uint256)",
		"e985e9c5": "isApprovedForAll(address,address)",
		"d5abeb01": "maxSupply()",
		"a0712d68": "mint(uint256)",
		"06fdde03": "name()",
		"8da5cb5b": "owner()",
		"6352211e": "ownerOf(uint256)",
		"fb29ada6": "priceInCBO()",
		"715018a6": "renounceOwnership()",
		"42842e0e": "safeTransferFrom(address,address,uint256)",
		"b88d4fde": "safeTransferFrom(address,address,uint256,bytes)",
		"a22cb465": "setApprovalForAll(address,bool)",
		"55f804b3": "setBaseURI(string)",
		"ce0ed706": "setPriceInCBO(uint256)",
		"f0f44260": "setTreasury(address)",
		"01ffc9a7": "supportsInterface(bytes4)",
		"95d89b41": "symbol()",
		"c87b56dd": "tokenURI(uint256)",
		"18160ddd": "totalSupply()",
		"23b872dd": "transferFrom(address,address,uint256)",
		"f2fde38b": "transferOwnership(address)",
		"61d027b3": "treasury()"
	},
	"gasEstimates": {
		"Creation": {
			"codeDepositCost": "2319200",
			"executionCost": "infinite",
			"totalCost": "infinite"
		},
		"External": {
			"approve(address,uint256)": "infinite",
			"balanceOf(address)": "infinite",
			"carbono()": "infinite",
			"getApproved(uint256)": "infinite",
			"isApprovedForAll(address,address)": "infinite",
			"maxSupply()": "2514",
			"mint(uint256)": "infinite",
			"name()": "infinite",
			"owner()": "2560",
			"ownerOf(uint256)": "infinite",
			"priceInCBO()": "2535",
			"renounceOwnership()": "infinite",
			"safeTransferFrom(address,address,uint256)": "infinite",
			"safeTransferFrom(address,address,uint256,bytes)": "infinite",
			"setApprovalForAll(address,bool)": "infinite",
			"setBaseURI(string)": "infinite",
			"setPriceInCBO(uint256)": "infinite",
			"setTreasury(address)": "infinite",
			"supportsInterface(bytes4)": "787",
			"symbol()": "infinite",
			"tokenURI(uint256)": "infinite",
			"totalSupply()": "2537",
			"transferFrom(address,address,uint256)": "infinite",
			"transferOwnership(address)": "infinite",
			"treasury()": "2597"
		},
		"Internal": {
			"_baseURI()": "infinite"
		}
	},
	"devdoc": {
		"errors": {
			"ERC721IncorrectOwner(address,uint256,address)": [
				{
					"details": "Indicates an error related to the ownership over a particular token. Used in transfers.",
					"params": {
						"owner": "Address of the current owner of a token.",
						"sender": "Address whose tokens are being transferred.",
						"tokenId": "Identifier number of a token."
					}
				}
			],
			"ERC721InsufficientApproval(address,uint256)": [
				{
					"details": "Indicates a failure with the `operator`’s approval. Used in transfers.",
					"params": {
						"operator": "Address that may be allowed to operate on tokens without being their owner.",
						"tokenId": "Identifier number of a token."
					}
				}
			],
			"ERC721InvalidApprover(address)": [
				{
					"details": "Indicates a failure with the `approver` of a token to be approved. Used in approvals.",
					"params": {
						"approver": "Address initiating an approval operation."
					}
				}
			],
			"ERC721InvalidOperator(address)": [
				{
					"details": "Indicates a failure with the `operator` to be approved. Used in approvals.",
					"params": {
						"operator": "Address that may be allowed to operate on tokens without being their owner."
					}
				}
			],
			"ERC721InvalidOwner(address)": [
				{
					"details": "Indicates that an address can't be an owner. For example, `address(0)` is a forbidden owner in ERC-20. Used in balance queries.",
					"params": {
						"owner": "Address of the current owner of a token."
					}
				}
			],
			"ERC721InvalidReceiver(address)": [
				{
					"details": "Indicates a failure with the token `receiver`. Used in transfers.",
					"params": {
						"receiver": "Address to which tokens are being transferred."
					}
				}
			],
			"ERC721InvalidSender(address)": [
				{
					"details": "Indicates a failure with the token `sender`. Used in transfers.",
					"params": {
						"sender": "Address whose tokens are being transferred."
					}
				}
			],
			"ERC721NonexistentToken(uint256)": [
				{
					"details": "Indicates a `tokenId` whose `owner` is the zero address.",
					"params": {
						"tokenId": "Identifier number of a token."
					}
				}
			],
			"OwnableInvalidOwner(address)": [
				{
					"details": "The owner is not a valid owner account. (eg. `address(0)`)"
				}
			],
			"OwnableUnauthorizedAccount(address)": [
				{
					"details": "The caller account is not authorized to perform an operation."
				}
			]
		},
		"events": {
			"Approval(address,address,uint256)": {
				"details": "Emitted when `owner` enables `approved` to manage the `tokenId` token."
			},
			"ApprovalForAll(address,address,bool)": {
				"details": "Emitted when `owner` enables or disables (`approved`) `operator` to manage all of its assets."
			},
			"Transfer(address,address,uint256)": {
				"details": "Emitted when `tokenId` token is transferred from `from` to `to`."
			}
		},
		"kind": "dev",
		"methods": {
			"approve(address,uint256)": {
				"details": "Gives permission to `to` to transfer `tokenId` token to another account. The approval is cleared when the token is transferred. Only a single account can be approved at a time, so approving the zero address clears previous approvals. Requirements: - The caller must own the token or be an approved operator. - `tokenId` must exist. Emits an {Approval} event."
			},
			"balanceOf(address)": {
				"details": "Returns the number of tokens in ``owner``'s account."
			},
			"getApproved(uint256)": {
				"details": "Returns the account approved for `tokenId` token. Requirements: - `tokenId` must exist."
			},
			"isApprovedForAll(address,address)": {
				"details": "Returns if the `operator` is allowed to manage all of the assets of `owner`. See {setApprovalForAll}"
			},
			"name()": {
				"details": "Returns the token collection name."
			},
			"owner()": {
				"details": "Returns the address of the current owner."
			},
			"ownerOf(uint256)": {
				"details": "Returns the owner of the `tokenId` token. Requirements: - `tokenId` must exist."
			},
			"renounceOwnership()": {
				"details": "Leaves the contract without owner. It will not be possible to call `onlyOwner` functions. Can only be called by the current owner. NOTE: Renouncing ownership will leave the contract without an owner, thereby disabling any functionality that is only available to the owner."
			},
			"safeTransferFrom(address,address,uint256)": {
				"details": "Safely transfers `tokenId` token from `from` to `to`, checking first that contract recipients are aware of the ERC-721 protocol to prevent tokens from being forever locked. Requirements: - `from` cannot be the zero address. - `to` cannot be the zero address. - `tokenId` token must exist and be owned by `from`. - If the caller is not `from`, it must have been allowed to move this token by either {approve} or   {setApprovalForAll}. - If `to` refers to a smart contract, it must implement {IERC721Receiver-onERC721Received}, which is called upon   a safe transfer. Emits a {Transfer} event."
			},
			"safeTransferFrom(address,address,uint256,bytes)": {
				"details": "Safely transfers `tokenId` token from `from` to `to`. Requirements: - `from` cannot be the zero address. - `to` cannot be the zero address. - `tokenId` token must exist and be owned by `from`. - If the caller is not `from`, it must be approved to move this token by either {approve} or {setApprovalForAll}. - If `to` refers to a smart contract, it must implement {IERC721Receiver-onERC721Received}, which is called upon   a safe transfer. Emits a {Transfer} event."
			},
			"setApprovalForAll(address,bool)": {
				"details": "Approve or remove `operator` as an operator for the caller. Operators can call {transferFrom} or {safeTransferFrom} for any token owned by the caller. Requirements: - The `operator` cannot be the address zero. Emits an {ApprovalForAll} event."
			},
			"supportsInterface(bytes4)": {
				"details": "Returns true if this contract implements the interface defined by `interfaceId`. See the corresponding https://eips.ethereum.org/EIPS/eip-165#how-interfaces-are-identified[ERC section] to learn more about how these ids are created. This function call must use less than 30 000 gas."
			},
			"symbol()": {
				"details": "Returns the token collection symbol."
			},
			"tokenURI(uint256)": {
				"details": "Returns the Uniform Resource Identifier (URI) for `tokenId` token."
			},
			"transferFrom(address,address,uint256)": {
				"details": "Transfers `tokenId` token from `from` to `to`. WARNING: Note that the caller is responsible to confirm that the recipient is capable of receiving ERC-721 or else they may be permanently lost. Usage of {safeTransferFrom} prevents loss, though the caller must understand this adds an external call which potentially creates a reentrancy vulnerability. Requirements: - `from` cannot be the zero address. - `to` cannot be the zero address. - `tokenId` token must be owned by `from`. - If the caller is not `from`, it must be approved to move this token by either {approve} or {setApprovalForAll}. Emits a {Transfer} event."
			},
			"transferOwnership(address)": {
				"details": "Transfers ownership of the contract to a new account (`newOwner`). Can only be called by the current owner."
			}
		},
		"title": "Experience721 (EXP)",
		"version": 1
	},
	"userdoc": {
		"kind": "user",
		"methods": {
			"mint(uint256)": {
				"notice": "Compra/mint de NFTs pagando en CBO (requiere allowance previo)."
			}
		},
		"notice": "NFT que se compra con CBO (Carbono).         Cada NFT apunta directamente a una imagen en IPFS:         tokenURI(id) = baseURI + id + \".png\"",
		"version": 1
	},
	"Runtime Bytecode": {
		"immutableReferences": {
			"6627": [
				{
					"length": 32,
					"start": 1871
				},
				{
					"length": 32,
					"start": 2625
				}
			]
		},
		"linkReferences": {},
		"object": "608060405234801561000f575f5ffd5b5060043610610171575f3560e01c8063715018a6116100dc578063c87b56dd11610095578063e985e9c51161006f578063e985e9c514610421578063f0f4426014610451578063f2fde38b1461046d578063fb29ada61461048957610171565b8063c87b56dd146103b7578063ce0ed706146103e7578063d5abeb011461040357610171565b8063715018a61461031d5780638da5cb5b1461032757806395d89b4114610345578063a0712d6814610363578063a22cb4651461037f578063b88d4fde1461039b57610171565b806333862d671161012e57806333862d671461024957806342842e0e1461026757806355f804b31461028357806361d027b31461029f5780636352211e146102bd57806370a08231146102ed57610171565b806301ffc9a71461017557806306fdde03146101a5578063081812fc146101c3578063095ea7b3146101f357806318160ddd1461020f57806323b872dd1461022d575b5f5ffd5b61018f600480360381019061018a9190611dd8565b6104a7565b60405161019c9190611e1d565b60405180910390f35b6101ad610588565b6040516101ba9190611ea6565b60405180910390f35b6101dd60048036038101906101d89190611ef9565b610617565b6040516101ea9190611f63565b60405180910390f35b61020d60048036038101906102089190611fa6565b610632565b005b610217610648565b6040516102249190611ff3565b60405180910390f35b6102476004803603810190610242919061200c565b61064e565b005b61025161074d565b60405161025e91906120b7565b60405180910390f35b610281600480360381019061027c919061200c565b610771565b005b61029d600480360381019061029891906121fc565b610790565b005b6102a76107e2565b6040516102b49190611f63565b60405180910390f35b6102d760048036038101906102d29190611ef9565b610807565b6040516102e49190611f63565b60405180910390f35b61030760048036038101906103029190612243565b610818565b6040516103149190611ff3565b60405180910390f35b6103256108ce565b005b61032f6108e1565b60405161033c9190611f63565b60405180910390f35b61034d610909565b60405161035a9190611ea6565b60405180910390f35b61037d60048036038101906103789190611ef9565b610999565b005b61039960048036038101906103949190612298565b610bec565b005b6103b560048036038101906103b09190612374565b610c02565b005b6103d160048036038101906103cc9190611ef9565b610c27565b6040516103de9190611ea6565b60405180910390f35b61040160048036038101906103fc9190611ef9565b610c65565b005b61040b610cf0565b6040516104189190611ff3565b60405180910390f35b61043b600480360381019061043691906123f4565b610cf6565b6040516104489190611e1d565b60405180910390f35b61046b60048036038101906104669190612243565b610d84565b005b61048760048036038101906104829190612243565b610e74565b005b610491610ef8565b60405161049e9190611ff3565b60405180910390f35b5f7f80ac58cd000000000000000000000000000000000000000000000000000000007bffffffffffffffffffffffffffffffffffffffffffffffffffffffff1916827bffffffffffffffffffffffffffffffffffffffffffffffffffffffff1916148061057157507f5b5e139f000000000000000000000000000000000000000000000000000000007bffffffffffffffffffffffffffffffffffffffffffffffffffffffff1916827bffffffffffffffffffffffffffffffffffffffffffffffffffffffff1916145b80610581575061058082610efe565b5b9050919050565b60605f80546105969061245f565b80601f01602080910402602001604051908101604052809291908181526020018280546105c29061245f565b801561060d5780601f106105e45761010080835404028352916020019161060d565b820191905f5260205f20905b8154815290600101906020018083116105f057829003601f168201915b5050505050905090565b5f61062182610f67565b5061062b82610fed565b9050919050565b610644828261063f611026565b61102d565b5050565b600a5481565b5f73ffffffffffffffffffffffffffffffffffffffff168273ffffffffffffffffffffffffffffffffffffffff16036106be575f6040517f64a0ae920000000000000000000000000000000000000000000000000000000081526004016106b59190611f63565b60405180910390fd5b5f6106d183836106cc611026565b61103f565b90508373ffffffffffffffffffffffffffffffffffffffff168173ffffffffffffffffffffffffffffffffffffffff1614610747578382826040517f64283d7b00000000000000000000000000000000000000000000000000000000815260040161073e9392919061248f565b60405180910390fd5b50505050565b7f000000000000000000000000000000000000000000000000000000000000000081565b61078b83838360405180602001604052805f815250610c02565b505050565b61079861124a565b80600b90816107a7919061265b565b507f5411e8ebf1636d9e83d5fc4900bf80cbac82e8790da2a4c94db4895e889eedf6816040516107d79190611ea6565b60405180910390a150565b60075f9054906101000a900473ffffffffffffffffffffffffffffffffffffffff1681565b5f61081182610f67565b9050919050565b5f5f73ffffffffffffffffffffffffffffffffffffffff168273ffffffffffffffffffffffffffffffffffffffff1603610889575f6040517f89c62b640000000000000000000000000000000000000000000000000000000081526004016108809190611f63565b60405180910390fd5b60035f8373ffffffffffffffffffffffffffffffffffffffff1673ffffffffffffffffffffffffffffffffffffffff1681526020019081526020015f20549050919050565b6108d661124a565b6108df5f6112d1565b565b5f60065f9054906101000a900473ffffffffffffffffffffffffffffffffffffffff16905090565b6060600180546109189061245f565b80601f01602080910402602001604051908101604052809291908181526020018280546109449061245f565b801561098f5780601f106109665761010080835404028352916020019161098f565b820191905f5260205f20905b81548152906001019060200180831161097257829003601f168201915b5050505050905090565b5f81116109db576040517f08c379a00000000000000000000000000000000000000000000000000000000081526004016109d290612774565b60405180910390fd5b60095481600a546109ec91906127bf565b1115610a2d576040517f08c379a0000000000000000000000000000000000000000000000000000000008152600401610a249061283c565b60405180910390fd5b5f81600854610a3c919061285a565b90505f7f000000000000000000000000000000000000000000000000000000000000000073ffffffffffffffffffffffffffffffffffffffff166323b872dd3360075f9054906101000a900473ffffffffffffffffffffffffffffffffffffffff16856040518463ffffffff1660e01b8152600401610abd9392919061289b565b6020604051808303815f875af1158015610ad9573d5f5f3e3d5ffd5b505050506040513d601f19601f82011682018060405250810190610afd91906128e4565b905080610b3f576040517f08c379a0000000000000000000000000000000000000000000000000000000008152600401610b3690612959565b60405180910390fd5b5f5f90505b83811015610b96575f600c5f815480929190610b5f90612977565b9190505590506001600a5f828254610b7791906127bf565b92505081905550610b883382611394565b508080600101915050610b44565b503373ffffffffffffffffffffffffffffffffffffffff167f25b428dfde728ccfaddad7e29e4ac23c24ed7fd1a6e3e3f91894a9a073f5dfff8484604051610bdf9291906129be565b60405180910390a2505050565b610bfe610bf7611026565b83836113b1565b5050565b610c0d84848461064e565b610c21610c18611026565b8585858561151a565b50505050565b6060610c3282610807565b50600b610c3e836116c6565b604051602001610c4f929190612ae9565b6040516020818303038152906040529050919050565b610c6d61124a565b5f8111610caf576040517f08c379a0000000000000000000000000000000000000000000000000000000008152600401610ca690612b61565b60405180910390fd5b806008819055507fa6dc15bdb68da224c66db4b3838d9a2b205138e8cff6774e57d0af91e196d62281604051610ce59190611ff3565b60405180910390a150565b60095481565b5f60055f8473ffffffffffffffffffffffffffffffffffffffff1673ffffffffffffffffffffffffffffffffffffffff1681526020019081526020015f205f8373ffffffffffffffffffffffffffffffffffffffff1673ffffffffffffffffffffffffffffffffffffffff1681526020019081526020015f205f9054906101000a900460ff16905092915050565b610d8c61124a565b5f73ffffffffffffffffffffffffffffffffffffffff168173ffffffffffffffffffffffffffffffffffffffff1603610dfa576040517f08c379a0000000000000000000000000000000000000000000000000000000008152600401610df190612bc9565b60405180910390fd5b8060075f6101000a81548173ffffffffffffffffffffffffffffffffffffffff021916908373ffffffffffffffffffffffffffffffffffffffff1602179055507fc714d22a2f08b695f81e7c707058db484aa5b4d6b4c9fd64beb10fe85832f60881604051610e699190611f63565b60405180910390a150565b610e7c61124a565b5f73ffffffffffffffffffffffffffffffffffffffff168173ffffffffffffffffffffffffffffffffffffffff1603610eec575f6040517f1e4fbdf7000000000000000000000000000000000000000000000000000000008152600401610ee39190611f63565b60405180910390fd5b610ef5816112d1565b50565b60085481565b5f7f01ffc9a7000000000000000000000000000000000000000000000000000000007bffffffffffffffffffffffffffffffffffffffffffffffffffffffff1916827bffffffffffffffffffffffffffffffffffffffffffffffffffffffff1916149050919050565b5f5f610f7283611790565b90505f73ffffffffffffffffffffffffffffffffffffffff168173ffffffffffffffffffffffffffffffffffffffff1603610fe457826040517f7e273289000000000000000000000000000000000000000000000000000000008152600401610fdb9190611ff3565b60405180910390fd5b80915050919050565b5f60045f8381526020019081526020015f205f9054906101000a900473ffffffffffffffffffffffffffffffffffffffff169050919050565b5f33905090565b61103a83838360016117c9565b505050565b5f5f61104a84611790565b90505f73ffffffffffffffffffffffffffffffffffffffff168373ffffffffffffffffffffffffffffffffffffffff161461108b5761108a818486611988565b5b5f73ffffffffffffffffffffffffffffffffffffffff168173ffffffffffffffffffffffffffffffffffffffff1614611116576110ca5f855f5f6117c9565b600160035f8373ffffffffffffffffffffffffffffffffffffffff1673ffffffffffffffffffffffffffffffffffffffff1681526020019081526020015f205f82825403925050819055505b5f73ffffffffffffffffffffffffffffffffffffffff168573ffffffffffffffffffffffffffffffffffffffff161461119557600160035f8773ffffffffffffffffffffffffffffffffffffffff1673ffffffffffffffffffffffffffffffffffffffff1681526020019081526020015f205f82825401925050819055505b8460025f8681526020019081526020015f205f6101000a81548173ffffffffffffffffffffffffffffffffffffffff021916908373ffffffffffffffffffffffffffffffffffffffff160217905550838573ffffffffffffffffffffffffffffffffffffffff168273ffffffffffffffffffffffffffffffffffffffff167fddf252ad1be2c89b69c2b068fc378daa952ba7f163c4a11628f55a4df523b3ef60405160405180910390a4809150509392505050565b611252611026565b73ffffffffffffffffffffffffffffffffffffffff166112706108e1565b73ffffffffffffffffffffffffffffffffffffffff16146112cf57611293611026565b6040517f118cdaa70000000000000000000000000000000000000000000000000000000081526004016112c69190611f63565b60405180910390fd5b565b5f60065f9054906101000a900473ffffffffffffffffffffffffffffffffffffffff1690508160065f6101000a81548173ffffffffffffffffffffffffffffffffffffffff021916908373ffffffffffffffffffffffffffffffffffffffff1602179055508173ffffffffffffffffffffffffffffffffffffffff168173ffffffffffffffffffffffffffffffffffffffff167f8be0079c531659141344cd1fd0a4f28419497f9722a3daafe3b4186f6b6457e060405160405180910390a35050565b6113ad828260405180602001604052805f815250611a4b565b5050565b5f73ffffffffffffffffffffffffffffffffffffffff168273ffffffffffffffffffffffffffffffffffffffff160361142157816040517f5b08ba180000000000000000000000000000000000000000000000000000000081526004016114189190611f63565b60405180910390fd5b8060055f8573ffffffffffffffffffffffffffffffffffffffff1673ffffffffffffffffffffffffffffffffffffffff1681526020019081526020015f205f8473ffffffffffffffffffffffffffffffffffffffff1673ffffffffffffffffffffffffffffffffffffffff1681526020019081526020015f205f6101000a81548160ff0219169083151502179055508173ffffffffffffffffffffffffffffffffffffffff168373ffffffffffffffffffffffffffffffffffffffff167f17307eab39ab6107e8899845ad3d59bd9653f200f220920489ca2b5937696c318360405161150d9190611e1d565b60405180910390a3505050565b5f8373ffffffffffffffffffffffffffffffffffffffff163b11156116bf578273ffffffffffffffffffffffffffffffffffffffff1663150b7a02868685856040518563ffffffff1660e01b81526004016115789493929190612c39565b6020604051808303815f875af19250505080156115b357506040513d601f19601f820116820180604052508101906115b09190612c97565b60015b611634573d805f81146115e1576040519150601f19603f3d011682016040523d82523d5f602084013e6115e6565b606091505b505f81510361162c57836040517f64a0ae920000000000000000000000000000000000000000000000000000000081526004016116239190611f63565b60405180910390fd5b805160208201fd5b63150b7a0260e01b7bffffffffffffffffffffffffffffffffffffffffffffffffffffffff1916817bffffffffffffffffffffffffffffffffffffffffffffffffffffffff1916146116bd57836040517f64a0ae920000000000000000000000000000000000000000000000000000000081526004016116b49190611f63565b60405180910390fd5b505b5050505050565b60605f60016116d484611a6e565b0190505f8167ffffffffffffffff8111156116f2576116f16120d8565b5b6040519080825280601f01601f1916602001820160405280156117245781602001600182028036833780820191505090505b5090505f82602083010190505b600115611785578080600190039150507f3031323334353637383961626364656600000000000000000000000000000000600a86061a8153600a858161177a57611779612cc2565b5b0494505f8503611731575b819350505050919050565b5f60025f8381526020019081526020015f205f9054906101000a900473ffffffffffffffffffffffffffffffffffffffff169050919050565b808061180157505f73ffffffffffffffffffffffffffffffffffffffff168273ffffffffffffffffffffffffffffffffffffffff1614155b15611933575f61181084610f67565b90505f73ffffffffffffffffffffffffffffffffffffffff168373ffffffffffffffffffffffffffffffffffffffff161415801561187a57508273ffffffffffffffffffffffffffffffffffffffff168173ffffffffffffffffffffffffffffffffffffffff1614155b801561188d575061188b8184610cf6565b155b156118cf57826040517fa9fbf51f0000000000000000000000000000000000000000000000000000000081526004016118c69190611f63565b60405180910390fd5b811561193157838573ffffffffffffffffffffffffffffffffffffffff168273ffffffffffffffffffffffffffffffffffffffff167f8c5be1e5ebec7d5bd14f71427d1e84f3dd0314c0f7b2291e5b200ac8c7c3b92560405160405180910390a45b505b8360045f8581526020019081526020015f205f6101000a81548173ffffffffffffffffffffffffffffffffffffffff021916908373ffffffffffffffffffffffffffffffffffffffff16021790555050505050565b611993838383611bbf565b611a46575f73ffffffffffffffffffffffffffffffffffffffff168373ffffffffffffffffffffffffffffffffffffffff1603611a0757806040517f7e2732890000000000000000000000000000000000000000000000000000000081526004016119fe9190611ff3565b60405180910390fd5b81816040517f177e802f000000000000000000000000000000000000000000000000000000008152600401611a3d929190612cef565b60405180910390fd5b505050565b611a558383611c7f565b611a69611a60611026565b5f85858561151a565b505050565b5f5f5f90507a184f03e93ff9f4daa797ed6e38ed64bf6a1f0100000000000000008310611aca577a184f03e93ff9f4daa797ed6e38ed64bf6a1f0100000000000000008381611ac057611abf612cc2565b5b0492506040810190505b6d04ee2d6d415b85acef81000000008310611b07576d04ee2d6d415b85acef81000000008381611afd57611afc612cc2565b5b0492506020810190505b662386f26fc100008310611b3657662386f26fc100008381611b2c57611b2b612cc2565b5b0492506010810190505b6305f5e1008310611b5f576305f5e1008381611b5557611b54612cc2565b5b0492506008810190505b6127108310611b84576127108381611b7a57611b79612cc2565b5b0492506004810190505b60648310611ba75760648381611b9d57611b9c612cc2565b5b0492506002810190505b600a8310611bb6576001810190505b80915050919050565b5f5f73ffffffffffffffffffffffffffffffffffffffff168373ffffffffffffffffffffffffffffffffffffffff1614158015611c7657508273ffffffffffffffffffffffffffffffffffffffff168473ffffffffffffffffffffffffffffffffffffffff161480611c375750611c368484610cf6565b5b80611c7557508273ffffffffffffffffffffffffffffffffffffffff16611c5d83610fed565b73ffffffffffffffffffffffffffffffffffffffff16145b5b90509392505050565b5f73ffffffffffffffffffffffffffffffffffffffff168273ffffffffffffffffffffffffffffffffffffffff1603611cef575f6040517f64a0ae92000000000000000000000000000000000000000000000000000000008152600401611ce69190611f63565b60405180910390fd5b5f611cfb83835f61103f565b90505f73ffffffffffffffffffffffffffffffffffffffff168173ffffffffffffffffffffffffffffffffffffffff1614611d6d575f6040517f73c6ac6e000000000000000000000000000000000000000000000000000000008152600401611d649190611f63565b60405180910390fd5b505050565b5f604051905090565b5f5ffd5b5f5ffd5b5f7fffffffff0000000000000000000000000000000000000000000000000000000082169050919050565b611db781611d83565b8114611dc1575f5ffd5b50565b5f81359050611dd281611dae565b92915050565b5f60208284031215611ded57611dec611d7b565b5b5f611dfa84828501611dc4565b91505092915050565b5f8115159050919050565b611e1781611e03565b82525050565b5f602082019050611e305f830184611e0e565b92915050565b5f81519050919050565b5f82825260208201905092915050565b8281835e5f83830152505050565b5f601f19601f8301169050919050565b5f611e7882611e36565b611e828185611e40565b9350611e92818560208601611e50565b611e9b81611e5e565b840191505092915050565b5f6020820190508181035f830152611ebe8184611e6e565b905092915050565b5f819050919050565b611ed881611ec6565b8114611ee2575f5ffd5b50565b5f81359050611ef381611ecf565b92915050565b5f60208284031215611f0e57611f0d611d7b565b5b5f611f1b84828501611ee5565b91505092915050565b5f73ffffffffffffffffffffffffffffffffffffffff82169050919050565b5f611f4d82611f24565b9050919050565b611f5d81611f43565b82525050565b5f602082019050611f765f830184611f54565b92915050565b611f8581611f43565b8114611f8f575f5ffd5b50565b5f81359050611fa081611f7c565b92915050565b5f5f60408385031215611fbc57611fbb611d7b565b5b5f611fc985828601611f92565b9250506020611fda85828601611ee5565b9150509250929050565b611fed81611ec6565b82525050565b5f6020820190506120065f830184611fe4565b92915050565b5f5f5f6060848603121561202357612022611d7b565b5b5f61203086828701611f92565b935050602061204186828701611f92565b925050604061205286828701611ee5565b9150509250925092565b5f819050919050565b5f61207f61207a61207584611f24565b61205c565b611f24565b9050919050565b5f61209082612065565b9050919050565b5f6120a182612086565b9050919050565b6120b181612097565b82525050565b5f6020820190506120ca5f8301846120a8565b92915050565b5f5ffd5b5f5ffd5b7f4e487b71000000000000000000000000000000000000000000000000000000005f52604160045260245ffd5b61210e82611e5e565b810181811067ffffffffffffffff8211171561212d5761212c6120d8565b5b80604052505050565b5f61213f611d72565b905061214b8282612105565b919050565b5f67ffffffffffffffff82111561216a576121696120d8565b5b61217382611e5e565b9050602081019050919050565b828183375f83830152505050565b5f6121a061219b84612150565b612136565b9050828152602081018484840111156121bc576121bb6120d4565b5b6121c7848285612180565b509392505050565b5f82601f8301126121e3576121e26120d0565b5b81356121f384826020860161218e565b91505092915050565b5f6020828403121561221157612210611d7b565b5b5f82013567ffffffffffffffff81111561222e5761222d611d7f565b5b61223a848285016121cf565b91505092915050565b5f6020828403121561225857612257611d7b565b5b5f61226584828501611f92565b91505092915050565b61227781611e03565b8114612281575f5ffd5b50565b5f813590506122928161226e565b92915050565b5f5f604083850312156122ae576122ad611d7b565b5b5f6122bb85828601611f92565b92505060206122cc85828601612284565b9150509250929050565b5f67ffffffffffffffff8211156122f0576122ef6120d8565b5b6122f982611e5e565b9050602081019050919050565b5f612318612313846122d6565b612136565b905082815260208101848484011115612334576123336120d4565b5b61233f848285612180565b509392505050565b5f82601f83011261235b5761235a6120d0565b5b813561236b848260208601612306565b91505092915050565b5f5f5f5f6080858703121561238c5761238b611d7b565b5b5f61239987828801611f92565b94505060206123aa87828801611f92565b93505060406123bb87828801611ee5565b925050606085013567ffffffffffffffff8111156123dc576123db611d7f565b5b6123e887828801612347565b91505092959194509250565b5f5f6040838503121561240a57612409611d7b565b5b5f61241785828601611f92565b925050602061242885828601611f92565b9150509250929050565b7f4e487b71000000000000000000000000000000000000000000000000000000005f52602260045260245ffd5b5f600282049050600182168061247657607f821691505b60208210810361248957612488612432565b5b50919050565b5f6060820190506124a25f830186611f54565b6124af6020830185611fe4565b6124bc6040830184611f54565b949350505050565b5f819050815f5260205f209050919050565b5f6020601f8301049050919050565b5f82821b905092915050565b5f600883026125207fffffffffffffffffffffffffffffffffffffffffffffffffffffffffffffffff826124e5565b61252a86836124e5565b95508019841693508086168417925050509392505050565b5f61255c61255761255284611ec6565b61205c565b611ec6565b9050919050565b5f819050919050565b61257583612542565b61258961258182612563565b8484546124f1565b825550505050565b5f5f905090565b6125a0612591565b6125ab81848461256c565b505050565b5b818110156125ce576125c35f82612598565b6001810190506125b1565b5050565b601f821115612613576125e4816124c4565b6125ed846124d6565b810160208510156125fc578190505b612610612608856124d6565b8301826125b0565b50505b505050565b5f82821c905092915050565b5f6126335f1984600802612618565b1980831691505092915050565b5f61264b8383612624565b9150826002028217905092915050565b61266482611e36565b67ffffffffffffffff81111561267d5761267c6120d8565b5b612687825461245f565b6126928282856125d2565b5f60209050601f8311600181146126c3575f84156126b1578287015190505b6126bb8582612640565b865550612722565b601f1984166126d1866124c4565b5f5b828110156126f8578489015182556001820191506020850194506020810190506126d3565b868310156127155784890151612711601f891682612624565b8355505b6001600288020188555050505b505050505050565b7f7174793d300000000000000000000000000000000000000000000000000000005f82015250565b5f61275e600583611e40565b91506127698261272a565b602082019050919050565b5f6020820190508181035f83015261278b81612752565b9050919050565b7f4e487b71000000000000000000000000000000000000000000000000000000005f52601160045260245ffd5b5f6127c982611ec6565b91506127d483611ec6565b92508282019050808211156127ec576127eb612792565b5b92915050565b7f736f6c64206f75740000000000000000000000000000000000000000000000005f82015250565b5f612826600883611e40565b9150612831826127f2565b602082019050919050565b5f6020820190508181035f8301526128538161281a565b9050919050565b5f61286482611ec6565b915061286f83611ec6565b925082820261287d81611ec6565b9150828204841483151761289457612893612792565b5b5092915050565b5f6060820190506128ae5f830186611f54565b6128bb6020830185611f54565b6128c86040830184611fe4565b949350505050565b5f815190506128de8161226e565b92915050565b5f602082840312156128f9576128f8611d7b565b5b5f612906848285016128d0565b91505092915050565b7f43424f207472616e73666572206661696c0000000000000000000000000000005f82015250565b5f612943601183611e40565b915061294e8261290f565b602082019050919050565b5f6020820190508181035f83015261297081612937565b9050919050565b5f61298182611ec6565b91507fffffffffffffffffffffffffffffffffffffffffffffffffffffffffffffffff82036129b3576129b2612792565b5b600182019050919050565b5f6040820190506129d15f830185611fe4565b6129de6020830184611fe4565b9392505050565b5f81905092915050565b5f81546129fb8161245f565b612a0581866129e5565b9450600182165f8114612a1f5760018114612a3457612a66565b60ff1983168652811515820286019350612a66565b612a3d856124c4565b5f5b83811015612a5e57815481890152600182019150602081019050612a3f565b838801955050505b50505092915050565b5f612a7982611e36565b612a8381856129e5565b9350612a93818560208601611e50565b80840191505092915050565b7f2e706e67000000000000000000000000000000000000000000000000000000005f82015250565b5f612ad36004836129e5565b9150612ade82612a9f565b600482019050919050565b5f612af482856129ef565b9150612b008284612a6f565b9150612b0b82612ac7565b91508190509392505050565b7f70726963653d30000000000000000000000000000000000000000000000000005f82015250565b5f612b4b600783611e40565b9150612b5682612b17565b602082019050919050565b5f6020820190508181035f830152612b7881612b3f565b9050919050565b7f74726561737572793d30000000000000000000000000000000000000000000005f82015250565b5f612bb3600a83611e40565b9150612bbe82612b7f565b602082019050919050565b5f6020820190508181035f830152612be081612ba7565b9050919050565b5f81519050919050565b5f82825260208201905092915050565b5f612c0b82612be7565b612c158185612bf1565b9350612c25818560208601611e50565b612c2e81611e5e565b840191505092915050565b5f608082019050612c4c5f830187611f54565b612c596020830186611f54565b612c666040830185611fe4565b8181036060830152612c788184612c01565b905095945050505050565b5f81519050612c9181611dae565b92915050565b5f60208284031215612cac57612cab611d7b565b5b5f612cb984828501612c83565b91505092915050565b7f4e487b71000000000000000000000000000000000000000000000000000000005f52601260045260245ffd5b5f604082019050612d025f830185611f54565b612d0f6020830184611fe4565b939250505056fea2646970667358221220025070e199aa05acb4383330ee60eb7ddce44e65cba70b6a4eb300fb2ac049dd64736f6c634300081e0033",
		"opcodes": "PUSH1 0x80 PUSH1 0x40 MSTORE CALLVALUE DUP1 ISZERO PUSH2 0xF JUMPI PUSH0 PUSH0 REVERT JUMPDEST POP PUSH1 0x4 CALLDATASIZE LT PUSH2 0x171 JUMPI PUSH0 CALLDATALOAD PUSH1 0xE0 SHR DUP1 PUSH4 0x715018A6 GT PUSH2 0xDC JUMPI DUP1 PUSH4 0xC87B56DD GT PUSH2 0x95 JUMPI DUP1 PUSH4 0xE985E9C5 GT PUSH2 0x6F JUMPI DUP1 PUSH4 0xE985E9C5 EQ PUSH2 0x421 JUMPI DUP1 PUSH4 0xF0F44260 EQ PUSH2 0x451 JUMPI DUP1 PUSH4 0xF2FDE38B EQ PUSH2 0x46D JUMPI DUP1 PUSH4 0xFB29ADA6 EQ PUSH2 0x489 JUMPI PUSH2 0x171 JUMP JUMPDEST DUP1 PUSH4 0xC87B56DD EQ PUSH2 0x3B7 JUMPI DUP1 PUSH4 0xCE0ED706 EQ PUSH2 0x3E7 JUMPI DUP1 PUSH4 0xD5ABEB01 EQ PUSH2 0x403 JUMPI PUSH2 0x171 JUMP JUMPDEST DUP1 PUSH4 0x715018A6 EQ PUSH2 0x31D JUMPI DUP1 PUSH4 0x8DA5CB5B EQ PUSH2 0x327 JUMPI DUP1 PUSH4 0x95D89B41 EQ PUSH2 0x345 JUMPI DUP1 PUSH4 0xA0712D68 EQ PUSH2 0x363 JUMPI DUP1 PUSH4 0xA22CB465 EQ PUSH2 0x37F JUMPI DUP1 PUSH4 0xB88D4FDE EQ PUSH2 0x39B JUMPI PUSH2 0x171 JUMP JUMPDEST DUP1 PUSH4 0x33862D67 GT PUSH2 0x12E JUMPI DUP1 PUSH4 0x33862D67 EQ PUSH2 0x249 JUMPI DUP1 PUSH4 0x42842E0E EQ PUSH2 0x267 JUMPI DUP1 PUSH4 0x55F804B3 EQ PUSH2 0x283 JUMPI DUP1 PUSH4 0x61D027B3 EQ PUSH2 0x29F JUMPI DUP1 PUSH4 0x6352211E EQ PUSH2 0x2BD JUMPI DUP1 PUSH4 0x70A08231 EQ PUSH2 0x2ED JUMPI PUSH2 0x171 JUMP JUMPDEST DUP1 PUSH4 0x1FFC9A7 EQ PUSH2 0x175 JUMPI DUP1 PUSH4 0x6FDDE03 EQ PUSH2 0x1A5 JUMPI DUP1 PUSH4 0x81812FC EQ PUSH2 0x1C3 JUMPI DUP1 PUSH4 0x95EA7B3 EQ PUSH2 0x1F3 JUMPI DUP1 PUSH4 0x18160DDD EQ PUSH2 0x20F JUMPI DUP1 PUSH4 0x23B872DD EQ PUSH2 0x22D JUMPI JUMPDEST PUSH0 PUSH0 REVERT JUMPDEST PUSH2 0x18F PUSH1 0x4 DUP1 CALLDATASIZE SUB DUP2 ADD SWAP1 PUSH2 0x18A SWAP2 SWAP1 PUSH2 0x1DD8 JUMP JUMPDEST PUSH2 0x4A7 JUMP JUMPDEST PUSH1 0x40 MLOAD PUSH2 0x19C SWAP2 SWAP1 PUSH2 0x1E1D JUMP JUMPDEST PUSH1 0x40 MLOAD DUP1 SWAP2 SUB SWAP1 RETURN JUMPDEST PUSH2 0x1AD PUSH2 0x588 JUMP JUMPDEST PUSH1 0x40 MLOAD PUSH2 0x1BA SWAP2 SWAP1 PUSH2 0x1EA6 JUMP JUMPDEST PUSH1 0x40 MLOAD DUP1 SWAP2 SUB SWAP1 RETURN JUMPDEST PUSH2 0x1DD PUSH1 0x4 DUP1 CALLDATASIZE SUB DUP2 ADD SWAP1 PUSH2 0x1D8 SWAP2 SWAP1 PUSH2 0x1EF9 JUMP JUMPDEST PUSH2 0x617 JUMP JUMPDEST PUSH1 0x40 MLOAD PUSH2 0x1EA SWAP2 SWAP1 PUSH2 0x1F63 JUMP JUMPDEST PUSH1 0x40 MLOAD DUP1 SWAP2 SUB SWAP1 RETURN JUMPDEST PUSH2 0x20D PUSH1 0x4 DUP1 CALLDATASIZE SUB DUP2 ADD SWAP1 PUSH2 0x208 SWAP2 SWAP1 PUSH2 0x1FA6 JUMP JUMPDEST PUSH2 0x632 JUMP JUMPDEST STOP JUMPDEST PUSH2 0x217 PUSH2 0x648 JUMP JUMPDEST PUSH1 0x40 MLOAD PUSH2 0x224 SWAP2 SWAP1 PUSH2 0x1FF3 JUMP JUMPDEST PUSH1 0x40 MLOAD DUP1 SWAP2 SUB SWAP1 RETURN JUMPDEST PUSH2 0x247 PUSH1 0x4 DUP1 CALLDATASIZE SUB DUP2 ADD SWAP1 PUSH2 0x242 SWAP2 SWAP1 PUSH2 0x200C JUMP JUMPDEST PUSH2 0x64E JUMP JUMPDEST STOP JUMPDEST PUSH2 0x251 PUSH2 0x74D JUMP JUMPDEST PUSH1 0x40 MLOAD PUSH2 0x25E SWAP2 SWAP1 PUSH2 0x20B7 JUMP JUMPDEST PUSH1 0x40 MLOAD DUP1 SWAP2 SUB SWAP1 RETURN JUMPDEST PUSH2 0x281 PUSH1 0x4 DUP1 CALLDATASIZE SUB DUP2 ADD SWAP1 PUSH2 0x27C SWAP2 SWAP1 PUSH2 0x200C JUMP JUMPDEST PUSH2 0x771 JUMP JUMPDEST STOP JUMPDEST PUSH2 0x29D PUSH1 0x4 DUP1 CALLDATASIZE SUB DUP2 ADD SWAP1 PUSH2 0x298 SWAP2 SWAP1 PUSH2 0x21FC JUMP JUMPDEST PUSH2 0x790 JUMP JUMPDEST STOP JUMPDEST PUSH2 0x2A7 PUSH2 0x7E2 JUMP JUMPDEST PUSH1 0x40 MLOAD PUSH2 0x2B4 SWAP2 SWAP1 PUSH2 0x1F63 JUMP JUMPDEST PUSH1 0x40 MLOAD DUP1 SWAP2 SUB SWAP1 RETURN JUMPDEST PUSH2 0x2D7 PUSH1 0x4 DUP1 CALLDATASIZE SUB DUP2 ADD SWAP1 PUSH2 0x2D2 SWAP2 SWAP1 PUSH2 0x1EF9 JUMP JUMPDEST PUSH2 0x807 JUMP JUMPDEST PUSH1 0x40 MLOAD PUSH2 0x2E4 SWAP2 SWAP1 PUSH2 0x1F63 JUMP JUMPDEST PUSH1 0x40 MLOAD DUP1 SWAP2 SUB SWAP1 RETURN JUMPDEST PUSH2 0x307 PUSH1 0x4 DUP1 CALLDATASIZE SUB DUP2 ADD SWAP1 PUSH2 0x302 SWAP2 SWAP1 PUSH2 0x2243 JUMP JUMPDEST PUSH2 0x818 JUMP JUMPDEST PUSH1 0x40 MLOAD PUSH2 0x314 SWAP2 SWAP1 PUSH2 0x1FF3 JUMP JUMPDEST PUSH1 0x40 MLOAD DUP1 SWAP2 SUB SWAP1 RETURN JUMPDEST PUSH2 0x325 PUSH2 0x8CE JUMP JUMPDEST STOP JUMPDEST PUSH2 0x32F PUSH2 0x8E1 JUMP JUMPDEST PUSH1 0x40 MLOAD PUSH2 0x33C SWAP2 SWAP1 PUSH2 0x1F63 JUMP JUMPDEST PUSH1 0x40 MLOAD DUP1 SWAP2 SUB SWAP1 RETURN JUMPDEST PUSH2 0x34D PUSH2 0x909 JUMP JUMPDEST PUSH1 0x40 MLOAD PUSH2 0x35A SWAP2 SWAP1 PUSH2 0x1EA6 JUMP JUMPDEST PUSH1 0x40 MLOAD DUP1 SWAP2 SUB SWAP1 RETURN JUMPDEST PUSH2 0x37D PUSH1 0x4 DUP1 CALLDATASIZE SUB DUP2 ADD SWAP1 PUSH2 0x378 SWAP2 SWAP1 PUSH2 0x1EF9 JUMP JUMPDEST PUSH2 0x999 JUMP JUMPDEST STOP JUMPDEST PUSH2 0x399 PUSH1 0x4 DUP1 CALLDATASIZE SUB DUP2 ADD SWAP1 PUSH2 0x394 SWAP2 SWAP1 PUSH2 0x2298 JUMP JUMPDEST PUSH2 0xBEC JUMP JUMPDEST STOP JUMPDEST PUSH2 0x3B5 PUSH1 0x4 DUP1 CALLDATASIZE SUB DUP2 ADD SWAP1 PUSH2 0x3B0 SWAP2 SWAP1 PUSH2 0x2374 JUMP JUMPDEST PUSH2 0xC02 JUMP JUMPDEST STOP JUMPDEST PUSH2 0x3D1 PUSH1 0x4 DUP1 CALLDATASIZE SUB DUP2 ADD SWAP1 PUSH2 0x3CC SWAP2 SWAP1 PUSH2 0x1EF9 JUMP JUMPDEST PUSH2 0xC27 JUMP JUMPDEST PUSH1 0x40 MLOAD PUSH2 0x3DE SWAP2 SWAP1 PUSH2 0x1EA6 JUMP JUMPDEST PUSH1 0x40 MLOAD DUP1 SWAP2 SUB SWAP1 RETURN JUMPDEST PUSH2 0x401 PUSH1 0x4 DUP1 CALLDATASIZE SUB DUP2 ADD SWAP1 PUSH2 0x3FC SWAP2 SWAP1 PUSH2 0x1EF9 JUMP JUMPDEST PUSH2 0xC65 JUMP JUMPDEST STOP JUMPDEST PUSH2 0x40B PUSH2 0xCF0 JUMP JUMPDEST PUSH1 0x40 MLOAD PUSH2 0x418 SWAP2 SWAP1 PUSH2 0x1FF3 JUMP JUMPDEST PUSH1 0x40 MLOAD DUP1 SWAP2 SUB SWAP1 RETURN JUMPDEST PUSH2 0x43B PUSH1 0x4 DUP1 CALLDATASIZE SUB DUP2 ADD SWAP1 PUSH2 0x436 SWAP2 SWAP1 PUSH2 0x23F4 JUMP JUMPDEST PUSH2 0xCF6 JUMP JUMPDEST PUSH1 0x40 MLOAD PUSH2 0x448 SWAP2 SWAP1 PUSH2 0x1E1D JUMP JUMPDEST PUSH1 0x40 MLOAD DUP1 SWAP2 SUB SWAP1 RETURN JUMPDEST PUSH2 0x46B PUSH1 0x4 DUP1 CALLDATASIZE SUB DUP2 ADD SWAP1 PUSH2 0x466 SWAP2 SWAP1 PUSH2 0x2243 JUMP JUMPDEST PUSH2 0xD84 JUMP JUMPDEST STOP JUMPDEST PUSH2 0x487 PUSH1 0x4 DUP1 CALLDATASIZE SUB DUP2 ADD SWAP1 PUSH2 0x482 SWAP2 SWAP1 PUSH2 0x2243 JUMP JUMPDEST PUSH2 0xE74 JUMP JUMPDEST STOP JUMPDEST PUSH2 0x491 PUSH2 0xEF8 JUMP JUMPDEST PUSH1 0x40 MLOAD PUSH2 0x49E SWAP2 SWAP1 PUSH2 0x1FF3 JUMP JUMPDEST PUSH1 0x40 MLOAD DUP1 SWAP2 SUB SWAP1 RETURN JUMPDEST PUSH0 PUSH32 0x80AC58CD00000000000000000000000000000000000000000000000000000000 PUSH28 0xFFFFFFFFFFFFFFFFFFFFFFFFFFFFFFFFFFFFFFFFFFFFFFFFFFFFFFFF NOT AND DUP3 PUSH28 0xFFFFFFFFFFFFFFFFFFFFFFFFFFFFFFFFFFFFFFFFFFFFFFFFFFFFFFFF NOT AND EQ DUP1 PUSH2 0x571 JUMPI POP PUSH32 0x5B5E139F00000000000000000000000000000000000000000000000000000000 PUSH28 0xFFFFFFFFFFFFFFFFFFFFFFFFFFFFFFFFFFFFFFFFFFFFFFFFFFFFFFFF NOT AND DUP3 PUSH28 0xFFFFFFFFFFFFFFFFFFFFFFFFFFFFFFFFFFFFFFFFFFFFFFFFFFFFFFFF NOT AND EQ JUMPDEST DUP1 PUSH2 0x581 JUMPI POP PUSH2 0x580 DUP3 PUSH2 0xEFE JUMP JUMPDEST JUMPDEST SWAP1 POP SWAP2 SWAP1 POP JUMP JUMPDEST PUSH1 0x60 PUSH0 DUP1 SLOAD PUSH2 0x596 SWAP1 PUSH2 0x245F JUMP JUMPDEST DUP1 PUSH1 0x1F ADD PUSH1 0x20 DUP1 SWAP2 DIV MUL PUSH1 0x20 ADD PUSH1 0x40 MLOAD SWAP1 DUP2 ADD PUSH1 0x40 MSTORE DUP1 SWAP3 SWAP2 SWAP1 DUP2 DUP2 MSTORE PUSH1 0x20 ADD DUP3 DUP1 SLOAD PUSH2 0x5C2 SWAP1 PUSH2 0x245F JUMP JUMPDEST DUP1 ISZERO PUSH2 0x60D JUMPI DUP1 PUSH1 0x1F LT PUSH2 0x5E4 JUMPI PUSH2 0x100 DUP1 DUP4 SLOAD DIV MUL DUP4 MSTORE SWAP2 PUSH1 0x20 ADD SWAP2 PUSH2 0x60D JUMP JUMPDEST DUP3 ADD SWAP2 SWAP1 PUSH0 MSTORE PUSH1 0x20 PUSH0 KECCAK256 SWAP1 JUMPDEST DUP2 SLOAD DUP2 MSTORE SWAP1 PUSH1 0x1 ADD SWAP1 PUSH1 0x20 ADD DUP1 DUP4 GT PUSH2 0x5F0 JUMPI DUP3 SWAP1 SUB PUSH1 0x1F AND DUP3 ADD SWAP2 JUMPDEST POP POP POP POP POP SWAP1 POP SWAP1 JUMP JUMPDEST PUSH0 PUSH2 0x621 DUP3 PUSH2 0xF67 JUMP JUMPDEST POP PUSH2 0x62B DUP3 PUSH2 0xFED JUMP JUMPDEST SWAP1 POP SWAP2 SWAP1 POP JUMP JUMPDEST PUSH2 0x644 DUP3 DUP3 PUSH2 0x63F PUSH2 0x1026 JUMP JUMPDEST PUSH2 0x102D JUMP JUMPDEST POP POP JUMP JUMPDEST PUSH1 0xA SLOAD DUP2 JUMP JUMPDEST PUSH0 PUSH20 0xFFFFFFFFFFFFFFFFFFFFFFFFFFFFFFFFFFFFFFFF AND DUP3 PUSH20 0xFFFFFFFFFFFFFFFFFFFFFFFFFFFFFFFFFFFFFFFF AND SUB PUSH2 0x6BE JUMPI PUSH0 PUSH1 0x40 MLOAD PUSH32 0x64A0AE9200000000000000000000000000000000000000000000000000000000 DUP2 MSTORE PUSH1 0x4 ADD PUSH2 0x6B5 SWAP2 SWAP1 PUSH2 0x1F63 JUMP JUMPDEST PUSH1 0x40 MLOAD DUP1 SWAP2 SUB SWAP1 REVERT JUMPDEST PUSH0 PUSH2 0x6D1 DUP4 DUP4 PUSH2 0x6CC PUSH2 0x1026 JUMP JUMPDEST PUSH2 0x103F JUMP JUMPDEST SWAP1 POP DUP4 PUSH20 0xFFFFFFFFFFFFFFFFFFFFFFFFFFFFFFFFFFFFFFFF AND DUP2 PUSH20 0xFFFFFFFFFFFFFFFFFFFFFFFFFFFFFFFFFFFFFFFF AND EQ PUSH2 0x747 JUMPI DUP4 DUP3 DUP3 PUSH1 0x40 MLOAD PUSH32 0x64283D7B00000000000000000000000000000000000000000000000000000000 DUP2 MSTORE PUSH1 0x4 ADD PUSH2 0x73E SWAP4 SWAP3 SWAP2 SWAP1 PUSH2 0x248F JUMP JUMPDEST PUSH1 0x40 MLOAD DUP1 SWAP2 SUB SWAP1 REVERT JUMPDEST POP POP POP POP JUMP JUMPDEST PUSH32 0x0 DUP2 JUMP JUMPDEST PUSH2 0x78B DUP4 DUP4 DUP4 PUSH1 0x40 MLOAD DUP1 PUSH1 0x20 ADD PUSH1 0x40 MSTORE DUP1 PUSH0 DUP2 MSTORE POP PUSH2 0xC02 JUMP JUMPDEST POP POP POP JUMP JUMPDEST PUSH2 0x798 PUSH2 0x124A JUMP JUMPDEST DUP1 PUSH1 0xB SWAP1 DUP2 PUSH2 0x7A7 SWAP2 SWAP1 PUSH2 0x265B JUMP JUMPDEST POP PUSH32 0x5411E8EBF1636D9E83D5FC4900BF80CBAC82E8790DA2A4C94DB4895E889EEDF6 DUP2 PUSH1 0x40 MLOAD PUSH2 0x7D7 SWAP2 SWAP1 PUSH2 0x1EA6 JUMP JUMPDEST PUSH1 0x40 MLOAD DUP1 SWAP2 SUB SWAP1 LOG1 POP JUMP JUMPDEST PUSH1 0x7 PUSH0 SWAP1 SLOAD SWAP1 PUSH2 0x100 EXP SWAP1 DIV PUSH20 0xFFFFFFFFFFFFFFFFFFFFFFFFFFFFFFFFFFFFFFFF AND DUP2 JUMP JUMPDEST PUSH0 PUSH2 0x811 DUP3 PUSH2 0xF67 JUMP JUMPDEST SWAP1 POP SWAP2 SWAP1 POP JUMP JUMPDEST PUSH0 PUSH0 PUSH20 0xFFFFFFFFFFFFFFFFFFFFFFFFFFFFFFFFFFFFFFFF AND DUP3 PUSH20 0xFFFFFFFFFFFFFFFFFFFFFFFFFFFFFFFFFFFFFFFF AND SUB PUSH2 0x889 JUMPI PUSH0 PUSH1 0x40 MLOAD PUSH32 0x89C62B6400000000000000000000000000000000000000000000000000000000 DUP2 MSTORE PUSH1 0x4 ADD PUSH2 0x880 SWAP2 SWAP1 PUSH2 0x1F63 JUMP JUMPDEST PUSH1 0x40 MLOAD DUP1 SWAP2 SUB SWAP1 REVERT JUMPDEST PUSH1 0x3 PUSH0 DUP4 PUSH20 0xFFFFFFFFFFFFFFFFFFFFFFFFFFFFFFFFFFFFFFFF AND PUSH20 0xFFFFFFFFFFFFFFFFFFFFFFFFFFFFFFFFFFFFFFFF AND DUP2 MSTORE PUSH1 0x20 ADD SWAP1 DUP2 MSTORE PUSH1 0x20 ADD PUSH0 KECCAK256 SLOAD SWAP1 POP SWAP2 SWAP1 POP JUMP JUMPDEST PUSH2 0x8D6 PUSH2 0x124A JUMP JUMPDEST PUSH2 0x8DF PUSH0 PUSH2 0x12D1 JUMP JUMPDEST JUMP JUMPDEST PUSH0 PUSH1 0x6 PUSH0 SWAP1 SLOAD SWAP1 PUSH2 0x100 EXP SWAP1 DIV PUSH20 0xFFFFFFFFFFFFFFFFFFFFFFFFFFFFFFFFFFFFFFFF AND SWAP1 POP SWAP1 JUMP JUMPDEST PUSH1 0x60 PUSH1 0x1 DUP1 SLOAD PUSH2 0x918 SWAP1 PUSH2 0x245F JUMP JUMPDEST DUP1 PUSH1 0x1F ADD PUSH1 0x20 DUP1 SWAP2 DIV MUL PUSH1 0x20 ADD PUSH1 0x40 MLOAD SWAP1 DUP2 ADD PUSH1 0x40 MSTORE DUP1 SWAP3 SWAP2 SWAP1 DUP2 DUP2 MSTORE PUSH1 0x20 ADD DUP3 DUP1 SLOAD PUSH2 0x944 SWAP1 PUSH2 0x245F JUMP JUMPDEST DUP1 ISZERO PUSH2 0x98F JUMPI DUP1 PUSH1 0x1F LT PUSH2 0x966 JUMPI PUSH2 0x100 DUP1 DUP4 SLOAD DIV MUL DUP4 MSTORE SWAP2 PUSH1 0x20 ADD SWAP2 PUSH2 0x98F JUMP JUMPDEST DUP3 ADD SWAP2 SWAP1 PUSH0 MSTORE PUSH1 0x20 PUSH0 KECCAK256 SWAP1 JUMPDEST DUP2 SLOAD DUP2 MSTORE SWAP1 PUSH1 0x1 ADD SWAP1 PUSH1 0x20 ADD DUP1 DUP4 GT PUSH2 0x972 JUMPI DUP3 SWAP1 SUB PUSH1 0x1F AND DUP3 ADD SWAP2 JUMPDEST POP POP POP POP POP SWAP1 POP SWAP1 JUMP JUMPDEST PUSH0 DUP2 GT PUSH2 0x9DB JUMPI PUSH1 0x40 MLOAD PUSH32 0x8C379A000000000000000000000000000000000000000000000000000000000 DUP2 MSTORE PUSH1 0x4 ADD PUSH2 0x9D2 SWAP1 PUSH2 0x2774 JUMP JUMPDEST PUSH1 0x40 MLOAD DUP1 SWAP2 SUB SWAP1 REVERT JUMPDEST PUSH1 0x9 SLOAD DUP2 PUSH1 0xA SLOAD PUSH2 0x9EC SWAP2 SWAP1 PUSH2 0x27BF JUMP JUMPDEST GT ISZERO PUSH2 0xA2D JUMPI PUSH1 0x40 MLOAD PUSH32 0x8C379A000000000000000000000000000000000000000000000000000000000 DUP2 MSTORE PUSH1 0x4 ADD PUSH2 0xA24 SWAP1 PUSH2 0x283C JUMP JUMPDEST PUSH1 0x40 MLOAD DUP1 SWAP2 SUB SWAP1 REVERT JUMPDEST PUSH0 DUP2 PUSH1 0x8 SLOAD PUSH2 0xA3C SWAP2 SWAP1 PUSH2 0x285A JUMP JUMPDEST SWAP1 POP PUSH0 PUSH32 0x0 PUSH20 0xFFFFFFFFFFFFFFFFFFFFFFFFFFFFFFFFFFFFFFFF AND PUSH4 0x23B872DD CALLER PUSH1 0x7 PUSH0 SWAP1 SLOAD SWAP1 PUSH2 0x100 EXP SWAP1 DIV PUSH20 0xFFFFFFFFFFFFFFFFFFFFFFFFFFFFFFFFFFFFFFFF AND DUP6 PUSH1 0x40 MLOAD DUP5 PUSH4 0xFFFFFFFF AND PUSH1 0xE0 SHL DUP2 MSTORE PUSH1 0x4 ADD PUSH2 0xABD SWAP4 SWAP3 SWAP2 SWAP1 PUSH2 0x289B JUMP JUMPDEST PUSH1 0x20 PUSH1 0x40 MLOAD DUP1 DUP4 SUB DUP2 PUSH0 DUP8 GAS CALL ISZERO DUP1 ISZERO PUSH2 0xAD9 JUMPI RETURNDATASIZE PUSH0 PUSH0 RETURNDATACOPY RETURNDATASIZE PUSH0 REVERT JUMPDEST POP POP POP POP PUSH1 0x40 MLOAD RETURNDATASIZE PUSH1 0x1F NOT PUSH1 0x1F DUP3 ADD AND DUP3 ADD DUP1 PUSH1 0x40 MSTORE POP DUP2 ADD SWAP1 PUSH2 0xAFD SWAP2 SWAP1 PUSH2 0x28E4 JUMP JUMPDEST SWAP1 POP DUP1 PUSH2 0xB3F JUMPI PUSH1 0x40 MLOAD PUSH32 0x8C379A000000000000000000000000000000000000000000000000000000000 DUP2 MSTORE PUSH1 0x4 ADD PUSH2 0xB36 SWAP1 PUSH2 0x2959 JUMP JUMPDEST PUSH1 0x40 MLOAD DUP1 SWAP2 SUB SWAP1 REVERT JUMPDEST PUSH0 PUSH0 SWAP1 POP JUMPDEST DUP4 DUP2 LT ISZERO PUSH2 0xB96 JUMPI PUSH0 PUSH1 0xC PUSH0 DUP2 SLOAD DUP1 SWAP3 SWAP2 SWAP1 PUSH2 0xB5F SWAP1 PUSH2 0x2977 JUMP JUMPDEST SWAP2 SWAP1 POP SSTORE SWAP1 POP PUSH1 0x1 PUSH1 0xA PUSH0 DUP3 DUP3 SLOAD PUSH2 0xB77 SWAP2 SWAP1 PUSH2 0x27BF JUMP JUMPDEST SWAP3 POP POP DUP2 SWAP1 SSTORE POP PUSH2 0xB88 CALLER DUP3 PUSH2 0x1394 JUMP JUMPDEST POP DUP1 DUP1 PUSH1 0x1 ADD SWAP2 POP POP PUSH2 0xB44 JUMP JUMPDEST POP CALLER PUSH20 0xFFFFFFFFFFFFFFFFFFFFFFFFFFFFFFFFFFFFFFFF AND PUSH32 0x25B428DFDE728CCFADDAD7E29E4AC23C24ED7FD1A6E3E3F91894A9A073F5DFFF DUP5 DUP5 PUSH1 0x40 MLOAD PUSH2 0xBDF SWAP3 SWAP2 SWAP1 PUSH2 0x29BE JUMP JUMPDEST PUSH1 0x40 MLOAD DUP1 SWAP2 SUB SWAP1 LOG2 POP POP POP JUMP JUMPDEST PUSH2 0xBFE PUSH2 0xBF7 PUSH2 0x1026 JUMP JUMPDEST DUP4 DUP4 PUSH2 0x13B1 JUMP JUMPDEST POP POP JUMP JUMPDEST PUSH2 0xC0D DUP5 DUP5 DUP5 PUSH2 0x64E JUMP JUMPDEST PUSH2 0xC21 PUSH2 0xC18 PUSH2 0x1026 JUMP JUMPDEST DUP6 DUP6 DUP6 DUP6 PUSH2 0x151A JUMP JUMPDEST POP POP POP POP JUMP JUMPDEST PUSH1 0x60 PUSH2 0xC32 DUP3 PUSH2 0x807 JUMP JUMPDEST POP PUSH1 0xB PUSH2 0xC3E DUP4 PUSH2 0x16C6 JUMP JUMPDEST PUSH1 0x40 MLOAD PUSH1 0x20 ADD PUSH2 0xC4F SWAP3 SWAP2 SWAP1 PUSH2 0x2AE9 JUMP JUMPDEST PUSH1 0x40 MLOAD PUSH1 0x20 DUP2 DUP4 SUB SUB DUP2 MSTORE SWAP1 PUSH1 0x40 MSTORE SWAP1 POP SWAP2 SWAP1 POP JUMP JUMPDEST PUSH2 0xC6D PUSH2 0x124A JUMP JUMPDEST PUSH0 DUP2 GT PUSH2 0xCAF JUMPI PUSH1 0x40 MLOAD PUSH32 0x8C379A000000000000000000000000000000000000000000000000000000000 DUP2 MSTORE PUSH1 0x4 ADD PUSH2 0xCA6 SWAP1 PUSH2 0x2B61 JUMP JUMPDEST PUSH1 0x40 MLOAD DUP1 SWAP2 SUB SWAP1 REVERT JUMPDEST DUP1 PUSH1 0x8 DUP2 SWAP1 SSTORE POP PUSH32 0xA6DC15BDB68DA224C66DB4B3838D9A2B205138E8CFF6774E57D0AF91E196D622 DUP2 PUSH1 0x40 MLOAD PUSH2 0xCE5 SWAP2 SWAP1 PUSH2 0x1FF3 JUMP JUMPDEST PUSH1 0x40 MLOAD DUP1 SWAP2 SUB SWAP1 LOG1 POP JUMP JUMPDEST PUSH1 0x9 SLOAD DUP2 JUMP JUMPDEST PUSH0 PUSH1 0x5 PUSH0 DUP5 PUSH20 0xFFFFFFFFFFFFFFFFFFFFFFFFFFFFFFFFFFFFFFFF AND PUSH20 0xFFFFFFFFFFFFFFFFFFFFFFFFFFFFFFFFFFFFFFFF AND DUP2 MSTORE PUSH1 0x20 ADD SWAP1 DUP2 MSTORE PUSH1 0x20 ADD PUSH0 KECCAK256 PUSH0 DUP4 PUSH20 0xFFFFFFFFFFFFFFFFFFFFFFFFFFFFFFFFFFFFFFFF AND PUSH20 0xFFFFFFFFFFFFFFFFFFFFFFFFFFFFFFFFFFFFFFFF AND DUP2 MSTORE PUSH1 0x20 ADD SWAP1 DUP2 MSTORE PUSH1 0x20 ADD PUSH0 KECCAK256 PUSH0 SWAP1 SLOAD SWAP1 PUSH2 0x100 EXP SWAP1 DIV PUSH1 0xFF AND SWAP1 POP SWAP3 SWAP2 POP POP JUMP JUMPDEST PUSH2 0xD8C PUSH2 0x124A JUMP JUMPDEST PUSH0 PUSH20 0xFFFFFFFFFFFFFFFFFFFFFFFFFFFFFFFFFFFFFFFF AND DUP2 PUSH20 0xFFFFFFFFFFFFFFFFFFFFFFFFFFFFFFFFFFFFFFFF AND SUB PUSH2 0xDFA JUMPI PUSH1 0x40 MLOAD PUSH32 0x8C379A000000000000000000000000000000000000000000000000000000000 DUP2 MSTORE PUSH1 0x4 ADD PUSH2 0xDF1 SWAP1 PUSH2 0x2BC9 JUMP JUMPDEST PUSH1 0x40 MLOAD DUP1 SWAP2 SUB SWAP1 REVERT JUMPDEST DUP1 PUSH1 0x7 PUSH0 PUSH2 0x100 EXP DUP2 SLOAD DUP2 PUSH20 0xFFFFFFFFFFFFFFFFFFFFFFFFFFFFFFFFFFFFFFFF MUL NOT AND SWAP1 DUP4 PUSH20 0xFFFFFFFFFFFFFFFFFFFFFFFFFFFFFFFFFFFFFFFF AND MUL OR SWAP1 SSTORE POP PUSH32 0xC714D22A2F08B695F81E7C707058DB484AA5B4D6B4C9FD64BEB10FE85832F608 DUP2 PUSH1 0x40 MLOAD PUSH2 0xE69 SWAP2 SWAP1 PUSH2 0x1F63 JUMP JUMPDEST PUSH1 0x40 MLOAD DUP1 SWAP2 SUB SWAP1 LOG1 POP JUMP JUMPDEST PUSH2 0xE7C PUSH2 0x124A JUMP JUMPDEST PUSH0 PUSH20 0xFFFFFFFFFFFFFFFFFFFFFFFFFFFFFFFFFFFFFFFF AND DUP2 PUSH20 0xFFFFFFFFFFFFFFFFFFFFFFFFFFFFFFFFFFFFFFFF AND SUB PUSH2 0xEEC JUMPI PUSH0 PUSH1 0x40 MLOAD PUSH32 0x1E4FBDF700000000000000000000000000000000000000000000000000000000 DUP2 MSTORE PUSH1 0x4 ADD PUSH2 0xEE3 SWAP2 SWAP1 PUSH2 0x1F63 JUMP JUMPDEST PUSH1 0x40 MLOAD DUP1 SWAP2 SUB SWAP1 REVERT JUMPDEST PUSH2 0xEF5 DUP2 PUSH2 0x12D1 JUMP JUMPDEST POP JUMP JUMPDEST PUSH1 0x8 SLOAD DUP2 JUMP JUMPDEST PUSH0 PUSH32 0x1FFC9A700000000000000000000000000000000000000000000000000000000 PUSH28 0xFFFFFFFFFFFFFFFFFFFFFFFFFFFFFFFFFFFFFFFFFFFFFFFFFFFFFFFF NOT AND DUP3 PUSH28 0xFFFFFFFFFFFFFFFFFFFFFFFFFFFFFFFFFFFFFFFFFFFFFFFFFFFFFFFF NOT AND EQ SWAP1 POP SWAP2 SWAP1 POP JUMP JUMPDEST PUSH0 PUSH0 PUSH2 0xF72 DUP4 PUSH2 0x1790 JUMP JUMPDEST SWAP1 POP PUSH0 PUSH20 0xFFFFFFFFFFFFFFFFFFFFFFFFFFFFFFFFFFFFFFFF AND DUP2 PUSH20 0xFFFFFFFFFFFFFFFFFFFFFFFFFFFFFFFFFFFFFFFF AND SUB PUSH2 0xFE4 JUMPI DUP3 PUSH1 0x40 MLOAD PUSH32 0x7E27328900000000000000000000000000000000000000000000000000000000 DUP2 MSTORE PUSH1 0x4 ADD PUSH2 0xFDB SWAP2 SWAP1 PUSH2 0x1FF3 JUMP JUMPDEST PUSH1 0x40 MLOAD DUP1 SWAP2 SUB SWAP1 REVERT JUMPDEST DUP1 SWAP2 POP POP SWAP2 SWAP1 POP JUMP JUMPDEST PUSH0 PUSH1 0x4 PUSH0 DUP4 DUP2 MSTORE PUSH1 0x20 ADD SWAP1 DUP2 MSTORE PUSH1 0x20 ADD PUSH0 KECCAK256 PUSH0 SWAP1 SLOAD SWAP1 PUSH2 0x100 EXP SWAP1 DIV PUSH20 0xFFFFFFFFFFFFFFFFFFFFFFFFFFFFFFFFFFFFFFFF AND SWAP1 POP SWAP2 SWAP1 POP JUMP JUMPDEST PUSH0 CALLER SWAP1 POP SWAP1 JUMP JUMPDEST PUSH2 0x103A DUP4 DUP4 DUP4 PUSH1 0x1 PUSH2 0x17C9 JUMP JUMPDEST POP POP POP JUMP JUMPDEST PUSH0 PUSH0 PUSH2 0x104A DUP5 PUSH2 0x1790 JUMP JUMPDEST SWAP1 POP PUSH0 PUSH20 0xFFFFFFFFFFFFFFFFFFFFFFFFFFFFFFFFFFFFFFFF AND DUP4 PUSH20 0xFFFFFFFFFFFFFFFFFFFFFFFFFFFFFFFFFFFFFFFF AND EQ PUSH2 0x108B JUMPI PUSH2 0x108A DUP2 DUP5 DUP7 PUSH2 0x1988 JUMP JUMPDEST JUMPDEST PUSH0 PUSH20 0xFFFFFFFFFFFFFFFFFFFFFFFFFFFFFFFFFFFFFFFF AND DUP2 PUSH20 0xFFFFFFFFFFFFFFFFFFFFFFFFFFFFFFFFFFFFFFFF AND EQ PUSH2 0x1116 JUMPI PUSH2 0x10CA PUSH0 DUP6 PUSH0 PUSH0 PUSH2 0x17C9 JUMP JUMPDEST PUSH1 0x1 PUSH1 0x3 PUSH0 DUP4 PUSH20 0xFFFFFFFFFFFFFFFFFFFFFFFFFFFFFFFFFFFFFFFF AND PUSH20 0xFFFFFFFFFFFFFFFFFFFFFFFFFFFFFFFFFFFFFFFF AND DUP2 MSTORE PUSH1 0x20 ADD SWAP1 DUP2 MSTORE PUSH1 0x20 ADD PUSH0 KECCAK256 PUSH0 DUP3 DUP3 SLOAD SUB SWAP3 POP POP DUP2 SWAP1 SSTORE POP JUMPDEST PUSH0 PUSH20 0xFFFFFFFFFFFFFFFFFFFFFFFFFFFFFFFFFFFFFFFF AND DUP6 PUSH20 0xFFFFFFFFFFFFFFFFFFFFFFFFFFFFFFFFFFFFFFFF AND EQ PUSH2 0x1195 JUMPI PUSH1 0x1 PUSH1 0x3 PUSH0 DUP8 PUSH20 0xFFFFFFFFFFFFFFFFFFFFFFFFFFFFFFFFFFFFFFFF AND PUSH20 0xFFFFFFFFFFFFFFFFFFFFFFFFFFFFFFFFFFFFFFFF AND DUP2 MSTORE PUSH1 0x20 ADD SWAP1 DUP2 MSTORE PUSH1 0x20 ADD PUSH0 KECCAK256 PUSH0 DUP3 DUP3 SLOAD ADD SWAP3 POP POP DUP2 SWAP1 SSTORE POP JUMPDEST DUP5 PUSH1 0x2 PUSH0 DUP7 DUP2 MSTORE PUSH1 0x20 ADD SWAP1 DUP2 MSTORE PUSH1 0x20 ADD PUSH0 KECCAK256 PUSH0 PUSH2 0x100 EXP DUP2 SLOAD DUP2 PUSH20 0xFFFFFFFFFFFFFFFFFFFFFFFFFFFFFFFFFFFFFFFF MUL NOT AND SWAP1 DUP4 PUSH20 0xFFFFFFFFFFFFFFFFFFFFFFFFFFFFFFFFFFFFFFFF AND MUL OR SWAP1 SSTORE POP DUP4 DUP6 PUSH20 0xFFFFFFFFFFFFFFFFFFFFFFFFFFFFFFFFFFFFFFFF AND DUP3 PUSH20 0xFFFFFFFFFFFFFFFFFFFFFFFFFFFFFFFFFFFFFFFF AND PUSH32 0xDDF252AD1BE2C89B69C2B068FC378DAA952BA7F163C4A11628F55A4DF523B3EF PUSH1 0x40 MLOAD PUSH1 0x40 MLOAD DUP1 SWAP2 SUB SWAP1 LOG4 DUP1 SWAP2 POP POP SWAP4 SWAP3 POP POP POP JUMP JUMPDEST PUSH2 0x1252 PUSH2 0x1026 JUMP JUMPDEST PUSH20 0xFFFFFFFFFFFFFFFFFFFFFFFFFFFFFFFFFFFFFFFF AND PUSH2 0x1270 PUSH2 0x8E1 JUMP JUMPDEST PUSH20 0xFFFFFFFFFFFFFFFFFFFFFFFFFFFFFFFFFFFFFFFF AND EQ PUSH2 0x12CF JUMPI PUSH2 0x1293 PUSH2 0x1026 JUMP JUMPDEST PUSH1 0x40 MLOAD PUSH32 0x118CDAA700000000000000000000000000000000000000000000000000000000 DUP2 MSTORE PUSH1 0x4 ADD PUSH2 0x12C6 SWAP2 SWAP1 PUSH2 0x1F63 JUMP JUMPDEST PUSH1 0x40 MLOAD DUP1 SWAP2 SUB SWAP1 REVERT JUMPDEST JUMP JUMPDEST PUSH0 PUSH1 0x6 PUSH0 SWAP1 SLOAD SWAP1 PUSH2 0x100 EXP SWAP1 DIV PUSH20 0xFFFFFFFFFFFFFFFFFFFFFFFFFFFFFFFFFFFFFFFF AND SWAP1 POP DUP2 PUSH1 0x6 PUSH0 PUSH2 0x100 EXP DUP2 SLOAD DUP2 PUSH20 0xFFFFFFFFFFFFFFFFFFFFFFFFFFFFFFFFFFFFFFFF MUL NOT AND SWAP1 DUP4 PUSH20 0xFFFFFFFFFFFFFFFFFFFFFFFFFFFFFFFFFFFFFFFF AND MUL OR SWAP1 SSTORE POP DUP2 PUSH20 0xFFFFFFFFFFFFFFFFFFFFFFFFFFFFFFFFFFFFFFFF AND DUP2 PUSH20 0xFFFFFFFFFFFFFFFFFFFFFFFFFFFFFFFFFFFFFFFF AND PUSH32 0x8BE0079C531659141344CD1FD0A4F28419497F9722A3DAAFE3B4186F6B6457E0 PUSH1 0x40 MLOAD PUSH1 0x40 MLOAD DUP1 SWAP2 SUB SWAP1 LOG3 POP POP JUMP JUMPDEST PUSH2 0x13AD DUP3 DUP3 PUSH1 0x40 MLOAD DUP1 PUSH1 0x20 ADD PUSH1 0x40 MSTORE DUP1 PUSH0 DUP2 MSTORE POP PUSH2 0x1A4B JUMP JUMPDEST POP POP JUMP JUMPDEST PUSH0 PUSH20 0xFFFFFFFFFFFFFFFFFFFFFFFFFFFFFFFFFFFFFFFF AND DUP3 PUSH20 0xFFFFFFFFFFFFFFFFFFFFFFFFFFFFFFFFFFFFFFFF AND SUB PUSH2 0x1421 JUMPI DUP2 PUSH1 0x40 MLOAD PUSH32 0x5B08BA1800000000000000000000000000000000000000000000000000000000 DUP2 MSTORE PUSH1 0x4 ADD PUSH2 0x1418 SWAP2 SWAP1 PUSH2 0x1F63 JUMP JUMPDEST PUSH1 0x40 MLOAD DUP1 SWAP2 SUB SWAP1 REVERT JUMPDEST DUP1 PUSH1 0x5 PUSH0 DUP6 PUSH20 0xFFFFFFFFFFFFFFFFFFFFFFFFFFFFFFFFFFFFFFFF AND PUSH20 0xFFFFFFFFFFFFFFFFFFFFFFFFFFFFFFFFFFFFFFFF AND DUP2 MSTORE PUSH1 0x20 ADD SWAP1 DUP2 MSTORE PUSH1 0x20 ADD PUSH0 KECCAK256 PUSH0 DUP5 PUSH20 0xFFFFFFFFFFFFFFFFFFFFFFFFFFFFFFFFFFFFFFFF AND PUSH20 0xFFFFFFFFFFFFFFFFFFFFFFFFFFFFFFFFFFFFFFFF AND DUP2 MSTORE PUSH1 0x20 ADD SWAP1 DUP2 MSTORE PUSH1 0x20 ADD PUSH0 KECCAK256 PUSH0 PUSH2 0x100 EXP DUP2 SLOAD DUP2 PUSH1 0xFF MUL NOT AND SWAP1 DUP4 ISZERO ISZERO MUL OR SWAP1 SSTORE POP DUP2 PUSH20 0xFFFFFFFFFFFFFFFFFFFFFFFFFFFFFFFFFFFFFFFF AND DUP4 PUSH20 0xFFFFFFFFFFFFFFFFFFFFFFFFFFFFFFFFFFFFFFFF AND PUSH32 0x17307EAB39AB6107E8899845AD3D59BD9653F200F220920489CA2B5937696C31 DUP4 PUSH1 0x40 MLOAD PUSH2 0x150D SWAP2 SWAP1 PUSH2 0x1E1D JUMP JUMPDEST PUSH1 0x40 MLOAD DUP1 SWAP2 SUB SWAP1 LOG3 POP POP POP JUMP JUMPDEST PUSH0 DUP4 PUSH20 0xFFFFFFFFFFFFFFFFFFFFFFFFFFFFFFFFFFFFFFFF AND EXTCODESIZE GT ISZERO PUSH2 0x16BF JUMPI DUP3 PUSH20 0xFFFFFFFFFFFFFFFFFFFFFFFFFFFFFFFFFFFFFFFF AND PUSH4 0x150B7A02 DUP7 DUP7 DUP6 DUP6 PUSH1 0x40 MLOAD DUP6 PUSH4 0xFFFFFFFF AND PUSH1 0xE0 SHL DUP2 MSTORE PUSH1 0x4 ADD PUSH2 0x1578 SWAP5 SWAP4 SWAP3 SWAP2 SWAP1 PUSH2 0x2C39 JUMP JUMPDEST PUSH1 0x20 PUSH1 0x40 MLOAD DUP1 DUP4 SUB DUP2 PUSH0 DUP8 GAS CALL SWAP3 POP POP POP DUP1 ISZERO PUSH2 0x15B3 JUMPI POP PUSH1 0x40 MLOAD RETURNDATASIZE PUSH1 0x1F NOT PUSH1 0x1F DUP3 ADD AND DUP3 ADD DUP1 PUSH1 0x40 MSTORE POP DUP2 ADD SWAP1 PUSH2 0x15B0 SWAP2 SWAP1 PUSH2 0x2C97 JUMP JUMPDEST PUSH1 0x1 JUMPDEST PUSH2 0x1634 JUMPI RETURNDATASIZE DUP1 PUSH0 DUP2 EQ PUSH2 0x15E1 JUMPI PUSH1 0x40 MLOAD SWAP2 POP PUSH1 0x1F NOT PUSH1 0x3F RETURNDATASIZE ADD AND DUP3 ADD PUSH1 0x40 MSTORE RETURNDATASIZE DUP3 MSTORE RETURNDATASIZE PUSH0 PUSH1 0x20 DUP5 ADD RETURNDATACOPY PUSH2 0x15E6 JUMP JUMPDEST PUSH1 0x60 SWAP2 POP JUMPDEST POP PUSH0 DUP2 MLOAD SUB PUSH2 0x162C JUMPI DUP4 PUSH1 0x40 MLOAD PUSH32 0x64A0AE9200000000000000000000000000000000000000000000000000000000 DUP2 MSTORE PUSH1 0x4 ADD PUSH2 0x1623 SWAP2 SWAP1 PUSH2 0x1F63 JUMP JUMPDEST PUSH1 0x40 MLOAD DUP1 SWAP2 SUB SWAP1 REVERT JUMPDEST DUP1 MLOAD PUSH1 0x20 DUP3 ADD REVERT JUMPDEST PUSH4 0x150B7A02 PUSH1 0xE0 SHL PUSH28 0xFFFFFFFFFFFFFFFFFFFFFFFFFFFFFFFFFFFFFFFFFFFFFFFFFFFFFFFF NOT AND DUP2 PUSH28 0xFFFFFFFFFFFFFFFFFFFFFFFFFFFFFFFFFFFFFFFFFFFFFFFFFFFFFFFF NOT AND EQ PUSH2 0x16BD JUMPI DUP4 PUSH1 0x40 MLOAD PUSH32 0x64A0AE9200000000000000000000000000000000000000000000000000000000 DUP2 MSTORE PUSH1 0x4 ADD PUSH2 0x16B4 SWAP2 SWAP1 PUSH2 0x1F63 JUMP JUMPDEST PUSH1 0x40 MLOAD DUP1 SWAP2 SUB SWAP1 REVERT JUMPDEST POP JUMPDEST POP POP POP POP POP JUMP JUMPDEST PUSH1 0x60 PUSH0 PUSH1 0x1 PUSH2 0x16D4 DUP5 PUSH2 0x1A6E JUMP JUMPDEST ADD SWAP1 POP PUSH0 DUP2 PUSH8 0xFFFFFFFFFFFFFFFF DUP2 GT ISZERO PUSH2 0x16F2 JUMPI PUSH2 0x16F1 PUSH2 0x20D8 JUMP JUMPDEST JUMPDEST PUSH1 0x40 MLOAD SWAP1 DUP1 DUP3 MSTORE DUP1 PUSH1 0x1F ADD PUSH1 0x1F NOT AND PUSH1 0x20 ADD DUP3 ADD PUSH1 0x40 MSTORE DUP1 ISZERO PUSH2 0x1724 JUMPI DUP2 PUSH1 0x20 ADD PUSH1 0x1 DUP3 MUL DUP1 CALLDATASIZE DUP4 CALLDATACOPY DUP1 DUP3 ADD SWAP2 POP POP SWAP1 POP JUMPDEST POP SWAP1 POP PUSH0 DUP3 PUSH1 0x20 DUP4 ADD ADD SWAP1 POP JUMPDEST PUSH1 0x1 ISZERO PUSH2 0x1785 JUMPI DUP1 DUP1 PUSH1 0x1 SWAP1 SUB SWAP2 POP POP PUSH32 0x3031323334353637383961626364656600000000000000000000000000000000 PUSH1 0xA DUP7 MOD BYTE DUP2 MSTORE8 PUSH1 0xA DUP6 DUP2 PUSH2 0x177A JUMPI PUSH2 0x1779 PUSH2 0x2CC2 JUMP JUMPDEST JUMPDEST DIV SWAP5 POP PUSH0 DUP6 SUB PUSH2 0x1731 JUMPI JUMPDEST DUP2 SWAP4 POP POP POP POP SWAP2 SWAP1 POP JUMP JUMPDEST PUSH0 PUSH1 0x2 PUSH0 DUP4 DUP2 MSTORE PUSH1 0x20 ADD SWAP1 DUP2 MSTORE PUSH1 0x20 ADD PUSH0 KECCAK256 PUSH0 SWAP1 SLOAD SWAP1 PUSH2 0x100 EXP SWAP1 DIV PUSH20 0xFFFFFFFFFFFFFFFFFFFFFFFFFFFFFFFFFFFFFFFF AND SWAP1 POP SWAP2 SWAP1 POP JUMP JUMPDEST DUP1 DUP1 PUSH2 0x1801 JUMPI POP PUSH0 PUSH20 0xFFFFFFFFFFFFFFFFFFFFFFFFFFFFFFFFFFFFFFFF AND DUP3 PUSH20 0xFFFFFFFFFFFFFFFFFFFFFFFFFFFFFFFFFFFFFFFF AND EQ ISZERO JUMPDEST ISZERO PUSH2 0x1933 JUMPI PUSH0 PUSH2 0x1810 DUP5 PUSH2 0xF67 JUMP JUMPDEST SWAP1 POP PUSH0 PUSH20 0xFFFFFFFFFFFFFFFFFFFFFFFFFFFFFFFFFFFFFFFF AND DUP4 PUSH20 0xFFFFFFFFFFFFFFFFFFFFFFFFFFFFFFFFFFFFFFFF AND EQ ISZERO DUP1 ISZERO PUSH2 0x187A JUMPI POP DUP3 PUSH20 0xFFFFFFFFFFFFFFFFFFFFFFFFFFFFFFFFFFFFFFFF AND DUP2 PUSH20 0xFFFFFFFFFFFFFFFFFFFFFFFFFFFFFFFFFFFFFFFF AND EQ ISZERO JUMPDEST DUP1 ISZERO PUSH2 0x188D JUMPI POP PUSH2 0x188B DUP2 DUP5 PUSH2 0xCF6 JUMP JUMPDEST ISZERO JUMPDEST ISZERO PUSH2 0x18CF JUMPI DUP3 PUSH1 0x40 MLOAD PUSH32 0xA9FBF51F00000000000000000000000000000000000000000000000000000000 DUP2 MSTORE PUSH1 0x4 ADD PUSH2 0x18C6 SWAP2 SWAP1 PUSH2 0x1F63 JUMP JUMPDEST PUSH1 0x40 MLOAD DUP1 SWAP2 SUB SWAP1 REVERT JUMPDEST DUP2 ISZERO PUSH2 0x1931 JUMPI DUP4 DUP6 PUSH20 0xFFFFFFFFFFFFFFFFFFFFFFFFFFFFFFFFFFFFFFFF AND DUP3 PUSH20 0xFFFFFFFFFFFFFFFFFFFFFFFFFFFFFFFFFFFFFFFF AND PUSH32 0x8C5BE1E5EBEC7D5BD14F71427D1E84F3DD0314C0F7B2291E5B200AC8C7C3B925 PUSH1 0x40 MLOAD PUSH1 0x40 MLOAD DUP1 SWAP2 SUB SWAP1 LOG4 JUMPDEST POP JUMPDEST DUP4 PUSH1 0x4 PUSH0 DUP6 DUP2 MSTORE PUSH1 0x20 ADD SWAP1 DUP2 MSTORE PUSH1 0x20 ADD PUSH0 KECCAK256 PUSH0 PUSH2 0x100 EXP DUP2 SLOAD DUP2 PUSH20 0xFFFFFFFFFFFFFFFFFFFFFFFFFFFFFFFFFFFFFFFF MUL NOT AND SWAP1 DUP4 PUSH20 0xFFFFFFFFFFFFFFFFFFFFFFFFFFFFFFFFFFFFFFFF AND MUL OR SWAP1 SSTORE POP POP POP POP POP JUMP JUMPDEST PUSH2 0x1993 DUP4 DUP4 DUP4 PUSH2 0x1BBF JUMP JUMPDEST PUSH2 0x1A46 JUMPI PUSH0 PUSH20 0xFFFFFFFFFFFFFFFFFFFFFFFFFFFFFFFFFFFFFFFF AND DUP4 PUSH20 0xFFFFFFFFFFFFFFFFFFFFFFFFFFFFFFFFFFFFFFFF AND SUB PUSH2 0x1A07 JUMPI DUP1 PUSH1 0x40 MLOAD PUSH32 0x7E27328900000000000000000000000000000000000000000000000000000000 DUP2 MSTORE PUSH1 0x4 ADD PUSH2 0x19FE SWAP2 SWAP1 PUSH2 0x1FF3 JUMP JUMPDEST PUSH1 0x40 MLOAD DUP1 SWAP2 SUB SWAP1 REVERT JUMPDEST DUP2 DUP2 PUSH1 0x40 MLOAD PUSH32 0x177E802F00000000000000000000000000000000000000000000000000000000 DUP2 MSTORE PUSH1 0x4 ADD PUSH2 0x1A3D SWAP3 SWAP2 SWAP1 PUSH2 0x2CEF JUMP JUMPDEST PUSH1 0x40 MLOAD DUP1 SWAP2 SUB SWAP1 REVERT JUMPDEST POP POP POP JUMP JUMPDEST PUSH2 0x1A55 DUP4 DUP4 PUSH2 0x1C7F JUMP JUMPDEST PUSH2 0x1A69 PUSH2 0x1A60 PUSH2 0x1026 JUMP JUMPDEST PUSH0 DUP6 DUP6 DUP6 PUSH2 0x151A JUMP JUMPDEST POP POP POP JUMP JUMPDEST PUSH0 PUSH0 PUSH0 SWAP1 POP PUSH27 0x184F03E93FF9F4DAA797ED6E38ED64BF6A1F010000000000000000 DUP4 LT PUSH2 0x1ACA JUMPI PUSH27 0x184F03E93FF9F4DAA797ED6E38ED64BF6A1F010000000000000000 DUP4 DUP2 PUSH2 0x1AC0 JUMPI PUSH2 0x1ABF PUSH2 0x2CC2 JUMP JUMPDEST JUMPDEST DIV SWAP3 POP PUSH1 0x40 DUP2 ADD SWAP1 POP JUMPDEST PUSH14 0x4EE2D6D415B85ACEF8100000000 DUP4 LT PUSH2 0x1B07 JUMPI PUSH14 0x4EE2D6D415B85ACEF8100000000 DUP4 DUP2 PUSH2 0x1AFD JUMPI PUSH2 0x1AFC PUSH2 0x2CC2 JUMP JUMPDEST JUMPDEST DIV SWAP3 POP PUSH1 0x20 DUP2 ADD SWAP1 POP JUMPDEST PUSH7 0x2386F26FC10000 DUP4 LT PUSH2 0x1B36 JUMPI PUSH7 0x2386F26FC10000 DUP4 DUP2 PUSH2 0x1B2C JUMPI PUSH2 0x1B2B PUSH2 0x2CC2 JUMP JUMPDEST JUMPDEST DIV SWAP3 POP PUSH1 0x10 DUP2 ADD SWAP1 POP JUMPDEST PUSH4 0x5F5E100 DUP4 LT PUSH2 0x1B5F JUMPI PUSH4 0x5F5E100 DUP4 DUP2 PUSH2 0x1B55 JUMPI PUSH2 0x1B54 PUSH2 0x2CC2 JUMP JUMPDEST JUMPDEST DIV SWAP3 POP PUSH1 0x8 DUP2 ADD SWAP1 POP JUMPDEST PUSH2 0x2710 DUP4 LT PUSH2 0x1B84 JUMPI PUSH2 0x2710 DUP4 DUP2 PUSH2 0x1B7A JUMPI PUSH2 0x1B79 PUSH2 0x2CC2 JUMP JUMPDEST JUMPDEST DIV SWAP3 POP PUSH1 0x4 DUP2 ADD SWAP1 POP JUMPDEST PUSH1 0x64 DUP4 LT PUSH2 0x1BA7 JUMPI PUSH1 0x64 DUP4 DUP2 PUSH2 0x1B9D JUMPI PUSH2 0x1B9C PUSH2 0x2CC2 JUMP JUMPDEST JUMPDEST DIV SWAP3 POP PUSH1 0x2 DUP2 ADD SWAP1 POP JUMPDEST PUSH1 0xA DUP4 LT PUSH2 0x1BB6 JUMPI PUSH1 0x1 DUP2 ADD SWAP1 POP JUMPDEST DUP1 SWAP2 POP POP SWAP2 SWAP1 POP JUMP JUMPDEST PUSH0 PUSH0 PUSH20 0xFFFFFFFFFFFFFFFFFFFFFFFFFFFFFFFFFFFFFFFF AND DUP4 PUSH20 0xFFFFFFFFFFFFFFFFFFFFFFFFFFFFFFFFFFFFFFFF AND EQ ISZERO DUP1 ISZERO PUSH2 0x1C76 JUMPI POP DUP3 PUSH20 0xFFFFFFFFFFFFFFFFFFFFFFFFFFFFFFFFFFFFFFFF AND DUP5 PUSH20 0xFFFFFFFFFFFFFFFFFFFFFFFFFFFFFFFFFFFFFFFF AND EQ DUP1 PUSH2 0x1C37 JUMPI POP PUSH2 0x1C36 DUP5 DUP5 PUSH2 0xCF6 JUMP JUMPDEST JUMPDEST DUP1 PUSH2 0x1C75 JUMPI POP DUP3 PUSH20 0xFFFFFFFFFFFFFFFFFFFFFFFFFFFFFFFFFFFFFFFF AND PUSH2 0x1C5D DUP4 PUSH2 0xFED JUMP JUMPDEST PUSH20 0xFFFFFFFFFFFFFFFFFFFFFFFFFFFFFFFFFFFFFFFF AND EQ JUMPDEST JUMPDEST SWAP1 POP SWAP4 SWAP3 POP POP POP JUMP JUMPDEST PUSH0 PUSH20 0xFFFFFFFFFFFFFFFFFFFFFFFFFFFFFFFFFFFFFFFF AND DUP3 PUSH20 0xFFFFFFFFFFFFFFFFFFFFFFFFFFFFFFFFFFFFFFFF AND SUB PUSH2 0x1CEF JUMPI PUSH0 PUSH1 0x40 MLOAD PUSH32 0x64A0AE9200000000000000000000000000000000000000000000000000000000 DUP2 MSTORE PUSH1 0x4 ADD PUSH2 0x1CE6 SWAP2 SWAP1 PUSH2 0x1F63 JUMP JUMPDEST PUSH1 0x40 MLOAD DUP1 SWAP2 SUB SWAP1 REVERT JUMPDEST PUSH0 PUSH2 0x1CFB DUP4 DUP4 PUSH0 PUSH2 0x103F JUMP JUMPDEST SWAP1 POP PUSH0 PUSH20 0xFFFFFFFFFFFFFFFFFFFFFFFFFFFFFFFFFFFFFFFF AND DUP2 PUSH20 0xFFFFFFFFFFFFFFFFFFFFFFFFFFFFFFFFFFFFFFFF AND EQ PUSH2 0x1D6D JUMPI PUSH0 PUSH1 0x40 MLOAD PUSH32 0x73C6AC6E00000000000000000000000000000000000000000000000000000000 DUP2 MSTORE PUSH1 0x4 ADD PUSH2 0x1D64 SWAP2 SWAP1 PUSH2 0x1F63 JUMP JUMPDEST PUSH1 0x40 MLOAD DUP1 SWAP2 SUB SWAP1 REVERT JUMPDEST POP POP POP JUMP JUMPDEST PUSH0 PUSH1 0x40 MLOAD SWAP1 POP SWAP1 JUMP JUMPDEST PUSH0 PUSH0 REVERT JUMPDEST PUSH0 PUSH0 REVERT JUMPDEST PUSH0 PUSH32 0xFFFFFFFF00000000000000000000000000000000000000000000000000000000 DUP3 AND SWAP1 POP SWAP2 SWAP1 POP JUMP JUMPDEST PUSH2 0x1DB7 DUP2 PUSH2 0x1D83 JUMP JUMPDEST DUP2 EQ PUSH2 0x1DC1 JUMPI PUSH0 PUSH0 REVERT JUMPDEST POP JUMP JUMPDEST PUSH0 DUP2 CALLDATALOAD SWAP1 POP PUSH2 0x1DD2 DUP2 PUSH2 0x1DAE JUMP JUMPDEST SWAP3 SWAP2 POP POP JUMP JUMPDEST PUSH0 PUSH1 0x20 DUP3 DUP5 SUB SLT ISZERO PUSH2 0x1DED JUMPI PUSH2 0x1DEC PUSH2 0x1D7B JUMP JUMPDEST JUMPDEST PUSH0 PUSH2 0x1DFA DUP5 DUP3 DUP6 ADD PUSH2 0x1DC4 JUMP JUMPDEST SWAP2 POP POP SWAP3 SWAP2 POP POP JUMP JUMPDEST PUSH0 DUP2 ISZERO ISZERO SWAP1 POP SWAP2 SWAP1 POP JUMP JUMPDEST PUSH2 0x1E17 DUP2 PUSH2 0x1E03 JUMP JUMPDEST DUP3 MSTORE POP POP JUMP JUMPDEST PUSH0 PUSH1 0x20 DUP3 ADD SWAP1 POP PUSH2 0x1E30 PUSH0 DUP4 ADD DUP5 PUSH2 0x1E0E JUMP JUMPDEST SWAP3 SWAP2 POP POP JUMP JUMPDEST PUSH0 DUP2 MLOAD SWAP1 POP SWAP2 SWAP1 POP JUMP JUMPDEST PUSH0 DUP3 DUP3 MSTORE PUSH1 0x20 DUP3 ADD SWAP1 POP SWAP3 SWAP2 POP POP JUMP JUMPDEST DUP3 DUP2 DUP4 MCOPY PUSH0 DUP4 DUP4 ADD MSTORE POP POP POP JUMP JUMPDEST PUSH0 PUSH1 0x1F NOT PUSH1 0x1F DUP4 ADD AND SWAP1 POP SWAP2 SWAP1 POP JUMP JUMPDEST PUSH0 PUSH2 0x1E78 DUP3 PUSH2 0x1E36 JUMP JUMPDEST PUSH2 0x1E82 DUP2 DUP6 PUSH2 0x1E40 JUMP JUMPDEST SWAP4 POP PUSH2 0x1E92 DUP2 DUP6 PUSH1 0x20 DUP7 ADD PUSH2 0x1E50 JUMP JUMPDEST PUSH2 0x1E9B DUP2 PUSH2 0x1E5E JUMP JUMPDEST DUP5 ADD SWAP2 POP POP SWAP3 SWAP2 POP POP JUMP JUMPDEST PUSH0 PUSH1 0x20 DUP3 ADD SWAP1 POP DUP2 DUP2 SUB PUSH0 DUP4 ADD MSTORE PUSH2 0x1EBE DUP2 DUP5 PUSH2 0x1E6E JUMP JUMPDEST SWAP1 POP SWAP3 SWAP2 POP POP JUMP JUMPDEST PUSH0 DUP2 SWAP1 POP SWAP2 SWAP1 POP JUMP JUMPDEST PUSH2 0x1ED8 DUP2 PUSH2 0x1EC6 JUMP JUMPDEST DUP2 EQ PUSH2 0x1EE2 JUMPI PUSH0 PUSH0 REVERT JUMPDEST POP JUMP JUMPDEST PUSH0 DUP2 CALLDATALOAD SWAP1 POP PUSH2 0x1EF3 DUP2 PUSH2 0x1ECF JUMP JUMPDEST SWAP3 SWAP2 POP POP JUMP JUMPDEST PUSH0 PUSH1 0x20 DUP3 DUP5 SUB SLT ISZERO PUSH2 0x1F0E JUMPI PUSH2 0x1F0D PUSH2 0x1D7B JUMP JUMPDEST JUMPDEST PUSH0 PUSH2 0x1F1B DUP5 DUP3 DUP6 ADD PUSH2 0x1EE5 JUMP JUMPDEST SWAP2 POP POP SWAP3 SWAP2 POP POP JUMP JUMPDEST PUSH0 PUSH20 0xFFFFFFFFFFFFFFFFFFFFFFFFFFFFFFFFFFFFFFFF DUP3 AND SWAP1 POP SWAP2 SWAP1 POP JUMP JUMPDEST PUSH0 PUSH2 0x1F4D DUP3 PUSH2 0x1F24 JUMP JUMPDEST SWAP1 POP SWAP2 SWAP1 POP JUMP JUMPDEST PUSH2 0x1F5D DUP2 PUSH2 0x1F43 JUMP JUMPDEST DUP3 MSTORE POP POP JUMP JUMPDEST PUSH0 PUSH1 0x20 DUP3 ADD SWAP1 POP PUSH2 0x1F76 PUSH0 DUP4 ADD DUP5 PUSH2 0x1F54 JUMP JUMPDEST SWAP3 SWAP2 POP POP JUMP JUMPDEST PUSH2 0x1F85 DUP2 PUSH2 0x1F43 JUMP JUMPDEST DUP2 EQ PUSH2 0x1F8F JUMPI PUSH0 PUSH0 REVERT JUMPDEST POP JUMP JUMPDEST PUSH0 DUP2 CALLDATALOAD SWAP1 POP PUSH2 0x1FA0 DUP2 PUSH2 0x1F7C JUMP JUMPDEST SWAP3 SWAP2 POP POP JUMP JUMPDEST PUSH0 PUSH0 PUSH1 0x40 DUP4 DUP6 SUB SLT ISZERO PUSH2 0x1FBC JUMPI PUSH2 0x1FBB PUSH2 0x1D7B JUMP JUMPDEST JUMPDEST PUSH0 PUSH2 0x1FC9 DUP6 DUP3 DUP7 ADD PUSH2 0x1F92 JUMP JUMPDEST SWAP3 POP POP PUSH1 0x20 PUSH2 0x1FDA DUP6 DUP3 DUP7 ADD PUSH2 0x1EE5 JUMP JUMPDEST SWAP2 POP POP SWAP3 POP SWAP3 SWAP1 POP JUMP JUMPDEST PUSH2 0x1FED DUP2 PUSH2 0x1EC6 JUMP JUMPDEST DUP3 MSTORE POP POP JUMP JUMPDEST PUSH0 PUSH1 0x20 DUP3 ADD SWAP1 POP PUSH2 0x2006 PUSH0 DUP4 ADD DUP5 PUSH2 0x1FE4 JUMP JUMPDEST SWAP3 SWAP2 POP POP JUMP JUMPDEST PUSH0 PUSH0 PUSH0 PUSH1 0x60 DUP5 DUP7 SUB SLT ISZERO PUSH2 0x2023 JUMPI PUSH2 0x2022 PUSH2 0x1D7B JUMP JUMPDEST JUMPDEST PUSH0 PUSH2 0x2030 DUP7 DUP3 DUP8 ADD PUSH2 0x1F92 JUMP JUMPDEST SWAP4 POP POP PUSH1 0x20 PUSH2 0x2041 DUP7 DUP3 DUP8 ADD PUSH2 0x1F92 JUMP JUMPDEST SWAP3 POP POP PUSH1 0x40 PUSH2 0x2052 DUP7 DUP3 DUP8 ADD PUSH2 0x1EE5 JUMP JUMPDEST SWAP2 POP POP SWAP3 POP SWAP3 POP SWAP3 JUMP JUMPDEST PUSH0 DUP2 SWAP1 POP SWAP2 SWAP1 POP JUMP JUMPDEST PUSH0 PUSH2 0x207F PUSH2 0x207A PUSH2 0x2075 DUP5 PUSH2 0x1F24 JUMP JUMPDEST PUSH2 0x205C JUMP JUMPDEST PUSH2 0x1F24 JUMP JUMPDEST SWAP1 POP SWAP2 SWAP1 POP JUMP JUMPDEST PUSH0 PUSH2 0x2090 DUP3 PUSH2 0x2065 JUMP JUMPDEST SWAP1 POP SWAP2 SWAP1 POP JUMP JUMPDEST PUSH0 PUSH2 0x20A1 DUP3 PUSH2 0x2086 JUMP JUMPDEST SWAP1 POP SWAP2 SWAP1 POP JUMP JUMPDEST PUSH2 0x20B1 DUP2 PUSH2 0x2097 JUMP JUMPDEST DUP3 MSTORE POP POP JUMP JUMPDEST PUSH0 PUSH1 0x20 DUP3 ADD SWAP1 POP PUSH2 0x20CA PUSH0 DUP4 ADD DUP5 PUSH2 0x20A8 JUMP JUMPDEST SWAP3 SWAP2 POP POP JUMP JUMPDEST PUSH0 PUSH0 REVERT JUMPDEST PUSH0 PUSH0 REVERT JUMPDEST PUSH32 0x4E487B7100000000000000000000000000000000000000000000000000000000 PUSH0 MSTORE PUSH1 0x41 PUSH1 0x4 MSTORE PUSH1 0x24 PUSH0 REVERT JUMPDEST PUSH2 0x210E DUP3 PUSH2 0x1E5E JUMP JUMPDEST DUP2 ADD DUP2 DUP2 LT PUSH8 0xFFFFFFFFFFFFFFFF DUP3 GT OR ISZERO PUSH2 0x212D JUMPI PUSH2 0x212C PUSH2 0x20D8 JUMP JUMPDEST JUMPDEST DUP1 PUSH1 0x40 MSTORE POP POP POP JUMP JUMPDEST PUSH0 PUSH2 0x213F PUSH2 0x1D72 JUMP JUMPDEST SWAP1 POP PUSH2 0x214B DUP3 DUP3 PUSH2 0x2105 JUMP JUMPDEST SWAP2 SWAP1 POP JUMP JUMPDEST PUSH0 PUSH8 0xFFFFFFFFFFFFFFFF DUP3 GT ISZERO PUSH2 0x216A JUMPI PUSH2 0x2169 PUSH2 0x20D8 JUMP JUMPDEST JUMPDEST PUSH2 0x2173 DUP3 PUSH2 0x1E5E JUMP JUMPDEST SWAP1 POP PUSH1 0x20 DUP2 ADD SWAP1 POP SWAP2 SWAP1 POP JUMP JUMPDEST DUP3 DUP2 DUP4 CALLDATACOPY PUSH0 DUP4 DUP4 ADD MSTORE POP POP POP JUMP JUMPDEST PUSH0 PUSH2 0x21A0 PUSH2 0x219B DUP5 PUSH2 0x2150 JUMP JUMPDEST PUSH2 0x2136 JUMP JUMPDEST SWAP1 POP DUP3 DUP2 MSTORE PUSH1 0x20 DUP2 ADD DUP5 DUP5 DUP5 ADD GT ISZERO PUSH2 0x21BC JUMPI PUSH2 0x21BB PUSH2 0x20D4 JUMP JUMPDEST JUMPDEST PUSH2 0x21C7 DUP5 DUP3 DUP6 PUSH2 0x2180 JUMP JUMPDEST POP SWAP4 SWAP3 POP POP POP JUMP JUMPDEST PUSH0 DUP3 PUSH1 0x1F DUP4 ADD SLT PUSH2 0x21E3 JUMPI PUSH2 0x21E2 PUSH2 0x20D0 JUMP JUMPDEST JUMPDEST DUP2 CALLDATALOAD PUSH2 0x21F3 DUP5 DUP3 PUSH1 0x20 DUP7 ADD PUSH2 0x218E JUMP JUMPDEST SWAP2 POP POP SWAP3 SWAP2 POP POP JUMP JUMPDEST PUSH0 PUSH1 0x20 DUP3 DUP5 SUB SLT ISZERO PUSH2 0x2211 JUMPI PUSH2 0x2210 PUSH2 0x1D7B JUMP JUMPDEST JUMPDEST PUSH0 DUP3 ADD CALLDATALOAD PUSH8 0xFFFFFFFFFFFFFFFF DUP2 GT ISZERO PUSH2 0x222E JUMPI PUSH2 0x222D PUSH2 0x1D7F JUMP JUMPDEST JUMPDEST PUSH2 0x223A DUP5 DUP3 DUP6 ADD PUSH2 0x21CF JUMP JUMPDEST SWAP2 POP POP SWAP3 SWAP2 POP POP JUMP JUMPDEST PUSH0 PUSH1 0x20 DUP3 DUP5 SUB SLT ISZERO PUSH2 0x2258 JUMPI PUSH2 0x2257 PUSH2 0x1D7B JUMP JUMPDEST JUMPDEST PUSH0 PUSH2 0x2265 DUP5 DUP3 DUP6 ADD PUSH2 0x1F92 JUMP JUMPDEST SWAP2 POP POP SWAP3 SWAP2 POP POP JUMP JUMPDEST PUSH2 0x2277 DUP2 PUSH2 0x1E03 JUMP JUMPDEST DUP2 EQ PUSH2 0x2281 JUMPI PUSH0 PUSH0 REVERT JUMPDEST POP JUMP JUMPDEST PUSH0 DUP2 CALLDATALOAD SWAP1 POP PUSH2 0x2292 DUP2 PUSH2 0x226E JUMP JUMPDEST SWAP3 SWAP2 POP POP JUMP JUMPDEST PUSH0 PUSH0 PUSH1 0x40 DUP4 DUP6 SUB SLT ISZERO PUSH2 0x22AE JUMPI PUSH2 0x22AD PUSH2 0x1D7B JUMP JUMPDEST JUMPDEST PUSH0 PUSH2 0x22BB DUP6 DUP3 DUP7 ADD PUSH2 0x1F92 JUMP JUMPDEST SWAP3 POP POP PUSH1 0x20 PUSH2 0x22CC DUP6 DUP3 DUP7 ADD PUSH2 0x2284 JUMP JUMPDEST SWAP2 POP POP SWAP3 POP SWAP3 SWAP1 POP JUMP JUMPDEST PUSH0 PUSH8 0xFFFFFFFFFFFFFFFF DUP3 GT ISZERO PUSH2 0x22F0 JUMPI PUSH2 0x22EF PUSH2 0x20D8 JUMP JUMPDEST JUMPDEST PUSH2 0x22F9 DUP3 PUSH2 0x1E5E JUMP JUMPDEST SWAP1 POP PUSH1 0x20 DUP2 ADD SWAP1 POP SWAP2 SWAP1 POP JUMP JUMPDEST PUSH0 PUSH2 0x2318 PUSH2 0x2313 DUP5 PUSH2 0x22D6 JUMP JUMPDEST PUSH2 0x2136 JUMP JUMPDEST SWAP1 POP DUP3 DUP2 MSTORE PUSH1 0x20 DUP2 ADD DUP5 DUP5 DUP5 ADD GT ISZERO PUSH2 0x2334 JUMPI PUSH2 0x2333 PUSH2 0x20D4 JUMP JUMPDEST JUMPDEST PUSH2 0x233F DUP5 DUP3 DUP6 PUSH2 0x2180 JUMP JUMPDEST POP SWAP4 SWAP3 POP POP POP JUMP JUMPDEST PUSH0 DUP3 PUSH1 0x1F DUP4 ADD SLT PUSH2 0x235B JUMPI PUSH2 0x235A PUSH2 0x20D0 JUMP JUMPDEST JUMPDEST DUP2 CALLDATALOAD PUSH2 0x236B DUP5 DUP3 PUSH1 0x20 DUP7 ADD PUSH2 0x2306 JUMP JUMPDEST SWAP2 POP POP SWAP3 SWAP2 POP POP JUMP JUMPDEST PUSH0 PUSH0 PUSH0 PUSH0 PUSH1 0x80 DUP6 DUP8 SUB SLT ISZERO PUSH2 0x238C JUMPI PUSH2 0x238B PUSH2 0x1D7B JUMP JUMPDEST JUMPDEST PUSH0 PUSH2 0x2399 DUP8 DUP3 DUP9 ADD PUSH2 0x1F92 JUMP JUMPDEST SWAP5 POP POP PUSH1 0x20 PUSH2 0x23AA DUP8 DUP3 DUP9 ADD PUSH2 0x1F92 JUMP JUMPDEST SWAP4 POP POP PUSH1 0x40 PUSH2 0x23BB DUP8 DUP3 DUP9 ADD PUSH2 0x1EE5 JUMP JUMPDEST SWAP3 POP POP PUSH1 0x60 DUP6 ADD CALLDATALOAD PUSH8 0xFFFFFFFFFFFFFFFF DUP2 GT ISZERO PUSH2 0x23DC JUMPI PUSH2 0x23DB PUSH2 0x1D7F JUMP JUMPDEST JUMPDEST PUSH2 0x23E8 DUP8 DUP3 DUP9 ADD PUSH2 0x2347 JUMP JUMPDEST SWAP2 POP POP SWAP3 SWAP6 SWAP2 SWAP5 POP SWAP3 POP JUMP JUMPDEST PUSH0 PUSH0 PUSH1 0x40 DUP4 DUP6 SUB SLT ISZERO PUSH2 0x240A JUMPI PUSH2 0x2409 PUSH2 0x1D7B JUMP JUMPDEST JUMPDEST PUSH0 PUSH2 0x2417 DUP6 DUP3 DUP7 ADD PUSH2 0x1F92 JUMP JUMPDEST SWAP3 POP POP PUSH1 0x20 PUSH2 0x2428 DUP6 DUP3 DUP7 ADD PUSH2 0x1F92 JUMP JUMPDEST SWAP2 POP POP SWAP3 POP SWAP3 SWAP1 POP JUMP JUMPDEST PUSH32 0x4E487B7100000000000000000000000000000000000000000000000000000000 PUSH0 MSTORE PUSH1 0x22 PUSH1 0x4 MSTORE PUSH1 0x24 PUSH0 REVERT JUMPDEST PUSH0 PUSH1 0x2 DUP3 DIV SWAP1 POP PUSH1 0x1 DUP3 AND DUP1 PUSH2 0x2476 JUMPI PUSH1 0x7F DUP3 AND SWAP2 POP JUMPDEST PUSH1 0x20 DUP3 LT DUP2 SUB PUSH2 0x2489 JUMPI PUSH2 0x2488 PUSH2 0x2432 JUMP JUMPDEST JUMPDEST POP SWAP2 SWAP1 POP JUMP JUMPDEST PUSH0 PUSH1 0x60 DUP3 ADD SWAP1 POP PUSH2 0x24A2 PUSH0 DUP4 ADD DUP7 PUSH2 0x1F54 JUMP JUMPDEST PUSH2 0x24AF PUSH1 0x20 DUP4 ADD DUP6 PUSH2 0x1FE4 JUMP JUMPDEST PUSH2 0x24BC PUSH1 0x40 DUP4 ADD DUP5 PUSH2 0x1F54 JUMP JUMPDEST SWAP5 SWAP4 POP POP POP POP JUMP JUMPDEST PUSH0 DUP2 SWAP1 POP DUP2 PUSH0 MSTORE PUSH1 0x20 PUSH0 KECCAK256 SWAP1 POP SWAP2 SWAP1 POP JUMP JUMPDEST PUSH0 PUSH1 0x20 PUSH1 0x1F DUP4 ADD DIV SWAP1 POP SWAP2 SWAP1 POP JUMP JUMPDEST PUSH0 DUP3 DUP3 SHL SWAP1 POP SWAP3 SWAP2 POP POP JUMP JUMPDEST PUSH0 PUSH1 0x8 DUP4 MUL PUSH2 0x2520 PUSH32 0xFFFFFFFFFFFFFFFFFFFFFFFFFFFFFFFFFFFFFFFFFFFFFFFFFFFFFFFFFFFFFFFF DUP3 PUSH2 0x24E5 JUMP JUMPDEST PUSH2 0x252A DUP7 DUP4 PUSH2 0x24E5 JUMP JUMPDEST SWAP6 POP DUP1 NOT DUP5 AND SWAP4 POP DUP1 DUP7 AND DUP5 OR SWAP3 POP POP POP SWAP4 SWAP3 POP POP POP JUMP JUMPDEST PUSH0 PUSH2 0x255C PUSH2 0x2557 PUSH2 0x2552 DUP5 PUSH2 0x1EC6 JUMP JUMPDEST PUSH2 0x205C JUMP JUMPDEST PUSH2 0x1EC6 JUMP JUMPDEST SWAP1 POP SWAP2 SWAP1 POP JUMP JUMPDEST PUSH0 DUP2 SWAP1 POP SWAP2 SWAP1 POP JUMP JUMPDEST PUSH2 0x2575 DUP4 PUSH2 0x2542 JUMP JUMPDEST PUSH2 0x2589 PUSH2 0x2581 DUP3 PUSH2 0x2563 JUMP JUMPDEST DUP5 DUP5 SLOAD PUSH2 0x24F1 JUMP JUMPDEST DUP3 SSTORE POP POP POP POP JUMP JUMPDEST PUSH0 PUSH0 SWAP1 POP SWAP1 JUMP JUMPDEST PUSH2 0x25A0 PUSH2 0x2591 JUMP JUMPDEST PUSH2 0x25AB DUP2 DUP5 DUP5 PUSH2 0x256C JUMP JUMPDEST POP POP POP JUMP JUMPDEST JUMPDEST DUP2 DUP2 LT ISZERO PUSH2 0x25CE JUMPI PUSH2 0x25C3 PUSH0 DUP3 PUSH2 0x2598 JUMP JUMPDEST PUSH1 0x1 DUP2 ADD SWAP1 POP PUSH2 0x25B1 JUMP JUMPDEST POP POP JUMP JUMPDEST PUSH1 0x1F DUP3 GT ISZERO PUSH2 0x2613 JUMPI PUSH2 0x25E4 DUP2 PUSH2 0x24C4 JUMP JUMPDEST PUSH2 0x25ED DUP5 PUSH2 0x24D6 JUMP JUMPDEST DUP2 ADD PUSH1 0x20 DUP6 LT ISZERO PUSH2 0x25FC JUMPI DUP2 SWAP1 POP JUMPDEST PUSH2 0x2610 PUSH2 0x2608 DUP6 PUSH2 0x24D6 JUMP JUMPDEST DUP4 ADD DUP3 PUSH2 0x25B0 JUMP JUMPDEST POP POP JUMPDEST POP POP POP JUMP JUMPDEST PUSH0 DUP3 DUP3 SHR SWAP1 POP SWAP3 SWAP2 POP POP JUMP JUMPDEST PUSH0 PUSH2 0x2633 PUSH0 NOT DUP5 PUSH1 0x8 MUL PUSH2 0x2618 JUMP JUMPDEST NOT DUP1 DUP4 AND SWAP2 POP POP SWAP3 SWAP2 POP POP JUMP JUMPDEST PUSH0 PUSH2 0x264B DUP4 DUP4 PUSH2 0x2624 JUMP JUMPDEST SWAP2 POP DUP3 PUSH1 0x2 MUL DUP3 OR SWAP1 POP SWAP3 SWAP2 POP POP JUMP JUMPDEST PUSH2 0x2664 DUP3 PUSH2 0x1E36 JUMP JUMPDEST PUSH8 0xFFFFFFFFFFFFFFFF DUP2 GT ISZERO PUSH2 0x267D JUMPI PUSH2 0x267C PUSH2 0x20D8 JUMP JUMPDEST JUMPDEST PUSH2 0x2687 DUP3 SLOAD PUSH2 0x245F JUMP JUMPDEST PUSH2 0x2692 DUP3 DUP3 DUP6 PUSH2 0x25D2 JUMP JUMPDEST PUSH0 PUSH1 0x20 SWAP1 POP PUSH1 0x1F DUP4 GT PUSH1 0x1 DUP2 EQ PUSH2 0x26C3 JUMPI PUSH0 DUP5 ISZERO PUSH2 0x26B1 JUMPI DUP3 DUP8 ADD MLOAD SWAP1 POP JUMPDEST PUSH2 0x26BB DUP6 DUP3 PUSH2 0x2640 JUMP JUMPDEST DUP7 SSTORE POP PUSH2 0x2722 JUMP JUMPDEST PUSH1 0x1F NOT DUP5 AND PUSH2 0x26D1 DUP7 PUSH2 0x24C4 JUMP JUMPDEST PUSH0 JUMPDEST DUP3 DUP2 LT ISZERO PUSH2 0x26F8 JUMPI DUP5 DUP10 ADD MLOAD DUP3 SSTORE PUSH1 0x1 DUP3 ADD SWAP2 POP PUSH1 0x20 DUP6 ADD SWAP5 POP PUSH1 0x20 DUP2 ADD SWAP1 POP PUSH2 0x26D3 JUMP JUMPDEST DUP7 DUP4 LT ISZERO PUSH2 0x2715 JUMPI DUP5 DUP10 ADD MLOAD PUSH2 0x2711 PUSH1 0x1F DUP10 AND DUP3 PUSH2 0x2624 JUMP JUMPDEST DUP4 SSTORE POP JUMPDEST PUSH1 0x1 PUSH1 0x2 DUP9 MUL ADD DUP9 SSTORE POP POP POP JUMPDEST POP POP POP POP POP POP JUMP JUMPDEST PUSH32 0x7174793D30000000000000000000000000000000000000000000000000000000 PUSH0 DUP3 ADD MSTORE POP JUMP JUMPDEST PUSH0 PUSH2 0x275E PUSH1 0x5 DUP4 PUSH2 0x1E40 JUMP JUMPDEST SWAP2 POP PUSH2 0x2769 DUP3 PUSH2 0x272A JUMP JUMPDEST PUSH1 0x20 DUP3 ADD SWAP1 POP SWAP2 SWAP1 POP JUMP JUMPDEST PUSH0 PUSH1 0x20 DUP3 ADD SWAP1 POP DUP2 DUP2 SUB PUSH0 DUP4 ADD MSTORE PUSH2 0x278B DUP2 PUSH2 0x2752 JUMP JUMPDEST SWAP1 POP SWAP2 SWAP1 POP JUMP JUMPDEST PUSH32 0x4E487B7100000000000000000000000000000000000000000000000000000000 PUSH0 MSTORE PUSH1 0x11 PUSH1 0x4 MSTORE PUSH1 0x24 PUSH0 REVERT JUMPDEST PUSH0 PUSH2 0x27C9 DUP3 PUSH2 0x1EC6 JUMP JUMPDEST SWAP2 POP PUSH2 0x27D4 DUP4 PUSH2 0x1EC6 JUMP JUMPDEST SWAP3 POP DUP3 DUP3 ADD SWAP1 POP DUP1 DUP3 GT ISZERO PUSH2 0x27EC JUMPI PUSH2 0x27EB PUSH2 0x2792 JUMP JUMPDEST JUMPDEST SWAP3 SWAP2 POP POP JUMP JUMPDEST PUSH32 0x736F6C64206F7574000000000000000000000000000000000000000000000000 PUSH0 DUP3 ADD MSTORE POP JUMP JUMPDEST PUSH0 PUSH2 0x2826 PUSH1 0x8 DUP4 PUSH2 0x1E40 JUMP JUMPDEST SWAP2 POP PUSH2 0x2831 DUP3 PUSH2 0x27F2 JUMP JUMPDEST PUSH1 0x20 DUP3 ADD SWAP1 POP SWAP2 SWAP1 POP JUMP JUMPDEST PUSH0 PUSH1 0x20 DUP3 ADD SWAP1 POP DUP2 DUP2 SUB PUSH0 DUP4 ADD MSTORE PUSH2 0x2853 DUP2 PUSH2 0x281A JUMP JUMPDEST SWAP1 POP SWAP2 SWAP1 POP JUMP JUMPDEST PUSH0 PUSH2 0x2864 DUP3 PUSH2 0x1EC6 JUMP JUMPDEST SWAP2 POP PUSH2 0x286F DUP4 PUSH2 0x1EC6 JUMP JUMPDEST SWAP3 POP DUP3 DUP3 MUL PUSH2 0x287D DUP2 PUSH2 0x1EC6 JUMP JUMPDEST SWAP2 POP DUP3 DUP3 DIV DUP5 EQ DUP4 ISZERO OR PUSH2 0x2894 JUMPI PUSH2 0x2893 PUSH2 0x2792 JUMP JUMPDEST JUMPDEST POP SWAP3 SWAP2 POP POP JUMP JUMPDEST PUSH0 PUSH1 0x60 DUP3 ADD SWAP1 POP PUSH2 0x28AE PUSH0 DUP4 ADD DUP7 PUSH2 0x1F54 JUMP JUMPDEST PUSH2 0x28BB PUSH1 0x20 DUP4 ADD DUP6 PUSH2 0x1F54 JUMP JUMPDEST PUSH2 0x28C8 PUSH1 0x40 DUP4 ADD DUP5 PUSH2 0x1FE4 JUMP JUMPDEST SWAP5 SWAP4 POP POP POP POP JUMP JUMPDEST PUSH0 DUP2 MLOAD SWAP1 POP PUSH2 0x28DE DUP2 PUSH2 0x226E JUMP JUMPDEST SWAP3 SWAP2 POP POP JUMP JUMPDEST PUSH0 PUSH1 0x20 DUP3 DUP5 SUB SLT ISZERO PUSH2 0x28F9 JUMPI PUSH2 0x28F8 PUSH2 0x1D7B JUMP JUMPDEST JUMPDEST PUSH0 PUSH2 0x2906 DUP5 DUP3 DUP6 ADD PUSH2 0x28D0 JUMP JUMPDEST SWAP2 POP POP SWAP3 SWAP2 POP POP JUMP JUMPDEST PUSH32 0x43424F207472616E73666572206661696C000000000000000000000000000000 PUSH0 DUP3 ADD MSTORE POP JUMP JUMPDEST PUSH0 PUSH2 0x2943 PUSH1 0x11 DUP4 PUSH2 0x1E40 JUMP JUMPDEST SWAP2 POP PUSH2 0x294E DUP3 PUSH2 0x290F JUMP JUMPDEST PUSH1 0x20 DUP3 ADD SWAP1 POP SWAP2 SWAP1 POP JUMP JUMPDEST PUSH0 PUSH1 0x20 DUP3 ADD SWAP1 POP DUP2 DUP2 SUB PUSH0 DUP4 ADD MSTORE PUSH2 0x2970 DUP2 PUSH2 0x2937 JUMP JUMPDEST SWAP1 POP SWAP2 SWAP1 POP JUMP JUMPDEST PUSH0 PUSH2 0x2981 DUP3 PUSH2 0x1EC6 JUMP JUMPDEST SWAP2 POP PUSH32 0xFFFFFFFFFFFFFFFFFFFFFFFFFFFFFFFFFFFFFFFFFFFFFFFFFFFFFFFFFFFFFFFF DUP3 SUB PUSH2 0x29B3 JUMPI PUSH2 0x29B2 PUSH2 0x2792 JUMP JUMPDEST JUMPDEST PUSH1 0x1 DUP3 ADD SWAP1 POP SWAP2 SWAP1 POP JUMP JUMPDEST PUSH0 PUSH1 0x40 DUP3 ADD SWAP1 POP PUSH2 0x29D1 PUSH0 DUP4 ADD DUP6 PUSH2 0x1FE4 JUMP JUMPDEST PUSH2 0x29DE PUSH1 0x20 DUP4 ADD DUP5 PUSH2 0x1FE4 JUMP JUMPDEST SWAP4 SWAP3 POP POP POP JUMP JUMPDEST PUSH0 DUP2 SWAP1 POP SWAP3 SWAP2 POP POP JUMP JUMPDEST PUSH0 DUP2 SLOAD PUSH2 0x29FB DUP2 PUSH2 0x245F JUMP JUMPDEST PUSH2 0x2A05 DUP2 DUP7 PUSH2 0x29E5 JUMP JUMPDEST SWAP5 POP PUSH1 0x1 DUP3 AND PUSH0 DUP2 EQ PUSH2 0x2A1F JUMPI PUSH1 0x1 DUP2 EQ PUSH2 0x2A34 JUMPI PUSH2 0x2A66 JUMP JUMPDEST PUSH1 0xFF NOT DUP4 AND DUP7 MSTORE DUP2 ISZERO ISZERO DUP3 MUL DUP7 ADD SWAP4 POP PUSH2 0x2A66 JUMP JUMPDEST PUSH2 0x2A3D DUP6 PUSH2 0x24C4 JUMP JUMPDEST PUSH0 JUMPDEST DUP4 DUP2 LT ISZERO PUSH2 0x2A5E JUMPI DUP2 SLOAD DUP2 DUP10 ADD MSTORE PUSH1 0x1 DUP3 ADD SWAP2 POP PUSH1 0x20 DUP2 ADD SWAP1 POP PUSH2 0x2A3F JUMP JUMPDEST DUP4 DUP9 ADD SWAP6 POP POP POP JUMPDEST POP POP POP SWAP3 SWAP2 POP POP JUMP JUMPDEST PUSH0 PUSH2 0x2A79 DUP3 PUSH2 0x1E36 JUMP JUMPDEST PUSH2 0x2A83 DUP2 DUP6 PUSH2 0x29E5 JUMP JUMPDEST SWAP4 POP PUSH2 0x2A93 DUP2 DUP6 PUSH1 0x20 DUP7 ADD PUSH2 0x1E50 JUMP JUMPDEST DUP1 DUP5 ADD SWAP2 POP POP SWAP3 SWAP2 POP POP JUMP JUMPDEST PUSH32 0x2E706E6700000000000000000000000000000000000000000000000000000000 PUSH0 DUP3 ADD MSTORE POP JUMP JUMPDEST PUSH0 PUSH2 0x2AD3 PUSH1 0x4 DUP4 PUSH2 0x29E5 JUMP JUMPDEST SWAP2 POP PUSH2 0x2ADE DUP3 PUSH2 0x2A9F JUMP JUMPDEST PUSH1 0x4 DUP3 ADD SWAP1 POP SWAP2 SWAP1 POP JUMP JUMPDEST PUSH0 PUSH2 0x2AF4 DUP3 DUP6 PUSH2 0x29EF JUMP JUMPDEST SWAP2 POP PUSH2 0x2B00 DUP3 DUP5 PUSH2 0x2A6F JUMP JUMPDEST SWAP2 POP PUSH2 0x2B0B DUP3 PUSH2 0x2AC7 JUMP JUMPDEST SWAP2 POP DUP2 SWAP1 POP SWAP4 SWAP3 POP POP POP JUMP JUMPDEST PUSH32 0x70726963653D3000000000000000000000000000000000000000000000000000 PUSH0 DUP3 ADD MSTORE POP JUMP JUMPDEST PUSH0 PUSH2 0x2B4B PUSH1 0x7 DUP4 PUSH2 0x1E40 JUMP JUMPDEST SWAP2 POP PUSH2 0x2B56 DUP3 PUSH2 0x2B17 JUMP JUMPDEST PUSH1 0x20 DUP3 ADD SWAP1 POP SWAP2 SWAP1 POP JUMP JUMPDEST PUSH0 PUSH1 0x20 DUP3 ADD SWAP1 POP DUP2 DUP2 SUB PUSH0 DUP4 ADD MSTORE PUSH2 0x2B78 DUP2 PUSH2 0x2B3F JUMP JUMPDEST SWAP1 POP SWAP2 SWAP1 POP JUMP JUMPDEST PUSH32 0x74726561737572793D3000000000000000000000000000000000000000000000 PUSH0 DUP3 ADD MSTORE POP JUMP JUMPDEST PUSH0 PUSH2 0x2BB3 PUSH1 0xA DUP4 PUSH2 0x1E40 JUMP JUMPDEST SWAP2 POP PUSH2 0x2BBE DUP3 PUSH2 0x2B7F JUMP JUMPDEST PUSH1 0x20 DUP3 ADD SWAP1 POP SWAP2 SWAP1 POP JUMP JUMPDEST PUSH0 PUSH1 0x20 DUP3 ADD SWAP1 POP DUP2 DUP2 SUB PUSH0 DUP4 ADD MSTORE PUSH2 0x2BE0 DUP2 PUSH2 0x2BA7 JUMP JUMPDEST SWAP1 POP SWAP2 SWAP1 POP JUMP JUMPDEST PUSH0 DUP2 MLOAD SWAP1 POP SWAP2 SWAP1 POP JUMP JUMPDEST PUSH0 DUP3 DUP3 MSTORE PUSH1 0x20 DUP3 ADD SWAP1 POP SWAP3 SWAP2 POP POP JUMP JUMPDEST PUSH0 PUSH2 0x2C0B DUP3 PUSH2 0x2BE7 JUMP JUMPDEST PUSH2 0x2C15 DUP2 DUP6 PUSH2 0x2BF1 JUMP JUMPDEST SWAP4 POP PUSH2 0x2C25 DUP2 DUP6 PUSH1 0x20 DUP7 ADD PUSH2 0x1E50 JUMP JUMPDEST PUSH2 0x2C2E DUP2 PUSH2 0x1E5E JUMP JUMPDEST DUP5 ADD SWAP2 POP POP SWAP3 SWAP2 POP POP JUMP JUMPDEST PUSH0 PUSH1 0x80 DUP3 ADD SWAP1 POP PUSH2 0x2C4C PUSH0 DUP4 ADD DUP8 PUSH2 0x1F54 JUMP JUMPDEST PUSH2 0x2C59 PUSH1 0x20 DUP4 ADD DUP7 PUSH2 0x1F54 JUMP JUMPDEST PUSH2 0x2C66 PUSH1 0x40 DUP4 ADD DUP6 PUSH2 0x1FE4 JUMP JUMPDEST DUP2 DUP2 SUB PUSH1 0x60 DUP4 ADD MSTORE PUSH2 0x2C78 DUP2 DUP5 PUSH2 0x2C01 JUMP JUMPDEST SWAP1 POP SWAP6 SWAP5 POP POP POP POP POP JUMP JUMPDEST PUSH0 DUP2 MLOAD SWAP1 POP PUSH2 0x2C91 DUP2 PUSH2 0x1DAE JUMP JUMPDEST SWAP3 SWAP2 POP POP JUMP JUMPDEST PUSH0 PUSH1 0x20 DUP3 DUP5 SUB SLT ISZERO PUSH2 0x2CAC JUMPI PUSH2 0x2CAB PUSH2 0x1D7B JUMP JUMPDEST JUMPDEST PUSH0 PUSH2 0x2CB9 DUP5 DUP3 DUP6 ADD PUSH2 0x2C83 JUMP JUMPDEST SWAP2 POP POP SWAP3 SWAP2 POP POP JUMP JUMPDEST PUSH32 0x4E487B7100000000000000000000000000000000000000000000000000000000 PUSH0 MSTORE PUSH1 0x12 PUSH1 0x4 MSTORE PUSH1 0x24 PUSH0 REVERT JUMPDEST PUSH0 PUSH1 0x40 DUP3 ADD SWAP1 POP PUSH2 0x2D02 PUSH0 DUP4 ADD DUP6 PUSH2 0x1F54 JUMP JUMPDEST PUSH2 0x2D0F PUSH1 0x20 DUP4 ADD DUP5 PUSH2 0x1FE4 JUMP JUMPDEST SWAP4 SWAP3 POP POP POP JUMP INVALID LOG2 PUSH5 0x6970667358 0x22 SLT KECCAK256 MUL POP PUSH17 0xE199AA05ACB4383330EE60EB7DDCE44E65 0xCB 0xA7 SIGNEXTEND PUSH11 0x4EB300FB2AC049DD64736F PUSH13 0x634300081E0033000000000000 "
	},
	"Assembly": ".code\n  PUSH A0\t\t\tcontract Experience721 is ERC7...\n  PUSH 40\t\t\tcontract Experience721 is ERC7...\n  MSTORE \t\t\tcontract Experience721 is ERC7...\n  PUSH 1\t\t\t1\n  PUSH C\t\t\tuint256 private _nextId = 1\n  SSTORE \t\t\tuint256 private _nextId = 1\n  CALLVALUE \t\t\tconstructor(\\n        address ...\n  DUP1 \t\t\tconstructor(\\n        address ...\n  ISZERO \t\t\tconstructor(\\n        address ...\n  PUSH [tag] 1\t\t\tconstructor(\\n        address ...\n  JUMPI \t\t\tconstructor(\\n        address ...\n  PUSH 0\t\t\tconstructor(\\n        address ...\n  PUSH 0\t\t\tconstructor(\\n        address ...\n  REVERT \t\t\tconstructor(\\n        address ...\ntag 1\t\t\tconstructor(\\n        address ...\n  JUMPDEST \t\t\tconstructor(\\n        address ...\n  POP \t\t\tconstructor(\\n        address ...\n  PUSH 40\t\t\tconstructor(\\n        address ...\n  MLOAD \t\t\tconstructor(\\n        address ...\n  PUSHSIZE \t\t\tconstructor(\\n        address ...\n  CODESIZE \t\t\tconstructor(\\n        address ...\n  SUB \t\t\tconstructor(\\n        address ...\n  DUP1 \t\t\tconstructor(\\n        address ...\n  PUSHSIZE \t\t\tconstructor(\\n        address ...\n  DUP4 \t\t\tconstructor(\\n        address ...\n  CODECOPY \t\t\tconstructor(\\n        address ...\n  DUP2 \t\t\tconstructor(\\n        address ...\n  DUP2 \t\t\tconstructor(\\n        address ...\n  ADD \t\t\tconstructor(\\n        address ...\n  PUSH 40\t\t\tconstructor(\\n        address ...\n  MSTORE \t\t\tconstructor(\\n        address ...\n  DUP2 \t\t\tconstructor(\\n        address ...\n  ADD \t\t\tconstructor(\\n        address ...\n  SWAP1 \t\t\tconstructor(\\n        address ...\n  PUSH [tag] 2\t\t\tconstructor(\\n        address ...\n  SWAP2 \t\t\tconstructor(\\n        address ...\n  SWAP1 \t\t\tconstructor(\\n        address ...\n  PUSH [tag] 3\t\t\tconstructor(\\n        address ...\n  JUMP \t\t\tconstructor(\\n        address ...\ntag 2\t\t\tconstructor(\\n        address ...\n  JUMPDEST \t\t\tconstructor(\\n        address ...\n  CALLER \t\t\tsg.sender)\n  PUSH 40\t\t\ttps://.../ipfs/<CID>/\"\\n    ) ...\n  MLOAD \t\t\ttps://.../ipfs/<CID>/\"\\n    ) ...\n  DUP1 \t\t\ttps://.../ipfs/<CID>/\"\\n    ) ...\n  PUSH 40\t\t\ttps://.../ipfs/<CID>/\"\\n    ) ...\n  ADD \t\t\ttps://.../ipfs/<CID>/\"\\n    ) ...\n  PUSH 40\t\t\ttps://.../ipfs/<CID>/\"\\n    ) ...\n  MSTORE \t\t\ttps://.../ipfs/<CID>/\"\\n    ) ...\n  DUP1 \t\t\ttps://.../ipfs/<CID>/\"\\n    ) ...\n  PUSH D\t\t\ttps://.../ipfs/<CID>/\"\\n    ) ...\n  DUP2 \t\t\ttps://.../ipfs/<CID>/\"\\n    ) ...\n  MSTORE \t\t\ttps://.../ipfs/<CID>/\"\\n    ) ...\n  PUSH 20\t\t\ttps://.../ipfs/<CID>/\"\\n    ) ...\n  ADD \t\t\ttps://.../ipfs/<CID>/\"\\n    ) ...\n  PUSH 457870657269656E636537323100000000000000000000000000000000000000\t\t\ttps://.../ipfs/<CID>/\"\\n    ) ...\n  DUP2 \t\t\ttps://.../ipfs/<CID>/\"\\n    ) ...\n  MSTORE \t\t\ttps://.../ipfs/<CID>/\"\\n    ) ...\n  POP \t\t\ttps://.../ipfs/<CID>/\"\\n    ) ...\n  PUSH 40\t\t\ttps://.../ipfs/<CID>/\"\\n    ) ...\n  MLOAD \t\t\ttps://.../ipfs/<CID>/\"\\n    ) ...\n  DUP1 \t\t\ttps://.../ipfs/<CID>/\"\\n    ) ...\n  PUSH 40\t\t\ttps://.../ipfs/<CID>/\"\\n    ) ...\n  ADD \t\t\ttps://.../ipfs/<CID>/\"\\n    ) ...\n  PUSH 40\t\t\ttps://.../ipfs/<CID>/\"\\n    ) ...\n  MSTORE \t\t\ttps://.../ipfs/<CID>/\"\\n    ) ...\n  DUP1 \t\t\ttps://.../ipfs/<CID>/\"\\n    ) ...\n  PUSH 3\t\t\ttps://.../ipfs/<CID>/\"\\n    ) ...\n  DUP2 \t\t\ttps://.../ipfs/<CID>/\"\\n    ) ...\n  MSTORE \t\t\ttps://.../ipfs/<CID>/\"\\n    ) ...\n  PUSH 20\t\t\ttps://.../ipfs/<CID>/\"\\n    ) ...\n  ADD \t\t\ttps://.../ipfs/<CID>/\"\\n    ) ...\n  PUSH 4558500000000000000000000000000000000000000000000000000000000000\t\t\ttps://.../ipfs/<CID>/\"\\n    ) ...\n  DUP2 \t\t\ttps://.../ipfs/<CID>/\"\\n    ) ...\n  MSTORE \t\t\ttps://.../ipfs/<CID>/\"\\n    ) ...\n  POP \t\t\ttps://.../ipfs/<CID>/\"\\n    ) ...\n  DUP2 \t\t\tnder)\n  PUSH 0\t\t\te(msg\n  SWAP1 \t\t\te(msg.sender)\n  DUP2 \t\t\te(msg.sender)\n  PUSH [tag] 8\t\t\te(msg.sender)\n  SWAP2 \t\t\te(msg.sender)\n  SWAP1 \t\t\te(msg.sender)\n  PUSH [tag] 9\t\t\te(msg.sender)\n  JUMP \t\t\te(msg.sender)\ntag 8\t\t\te(msg.sender)\n  JUMPDEST \t\t\te(msg.sender)\n  POP \t\t\te(msg.sender)\n  DUP1 \t\t\tarbonoT\n  PUSH 1\t\t\t requir\n  SWAP1 \t\t\t require(carbonoT\n  DUP2 \t\t\t require(carbonoT\n  PUSH [tag] 10\t\t\t require(carbonoT\n  SWAP2 \t\t\t require(carbonoT\n  SWAP1 \t\t\t require(carbonoT\n  PUSH [tag] 9\t\t\t require(carbonoT\n  JUMP \t\t\t require(carbonoT\ntag 10\t\t\t require(carbonoT\n  JUMPDEST \t\t\t require(carbonoT\n  POP \t\t\t require(carbonoT\n  POP \t\t\ttps://.../ipfs/<CID>/\"\\n    ) ...\n  POP \t\t\ttps://.../ipfs/<CID>/\"\\n    ) ...\n  PUSH 0\t\t\t3\n  PUSH FFFFFFFFFFFFFFFFFFFFFFFFFFFFFFFFFFFFFFFF\t\t\tPriceInCBO,      // ej: 3e\n  AND \t\t\tPriceInCBO,      // ej: 3e\n  DUP2 \t\t\tPriceInCBO, \n  PUSH FFFFFFFFFFFFFFFFFFFFFFFFFFFFFFFFFFFFFFFF\t\t\tPriceInCBO,      // ej: 3e\n  AND \t\t\tPriceInCBO,      // ej: 3e\n  SUB \t\t\tPriceInCBO,      // ej: 3e\n  PUSH [tag] 12\t\t\ttialPriceInCBO,      // ej: 3e...\n  JUMPI \t\t\ttialPriceInCBO,      // ej: 3e...\n  PUSH 0\t\t\ty\n  PUSH 40\t\t\tSupply,\\n        string memory...\n  MLOAD \t\t\tSupply,\\n        string memory...\n  PUSH 1E4FBDF700000000000000000000000000000000000000000000000000000000\t\t\tSupply,\\n        string memory...\n  DUP2 \t\t\tSupply,\\n        string memory...\n  MSTORE \t\t\tSupply,\\n        string memory...\n  PUSH 4\t\t\tSupply,\\n        string memory...\n  ADD \t\t\tSupply,\\n        string memory...\n  PUSH [tag] 13\t\t\tSupply,\\n        string memory...\n  SWAP2 \t\t\tSupply,\\n        string memory...\n  SWAP1 \t\t\tSupply,\\n        string memory...\n  PUSH [tag] 14\t\t\tSupply,\\n        string memory...\n  JUMP \t\t\tSupply,\\n        string memory...\ntag 13\t\t\tSupply,\\n        string memory...\n  JUMPDEST \t\t\tSupply,\\n        string memory...\n  PUSH 40\t\t\tSupply,\\n        string memory...\n  MLOAD \t\t\tSupply,\\n        string memory...\n  DUP1 \t\t\tSupply,\\n        string memory...\n  SWAP2 \t\t\tSupply,\\n        string memory...\n  SUB \t\t\tSupply,\\n        string memory...\n  SWAP1 \t\t\tSupply,\\n        string memory...\n  REVERT \t\t\tSupply,\\n        string memory...\ntag 12\t\t\ttialPriceInCBO,      // ej: 3e...\n  JUMPDEST \t\t\ttialPriceInCBO,      // ej: 3e...\n  PUSH [tag] 15\t\t\tej: \"https://.../ipfs/<CID>/\"\\...\n  DUP2 \t\t\tfs/<CID>/\"\\n \n  PUSH [tag] 16\t\t\tej: \"https://.../i\n  PUSH 20\t\t\tej: \"https://.../i\n  SHL \t\t\tej: \"https://.../i\n  PUSH 20\t\t\tej: \"https://.../ipfs/<CID>/\"\\...\n  SHR \t\t\tej: \"https://.../ipfs/<CID>/\"\\...\n  JUMP \t\t\tej: \"https://.../ipfs/<CID>/\"\\...\ntag 15\t\t\tej: \"https://.../ipfs/<CID>/\"\\...\n  JUMPDEST \t\t\tej: \"https://.../ipfs/<CID>/\"\\...\n  POP \t\t\tl contrato Carbono (CBO)\\n    ...\n  PUSH 0\t\t\t)\n  PUSH FFFFFFFFFFFFFFFFFFFFFFFFFFFFFFFFFFFFFFFF\t\t\tarbonoToken != address(0),\n  AND \t\t\tarbonoToken != address(0),\n  DUP5 \t\t\tarbonoToken \n  PUSH FFFFFFFFFFFFFFFFFFFFFFFFFFFFFFFFFFFFFFFF\t\t\tarbonoToken != address(0),\n  AND \t\t\tarbonoToken != address(0),\n  SUB \t\t\tarbonoToken != address(0),\n  PUSH [tag] 18\t\t\tequire(carbonoToken != address...\n  JUMPI \t\t\tequire(carbonoToken != address...\n  PUSH 40\t\t\tequire(carbonoToken != address...\n  MLOAD \t\t\tequire(carbonoToken != address...\n  PUSH 8C379A000000000000000000000000000000000000000000000000000000000\t\t\tequire(carbonoToken != address...\n  DUP2 \t\t\tequire(carbonoToken != address...\n  MSTORE \t\t\tequire(carbonoToken != address...\n  PUSH 4\t\t\tequire(carbonoToken != address...\n  ADD \t\t\tequire(carbonoToken != address...\n  PUSH [tag] 19\t\t\tequire(carbonoToken != address...\n  SWAP1 \t\t\tequire(carbonoToken != address...\n  PUSH [tag] 20\t\t\tequire(carbonoToken != address...\n  JUMP \t\t\tequire(carbonoToken != address...\ntag 19\t\t\tequire(carbonoToken != address...\n  JUMPDEST \t\t\tequire(carbonoToken != address...\n  PUSH 40\t\t\tequire(carbonoToken != address...\n  MLOAD \t\t\tequire(carbonoToken != address...\n  DUP1 \t\t\tequire(carbonoToken != address...\n  SWAP2 \t\t\tequire(carbonoToken != address...\n  SUB \t\t\tequire(carbonoToken != address...\n  SWAP1 \t\t\tequire(carbonoToken != address...\n  REVERT \t\t\tequire(carbonoToken != address...\ntag 18\t\t\tequire(carbonoToken != address...\n  JUMPDEST \t\t\tequire(carbonoToken != address...\n  PUSH 0\t\t\t,\n  DUP4 \t\t\tnitialPriceInCBO \n  GT \t\t\tnitialPriceInCBO > 0,\n  PUSH [tag] 21\t\t\tequire(initialPriceInCBO > 0, ...\n  JUMPI \t\t\tequire(initialPriceInCBO > 0, ...\n  PUSH 40\t\t\tequire(initialPriceInCBO > 0, ...\n  MLOAD \t\t\tequire(initialPriceInCBO > 0, ...\n  PUSH 8C379A000000000000000000000000000000000000000000000000000000000\t\t\tequire(initialPriceInCBO > 0, ...\n  DUP2 \t\t\tequire(initialPriceInCBO > 0, ...\n  MSTORE \t\t\tequire(initialPriceInCBO > 0, ...\n  PUSH 4\t\t\tequire(initialPriceInCBO > 0, ...\n  ADD \t\t\tequire(initialPriceInCBO > 0, ...\n  PUSH [tag] 22\t\t\tequire(initialPriceInCBO > 0, ...\n  SWAP1 \t\t\tequire(initialPriceInCBO > 0, ...\n  PUSH [tag] 23\t\t\tequire(initialPriceInCBO > 0, ...\n  JUMP \t\t\tequire(initialPriceInCBO > 0, ...\ntag 22\t\t\tequire(initialPriceInCBO > 0, ...\n  JUMPDEST \t\t\tequire(initialPriceInCBO > 0, ...\n  PUSH 40\t\t\tequire(initialPriceInCBO > 0, ...\n  MLOAD \t\t\tequire(initialPriceInCBO > 0, ...\n  DUP1 \t\t\tequire(initialPriceInCBO > 0, ...\n  SWAP2 \t\t\tequire(initialPriceInCBO > 0, ...\n  SUB \t\t\tequire(initialPriceInCBO > 0, ...\n  SWAP1 \t\t\tequire(initialPriceInCBO > 0, ...\n  REVERT \t\t\tequire(initialPriceInCBO > 0, ...\ntag 21\t\t\tequire(initialPriceInCBO > 0, ...\n  JUMPDEST \t\t\tequire(initialPriceInCBO > 0, ...\n  PUSH 0\t\t\t,\n  DUP3 \t\t\tmaxSupply \n  GT \t\t\tmaxSupply > 0,\n  PUSH [tag] 24\t\t\tequire(_maxSupply > 0, \"max=0\"...\n  JUMPI \t\t\tequire(_maxSupply > 0, \"max=0\"...\n  PUSH 40\t\t\tequire(_maxSupply > 0, \"max=0\"...\n  MLOAD \t\t\tequire(_maxSupply > 0, \"max=0\"...\n  PUSH 8C379A000000000000000000000000000000000000000000000000000000000\t\t\tequire(_maxSupply > 0, \"max=0\"...\n  DUP2 \t\t\tequire(_maxSupply > 0, \"max=0\"...\n  MSTORE \t\t\tequire(_maxSupply > 0, \"max=0\"...\n  PUSH 4\t\t\tequire(_maxSupply > 0, \"max=0\"...\n  ADD \t\t\tequire(_maxSupply > 0, \"max=0\"...\n  PUSH [tag] 25\t\t\tequire(_maxSupply > 0, \"max=0\"...\n  SWAP1 \t\t\tequire(_maxSupply > 0, \"max=0\"...\n  PUSH [tag] 26\t\t\tequire(_maxSupply > 0, \"max=0\"...\n  JUMP \t\t\tequire(_maxSupply > 0, \"max=0\"...\ntag 25\t\t\tequire(_maxSupply > 0, \"max=0\"...\n  JUMPDEST \t\t\tequire(_maxSupply > 0, \"max=0\"...\n  PUSH 40\t\t\tequire(_maxSupply > 0, \"max=0\"...\n  MLOAD \t\t\tequire(_maxSupply > 0, \"max=0\"...\n  DUP1 \t\t\tequire(_maxSupply > 0, \"max=0\"...\n  SWAP2 \t\t\tequire(_maxSupply > 0, \"max=0\"...\n  SUB \t\t\tequire(_maxSupply > 0, \"max=0\"...\n  SWAP1 \t\t\tequire(_maxSupply > 0, \"max=0\"...\n  REVERT \t\t\tequire(_maxSupply > 0, \"max=0\"...\ntag 24\t\t\tequire(_maxSupply > 0, \"max=0\"...\n  JUMPDEST \t\t\tequire(_maxSupply > 0, \"max=0\"...\n  DUP4 \t\t\tarbonoToken)\n  PUSH FFFFFFFFFFFFFFFFFFFFFFFFFFFFFFFFFFFFFFFF\t\t\tarbono     = IERC20(carbonoTok...\n  AND \t\t\tarbono     = IERC20(carbonoTok...\n  PUSH 80\t\t\tarbono     = IERC20(carbonoTok...\n  DUP2 \t\t\tarbono     = IERC20(carbonoTok...\n  PUSH FFFFFFFFFFFFFFFFFFFFFFFFFFFFFFFFFFFFFFFF\t\t\tarbono     = IERC20(carbonoTok...\n  AND \t\t\tarbono     = IERC20(carbonoTok...\n  DUP2 \t\t\tarbono     = IERC20(carbonoTok...\n  MSTORE \t\t\tarbono     = IERC20(carbonoTok...\n  POP \t\t\tarbono     = IERC20(carbonoTok...\n  POP \t\t\tarbono     = IERC20(carbonoTok...\n  DUP3 \t\t\tnitialPriceInCBO;\n  PUSH 8\t\t\triceInCBO \n  DUP2 \t\t\triceInCBO  = initialPriceInCBO...\n  SWAP1 \t\t\triceInCBO  = initialPriceInCBO...\n  SSTORE \t\t\triceInCBO  = initialPriceInCBO...\n  POP \t\t\triceInCBO  = initialPriceInCBO...\n  DUP2 \t\t\tmaxSupply;\n  PUSH 9\t\t\taxSupply \n  DUP2 \t\t\taxSupply   = _maxSupply;\n  SWAP1 \t\t\taxSupply   = _maxSupply;\n  SSTORE \t\t\taxSupply   = _maxSupply;\n  POP \t\t\taxSupply   = _maxSupply;\n  DUP1 \t\t\taseURIInit;\n  PUSH B\t\t\taseURI_ \n  SWAP1 \t\t\taseURI_    = baseURIInit;\n  DUP2 \t\t\taseURI_    = baseURIInit;\n  PUSH [tag] 27\t\t\taseURI_    = baseURIInit;\n  SWAP2 \t\t\taseURI_    = baseURIInit;\n  SWAP1 \t\t\taseURI_    = baseURIInit;\n  PUSH [tag] 9\t\t\taseURI_    = baseURIInit;\n  JUMP \t\t\taseURI_    = baseURIInit;\ntag 27\t\t\taseURI_    = baseURIInit;\n  JUMPDEST \t\t\taseURI_    = baseURIInit;\n  POP \t\t\taseURI_    = baseURIInit;\n  CALLER \t\t\tsg.sender;\n  PUSH 7\t\t\treasury \n  PUSH 0\t\t\treasury \n  PUSH 100\t\t\treasury    = msg.sender;\n  EXP \t\t\treasury    = msg.sender;\n  DUP2 \t\t\treasury    = msg.sender;\n  SLOAD \t\t\treasury    = msg.sender;\n  DUP2 \t\t\treasury    = msg.sender;\n  PUSH FFFFFFFFFFFFFFFFFFFFFFFFFFFFFFFFFFFFFFFF\t\t\treasury    = msg.sender;\n  MUL \t\t\treasury    = msg.sender;\n  NOT \t\t\treasury    = msg.sender;\n  AND \t\t\treasury    = msg.sender;\n  SWAP1 \t\t\treasury    = msg.sender;\n  DUP4 \t\t\treasury    = msg.sender;\n  PUSH FFFFFFFFFFFFFFFFFFFFFFFFFFFFFFFFFFFFFFFF\t\t\treasury    = msg.sender;\n  AND \t\t\treasury    = msg.sender;\n  MUL \t\t\treasury    = msg.sender;\n  OR \t\t\treasury    = msg.sender;\n  SWAP1 \t\t\treasury    = msg.sender;\n  SSTORE \t\t\treasury    = msg.sender;\n  POP \t\t\treasury    = msg.sender;\n  POP \t\t\tconstructor(\\n        address ...\n  POP \t\t\tconstructor(\\n        address ...\n  POP \t\t\tconstructor(\\n        address ...\n  POP \t\t\tconstructor(\\n        address ...\n  PUSH [tag] 28\t\t\tcontract Experience721 is ERC7...\n  JUMP \t\t\tcontract Experience721 is ERC7...\ntag 16\t\t\ttokenId = _nextId++;\\n        ...\n  JUMPDEST \t\t\ttokenId = _nextId++;\\n        ...\n  PUSH 0\t\t\tmsg.sender, toke\n  PUSH 6\t\t\t);\\n   \n  PUSH 0\t\t\t);\\n   \n  SWAP1 \t\t\t);\\n   \n  SLOAD \t\t\t);\\n   \n  SWAP1 \t\t\t);\\n   \n  PUSH 100\t\t\t);\\n   \n  EXP \t\t\t);\\n   \n  SWAP1 \t\t\t);\\n   \n  DIV \t\t\t);\\n   \n  PUSH FFFFFFFFFFFFFFFFFFFFFFFFFFFFFFFFFFFFFFFF\t\t\t);\\n   \n  AND \t\t\t);\\n   \n  SWAP1 \t\t\tmsg.sender, tokenId);\\n   \n  POP \t\t\tmsg.sender, tokenId);\\n   \n  DUP2 \t\t\tt Minted\n  PUSH 6\t\t\t      \n  PUSH 0\t\t\t      \n  PUSH 100\t\t\t      emit Minted\n  EXP \t\t\t      emit Minted\n  DUP2 \t\t\t      emit Minted\n  SLOAD \t\t\t      emit Minted\n  DUP2 \t\t\t      emit Minted\n  PUSH FFFFFFFFFFFFFFFFFFFFFFFFFFFFFFFFFFFFFFFF\t\t\t      emit Minted\n  MUL \t\t\t      emit Minted\n  NOT \t\t\t      emit Minted\n  AND \t\t\t      emit Minted\n  SWAP1 \t\t\t      emit Minted\n  DUP4 \t\t\t      emit Minted\n  PUSH FFFFFFFFFFFFFFFFFFFFFFFFFFFFFFFFFFFFFFFF\t\t\t      emit Minted\n  AND \t\t\t      emit Minted\n  MUL \t\t\t      emit Minted\n  OR \t\t\t      emit Minted\n  SWAP1 \t\t\t      emit Minted\n  SSTORE \t\t\t      emit Minted\n  POP \t\t\t      emit Minted\n  DUP2 \t\t\tadata si\n  PUSH FFFFFFFFFFFFFFFFFFFFFFFFFFFFFFFFFFFFFFFF\t\t\ty, cost);\\n    }\\n\\n    // ---...\n  AND \t\t\ty, cost);\\n    }\\n\\n    // ---...\n  DUP2 \t\t\t// --- M\n  PUSH FFFFFFFFFFFFFFFFFFFFFFFFFFFFFFFFFFFFFFFF\t\t\ty, cost);\\n    }\\n\\n    // ---...\n  AND \t\t\ty, cost);\\n    }\\n\\n    // ---...\n  PUSH 8BE0079C531659141344CD1FD0A4F28419497F9722A3DAAFE3B4186F6B6457E0\t\t\ty, cost);\\n    }\\n\\n    // ---...\n  PUSH 40\t\t\ty, cost);\\n    }\\n\\n    // ---...\n  MLOAD \t\t\ty, cost);\\n    }\\n\\n    // ---...\n  PUSH 40\t\t\ty, cost);\\n    }\\n\\n    // ---...\n  MLOAD \t\t\ty, cost);\\n    }\\n\\n    // ---...\n  DUP1 \t\t\ty, cost);\\n    }\\n\\n    // ---...\n  SWAP2 \t\t\ty, cost);\\n    }\\n\\n    // ---...\n  SUB \t\t\ty, cost);\\n    }\\n\\n    // ---...\n  SWAP1 \t\t\ty, cost);\\n    }\\n\\n    // ---...\n  LOG3 \t\t\ty, cost);\\n    }\\n\\n    // ---...\n  POP \t\t\t_safeMint(msg.sender, tokenId)...\n  POP \t\t\ttokenId = _nextId++;\\n        ...\n  JUMP \t\t\ttokenId = _nextId++;\\n        ...\ntag 30\t\t\t-License-Identifier: MIT\\n// C...\n  JUMPDEST \t\t\t-License-Identifier: MIT\\n// C...\n  PUSH 0\t\t\ttible \n  PUSH 40\t\t\t^5\n  MLOAD \t\t\tracts ^5.\n  SWAP1 \t\t\tpelin Contracts ^5.\n  POP \t\t\tpelin Contracts ^5.\n  SWAP1 \t\t\t-License-Identifier: MIT\\n// C...\n  JUMP \t\t\t-License-Identifier: MIT\\n// C...\ntag 31\t\t\tolidity ^0.8.27;\\n\\nimport {ER...\n  JUMPDEST \t\t\tolidity ^0.8.27;\\n\\nimport {ER...\n  PUSH 0\t\t\to\n  PUSH 0\t\t\t \n  REVERT \t\t\twnable} from\ntag 32\t\t\tlin/contracts/access/Ownable.s...\n  JUMPDEST \t\t\tlin/contracts/access/Ownable.s...\n  PUSH 0\t\t\to\n  PUSH 0\t\t\ti\n  REVERT \t\t\t.sol\";\\nimpor\ntag 33\t\t\tfrom \"@openzeppelin/contracts/...\n  JUMPDEST \t\t\tfrom \"@openzeppelin/contracts/...\n  PUSH 0\t\t\ttrings.\n  PUSH FFFFFFFFFFFFFFFFFFFFFFFFFFFFFFFFFFFFFFFF\t\t\t1 (EXP)\\n * @notice NFT que se...\n  DUP3 \t\t\tience\n  AND \t\t\txperience721 (EXP)\\n * @notice...\n  SWAP1 \t\t\t * @title Experience721 (EXP)\\...\n  POP \t\t\t * @title Experience721 (EXP)\\...\n  SWAP2 \t\t\tfrom \"@openzeppelin/contracts/...\n  SWAP1 \t\t\tfrom \"@openzeppelin/contracts/...\n  POP \t\t\tfrom \"@openzeppelin/contracts/...\n  JUMP \t\t\tfrom \"@openzeppelin/contracts/...\ntag 34\t\t\t\\n *         Cada NFT apunta d...\n  JUMPDEST \t\t\t\\n *         Cada NFT apunta d...\n  PUSH 0\t\t\tnte a u\n  PUSH [tag] 82\t\t\t        tokenURI(id) = b\n  DUP3 \t\t\td) = \n  PUSH [tag] 33\t\t\t        tokenURI(id) = b\n  JUMP \t\t\t        tokenURI(id) = b\ntag 82\t\t\t        tokenURI(id) = b\n  JUMPDEST \t\t\t        tokenURI(id) = b\n  SWAP1 \t\t\tn IPFS:\\n *         tokenURI(i...\n  POP \t\t\tn IPFS:\\n *         tokenURI(i...\n  SWAP2 \t\t\t\\n *         Cada NFT apunta d...\n  SWAP1 \t\t\t\\n *         Cada NFT apunta d...\n  POP \t\t\t\\n *         Cada NFT apunta d...\n  JUMP \t\t\t\\n *         Cada NFT apunta d...\ntag 35\t\t\t+ \".png\"\\n */\\ncontract Experi...\n  JUMPDEST \t\t\t+ \".png\"\\n */\\ncontract Experi...\n  PUSH [tag] 84\t\t\tc immutable carbono;   /\n  DUP2 \t\t\to;   \n  PUSH [tag] 34\t\t\tc immutable carbono;   /\n  JUMP \t\t\tc immutable carbono;   /\ntag 84\t\t\tc immutable carbono;   /\n  JUMPDEST \t\t\tc immutable carbono;   /\n  DUP2 \t\t\t0 pub\n  EQ \t\t\tRC20 public immutable carbono;...\n  PUSH [tag] 85\t\t\te {\\n    IERC20 public immutab...\n  JUMPI \t\t\te {\\n    IERC20 public immutab...\n  PUSH 0\t\t\ta\n  PUSH 0\t\t\tp\n  REVERT \t\t\ten CBO para \ntag 85\t\t\te {\\n    IERC20 public immutab...\n  JUMPDEST \t\t\te {\\n    IERC20 public immutab...\n  POP \t\t\t+ \".png\"\\n */\\ncontract Experi...\n  JUMP \t\t\t+ \".png\"\\n */\\ncontract Experi...\ntag 36\t\t\tess public treasury;          ...\n  JUMPDEST \t\t\tess public treasury;          ...\n  PUSH 0\t\t\t uint\n  DUP2 \t\t\t     /\n  MLOAD \t\t\tO;         //\n  SWAP1 \t\t\tpriceInCBO;         //\n  POP \t\t\tpriceInCBO;         //\n  PUSH [tag] 87\t\t\tales (3e18 = 3 CBO)\\n    uint2...\n  DUP2 \t\t\tt256 \n  PUSH [tag] 35\t\t\tales (3e18 = 3 CBO)\\n    uint2...\n  JUMP \t\t\tales (3e18 = 3 CBO)\\n    uint2...\ntag 87\t\t\tales (3e18 = 3 CBO)\\n    uint2...\n  JUMPDEST \t\t\tales (3e18 = 3 CBO)\\n    uint2...\n  SWAP3 \t\t\tess public treasury;          ...\n  SWAP2 \t\t\tess public treasury;          ...\n  POP \t\t\tess public treasury;          ...\n  POP \t\t\tess public treasury;          ...\n  JUMP \t\t\tess public treasury;          ...\ntag 37\t\t\tply;\\n    uint256 public total...\n  JUMPDEST \t\t\tply;\\n    uint256 public total...\n  PUSH 0\t\t\t    str\n  DUP2 \t\t\t\\n    \n  SWAP1 \t\t\te baseURI_;\\n    \n  POP \t\t\te baseURI_;\\n    \n  SWAP2 \t\t\tply;\\n    uint256 public total...\n  SWAP1 \t\t\tply;\\n    uint256 public total...\n  POP \t\t\tply;\\n    uint256 public total...\n  JUMP \t\t\tply;\\n    uint256 public total...\ntag 38\t\t\tate _nextId = 1;\\n\\n    event ...\n  JUMPDEST \t\t\tate _nextId = 1;\\n\\n    event ...\n  PUSH [tag] 90\t\t\tnt256 paidCBO);\\n    even\n  DUP2 \t\t\t  eve\n  PUSH [tag] 37\t\t\tnt256 paidCBO);\\n    even\n  JUMP \t\t\tnt256 paidCBO);\\n    even\ntag 90\t\t\tnt256 paidCBO);\\n    even\n  JUMPDEST \t\t\tnt256 paidCBO);\\n    even\n  DUP2 \t\t\tqty, \n  EQ \t\t\t56 qty, uint256 paidCBO);\\n   ...\n  PUSH [tag] 91\t\t\tyer, uint256 qty, uint256 paid...\n  JUMPI \t\t\tyer, uint256 qty, uint256 paid...\n  PUSH 0\t\t\tu\n  PUSH 0\t\t\te\n  REVERT \t\t\tceChanged(ui\ntag 91\t\t\tyer, uint256 qty, uint256 paid...\n  JUMPDEST \t\t\tyer, uint256 qty, uint256 paid...\n  POP \t\t\tate _nextId = 1;\\n\\n    event ...\n  JUMP \t\t\tate _nextId = 1;\\n\\n    event ...\ntag 39\t\t\t);\\n    event TreasuryChanged(...\n  JUMPDEST \t\t\t);\\n    event TreasuryChanged(...\n  PUSH 0\t\t\tent B\n  DUP2 \t\t\tseURI)\n  MLOAD \t\t\t newBaseURI);\n  SWAP1 \t\t\ted(string newBaseURI);\n  POP \t\t\ted(string newBaseURI);\n  PUSH [tag] 93\t\t\tstructor(\\n        address car...\n  DUP2 \t\t\tarbon\n  PUSH [tag] 38\t\t\tstructor(\\n        address car...\n  JUMP \t\t\tstructor(\\n        address car...\ntag 93\t\t\tstructor(\\n        address car...\n  JUMPDEST \t\t\tstructor(\\n        address car...\n  SWAP3 \t\t\t);\\n    event TreasuryChanged(...\n  SWAP2 \t\t\t);\\n    event TreasuryChanged(...\n  POP \t\t\t);\\n    event TreasuryChanged(...\n  POP \t\t\t);\\n    event TreasuryChanged(...\n  JUMP \t\t\t);\\n    event TreasuryChanged(...\ntag 40\t\t\t     // dirección del contrato...\n  JUMPDEST \t\t\t     // dirección del contrato...\n  PUSH 0\t\t\t2\n  PUSH 0\t\t\ti\n  REVERT \t\t\t      uint25\ntag 41\t\t\t,\\n        string memory baseU...\n  JUMPDEST \t\t\t,\\n        string memory baseU...\n  PUSH 0\t\t\t\"\n  PUSH 0\t\t\tE\n  REVERT \t\t\t721\", \"EXP\")\ntag 42\t\t\t.sender) {\\n        require(ca...\n  JUMPDEST \t\t\t.sender) {\\n        require(ca...\n  PUSH 0\t\t\t= addr\n  PUSH 1F\t\t\teI\n  NOT \t\t\tPriceIn\n  PUSH 1F\t\t\tit\n  DUP4 \t\t\tuire(\n  ADD \t\t\t require(initi\n  AND \t\t\t     require(initialPriceInC\n  SWAP1 \t\t\tO=0\");\\n        require(initia...\n  POP \t\t\tO=0\");\\n        require(initia...\n  SWAP2 \t\t\t.sender) {\\n        require(ca...\n  SWAP1 \t\t\t.sender) {\\n        require(ca...\n  POP \t\t\t.sender) {\\n        require(ca...\n  JUMP \t\t\t.sender) {\\n        require(ca...\ntag 43\t\t\tce=0\");\\n        require(_maxS...\n  JUMPDEST \t\t\tce=0\");\\n        require(_maxS...\n  PUSH 4E487B7100000000000000000000000000000000000000000000000000000000\t\t\t;\\n\\n        carbono     = IER...\n  PUSH 0\t\t\t0\n  MSTORE \t\t\t, \"max=0\");\\n\\n        carbono...\n  PUSH 41\t\t\taxSu\n  PUSH 4\t\t\t \n  MSTORE \t\t\t\\n        maxSup\n  PUSH 24\t\t\t\\n   \n  PUSH 0\t\t\tl\n  REVERT \t\t\tmaxSupply;\\n    \ntag 44\t\t\t    = baseURIInit;\\n        tr...\n  JUMPDEST \t\t\t    = baseURIInit;\\n        tr...\n  PUSH [tag] 99\t\t\t tesoreria\\n    }\\n\\n    // --\n  DUP3 \t\t\t// -\n  PUSH [tag] 42\t\t\t tesoreria\\n    }\\n\\n    // --\n  JUMP \t\t\t tesoreria\\n    }\\n\\n    // --\ntag 99\t\t\t tesoreria\\n    }\\n\\n    // --\n  JUMPDEST \t\t\t tesoreria\\n    }\\n\\n    // --\n  DUP2 \t\t\ter es \n  ADD \t\t\t owner es la tesoreria\\n    }\\...\n  DUP2 \t\t\t> 0, \"\n  DUP2 \t\t\tre(newPric\n  LT \t\t\tquire(newPrice > 0, \"p\n  PUSH FFFFFFFFFFFFFFFF\t\t\tnlyOwner {\\n       \n  DUP3 \t\t\t) external\n  GT \t\t\tice) external onlyOwner {\\n   ...\n  OR \t\t\twPrice) external onlyOwner {\\n...\n  ISZERO \t\t\t newPrice) external onlyOwner ...\n  PUSH [tag] 100\t\t\t newPrice) external onlyOwner ...\n  JUMPI \t\t\t newPrice) external onlyOwner ...\n  PUSH [tag] 101\t\t\t=0\");\\n        pric\n  PUSH [tag] 43\t\t\t=0\");\\n        pric\n  JUMP \t\t\t=0\");\\n        pric\ntag 101\t\t\t=0\");\\n        pric\n  JUMPDEST \t\t\t=0\");\\n        pric\ntag 100\t\t\t newPrice) external onlyOwner ...\n  JUMPDEST \t\t\t newPrice) external onlyOwner ...\n  DUP1 \t\t\t     emit \n  PUSH 40\t\t\t\\n \n  MSTORE \t\t\twPrice;\\n        emit P\n  POP \t\t\tg.sender; // por defecto, el o...\n  POP \t\t\t    = baseURIInit;\\n        tr...\n  POP \t\t\t    = baseURIInit;\\n        tr...\n  JUMP \t\t\t    = baseURIInit;\\n        tr...\ntag 45\t\t\tnewPrice);\\n    }\\n\\n    funct...\n  JUMPDEST \t\t\tnewPrice);\\n    }\\n\\n    funct...\n  PUSH 0\t\t\tTreasu\n  PUSH [tag] 103\t\t\ty) external onlyOwne\n  PUSH [tag] 30\t\t\ty) external onlyOwne\n  JUMP \t\t\ty) external onlyOwne\ntag 103\t\t\ty) external onlyOwne\n  JUMPDEST \t\t\ty) external onlyOwne\n  SWAP1 \t\t\tnewTreasury) external onlyOwne\n  POP \t\t\tnewTreasury) external onlyOwne\n  PUSH [tag] 104\t\t\t   require(newTreasury != addr...\n  DUP3 \t\t\tdres\n  DUP3 \t\t\try != \n  PUSH [tag] 44\t\t\t   require(newTreasury != addr...\n  JUMP \t\t\t   require(newTreasury != addr...\ntag 104\t\t\t   require(newTreasury != addr...\n  JUMPDEST \t\t\t   require(newTreasury != addr...\n  SWAP2 \t\t\tnewPrice);\\n    }\\n\\n    funct...\n  SWAP1 \t\t\tnewPrice);\\n    }\\n\\n    funct...\n  POP \t\t\tnewPrice);\\n    }\\n\\n    funct...\n  JUMP \t\t\tnewPrice);\\n    }\\n\\n    funct...\ntag 46\t\t\try=0\");\\n        treasury = ne...\n  JUMPDEST \t\t\try=0\");\\n        treasury = ne...\n  PUSH 0\t\t\thang\n  PUSH FFFFFFFFFFFFFFFF\t\t\t        baseURI_ =\n  DUP3 \t\t\tOwner \n  GT \t\t\tnlyOwner {\\n        baseURI_ =...\n  ISZERO \t\t\tl onlyOwner {\\n        baseURI...\n  PUSH [tag] 106\t\t\tl onlyOwner {\\n        baseURI...\n  JUMPI \t\t\tl onlyOwner {\\n        baseURI...\n  PUSH [tag] 107\t\t\t        emit BaseU\n  PUSH [tag] 43\t\t\t        emit BaseU\n  JUMP \t\t\t        emit BaseU\ntag 107\t\t\t        emit BaseU\n  JUMPDEST \t\t\t        emit BaseU\ntag 106\t\t\tl onlyOwner {\\n        baseURI...\n  JUMPDEST \t\t\tl onlyOwner {\\n        baseURI...\n  PUSH [tag] 108\t\t\t\\n    // --- Mint ---\\n    ///...\n  DUP3 \t\t\t   ///\n  PUSH [tag] 42\t\t\t\\n    // --- Mint ---\\n    ///...\n  JUMP \t\t\t\\n    // --- Mint ---\\n    ///...\ntag 108\t\t\t\\n    // --- Mint ---\\n    ///...\n  JUMPDEST \t\t\t\\n    // --- Mint ---\\n    ///...\n  SWAP1 \t\t\t;\\n    }\\n\\n    // --- Mint --...\n  POP \t\t\t;\\n    }\\n\\n    // --- Mint --...\n  PUSH 20\t\t\tlowa\n  DUP2 \t\t\tere \n  ADD \t\t\tequiere allowan\n  SWAP1 \t\t\tn CBO (requiere allowan\n  POP \t\t\tn CBO (requiere allowan\n  SWAP2 \t\t\try=0\");\\n        treasury = ne...\n  SWAP1 \t\t\try=0\");\\n        treasury = ne...\n  POP \t\t\try=0\");\\n        treasury = ne...\n  JUMP \t\t\try=0\");\\n        treasury = ne...\ntag 47\t\t\t   function mint(uint256 qty) ...\n  JUMPDEST \t\t\t   function mint(uint256 qty) ...\n  DUP3 \t\t\tre(tot\n  DUP2 \t\t\treq\n  DUP4 \t\t\t   \n  MCOPY \t\t\t);\\n        require(tota\n  PUSH 0\t\t\to\n  DUP4 \t\t\ty, \"so\n  DUP4 \t\t\tSup\n  ADD \t\t\t maxSupply, \"sol\n  MSTORE \t\t\t qty <= maxSupply, \"sold ou\n  POP \t\t\t   function mint(uint256 qty) ...\n  POP \t\t\t   function mint(uint256 qty) ...\n  POP \t\t\t   function mint(uint256 qty) ...\n  JUMP \t\t\t   function mint(uint256 qty) ...\ntag 48\t\t\t uint256 cost = priceInCBO * q...\n  JUMPDEST \t\t\t uint256 cost = priceInCBO * q...\n  PUSH 0\t\t\t(addr\n  PUSH [tag] 111\t\t\t     bool ok = carbono.transfe...\n  PUSH [tag] 112\t\t\tarbono.transferFrom(msg.sender...\n  DUP5 \t\t\tcost);\n  PUSH [tag] 46\t\t\tarbono.transferFrom(msg.sender...\n  JUMP \t\t\tarbono.transferFrom(msg.sender...\ntag 112\t\t\tarbono.transferFrom(msg.sender...\n  JUMPDEST \t\t\tarbono.transferFrom(msg.sender...\n  PUSH [tag] 45\t\t\t     bool ok = carbono.transfe...\n  JUMP \t\t\t     bool ok = carbono.transfe...\ntag 111\t\t\t     bool ok = carbono.transfe...\n  JUMPDEST \t\t\t     bool ok = carbono.transfe...\n  SWAP1 \t\t\tcost)\\n        bool ok = carbo...\n  POP \t\t\tcost)\\n        bool ok = carbo...\n  DUP3 \t\t\t trans\n  DUP2 \t\t\tk, \"C\n  MSTORE \t\t\tquire(ok, \"CBO transf\n  PUSH 20\t\t\t6 i \n  DUP2 \t\t\t(uint\n  ADD \t\t\tfor (uint256 i =\n  DUP5 \t\t\tint\n  DUP5 \t\t\t      \n  DUP5 \t\t\t\\n  \n  ADD \t\t\t+) {\\n           \n  GT \t\t\t i++) {\\n            uint2\n  ISZERO \t\t\tty; i++) {\\n            uint25...\n  PUSH [tag] 113\t\t\tty; i++) {\\n            uint25...\n  JUMPI \t\t\tty; i++) {\\n            uint25...\n  PUSH [tag] 114\t\t\ttokenId = _nextId++;\\n        ...\n  PUSH [tag] 41\t\t\ttokenId = _nextId++;\\n        ...\n  JUMP \t\t\ttokenId = _nextId++;\\n        ...\ntag 114\t\t\ttokenId = _nextId++;\\n        ...\n  JUMPDEST \t\t\ttokenId = _nextId++;\\n        ...\ntag 113\t\t\tty; i++) {\\n            uint25...\n  JUMPDEST \t\t\tty; i++) {\\n            uint25...\n  PUSH [tag] 115\t\t\tId);\\n        }\\n\\n        emi...\n  DUP5 \t\t\tr, qty\n  DUP3 \t\t\tsen\n  DUP6 \t\t\t(ms\n  PUSH [tag] 47\t\t\tId);\\n        }\\n\\n        emi...\n  JUMP \t\t\tId);\\n        }\\n\\n        emi...\ntag 115\t\t\tId);\\n        }\\n\\n        emi...\n  JUMPDEST \t\t\tId);\\n        }\\n\\n        emi...\n  POP \t\t\tss(this), cost)\\n        bool ...\n  SWAP4 \t\t\t uint256 cost = priceInCBO * q...\n  SWAP3 \t\t\t uint256 cost = priceInCBO * q...\n  POP \t\t\t uint256 cost = priceInCBO * q...\n  POP \t\t\t uint256 cost = priceInCBO * q...\n  POP \t\t\t uint256 cost = priceInCBO * q...\n  JUMP \t\t\t uint256 cost = priceInCBO * q...\ntag 49\t\t\tMetadata simple (imagen direct...\n  JUMPDEST \t\t\tMetadata simple (imagen direct...\n  PUSH 0\t\t\tal vi\n  DUP3 \t\t\t  r\n  PUSH 1F\t\t\t\\n   \n  DUP4 \t\t\temory)\n  ADD \t\t\tng memory) {\\n    \n  SLT \t\t\tstring memory) {\\n        re\n  PUSH [tag] 117\t\t\t returns (string memory) {\\n  ...\n  JUMPI \t\t\t returns (string memory) {\\n  ...\n  PUSH [tag] 118\t\t\t baseURI_;\\n    }\\n\\n    funct...\n  PUSH [tag] 40\t\t\t baseURI_;\\n    }\\n\\n    funct...\n  JUMP \t\t\t baseURI_;\\n    }\\n\\n    funct...\ntag 118\t\t\t baseURI_;\\n    }\\n\\n    funct...\n  JUMPDEST \t\t\t baseURI_;\\n    }\\n\\n    funct...\ntag 117\t\t\t returns (string memory) {\\n  ...\n  JUMPDEST \t\t\t returns (string memory) {\\n  ...\n  DUP2 \t\t\t  // o\n  MLOAD \t\t\t        // ow\n  PUSH [tag] 119\t\t\tel token no existe; sirve como...\n  DUP5 \t\t\ttri\n  DUP3 \t\t\treturn\n  PUSH 20\t\t\t    \n  DUP7 \t\t\tenId);\n  ADD \t\t\t(tokenId);\\n      \n  PUSH [tag] 48\t\t\tel token no existe; sirve como...\n  JUMP \t\t\tel token no existe; sirve como...\ntag 119\t\t\tel token no existe; sirve como...\n  JUMPDEST \t\t\tel token no existe; sirve como...\n  SWAP2 \t\t\tierte si el token no existe; s...\n  POP \t\t\tierte si el token no existe; s...\n  POP \t\t\tw override returns (string mem...\n  SWAP3 \t\t\tMetadata simple (imagen direct...\n  SWAP2 \t\t\tMetadata simple (imagen direct...\n  POP \t\t\tMetadata simple (imagen direct...\n  POP \t\t\tMetadata simple (imagen direct...\n  JUMP \t\t\tMetadata simple (imagen direct...\ntag 3\t\t\tPacked(baseURI_, Strings.toStr...\n  JUMPDEST \t\t\tPacked(baseURI_, Strings.toStr...\n  PUSH 0\t\t\t\n  PUSH 0\t\t\t\n  PUSH 0\t\t\t\n  PUSH 0\t\t\t\n  PUSH 80\t\t\t\n  DUP6 \t\t\t\n  DUP8 \t\t\t\n  SUB \t\t\t\n  SLT \t\t\t\n  ISZERO \t\t\t\n  PUSH [tag] 121\t\t\t\n  JUMPI \t\t\t\n  PUSH [tag] 122\t\t\t\n  PUSH [tag] 31\t\t\t\n  JUMP \t\t\t\ntag 122\t\t\t\n  JUMPDEST \t\t\t\ntag 121\t\t\t\n  JUMPDEST \t\t\t\n  PUSH 0\t\t\t\n  PUSH [tag] 123\t\t\t\n  DUP8 \t\t\t\n  DUP3 \t\t\t\n  DUP9 \t\t\t\n  ADD \t\t\t\n  PUSH [tag] 36\t\t\t\n  JUMP \t\t\t\ntag 123\t\t\t\n  JUMPDEST \t\t\t\n  SWAP5 \t\t\t\n  POP \t\t\t\n  POP \t\t\t\n  PUSH 20\t\t\t\n  PUSH [tag] 124\t\t\t\n  DUP8 \t\t\t\n  DUP3 \t\t\t\n  DUP9 \t\t\t\n  ADD \t\t\t\n  PUSH [tag] 39\t\t\t\n  JUMP \t\t\t\ntag 124\t\t\t\n  JUMPDEST \t\t\t\n  SWAP4 \t\t\t\n  POP \t\t\t\n  POP \t\t\t\n  PUSH 40\t\t\t\n  PUSH [tag] 125\t\t\t\n  DUP8 \t\t\t\n  DUP3 \t\t\t\n  DUP9 \t\t\t\n  ADD \t\t\t\n  PUSH [tag] 39\t\t\t\n  JUMP \t\t\t\ntag 125\t\t\t\n  JUMPDEST \t\t\t\n  SWAP3 \t\t\t\n  POP \t\t\t\n  POP \t\t\t\n  PUSH 60\t\t\t\n  DUP6 \t\t\t\n  ADD \t\t\t\n  MLOAD \t\t\t\n  PUSH FFFFFFFFFFFFFFFF\t\t\t\n  DUP2 \t\t\t\n  GT \t\t\t\n  ISZERO \t\t\t\n  PUSH [tag] 126\t\t\t\n  JUMPI \t\t\t\n  PUSH [tag] 127\t\t\t\n  PUSH [tag] 32\t\t\t\n  JUMP \t\t\t\ntag 127\t\t\t\n  JUMPDEST \t\t\t\ntag 126\t\t\t\n  JUMPDEST \t\t\t\n  PUSH [tag] 128\t\t\t\n  DUP8 \t\t\t\n  DUP3 \t\t\t\n  DUP9 \t\t\t\n  ADD \t\t\t\n  PUSH [tag] 49\t\t\t\n  JUMP \t\t\t\ntag 128\t\t\t\n  JUMPDEST \t\t\t\n  SWAP2 \t\t\t\n  POP \t\t\t\n  POP \t\t\t\n  SWAP3 \t\t\tPacked(baseURI_, Strings.toStr...\n  SWAP6 \t\t\tPacked(baseURI_, Strings.toStr...\n  SWAP2 \t\t\tPacked(baseURI_, Strings.toStr...\n  SWAP5 \t\t\tPacked(baseURI_, Strings.toStr...\n  POP \t\t\tPacked(baseURI_, Strings.toStr...\n  SWAP3 \t\t\tPacked(baseURI_, Strings.toStr...\n  POP \t\t\tPacked(baseURI_, Strings.toStr...\n  JUMP \t\t\tPacked(baseURI_, Strings.toStr...\ntag 50\t\t\t\n  JUMPDEST \t\t\t\n  PUSH 0\t\t\t\n  DUP2 \t\t\t\n  MLOAD \t\t\t\n  SWAP1 \t\t\t\n  POP \t\t\t\n  SWAP2 \t\t\t\n  SWAP1 \t\t\t\n  POP \t\t\t\n  JUMP \t\t\t\ntag 51\t\t\t\n  JUMPDEST \t\t\t\n  PUSH 4E487B7100000000000000000000000000000000000000000000000000000000\t\t\t\n  PUSH 0\t\t\t\n  MSTORE \t\t\t\n  PUSH 22\t\t\t\n  PUSH 4\t\t\t\n  MSTORE \t\t\t\n  PUSH 24\t\t\t\n  PUSH 0\t\t\t\n  REVERT \t\t\t\ntag 52\t\t\t\n  JUMPDEST \t\t\t\n  PUSH 0\t\t\t\n  PUSH 2\t\t\t\n  DUP3 \t\t\t\n  DIV \t\t\t\n  SWAP1 \t\t\t\n  POP \t\t\t\n  PUSH 1\t\t\t\n  DUP3 \t\t\t\n  AND \t\t\t\n  DUP1 \t\t\t\n  PUSH [tag] 132\t\t\t\n  JUMPI \t\t\t\n  PUSH 7F\t\t\t\n  DUP3 \t\t\t\n  AND \t\t\t\n  SWAP2 \t\t\t\n  POP \t\t\t\ntag 132\t\t\t\n  JUMPDEST \t\t\t\n  PUSH 20\t\t\t\n  DUP3 \t\t\t\n  LT \t\t\t\n  DUP2 \t\t\t\n  SUB \t\t\t\n  PUSH [tag] 133\t\t\t\n  JUMPI \t\t\t\n  PUSH [tag] 134\t\t\t\n  PUSH [tag] 51\t\t\t\n  JUMP \t\t\t\ntag 134\t\t\t\n  JUMPDEST \t\t\t\ntag 133\t\t\t\n  JUMPDEST \t\t\t\n  POP \t\t\t\n  SWAP2 \t\t\t\n  SWAP1 \t\t\t\n  POP \t\t\t\n  JUMP \t\t\t\ntag 53\t\t\t\n  JUMPDEST \t\t\t\n  PUSH 0\t\t\t\n  DUP2 \t\t\t\n  SWAP1 \t\t\t\n  POP \t\t\t\n  DUP2 \t\t\t\n  PUSH 0\t\t\t\n  MSTORE \t\t\t\n  PUSH 20\t\t\t\n  PUSH 0\t\t\t\n  KECCAK256 \t\t\t\n  SWAP1 \t\t\t\n  POP \t\t\t\n  SWAP2 \t\t\t\n  SWAP1 \t\t\t\n  POP \t\t\t\n  JUMP \t\t\t\ntag 54\t\t\t\n  JUMPDEST \t\t\t\n  PUSH 0\t\t\t\n  PUSH 20\t\t\t\n  PUSH 1F\t\t\t\n  DUP4 \t\t\t\n  ADD \t\t\t\n  DIV \t\t\t\n  SWAP1 \t\t\t\n  POP \t\t\t\n  SWAP2 \t\t\t\n  SWAP1 \t\t\t\n  POP \t\t\t\n  JUMP \t\t\t\ntag 55\t\t\t\n  JUMPDEST \t\t\t\n  PUSH 0\t\t\t\n  DUP3 \t\t\t\n  DUP3 \t\t\t\n  SHL \t\t\t\n  SWAP1 \t\t\t\n  POP \t\t\t\n  SWAP3 \t\t\t\n  SWAP2 \t\t\t\n  POP \t\t\t\n  POP \t\t\t\n  JUMP \t\t\t\ntag 56\t\t\t\n  JUMPDEST \t\t\t\n  PUSH 0\t\t\t\n  PUSH 8\t\t\t\n  DUP4 \t\t\t\n  MUL \t\t\t\n  PUSH [tag] 139\t\t\t\n  PUSH FFFFFFFFFFFFFFFFFFFFFFFFFFFFFFFFFFFFFFFFFFFFFFFFFFFFFFFFFFFFFFFF\t\t\t\n  DUP3 \t\t\t\n  PUSH [tag] 55\t\t\t\n  JUMP \t\t\t\ntag 139\t\t\t\n  JUMPDEST \t\t\t\n  PUSH [tag] 140\t\t\t\n  DUP7 \t\t\t\n  DUP4 \t\t\t\n  PUSH [tag] 55\t\t\t\n  JUMP \t\t\t\ntag 140\t\t\t\n  JUMPDEST \t\t\t\n  SWAP6 \t\t\t\n  POP \t\t\t\n  DUP1 \t\t\t\n  NOT \t\t\t\n  DUP5 \t\t\t\n  AND \t\t\t\n  SWAP4 \t\t\t\n  POP \t\t\t\n  DUP1 \t\t\t\n  DUP7 \t\t\t\n  AND \t\t\t\n  DUP5 \t\t\t\n  OR \t\t\t\n  SWAP3 \t\t\t\n  POP \t\t\t\n  POP \t\t\t\n  POP \t\t\t\n  SWAP4 \t\t\t\n  SWAP3 \t\t\t\n  POP \t\t\t\n  POP \t\t\t\n  POP \t\t\t\n  JUMP \t\t\t\ntag 57\t\t\t\n  JUMPDEST \t\t\t\n  PUSH 0\t\t\t\n  DUP2 \t\t\t\n  SWAP1 \t\t\t\n  POP \t\t\t\n  SWAP2 \t\t\t\n  SWAP1 \t\t\t\n  POP \t\t\t\n  JUMP \t\t\t\ntag 58\t\t\t\n  JUMPDEST \t\t\t\n  PUSH 0\t\t\t\n  PUSH [tag] 143\t\t\t\n  PUSH [tag] 144\t\t\t\n  PUSH [tag] 145\t\t\t\n  DUP5 \t\t\t\n  PUSH [tag] 37\t\t\t\n  JUMP \t\t\t\ntag 145\t\t\t\n  JUMPDEST \t\t\t\n  PUSH [tag] 57\t\t\t\n  JUMP \t\t\t\ntag 144\t\t\t\n  JUMPDEST \t\t\t\n  PUSH [tag] 37\t\t\t\n  JUMP \t\t\t\ntag 143\t\t\t\n  JUMPDEST \t\t\t\n  SWAP1 \t\t\t\n  POP \t\t\t\n  SWAP2 \t\t\t\n  SWAP1 \t\t\t\n  POP \t\t\t\n  JUMP \t\t\t\ntag 59\t\t\t\n  JUMPDEST \t\t\t\n  PUSH 0\t\t\t\n  DUP2 \t\t\t\n  SWAP1 \t\t\t\n  POP \t\t\t\n  SWAP2 \t\t\t\n  SWAP1 \t\t\t\n  POP \t\t\t\n  JUMP \t\t\t\ntag 60\t\t\t\n  JUMPDEST \t\t\t\n  PUSH [tag] 148\t\t\t\n  DUP4 \t\t\t\n  PUSH [tag] 58\t\t\t\n  JUMP \t\t\t\ntag 148\t\t\t\n  JUMPDEST \t\t\t\n  PUSH [tag] 149\t\t\t\n  PUSH [tag] 150\t\t\t\n  DUP3 \t\t\t\n  PUSH [tag] 59\t\t\t\n  JUMP \t\t\t\ntag 150\t\t\t\n  JUMPDEST \t\t\t\n  DUP5 \t\t\t\n  DUP5 \t\t\t\n  SLOAD \t\t\t\n  PUSH [tag] 56\t\t\t\n  JUMP \t\t\t\ntag 149\t\t\t\n  JUMPDEST \t\t\t\n  DUP3 \t\t\t\n  SSTORE \t\t\t\n  POP \t\t\t\n  POP \t\t\t\n  POP \t\t\t\n  POP \t\t\t\n  JUMP \t\t\t\ntag 61\t\t\t\n  JUMPDEST \t\t\t\n  PUSH 0\t\t\t\n  PUSH 0\t\t\t\n  SWAP1 \t\t\t\n  POP \t\t\t\n  SWAP1 \t\t\t\n  JUMP \t\t\t\ntag 62\t\t\t\n  JUMPDEST \t\t\t\n  PUSH [tag] 153\t\t\t\n  PUSH [tag] 61\t\t\t\n  JUMP \t\t\t\ntag 153\t\t\t\n  JUMPDEST \t\t\t\n  PUSH [tag] 154\t\t\t\n  DUP2 \t\t\t\n  DUP5 \t\t\t\n  DUP5 \t\t\t\n  PUSH [tag] 60\t\t\t\n  JUMP \t\t\t\ntag 154\t\t\t\n  JUMPDEST \t\t\t\n  POP \t\t\t\n  POP \t\t\t\n  POP \t\t\t\n  JUMP \t\t\t\ntag 63\t\t\t\n  JUMPDEST \t\t\t\ntag 156\t\t\t\n  JUMPDEST \t\t\t\n  DUP2 \t\t\t\n  DUP2 \t\t\t\n  LT \t\t\t\n  ISZERO \t\t\t\n  PUSH [tag] 158\t\t\t\n  JUMPI \t\t\t\n  PUSH [tag] 159\t\t\t\n  PUSH 0\t\t\t\n  DUP3 \t\t\t\n  PUSH [tag] 62\t\t\t\n  JUMP \t\t\t\ntag 159\t\t\t\n  JUMPDEST \t\t\t\n  PUSH 1\t\t\t\n  DUP2 \t\t\t\n  ADD \t\t\t\n  SWAP1 \t\t\t\n  POP \t\t\t\n  PUSH [tag] 156\t\t\t\n  JUMP \t\t\t\ntag 158\t\t\t\n  JUMPDEST \t\t\t\n  POP \t\t\t\n  POP \t\t\t\n  JUMP \t\t\t\ntag 64\t\t\t\n  JUMPDEST \t\t\t\n  PUSH 1F\t\t\t\n  DUP3 \t\t\t\n  GT \t\t\t\n  ISZERO \t\t\t\n  PUSH [tag] 161\t\t\t\n  JUMPI \t\t\t\n  PUSH [tag] 162\t\t\t\n  DUP2 \t\t\t\n  PUSH [tag] 53\t\t\t\n  JUMP \t\t\t\ntag 162\t\t\t\n  JUMPDEST \t\t\t\n  PUSH [tag] 163\t\t\t\n  DUP5 \t\t\t\n  PUSH [tag] 54\t\t\t\n  JUMP \t\t\t\ntag 163\t\t\t\n  JUMPDEST \t\t\t\n  DUP2 \t\t\t\n  ADD \t\t\t\n  PUSH 20\t\t\t\n  DUP6 \t\t\t\n  LT \t\t\t\n  ISZERO \t\t\t\n  PUSH [tag] 164\t\t\t\n  JUMPI \t\t\t\n  DUP2 \t\t\t\n  SWAP1 \t\t\t\n  POP \t\t\t\ntag 164\t\t\t\n  JUMPDEST \t\t\t\n  PUSH [tag] 165\t\t\t\n  PUSH [tag] 166\t\t\t\n  DUP6 \t\t\t\n  PUSH [tag] 54\t\t\t\n  JUMP \t\t\t\ntag 166\t\t\t\n  JUMPDEST \t\t\t\n  DUP4 \t\t\t\n  ADD \t\t\t\n  DUP3 \t\t\t\n  PUSH [tag] 63\t\t\t\n  JUMP \t\t\t\ntag 165\t\t\t\n  JUMPDEST \t\t\t\n  POP \t\t\t\n  POP \t\t\t\ntag 161\t\t\t\n  JUMPDEST \t\t\t\n  POP \t\t\t\n  POP \t\t\t\n  POP \t\t\t\n  JUMP \t\t\t\ntag 65\t\t\t\n  JUMPDEST \t\t\t\n  PUSH 0\t\t\t\n  DUP3 \t\t\t\n  DUP3 \t\t\t\n  SHR \t\t\t\n  SWAP1 \t\t\t\n  POP \t\t\t\n  SWAP3 \t\t\t\n  SWAP2 \t\t\t\n  POP \t\t\t\n  POP \t\t\t\n  JUMP \t\t\t\ntag 66\t\t\t\n  JUMPDEST \t\t\t\n  PUSH 0\t\t\t\n  PUSH [tag] 169\t\t\t\n  PUSH 0\t\t\t\n  NOT \t\t\t\n  DUP5 \t\t\t\n  PUSH 8\t\t\t\n  MUL \t\t\t\n  PUSH [tag] 65\t\t\t\n  JUMP \t\t\t\ntag 169\t\t\t\n  JUMPDEST \t\t\t\n  NOT \t\t\t\n  DUP1 \t\t\t\n  DUP4 \t\t\t\n  AND \t\t\t\n  SWAP2 \t\t\t\n  POP \t\t\t\n  POP \t\t\t\n  SWAP3 \t\t\t\n  SWAP2 \t\t\t\n  POP \t\t\t\n  POP \t\t\t\n  JUMP \t\t\t\ntag 67\t\t\t\n  JUMPDEST \t\t\t\n  PUSH 0\t\t\t\n  PUSH [tag] 171\t\t\t\n  DUP4 \t\t\t\n  DUP4 \t\t\t\n  PUSH [tag] 66\t\t\t\n  JUMP \t\t\t\ntag 171\t\t\t\n  JUMPDEST \t\t\t\n  SWAP2 \t\t\t\n  POP \t\t\t\n  DUP3 \t\t\t\n  PUSH 2\t\t\t\n  MUL \t\t\t\n  DUP3 \t\t\t\n  OR \t\t\t\n  SWAP1 \t\t\t\n  POP \t\t\t\n  SWAP3 \t\t\t\n  SWAP2 \t\t\t\n  POP \t\t\t\n  POP \t\t\t\n  JUMP \t\t\t\ntag 9\t\t\t\n  JUMPDEST \t\t\t\n  PUSH [tag] 173\t\t\t\n  DUP3 \t\t\t\n  PUSH [tag] 50\t\t\t\n  JUMP \t\t\t\ntag 173\t\t\t\n  JUMPDEST \t\t\t\n  PUSH FFFFFFFFFFFFFFFF\t\t\t\n  DUP2 \t\t\t\n  GT \t\t\t\n  ISZERO \t\t\t\n  PUSH [tag] 174\t\t\t\n  JUMPI \t\t\t\n  PUSH [tag] 175\t\t\t\n  PUSH [tag] 43\t\t\t\n  JUMP \t\t\t\ntag 175\t\t\t\n  JUMPDEST \t\t\t\ntag 174\t\t\t\n  JUMPDEST \t\t\t\n  PUSH [tag] 176\t\t\t\n  DUP3 \t\t\t\n  SLOAD \t\t\t\n  PUSH [tag] 52\t\t\t\n  JUMP \t\t\t\ntag 176\t\t\t\n  JUMPDEST \t\t\t\n  PUSH [tag] 177\t\t\t\n  DUP3 \t\t\t\n  DUP3 \t\t\t\n  DUP6 \t\t\t\n  PUSH [tag] 64\t\t\t\n  JUMP \t\t\t\ntag 177\t\t\t\n  JUMPDEST \t\t\t\n  PUSH 0\t\t\t\n  PUSH 20\t\t\t\n  SWAP1 \t\t\t\n  POP \t\t\t\n  PUSH 1F\t\t\t\n  DUP4 \t\t\t\n  GT \t\t\t\n  PUSH 1\t\t\t\n  DUP2 \t\t\t\n  EQ \t\t\t\n  PUSH [tag] 179\t\t\t\n  JUMPI \t\t\t\n  PUSH 0\t\t\t\n  DUP5 \t\t\t\n  ISZERO \t\t\t\n  PUSH [tag] 180\t\t\t\n  JUMPI \t\t\t\n  DUP3 \t\t\t\n  DUP8 \t\t\t\n  ADD \t\t\t\n  MLOAD \t\t\t\n  SWAP1 \t\t\t\n  POP \t\t\t\ntag 180\t\t\t\n  JUMPDEST \t\t\t\n  PUSH [tag] 181\t\t\t\n  DUP6 \t\t\t\n  DUP3 \t\t\t\n  PUSH [tag] 67\t\t\t\n  JUMP \t\t\t\ntag 181\t\t\t\n  JUMPDEST \t\t\t\n  DUP7 \t\t\t\n  SSTORE \t\t\t\n  POP \t\t\t\n  PUSH [tag] 178\t\t\t\n  JUMP \t\t\t\ntag 179\t\t\t\n  JUMPDEST \t\t\t\n  PUSH 1F\t\t\t\n  NOT \t\t\t\n  DUP5 \t\t\t\n  AND \t\t\t\n  PUSH [tag] 182\t\t\t\n  DUP7 \t\t\t\n  PUSH [tag] 53\t\t\t\n  JUMP \t\t\t\ntag 182\t\t\t\n  JUMPDEST \t\t\t\n  PUSH 0\t\t\t\ntag 183\t\t\t\n  JUMPDEST \t\t\t\n  DUP3 \t\t\t\n  DUP2 \t\t\t\n  LT \t\t\t\n  ISZERO \t\t\t\n  PUSH [tag] 185\t\t\t\n  JUMPI \t\t\t\n  DUP5 \t\t\t\n  DUP10 \t\t\t\n  ADD \t\t\t\n  MLOAD \t\t\t\n  DUP3 \t\t\t\n  SSTORE \t\t\t\n  PUSH 1\t\t\t\n  DUP3 \t\t\t\n  ADD \t\t\t\n  SWAP2 \t\t\t\n  POP \t\t\t\n  PUSH 20\t\t\t\n  DUP6 \t\t\t\n  ADD \t\t\t\n  SWAP5 \t\t\t\n  POP \t\t\t\n  PUSH 20\t\t\t\n  DUP2 \t\t\t\n  ADD \t\t\t\n  SWAP1 \t\t\t\n  POP \t\t\t\n  PUSH [tag] 183\t\t\t\n  JUMP \t\t\t\ntag 185\t\t\t\n  JUMPDEST \t\t\t\n  DUP7 \t\t\t\n  DUP4 \t\t\t\n  LT \t\t\t\n  ISZERO \t\t\t\n  PUSH [tag] 186\t\t\t\n  JUMPI \t\t\t\n  DUP5 \t\t\t\n  DUP10 \t\t\t\n  ADD \t\t\t\n  MLOAD \t\t\t\n  PUSH [tag] 187\t\t\t\n  PUSH 1F\t\t\t\n  DUP10 \t\t\t\n  AND \t\t\t\n  DUP3 \t\t\t\n  PUSH [tag] 66\t\t\t\n  JUMP \t\t\t\ntag 187\t\t\t\n  JUMPDEST \t\t\t\n  DUP4 \t\t\t\n  SSTORE \t\t\t\n  POP \t\t\t\ntag 186\t\t\t\n  JUMPDEST \t\t\t\n  PUSH 1\t\t\t\n  PUSH 2\t\t\t\n  DUP9 \t\t\t\n  MUL \t\t\t\n  ADD \t\t\t\n  DUP9 \t\t\t\n  SSTORE \t\t\t\n  POP \t\t\t\n  POP \t\t\t\n  POP \t\t\t\ntag 178\t\t\t\n  JUMPDEST \t\t\t\n  POP \t\t\t\n  POP \t\t\t\n  POP \t\t\t\n  POP \t\t\t\n  POP \t\t\t\n  POP \t\t\t\n  JUMP \t\t\t\ntag 68\t\t\t\n  JUMPDEST \t\t\t\n  PUSH [tag] 189\t\t\t\n  DUP2 \t\t\t\n  PUSH [tag] 34\t\t\t\n  JUMP \t\t\t\ntag 189\t\t\t\n  JUMPDEST \t\t\t\n  DUP3 \t\t\t\n  MSTORE \t\t\t\n  POP \t\t\t\n  POP \t\t\t\n  JUMP \t\t\t\ntag 14\t\t\t\n  JUMPDEST \t\t\t\n  PUSH 0\t\t\t\n  PUSH 20\t\t\t\n  DUP3 \t\t\t\n  ADD \t\t\t\n  SWAP1 \t\t\t\n  POP \t\t\t\n  PUSH [tag] 191\t\t\t\n  PUSH 0\t\t\t\n  DUP4 \t\t\t\n  ADD \t\t\t\n  DUP5 \t\t\t\n  PUSH [tag] 68\t\t\t\n  JUMP \t\t\t\ntag 191\t\t\t\n  JUMPDEST \t\t\t\n  SWAP3 \t\t\t\n  SWAP2 \t\t\t\n  POP \t\t\t\n  POP \t\t\t\n  JUMP \t\t\t\ntag 69\t\t\t\n  JUMPDEST \t\t\t\n  PUSH 0\t\t\t\n  DUP3 \t\t\t\n  DUP3 \t\t\t\n  MSTORE \t\t\t\n  PUSH 20\t\t\t\n  DUP3 \t\t\t\n  ADD \t\t\t\n  SWAP1 \t\t\t\n  POP \t\t\t\n  SWAP3 \t\t\t\n  SWAP2 \t\t\t\n  POP \t\t\t\n  POP \t\t\t\n  JUMP \t\t\t\ntag 70\t\t\t\n  JUMPDEST \t\t\t\n  PUSH 43424F3D30000000000000000000000000000000000000000000000000000000\t\t\t\n  PUSH 0\t\t\t\n  DUP3 \t\t\t\n  ADD \t\t\t\n  MSTORE \t\t\t\n  POP \t\t\t\n  JUMP \t\t\t\ntag 71\t\t\t\n  JUMPDEST \t\t\t\n  PUSH 0\t\t\t\n  PUSH [tag] 195\t\t\t\n  PUSH 5\t\t\t\n  DUP4 \t\t\t\n  PUSH [tag] 69\t\t\t\n  JUMP \t\t\t\ntag 195\t\t\t\n  JUMPDEST \t\t\t\n  SWAP2 \t\t\t\n  POP \t\t\t\n  PUSH [tag] 196\t\t\t\n  DUP3 \t\t\t\n  PUSH [tag] 70\t\t\t\n  JUMP \t\t\t\ntag 196\t\t\t\n  JUMPDEST \t\t\t\n  PUSH 20\t\t\t\n  DUP3 \t\t\t\n  ADD \t\t\t\n  SWAP1 \t\t\t\n  POP \t\t\t\n  SWAP2 \t\t\t\n  SWAP1 \t\t\t\n  POP \t\t\t\n  JUMP \t\t\t\ntag 20\t\t\t\n  JUMPDEST \t\t\t\n  PUSH 0\t\t\t\n  PUSH 20\t\t\t\n  DUP3 \t\t\t\n  ADD \t\t\t\n  SWAP1 \t\t\t\n  POP \t\t\t\n  DUP2 \t\t\t\n  DUP2 \t\t\t\n  SUB \t\t\t\n  PUSH 0\t\t\t\n  DUP4 \t\t\t\n  ADD \t\t\t\n  MSTORE \t\t\t\n  PUSH [tag] 198\t\t\t\n  DUP2 \t\t\t\n  PUSH [tag] 71\t\t\t\n  JUMP \t\t\t\ntag 198\t\t\t\n  JUMPDEST \t\t\t\n  SWAP1 \t\t\t\n  POP \t\t\t\n  SWAP2 \t\t\t\n  SWAP1 \t\t\t\n  POP \t\t\t\n  JUMP \t\t\t\ntag 72\t\t\t\n  JUMPDEST \t\t\t\n  PUSH 70726963653D3000000000000000000000000000000000000000000000000000\t\t\t\n  PUSH 0\t\t\t\n  DUP3 \t\t\t\n  ADD \t\t\t\n  MSTORE \t\t\t\n  POP \t\t\t\n  JUMP \t\t\t\ntag 73\t\t\t\n  JUMPDEST \t\t\t\n  PUSH 0\t\t\t\n  PUSH [tag] 201\t\t\t\n  PUSH 7\t\t\t\n  DUP4 \t\t\t\n  PUSH [tag] 69\t\t\t\n  JUMP \t\t\t\ntag 201\t\t\t\n  JUMPDEST \t\t\t\n  SWAP2 \t\t\t\n  POP \t\t\t\n  PUSH [tag] 202\t\t\t\n  DUP3 \t\t\t\n  PUSH [tag] 72\t\t\t\n  JUMP \t\t\t\ntag 202\t\t\t\n  JUMPDEST \t\t\t\n  PUSH 20\t\t\t\n  DUP3 \t\t\t\n  ADD \t\t\t\n  SWAP1 \t\t\t\n  POP \t\t\t\n  SWAP2 \t\t\t\n  SWAP1 \t\t\t\n  POP \t\t\t\n  JUMP \t\t\t\ntag 23\t\t\t\n  JUMPDEST \t\t\t\n  PUSH 0\t\t\t\n  PUSH 20\t\t\t\n  DUP3 \t\t\t\n  ADD \t\t\t\n  SWAP1 \t\t\t\n  POP \t\t\t\n  DUP2 \t\t\t\n  DUP2 \t\t\t\n  SUB \t\t\t\n  PUSH 0\t\t\t\n  DUP4 \t\t\t\n  ADD \t\t\t\n  MSTORE \t\t\t\n  PUSH [tag] 204\t\t\t\n  DUP2 \t\t\t\n  PUSH [tag] 73\t\t\t\n  JUMP \t\t\t\ntag 204\t\t\t\n  JUMPDEST \t\t\t\n  SWAP1 \t\t\t\n  POP \t\t\t\n  SWAP2 \t\t\t\n  SWAP1 \t\t\t\n  POP \t\t\t\n  JUMP \t\t\t\ntag 74\t\t\t\n  JUMPDEST \t\t\t\n  PUSH 6D61783D30000000000000000000000000000000000000000000000000000000\t\t\t\n  PUSH 0\t\t\t\n  DUP3 \t\t\t\n  ADD \t\t\t\n  MSTORE \t\t\t\n  POP \t\t\t\n  JUMP \t\t\t\ntag 75\t\t\t\n  JUMPDEST \t\t\t\n  PUSH 0\t\t\t\n  PUSH [tag] 207\t\t\t\n  PUSH 5\t\t\t\n  DUP4 \t\t\t\n  PUSH [tag] 69\t\t\t\n  JUMP \t\t\t\ntag 207\t\t\t\n  JUMPDEST \t\t\t\n  SWAP2 \t\t\t\n  POP \t\t\t\n  PUSH [tag] 208\t\t\t\n  DUP3 \t\t\t\n  PUSH [tag] 74\t\t\t\n  JUMP \t\t\t\ntag 208\t\t\t\n  JUMPDEST \t\t\t\n  PUSH 20\t\t\t\n  DUP3 \t\t\t\n  ADD \t\t\t\n  SWAP1 \t\t\t\n  POP \t\t\t\n  SWAP2 \t\t\t\n  SWAP1 \t\t\t\n  POP \t\t\t\n  JUMP \t\t\t\ntag 26\t\t\t\n  JUMPDEST \t\t\t\n  PUSH 0\t\t\t\n  PUSH 20\t\t\t\n  DUP3 \t\t\t\n  ADD \t\t\t\n  SWAP1 \t\t\t\n  POP \t\t\t\n  DUP2 \t\t\t\n  DUP2 \t\t\t\n  SUB \t\t\t\n  PUSH 0\t\t\t\n  DUP4 \t\t\t\n  ADD \t\t\t\n  MSTORE \t\t\t\n  PUSH [tag] 210\t\t\t\n  DUP2 \t\t\t\n  PUSH [tag] 75\t\t\t\n  JUMP \t\t\t\ntag 210\t\t\t\n  JUMPDEST \t\t\t\n  SWAP1 \t\t\t\n  POP \t\t\t\n  SWAP2 \t\t\t\n  SWAP1 \t\t\t\n  POP \t\t\t\n  JUMP \t\t\t\ntag 28\t\t\tcontract Experience721 is ERC7...\n  JUMPDEST \t\t\tcontract Experience721 is ERC7...\n  PUSH 80\t\t\tcontract Experience721 is ERC7...\n  MLOAD \t\t\tcontract Experience721 is ERC7...\n  PUSH #[$] 0000000000000000000000000000000000000000000000000000000000000000\t\t\tcontract Experience721 is ERC7...\n  PUSH [$] 0000000000000000000000000000000000000000000000000000000000000000\t\t\tcontract Experience721 is ERC7...\n  PUSH 0\t\t\tcontract Experience721 is ERC7...\n  CODECOPY \t\t\tcontract Experience721 is ERC7...\n  PUSH 0\t\t\tcontract Experience721 is ERC7...\n  ASSIGNIMMUTABLE 6627\t\t\tcontract Experience721 is ERC7...\n  PUSH #[$] 0000000000000000000000000000000000000000000000000000000000000000\t\t\tcontract Experience721 is ERC7...\n  PUSH 0\t\t\tcontract Experience721 is ERC7...\n  RETURN \t\t\tcontract Experience721 is ERC7...\n.data\n  0:\n    .code\n      PUSH 80\t\t\tcontract Experience721 is ERC7...\n      PUSH 40\t\t\tcontract Experience721 is ERC7...\n      MSTORE \t\t\tcontract Experience721 is ERC7...\n      CALLVALUE \t\t\tcontract Experience721 is ERC7...\n      DUP1 \t\t\tcontract Experience721 is ERC7...\n      ISZERO \t\t\tcontract Experience721 is ERC7...\n      PUSH [tag] 1\t\t\tcontract Experience721 is ERC7...\n      JUMPI \t\t\tcontract Experience721 is ERC7...\n      PUSH 0\t\t\tcontract Experience721 is ERC7...\n      PUSH 0\t\t\tcontract Experience721 is ERC7...\n      REVERT \t\t\tcontract Experience721 is ERC7...\n    tag 1\t\t\tcontract Experience721 is ERC7...\n      JUMPDEST \t\t\tcontract Experience721 is ERC7...\n      POP \t\t\tcontract Experience721 is ERC7...\n      PUSH 4\t\t\tcontract Experience721 is ERC7...\n      CALLDATASIZE \t\t\tcontract Experience721 is ERC7...\n      LT \t\t\tcontract Experience721 is ERC7...\n      PUSH [tag] 2\t\t\tcontract Experience721 is ERC7...\n      JUMPI \t\t\tcontract Experience721 is ERC7...\n      PUSH 0\t\t\tcontract Experience721 is ERC7...\n      CALLDATALOAD \t\t\tcontract Experience721 is ERC7...\n      PUSH E0\t\t\tcontract Experience721 is ERC7...\n      SHR \t\t\tcontract Experience721 is ERC7...\n      DUP1 \t\t\tcontract Experience721 is ERC7...\n      PUSH 715018A6\t\t\tcontract Experience721 is ERC7...\n      GT \t\t\tcontract Experience721 is ERC7...\n      PUSH [tag] 28\t\t\tcontract Experience721 is ERC7...\n      JUMPI \t\t\tcontract Experience721 is ERC7...\n      DUP1 \t\t\tcontract Experience721 is ERC7...\n      PUSH C87B56DD\t\t\tcontract Experience721 is ERC7...\n      GT \t\t\tcontract Experience721 is ERC7...\n      PUSH [tag] 29\t\t\tcontract Experience721 is ERC7...\n      JUMPI \t\t\tcontract Experience721 is ERC7...\n      DUP1 \t\t\tcontract Experience721 is ERC7...\n      PUSH E985E9C5\t\t\tcontract Experience721 is ERC7...\n      GT \t\t\tcontract Experience721 is ERC7...\n      PUSH [tag] 30\t\t\tcontract Experience721 is ERC7...\n      JUMPI \t\t\tcontract Experience721 is ERC7...\n      DUP1 \t\t\tcontract Experience721 is ERC7...\n      PUSH E985E9C5\t\t\tcontract Experience721 is ERC7...\n      EQ \t\t\tcontract Experience721 is ERC7...\n      PUSH [tag] 24\t\t\tcontract Experience721 is ERC7...\n      JUMPI \t\t\tcontract Experience721 is ERC7...\n      DUP1 \t\t\tcontract Experience721 is ERC7...\n      PUSH F0F44260\t\t\tcontract Experience721 is ERC7...\n      EQ \t\t\tcontract Experience721 is ERC7...\n      PUSH [tag] 25\t\t\tcontract Experience721 is ERC7...\n      JUMPI \t\t\tcontract Experience721 is ERC7...\n      DUP1 \t\t\tcontract Experience721 is ERC7...\n      PUSH F2FDE38B\t\t\tcontract Experience721 is ERC7...\n      EQ \t\t\tcontract Experience721 is ERC7...\n      PUSH [tag] 26\t\t\tcontract Experience721 is ERC7...\n      JUMPI \t\t\tcontract Experience721 is ERC7...\n      DUP1 \t\t\tcontract Experience721 is ERC7...\n      PUSH FB29ADA6\t\t\tcontract Experience721 is ERC7...\n      EQ \t\t\tcontract Experience721 is ERC7...\n      PUSH [tag] 27\t\t\tcontract Experience721 is ERC7...\n      JUMPI \t\t\tcontract Experience721 is ERC7...\n      PUSH [tag] 2\t\t\tcontract Experience721 is ERC7...\n      JUMP \t\t\tcontract Experience721 is ERC7...\n    tag 30\t\t\tcontract Experience721 is ERC7...\n      JUMPDEST \t\t\tcontract Experience721 is ERC7...\n      DUP1 \t\t\tcontract Experience721 is ERC7...\n      PUSH C87B56DD\t\t\tcontract Experience721 is ERC7...\n      EQ \t\t\tcontract Experience721 is ERC7...\n      PUSH [tag] 21\t\t\tcontract Experience721 is ERC7...\n      JUMPI \t\t\tcontract Experience721 is ERC7...\n      DUP1 \t\t\tcontract Experience721 is ERC7...\n      PUSH CE0ED706\t\t\tcontract Experience721 is ERC7...\n      EQ \t\t\tcontract Experience721 is ERC7...\n      PUSH [tag] 22\t\t\tcontract Experience721 is ERC7...\n      JUMPI \t\t\tcontract Experience721 is ERC7...\n      DUP1 \t\t\tcontract Experience721 is ERC7...\n      PUSH D5ABEB01\t\t\tcontract Experience721 is ERC7...\n      EQ \t\t\tcontract Experience721 is ERC7...\n      PUSH [tag] 23\t\t\tcontract Experience721 is ERC7...\n      JUMPI \t\t\tcontract Experience721 is ERC7...\n      PUSH [tag] 2\t\t\tcontract Experience721 is ERC7...\n      JUMP \t\t\tcontract Experience721 is ERC7...\n    tag 29\t\t\tcontract Experience721 is ERC7...\n      JUMPDEST \t\t\tcontract Experience721 is ERC7...\n      DUP1 \t\t\tcontract Experience721 is ERC7...\n      PUSH 715018A6\t\t\tcontract Experience721 is ERC7...\n      EQ \t\t\tcontract Experience721 is ERC7...\n      PUSH [tag] 15\t\t\tcontract Experience721 is ERC7...\n      JUMPI \t\t\tcontract Experience721 is ERC7...\n      DUP1 \t\t\tcontract Experience721 is ERC7...\n      PUSH 8DA5CB5B\t\t\tcontract Experience721 is ERC7...\n      EQ \t\t\tcontract Experience721 is ERC7...\n      PUSH [tag] 16\t\t\tcontract Experience721 is ERC7...\n      JUMPI \t\t\tcontract Experience721 is ERC7...\n      DUP1 \t\t\tcontract Experience721 is ERC7...\n      PUSH 95D89B41\t\t\tcontract Experience721 is ERC7...\n      EQ \t\t\tcontract Experience721 is ERC7...\n      PUSH [tag] 17\t\t\tcontract Experience721 is ERC7...\n      JUMPI \t\t\tcontract Experience721 is ERC7...\n      DUP1 \t\t\tcontract Experience721 is ERC7...\n      PUSH A0712D68\t\t\tcontract Experience721 is ERC7...\n      EQ \t\t\tcontract Experience721 is ERC7...\n      PUSH [tag] 18\t\t\tcontract Experience721 is ERC7...\n      JUMPI \t\t\tcontract Experience721 is ERC7...\n      DUP1 \t\t\tcontract Experience721 is ERC7...\n      PUSH A22CB465\t\t\tcontract Experience721 is ERC7...\n      EQ \t\t\tcontract Experience721 is ERC7...\n      PUSH [tag] 19\t\t\tcontract Experience721 is ERC7...\n      JUMPI \t\t\tcontract Experience721 is ERC7...\n      DUP1 \t\t\tcontract Experience721 is ERC7...\n      PUSH B88D4FDE\t\t\tcontract Experience721 is ERC7...\n      EQ \t\t\tcontract Experience721 is ERC7...\n      PUSH [tag] 20\t\t\tcontract Experience721 is ERC7...\n      JUMPI \t\t\tcontract Experience721 is ERC7...\n      PUSH [tag] 2\t\t\tcontract Experience721 is ERC7...\n      JUMP \t\t\tcontract Experience721 is ERC7...\n    tag 28\t\t\tcontract Experience721 is ERC7...\n      JUMPDEST \t\t\tcontract Experience721 is ERC7...\n      DUP1 \t\t\tcontract Experience721 is ERC7...\n      PUSH 33862D67\t\t\tcontract Experience721 is ERC7...\n      GT \t\t\tcontract Experience721 is ERC7...\n      PUSH [tag] 31\t\t\tcontract Experience721 is ERC7...\n      JUMPI \t\t\tcontract Experience721 is ERC7...\n      DUP1 \t\t\tcontract Experience721 is ERC7...\n      PUSH 33862D67\t\t\tcontract Experience721 is ERC7...\n      EQ \t\t\tcontract Experience721 is ERC7...\n      PUSH [tag] 9\t\t\tcontract Experience721 is ERC7...\n      JUMPI \t\t\tcontract Experience721 is ERC7...\n      DUP1 \t\t\tcontract Experience721 is ERC7...\n      PUSH 42842E0E\t\t\tcontract Experience721 is ERC7...\n      EQ \t\t\tcontract Experience721 is ERC7...\n      PUSH [tag] 10\t\t\tcontract Experience721 is ERC7...\n      JUMPI \t\t\tcontract Experience721 is ERC7...\n      DUP1 \t\t\tcontract Experience721 is ERC7...\n      PUSH 55F804B3\t\t\tcontract Experience721 is ERC7...\n      EQ \t\t\tcontract Experience721 is ERC7...\n      PUSH [tag] 11\t\t\tcontract Experience721 is ERC7...\n      JUMPI \t\t\tcontract Experience721 is ERC7...\n      DUP1 \t\t\tcontract Experience721 is ERC7...\n      PUSH 61D027B3\t\t\tcontract Experience721 is ERC7...\n      EQ \t\t\tcontract Experience721 is ERC7...\n      PUSH [tag] 12\t\t\tcontract Experience721 is ERC7...\n      JUMPI \t\t\tcontract Experience721 is ERC7...\n      DUP1 \t\t\tcontract Experience721 is ERC7...\n      PUSH 6352211E\t\t\tcontract Experience721 is ERC7...\n      EQ \t\t\tcontract Experience721 is ERC7...\n      PUSH [tag] 13\t\t\tcontract Experience721 is ERC7...\n      JUMPI \t\t\tcontract Experience721 is ERC7...\n      DUP1 \t\t\tcontract Experience721 is ERC7...\n      PUSH 70A08231\t\t\tcontract Experience721 is ERC7...\n      EQ \t\t\tcontract Experience721 is ERC7...\n      PUSH [tag] 14\t\t\tcontract Experience721 is ERC7...\n      JUMPI \t\t\tcontract Experience721 is ERC7...\n      PUSH [tag] 2\t\t\tcontract Experience721 is ERC7...\n      JUMP \t\t\tcontract Experience721 is ERC7...\n    tag 31\t\t\tcontract Experience721 is ERC7...\n      JUMPDEST \t\t\tcontract Experience721 is ERC7...\n      DUP1 \t\t\tcontract Experience721 is ERC7...\n      PUSH 1FFC9A7\t\t\tcontract Experience721 is ERC7...\n      EQ \t\t\tcontract Experience721 is ERC7...\n      PUSH [tag] 3\t\t\tcontract Experience721 is ERC7...\n      JUMPI \t\t\tcontract Experience721 is ERC7...\n      DUP1 \t\t\tcontract Experience721 is ERC7...\n      PUSH 6FDDE03\t\t\tcontract Experience721 is ERC7...\n      EQ \t\t\tcontract Experience721 is ERC7...\n      PUSH [tag] 4\t\t\tcontract Experience721 is ERC7...\n      JUMPI \t\t\tcontract Experience721 is ERC7...\n      DUP1 \t\t\tcontract Experience721 is ERC7...\n      PUSH 81812FC\t\t\tcontract Experience721 is ERC7...\n      EQ \t\t\tcontract Experience721 is ERC7...\n      PUSH [tag] 5\t\t\tcontract Experience721 is ERC7...\n      JUMPI \t\t\tcontract Experience721 is ERC7...\n      DUP1 \t\t\tcontract Experience721 is ERC7...\n      PUSH 95EA7B3\t\t\tcontract Experience721 is ERC7...\n      EQ \t\t\tcontract Experience721 is ERC7...\n      PUSH [tag] 6\t\t\tcontract Experience721 is ERC7...\n      JUMPI \t\t\tcontract Experience721 is ERC7...\n      DUP1 \t\t\tcontract Experience721 is ERC7...\n      PUSH 18160DDD\t\t\tcontract Experience721 is ERC7...\n      EQ \t\t\tcontract Experience721 is ERC7...\n      PUSH [tag] 7\t\t\tcontract Experience721 is ERC7...\n      JUMPI \t\t\tcontract Experience721 is ERC7...\n      DUP1 \t\t\tcontract Experience721 is ERC7...\n      PUSH 23B872DD\t\t\tcontract Experience721 is ERC7...\n      EQ \t\t\tcontract Experience721 is ERC7...\n      PUSH [tag] 8\t\t\tcontract Experience721 is ERC7...\n      JUMPI \t\t\tcontract Experience721 is ERC7...\n    tag 2\t\t\tcontract Experience721 is ERC7...\n      JUMPDEST \t\t\tcontract Experience721 is ERC7...\n      PUSH 0\t\t\tcontract Experience721 is ERC7...\n      PUSH 0\t\t\tcontract Experience721 is ERC7...\n      REVERT \t\t\tcontract Experience721 is ERC7...\n    tag 3\t\t\tuire(initialPriceInCBO > 0, \"p...\n      JUMPDEST \t\t\tuire(initialPriceInCBO > 0, \"p...\n      PUSH [tag] 32\t\t\tuire(initialPriceInCBO > 0, \"p...\n      PUSH 4\t\t\tuire(initialPriceInCBO > 0, \"p...\n      DUP1 \t\t\tuire(initialPriceInCBO > 0, \"p...\n      CALLDATASIZE \t\t\tuire(initialPriceInCBO > 0, \"p...\n      SUB \t\t\tuire(initialPriceInCBO > 0, \"p...\n      DUP2 \t\t\tuire(initialPriceInCBO > 0, \"p...\n      ADD \t\t\tuire(initialPriceInCBO > 0, \"p...\n      SWAP1 \t\t\tuire(initialPriceInCBO > 0, \"p...\n      PUSH [tag] 33\t\t\tuire(initialPriceInCBO > 0, \"p...\n      SWAP2 \t\t\tuire(initialPriceInCBO > 0, \"p...\n      SWAP1 \t\t\tuire(initialPriceInCBO > 0, \"p...\n      PUSH [tag] 34\t\t\tuire(initialPriceInCBO > 0, \"p...\n      JUMP \t\t\tuire(initialPriceInCBO > 0, \"p...\n    tag 33\t\t\tuire(initialPriceInCBO > 0, \"p...\n      JUMPDEST \t\t\tuire(initialPriceInCBO > 0, \"p...\n      PUSH [tag] 35\t\t\tuire(initialPriceInCBO > 0, \"p...\n      JUMP \t\t\tuire(initialPriceInCBO > 0, \"p...\n    tag 32\t\t\tuire(initialPriceInCBO > 0, \"p...\n      JUMPDEST \t\t\tuire(initialPriceInCBO > 0, \"p...\n      PUSH 40\t\t\tuire(initialPriceInCBO > 0, \"p...\n      MLOAD \t\t\tuire(initialPriceInCBO > 0, \"p...\n      PUSH [tag] 36\t\t\tuire(initialPriceInCBO > 0, \"p...\n      SWAP2 \t\t\tuire(initialPriceInCBO > 0, \"p...\n      SWAP1 \t\t\tuire(initialPriceInCBO > 0, \"p...\n      PUSH [tag] 37\t\t\tuire(initialPriceInCBO > 0, \"p...\n      JUMP \t\t\tuire(initialPriceInCBO > 0, \"p...\n    tag 36\t\t\tuire(initialPriceInCBO > 0, \"p...\n      JUMPDEST \t\t\tuire(initialPriceInCBO > 0, \"p...\n      PUSH 40\t\t\tuire(initialPriceInCBO > 0, \"p...\n      MLOAD \t\t\tuire(initialPriceInCBO > 0, \"p...\n      DUP1 \t\t\tuire(initialPriceInCBO > 0, \"p...\n      SWAP2 \t\t\tuire(initialPriceInCBO > 0, \"p...\n      SUB \t\t\tuire(initialPriceInCBO > 0, \"p...\n      SWAP1 \t\t\tuire(initialPriceInCBO > 0, \"p...\n      RETURN \t\t\tuire(initialPriceInCBO > 0, \"p...\n    tag 4\t\t\tnction setBaseURI(string memor...\n      JUMPDEST \t\t\tnction setBaseURI(string memor...\n      PUSH [tag] 38\t\t\tnction setBaseURI(string memor...\n      PUSH [tag] 39\t\t\tnction setBaseURI(string memor...\n      JUMP \t\t\tnction setBaseURI(string memor...\n    tag 38\t\t\tnction setBaseURI(string memor...\n      JUMPDEST \t\t\tnction setBaseURI(string memor...\n      PUSH 40\t\t\tnction setBaseURI(string memor...\n      MLOAD \t\t\tnction setBaseURI(string memor...\n      PUSH [tag] 40\t\t\tnction setBaseURI(string memor...\n      SWAP2 \t\t\tnction setBaseURI(string memor...\n      SWAP1 \t\t\tnction setBaseURI(string memor...\n      PUSH [tag] 41\t\t\tnction setBaseURI(string memor...\n      JUMP \t\t\tnction setBaseURI(string memor...\n    tag 40\t\t\tnction setBaseURI(string memor...\n      JUMPDEST \t\t\tnction setBaseURI(string memor...\n      PUSH 40\t\t\tnction setBaseURI(string memor...\n      MLOAD \t\t\tnction setBaseURI(string memor...\n      DUP1 \t\t\tnction setBaseURI(string memor...\n      SWAP2 \t\t\tnction setBaseURI(string memor...\n      SUB \t\t\tnction setBaseURI(string memor...\n      SWAP1 \t\t\tnction setBaseURI(string memor...\n      RETURN \t\t\tnction setBaseURI(string memor...\n    tag 5\t\t\temory) {\\n        // ownerOf r...\n      JUMPDEST \t\t\temory) {\\n        // ownerOf r...\n      PUSH [tag] 42\t\t\temory) {\\n        // ownerOf r...\n      PUSH 4\t\t\temory) {\\n        // ownerOf r...\n      DUP1 \t\t\temory) {\\n        // ownerOf r...\n      CALLDATASIZE \t\t\temory) {\\n        // ownerOf r...\n      SUB \t\t\temory) {\\n        // ownerOf r...\n      DUP2 \t\t\temory) {\\n        // ownerOf r...\n      ADD \t\t\temory) {\\n        // ownerOf r...\n      SWAP1 \t\t\temory) {\\n        // ownerOf r...\n      PUSH [tag] 43\t\t\temory) {\\n        // ownerOf r...\n      SWAP2 \t\t\temory) {\\n        // ownerOf r...\n      SWAP1 \t\t\temory) {\\n        // ownerOf r...\n      PUSH [tag] 44\t\t\temory) {\\n        // ownerOf r...\n      JUMP \t\t\temory) {\\n        // ownerOf r...\n    tag 43\t\t\temory) {\\n        // ownerOf r...\n      JUMPDEST \t\t\temory) {\\n        // ownerOf r...\n      PUSH [tag] 45\t\t\temory) {\\n        // ownerOf r...\n      JUMP \t\t\temory) {\\n        // ownerOf r...\n    tag 42\t\t\temory) {\\n        // ownerOf r...\n      JUMPDEST \t\t\temory) {\\n        // ownerOf r...\n      PUSH 40\t\t\temory) {\\n        // ownerOf r...\n      MLOAD \t\t\temory) {\\n        // ownerOf r...\n      PUSH [tag] 46\t\t\temory) {\\n        // ownerOf r...\n      SWAP2 \t\t\temory) {\\n        // ownerOf r...\n      SWAP1 \t\t\temory) {\\n        // ownerOf r...\n      PUSH [tag] 47\t\t\temory) {\\n        // ownerOf r...\n      JUMP \t\t\temory) {\\n        // ownerOf r...\n    tag 46\t\t\temory) {\\n        // ownerOf r...\n      JUMPDEST \t\t\temory) {\\n        // ownerOf r...\n      PUSH 40\t\t\temory) {\\n        // ownerOf r...\n      MLOAD \t\t\temory) {\\n        // ownerOf r...\n      DUP1 \t\t\temory) {\\n        // ownerOf r...\n      SWAP2 \t\t\temory) {\\n        // ownerOf r...\n      SUB \t\t\temory) {\\n        // ownerOf r...\n      SWAP1 \t\t\temory) {\\n        // ownerOf r...\n      RETURN \t\t\temory) {\\n        // ownerOf r...\n    tag 6\t\t\tew override returns (string me...\n      JUMPDEST \t\t\tew override returns (string me...\n      PUSH [tag] 48\t\t\tew override returns (string me...\n      PUSH 4\t\t\tew override returns (string me...\n      DUP1 \t\t\tew override returns (string me...\n      CALLDATASIZE \t\t\tew override returns (string me...\n      SUB \t\t\tew override returns (string me...\n      DUP2 \t\t\tew override returns (string me...\n      ADD \t\t\tew override returns (string me...\n      SWAP1 \t\t\tew override returns (string me...\n      PUSH [tag] 49\t\t\tew override returns (string me...\n      SWAP2 \t\t\tew override returns (string me...\n      SWAP1 \t\t\tew override returns (string me...\n      PUSH [tag] 50\t\t\tew override returns (string me...\n      JUMP \t\t\tew override returns (string me...\n    tag 49\t\t\tew override returns (string me...\n      JUMPDEST \t\t\tew override returns (string me...\n      PUSH [tag] 51\t\t\tew override returns (string me...\n      JUMP \t\t\tew override returns (string me...\n    tag 48\t\t\tew override returns (string me...\n      JUMPDEST \t\t\tew override returns (string me...\n      STOP \t\t\tew override returns (string me...\n    tag 7\t\t\tuint256 public totalSupply\n      JUMPDEST \t\t\tuint256 public totalSupply\n      PUSH [tag] 52\t\t\tuint256 public totalSupply\n      PUSH [tag] 53\t\t\tuint256 public totalSupply\n      JUMP \t\t\tuint256 public totalSupply\n    tag 52\t\t\tuint256 public totalSupply\n      JUMPDEST \t\t\tuint256 public totalSupply\n      PUSH 40\t\t\tuint256 public totalSupply\n      MLOAD \t\t\tuint256 public totalSupply\n      PUSH [tag] 54\t\t\tuint256 public totalSupply\n      SWAP2 \t\t\tuint256 public totalSupply\n      SWAP1 \t\t\tuint256 public totalSupply\n      PUSH [tag] 55\t\t\tuint256 public totalSupply\n      JUMP \t\t\tuint256 public totalSupply\n    tag 54\t\t\tuint256 public totalSupply\n      JUMPDEST \t\t\tuint256 public totalSupply\n      PUSH 40\t\t\tuint256 public totalSupply\n      MLOAD \t\t\tuint256 public totalSupply\n      DUP1 \t\t\tuint256 public totalSupply\n      SWAP2 \t\t\tuint256 public totalSupply\n      SUB \t\t\tuint256 public totalSupply\n      SWAP1 \t\t\tuint256 public totalSupply\n      RETURN \t\t\tuint256 public totalSupply\n    tag 8\t\t\t\n      JUMPDEST \t\t\t\n      PUSH [tag] 56\t\t\t\n      PUSH 4\t\t\t\n      DUP1 \t\t\t\n      CALLDATASIZE \t\t\t\n      SUB \t\t\t\n      DUP2 \t\t\t\n      ADD \t\t\t\n      SWAP1 \t\t\t\n      PUSH [tag] 57\t\t\t\n      SWAP2 \t\t\t\n      SWAP1 \t\t\t\n      PUSH [tag] 58\t\t\t\n      JUMP \t\t\t\n    tag 57\t\t\t\n      JUMPDEST \t\t\t\n      PUSH [tag] 59\t\t\t\n      JUMP \t\t\t\n    tag 56\t\t\t\n      JUMPDEST \t\t\t\n      STOP \t\t\t\n    tag 9\t\t\tIERC20 public immutable carbon...\n      JUMPDEST \t\t\tIERC20 public immutable carbon...\n      PUSH [tag] 60\t\t\tIERC20 public immutable carbon...\n      PUSH [tag] 61\t\t\tIERC20 public immutable carbon...\n      JUMP \t\t\tIERC20 public immutable carbon...\n    tag 60\t\t\tIERC20 public immutable carbon...\n      JUMPDEST \t\t\tIERC20 public immutable carbon...\n      PUSH 40\t\t\tIERC20 public immutable carbon...\n      MLOAD \t\t\tIERC20 public immutable carbon...\n      PUSH [tag] 62\t\t\tIERC20 public immutable carbon...\n      SWAP2 \t\t\tIERC20 public immutable carbon...\n      SWAP1 \t\t\tIERC20 public immutable carbon...\n      PUSH [tag] 63\t\t\tIERC20 public immutable carbon...\n      JUMP \t\t\tIERC20 public immutable carbon...\n    tag 62\t\t\tIERC20 public immutable carbon...\n      JUMPDEST \t\t\tIERC20 public immutable carbon...\n      PUSH 40\t\t\tIERC20 public immutable carbon...\n      MLOAD \t\t\tIERC20 public immutable carbon...\n      DUP1 \t\t\tIERC20 public immutable carbon...\n      SWAP2 \t\t\tIERC20 public immutable carbon...\n      SUB \t\t\tIERC20 public immutable carbon...\n      SWAP1 \t\t\tIERC20 public immutable carbon...\n      RETURN \t\t\tIERC20 public immutable carbon...\n    tag 10\t\t\t\n      JUMPDEST \t\t\t\n      PUSH [tag] 64\t\t\t\n      PUSH 4\t\t\t\n      DUP1 \t\t\t\n      CALLDATASIZE \t\t\t\n      SUB \t\t\t\n      DUP2 \t\t\t\n      ADD \t\t\t\n      SWAP1 \t\t\t\n      PUSH [tag] 65\t\t\t\n      SWAP2 \t\t\t\n      SWAP1 \t\t\t\n      PUSH [tag] 58\t\t\t\n      JUMP \t\t\t\n    tag 65\t\t\t\n      JUMPDEST \t\t\t\n      PUSH [tag] 66\t\t\t\n      JUMP \t\t\t\n    tag 64\t\t\t\n      JUMPDEST \t\t\t\n      STOP \t\t\t\n    tag 11\t\t\tunction setBaseURI(string memo...\n      JUMPDEST \t\t\tunction setBaseURI(string memo...\n      PUSH [tag] 67\t\t\tunction setBaseURI(string memo...\n      PUSH 4\t\t\tunction setBaseURI(string memo...\n      DUP1 \t\t\tunction setBaseURI(string memo...\n      CALLDATASIZE \t\t\tunction setBaseURI(string memo...\n      SUB \t\t\tunction setBaseURI(string memo...\n      DUP2 \t\t\tunction setBaseURI(string memo...\n      ADD \t\t\tunction setBaseURI(string memo...\n      SWAP1 \t\t\tunction setBaseURI(string memo...\n      PUSH [tag] 68\t\t\tunction setBaseURI(string memo...\n      SWAP2 \t\t\tunction setBaseURI(string memo...\n      SWAP1 \t\t\tunction setBaseURI(string memo...\n      PUSH [tag] 69\t\t\tunction setBaseURI(string memo...\n      JUMP \t\t\tunction setBaseURI(string memo...\n    tag 68\t\t\tunction setBaseURI(string memo...\n      JUMPDEST \t\t\tunction setBaseURI(string memo...\n      PUSH [tag] 70\t\t\tunction setBaseURI(string memo...\n      JUMP \t\t\tunction setBaseURI(string memo...\n    tag 67\t\t\tunction setBaseURI(string memo...\n      JUMPDEST \t\t\tunction setBaseURI(string memo...\n      STOP \t\t\tunction setBaseURI(string memo...\n    tag 12\t\t\taddress public treasury\n      JUMPDEST \t\t\taddress public treasury\n      PUSH [tag] 71\t\t\taddress public treasury\n      PUSH [tag] 72\t\t\taddress public treasury\n      JUMP \t\t\taddress public treasury\n    tag 71\t\t\taddress public treasury\n      JUMPDEST \t\t\taddress public treasury\n      PUSH 40\t\t\taddress public treasury\n      MLOAD \t\t\taddress public treasury\n      PUSH [tag] 73\t\t\taddress public treasury\n      SWAP2 \t\t\taddress public treasury\n      SWAP1 \t\t\taddress public treasury\n      PUSH [tag] 47\t\t\taddress public treasury\n      JUMP \t\t\taddress public treasury\n    tag 73\t\t\taddress public treasury\n      JUMPDEST \t\t\taddress public treasury\n      PUSH 40\t\t\taddress public treasury\n      MLOAD \t\t\taddress public treasury\n      DUP1 \t\t\taddress public treasury\n      SWAP2 \t\t\taddress public treasury\n      SUB \t\t\taddress public treasury\n      SWAP1 \t\t\taddress public treasury\n      RETURN \t\t\taddress public treasury\n    tag 13\t\t\tl onlyOwner {\\n        require...\n      JUMPDEST \t\t\tl onlyOwner {\\n        require...\n      PUSH [tag] 74\t\t\tl onlyOwner {\\n        require...\n      PUSH 4\t\t\tl onlyOwner {\\n        require...\n      DUP1 \t\t\tl onlyOwner {\\n        require...\n      CALLDATASIZE \t\t\tl onlyOwner {\\n        require...\n      SUB \t\t\tl onlyOwner {\\n        require...\n      DUP2 \t\t\tl onlyOwner {\\n        require...\n      ADD \t\t\tl onlyOwner {\\n        require...\n      SWAP1 \t\t\tl onlyOwner {\\n        require...\n      PUSH [tag] 75\t\t\tl onlyOwner {\\n        require...\n      SWAP2 \t\t\tl onlyOwner {\\n        require...\n      SWAP1 \t\t\tl onlyOwner {\\n        require...\n      PUSH [tag] 44\t\t\tl onlyOwner {\\n        require...\n      JUMP \t\t\tl onlyOwner {\\n        require...\n    tag 75\t\t\tl onlyOwner {\\n        require...\n      JUMPDEST \t\t\tl onlyOwner {\\n        require...\n      PUSH [tag] 76\t\t\tl onlyOwner {\\n        require...\n      JUMP \t\t\tl onlyOwner {\\n        require...\n    tag 74\t\t\tl onlyOwner {\\n        require...\n      JUMPDEST \t\t\tl onlyOwner {\\n        require...\n      PUSH 40\t\t\tl onlyOwner {\\n        require...\n      MLOAD \t\t\tl onlyOwner {\\n        require...\n      PUSH [tag] 77\t\t\tl onlyOwner {\\n        require...\n      SWAP2 \t\t\tl onlyOwner {\\n        require...\n      SWAP1 \t\t\tl onlyOwner {\\n        require...\n      PUSH [tag] 47\t\t\tl onlyOwner {\\n        require...\n      JUMP \t\t\tl onlyOwner {\\n        require...\n    tag 77\t\t\tl onlyOwner {\\n        require...\n      JUMPDEST \t\t\tl onlyOwner {\\n        require...\n      PUSH 40\t\t\tl onlyOwner {\\n        require...\n      MLOAD \t\t\tl onlyOwner {\\n        require...\n      DUP1 \t\t\tl onlyOwner {\\n        require...\n      SWAP2 \t\t\tl onlyOwner {\\n        require...\n      SUB \t\t\tl onlyOwner {\\n        require...\n      SWAP1 \t\t\tl onlyOwner {\\n        require...\n      RETURN \t\t\tl onlyOwner {\\n        require...\n    tag 14\t\t\tn ---\\n    function setPriceIn...\n      JUMPDEST \t\t\tn ---\\n    function setPriceIn...\n      PUSH [tag] 78\t\t\tn ---\\n    function setPriceIn...\n      PUSH 4\t\t\tn ---\\n    function setPriceIn...\n      DUP1 \t\t\tn ---\\n    function setPriceIn...\n      CALLDATASIZE \t\t\tn ---\\n    function setPriceIn...\n      SUB \t\t\tn ---\\n    function setPriceIn...\n      DUP2 \t\t\tn ---\\n    function setPriceIn...\n      ADD \t\t\tn ---\\n    function setPriceIn...\n      SWAP1 \t\t\tn ---\\n    function setPriceIn...\n      PUSH [tag] 79\t\t\tn ---\\n    function setPriceIn...\n      SWAP2 \t\t\tn ---\\n    function setPriceIn...\n      SWAP1 \t\t\tn ---\\n    function setPriceIn...\n      PUSH [tag] 80\t\t\tn ---\\n    function setPriceIn...\n      JUMP \t\t\tn ---\\n    function setPriceIn...\n    tag 79\t\t\tn ---\\n    function setPriceIn...\n      JUMPDEST \t\t\tn ---\\n    function setPriceIn...\n      PUSH [tag] 81\t\t\tn ---\\n    function setPriceIn...\n      JUMP \t\t\tn ---\\n    function setPriceIn...\n    tag 78\t\t\tn ---\\n    function setPriceIn...\n      JUMPDEST \t\t\tn ---\\n    function setPriceIn...\n      PUSH 40\t\t\tn ---\\n    function setPriceIn...\n      MLOAD \t\t\tn ---\\n    function setPriceIn...\n      PUSH [tag] 82\t\t\tn ---\\n    function setPriceIn...\n      SWAP2 \t\t\tn ---\\n    function setPriceIn...\n      SWAP1 \t\t\tn ---\\n    function setPriceIn...\n      PUSH [tag] 55\t\t\tn ---\\n    function setPriceIn...\n      JUMP \t\t\tn ---\\n    function setPriceIn...\n    tag 82\t\t\tn ---\\n    function setPriceIn...\n      JUMPDEST \t\t\tn ---\\n    function setPriceIn...\n      PUSH 40\t\t\tn ---\\n    function setPriceIn...\n      MLOAD \t\t\tn ---\\n    function setPriceIn...\n      DUP1 \t\t\tn ---\\n    function setPriceIn...\n      SWAP2 \t\t\tn ---\\n    function setPriceIn...\n      SUB \t\t\tn ---\\n    function setPriceIn...\n      SWAP1 \t\t\tn ---\\n    function setPriceIn...\n      RETURN \t\t\tn ---\\n    function setPriceIn...\n    tag 15\t\t\ty u) external onlyOwner {\\n   ...\n      JUMPDEST \t\t\ty u) external onlyOwner {\\n   ...\n      PUSH [tag] 83\t\t\ty u) external onlyOwner {\\n   ...\n      PUSH [tag] 84\t\t\ty u) external onlyOwner {\\n   ...\n      JUMP \t\t\ty u) external onlyOwner {\\n   ...\n    tag 83\t\t\ty u) external onlyOwner {\\n   ...\n      JUMPDEST \t\t\ty u) external onlyOwner {\\n   ...\n      STOP \t\t\ty u) external onlyOwner {\\n   ...\n    tag 16\t\t\t(carbonoToken);\\n        price...\n      JUMPDEST \t\t\t(carbonoToken);\\n        price...\n      PUSH [tag] 85\t\t\t(carbonoToken);\\n        price...\n      PUSH [tag] 86\t\t\t(carbonoToken);\\n        price...\n      JUMP \t\t\t(carbonoToken);\\n        price...\n    tag 85\t\t\t(carbonoToken);\\n        price...\n      JUMPDEST \t\t\t(carbonoToken);\\n        price...\n      PUSH 40\t\t\t(carbonoToken);\\n        price...\n      MLOAD \t\t\t(carbonoToken);\\n        price...\n      PUSH [tag] 87\t\t\t(carbonoToken);\\n        price...\n      SWAP2 \t\t\t(carbonoToken);\\n        price...\n      SWAP1 \t\t\t(carbonoToken);\\n        price...\n      PUSH [tag] 47\t\t\t(carbonoToken);\\n        price...\n      JUMP \t\t\t(carbonoToken);\\n        price...\n    tag 87\t\t\t(carbonoToken);\\n        price...\n      JUMPDEST \t\t\t(carbonoToken);\\n        price...\n      PUSH 40\t\t\t(carbonoToken);\\n        price...\n      MLOAD \t\t\t(carbonoToken);\\n        price...\n      DUP1 \t\t\t(carbonoToken);\\n        price...\n      SWAP2 \t\t\t(carbonoToken);\\n        price...\n      SUB \t\t\t(carbonoToken);\\n        price...\n      SWAP1 \t\t\t(carbonoToken);\\n        price...\n      RETURN \t\t\t(carbonoToken);\\n        price...\n    tag 17\t\t\tt ---\\n    /// @notice Compra/...\n      JUMPDEST \t\t\tt ---\\n    /// @notice Compra/...\n      PUSH [tag] 88\t\t\tt ---\\n    /// @notice Compra/...\n      PUSH [tag] 89\t\t\tt ---\\n    /// @notice Compra/...\n      JUMP \t\t\tt ---\\n    /// @notice Compra/...\n    tag 88\t\t\tt ---\\n    /// @notice Compra/...\n      JUMPDEST \t\t\tt ---\\n    /// @notice Compra/...\n      PUSH 40\t\t\tt ---\\n    /// @notice Compra/...\n      MLOAD \t\t\tt ---\\n    /// @notice Compra/...\n      PUSH [tag] 90\t\t\tt ---\\n    /// @notice Compra/...\n      SWAP2 \t\t\tt ---\\n    /// @notice Compra/...\n      SWAP1 \t\t\tt ---\\n    /// @notice Compra/...\n      PUSH [tag] 41\t\t\tt ---\\n    /// @notice Compra/...\n      JUMP \t\t\tt ---\\n    /// @notice Compra/...\n    tag 90\t\t\tt ---\\n    /// @notice Compra/...\n      JUMPDEST \t\t\tt ---\\n    /// @notice Compra/...\n      PUSH 40\t\t\tt ---\\n    /// @notice Compra/...\n      MLOAD \t\t\tt ---\\n    /// @notice Compra/...\n      DUP1 \t\t\tt ---\\n    /// @notice Compra/...\n      SWAP2 \t\t\tt ---\\n    /// @notice Compra/...\n      SUB \t\t\tt ---\\n    /// @notice Compra/...\n      SWAP1 \t\t\tt ---\\n    /// @notice Compra/...\n      RETURN \t\t\tt ---\\n    /// @notice Compra/...\n    tag 18\t\t\tunction mint(uint256 qty) exte...\n      JUMPDEST \t\t\tunction mint(uint256 qty) exte...\n      PUSH [tag] 91\t\t\tunction mint(uint256 qty) exte...\n      PUSH 4\t\t\tunction mint(uint256 qty) exte...\n      DUP1 \t\t\tunction mint(uint256 qty) exte...\n      CALLDATASIZE \t\t\tunction mint(uint256 qty) exte...\n      SUB \t\t\tunction mint(uint256 qty) exte...\n      DUP2 \t\t\tunction mint(uint256 qty) exte...\n      ADD \t\t\tunction mint(uint256 qty) exte...\n      SWAP1 \t\t\tunction mint(uint256 qty) exte...\n      PUSH [tag] 92\t\t\tunction mint(uint256 qty) exte...\n      SWAP2 \t\t\tunction mint(uint256 qty) exte...\n      SWAP1 \t\t\tunction mint(uint256 qty) exte...\n      PUSH [tag] 44\t\t\tunction mint(uint256 qty) exte...\n      JUMP \t\t\tunction mint(uint256 qty) exte...\n    tag 92\t\t\tunction mint(uint256 qty) exte...\n      JUMPDEST \t\t\tunction mint(uint256 qty) exte...\n      PUSH [tag] 93\t\t\tunction mint(uint256 qty) exte...\n      JUMP \t\t\tunction mint(uint256 qty) exte...\n    tag 91\t\t\tunction mint(uint256 qty) exte...\n      JUMPDEST \t\t\tunction mint(uint256 qty) exte...\n      STOP \t\t\tunction mint(uint256 qty) exte...\n    tag 19\t\t\tpng\"));\\n    }\\n}\\n\\n\n      JUMPDEST \t\t\tpng\"));\\n    }\\n}\\n\\n\n      PUSH [tag] 94\t\t\tpng\"));\\n    }\\n}\\n\\n\n      PUSH 4\t\t\tpng\"));\\n    }\\n}\\n\\n\n      DUP1 \t\t\tpng\"));\\n    }\\n}\\n\\n\n      CALLDATASIZE \t\t\tpng\"));\\n    }\\n}\\n\\n\n      SUB \t\t\tpng\"));\\n    }\\n}\\n\\n\n      DUP2 \t\t\tpng\"));\\n    }\\n}\\n\\n\n      ADD \t\t\tpng\"));\\n    }\\n}\\n\\n\n      SWAP1 \t\t\tpng\"));\\n    }\\n}\\n\\n\n      PUSH [tag] 95\t\t\tpng\"));\\n    }\\n}\\n\\n\n      SWAP2 \t\t\tpng\"));\\n    }\\n}\\n\\n\n      SWAP1 \t\t\tpng\"));\\n    }\\n}\\n\\n\n      PUSH [tag] 96\t\t\tpng\"));\\n    }\\n}\\n\\n\n      JUMP \t\t\tpng\"));\\n    }\\n}\\n\\n\n    tag 95\t\t\tpng\"));\\n    }\\n}\\n\\n\n      JUMPDEST \t\t\tpng\"));\\n    }\\n}\\n\\n\n      PUSH [tag] 97\t\t\tpng\"));\\n    }\\n}\\n\\n\n      JUMP \t\t\tpng\"));\\n    }\\n}\\n\\n\n    tag 94\t\t\tpng\"));\\n    }\\n}\\n\\n\n      JUMPDEST \t\t\tpng\"));\\n    }\\n}\\n\\n\n      STOP \t\t\tpng\"));\\n    }\\n}\\n\\n\n    tag 20\t\t\t\n      JUMPDEST \t\t\t\n      PUSH [tag] 98\t\t\t\n      PUSH 4\t\t\t\n      DUP1 \t\t\t\n      CALLDATASIZE \t\t\t\n      SUB \t\t\t\n      DUP2 \t\t\t\n      ADD \t\t\t\n      SWAP1 \t\t\t\n      PUSH [tag] 99\t\t\t\n      SWAP2 \t\t\t\n      SWAP1 \t\t\t\n      PUSH [tag] 100\t\t\t\n      JUMP \t\t\t\n    tag 99\t\t\t\n      JUMPDEST \t\t\t\n      PUSH [tag] 101\t\t\t\n      JUMP \t\t\t\n    tag 98\t\t\t\n      JUMPDEST \t\t\t\n      STOP \t\t\t\n    tag 21\t\t\tunction tokenURI(uint256 token...\n      JUMPDEST \t\t\tunction tokenURI(uint256 token...\n      PUSH [tag] 102\t\t\tunction tokenURI(uint256 token...\n      PUSH 4\t\t\tunction tokenURI(uint256 token...\n      DUP1 \t\t\tunction tokenURI(uint256 token...\n      CALLDATASIZE \t\t\tunction tokenURI(uint256 token...\n      SUB \t\t\tunction tokenURI(uint256 token...\n      DUP2 \t\t\tunction tokenURI(uint256 token...\n      ADD \t\t\tunction tokenURI(uint256 token...\n      SWAP1 \t\t\tunction tokenURI(uint256 token...\n      PUSH [tag] 103\t\t\tunction tokenURI(uint256 token...\n      SWAP2 \t\t\tunction tokenURI(uint256 token...\n      SWAP1 \t\t\tunction tokenURI(uint256 token...\n      PUSH [tag] 44\t\t\tunction tokenURI(uint256 token...\n      JUMP \t\t\tunction tokenURI(uint256 token...\n    tag 103\t\t\tunction tokenURI(uint256 token...\n      JUMPDEST \t\t\tunction tokenURI(uint256 token...\n      PUSH [tag] 104\t\t\tunction tokenURI(uint256 token...\n      JUMP \t\t\tunction tokenURI(uint256 token...\n    tag 102\t\t\tunction tokenURI(uint256 token...\n      JUMPDEST \t\t\tunction tokenURI(uint256 token...\n      PUSH 40\t\t\tunction tokenURI(uint256 token...\n      MLOAD \t\t\tunction tokenURI(uint256 token...\n      PUSH [tag] 105\t\t\tunction tokenURI(uint256 token...\n      SWAP2 \t\t\tunction tokenURI(uint256 token...\n      SWAP1 \t\t\tunction tokenURI(uint256 token...\n      PUSH [tag] 41\t\t\tunction tokenURI(uint256 token...\n      JUMP \t\t\tunction tokenURI(uint256 token...\n    tag 105\t\t\tunction tokenURI(uint256 token...\n      JUMPDEST \t\t\tunction tokenURI(uint256 token...\n      PUSH 40\t\t\tunction tokenURI(uint256 token...\n      MLOAD \t\t\tunction tokenURI(uint256 token...\n      DUP1 \t\t\tunction tokenURI(uint256 token...\n      SWAP2 \t\t\tunction tokenURI(uint256 token...\n      SUB \t\t\tunction tokenURI(uint256 token...\n      SWAP1 \t\t\tunction tokenURI(uint256 token...\n      RETURN \t\t\tunction tokenURI(uint256 token...\n    tag 22\t\t\tunction setPriceInCBO(uint256 ...\n      JUMPDEST \t\t\tunction setPriceInCBO(uint256 ...\n      PUSH [tag] 106\t\t\tunction setPriceInCBO(uint256 ...\n      PUSH 4\t\t\tunction setPriceInCBO(uint256 ...\n      DUP1 \t\t\tunction setPriceInCBO(uint256 ...\n      CALLDATASIZE \t\t\tunction setPriceInCBO(uint256 ...\n      SUB \t\t\tunction setPriceInCBO(uint256 ...\n      DUP2 \t\t\tunction setPriceInCBO(uint256 ...\n      ADD \t\t\tunction setPriceInCBO(uint256 ...\n      SWAP1 \t\t\tunction setPriceInCBO(uint256 ...\n      PUSH [tag] 107\t\t\tunction setPriceInCBO(uint256 ...\n      SWAP2 \t\t\tunction setPriceInCBO(uint256 ...\n      SWAP1 \t\t\tunction setPriceInCBO(uint256 ...\n      PUSH [tag] 44\t\t\tunction setPriceInCBO(uint256 ...\n      JUMP \t\t\tunction setPriceInCBO(uint256 ...\n    tag 107\t\t\tunction setPriceInCBO(uint256 ...\n      JUMPDEST \t\t\tunction setPriceInCBO(uint256 ...\n      PUSH [tag] 108\t\t\tunction setPriceInCBO(uint256 ...\n      JUMP \t\t\tunction setPriceInCBO(uint256 ...\n    tag 106\t\t\tunction setPriceInCBO(uint256 ...\n      JUMPDEST \t\t\tunction setPriceInCBO(uint256 ...\n      STOP \t\t\tunction setPriceInCBO(uint256 ...\n    tag 23\t\t\tuint256 public maxSupply\n      JUMPDEST \t\t\tuint256 public maxSupply\n      PUSH [tag] 109\t\t\tuint256 public maxSupply\n      PUSH [tag] 110\t\t\tuint256 public maxSupply\n      JUMP \t\t\tuint256 public maxSupply\n    tag 109\t\t\tuint256 public maxSupply\n      JUMPDEST \t\t\tuint256 public maxSupply\n      PUSH 40\t\t\tuint256 public maxSupply\n      MLOAD \t\t\tuint256 public maxSupply\n      PUSH [tag] 111\t\t\tuint256 public maxSupply\n      SWAP2 \t\t\tuint256 public maxSupply\n      SWAP1 \t\t\tuint256 public maxSupply\n      PUSH [tag] 55\t\t\tuint256 public maxSupply\n      JUMP \t\t\tuint256 public maxSupply\n    tag 111\t\t\tuint256 public maxSupply\n      JUMPDEST \t\t\tuint256 public maxSupply\n      PUSH 40\t\t\tuint256 public maxSupply\n      MLOAD \t\t\tuint256 public maxSupply\n      DUP1 \t\t\tuint256 public maxSupply\n      SWAP2 \t\t\tuint256 public maxSupply\n      SUB \t\t\tuint256 public maxSupply\n      SWAP1 \t\t\tuint256 public maxSupply\n      RETURN \t\t\tuint256 public maxSupply\n    tag 24\t\t\t\n      JUMPDEST \t\t\t\n      PUSH [tag] 112\t\t\t\n      PUSH 4\t\t\t\n      DUP1 \t\t\t\n      CALLDATASIZE \t\t\t\n      SUB \t\t\t\n      DUP2 \t\t\t\n      ADD \t\t\t\n      SWAP1 \t\t\t\n      PUSH [tag] 113\t\t\t\n      SWAP2 \t\t\t\n      SWAP1 \t\t\t\n      PUSH [tag] 114\t\t\t\n      JUMP \t\t\t\n    tag 113\t\t\t\n      JUMPDEST \t\t\t\n      PUSH [tag] 115\t\t\t\n      JUMP \t\t\t\n    tag 112\t\t\t\n      JUMPDEST \t\t\t\n      PUSH 40\t\t\t\n      MLOAD \t\t\t\n      PUSH [tag] 116\t\t\t\n      SWAP2 \t\t\t\n      SWAP1 \t\t\t\n      PUSH [tag] 37\t\t\t\n      JUMP \t\t\t\n    tag 116\t\t\t\n      JUMPDEST \t\t\t\n      PUSH 40\t\t\t\n      MLOAD \t\t\t\n      DUP1 \t\t\t\n      SWAP2 \t\t\t\n      SUB \t\t\t\n      SWAP1 \t\t\t\n      RETURN \t\t\t\n    tag 25\t\t\tunction setTreasury(address ne...\n      JUMPDEST \t\t\tunction setTreasury(address ne...\n      PUSH [tag] 117\t\t\tunction setTreasury(address ne...\n      PUSH 4\t\t\tunction setTreasury(address ne...\n      DUP1 \t\t\tunction setTreasury(address ne...\n      CALLDATASIZE \t\t\tunction setTreasury(address ne...\n      SUB \t\t\tunction setTreasury(address ne...\n      DUP2 \t\t\tunction setTreasury(address ne...\n      ADD \t\t\tunction setTreasury(address ne...\n      SWAP1 \t\t\tunction setTreasury(address ne...\n      PUSH [tag] 118\t\t\tunction setTreasury(address ne...\n      SWAP2 \t\t\tunction setTreasury(address ne...\n      SWAP1 \t\t\tunction setTreasury(address ne...\n      PUSH [tag] 80\t\t\tunction setTreasury(address ne...\n      JUMP \t\t\tunction setTreasury(address ne...\n    tag 118\t\t\tunction setTreasury(address ne...\n      JUMPDEST \t\t\tunction setTreasury(address ne...\n      PUSH [tag] 119\t\t\tunction setTreasury(address ne...\n      JUMP \t\t\tunction setTreasury(address ne...\n    tag 117\t\t\tunction setTreasury(address ne...\n      JUMPDEST \t\t\tunction setTreasury(address ne...\n      STOP \t\t\tunction setTreasury(address ne...\n    tag 26\t\t\t 0, \"qty=0\");\\n        require...\n      JUMPDEST \t\t\t 0, \"qty=0\");\\n        require...\n      PUSH [tag] 120\t\t\t 0, \"qty=0\");\\n        require...\n      PUSH 4\t\t\t 0, \"qty=0\");\\n        require...\n      DUP1 \t\t\t 0, \"qty=0\");\\n        require...\n      CALLDATASIZE \t\t\t 0, \"qty=0\");\\n        require...\n      SUB \t\t\t 0, \"qty=0\");\\n        require...\n      DUP2 \t\t\t 0, \"qty=0\");\\n        require...\n      ADD \t\t\t 0, \"qty=0\");\\n        require...\n      SWAP1 \t\t\t 0, \"qty=0\");\\n        require...\n      PUSH [tag] 121\t\t\t 0, \"qty=0\");\\n        require...\n      SWAP2 \t\t\t 0, \"qty=0\");\\n        require...\n      SWAP1 \t\t\t 0, \"qty=0\");\\n        require...\n      PUSH [tag] 80\t\t\t 0, \"qty=0\");\\n        require...\n      JUMP \t\t\t 0, \"qty=0\");\\n        require...\n    tag 121\t\t\t 0, \"qty=0\");\\n        require...\n      JUMPDEST \t\t\t 0, \"qty=0\");\\n        require...\n      PUSH [tag] 122\t\t\t 0, \"qty=0\");\\n        require...\n      JUMP \t\t\t 0, \"qty=0\");\\n        require...\n    tag 120\t\t\t 0, \"qty=0\");\\n        require...\n      JUMPDEST \t\t\t 0, \"qty=0\");\\n        require...\n      STOP \t\t\t 0, \"qty=0\");\\n        require...\n    tag 27\t\t\tuint256 public priceInCBO\n      JUMPDEST \t\t\tuint256 public priceInCBO\n      PUSH [tag] 123\t\t\tuint256 public priceInCBO\n      PUSH [tag] 124\t\t\tuint256 public priceInCBO\n      JUMP \t\t\tuint256 public priceInCBO\n    tag 123\t\t\tuint256 public priceInCBO\n      JUMPDEST \t\t\tuint256 public priceInCBO\n      PUSH 40\t\t\tuint256 public priceInCBO\n      MLOAD \t\t\tuint256 public priceInCBO\n      PUSH [tag] 125\t\t\tuint256 public priceInCBO\n      SWAP2 \t\t\tuint256 public priceInCBO\n      SWAP1 \t\t\tuint256 public priceInCBO\n      PUSH [tag] 55\t\t\tuint256 public priceInCBO\n      JUMP \t\t\tuint256 public priceInCBO\n    tag 125\t\t\tuint256 public priceInCBO\n      JUMPDEST \t\t\tuint256 public priceInCBO\n      PUSH 40\t\t\tuint256 public priceInCBO\n      MLOAD \t\t\tuint256 public priceInCBO\n      DUP1 \t\t\tuint256 public priceInCBO\n      SWAP2 \t\t\tuint256 public priceInCBO\n      SUB \t\t\tuint256 public priceInCBO\n      SWAP1 \t\t\tuint256 public priceInCBO\n      RETURN \t\t\tuint256 public priceInCBO\n    tag 35\t\t\tuire(initialPriceInCBO > 0, \"p...\n      JUMPDEST \t\t\tuire(initialPriceInCBO > 0, \"p...\n      PUSH 0\t\t\t = I\n      PUSH 80AC58CD00000000000000000000000000000000000000000000000000000000\t\t\ttialPriceInCBO;\\n        m\n      PUSH FFFFFFFFFFFFFFFFFFFFFFFFFFFFFFFFFFFFFFFFFFFFFFFFFFFFFFFF\t\t\ticeInCBO  = initialPriceInCBO;...\n      NOT \t\t\ticeInCBO  = initialPriceInCBO;...\n      AND \t\t\ticeInCBO  = initialPriceInCBO;...\n      DUP3 \t\t\ticeInCBO  =\n      PUSH FFFFFFFFFFFFFFFFFFFFFFFFFFFFFFFFFFFFFFFFFFFFFFFFFFFFFFFF\t\t\ticeInCBO  = initialPriceInCBO;...\n      NOT \t\t\ticeInCBO  = initialPriceInCBO;...\n      AND \t\t\ticeInCBO  = initialPriceInCBO;...\n      EQ \t\t\ticeInCBO  = initialPriceInCBO;...\n      DUP1 \t\t\ticeInCBO  = initialPriceInCBO;...\n      PUSH [tag] 127\t\t\ticeInCBO  = initialPriceInCBO;...\n      JUMPI \t\t\ticeInCBO  = initialPriceInCBO;...\n      POP \t\t\ticeInCBO  = initialPriceInCBO;...\n      PUSH 5B5E139F00000000000000000000000000000000000000000000000000000000\t\t\t  baseURI_    = baseURIInit;\\n...\n      PUSH FFFFFFFFFFFFFFFFFFFFFFFFFFFFFFFFFFFFFFFFFFFFFFFFFFFFFFFF\t\t\txSupply;\\n        baseURI_    ...\n      NOT \t\t\txSupply;\\n        baseURI_    ...\n      AND \t\t\txSupply;\\n        baseURI_    ...\n      DUP3 \t\t\txSupply;\\n  \n      PUSH FFFFFFFFFFFFFFFFFFFFFFFFFFFFFFFFFFFFFFFFFFFFFFFFFFFFFFFF\t\t\txSupply;\\n        baseURI_    ...\n      NOT \t\t\txSupply;\\n        baseURI_    ...\n      AND \t\t\txSupply;\\n        baseURI_    ...\n      EQ \t\t\txSupply;\\n        baseURI_    ...\n    tag 127\t\t\ticeInCBO  = initialPriceInCBO;...\n      JUMPDEST \t\t\ticeInCBO  = initialPriceInCBO;...\n      DUP1 \t\t\ticeInCBO  = initialPriceInCBO;...\n      PUSH [tag] 128\t\t\ticeInCBO  = initialPriceInCBO;...\n      JUMPI \t\t\ticeInCBO  = initialPriceInCBO;...\n      POP \t\t\ticeInCBO  = initialPriceInCBO;...\n      PUSH [tag] 129\t\t\t= msg.sender; // por defecto, ...\n      DUP3 \t\t\tecto, el ow\n      PUSH [tag] 130\t\t\t= msg.sender; // por de\n      JUMP \t\t\t= msg.sender; // por defecto, ...\n    tag 129\t\t\t= msg.sender; // por defecto, ...\n      JUMPDEST \t\t\t= msg.sender; // por defecto, ...\n    tag 128\t\t\ticeInCBO  = initialPriceInCBO;...\n      JUMPDEST \t\t\ticeInCBO  = initialPriceInCBO;...\n      SWAP1 \t\t\toToken);\\n        priceInCBO  ...\n      POP \t\t\toToken);\\n        priceInCBO  ...\n      SWAP2 \t\t\tuire(initialPriceInCBO > 0, \"p...\n      SWAP1 \t\t\tuire(initialPriceInCBO > 0, \"p...\n      POP \t\t\tuire(initialPriceInCBO > 0, \"p...\n      JUMP \t\t\tuire(initialPriceInCBO > 0, \"p...\n    tag 39\t\t\tnction setBaseURI(string memor...\n      JUMPDEST \t\t\tnction setBaseURI(string memor...\n      PUSH 60\t\t\tnlyOwner {\\n  \n      PUSH 0\t\t\t\\n    \n      DUP1 \t\t\tI_ = u;\\n    \n      SLOAD \t\t\tI_ = u;\\n    \n      PUSH [tag] 132\t\t\tI_ = u;\\n    \n      SWAP1 \t\t\tI_ = u;\\n    \n      PUSH [tag] 133\t\t\tI_ = u;\\n    \n      JUMP \t\t\tI_ = u;\\n    \n    tag 132\t\t\tI_ = u;\\n    \n      JUMPDEST \t\t\tI_ = u;\\n    \n      DUP1 \t\t\tI_ = u;\\n    \n      PUSH 1F\t\t\tI_ = u;\\n    \n      ADD \t\t\tI_ = u;\\n    \n      PUSH 20\t\t\tI_ = u;\\n    \n      DUP1 \t\t\tI_ = u;\\n    \n      SWAP2 \t\t\tI_ = u;\\n    \n      DIV \t\t\tI_ = u;\\n    \n      MUL \t\t\tI_ = u;\\n    \n      PUSH 20\t\t\tI_ = u;\\n    \n      ADD \t\t\tI_ = u;\\n    \n      PUSH 40\t\t\tI_ = u;\\n    \n      MLOAD \t\t\tI_ = u;\\n    \n      SWAP1 \t\t\tI_ = u;\\n    \n      DUP2 \t\t\tI_ = u;\\n    \n      ADD \t\t\tI_ = u;\\n    \n      PUSH 40\t\t\tI_ = u;\\n    \n      MSTORE \t\t\tI_ = u;\\n    \n      DUP1 \t\t\tI_ = u;\\n    \n      SWAP3 \t\t\tI_ = u;\\n    \n      SWAP2 \t\t\tI_ = u;\\n    \n      SWAP1 \t\t\tI_ = u;\\n    \n      DUP2 \t\t\tI_ = u;\\n    \n      DUP2 \t\t\tI_ = u;\\n    \n      MSTORE \t\t\tI_ = u;\\n    \n      PUSH 20\t\t\tI_ = u;\\n    \n      ADD \t\t\tI_ = u;\\n    \n      DUP3 \t\t\tI_ = u;\\n    \n      DUP1 \t\t\tI_ = u;\\n    \n      SLOAD \t\t\tI_ = u;\\n    \n      PUSH [tag] 134\t\t\tI_ = u;\\n    \n      SWAP1 \t\t\tI_ = u;\\n    \n      PUSH [tag] 133\t\t\tI_ = u;\\n    \n      JUMP \t\t\tI_ = u;\\n    \n    tag 134\t\t\tI_ = u;\\n    \n      JUMPDEST \t\t\tI_ = u;\\n    \n      DUP1 \t\t\tI_ = u;\\n    \n      ISZERO \t\t\tI_ = u;\\n    \n      PUSH [tag] 135\t\t\tI_ = u;\\n    \n      JUMPI \t\t\tI_ = u;\\n    \n      DUP1 \t\t\tI_ = u;\\n    \n      PUSH 1F\t\t\tI_ = u;\\n    \n      LT \t\t\tI_ = u;\\n    \n      PUSH [tag] 136\t\t\tI_ = u;\\n    \n      JUMPI \t\t\tI_ = u;\\n    \n      PUSH 100\t\t\tI_ = u;\\n    \n      DUP1 \t\t\tI_ = u;\\n    \n      DUP4 \t\t\tI_ = u;\\n    \n      SLOAD \t\t\tI_ = u;\\n    \n      DIV \t\t\tI_ = u;\\n    \n      MUL \t\t\tI_ = u;\\n    \n      DUP4 \t\t\tI_ = u;\\n    \n      MSTORE \t\t\tI_ = u;\\n    \n      SWAP2 \t\t\tI_ = u;\\n    \n      PUSH 20\t\t\tI_ = u;\\n    \n      ADD \t\t\tI_ = u;\\n    \n      SWAP2 \t\t\tI_ = u;\\n    \n      PUSH [tag] 135\t\t\tI_ = u;\\n    \n      JUMP \t\t\tI_ = u;\\n    \n    tag 136\t\t\tI_ = u;\\n    \n      JUMPDEST \t\t\tI_ = u;\\n    \n      DUP3 \t\t\tI_ = u;\\n    \n      ADD \t\t\tI_ = u;\\n    \n      SWAP2 \t\t\tI_ = u;\\n    \n      SWAP1 \t\t\tI_ = u;\\n    \n      PUSH 0\t\t\tI_ = u;\\n    \n      MSTORE \t\t\tI_ = u;\\n    \n      PUSH 20\t\t\tI_ = u;\\n    \n      PUSH 0\t\t\tI_ = u;\\n    \n      KECCAK256 \t\t\tI_ = u;\\n    \n      SWAP1 \t\t\tI_ = u;\\n    \n    tag 137\t\t\tI_ = u;\\n    \n      JUMPDEST \t\t\tI_ = u;\\n    \n      DUP2 \t\t\tI_ = u;\\n    \n      SLOAD \t\t\tI_ = u;\\n    \n      DUP2 \t\t\tI_ = u;\\n    \n      MSTORE \t\t\tI_ = u;\\n    \n      SWAP1 \t\t\tI_ = u;\\n    \n      PUSH 1\t\t\tI_ = u;\\n    \n      ADD \t\t\tI_ = u;\\n    \n      SWAP1 \t\t\tI_ = u;\\n    \n      PUSH 20\t\t\tI_ = u;\\n    \n      ADD \t\t\tI_ = u;\\n    \n      DUP1 \t\t\tI_ = u;\\n    \n      DUP4 \t\t\tI_ = u;\\n    \n      GT \t\t\tI_ = u;\\n    \n      PUSH [tag] 137\t\t\tI_ = u;\\n    \n      JUMPI \t\t\tI_ = u;\\n    \n      DUP3 \t\t\tI_ = u;\\n    \n      SWAP1 \t\t\tI_ = u;\\n    \n      SUB \t\t\tI_ = u;\\n    \n      PUSH 1F\t\t\tI_ = u;\\n    \n      AND \t\t\tI_ = u;\\n    \n      DUP3 \t\t\tI_ = u;\\n    \n      ADD \t\t\tI_ = u;\\n    \n      SWAP2 \t\t\tI_ = u;\\n    \n    tag 135\t\t\tI_ = u;\\n    \n      JUMPDEST \t\t\tI_ = u;\\n    \n      POP \t\t\tI_ = u;\\n    \n      POP \t\t\tI_ = u;\\n    \n      POP \t\t\tI_ = u;\\n    \n      POP \t\t\tI_ = u;\\n    \n      POP \t\t\tI_ = u;\\n    \n      SWAP1 \t\t\tI_ = u;\\n    \n      POP \t\t\tI_ = u;\\n    \n      SWAP1 \t\t\tnction setBaseURI(string memor...\n      JUMP \t\t\tnction setBaseURI(string memor...\n    tag 45\t\t\temory) {\\n        // ownerOf r...\n      JUMPDEST \t\t\temory) {\\n        // ownerOf r...\n      PUSH 0\t\t\tomo ver\n      PUSH [tag] 139\t\t\t      ownerOf(tokenId)\n      DUP3 \t\t\ttokenId\n      PUSH [tag] 140\t\t\t      ownerOf\n      JUMP \t\t\t      ownerOf(tokenId)\n    tag 139\t\t\t      ownerOf(tokenId)\n      JUMPDEST \t\t\t      ownerOf(tokenId)\n      POP \t\t\t      ownerOf(tokenId)\n      PUSH [tag] 141\t\t\ttring(abi.encodePacke\n      DUP3 \t\t\todePack\n      PUSH [tag] 142\t\t\ttring(abi.en\n      JUMP \t\t\ttring(abi.encodePacke\n    tag 141\t\t\ttring(abi.encodePacke\n      JUMPDEST \t\t\ttring(abi.encodePacke\n      SWAP1 \t\t\teturn string(abi.encodePacke\n      POP \t\t\teturn string(abi.encodePacke\n      SWAP2 \t\t\temory) {\\n        // ownerOf r...\n      SWAP1 \t\t\temory) {\\n        // ownerOf r...\n      POP \t\t\temory) {\\n        // ownerOf r...\n      JUMP \t\t\temory) {\\n        // ownerOf r...\n    tag 51\t\t\tew override returns (string me...\n      JUMPDEST \t\t\tew override returns (string me...\n      PUSH [tag] 144\t\t\t   function tokenURI(uint256 t...\n      DUP3 \t\t\ton\n      DUP3 \t\t\tokenURI\n      PUSH [tag] 145\t\t\tint256 token\n      PUSH [tag] 146\t\t\tint256 tok\n      JUMP \t\t\tint256 token\n    tag 145\t\t\tint256 token\n      JUMPDEST \t\t\tint256 token\n      PUSH [tag] 147\t\t\t   funct\n      JUMP \t\t\t   function tokenURI(uint256 t...\n    tag 144\t\t\t   function tokenURI(uint256 t...\n      JUMPDEST \t\t\t   function tokenURI(uint256 t...\n      POP \t\t\tew override returns (string me...\n      POP \t\t\tew override returns (string me...\n      JUMP \t\t\tew override returns (string me...\n    tag 53\t\t\tuint256 public totalSupply\n      JUMPDEST \t\t\tuint256 public totalSupply\n      PUSH A\t\t\tuint256 public totalSupply\n      SLOAD \t\t\tuint256 public totalSupply\n      DUP2 \t\t\tuint256 public totalSupply\n      JUMP \t\t\tuint256 public totalSupply\n    tag 59\t\t\t\n      JUMPDEST \t\t\t\n      PUSH 0\t\t\t\n      PUSH FFFFFFFFFFFFFFFFFFFFFFFFFFFFFFFFFFFFFFFF\t\t\t\n      AND \t\t\t\n      DUP3 \t\t\t\n      PUSH FFFFFFFFFFFFFFFFFFFFFFFFFFFFFFFFFFFFFFFF\t\t\t\n      AND \t\t\t\n      SUB \t\t\t\n      PUSH [tag] 149\t\t\t\n      JUMPI \t\t\t\n      PUSH 0\t\t\t\n      PUSH 40\t\t\t\n      MLOAD \t\t\t\n      PUSH 64A0AE9200000000000000000000000000000000000000000000000000000000\t\t\t\n      DUP2 \t\t\t\n      MSTORE \t\t\t\n      PUSH 4\t\t\t\n      ADD \t\t\t\n      PUSH [tag] 150\t\t\t\n      SWAP2 \t\t\t\n      SWAP1 \t\t\t\n      PUSH [tag] 47\t\t\t\n      JUMP \t\t\t\n    tag 150\t\t\t\n      JUMPDEST \t\t\t\n      PUSH 40\t\t\t\n      MLOAD \t\t\t\n      DUP1 \t\t\t\n      SWAP2 \t\t\t\n      SUB \t\t\t\n      SWAP1 \t\t\t\n      REVERT \t\t\t\n    tag 149\t\t\t\n      JUMPDEST \t\t\t\n      PUSH 0\t\t\t\n      PUSH [tag] 151\t\t\t\n      DUP4 \t\t\t\n      DUP4 \t\t\t\n      PUSH [tag] 152\t\t\t\n      PUSH [tag] 146\t\t\t\n      JUMP \t\t\t\n    tag 152\t\t\t\n      JUMPDEST \t\t\t\n      PUSH [tag] 153\t\t\t\n      JUMP \t\t\t\n    tag 151\t\t\t\n      JUMPDEST \t\t\t\n      SWAP1 \t\t\t\n      POP \t\t\t\n      DUP4 \t\t\t\n      PUSH FFFFFFFFFFFFFFFFFFFFFFFFFFFFFFFFFFFFFFFF\t\t\t\n      AND \t\t\t\n      DUP2 \t\t\t\n      PUSH FFFFFFFFFFFFFFFFFFFFFFFFFFFFFFFFFFFFFFFF\t\t\t\n      AND \t\t\t\n      EQ \t\t\t\n      PUSH [tag] 154\t\t\t\n      JUMPI \t\t\t\n      DUP4 \t\t\t\n      DUP3 \t\t\t\n      DUP3 \t\t\t\n      PUSH 40\t\t\t\n      MLOAD \t\t\t\n      PUSH 64283D7B00000000000000000000000000000000000000000000000000000000\t\t\t\n      DUP2 \t\t\t\n      MSTORE \t\t\t\n      PUSH 4\t\t\t\n      ADD \t\t\t\n      PUSH [tag] 155\t\t\t\n      SWAP4 \t\t\t\n      SWAP3 \t\t\t\n      SWAP2 \t\t\t\n      SWAP1 \t\t\t\n      PUSH [tag] 156\t\t\t\n      JUMP \t\t\t\n    tag 155\t\t\t\n      JUMPDEST \t\t\t\n      PUSH 40\t\t\t\n      MLOAD \t\t\t\n      DUP1 \t\t\t\n      SWAP2 \t\t\t\n      SUB \t\t\t\n      SWAP1 \t\t\t\n      REVERT \t\t\t\n    tag 154\t\t\t\n      JUMPDEST \t\t\t\n      POP \t\t\t\n      POP \t\t\t\n      POP \t\t\t\n      POP \t\t\t\n      JUMP \t\t\t\n    tag 61\t\t\tIERC20 public immutable carbon...\n      JUMPDEST \t\t\tIERC20 public immutable carbon...\n      PUSHIMMUTABLE 6627\t\t\tIERC20 public immutable carbon...\n      DUP2 \t\t\tIERC20 public immutable carbon...\n      JUMP \t\t\tIERC20 public immutable carbon...\n    tag 66\t\t\t\n      JUMPDEST \t\t\t\n      PUSH [tag] 158\t\t\t\n      DUP4 \t\t\t\n      DUP4 \t\t\t\n      DUP4 \t\t\t\n      PUSH 40\t\t\t\n      MLOAD \t\t\t\n      DUP1 \t\t\t\n      PUSH 20\t\t\t\n      ADD \t\t\t\n      PUSH 40\t\t\t\n      MSTORE \t\t\t\n      DUP1 \t\t\t\n      PUSH 0\t\t\t\n      DUP2 \t\t\t\n      MSTORE \t\t\t\n      POP \t\t\t\n      PUSH [tag] 101\t\t\t\n      JUMP \t\t\t\n    tag 158\t\t\t\n      JUMPDEST \t\t\t\n      POP \t\t\t\n      POP \t\t\t\n      POP \t\t\t\n      JUMP \t\t\t\n    tag 70\t\t\tunction setBaseURI(string memo...\n      JUMPDEST \t\t\tunction setBaseURI(string memo...\n      PUSH [tag] 160\t\t\t(initialPrice\n      PUSH [tag] 161\t\t\t(initialPri\n      JUMP \t\t\t(initialPrice\n    tag 160\t\t\t(initialPrice\n      JUMPDEST \t\t\t(initialPrice\n      DUP1 \t\t\t;\n      PUSH B\t\t\taseURI_ \n      SWAP1 \t\t\taseURI_ = u;\n      DUP2 \t\t\taseURI_ = u;\n      PUSH [tag] 163\t\t\taseURI_ = u;\n      SWAP2 \t\t\taseURI_ = u;\n      SWAP1 \t\t\taseURI_ = u;\n      PUSH [tag] 164\t\t\taseURI_ = u;\n      JUMP \t\t\taseURI_ = u;\n    tag 163\t\t\taseURI_ = u;\n      JUMPDEST \t\t\taseURI_ = u;\n      POP \t\t\taseURI_ = u;\n      PUSH 5411E8EBF1636D9E83D5FC4900BF80CBAC82E8790DA2A4C94DB4895E889EEDF6\t\t\taseURIChanged(u);\n      DUP2 \t\t\t)\n      PUSH 40\t\t\taseURIChanged(u);\n      MLOAD \t\t\taseURIChanged(u);\n      PUSH [tag] 165\t\t\taseURIChanged(u);\n      SWAP2 \t\t\taseURIChanged(u);\n      SWAP1 \t\t\taseURIChanged(u);\n      PUSH [tag] 41\t\t\taseURIChanged(u);\n      JUMP \t\t\taseURIChanged(u);\n    tag 165\t\t\taseURIChanged(u);\n      JUMPDEST \t\t\taseURIChanged(u);\n      PUSH 40\t\t\taseURIChanged(u);\n      MLOAD \t\t\taseURIChanged(u);\n      DUP1 \t\t\taseURIChanged(u);\n      SWAP2 \t\t\taseURIChanged(u);\n      SUB \t\t\taseURIChanged(u);\n      SWAP1 \t\t\taseURIChanged(u);\n      LOG1 \t\t\taseURIChanged(u);\n      POP \t\t\tunction setBaseURI(string memo...\n      JUMP \t\t\tunction setBaseURI(string memo...\n    tag 72\t\t\taddress public treasury\n      JUMPDEST \t\t\taddress public treasury\n      PUSH 7\t\t\taddress public treasury\n      PUSH 0\t\t\taddress public treasury\n      SWAP1 \t\t\taddress public treasury\n      SLOAD \t\t\taddress public treasury\n      SWAP1 \t\t\taddress public treasury\n      PUSH 100\t\t\taddress public treasury\n      EXP \t\t\taddress public treasury\n      SWAP1 \t\t\taddress public treasury\n      DIV \t\t\taddress public treasury\n      PUSH FFFFFFFFFFFFFFFFFFFFFFFFFFFFFFFFFFFFFFFF\t\t\taddress public treasury\n      AND \t\t\taddress public treasury\n      DUP2 \t\t\taddress public treasury\n      JUMP \t\t\taddress public treasury\n    tag 76\t\t\tl onlyOwner {\\n        require...\n      JUMPDEST \t\t\tl onlyOwner {\\n        require...\n      PUSH 0\t\t\tury=0\")\n      PUSH [tag] 167\t\t\t= newTreasury;\\n       \n      DUP3 \t\t\t\\n      \n      PUSH [tag] 140\t\t\t= newTreasury\n      JUMP \t\t\t= newTreasury;\\n       \n    tag 167\t\t\t= newTreasury;\\n       \n      JUMPDEST \t\t\t= newTreasury;\\n       \n      SWAP1 \t\t\teasury = newTreasury;\\n       \n      POP \t\t\teasury = newTreasury;\\n       \n      SWAP2 \t\t\tl onlyOwner {\\n        require...\n      SWAP1 \t\t\tl onlyOwner {\\n        require...\n      POP \t\t\tl onlyOwner {\\n        require...\n      JUMP \t\t\tl onlyOwner {\\n        require...\n    tag 81\t\t\tn ---\\n    function setPriceIn...\n      JUMPDEST \t\t\tn ---\\n    function setPriceIn...\n      PUSH 0\t\t\tyOwner \n      PUSH 0\t\t\tp\n      PUSH FFFFFFFFFFFFFFFFFFFFFFFFFFFFFFFFFFFFFFFF\t\t\te(newPrice > 0, \"pr\n      AND \t\t\te(newPrice > 0, \"pr\n      DUP3 \t\t\te(new\n      PUSH FFFFFFFFFFFFFFFFFFFFFFFFFFFFFFFFFFFFFFFF\t\t\te(newPrice > 0, \"pr\n      AND \t\t\te(newPrice > 0, \"pr\n      SUB \t\t\te(newPrice > 0, \"pr\n      PUSH [tag] 169\t\t\tquire(newPrice > 0, \"price=0\")...\n      JUMPI \t\t\tquire(newPrice > 0, \"price=0\")...\n      PUSH 0\t\t\ti\n      PUSH 40\t\t\tnCBO = newPrice;\\n        emit...\n      MLOAD \t\t\tnCBO = newPrice;\\n        emit...\n      PUSH 89C62B6400000000000000000000000000000000000000000000000000000000\t\t\tnCBO = newPrice;\\n        emit...\n      DUP2 \t\t\tnCBO = newPrice;\\n        emit...\n      MSTORE \t\t\tnCBO = newPrice;\\n        emit...\n      PUSH 4\t\t\tnCBO = newPrice;\\n        emit...\n      ADD \t\t\tnCBO = newPrice;\\n        emit...\n      PUSH [tag] 170\t\t\tnCBO = newPrice;\\n        emit...\n      SWAP2 \t\t\tnCBO = newPrice;\\n        emit...\n      SWAP1 \t\t\tnCBO = newPrice;\\n        emit...\n      PUSH [tag] 47\t\t\tnCBO = newPrice;\\n        emit...\n      JUMP \t\t\tnCBO = newPrice;\\n        emit...\n    tag 170\t\t\tnCBO = newPrice;\\n        emit...\n      JUMPDEST \t\t\tnCBO = newPrice;\\n        emit...\n      PUSH 40\t\t\tnCBO = newPrice;\\n        emit...\n      MLOAD \t\t\tnCBO = newPrice;\\n        emit...\n      DUP1 \t\t\tnCBO = newPrice;\\n        emit...\n      SWAP2 \t\t\tnCBO = newPrice;\\n        emit...\n      SUB \t\t\tnCBO = newPrice;\\n        emit...\n      SWAP1 \t\t\tnCBO = newPrice;\\n        emit...\n      REVERT \t\t\tnCBO = newPrice;\\n        emit...\n    tag 169\t\t\tquire(newPrice > 0, \"price=0\")...\n      JUMPDEST \t\t\tquire(newPrice > 0, \"price=0\")...\n      PUSH 3\t\t\t }\\n\\n    f\n      PUSH 0\t\t\t }\\n\\n    function\n      DUP4 \t\t\tnctio\n      PUSH FFFFFFFFFFFFFFFFFFFFFFFFFFFFFFFFFFFFFFFF\t\t\t }\\n\\n    function\n      AND \t\t\t }\\n\\n    function\n      PUSH FFFFFFFFFFFFFFFFFFFFFFFFFFFFFFFFFFFFFFFF\t\t\t }\\n\\n    function\n      AND \t\t\t }\\n\\n    function\n      DUP2 \t\t\t }\\n\\n    function\n      MSTORE \t\t\t }\\n\\n    function\n      PUSH 20\t\t\t }\\n\\n    function\n      ADD \t\t\t }\\n\\n    function\n      SWAP1 \t\t\t }\\n\\n    function\n      DUP2 \t\t\t }\\n\\n    function\n      MSTORE \t\t\t }\\n\\n    function\n      PUSH 20\t\t\t }\\n\\n    function\n      ADD \t\t\t }\\n\\n    function\n      PUSH 0\t\t\t }\\n\\n    function\n      KECCAK256 \t\t\t }\\n\\n    function\n      SLOAD \t\t\t }\\n\\n    function\n      SWAP1 \t\t\te);\\n    }\\n\\n    function\n      POP \t\t\te);\\n    }\\n\\n    function\n      SWAP2 \t\t\tn ---\\n    function setPriceIn...\n      SWAP1 \t\t\tn ---\\n    function setPriceIn...\n      POP \t\t\tn ---\\n    function setPriceIn...\n      JUMP \t\t\tn ---\\n    function setPriceIn...\n    tag 84\t\t\ty u) external onlyOwner {\\n   ...\n      JUMPDEST \t\t\ty u) external onlyOwner {\\n   ...\n      PUSH [tag] 172\t\t\t(initialPrice\n      PUSH [tag] 161\t\t\t(initialPri\n      JUMP \t\t\t(initialPrice\n    tag 172\t\t\t(initialPrice\n      JUMPDEST \t\t\t(initialPrice\n      PUSH [tag] 174\t\t\teURIChanged(u);\\n    }\\n\\n    ...\n      PUSH 0\t\t\t/\n      PUSH [tag] 175\t\t\teURIChanged(u);\\n  \n      JUMP \t\t\teURIChanged(u);\\n    }\\n\\n    ...\n    tag 174\t\t\teURIChanged(u);\\n    }\\n\\n    ...\n      JUMPDEST \t\t\teURIChanged(u);\\n    }\\n\\n    ...\n      JUMP \t\t\ty u) external onlyOwner {\\n   ...\n    tag 86\t\t\t(carbonoToken);\\n        price...\n      JUMPDEST \t\t\t(carbonoToken);\\n        price...\n      PUSH 0\t\t\triceInC\n      PUSH 6\t\t\tly   =\n      PUSH 0\t\t\tly   =\n      SWAP1 \t\t\tly   =\n      SLOAD \t\t\tly   =\n      SWAP1 \t\t\tly   =\n      PUSH 100\t\t\tly   =\n      EXP \t\t\tly   =\n      SWAP1 \t\t\tly   =\n      DIV \t\t\tly   =\n      PUSH FFFFFFFFFFFFFFFFFFFFFFFFFFFFFFFFFFFFFFFF\t\t\tly   =\n      AND \t\t\tly   =\n      SWAP1 \t\t\tmaxSupply   =\n      POP \t\t\tmaxSupply   =\n      SWAP1 \t\t\t(carbonoToken);\\n        price...\n      JUMP \t\t\t(carbonoToken);\\n        price...\n    tag 89\t\t\tt ---\\n    /// @notice Compra/...\n      JUMPDEST \t\t\tt ---\\n    /// @notice Compra/...\n      PUSH 60\t\t\tdo en CBO (re\n      PUSH 1\t\t\tevio).\\n\n      DUP1 \t\t\tance previo).\\n\n      SLOAD \t\t\tance previo).\\n\n      PUSH [tag] 178\t\t\tance previo).\\n\n      SWAP1 \t\t\tance previo).\\n\n      PUSH [tag] 133\t\t\tance previo).\\n\n      JUMP \t\t\tance previo).\\n\n    tag 178\t\t\tance previo).\\n\n      JUMPDEST \t\t\tance previo).\\n\n      DUP1 \t\t\tance previo).\\n\n      PUSH 1F\t\t\tance previo).\\n\n      ADD \t\t\tance previo).\\n\n      PUSH 20\t\t\tance previo).\\n\n      DUP1 \t\t\tance previo).\\n\n      SWAP2 \t\t\tance previo).\\n\n      DIV \t\t\tance previo).\\n\n      MUL \t\t\tance previo).\\n\n      PUSH 20\t\t\tance previo).\\n\n      ADD \t\t\tance previo).\\n\n      PUSH 40\t\t\tance previo).\\n\n      MLOAD \t\t\tance previo).\\n\n      SWAP1 \t\t\tance previo).\\n\n      DUP2 \t\t\tance previo).\\n\n      ADD \t\t\tance previo).\\n\n      PUSH 40\t\t\tance previo).\\n\n      MSTORE \t\t\tance previo).\\n\n      DUP1 \t\t\tance previo).\\n\n      SWAP3 \t\t\tance previo).\\n\n      SWAP2 \t\t\tance previo).\\n\n      SWAP1 \t\t\tance previo).\\n\n      DUP2 \t\t\tance previo).\\n\n      DUP2 \t\t\tance previo).\\n\n      MSTORE \t\t\tance previo).\\n\n      PUSH 20\t\t\tance previo).\\n\n      ADD \t\t\tance previo).\\n\n      DUP3 \t\t\tance previo).\\n\n      DUP1 \t\t\tance previo).\\n\n      SLOAD \t\t\tance previo).\\n\n      PUSH [tag] 179\t\t\tance previo).\\n\n      SWAP1 \t\t\tance previo).\\n\n      PUSH [tag] 133\t\t\tance previo).\\n\n      JUMP \t\t\tance previo).\\n\n    tag 179\t\t\tance previo).\\n\n      JUMPDEST \t\t\tance previo).\\n\n      DUP1 \t\t\tance previo).\\n\n      ISZERO \t\t\tance previo).\\n\n      PUSH [tag] 180\t\t\tance previo).\\n\n      JUMPI \t\t\tance previo).\\n\n      DUP1 \t\t\tance previo).\\n\n      PUSH 1F\t\t\tance previo).\\n\n      LT \t\t\tance previo).\\n\n      PUSH [tag] 181\t\t\tance previo).\\n\n      JUMPI \t\t\tance previo).\\n\n      PUSH 100\t\t\tance previo).\\n\n      DUP1 \t\t\tance previo).\\n\n      DUP4 \t\t\tance previo).\\n\n      SLOAD \t\t\tance previo).\\n\n      DIV \t\t\tance previo).\\n\n      MUL \t\t\tance previo).\\n\n      DUP4 \t\t\tance previo).\\n\n      MSTORE \t\t\tance previo).\\n\n      SWAP2 \t\t\tance previo).\\n\n      PUSH 20\t\t\tance previo).\\n\n      ADD \t\t\tance previo).\\n\n      SWAP2 \t\t\tance previo).\\n\n      PUSH [tag] 180\t\t\tance previo).\\n\n      JUMP \t\t\tance previo).\\n\n    tag 181\t\t\tance previo).\\n\n      JUMPDEST \t\t\tance previo).\\n\n      DUP3 \t\t\tance previo).\\n\n      ADD \t\t\tance previo).\\n\n      SWAP2 \t\t\tance previo).\\n\n      SWAP1 \t\t\tance previo).\\n\n      PUSH 0\t\t\tance previo).\\n\n      MSTORE \t\t\tance previo).\\n\n      PUSH 20\t\t\tance previo).\\n\n      PUSH 0\t\t\tance previo).\\n\n      KECCAK256 \t\t\tance previo).\\n\n      SWAP1 \t\t\tance previo).\\n\n    tag 182\t\t\tance previo).\\n\n      JUMPDEST \t\t\tance previo).\\n\n      DUP2 \t\t\tance previo).\\n\n      SLOAD \t\t\tance previo).\\n\n      DUP2 \t\t\tance previo).\\n\n      MSTORE \t\t\tance previo).\\n\n      SWAP1 \t\t\tance previo).\\n\n      PUSH 1\t\t\tance previo).\\n\n      ADD \t\t\tance previo).\\n\n      SWAP1 \t\t\tance previo).\\n\n      PUSH 20\t\t\tance previo).\\n\n      ADD \t\t\tance previo).\\n\n      DUP1 \t\t\tance previo).\\n\n      DUP4 \t\t\tance previo).\\n\n      GT \t\t\tance previo).\\n\n      PUSH [tag] 182\t\t\tance previo).\\n\n      JUMPI \t\t\tance previo).\\n\n      DUP3 \t\t\tance previo).\\n\n      SWAP1 \t\t\tance previo).\\n\n      SUB \t\t\tance previo).\\n\n      PUSH 1F\t\t\tance previo).\\n\n      AND \t\t\tance previo).\\n\n      DUP3 \t\t\tance previo).\\n\n      ADD \t\t\tance previo).\\n\n      SWAP2 \t\t\tance previo).\\n\n    tag 180\t\t\tance previo).\\n\n      JUMPDEST \t\t\tance previo).\\n\n      POP \t\t\tance previo).\\n\n      POP \t\t\tance previo).\\n\n      POP \t\t\tance previo).\\n\n      POP \t\t\tance previo).\\n\n      POP \t\t\tance previo).\\n\n      SWAP1 \t\t\tance previo).\\n\n      POP \t\t\tance previo).\\n\n      SWAP1 \t\t\tt ---\\n    /// @notice Compra/...\n      JUMP \t\t\tt ---\\n    /// @notice Compra/...\n    tag 93\t\t\tunction mint(uint256 qty) exte...\n      JUMPDEST \t\t\tunction mint(uint256 qty) exte...\n      PUSH 0\t\t\t,\n      DUP2 \t\t\tty \n      GT \t\t\tty > 0,\n      PUSH [tag] 184\t\t\tequire(qty > 0, \"qty=0\");\n      JUMPI \t\t\tequire(qty > 0, \"qty=0\");\n      PUSH 40\t\t\tequire(qty > 0, \"qty=0\");\n      MLOAD \t\t\tequire(qty > 0, \"qty=0\");\n      PUSH 8C379A000000000000000000000000000000000000000000000000000000000\t\t\tequire(qty > 0, \"qty=0\");\n      DUP2 \t\t\tequire(qty > 0, \"qty=0\");\n      MSTORE \t\t\tequire(qty > 0, \"qty=0\");\n      PUSH 4\t\t\tequire(qty > 0, \"qty=0\");\n      ADD \t\t\tequire(qty > 0, \"qty=0\");\n      PUSH [tag] 185\t\t\tequire(qty > 0, \"qty=0\");\n      SWAP1 \t\t\tequire(qty > 0, \"qty=0\");\n      PUSH [tag] 186\t\t\tequire(qty > 0, \"qty=0\");\n      JUMP \t\t\tequire(qty > 0, \"qty=0\");\n    tag 185\t\t\tequire(qty > 0, \"qty=0\");\n      JUMPDEST \t\t\tequire(qty > 0, \"qty=0\");\n      PUSH 40\t\t\tequire(qty > 0, \"qty=0\");\n      MLOAD \t\t\tequire(qty > 0, \"qty=0\");\n      DUP1 \t\t\tequire(qty > 0, \"qty=0\");\n      SWAP2 \t\t\tequire(qty > 0, \"qty=0\");\n      SUB \t\t\tequire(qty > 0, \"qty=0\");\n      SWAP1 \t\t\tequire(qty > 0, \"qty=0\");\n      REVERT \t\t\tequire(qty > 0, \"qty=0\");\n    tag 184\t\t\tequire(qty > 0, \"qty=0\");\n      JUMPDEST \t\t\tequire(qty > 0, \"qty=0\");\n      PUSH 9\t\t\taxSupply,\n      SLOAD \t\t\taxSupply,\n      DUP2 \t\t\tty \n      PUSH A\t\t\totalSupply \n      SLOAD \t\t\totalSupply \n      PUSH [tag] 187\t\t\totalSupply + qty \n      SWAP2 \t\t\totalSupply + qty \n      SWAP1 \t\t\totalSupply + qty \n      PUSH [tag] 188\t\t\totalSupply + qty \n      JUMP \t\t\totalSupply + qty \n    tag 187\t\t\totalSupply + qty \n      JUMPDEST \t\t\totalSupply + qty \n      GT \t\t\totalSupply + qty <= maxSupply,\n      ISZERO \t\t\totalSupply + qty <= maxSupply,\n      PUSH [tag] 189\t\t\tequire(totalSupply + qty <= ma...\n      JUMPI \t\t\tequire(totalSupply + qty <= ma...\n      PUSH 40\t\t\tequire(totalSupply + qty <= ma...\n      MLOAD \t\t\tequire(totalSupply + qty <= ma...\n      PUSH 8C379A000000000000000000000000000000000000000000000000000000000\t\t\tequire(totalSupply + qty <= ma...\n      DUP2 \t\t\tequire(totalSupply + qty <= ma...\n      MSTORE \t\t\tequire(totalSupply + qty <= ma...\n      PUSH 4\t\t\tequire(totalSupply + qty <= ma...\n      ADD \t\t\tequire(totalSupply + qty <= ma...\n      PUSH [tag] 190\t\t\tequire(totalSupply + qty <= ma...\n      SWAP1 \t\t\tequire(totalSupply + qty <= ma...\n      PUSH [tag] 191\t\t\tequire(totalSupply + qty <= ma...\n      JUMP \t\t\tequire(totalSupply + qty <= ma...\n    tag 190\t\t\tequire(totalSupply + qty <= ma...\n      JUMPDEST \t\t\tequire(totalSupply + qty <= ma...\n      PUSH 40\t\t\tequire(totalSupply + qty <= ma...\n      MLOAD \t\t\tequire(totalSupply + qty <= ma...\n      DUP1 \t\t\tequire(totalSupply + qty <= ma...\n      SWAP2 \t\t\tequire(totalSupply + qty <= ma...\n      SUB \t\t\tequire(totalSupply + qty <= ma...\n      SWAP1 \t\t\tequire(totalSupply + qty <= ma...\n      REVERT \t\t\tequire(totalSupply + qty <= ma...\n    tag 189\t\t\tequire(totalSupply + qty <= ma...\n      JUMPDEST \t\t\tequire(totalSupply + qty <= ma...\n      PUSH 0\t\t\tint256 cost \n      DUP2 \t\t\tty;\n      PUSH 8\t\t\triceInCBO \n      SLOAD \t\t\triceInCBO \n      PUSH [tag] 192\t\t\triceInCBO * qty;\n      SWAP2 \t\t\triceInCBO * qty;\n      SWAP1 \t\t\triceInCBO * qty;\n      PUSH [tag] 193\t\t\triceInCBO * qty;\n      JUMP \t\t\triceInCBO * qty;\n    tag 192\t\t\triceInCBO * qty;\n      JUMPDEST \t\t\triceInCBO * qty;\n      SWAP1 \t\t\tint256 cost = priceInCBO * qty...\n      POP \t\t\tint256 cost = priceInCBO * qty...\n      PUSH 0\t\t\tool ok \n      PUSHIMMUTABLE 6627\t\t\tarbono.\n      PUSH FFFFFFFFFFFFFFFFFFFFFFFFFFFFFFFFFFFFFFFF\t\t\tarbono.transferFrom(\n      AND \t\t\tarbono.transferFrom(\n      PUSH 23B872DD\t\t\tarbono.transferFrom(\n      CALLER \t\t\tsg.sender,\n      PUSH 7\t\t\treasury,\n      PUSH 0\t\t\treasury,\n      SWAP1 \t\t\treasury,\n      SLOAD \t\t\treasury,\n      SWAP1 \t\t\treasury,\n      PUSH 100\t\t\treasury,\n      EXP \t\t\treasury,\n      SWAP1 \t\t\treasury,\n      DIV \t\t\treasury,\n      PUSH FFFFFFFFFFFFFFFFFFFFFFFFFFFFFFFFFFFFFFFF\t\t\treasury,\n      AND \t\t\treasury,\n      DUP6 \t\t\tost)\n      PUSH 40\t\t\tarbono.transferFrom(msg.sender...\n      MLOAD \t\t\tarbono.transferFrom(msg.sender...\n      DUP5 \t\t\tarbono.transferFrom(msg.sender...\n      PUSH FFFFFFFF\t\t\tarbono.transferFrom(msg.sender...\n      AND \t\t\tarbono.transferFrom(msg.sender...\n      PUSH E0\t\t\tarbono.transferFrom(msg.sender...\n      SHL \t\t\tarbono.transferFrom(msg.sender...\n      DUP2 \t\t\tarbono.transferFrom(msg.sender...\n      MSTORE \t\t\tarbono.transferFrom(msg.sender...\n      PUSH 4\t\t\tarbono.transferFrom(msg.sender...\n      ADD \t\t\tarbono.transferFrom(msg.sender...\n      PUSH [tag] 194\t\t\tarbono.transferFrom(msg.sender...\n      SWAP4 \t\t\tarbono.transferFrom(msg.sender...\n      SWAP3 \t\t\tarbono.transferFrom(msg.sender...\n      SWAP2 \t\t\tarbono.transferFrom(msg.sender...\n      SWAP1 \t\t\tarbono.transferFrom(msg.sender...\n      PUSH [tag] 195\t\t\tarbono.transferFrom(msg.sender...\n      JUMP \t\t\tarbono.transferFrom(msg.sender...\n    tag 194\t\t\tarbono.transferFrom(msg.sender...\n      JUMPDEST \t\t\tarbono.transferFrom(msg.sender...\n      PUSH 20\t\t\tarbono.transferFrom(msg.sender...\n      PUSH 40\t\t\tarbono.transferFrom(msg.sender...\n      MLOAD \t\t\tarbono.transferFrom(msg.sender...\n      DUP1 \t\t\tarbono.transferFrom(msg.sender...\n      DUP4 \t\t\tarbono.transferFrom(msg.sender...\n      SUB \t\t\tarbono.transferFrom(msg.sender...\n      DUP2 \t\t\tarbono.transferFrom(msg.sender...\n      PUSH 0\t\t\tarbono.transferFrom(msg.sender...\n      DUP8 \t\t\tarbono.transferFrom(msg.sender...\n      GAS \t\t\tarbono.transferFrom(msg.sender...\n      CALL \t\t\tarbono.transferFrom(msg.sender...\n      ISZERO \t\t\tarbono.transferFrom(msg.sender...\n      DUP1 \t\t\tarbono.transferFrom(msg.sender...\n      ISZERO \t\t\tarbono.transferFrom(msg.sender...\n      PUSH [tag] 197\t\t\tarbono.transferFrom(msg.sender...\n      JUMPI \t\t\tarbono.transferFrom(msg.sender...\n      RETURNDATASIZE \t\t\tarbono.transferFrom(msg.sender...\n      PUSH 0\t\t\tarbono.transferFrom(msg.sender...\n      PUSH 0\t\t\tarbono.transferFrom(msg.sender...\n      RETURNDATACOPY \t\t\tarbono.transferFrom(msg.sender...\n      RETURNDATASIZE \t\t\tarbono.transferFrom(msg.sender...\n      PUSH 0\t\t\tarbono.transferFrom(msg.sender...\n      REVERT \t\t\tarbono.transferFrom(msg.sender...\n    tag 197\t\t\tarbono.transferFrom(msg.sender...\n      JUMPDEST \t\t\tarbono.transferFrom(msg.sender...\n      POP \t\t\tarbono.transferFrom(msg.sender...\n      POP \t\t\tarbono.transferFrom(msg.sender...\n      POP \t\t\tarbono.transferFrom(msg.sender...\n      POP \t\t\tarbono.transferFrom(msg.sender...\n      PUSH 40\t\t\tarbono.transferFrom(msg.sender...\n      MLOAD \t\t\tarbono.transferFrom(msg.sender...\n      RETURNDATASIZE \t\t\tarbono.transferFrom(msg.sender...\n      PUSH 1F\t\t\tarbono.transferFrom(msg.sender...\n      NOT \t\t\tarbono.transferFrom(msg.sender...\n      PUSH 1F\t\t\tarbono.transferFrom(msg.sender...\n      DUP3 \t\t\tarbono.transferFrom(msg.sender...\n      ADD \t\t\tarbono.transferFrom(msg.sender...\n      AND \t\t\tarbono.transferFrom(msg.sender...\n      DUP3 \t\t\tarbono.transferFrom(msg.sender...\n      ADD \t\t\tarbono.transferFrom(msg.sender...\n      DUP1 \t\t\tarbono.transferFrom(msg.sender...\n      PUSH 40\t\t\tarbono.transferFrom(msg.sender...\n      MSTORE \t\t\tarbono.transferFrom(msg.sender...\n      POP \t\t\tarbono.transferFrom(msg.sender...\n      DUP2 \t\t\tarbono.transferFrom(msg.sender...\n      ADD \t\t\tarbono.transferFrom(msg.sender...\n      SWAP1 \t\t\tarbono.transferFrom(msg.sender...\n      PUSH [tag] 198\t\t\tarbono.transferFrom(msg.sender...\n      SWAP2 \t\t\tarbono.transferFrom(msg.sender...\n      SWAP1 \t\t\tarbono.transferFrom(msg.sender...\n      PUSH [tag] 199\t\t\tarbono.transferFrom(msg.sender...\n      JUMP \t\t\tarbono.transferFrom(msg.sender...\n    tag 198\t\t\tarbono.transferFrom(msg.sender...\n      JUMPDEST \t\t\tarbono.transferFrom(msg.sender...\n      SWAP1 \t\t\tool ok = carbono.transferFrom(...\n      POP \t\t\tool ok = carbono.transferFrom(...\n      DUP1 \t\t\tk,\n      PUSH [tag] 200\t\t\tequire(ok, \"CBO transfer fail\"...\n      JUMPI \t\t\tequire(ok, \"CBO transfer fail\"...\n      PUSH 40\t\t\tequire(ok, \"CBO transfer fail\"...\n      MLOAD \t\t\tequire(ok, \"CBO transfer fail\"...\n      PUSH 8C379A000000000000000000000000000000000000000000000000000000000\t\t\tequire(ok, \"CBO transfer fail\"...\n      DUP2 \t\t\tequire(ok, \"CBO transfer fail\"...\n      MSTORE \t\t\tequire(ok, \"CBO transfer fail\"...\n      PUSH 4\t\t\tequire(ok, \"CBO transfer fail\"...\n      ADD \t\t\tequire(ok, \"CBO transfer fail\"...\n      PUSH [tag] 201\t\t\tequire(ok, \"CBO transfer fail\"...\n      SWAP1 \t\t\tequire(ok, \"CBO transfer fail\"...\n      PUSH [tag] 202\t\t\tequire(ok, \"CBO transfer fail\"...\n      JUMP \t\t\tequire(ok, \"CBO transfer fail\"...\n    tag 201\t\t\tequire(ok, \"CBO transfer fail\"...\n      JUMPDEST \t\t\tequire(ok, \"CBO transfer fail\"...\n      PUSH 40\t\t\tequire(ok, \"CBO transfer fail\"...\n      MLOAD \t\t\tequire(ok, \"CBO transfer fail\"...\n      DUP1 \t\t\tequire(ok, \"CBO transfer fail\"...\n      SWAP2 \t\t\tequire(ok, \"CBO transfer fail\"...\n      SUB \t\t\tequire(ok, \"CBO transfer fail\"...\n      SWAP1 \t\t\tequire(ok, \"CBO transfer fail\"...\n      REVERT \t\t\tequire(ok, \"CBO transfer fail\"...\n    tag 200\t\t\tequire(ok, \"CBO transfer fail\"...\n      JUMPDEST \t\t\tequire(ok, \"CBO transfer fail\"...\n      PUSH 0\t\t\tint256 i \n      PUSH 0\t\t\t;\n      SWAP1 \t\t\tint256 i = 0;\n      POP \t\t\tint256 i = 0;\n    tag 203\t\t\tor (uint256 i = 0; i < qty; i+...\n      JUMPDEST \t\t\tor (uint256 i = 0; i < qty; i+...\n      DUP4 \t\t\tty;\n      DUP2 \t\t\t \n      LT \t\t\t < qty;\n      ISZERO \t\t\tor (uint256 i = 0; i < qty; i+...\n      PUSH [tag] 204\t\t\tor (uint256 i = 0; i < qty; i+...\n      JUMPI \t\t\tor (uint256 i = 0; i < qty; i+...\n      PUSH 0\t\t\tint256 tokenId \n      PUSH C\t\t\tnextId+\n      PUSH 0\t\t\tnextId+\n      DUP2 \t\t\tnextId++;\n      SLOAD \t\t\tnextId++;\n      DUP1 \t\t\tnextId++;\n      SWAP3 \t\t\tnextId++;\n      SWAP2 \t\t\tnextId++;\n      SWAP1 \t\t\tnextId++;\n      PUSH [tag] 206\t\t\tnextId++;\n      SWAP1 \t\t\tnextId++;\n      PUSH [tag] 207\t\t\tnextId++;\n      JUMP \t\t\tnextId++;\n    tag 206\t\t\tnextId++;\n      JUMPDEST \t\t\tnextId++;\n      SWAP2 \t\t\tnextId++;\n      SWAP1 \t\t\tnextId++;\n      POP \t\t\tnextId++;\n      SSTORE \t\t\tnextId++;\n      SWAP1 \t\t\tint256 tokenId = _nextId++;\n      POP \t\t\tint256 tokenId = _nextId++;\n      PUSH 1\t\t\t;\n      PUSH A\t\t\totalSupply \n      PUSH 0\t\t\totalSupply \n      DUP3 \t\t\totalSupply += 1;\n      DUP3 \t\t\totalSupply += 1;\n      SLOAD \t\t\totalSupply += 1;\n      PUSH [tag] 208\t\t\totalSupply += 1;\n      SWAP2 \t\t\totalSupply += 1;\n      SWAP1 \t\t\totalSupply += 1;\n      PUSH [tag] 188\t\t\totalSupply += 1;\n      JUMP \t\t\totalSupply += 1;\n    tag 208\t\t\totalSupply += 1;\n      JUMPDEST \t\t\totalSupply += 1;\n      SWAP3 \t\t\totalSupply += 1;\n      POP \t\t\totalSupply += 1;\n      POP \t\t\totalSupply += 1;\n      DUP2 \t\t\totalSupply += 1;\n      SWAP1 \t\t\totalSupply += 1;\n      SSTORE \t\t\totalSupply += 1;\n      POP \t\t\totalSupply += 1;\n      PUSH [tag] 209\t\t\tsafeMint(msg.sender, tokenId);\n      CALLER \t\t\tsg.sender,\n      DUP3 \t\t\tokenId)\n      PUSH [tag] 210\t\t\tsafeMint(\n      JUMP \t\t\tsafeMint(msg.sender, tokenId);\n    tag 209\t\t\tsafeMint(msg.sender, tokenId);\n      JUMPDEST \t\t\tsafeMint(msg.sender, tokenId);\n      POP \t\t\t\\n            uint256 tokenId ...\n      DUP1 \t\t\t++)\n      DUP1 \t\t\t++)\n      PUSH 1\t\t\t++)\n      ADD \t\t\t++)\n      SWAP2 \t\t\t++)\n      POP \t\t\t++)\n      POP \t\t\t++)\n      PUSH [tag] 203\t\t\tor (uint256 i = 0; i < qty; i+...\n      JUMP \t\t\tor (uint256 i = 0; i < qty; i+...\n    tag 204\t\t\tor (uint256 i = 0; i < qty; i+...\n      JUMPDEST \t\t\tor (uint256 i = 0; i < qty; i+...\n      POP \t\t\tor (uint256 i = 0; i < qty; i+...\n      CALLER \t\t\tsg.sender,\n      PUSH FFFFFFFFFFFFFFFFFFFFFFFFFFFFFFFFFFFFFFFF\t\t\tinted(msg.sender, qty, cost);\n      AND \t\t\tinted(msg.sender, qty, cost);\n      PUSH 25B428DFDE728CCFADDAD7E29E4AC23C24ED7FD1A6E3E3F91894A9A073F5DFFF\t\t\tinted(msg.sender, qty, cost);\n      DUP5 \t\t\tty,\n      DUP5 \t\t\tost)\n      PUSH 40\t\t\tinted(msg.sender, qty, cost);\n      MLOAD \t\t\tinted(msg.sender, qty, cost);\n      PUSH [tag] 211\t\t\tinted(msg.sender, qty, cost);\n      SWAP3 \t\t\tinted(msg.sender, qty, cost);\n      SWAP2 \t\t\tinted(msg.sender, qty, cost);\n      SWAP1 \t\t\tinted(msg.sender, qty, cost);\n      PUSH [tag] 212\t\t\tinted(msg.sender, qty, cost);\n      JUMP \t\t\tinted(msg.sender, qty, cost);\n    tag 211\t\t\tinted(msg.sender, qty, cost);\n      JUMPDEST \t\t\tinted(msg.sender, qty, cost);\n      PUSH 40\t\t\tinted(msg.sender, qty, cost);\n      MLOAD \t\t\tinted(msg.sender, qty, cost);\n      DUP1 \t\t\tinted(msg.sender, qty, cost);\n      SWAP2 \t\t\tinted(msg.sender, qty, cost);\n      SUB \t\t\tinted(msg.sender, qty, cost);\n      SWAP1 \t\t\tinted(msg.sender, qty, cost);\n      LOG2 \t\t\tinted(msg.sender, qty, cost);\n      POP \t\t\t\\n        require(qty > 0, \"qt...\n      POP \t\t\t\\n        require(qty > 0, \"qt...\n      POP \t\t\tunction mint(uint256 qty) exte...\n      JUMP \t\t\tunction mint(uint256 qty) exte...\n    tag 97\t\t\tpng\"));\\n    }\\n}\\n\\n\n      JUMPDEST \t\t\tpng\"));\\n    }\\n}\\n\\n\n      PUSH [tag] 214\t\t\t\n      PUSH [tag] 215\t\t\t\n      PUSH [tag] 146\t\t\t\n      JUMP \t\t\t\n    tag 215\t\t\t\n      JUMPDEST \t\t\t\n      DUP4 \t\t\t\n      DUP4 \t\t\t\n      PUSH [tag] 216\t\t\t\n      JUMP \t\t\t\n    tag 214\t\t\t\n      JUMPDEST \t\t\t\n      POP \t\t\tpng\"));\\n    }\\n}\\n\\n\n      POP \t\t\tpng\"));\\n    }\\n}\\n\\n\n      JUMP \t\t\tpng\"));\\n    }\\n}\\n\\n\n    tag 101\t\t\t\n      JUMPDEST \t\t\t\n      PUSH [tag] 218\t\t\t\n      DUP5 \t\t\t\n      DUP5 \t\t\t\n      DUP5 \t\t\t\n      PUSH [tag] 59\t\t\t\n      JUMP \t\t\t\n    tag 218\t\t\t\n      JUMPDEST \t\t\t\n      PUSH [tag] 219\t\t\t\n      PUSH [tag] 220\t\t\t\n      PUSH [tag] 146\t\t\t\n      JUMP \t\t\t\n    tag 220\t\t\t\n      JUMPDEST \t\t\t\n      DUP6 \t\t\t\n      DUP6 \t\t\t\n      DUP6 \t\t\t\n      DUP6 \t\t\t\n      PUSH [tag] 221\t\t\t\n      JUMP \t\t\t\n    tag 219\t\t\t\n      JUMPDEST \t\t\t\n      POP \t\t\t\n      POP \t\t\t\n      POP \t\t\t\n      POP \t\t\t\n      JUMP \t\t\t\n    tag 104\t\t\tunction tokenURI(uint256 token...\n      JUMPDEST \t\t\tunction tokenURI(uint256 token...\n      PUSH 60\t\t\ttring memory)\n      PUSH [tag] 223\t\t\tnerOf(tokenId);\\n\n      DUP3 \t\t\tkenId);\n      PUSH [tag] 76\t\t\tnerOf(t\n      JUMP \t\t\tnerOf(tokenId);\\n\n    tag 223\t\t\tnerOf(tokenId);\\n\n      JUMPDEST \t\t\tnerOf(tokenId);\\n\n      POP \t\t\tnerOf(tokenId);\\n\n      PUSH B\t\t\tseURI_, \n      PUSH [tag] 224\t\t\trings.toString(tokenId), \n      DUP4 \t\t\tkenId),\n      PUSH [tag] 225\t\t\trings.toString(t\n      JUMP \t\t\trings.toString(tokenId), \n    tag 224\t\t\trings.toString(tokenId), \n      JUMPDEST \t\t\trings.toString(tokenId), \n      PUSH 40\t\t\ti.encodePacked(baseURI_, Strin...\n      MLOAD \t\t\ti.encodePacked(baseURI_, Strin...\n      PUSH 20\t\t\ti.encodePacked(baseURI_, Strin...\n      ADD \t\t\ti.encodePacked(baseURI_, Strin...\n      PUSH [tag] 226\t\t\ti.encodePacked(baseURI_, Strin...\n      SWAP3 \t\t\ti.encodePacked(baseURI_, Strin...\n      SWAP2 \t\t\ti.encodePacked(baseURI_, Strin...\n      SWAP1 \t\t\ti.encodePacked(baseURI_, Strin...\n      PUSH [tag] 227\t\t\ti.encodePacked(baseURI_, Strin...\n      JUMP \t\t\ti.encodePacked(baseURI_, Strin...\n    tag 226\t\t\ti.encodePacked(baseURI_, Strin...\n      JUMPDEST \t\t\ti.encodePacked(baseURI_, Strin...\n      PUSH 40\t\t\ti.encodePacked(baseURI_, Strin...\n      MLOAD \t\t\ti.encodePacked(baseURI_, Strin...\n      PUSH 20\t\t\ti.encodePacked(baseURI_, Strin...\n      DUP2 \t\t\ti.encodePacked(baseURI_, Strin...\n      DUP4 \t\t\ti.encodePacked(baseURI_, Strin...\n      SUB \t\t\ti.encodePacked(baseURI_, Strin...\n      SUB \t\t\ti.encodePacked(baseURI_, Strin...\n      DUP2 \t\t\ti.encodePacked(baseURI_, Strin...\n      MSTORE \t\t\ti.encodePacked(baseURI_, Strin...\n      SWAP1 \t\t\ti.encodePacked(baseURI_, Strin...\n      PUSH 40\t\t\ti.encodePacked(baseURI_, Strin...\n      MSTORE \t\t\ti.encodePacked(baseURI_, Strin...\n      SWAP1 \t\t\tturn string(abi.encodePacked(b...\n      POP \t\t\tturn string(abi.encodePacked(b...\n      SWAP2 \t\t\tunction tokenURI(uint256 token...\n      SWAP1 \t\t\tunction tokenURI(uint256 token...\n      POP \t\t\tunction tokenURI(uint256 token...\n      JUMP \t\t\tunction tokenURI(uint256 token...\n    tag 108\t\t\tunction setPriceInCBO(uint256 ...\n      JUMPDEST \t\t\tunction setPriceInCBO(uint256 ...\n      PUSH [tag] 229\t\t\t(initialPrice\n      PUSH [tag] 161\t\t\t(initialPri\n      JUMP \t\t\t(initialPrice\n    tag 229\t\t\t(initialPrice\n      JUMPDEST \t\t\t(initialPrice\n      PUSH 0\t\t\t,\n      DUP2 \t\t\tewPrice \n      GT \t\t\tewPrice > 0,\n      PUSH [tag] 231\t\t\tequire(newPrice > 0, \"price=0\"...\n      JUMPI \t\t\tequire(newPrice > 0, \"price=0\"...\n      PUSH 40\t\t\tequire(newPrice > 0, \"price=0\"...\n      MLOAD \t\t\tequire(newPrice > 0, \"price=0\"...\n      PUSH 8C379A000000000000000000000000000000000000000000000000000000000\t\t\tequire(newPrice > 0, \"price=0\"...\n      DUP2 \t\t\tequire(newPrice > 0, \"price=0\"...\n      MSTORE \t\t\tequire(newPrice > 0, \"price=0\"...\n      PUSH 4\t\t\tequire(newPrice > 0, \"price=0\"...\n      ADD \t\t\tequire(newPrice > 0, \"price=0\"...\n      PUSH [tag] 232\t\t\tequire(newPrice > 0, \"price=0\"...\n      SWAP1 \t\t\tequire(newPrice > 0, \"price=0\"...\n      PUSH [tag] 233\t\t\tequire(newPrice > 0, \"price=0\"...\n      JUMP \t\t\tequire(newPrice > 0, \"price=0\"...\n    tag 232\t\t\tequire(newPrice > 0, \"price=0\"...\n      JUMPDEST \t\t\tequire(newPrice > 0, \"price=0\"...\n      PUSH 40\t\t\tequire(newPrice > 0, \"price=0\"...\n      MLOAD \t\t\tequire(newPrice > 0, \"price=0\"...\n      DUP1 \t\t\tequire(newPrice > 0, \"price=0\"...\n      SWAP2 \t\t\tequire(newPrice > 0, \"price=0\"...\n      SUB \t\t\tequire(newPrice > 0, \"price=0\"...\n      SWAP1 \t\t\tequire(newPrice > 0, \"price=0\"...\n      REVERT \t\t\tequire(newPrice > 0, \"price=0\"...\n    tag 231\t\t\tequire(newPrice > 0, \"price=0\"...\n      JUMPDEST \t\t\tequire(newPrice > 0, \"price=0\"...\n      DUP1 \t\t\tewPrice;\n      PUSH 8\t\t\triceInCBO \n      DUP2 \t\t\triceInCBO = newPrice;\n      SWAP1 \t\t\triceInCBO = newPrice;\n      SSTORE \t\t\triceInCBO = newPrice;\n      POP \t\t\triceInCBO = newPrice;\n      PUSH A6DC15BDB68DA224C66DB4B3838D9A2B205138E8CFF6774E57D0AF91E196D622\t\t\triceChanged(newPrice);\n      DUP2 \t\t\tewPrice)\n      PUSH 40\t\t\triceChanged(newPrice);\n      MLOAD \t\t\triceChanged(newPrice);\n      PUSH [tag] 234\t\t\triceChanged(newPrice);\n      SWAP2 \t\t\triceChanged(newPrice);\n      SWAP1 \t\t\triceChanged(newPrice);\n      PUSH [tag] 55\t\t\triceChanged(newPrice);\n      JUMP \t\t\triceChanged(newPrice);\n    tag 234\t\t\triceChanged(newPrice);\n      JUMPDEST \t\t\triceChanged(newPrice);\n      PUSH 40\t\t\triceChanged(newPrice);\n      MLOAD \t\t\triceChanged(newPrice);\n      DUP1 \t\t\triceChanged(newPrice);\n      SWAP2 \t\t\triceChanged(newPrice);\n      SUB \t\t\triceChanged(newPrice);\n      SWAP1 \t\t\triceChanged(newPrice);\n      LOG1 \t\t\triceChanged(newPrice);\n      POP \t\t\tunction setPriceInCBO(uint256 ...\n      JUMP \t\t\tunction setPriceInCBO(uint256 ...\n    tag 110\t\t\tuint256 public maxSupply\n      JUMPDEST \t\t\tuint256 public maxSupply\n      PUSH 9\t\t\tuint256 public maxSupply\n      SLOAD \t\t\tuint256 public maxSupply\n      DUP2 \t\t\tuint256 public maxSupply\n      JUMP \t\t\tuint256 public maxSupply\n    tag 115\t\t\t\n      JUMPDEST \t\t\t\n      PUSH 0\t\t\t\n      PUSH 5\t\t\t\n      PUSH 0\t\t\t\n      DUP5 \t\t\t\n      PUSH FFFFFFFFFFFFFFFFFFFFFFFFFFFFFFFFFFFFFFFF\t\t\t\n      AND \t\t\t\n      PUSH FFFFFFFFFFFFFFFFFFFFFFFFFFFFFFFFFFFFFFFF\t\t\t\n      AND \t\t\t\n      DUP2 \t\t\t\n      MSTORE \t\t\t\n      PUSH 20\t\t\t\n      ADD \t\t\t\n      SWAP1 \t\t\t\n      DUP2 \t\t\t\n      MSTORE \t\t\t\n      PUSH 20\t\t\t\n      ADD \t\t\t\n      PUSH 0\t\t\t\n      KECCAK256 \t\t\t\n      PUSH 0\t\t\t\n      DUP4 \t\t\t\n      PUSH FFFFFFFFFFFFFFFFFFFFFFFFFFFFFFFFFFFFFFFF\t\t\t\n      AND \t\t\t\n      PUSH FFFFFFFFFFFFFFFFFFFFFFFFFFFFFFFFFFFFFFFF\t\t\t\n      AND \t\t\t\n      DUP2 \t\t\t\n      MSTORE \t\t\t\n      PUSH 20\t\t\t\n      ADD \t\t\t\n      SWAP1 \t\t\t\n      DUP2 \t\t\t\n      MSTORE \t\t\t\n      PUSH 20\t\t\t\n      ADD \t\t\t\n      PUSH 0\t\t\t\n      KECCAK256 \t\t\t\n      PUSH 0\t\t\t\n      SWAP1 \t\t\t\n      SLOAD \t\t\t\n      SWAP1 \t\t\t\n      PUSH 100\t\t\t\n      EXP \t\t\t\n      SWAP1 \t\t\t\n      DIV \t\t\t\n      PUSH FF\t\t\t\n      AND \t\t\t\n      SWAP1 \t\t\t\n      POP \t\t\t\n      SWAP3 \t\t\t\n      SWAP2 \t\t\t\n      POP \t\t\t\n      POP \t\t\t\n      JUMP \t\t\t\n    tag 119\t\t\tunction setTreasury(address ne...\n      JUMPDEST \t\t\tunction setTreasury(address ne...\n      PUSH [tag] 237\t\t\t(initialPrice\n      PUSH [tag] 161\t\t\t(initialPri\n      JUMP \t\t\t(initialPrice\n    tag 237\t\t\t(initialPrice\n      JUMPDEST \t\t\t(initialPrice\n      PUSH 0\t\t\t)\n      PUSH FFFFFFFFFFFFFFFFFFFFFFFFFFFFFFFFFFFFFFFF\t\t\tewTreasury != address(0),\n      AND \t\t\tewTreasury != address(0),\n      DUP2 \t\t\tewTreasury \n      PUSH FFFFFFFFFFFFFFFFFFFFFFFFFFFFFFFFFFFFFFFF\t\t\tewTreasury != address(0),\n      AND \t\t\tewTreasury != address(0),\n      SUB \t\t\tewTreasury != address(0),\n      PUSH [tag] 239\t\t\tequire(newTreasury != address(...\n      JUMPI \t\t\tequire(newTreasury != address(...\n      PUSH 40\t\t\tequire(newTreasury != address(...\n      MLOAD \t\t\tequire(newTreasury != address(...\n      PUSH 8C379A000000000000000000000000000000000000000000000000000000000\t\t\tequire(newTreasury != address(...\n      DUP2 \t\t\tequire(newTreasury != address(...\n      MSTORE \t\t\tequire(newTreasury != address(...\n      PUSH 4\t\t\tequire(newTreasury != address(...\n      ADD \t\t\tequire(newTreasury != address(...\n      PUSH [tag] 240\t\t\tequire(newTreasury != address(...\n      SWAP1 \t\t\tequire(newTreasury != address(...\n      PUSH [tag] 241\t\t\tequire(newTreasury != address(...\n      JUMP \t\t\tequire(newTreasury != address(...\n    tag 240\t\t\tequire(newTreasury != address(...\n      JUMPDEST \t\t\tequire(newTreasury != address(...\n      PUSH 40\t\t\tequire(newTreasury != address(...\n      MLOAD \t\t\tequire(newTreasury != address(...\n      DUP1 \t\t\tequire(newTreasury != address(...\n      SWAP2 \t\t\tequire(newTreasury != address(...\n      SUB \t\t\tequire(newTreasury != address(...\n      SWAP1 \t\t\tequire(newTreasury != address(...\n      REVERT \t\t\tequire(newTreasury != address(...\n    tag 239\t\t\tequire(newTreasury != address(...\n      JUMPDEST \t\t\tequire(newTreasury != address(...\n      DUP1 \t\t\tewTreasury;\n      PUSH 7\t\t\treasury \n      PUSH 0\t\t\treasury \n      PUSH 100\t\t\treasury = newTreasury;\n      EXP \t\t\treasury = newTreasury;\n      DUP2 \t\t\treasury = newTreasury;\n      SLOAD \t\t\treasury = newTreasury;\n      DUP2 \t\t\treasury = newTreasury;\n      PUSH FFFFFFFFFFFFFFFFFFFFFFFFFFFFFFFFFFFFFFFF\t\t\treasury = newTreasury;\n      MUL \t\t\treasury = newTreasury;\n      NOT \t\t\treasury = newTreasury;\n      AND \t\t\treasury = newTreasury;\n      SWAP1 \t\t\treasury = newTreasury;\n      DUP4 \t\t\treasury = newTreasury;\n      PUSH FFFFFFFFFFFFFFFFFFFFFFFFFFFFFFFFFFFFFFFF\t\t\treasury = newTreasury;\n      AND \t\t\treasury = newTreasury;\n      MUL \t\t\treasury = newTreasury;\n      OR \t\t\treasury = newTreasury;\n      SWAP1 \t\t\treasury = newTreasury;\n      SSTORE \t\t\treasury = newTreasury;\n      POP \t\t\treasury = newTreasury;\n      PUSH C714D22A2F08B695F81E7C707058DB484AA5B4D6B4C9FD64BEB10FE85832F608\t\t\treasuryChanged(newTreasury);\n      DUP2 \t\t\tewTreasury)\n      PUSH 40\t\t\treasuryChanged(newTreasury);\n      MLOAD \t\t\treasuryChanged(newTreasury);\n      PUSH [tag] 242\t\t\treasuryChanged(newTreasury);\n      SWAP2 \t\t\treasuryChanged(newTreasury);\n      SWAP1 \t\t\treasuryChanged(newTreasury);\n      PUSH [tag] 47\t\t\treasuryChanged(newTreasury);\n      JUMP \t\t\treasuryChanged(newTreasury);\n    tag 242\t\t\treasuryChanged(newTreasury);\n      JUMPDEST \t\t\treasuryChanged(newTreasury);\n      PUSH 40\t\t\treasuryChanged(newTreasury);\n      MLOAD \t\t\treasuryChanged(newTreasury);\n      DUP1 \t\t\treasuryChanged(newTreasury);\n      SWAP2 \t\t\treasuryChanged(newTreasury);\n      SUB \t\t\treasuryChanged(newTreasury);\n      SWAP1 \t\t\treasuryChanged(newTreasury);\n      LOG1 \t\t\treasuryChanged(newTreasury);\n      POP \t\t\tunction setTreasury(address ne...\n      JUMP \t\t\tunction setTreasury(address ne...\n    tag 122\t\t\t 0, \"qty=0\");\\n        require...\n      JUMPDEST \t\t\t 0, \"qty=0\");\\n        require...\n      PUSH [tag] 244\t\t\t(initialPrice\n      PUSH [tag] 161\t\t\t(initialPri\n      JUMP \t\t\t(initialPrice\n    tag 244\t\t\t(initialPrice\n      JUMPDEST \t\t\t(initialPrice\n      PUSH 0\t\t\tI\n      PUSH FFFFFFFFFFFFFFFFFFFFFFFFFFFFFFFFFFFFFFFF\t\t\tuint256 cost = priceIn\n      AND \t\t\tuint256 cost = priceIn\n      DUP2 \t\t\tuint256 \n      PUSH FFFFFFFFFFFFFFFFFFFFFFFFFFFFFFFFFFFFFFFF\t\t\tuint256 cost = priceIn\n      AND \t\t\tuint256 cost = priceIn\n      SUB \t\t\tuint256 cost = priceIn\n      PUSH [tag] 246\t\t\t    uint256 cost = priceInCBO ...\n      JUMPI \t\t\t    uint256 cost = priceInCBO ...\n      PUSH 0\t\t\te\n      PUSH 40\t\t\tEl usuario debe ejecutar antes...\n      MLOAD \t\t\tEl usuario debe ejecutar antes...\n      PUSH 1E4FBDF700000000000000000000000000000000000000000000000000000000\t\t\tEl usuario debe ejecutar antes...\n      DUP2 \t\t\tEl usuario debe ejecutar antes...\n      MSTORE \t\t\tEl usuario debe ejecutar antes...\n      PUSH 4\t\t\tEl usuario debe ejecutar antes...\n      ADD \t\t\tEl usuario debe ejecutar antes...\n      PUSH [tag] 247\t\t\tEl usuario debe ejecutar antes...\n      SWAP2 \t\t\tEl usuario debe ejecutar antes...\n      SWAP1 \t\t\tEl usuario debe ejecutar antes...\n      PUSH [tag] 47\t\t\tEl usuario debe ejecutar antes...\n      JUMP \t\t\tEl usuario debe ejecutar antes...\n    tag 247\t\t\tEl usuario debe ejecutar antes...\n      JUMPDEST \t\t\tEl usuario debe ejecutar antes...\n      PUSH 40\t\t\tEl usuario debe ejecutar antes...\n      MLOAD \t\t\tEl usuario debe ejecutar antes...\n      DUP1 \t\t\tEl usuario debe ejecutar antes...\n      SWAP2 \t\t\tEl usuario debe ejecutar antes...\n      SUB \t\t\tEl usuario debe ejecutar antes...\n      SWAP1 \t\t\tEl usuario debe ejecutar antes...\n      REVERT \t\t\tEl usuario debe ejecutar antes...\n    tag 246\t\t\t    uint256 cost = priceInCBO ...\n      JUMPDEST \t\t\t    uint256 cost = priceInCBO ...\n      PUSH [tag] 248\t\t\t(this), cost)\\n        bool o\n      DUP2 \t\t\t   bool \n      PUSH [tag] 175\t\t\t(this), cost)\\n    \n      JUMP \t\t\t(this), cost)\\n        bool o\n    tag 248\t\t\t(this), cost)\\n        bool o\n      JUMPDEST \t\t\t(this), cost)\\n        bool o\n      POP \t\t\t 0, \"qty=0\");\\n        require...\n      JUMP \t\t\t 0, \"qty=0\");\\n        require...\n    tag 124\t\t\tuint256 public priceInCBO\n      JUMPDEST \t\t\tuint256 public priceInCBO\n      PUSH 8\t\t\tuint256 public priceInCBO\n      SLOAD \t\t\tuint256 public priceInCBO\n      DUP2 \t\t\tuint256 public priceInCBO\n      JUMP \t\t\tuint256 public priceInCBO\n    tag 130\t\t\tRecibe CBO cobrados\\n    uint2...\n      JUMPDEST \t\t\tRecibe CBO cobrados\\n    uint2...\n      PUSH 0\t\t\t3e18\n      PUSH 1FFC9A700000000000000000000000000000000000000000000000000000000\t\t\tpply;\\n    uint256 public \n      PUSH FFFFFFFFFFFFFFFFFFFFFFFFFFFFFFFFFFFFFFFFFFFFFFFFFFFFFFFF\t\t\t56 public maxSupply;\\n    uint...\n      NOT \t\t\t56 public maxSupply;\\n    uint...\n      AND \t\t\t56 public maxSupply;\\n    uint...\n      DUP3 \t\t\t56 public m\n      PUSH FFFFFFFFFFFFFFFFFFFFFFFFFFFFFFFFFFFFFFFFFFFFFFFFFFFFFFFF\t\t\t56 public maxSupply;\\n    uint...\n      NOT \t\t\t56 public maxSupply;\\n    uint...\n      AND \t\t\t56 public maxSupply;\\n    uint...\n      EQ \t\t\t56 public maxSupply;\\n    uint...\n      SWAP1 \t\t\t  uint256 public maxSupply;\\n ...\n      POP \t\t\t  uint256 public maxSupply;\\n ...\n      SWAP2 \t\t\tRecibe CBO cobrados\\n    uint2...\n      SWAP1 \t\t\tRecibe CBO cobrados\\n    uint2...\n      POP \t\t\tRecibe CBO cobrados\\n    uint2...\n      JUMP \t\t\tRecibe CBO cobrados\\n    uint2...\n    tag 140\t\t\t\n      JUMPDEST \t\t\t\n      PUSH 0\t\t\t\n      PUSH 0\t\t\t\n      PUSH [tag] 251\t\t\t\n      DUP4 \t\t\t\n      PUSH [tag] 252\t\t\t\n      JUMP \t\t\t\n    tag 251\t\t\t\n      JUMPDEST \t\t\t\n      SWAP1 \t\t\t\n      POP \t\t\t\n      PUSH 0\t\t\t\n      PUSH FFFFFFFFFFFFFFFFFFFFFFFFFFFFFFFFFFFFFFFF\t\t\t\n      AND \t\t\t\n      DUP2 \t\t\t\n      PUSH FFFFFFFFFFFFFFFFFFFFFFFFFFFFFFFFFFFFFFFF\t\t\t\n      AND \t\t\t\n      SUB \t\t\t\n      PUSH [tag] 253\t\t\t\n      JUMPI \t\t\t\n      DUP3 \t\t\t\n      PUSH 40\t\t\t\n      MLOAD \t\t\t\n      PUSH 7E27328900000000000000000000000000000000000000000000000000000000\t\t\t\n      DUP2 \t\t\t\n      MSTORE \t\t\t\n      PUSH 4\t\t\t\n      ADD \t\t\t\n      PUSH [tag] 254\t\t\t\n      SWAP2 \t\t\t\n      SWAP1 \t\t\t\n      PUSH [tag] 55\t\t\t\n      JUMP \t\t\t\n    tag 254\t\t\t\n      JUMPDEST \t\t\t\n      PUSH 40\t\t\t\n      MLOAD \t\t\t\n      DUP1 \t\t\t\n      SWAP2 \t\t\t\n      SUB \t\t\t\n      SWAP1 \t\t\t\n      REVERT \t\t\t\n    tag 253\t\t\t\n      JUMPDEST \t\t\t\n      DUP1 \t\t\t\n      SWAP2 \t\t\t\n      POP \t\t\t\n      POP \t\t\t\n      SWAP2 \t\t\t\n      SWAP1 \t\t\t\n      POP \t\t\t\n      JUMP \t\t\t\n    tag 142\t\t\t\n      JUMPDEST \t\t\t\n      PUSH 0\t\t\t\n      PUSH 4\t\t\t\n      PUSH 0\t\t\t\n      DUP4 \t\t\t\n      DUP2 \t\t\t\n      MSTORE \t\t\t\n      PUSH 20\t\t\t\n      ADD \t\t\t\n      SWAP1 \t\t\t\n      DUP2 \t\t\t\n      MSTORE \t\t\t\n      PUSH 20\t\t\t\n      ADD \t\t\t\n      PUSH 0\t\t\t\n      KECCAK256 \t\t\t\n      PUSH 0\t\t\t\n      SWAP1 \t\t\t\n      SLOAD \t\t\t\n      SWAP1 \t\t\t\n      PUSH 100\t\t\t\n      EXP \t\t\t\n      SWAP1 \t\t\t\n      DIV \t\t\t\n      PUSH FFFFFFFFFFFFFFFFFFFFFFFFFFFFFFFFFFFFFFFF\t\t\t\n      AND \t\t\t\n      SWAP1 \t\t\t\n      POP \t\t\t\n      SWAP2 \t\t\t\n      SWAP1 \t\t\t\n      POP \t\t\t\n      JUMP \t\t\t\n    tag 146\t\t\tbono;   // Token CBO para paga...\n      JUMPDEST \t\t\tbono;   // Token CBO para paga...\n      PUSH 0\t\t\teasury;\n      CALLER \t\t\te CBO cobr\n      SWAP1 \t\t\t/ Recibe CBO cobr\n      POP \t\t\t/ Recibe CBO cobr\n      SWAP1 \t\t\tbono;   // Token CBO para paga...\n      JUMP \t\t\tbono;   // Token CBO para paga...\n    tag 147\t\t\t\n      JUMPDEST \t\t\t\n      PUSH [tag] 258\t\t\t\n      DUP4 \t\t\t\n      DUP4 \t\t\t\n      DUP4 \t\t\t\n      PUSH 1\t\t\t\n      PUSH [tag] 259\t\t\t\n      JUMP \t\t\t\n    tag 258\t\t\t\n      JUMPDEST \t\t\t\n      POP \t\t\t\n      POP \t\t\t\n      POP \t\t\t\n      JUMP \t\t\t\n    tag 153\t\t\t\n      JUMPDEST \t\t\t\n      PUSH 0\t\t\t\n      PUSH 0\t\t\t\n      PUSH [tag] 261\t\t\t\n      DUP5 \t\t\t\n      PUSH [tag] 252\t\t\t\n      JUMP \t\t\t\n    tag 261\t\t\t\n      JUMPDEST \t\t\t\n      SWAP1 \t\t\t\n      POP \t\t\t\n      PUSH 0\t\t\t\n      PUSH FFFFFFFFFFFFFFFFFFFFFFFFFFFFFFFFFFFFFFFF\t\t\t\n      AND \t\t\t\n      DUP4 \t\t\t\n      PUSH FFFFFFFFFFFFFFFFFFFFFFFFFFFFFFFFFFFFFFFF\t\t\t\n      AND \t\t\t\n      EQ \t\t\t\n      PUSH [tag] 262\t\t\t\n      JUMPI \t\t\t\n      PUSH [tag] 263\t\t\t\n      DUP2 \t\t\t\n      DUP5 \t\t\t\n      DUP7 \t\t\t\n      PUSH [tag] 264\t\t\t\n      JUMP \t\t\t\n    tag 263\t\t\t\n      JUMPDEST \t\t\t\n    tag 262\t\t\t\n      JUMPDEST \t\t\t\n      PUSH 0\t\t\t\n      PUSH FFFFFFFFFFFFFFFFFFFFFFFFFFFFFFFFFFFFFFFF\t\t\t\n      AND \t\t\t\n      DUP2 \t\t\t\n      PUSH FFFFFFFFFFFFFFFFFFFFFFFFFFFFFFFFFFFFFFFF\t\t\t\n      AND \t\t\t\n      EQ \t\t\t\n      PUSH [tag] 265\t\t\t\n      JUMPI \t\t\t\n      PUSH [tag] 266\t\t\t\n      PUSH 0\t\t\t\n      DUP6 \t\t\t\n      PUSH 0\t\t\t\n      PUSH 0\t\t\t\n      PUSH [tag] 259\t\t\t\n      JUMP \t\t\t\n    tag 266\t\t\t\n      JUMPDEST \t\t\t\n      PUSH 1\t\t\t\n      PUSH 3\t\t\t\n      PUSH 0\t\t\t\n      DUP4 \t\t\t\n      PUSH FFFFFFFFFFFFFFFFFFFFFFFFFFFFFFFFFFFFFFFF\t\t\t\n      AND \t\t\t\n      PUSH FFFFFFFFFFFFFFFFFFFFFFFFFFFFFFFFFFFFFFFF\t\t\t\n      AND \t\t\t\n      DUP2 \t\t\t\n      MSTORE \t\t\t\n      PUSH 20\t\t\t\n      ADD \t\t\t\n      SWAP1 \t\t\t\n      DUP2 \t\t\t\n      MSTORE \t\t\t\n      PUSH 20\t\t\t\n      ADD \t\t\t\n      PUSH 0\t\t\t\n      KECCAK256 \t\t\t\n      PUSH 0\t\t\t\n      DUP3 \t\t\t\n      DUP3 \t\t\t\n      SLOAD \t\t\t\n      SUB \t\t\t\n      SWAP3 \t\t\t\n      POP \t\t\t\n      POP \t\t\t\n      DUP2 \t\t\t\n      SWAP1 \t\t\t\n      SSTORE \t\t\t\n      POP \t\t\t\n    tag 265\t\t\t\n      JUMPDEST \t\t\t\n      PUSH 0\t\t\t\n      PUSH FFFFFFFFFFFFFFFFFFFFFFFFFFFFFFFFFFFFFFFF\t\t\t\n      AND \t\t\t\n      DUP6 \t\t\t\n      PUSH FFFFFFFFFFFFFFFFFFFFFFFFFFFFFFFFFFFFFFFF\t\t\t\n      AND \t\t\t\n      EQ \t\t\t\n      PUSH [tag] 267\t\t\t\n      JUMPI \t\t\t\n      PUSH 1\t\t\t\n      PUSH 3\t\t\t\n      PUSH 0\t\t\t\n      DUP8 \t\t\t\n      PUSH FFFFFFFFFFFFFFFFFFFFFFFFFFFFFFFFFFFFFFFF\t\t\t\n      AND \t\t\t\n      PUSH FFFFFFFFFFFFFFFFFFFFFFFFFFFFFFFFFFFFFFFF\t\t\t\n      AND \t\t\t\n      DUP2 \t\t\t\n      MSTORE \t\t\t\n      PUSH 20\t\t\t\n      ADD \t\t\t\n      SWAP1 \t\t\t\n      DUP2 \t\t\t\n      MSTORE \t\t\t\n      PUSH 20\t\t\t\n      ADD \t\t\t\n      PUSH 0\t\t\t\n      KECCAK256 \t\t\t\n      PUSH 0\t\t\t\n      DUP3 \t\t\t\n      DUP3 \t\t\t\n      SLOAD \t\t\t\n      ADD \t\t\t\n      SWAP3 \t\t\t\n      POP \t\t\t\n      POP \t\t\t\n      DUP2 \t\t\t\n      SWAP1 \t\t\t\n      SSTORE \t\t\t\n      POP \t\t\t\n    tag 267\t\t\t\n      JUMPDEST \t\t\t\n      DUP5 \t\t\t\n      PUSH 2\t\t\t\n      PUSH 0\t\t\t\n      DUP7 \t\t\t\n      DUP2 \t\t\t\n      MSTORE \t\t\t\n      PUSH 20\t\t\t\n      ADD \t\t\t\n      SWAP1 \t\t\t\n      DUP2 \t\t\t\n      MSTORE \t\t\t\n      PUSH 20\t\t\t\n      ADD \t\t\t\n      PUSH 0\t\t\t\n      KECCAK256 \t\t\t\n      PUSH 0\t\t\t\n      PUSH 100\t\t\t\n      EXP \t\t\t\n      DUP2 \t\t\t\n      SLOAD \t\t\t\n      DUP2 \t\t\t\n      PUSH FFFFFFFFFFFFFFFFFFFFFFFFFFFFFFFFFFFFFFFF\t\t\t\n      MUL \t\t\t\n      NOT \t\t\t\n      AND \t\t\t\n      SWAP1 \t\t\t\n      DUP4 \t\t\t\n      PUSH FFFFFFFFFFFFFFFFFFFFFFFFFFFFFFFFFFFFFFFF\t\t\t\n      AND \t\t\t\n      MUL \t\t\t\n      OR \t\t\t\n      SWAP1 \t\t\t\n      SSTORE \t\t\t\n      POP \t\t\t\n      DUP4 \t\t\t\n      DUP6 \t\t\t\n      PUSH FFFFFFFFFFFFFFFFFFFFFFFFFFFFFFFFFFFFFFFF\t\t\t\n      AND \t\t\t\n      DUP3 \t\t\t\n      PUSH FFFFFFFFFFFFFFFFFFFFFFFFFFFFFFFFFFFFFFFF\t\t\t\n      AND \t\t\t\n      PUSH DDF252AD1BE2C89B69C2B068FC378DAA952BA7F163C4A11628F55A4DF523B3EF\t\t\t\n      PUSH 40\t\t\t\n      MLOAD \t\t\t\n      PUSH 40\t\t\t\n      MLOAD \t\t\t\n      DUP1 \t\t\t\n      SWAP2 \t\t\t\n      SUB \t\t\t\n      SWAP1 \t\t\t\n      LOG4 \t\t\t\n      DUP1 \t\t\t\n      SWAP2 \t\t\t\n      POP \t\t\t\n      POP \t\t\t\n      SWAP4 \t\t\t\n      SWAP3 \t\t\t\n      POP \t\t\t\n      POP \t\t\t\n      POP \t\t\t\n      JUMP \t\t\t\n    tag 161\t\t\t; // por defecto, el owner es ...\n      JUMPDEST \t\t\t; // por defecto, el owner es ...\n      PUSH [tag] 269\t\t\t\\n    functio\n      PUSH [tag] 146\t\t\t\\n    funct\n      JUMP \t\t\t\\n    functio\n    tag 269\t\t\t\\n    functio\n      JUMPDEST \t\t\t\\n    functio\n      PUSH FFFFFFFFFFFFFFFFFFFFFFFFFFFFFFFFFFFFFFFF\t\t\t- Admin ---\\n    functio\n      AND \t\t\t- Admin ---\\n    functio\n      PUSH [tag] 270\t\t\t- Admin\n      PUSH [tag] 86\t\t\t- Adm\n      JUMP \t\t\t- Admin\n    tag 270\t\t\t- Admin\n      JUMPDEST \t\t\t- Admin\n      PUSH FFFFFFFFFFFFFFFFFFFFFFFFFFFFFFFFFFFFFFFF\t\t\t- Admin ---\\n    functio\n      AND \t\t\t- Admin ---\\n    functio\n      EQ \t\t\t- Admin ---\\n    functio\n      PUSH [tag] 271\t\t\t/ --- Admin ---\\n    function ...\n      JUMPI \t\t\t/ --- Admin ---\\n    function ...\n      PUSH [tag] 272\t\t\ter {\\n       \n      PUSH [tag] 146\t\t\ter {\\n     \n      JUMP \t\t\ter {\\n       \n    tag 272\t\t\ter {\\n       \n      JUMPDEST \t\t\ter {\\n       \n      PUSH 40\t\t\t newPrice) external onlyOwner ...\n      MLOAD \t\t\t newPrice) external onlyOwner ...\n      PUSH 118CDAA700000000000000000000000000000000000000000000000000000000\t\t\t newPrice) external onlyOwner ...\n      DUP2 \t\t\t newPrice) external onlyOwner ...\n      MSTORE \t\t\t newPrice) external onlyOwner ...\n      PUSH 4\t\t\t newPrice) external onlyOwner ...\n      ADD \t\t\t newPrice) external onlyOwner ...\n      PUSH [tag] 273\t\t\t newPrice) external onlyOwner ...\n      SWAP2 \t\t\t newPrice) external onlyOwner ...\n      SWAP1 \t\t\t newPrice) external onlyOwner ...\n      PUSH [tag] 47\t\t\t newPrice) external onlyOwner ...\n      JUMP \t\t\t newPrice) external onlyOwner ...\n    tag 273\t\t\t newPrice) external onlyOwner ...\n      JUMPDEST \t\t\t newPrice) external onlyOwner ...\n      PUSH 40\t\t\t newPrice) external onlyOwner ...\n      MLOAD \t\t\t newPrice) external onlyOwner ...\n      DUP1 \t\t\t newPrice) external onlyOwner ...\n      SWAP2 \t\t\t newPrice) external onlyOwner ...\n      SUB \t\t\t newPrice) external onlyOwner ...\n      SWAP1 \t\t\t newPrice) external onlyOwner ...\n      REVERT \t\t\t newPrice) external onlyOwner ...\n    tag 271\t\t\t/ --- Admin ---\\n    function ...\n      JUMPDEST \t\t\t/ --- Admin ---\\n    function ...\n      JUMP \t\t\t; // por defecto, el owner es ...\n    tag 175\t\t\ttokenId = _nextId++;\\n        ...\n      JUMPDEST \t\t\ttokenId = _nextId++;\\n        ...\n      PUSH 0\t\t\tmsg.sender, toke\n      PUSH 6\t\t\t);\\n   \n      PUSH 0\t\t\t);\\n   \n      SWAP1 \t\t\t);\\n   \n      SLOAD \t\t\t);\\n   \n      SWAP1 \t\t\t);\\n   \n      PUSH 100\t\t\t);\\n   \n      EXP \t\t\t);\\n   \n      SWAP1 \t\t\t);\\n   \n      DIV \t\t\t);\\n   \n      PUSH FFFFFFFFFFFFFFFFFFFFFFFFFFFFFFFFFFFFFFFF\t\t\t);\\n   \n      AND \t\t\t);\\n   \n      SWAP1 \t\t\tmsg.sender, tokenId);\\n   \n      POP \t\t\tmsg.sender, tokenId);\\n   \n      DUP2 \t\t\tt Minted\n      PUSH 6\t\t\t      \n      PUSH 0\t\t\t      \n      PUSH 100\t\t\t      emit Minted\n      EXP \t\t\t      emit Minted\n      DUP2 \t\t\t      emit Minted\n      SLOAD \t\t\t      emit Minted\n      DUP2 \t\t\t      emit Minted\n      PUSH FFFFFFFFFFFFFFFFFFFFFFFFFFFFFFFFFFFFFFFF\t\t\t      emit Minted\n      MUL \t\t\t      emit Minted\n      NOT \t\t\t      emit Minted\n      AND \t\t\t      emit Minted\n      SWAP1 \t\t\t      emit Minted\n      DUP4 \t\t\t      emit Minted\n      PUSH FFFFFFFFFFFFFFFFFFFFFFFFFFFFFFFFFFFFFFFF\t\t\t      emit Minted\n      AND \t\t\t      emit Minted\n      MUL \t\t\t      emit Minted\n      OR \t\t\t      emit Minted\n      SWAP1 \t\t\t      emit Minted\n      SSTORE \t\t\t      emit Minted\n      POP \t\t\t      emit Minted\n      DUP2 \t\t\tadata si\n      PUSH FFFFFFFFFFFFFFFFFFFFFFFFFFFFFFFFFFFFFFFF\t\t\ty, cost);\\n    }\\n\\n    // ---...\n      AND \t\t\ty, cost);\\n    }\\n\\n    // ---...\n      DUP2 \t\t\t// --- M\n      PUSH FFFFFFFFFFFFFFFFFFFFFFFFFFFFFFFFFFFFFFFF\t\t\ty, cost);\\n    }\\n\\n    // ---...\n      AND \t\t\ty, cost);\\n    }\\n\\n    // ---...\n      PUSH 8BE0079C531659141344CD1FD0A4F28419497F9722A3DAAFE3B4186F6B6457E0\t\t\ty, cost);\\n    }\\n\\n    // ---...\n      PUSH 40\t\t\ty, cost);\\n    }\\n\\n    // ---...\n      MLOAD \t\t\ty, cost);\\n    }\\n\\n    // ---...\n      PUSH 40\t\t\ty, cost);\\n    }\\n\\n    // ---...\n      MLOAD \t\t\ty, cost);\\n    }\\n\\n    // ---...\n      DUP1 \t\t\ty, cost);\\n    }\\n\\n    // ---...\n      SWAP2 \t\t\ty, cost);\\n    }\\n\\n    // ---...\n      SUB \t\t\ty, cost);\\n    }\\n\\n    // ---...\n      SWAP1 \t\t\ty, cost);\\n    }\\n\\n    // ---...\n      LOG3 \t\t\ty, cost);\\n    }\\n\\n    // ---...\n      POP \t\t\t_safeMint(msg.sender, tokenId)...\n      POP \t\t\ttokenId = _nextId++;\\n        ...\n      JUMP \t\t\ttokenId = _nextId++;\\n        ...\n    tag 210\t\t\t\n      JUMPDEST \t\t\t\n      PUSH [tag] 276\t\t\t\n      DUP3 \t\t\t\n      DUP3 \t\t\t\n      PUSH 40\t\t\t\n      MLOAD \t\t\t\n      DUP1 \t\t\t\n      PUSH 20\t\t\t\n      ADD \t\t\t\n      PUSH 40\t\t\t\n      MSTORE \t\t\t\n      DUP1 \t\t\t\n      PUSH 0\t\t\t\n      DUP2 \t\t\t\n      MSTORE \t\t\t\n      POP \t\t\t\n      PUSH [tag] 277\t\t\t\n      JUMP \t\t\t\n    tag 276\t\t\t\n      JUMPDEST \t\t\t\n      POP \t\t\t\n      POP \t\t\t\n      JUMP \t\t\t\n    tag 216\t\t\t\n      JUMPDEST \t\t\t\n      PUSH 0\t\t\t\n      PUSH FFFFFFFFFFFFFFFFFFFFFFFFFFFFFFFFFFFFFFFF\t\t\t\n      AND \t\t\t\n      DUP3 \t\t\t\n      PUSH FFFFFFFFFFFFFFFFFFFFFFFFFFFFFFFFFFFFFFFF\t\t\t\n      AND \t\t\t\n      SUB \t\t\t\n      PUSH [tag] 279\t\t\t\n      JUMPI \t\t\t\n      DUP2 \t\t\t\n      PUSH 40\t\t\t\n      MLOAD \t\t\t\n      PUSH 5B08BA1800000000000000000000000000000000000000000000000000000000\t\t\t\n      DUP2 \t\t\t\n      MSTORE \t\t\t\n      PUSH 4\t\t\t\n      ADD \t\t\t\n      PUSH [tag] 280\t\t\t\n      SWAP2 \t\t\t\n      SWAP1 \t\t\t\n      PUSH [tag] 47\t\t\t\n      JUMP \t\t\t\n    tag 280\t\t\t\n      JUMPDEST \t\t\t\n      PUSH 40\t\t\t\n      MLOAD \t\t\t\n      DUP1 \t\t\t\n      SWAP2 \t\t\t\n      SUB \t\t\t\n      SWAP1 \t\t\t\n      REVERT \t\t\t\n    tag 279\t\t\t\n      JUMPDEST \t\t\t\n      DUP1 \t\t\t\n      PUSH 5\t\t\t\n      PUSH 0\t\t\t\n      DUP6 \t\t\t\n      PUSH FFFFFFFFFFFFFFFFFFFFFFFFFFFFFFFFFFFFFFFF\t\t\t\n      AND \t\t\t\n      PUSH FFFFFFFFFFFFFFFFFFFFFFFFFFFFFFFFFFFFFFFF\t\t\t\n      AND \t\t\t\n      DUP2 \t\t\t\n      MSTORE \t\t\t\n      PUSH 20\t\t\t\n      ADD \t\t\t\n      SWAP1 \t\t\t\n      DUP2 \t\t\t\n      MSTORE \t\t\t\n      PUSH 20\t\t\t\n      ADD \t\t\t\n      PUSH 0\t\t\t\n      KECCAK256 \t\t\t\n      PUSH 0\t\t\t\n      DUP5 \t\t\t\n      PUSH FFFFFFFFFFFFFFFFFFFFFFFFFFFFFFFFFFFFFFFF\t\t\t\n      AND \t\t\t\n      PUSH FFFFFFFFFFFFFFFFFFFFFFFFFFFFFFFFFFFFFFFF\t\t\t\n      AND \t\t\t\n      DUP2 \t\t\t\n      MSTORE \t\t\t\n      PUSH 20\t\t\t\n      ADD \t\t\t\n      SWAP1 \t\t\t\n      DUP2 \t\t\t\n      MSTORE \t\t\t\n      PUSH 20\t\t\t\n      ADD \t\t\t\n      PUSH 0\t\t\t\n      KECCAK256 \t\t\t\n      PUSH 0\t\t\t\n      PUSH 100\t\t\t\n      EXP \t\t\t\n      DUP2 \t\t\t\n      SLOAD \t\t\t\n      DUP2 \t\t\t\n      PUSH FF\t\t\t\n      MUL \t\t\t\n      NOT \t\t\t\n      AND \t\t\t\n      SWAP1 \t\t\t\n      DUP4 \t\t\t\n      ISZERO \t\t\t\n      ISZERO \t\t\t\n      MUL \t\t\t\n      OR \t\t\t\n      SWAP1 \t\t\t\n      SSTORE \t\t\t\n      POP \t\t\t\n      DUP2 \t\t\t\n      PUSH FFFFFFFFFFFFFFFFFFFFFFFFFFFFFFFFFFFFFFFF\t\t\t\n      AND \t\t\t\n      DUP4 \t\t\t\n      PUSH FFFFFFFFFFFFFFFFFFFFFFFFFFFFFFFFFFFFFFFF\t\t\t\n      AND \t\t\t\n      PUSH 17307EAB39AB6107E8899845AD3D59BD9653F200F220920489CA2B5937696C31\t\t\t\n      DUP4 \t\t\t\n      PUSH 40\t\t\t\n      MLOAD \t\t\t\n      PUSH [tag] 281\t\t\t\n      SWAP2 \t\t\t\n      SWAP1 \t\t\t\n      PUSH [tag] 37\t\t\t\n      JUMP \t\t\t\n    tag 281\t\t\t\n      JUMPDEST \t\t\t\n      PUSH 40\t\t\t\n      MLOAD \t\t\t\n      DUP1 \t\t\t\n      SWAP2 \t\t\t\n      SUB \t\t\t\n      SWAP1 \t\t\t\n      LOG3 \t\t\t\n      POP \t\t\t\n      POP \t\t\t\n      POP \t\t\t\n      JUMP \t\t\t\n    tag 221\t\t\t qty, uint256 paidCBO);\\n    e...\n      JUMPDEST \t\t\t qty, uint256 paidCBO);\\n    e...\n      PUSH 0\t\t\to\n      DUP4 \t\t\t  \n      PUSH FFFFFFFFFFFFFFFFFFFFFFFFFFFFFFFFFFFFFFFF\t\t\t     address c\n      AND \t\t\t     address c\n      EXTCODESIZE \t\t\t     address c\n      GT \t\t\t     address carbo\n      ISZERO \t\t\t\\n        address carbonoToken...\n      PUSH [tag] 283\t\t\t\\n        address carbonoToken...\n      JUMPI \t\t\t\\n        address carbonoToken...\n      DUP3 \t\t\tco\n      PUSH FFFFFFFFFFFFFFFFFFFFFFFFFFFFFFFFFFFFFFFF\t\t\t/ dirección del contrato Carbo...\n      AND \t\t\t/ dirección del contrato Carbo...\n      PUSH 150B7A02\t\t\t/ dirección del contrato Carbo...\n      DUP7 \t\t\t)\\n      \n      DUP7 \t\t\tuint\n      DUP6 \t\t\t6 initi\n      DUP6 \t\t\tPric\n      PUSH 40\t\t\t/ dirección del contrato Carbo...\n      MLOAD \t\t\t/ dirección del contrato Carbo...\n      DUP6 \t\t\t/ dirección del contrato Carbo...\n      PUSH FFFFFFFF\t\t\t/ dirección del contrato Carbo...\n      AND \t\t\t/ dirección del contrato Carbo...\n      PUSH E0\t\t\t/ dirección del contrato Carbo...\n      SHL \t\t\t/ dirección del contrato Carbo...\n      DUP2 \t\t\t/ dirección del contrato Carbo...\n      MSTORE \t\t\t/ dirección del contrato Carbo...\n      PUSH 4\t\t\t/ dirección del contrato Carbo...\n      ADD \t\t\t/ dirección del contrato Carbo...\n      PUSH [tag] 284\t\t\t/ dirección del contrato Carbo...\n      SWAP5 \t\t\t/ dirección del contrato Carbo...\n      SWAP4 \t\t\t/ dirección del contrato Carbo...\n      SWAP3 \t\t\t/ dirección del contrato Carbo...\n      SWAP2 \t\t\t/ dirección del contrato Carbo...\n      SWAP1 \t\t\t/ dirección del contrato Carbo...\n      PUSH [tag] 285\t\t\t/ dirección del contrato Carbo...\n      JUMP \t\t\t/ dirección del contrato Carbo...\n    tag 284\t\t\t/ dirección del contrato Carbo...\n      JUMPDEST \t\t\t/ dirección del contrato Carbo...\n      PUSH 20\t\t\t/ dirección del contrato Carbo...\n      PUSH 40\t\t\t/ dirección del contrato Carbo...\n      MLOAD \t\t\t/ dirección del contrato Carbo...\n      DUP1 \t\t\t/ dirección del contrato Carbo...\n      DUP4 \t\t\t/ dirección del contrato Carbo...\n      SUB \t\t\t/ dirección del contrato Carbo...\n      DUP2 \t\t\t/ dirección del contrato Carbo...\n      PUSH 0\t\t\t/ dirección del contrato Carbo...\n      DUP8 \t\t\t/ dirección del contrato Carbo...\n      GAS \t\t\t/ dirección del contrato Carbo...\n      CALL \t\t\t/ dirección del contrato Carbo...\n      SWAP3 \t\t\t/ dirección del contrato Carbo...\n      POP \t\t\t/ dirección del contrato Carbo...\n      POP \t\t\t/ dirección del contrato Carbo...\n      POP \t\t\t/ dirección del contrato Carbo...\n      DUP1 \t\t\t/ dirección del contrato Carbo...\n      ISZERO \t\t\t/ dirección del contrato Carbo...\n      PUSH [tag] 286\t\t\t/ dirección del contrato Carbo...\n      JUMPI \t\t\t/ dirección del contrato Carbo...\n      POP \t\t\t/ dirección del contrato Carbo...\n      PUSH 40\t\t\t/ dirección del contrato Carbo...\n      MLOAD \t\t\t/ dirección del contrato Carbo...\n      RETURNDATASIZE \t\t\t/ dirección del contrato Carbo...\n      PUSH 1F\t\t\t/ dirección del contrato Carbo...\n      NOT \t\t\t/ dirección del contrato Carbo...\n      PUSH 1F\t\t\t/ dirección del contrato Carbo...\n      DUP3 \t\t\t/ dirección del contrato Carbo...\n      ADD \t\t\t/ dirección del contrato Carbo...\n      AND \t\t\t/ dirección del contrato Carbo...\n      DUP3 \t\t\t/ dirección del contrato Carbo...\n      ADD \t\t\t/ dirección del contrato Carbo...\n      DUP1 \t\t\t/ dirección del contrato Carbo...\n      PUSH 40\t\t\t/ dirección del contrato Carbo...\n      MSTORE \t\t\t/ dirección del contrato Carbo...\n      POP \t\t\t/ dirección del contrato Carbo...\n      DUP2 \t\t\t/ dirección del contrato Carbo...\n      ADD \t\t\t/ dirección del contrato Carbo...\n      SWAP1 \t\t\t/ dirección del contrato Carbo...\n      PUSH [tag] 287\t\t\t/ dirección del contrato Carbo...\n      SWAP2 \t\t\t/ dirección del contrato Carbo...\n      SWAP1 \t\t\t/ dirección del contrato Carbo...\n      PUSH [tag] 288\t\t\t/ dirección del contrato Carbo...\n      JUMP \t\t\t/ dirección del contrato Carbo...\n    tag 287\t\t\t/ dirección del contrato Carbo...\n      JUMPDEST \t\t\t/ dirección del contrato Carbo...\n      PUSH 1\t\t\t/ dirección del contrato Carbo...\n    tag 286\t\t\t/ dirección del contrato Carbo...\n      JUMPDEST \t\t\t/ dirección del contrato Carbo...\n      PUSH [tag] 289\t\t\t   // dirección del contrato C...\n      JUMPI \t\t\t   // dirección del contrato C...\n      RETURNDATASIZE \t\t\t   // dirección del contrato C...\n      DUP1 \t\t\t   // dirección del contrato C...\n      PUSH 0\t\t\t   // dirección del contrato C...\n      DUP2 \t\t\t   // dirección del contrato C...\n      EQ \t\t\t   // dirección del contrato C...\n      PUSH [tag] 294\t\t\t   // dirección del contrato C...\n      JUMPI \t\t\t   // dirección del contrato C...\n      PUSH 40\t\t\t   // dirección del contrato C...\n      MLOAD \t\t\t   // dirección del contrato C...\n      SWAP2 \t\t\t   // dirección del contrato C...\n      POP \t\t\t   // dirección del contrato C...\n      PUSH 1F\t\t\t   // dirección del contrato C...\n      NOT \t\t\t   // dirección del contrato C...\n      PUSH 3F\t\t\t   // dirección del contrato C...\n      RETURNDATASIZE \t\t\t   // dirección del contrato C...\n      ADD \t\t\t   // dirección del contrato C...\n      AND \t\t\t   // dirección del contrato C...\n      DUP3 \t\t\t   // dirección del contrato C...\n      ADD \t\t\t   // dirección del contrato C...\n      PUSH 40\t\t\t   // dirección del contrato C...\n      MSTORE \t\t\t   // dirección del contrato C...\n      RETURNDATASIZE \t\t\t   // dirección del contrato C...\n      DUP3 \t\t\t   // dirección del contrato C...\n      MSTORE \t\t\t   // dirección del contrato C...\n      RETURNDATASIZE \t\t\t   // dirección del contrato C...\n      PUSH 0\t\t\t   // dirección del contrato C...\n      PUSH 20\t\t\t   // dirección del contrato C...\n      DUP5 \t\t\t   // dirección del contrato C...\n      ADD \t\t\t   // dirección del contrato C...\n      RETURNDATACOPY \t\t\t   // dirección del contrato C...\n      PUSH [tag] 293\t\t\t   // dirección del contrato C...\n      JUMP \t\t\t   // dirección del contrato C...\n    tag 294\t\t\t   // dirección del contrato C...\n      JUMPDEST \t\t\t   // dirección del contrato C...\n      PUSH 60\t\t\t   // dirección del contrato C...\n      SWAP2 \t\t\t   // dirección del contrato C...\n      POP \t\t\t   // dirección del contrato C...\n    tag 293\t\t\t   // dirección del contrato C...\n      JUMPDEST \t\t\t   // dirección del contrato C...\n      POP \t\t\t   // dirección del contrato C...\n      PUSH 0\t\t\ta\n      DUP2 \t\t\t      \n      MLOAD \t\t\t       requir\n      SUB \t\t\t       require(_ma\n      PUSH [tag] 295\t\t\t);\\n        require(_maxSupply...\n      JUMPI \t\t\t);\\n        require(_maxSupply...\n      DUP4 \t\t\tpp\n      PUSH 40\t\t\t  = initialPriceInCBO;\\n      ...\n      MLOAD \t\t\t  = initialPriceInCBO;\\n      ...\n      PUSH 64A0AE9200000000000000000000000000000000000000000000000000000000\t\t\t  = initialPriceInCBO;\\n      ...\n      DUP2 \t\t\t  = initialPriceInCBO;\\n      ...\n      MSTORE \t\t\t  = initialPriceInCBO;\\n      ...\n      PUSH 4\t\t\t  = initialPriceInCBO;\\n      ...\n      ADD \t\t\t  = initialPriceInCBO;\\n      ...\n      PUSH [tag] 296\t\t\t  = initialPriceInCBO;\\n      ...\n      SWAP2 \t\t\t  = initialPriceInCBO;\\n      ...\n      SWAP1 \t\t\t  = initialPriceInCBO;\\n      ...\n      PUSH [tag] 47\t\t\t  = initialPriceInCBO;\\n      ...\n      JUMP \t\t\t  = initialPriceInCBO;\\n      ...\n    tag 296\t\t\t  = initialPriceInCBO;\\n      ...\n      JUMPDEST \t\t\t  = initialPriceInCBO;\\n      ...\n      PUSH 40\t\t\t  = initialPriceInCBO;\\n      ...\n      MLOAD \t\t\t  = initialPriceInCBO;\\n      ...\n      DUP1 \t\t\t  = initialPriceInCBO;\\n      ...\n      SWAP2 \t\t\t  = initialPriceInCBO;\\n      ...\n      SUB \t\t\t  = initialPriceInCBO;\\n      ...\n      SWAP1 \t\t\t  = initialPriceInCBO;\\n      ...\n      REVERT \t\t\t  = initialPriceInCBO;\\n      ...\n    tag 295\t\t\t);\\n        require(_maxSupply...\n      JUMPDEST \t\t\t);\\n        require(_maxSupply...\n      DUP1 \t\t\t  }\\n\\n \n      MLOAD \t\t\tria\\n    }\\n\\n  \n      PUSH 20\t\t\t tes\n      DUP3 \t\t\ter es \n      ADD \t\t\t owner es la teso\n      REVERT \t\t\tcto, el owner es la tesoreria\\...\n    tag 289\t\t\t   // dirección del contrato C...\n      JUMPDEST \t\t\t   // dirección del contrato C...\n      PUSH 150B7A02\t\t\t   string memory baseURIInit  ...\n      PUSH E0\t\t\t   string memory baseURIInit  ...\n      SHL \t\t\t   string memory baseURIInit  ...\n      PUSH FFFFFFFFFFFFFFFFFFFFFFFFFFFFFFFFFFFFFFFFFFFFFFFFFFFFFFFF\t\t\tply,\\n        string memory ba...\n      NOT \t\t\tply,\\n        string memory ba...\n      AND \t\t\tply,\\n        string memory ba...\n      DUP2 \t\t\tply,\\n \n      PUSH FFFFFFFFFFFFFFFFFFFFFFFFFFFFFFFFFFFFFFFFFFFFFFFFFFFFFFFF\t\t\tply,\\n        string memory ba...\n      NOT \t\t\tply,\\n        string memory ba...\n      AND \t\t\tply,\\n        string memory ba...\n      EQ \t\t\tply,\\n        string memory ba...\n      PUSH [tag] 299\t\t\txSupply,\\n        string memor...\n      JUMPI \t\t\txSupply,\\n        string memor...\n      DUP4 \t\t\tbo\n      PUSH 40\t\t\tle(msg.sender) {\\n        requ...\n      MLOAD \t\t\tle(msg.sender) {\\n        requ...\n      PUSH 64A0AE9200000000000000000000000000000000000000000000000000000000\t\t\tle(msg.sender) {\\n        requ...\n      DUP2 \t\t\tle(msg.sender) {\\n        requ...\n      MSTORE \t\t\tle(msg.sender) {\\n        requ...\n      PUSH 4\t\t\tle(msg.sender) {\\n        requ...\n      ADD \t\t\tle(msg.sender) {\\n        requ...\n      PUSH [tag] 300\t\t\tle(msg.sender) {\\n        requ...\n      SWAP2 \t\t\tle(msg.sender) {\\n        requ...\n      SWAP1 \t\t\tle(msg.sender) {\\n        requ...\n      PUSH [tag] 47\t\t\tle(msg.sender) {\\n        requ...\n      JUMP \t\t\tle(msg.sender) {\\n        requ...\n    tag 300\t\t\tle(msg.sender) {\\n        requ...\n      JUMPDEST \t\t\tle(msg.sender) {\\n        requ...\n      PUSH 40\t\t\tle(msg.sender) {\\n        requ...\n      MLOAD \t\t\tle(msg.sender) {\\n        requ...\n      DUP1 \t\t\tle(msg.sender) {\\n        requ...\n      SWAP2 \t\t\tle(msg.sender) {\\n        requ...\n      SUB \t\t\tle(msg.sender) {\\n        requ...\n      SWAP1 \t\t\tle(msg.sender) {\\n        requ...\n      REVERT \t\t\tle(msg.sender) {\\n        requ...\n    tag 299\t\t\txSupply,\\n        string memor...\n      JUMPDEST \t\t\txSupply,\\n        string memor...\n      POP \t\t\tnCBO,      // ej: 3e18\\n      ...\n    tag 283\t\t\t\\n        address carbonoToken...\n      JUMPDEST \t\t\t\\n        address carbonoToken...\n      POP \t\t\t qty, uint256 paidCBO);\\n    e...\n      POP \t\t\t qty, uint256 paidCBO);\\n    e...\n      POP \t\t\t qty, uint256 paidCBO);\\n    e...\n      POP \t\t\t qty, uint256 paidCBO);\\n    e...\n      POP \t\t\t qty, uint256 paidCBO);\\n    e...\n      JUMP \t\t\t qty, uint256 paidCBO);\\n    e...\n    tag 225\t\t\t  uint256 _maxSupply,\\n       ...\n      JUMPDEST \t\t\t  uint256 _maxSupply,\\n       ...\n      PUSH 60\t\t\t      // ej: \n      PUSH 0\t\t\t21(\"Experience\n      PUSH 1\t\t\tg\n      PUSH [tag] 302\t\t\t\", \"EXP\") Ownable\n      DUP5 \t\t\twnabl\n      PUSH [tag] 303\t\t\t\", \"EXP\") \n      JUMP \t\t\t\", \"EXP\") Ownable\n    tag 302\t\t\t\", \"EXP\") Ownable\n      JUMPDEST \t\t\t\", \"EXP\") Ownable\n      ADD \t\t\t\", \"EXP\") Ownable(msg\n      SWAP1 \t\t\t21(\"Experience721\", \"EXP\") Own...\n      POP \t\t\t21(\"Experience721\", \"EXP\") Own...\n      PUSH 0\t\t\t     require(carbono\n      DUP2 \t\t\tss(0),\n      PUSH FFFFFFFFFFFFFFFF\t\t\ten != address(0), \n      DUP2 \t\t\ten != address(0), \n      GT \t\t\ten != address(0), \n      ISZERO \t\t\ten != address(0), \n      PUSH [tag] 304\t\t\ten != address(0), \n      JUMPI \t\t\ten != address(0), \n      PUSH [tag] 305\t\t\ten != address(0), \n      PUSH [tag] 306\t\t\ten != address(0), \n      JUMP \t\t\ten != address(0), \n    tag 305\t\t\ten != address(0), \n      JUMPDEST \t\t\ten != address(0), \n    tag 304\t\t\ten != address(0), \n      JUMPDEST \t\t\ten != address(0), \n      PUSH 40\t\t\ten != address(0), \n      MLOAD \t\t\ten != address(0), \n      SWAP1 \t\t\ten != address(0), \n      DUP1 \t\t\ten != address(0), \n      DUP3 \t\t\ten != address(0), \n      MSTORE \t\t\ten != address(0), \n      DUP1 \t\t\ten != address(0), \n      PUSH 1F\t\t\ten != address(0), \n      ADD \t\t\ten != address(0), \n      PUSH 1F\t\t\ten != address(0), \n      NOT \t\t\ten != address(0), \n      AND \t\t\ten != address(0), \n      PUSH 20\t\t\ten != address(0), \n      ADD \t\t\ten != address(0), \n      DUP3 \t\t\ten != address(0), \n      ADD \t\t\ten != address(0), \n      PUSH 40\t\t\ten != address(0), \n      MSTORE \t\t\ten != address(0), \n      DUP1 \t\t\ten != address(0), \n      ISZERO \t\t\ten != address(0), \n      PUSH [tag] 307\t\t\ten != address(0), \n      JUMPI \t\t\ten != address(0), \n      DUP2 \t\t\ten != address(0), \n      PUSH 20\t\t\ten != address(0), \n      ADD \t\t\ten != address(0), \n      PUSH 1\t\t\ten != address(0), \n      DUP3 \t\t\ten != address(0), \n      MUL \t\t\ten != address(0), \n      DUP1 \t\t\ten != address(0), \n      CALLDATASIZE \t\t\ten != address(0), \n      DUP4 \t\t\ten != address(0), \n      CALLDATACOPY \t\t\ten != address(0), \n      DUP1 \t\t\ten != address(0), \n      DUP3 \t\t\ten != address(0), \n      ADD \t\t\ten != address(0), \n      SWAP2 \t\t\ten != address(0), \n      POP \t\t\ten != address(0), \n      POP \t\t\ten != address(0), \n      SWAP1 \t\t\ten != address(0), \n      POP \t\t\ten != address(0), \n    tag 307\t\t\ten != address(0), \n      JUMPDEST \t\t\ten != address(0), \n      POP \t\t\ten != address(0), \n      SWAP1 \t\t\t     require(carbonoToken != a...\n      POP \t\t\t     require(carbonoToken != a...\n      PUSH 0\t\t\t    require\n      DUP3 \t\t\tcarbon\n      PUSH 20\t\t\t    \n      DUP4 \t\t\t=0\");\\n\n      ADD \t\t\t\"max=0\");\\n\\n      \n      ADD \t\t\t 0, \"max=0\");\\n\\n        carbo...\n      SWAP1 \t\t\tupply > 0, \"max=0\");\\n\\n      ...\n      POP \t\t\tupply > 0, \"max=0\");\\n\\n      ...\n    tag 308\t\t\t;\\n        priceInCBO  = initi...\n      JUMPDEST \t\t\t;\\n        priceInCBO  = initi...\n      PUSH 1\t\t\t   p\n      ISZERO \t\t\t;\\n        priceInCBO  = initi...\n      PUSH [tag] 309\t\t\t;\\n        priceInCBO  = initi...\n      JUMPI \t\t\t;\\n        priceInCBO  = initi...\n      DUP1 \t\t\tPrice\n      DUP1 \t\t\tPrice\n      PUSH 1\t\t\tPrice\n      SWAP1 \t\t\tPrice\n      SUB \t\t\tPrice\n      SWAP2 \t\t\tPrice\n      POP \t\t\tPrice\n      POP \t\t\tPrice\n      PUSH 3031323334353637383961626364656600000000000000000000000000000000\t\t\tsg.sender;\n      PUSH A\t\t\t  \n      DUP7 \t\t\tasury\n      MOD \t\t\t treasury    =\n      BYTE \t\t\t      treasury    = msg.sender...\n      DUP2 \t\t\tt;\\n\n      MSTORE8 \t\t\tseURIInit;\\n        treasury  ...\n      PUSH A\t\t\t}\\n\n      DUP6 \t\t\teria\\n    }\\n\n      DUP2 \t\t\teria\\n    }\\n\n      PUSH [tag] 310\t\t\teria\\n    }\\n\n      JUMPI \t\t\teria\\n    }\\n\n      PUSH [tag] 311\t\t\teria\\n    }\\n\n      PUSH [tag] 312\t\t\teria\\n    }\\n\n      JUMP \t\t\teria\\n    }\\n\n    tag 311\t\t\teria\\n    }\\n\n      JUMPDEST \t\t\teria\\n    }\\n\n    tag 310\t\t\teria\\n    }\\n\n      JUMPDEST \t\t\teria\\n    }\\n\n      DIV \t\t\teria\\n    }\\n\n      SWAP5 \t\t\teria\\n    }\\n\n      POP \t\t\teria\\n    }\\n\n      PUSH 0\t\t\ti\n      DUP6 \t\t\t    f\n      SUB \t\t\t    functi\n      PUSH [tag] 308\t\t\t;\\n        priceInCBO  = initi...\n      JUMPI \t\t\t---\\n    function setP\n    tag 309\t\t\t;\\n        priceInCBO  = initi...\n      JUMPDEST \t\t\t;\\n        priceInCBO  = initi...\n      DUP2 \t\t\tl only\n      SWAP4 \t\t\texternal only\n      POP \t\t\texternal only\n      POP \t\t\texternal only\n      POP \t\t\texternal only\n      POP \t\t\texternal only\n      SWAP2 \t\t\t  uint256 _maxSupply,\\n       ...\n      SWAP1 \t\t\t  uint256 _maxSupply,\\n       ...\n      POP \t\t\t  uint256 _maxSupply,\\n       ...\n      JUMP \t\t\t  uint256 _maxSupply,\\n       ...\n    tag 252\t\t\t\n      JUMPDEST \t\t\t\n      PUSH 0\t\t\t\n      PUSH 2\t\t\t\n      PUSH 0\t\t\t\n      DUP4 \t\t\t\n      DUP2 \t\t\t\n      MSTORE \t\t\t\n      PUSH 20\t\t\t\n      ADD \t\t\t\n      SWAP1 \t\t\t\n      DUP2 \t\t\t\n      MSTORE \t\t\t\n      PUSH 20\t\t\t\n      ADD \t\t\t\n      PUSH 0\t\t\t\n      KECCAK256 \t\t\t\n      PUSH 0\t\t\t\n      SWAP1 \t\t\t\n      SLOAD \t\t\t\n      SWAP1 \t\t\t\n      PUSH 100\t\t\t\n      EXP \t\t\t\n      SWAP1 \t\t\t\n      DIV \t\t\t\n      PUSH FFFFFFFFFFFFFFFFFFFFFFFFFFFFFFFFFFFFFFFF\t\t\t\n      AND \t\t\t\n      SWAP1 \t\t\t\n      POP \t\t\t\n      SWAP2 \t\t\t\n      SWAP1 \t\t\t\n      POP \t\t\t\n      JUMP \t\t\t\n    tag 259\t\t\t\n      JUMPDEST \t\t\t\n      DUP1 \t\t\t\n      DUP1 \t\t\t\n      PUSH [tag] 316\t\t\t\n      JUMPI \t\t\t\n      POP \t\t\t\n      PUSH 0\t\t\t\n      PUSH FFFFFFFFFFFFFFFFFFFFFFFFFFFFFFFFFFFFFFFF\t\t\t\n      AND \t\t\t\n      DUP3 \t\t\t\n      PUSH FFFFFFFFFFFFFFFFFFFFFFFFFFFFFFFFFFFFFFFF\t\t\t\n      AND \t\t\t\n      EQ \t\t\t\n      ISZERO \t\t\t\n    tag 316\t\t\t\n      JUMPDEST \t\t\t\n      ISZERO \t\t\t\n      PUSH [tag] 317\t\t\t\n      JUMPI \t\t\t\n      PUSH 0\t\t\t\n      PUSH [tag] 318\t\t\t\n      DUP5 \t\t\t\n      PUSH [tag] 140\t\t\t\n      JUMP \t\t\t\n    tag 318\t\t\t\n      JUMPDEST \t\t\t\n      SWAP1 \t\t\t\n      POP \t\t\t\n      PUSH 0\t\t\t\n      PUSH FFFFFFFFFFFFFFFFFFFFFFFFFFFFFFFFFFFFFFFF\t\t\t\n      AND \t\t\t\n      DUP4 \t\t\t\n      PUSH FFFFFFFFFFFFFFFFFFFFFFFFFFFFFFFFFFFFFFFF\t\t\t\n      AND \t\t\t\n      EQ \t\t\t\n      ISZERO \t\t\t\n      DUP1 \t\t\t\n      ISZERO \t\t\t\n      PUSH [tag] 319\t\t\t\n      JUMPI \t\t\t\n      POP \t\t\t\n      DUP3 \t\t\t\n      PUSH FFFFFFFFFFFFFFFFFFFFFFFFFFFFFFFFFFFFFFFF\t\t\t\n      AND \t\t\t\n      DUP2 \t\t\t\n      PUSH FFFFFFFFFFFFFFFFFFFFFFFFFFFFFFFFFFFFFFFF\t\t\t\n      AND \t\t\t\n      EQ \t\t\t\n      ISZERO \t\t\t\n    tag 319\t\t\t\n      JUMPDEST \t\t\t\n      DUP1 \t\t\t\n      ISZERO \t\t\t\n      PUSH [tag] 320\t\t\t\n      JUMPI \t\t\t\n      POP \t\t\t\n      PUSH [tag] 321\t\t\t\n      DUP2 \t\t\t\n      DUP5 \t\t\t\n      PUSH [tag] 115\t\t\t\n      JUMP \t\t\t\n    tag 321\t\t\t\n      JUMPDEST \t\t\t\n      ISZERO \t\t\t\n    tag 320\t\t\t\n      JUMPDEST \t\t\t\n      ISZERO \t\t\t\n      PUSH [tag] 322\t\t\t\n      JUMPI \t\t\t\n      DUP3 \t\t\t\n      PUSH 40\t\t\t\n      MLOAD \t\t\t\n      PUSH A9FBF51F00000000000000000000000000000000000000000000000000000000\t\t\t\n      DUP2 \t\t\t\n      MSTORE \t\t\t\n      PUSH 4\t\t\t\n      ADD \t\t\t\n      PUSH [tag] 323\t\t\t\n      SWAP2 \t\t\t\n      SWAP1 \t\t\t\n      PUSH [tag] 47\t\t\t\n      JUMP \t\t\t\n    tag 323\t\t\t\n      JUMPDEST \t\t\t\n      PUSH 40\t\t\t\n      MLOAD \t\t\t\n      DUP1 \t\t\t\n      SWAP2 \t\t\t\n      SUB \t\t\t\n      SWAP1 \t\t\t\n      REVERT \t\t\t\n    tag 322\t\t\t\n      JUMPDEST \t\t\t\n      DUP2 \t\t\t\n      ISZERO \t\t\t\n      PUSH [tag] 324\t\t\t\n      JUMPI \t\t\t\n      DUP4 \t\t\t\n      DUP6 \t\t\t\n      PUSH FFFFFFFFFFFFFFFFFFFFFFFFFFFFFFFFFFFFFFFF\t\t\t\n      AND \t\t\t\n      DUP3 \t\t\t\n      PUSH FFFFFFFFFFFFFFFFFFFFFFFFFFFFFFFFFFFFFFFF\t\t\t\n      AND \t\t\t\n      PUSH 8C5BE1E5EBEC7D5BD14F71427D1E84F3DD0314C0F7B2291E5B200AC8C7C3B925\t\t\t\n      PUSH 40\t\t\t\n      MLOAD \t\t\t\n      PUSH 40\t\t\t\n      MLOAD \t\t\t\n      DUP1 \t\t\t\n      SWAP2 \t\t\t\n      SUB \t\t\t\n      SWAP1 \t\t\t\n      LOG4 \t\t\t\n    tag 324\t\t\t\n      JUMPDEST \t\t\t\n      POP \t\t\t\n    tag 317\t\t\t\n      JUMPDEST \t\t\t\n      DUP4 \t\t\t\n      PUSH 4\t\t\t\n      PUSH 0\t\t\t\n      DUP6 \t\t\t\n      DUP2 \t\t\t\n      MSTORE \t\t\t\n      PUSH 20\t\t\t\n      ADD \t\t\t\n      SWAP1 \t\t\t\n      DUP2 \t\t\t\n      MSTORE \t\t\t\n      PUSH 20\t\t\t\n      ADD \t\t\t\n      PUSH 0\t\t\t\n      KECCAK256 \t\t\t\n      PUSH 0\t\t\t\n      PUSH 100\t\t\t\n      EXP \t\t\t\n      DUP2 \t\t\t\n      SLOAD \t\t\t\n      DUP2 \t\t\t\n      PUSH FFFFFFFFFFFFFFFFFFFFFFFFFFFFFFFFFFFFFFFF\t\t\t\n      MUL \t\t\t\n      NOT \t\t\t\n      AND \t\t\t\n      SWAP1 \t\t\t\n      DUP4 \t\t\t\n      PUSH FFFFFFFFFFFFFFFFFFFFFFFFFFFFFFFFFFFFFFFF\t\t\t\n      AND \t\t\t\n      MUL \t\t\t\n      OR \t\t\t\n      SWAP1 \t\t\t\n      SSTORE \t\t\t\n      POP \t\t\t\n      POP \t\t\t\n      POP \t\t\t\n      POP \t\t\t\n      POP \t\t\t\n      JUMP \t\t\t\n    tag 264\t\t\t\n      JUMPDEST \t\t\t\n      PUSH [tag] 326\t\t\t\n      DUP4 \t\t\t\n      DUP4 \t\t\t\n      DUP4 \t\t\t\n      PUSH [tag] 327\t\t\t\n      JUMP \t\t\t\n    tag 326\t\t\t\n      JUMPDEST \t\t\t\n      PUSH [tag] 328\t\t\t\n      JUMPI \t\t\t\n      PUSH 0\t\t\t\n      PUSH FFFFFFFFFFFFFFFFFFFFFFFFFFFFFFFFFFFFFFFF\t\t\t\n      AND \t\t\t\n      DUP4 \t\t\t\n      PUSH FFFFFFFFFFFFFFFFFFFFFFFFFFFFFFFFFFFFFFFF\t\t\t\n      AND \t\t\t\n      SUB \t\t\t\n      PUSH [tag] 329\t\t\t\n      JUMPI \t\t\t\n      DUP1 \t\t\t\n      PUSH 40\t\t\t\n      MLOAD \t\t\t\n      PUSH 7E27328900000000000000000000000000000000000000000000000000000000\t\t\t\n      DUP2 \t\t\t\n      MSTORE \t\t\t\n      PUSH 4\t\t\t\n      ADD \t\t\t\n      PUSH [tag] 330\t\t\t\n      SWAP2 \t\t\t\n      SWAP1 \t\t\t\n      PUSH [tag] 55\t\t\t\n      JUMP \t\t\t\n    tag 330\t\t\t\n      JUMPDEST \t\t\t\n      PUSH 40\t\t\t\n      MLOAD \t\t\t\n      DUP1 \t\t\t\n      SWAP2 \t\t\t\n      SUB \t\t\t\n      SWAP1 \t\t\t\n      REVERT \t\t\t\n    tag 329\t\t\t\n      JUMPDEST \t\t\t\n      DUP2 \t\t\t\n      DUP2 \t\t\t\n      PUSH 40\t\t\t\n      MLOAD \t\t\t\n      PUSH 177E802F00000000000000000000000000000000000000000000000000000000\t\t\t\n      DUP2 \t\t\t\n      MSTORE \t\t\t\n      PUSH 4\t\t\t\n      ADD \t\t\t\n      PUSH [tag] 332\t\t\t\n      SWAP3 \t\t\t\n      SWAP2 \t\t\t\n      SWAP1 \t\t\t\n      PUSH [tag] 333\t\t\t\n      JUMP \t\t\t\n    tag 332\t\t\t\n      JUMPDEST \t\t\t\n      PUSH 40\t\t\t\n      MLOAD \t\t\t\n      DUP1 \t\t\t\n      SWAP2 \t\t\t\n      SUB \t\t\t\n      SWAP1 \t\t\t\n      REVERT \t\t\t\n    tag 328\t\t\t\n      JUMPDEST \t\t\t\n      POP \t\t\t\n      POP \t\t\t\n      POP \t\t\t\n      JUMP \t\t\t\n    tag 277\t\t\t\n      JUMPDEST \t\t\t\n      PUSH [tag] 335\t\t\t\n      DUP4 \t\t\t\n      DUP4 \t\t\t\n      PUSH [tag] 336\t\t\t\n      JUMP \t\t\t\n    tag 335\t\t\t\n      JUMPDEST \t\t\t\n      PUSH [tag] 337\t\t\t\n      PUSH [tag] 338\t\t\t\n      PUSH [tag] 146\t\t\t\n      JUMP \t\t\t\n    tag 338\t\t\t\n      JUMPDEST \t\t\t\n      PUSH 0\t\t\t\n      DUP6 \t\t\t\n      DUP6 \t\t\t\n      DUP6 \t\t\t\n      PUSH [tag] 221\t\t\t\n      JUMP \t\t\t\n    tag 337\t\t\t\n      JUMPDEST \t\t\t\n      POP \t\t\t\n      POP \t\t\t\n      POP \t\t\t\n      JUMP \t\t\t\n    tag 303\t\t\t\n      JUMPDEST \t\t\t\n      PUSH 0\t\t\t\n      PUSH 0\t\t\t\n      PUSH 0\t\t\t\n      SWAP1 \t\t\t\n      POP \t\t\t\n      PUSH 184F03E93FF9F4DAA797ED6E38ED64BF6A1F010000000000000000\t\t\t\n      DUP4 \t\t\t\n      LT \t\t\t\n      PUSH [tag] 340\t\t\t\n      JUMPI \t\t\t\n      PUSH 184F03E93FF9F4DAA797ED6E38ED64BF6A1F010000000000000000\t\t\t\n      DUP4 \t\t\t\n      DUP2 \t\t\t\n      PUSH [tag] 341\t\t\t\n      JUMPI \t\t\t\n      PUSH [tag] 342\t\t\t\n      PUSH [tag] 312\t\t\t\n      JUMP \t\t\t\n    tag 342\t\t\t\n      JUMPDEST \t\t\t\n    tag 341\t\t\t\n      JUMPDEST \t\t\t\n      DIV \t\t\t\n      SWAP3 \t\t\t\n      POP \t\t\t\n      PUSH 40\t\t\t\n      DUP2 \t\t\t\n      ADD \t\t\t\n      SWAP1 \t\t\t\n      POP \t\t\t\n    tag 340\t\t\t\n      JUMPDEST \t\t\t\n      PUSH 4EE2D6D415B85ACEF8100000000\t\t\t\n      DUP4 \t\t\t\n      LT \t\t\t\n      PUSH [tag] 343\t\t\t\n      JUMPI \t\t\t\n      PUSH 4EE2D6D415B85ACEF8100000000\t\t\t\n      DUP4 \t\t\t\n      DUP2 \t\t\t\n      PUSH [tag] 344\t\t\t\n      JUMPI \t\t\t\n      PUSH [tag] 345\t\t\t\n      PUSH [tag] 312\t\t\t\n      JUMP \t\t\t\n    tag 345\t\t\t\n      JUMPDEST \t\t\t\n    tag 344\t\t\t\n      JUMPDEST \t\t\t\n      DIV \t\t\t\n      SWAP3 \t\t\t\n      POP \t\t\t\n      PUSH 20\t\t\t\n      DUP2 \t\t\t\n      ADD \t\t\t\n      SWAP1 \t\t\t\n      POP \t\t\t\n    tag 343\t\t\t\n      JUMPDEST \t\t\t\n      PUSH 2386F26FC10000\t\t\t\n      DUP4 \t\t\t\n      LT \t\t\t\n      PUSH [tag] 346\t\t\t\n      JUMPI \t\t\t\n      PUSH 2386F26FC10000\t\t\t\n      DUP4 \t\t\t\n      DUP2 \t\t\t\n      PUSH [tag] 347\t\t\t\n      JUMPI \t\t\t\n      PUSH [tag] 348\t\t\t\n      PUSH [tag] 312\t\t\t\n      JUMP \t\t\t\n    tag 348\t\t\t\n      JUMPDEST \t\t\t\n    tag 347\t\t\t\n      JUMPDEST \t\t\t\n      DIV \t\t\t\n      SWAP3 \t\t\t\n      POP \t\t\t\n      PUSH 10\t\t\t\n      DUP2 \t\t\t\n      ADD \t\t\t\n      SWAP1 \t\t\t\n      POP \t\t\t\n    tag 346\t\t\t\n      JUMPDEST \t\t\t\n      PUSH 5F5E100\t\t\t\n      DUP4 \t\t\t\n      LT \t\t\t\n      PUSH [tag] 349\t\t\t\n      JUMPI \t\t\t\n      PUSH 5F5E100\t\t\t\n      DUP4 \t\t\t\n      DUP2 \t\t\t\n      PUSH [tag] 350\t\t\t\n      JUMPI \t\t\t\n      PUSH [tag] 351\t\t\t\n      PUSH [tag] 312\t\t\t\n      JUMP \t\t\t\n    tag 351\t\t\t\n      JUMPDEST \t\t\t\n    tag 350\t\t\t\n      JUMPDEST \t\t\t\n      DIV \t\t\t\n      SWAP3 \t\t\t\n      POP \t\t\t\n      PUSH 8\t\t\t\n      DUP2 \t\t\t\n      ADD \t\t\t\n      SWAP1 \t\t\t\n      POP \t\t\t\n    tag 349\t\t\t\n      JUMPDEST \t\t\t\n      PUSH 2710\t\t\t\n      DUP4 \t\t\t\n      LT \t\t\t\n      PUSH [tag] 352\t\t\t\n      JUMPI \t\t\t\n      PUSH 2710\t\t\t\n      DUP4 \t\t\t\n      DUP2 \t\t\t\n      PUSH [tag] 353\t\t\t\n      JUMPI \t\t\t\n      PUSH [tag] 354\t\t\t\n      PUSH [tag] 312\t\t\t\n      JUMP \t\t\t\n    tag 354\t\t\t\n      JUMPDEST \t\t\t\n    tag 353\t\t\t\n      JUMPDEST \t\t\t\n      DIV \t\t\t\n      SWAP3 \t\t\t\n      POP \t\t\t\n      PUSH 4\t\t\t\n      DUP2 \t\t\t\n      ADD \t\t\t\n      SWAP1 \t\t\t\n      POP \t\t\t\n    tag 352\t\t\t\n      JUMPDEST \t\t\t\n      PUSH 64\t\t\t\n      DUP4 \t\t\t\n      LT \t\t\t\n      PUSH [tag] 355\t\t\t\n      JUMPI \t\t\t\n      PUSH 64\t\t\t\n      DUP4 \t\t\t\n      DUP2 \t\t\t\n      PUSH [tag] 356\t\t\t\n      JUMPI \t\t\t\n      PUSH [tag] 357\t\t\t\n      PUSH [tag] 312\t\t\t\n      JUMP \t\t\t\n    tag 357\t\t\t\n      JUMPDEST \t\t\t\n    tag 356\t\t\t\n      JUMPDEST \t\t\t\n      DIV \t\t\t\n      SWAP3 \t\t\t\n      POP \t\t\t\n      PUSH 2\t\t\t\n      DUP2 \t\t\t\n      ADD \t\t\t\n      SWAP1 \t\t\t\n      POP \t\t\t\n    tag 355\t\t\t\n      JUMPDEST \t\t\t\n      PUSH A\t\t\t\n      DUP4 \t\t\t\n      LT \t\t\t\n      PUSH [tag] 358\t\t\t\n      JUMPI \t\t\t\n      PUSH 1\t\t\t\n      DUP2 \t\t\t\n      ADD \t\t\t\n      SWAP1 \t\t\t\n      POP \t\t\t\n    tag 358\t\t\t\n      JUMPDEST \t\t\t\n      DUP1 \t\t\t\n      SWAP2 \t\t\t\n      POP \t\t\t\n      POP \t\t\t\n      SWAP2 \t\t\t\n      SWAP1 \t\t\t\n      POP \t\t\t\n      JUMP \t\t\t\n    tag 327\t\t\t\n      JUMPDEST \t\t\t\n      PUSH 0\t\t\t\n      PUSH 0\t\t\t\n      PUSH FFFFFFFFFFFFFFFFFFFFFFFFFFFFFFFFFFFFFFFF\t\t\t\n      AND \t\t\t\n      DUP4 \t\t\t\n      PUSH FFFFFFFFFFFFFFFFFFFFFFFFFFFFFFFFFFFFFFFF\t\t\t\n      AND \t\t\t\n      EQ \t\t\t\n      ISZERO \t\t\t\n      DUP1 \t\t\t\n      ISZERO \t\t\t\n      PUSH [tag] 360\t\t\t\n      JUMPI \t\t\t\n      POP \t\t\t\n      DUP3 \t\t\t\n      PUSH FFFFFFFFFFFFFFFFFFFFFFFFFFFFFFFFFFFFFFFF\t\t\t\n      AND \t\t\t\n      DUP5 \t\t\t\n      PUSH FFFFFFFFFFFFFFFFFFFFFFFFFFFFFFFFFFFFFFFF\t\t\t\n      AND \t\t\t\n      EQ \t\t\t\n      DUP1 \t\t\t\n      PUSH [tag] 361\t\t\t\n      JUMPI \t\t\t\n      POP \t\t\t\n      PUSH [tag] 362\t\t\t\n      DUP5 \t\t\t\n      DUP5 \t\t\t\n      PUSH [tag] 115\t\t\t\n      JUMP \t\t\t\n    tag 362\t\t\t\n      JUMPDEST \t\t\t\n    tag 361\t\t\t\n      JUMPDEST \t\t\t\n      DUP1 \t\t\t\n      PUSH [tag] 363\t\t\t\n      JUMPI \t\t\t\n      POP \t\t\t\n      DUP3 \t\t\t\n      PUSH FFFFFFFFFFFFFFFFFFFFFFFFFFFFFFFFFFFFFFFF\t\t\t\n      AND \t\t\t\n      PUSH [tag] 364\t\t\t\n      DUP4 \t\t\t\n      PUSH [tag] 142\t\t\t\n      JUMP \t\t\t\n    tag 364\t\t\t\n      JUMPDEST \t\t\t\n      PUSH FFFFFFFFFFFFFFFFFFFFFFFFFFFFFFFFFFFFFFFF\t\t\t\n      AND \t\t\t\n      EQ \t\t\t\n    tag 363\t\t\t\n      JUMPDEST \t\t\t\n    tag 360\t\t\t\n      JUMPDEST \t\t\t\n      SWAP1 \t\t\t\n      POP \t\t\t\n      SWAP4 \t\t\t\n      SWAP3 \t\t\t\n      POP \t\t\t\n      POP \t\t\t\n      POP \t\t\t\n      JUMP \t\t\t\n    tag 336\t\t\t\n      JUMPDEST \t\t\t\n      PUSH 0\t\t\t\n      PUSH FFFFFFFFFFFFFFFFFFFFFFFFFFFFFFFFFFFFFFFF\t\t\t\n      AND \t\t\t\n      DUP3 \t\t\t\n      PUSH FFFFFFFFFFFFFFFFFFFFFFFFFFFFFFFFFFFFFFFF\t\t\t\n      AND \t\t\t\n      SUB \t\t\t\n      PUSH [tag] 366\t\t\t\n      JUMPI \t\t\t\n      PUSH 0\t\t\t\n      PUSH 40\t\t\t\n      MLOAD \t\t\t\n      PUSH 64A0AE9200000000000000000000000000000000000000000000000000000000\t\t\t\n      DUP2 \t\t\t\n      MSTORE \t\t\t\n      PUSH 4\t\t\t\n      ADD \t\t\t\n      PUSH [tag] 367\t\t\t\n      SWAP2 \t\t\t\n      SWAP1 \t\t\t\n      PUSH [tag] 47\t\t\t\n      JUMP \t\t\t\n    tag 367\t\t\t\n      JUMPDEST \t\t\t\n      PUSH 40\t\t\t\n      MLOAD \t\t\t\n      DUP1 \t\t\t\n      SWAP2 \t\t\t\n      SUB \t\t\t\n      SWAP1 \t\t\t\n      REVERT \t\t\t\n    tag 366\t\t\t\n      JUMPDEST \t\t\t\n      PUSH 0\t\t\t\n      PUSH [tag] 368\t\t\t\n      DUP4 \t\t\t\n      DUP4 \t\t\t\n      PUSH 0\t\t\t\n      PUSH [tag] 153\t\t\t\n      JUMP \t\t\t\n    tag 368\t\t\t\n      JUMPDEST \t\t\t\n      SWAP1 \t\t\t\n      POP \t\t\t\n      PUSH 0\t\t\t\n      PUSH FFFFFFFFFFFFFFFFFFFFFFFFFFFFFFFFFFFFFFFF\t\t\t\n      AND \t\t\t\n      DUP2 \t\t\t\n      PUSH FFFFFFFFFFFFFFFFFFFFFFFFFFFFFFFFFFFFFFFF\t\t\t\n      AND \t\t\t\n      EQ \t\t\t\n      PUSH [tag] 369\t\t\t\n      JUMPI \t\t\t\n      PUSH 0\t\t\t\n      PUSH 40\t\t\t\n      MLOAD \t\t\t\n      PUSH 73C6AC6E00000000000000000000000000000000000000000000000000000000\t\t\t\n      DUP2 \t\t\t\n      MSTORE \t\t\t\n      PUSH 4\t\t\t\n      ADD \t\t\t\n      PUSH [tag] 370\t\t\t\n      SWAP2 \t\t\t\n      SWAP1 \t\t\t\n      PUSH [tag] 47\t\t\t\n      JUMP \t\t\t\n    tag 370\t\t\t\n      JUMPDEST \t\t\t\n      PUSH 40\t\t\t\n      MLOAD \t\t\t\n      DUP1 \t\t\t\n      SWAP2 \t\t\t\n      SUB \t\t\t\n      SWAP1 \t\t\t\n      REVERT \t\t\t\n    tag 369\t\t\t\n      JUMPDEST \t\t\t\n      POP \t\t\t\n      POP \t\t\t\n      POP \t\t\t\n      JUMP \t\t\t\n    tag 371\t\t\t-License-Identifier: MIT\\n// C...\n      JUMPDEST \t\t\t-License-Identifier: MIT\\n// C...\n      PUSH 0\t\t\ttible \n      PUSH 40\t\t\t^5\n      MLOAD \t\t\tracts ^5.\n      SWAP1 \t\t\tpelin Contracts ^5.\n      POP \t\t\tpelin Contracts ^5.\n      SWAP1 \t\t\t-License-Identifier: MIT\\n// C...\n      JUMP \t\t\t-License-Identifier: MIT\\n// C...\n    tag 372\t\t\tolidity ^0.8.27;\\n\\nimport {ER...\n      JUMPDEST \t\t\tolidity ^0.8.27;\\n\\nimport {ER...\n      PUSH 0\t\t\to\n      PUSH 0\t\t\t \n      REVERT \t\t\twnable} from\n    tag 373\t\t\tlin/contracts/access/Ownable.s...\n      JUMPDEST \t\t\tlin/contracts/access/Ownable.s...\n      PUSH 0\t\t\to\n      PUSH 0\t\t\ti\n      REVERT \t\t\t.sol\";\\nimpor\n    tag 374\t\t\tfrom \"@openzeppelin/contracts/...\n      JUMPDEST \t\t\tfrom \"@openzeppelin/contracts/...\n      PUSH 0\t\t\tStrings\n      PUSH FFFFFFFF00000000000000000000000000000000000000000000000000000000\t\t\t21 (EXP)\\n * @notice NFT que s...\n      DUP3 \t\t\trienc\n      AND \t\t\tExperience721 (EXP)\\n * @notic...\n      SWAP1 \t\t\t\\n * @title Experience721 (EXP...\n      POP \t\t\t\\n * @title Experience721 (EXP...\n      SWAP2 \t\t\tfrom \"@openzeppelin/contracts/...\n      SWAP1 \t\t\tfrom \"@openzeppelin/contracts/...\n      POP \t\t\tfrom \"@openzeppelin/contracts/...\n      JUMP \t\t\tfrom \"@openzeppelin/contracts/...\n    tag 375\t\t\tunta directamente a una imagen...\n      JUMPDEST \t\t\tunta directamente a una imagen...\n      PUSH [tag] 453\t\t\tI + id + \".png\"\\n */\\ncon\n      DUP2 \t\t\t*/\\nco\n      PUSH [tag] 374\t\t\tI + id + \".png\"\\n */\\ncon\n      JUMP \t\t\tI + id + \".png\"\\n */\\ncon\n    tag 453\t\t\tI + id + \".png\"\\n */\\ncon\n      JUMPDEST \t\t\tI + id + \".png\"\\n */\\ncon\n      DUP2 \t\t\t base\n      EQ \t\t\t) = baseURI + id + \".png\"\\n */...\n      PUSH [tag] 454\t\t\tokenURI(id) = baseURI + id + \"...\n      JUMPI \t\t\tokenURI(id) = baseURI + id + \"...\n      PUSH 0\t\t\te\n      PUSH 0\t\t\te\n      REVERT \t\t\t Experience7\n    tag 454\t\t\tokenURI(id) = baseURI + id + \"...\n      JUMPDEST \t\t\tokenURI(id) = baseURI + id + \"...\n      POP \t\t\tunta directamente a una imagen...\n      JUMP \t\t\tunta directamente a una imagen...\n    tag 376\t\t\tOwnable {\\n    IERC20 public i...\n      JUMPDEST \t\t\tOwnable {\\n    IERC20 public i...\n      PUSH 0\t\t\t;   /\n      DUP2 \t\t\ts publ\n      CALLDATALOAD \t\t\tar\\n    address publi\n      SWAP1 \t\t\t para pagar\\n    address publi\n      POP \t\t\t para pagar\\n    address publi\n      PUSH [tag] 456\t\t\ty;           // Recibe CBO cob...\n      DUP2 \t\t\t cobr\n      PUSH [tag] 375\t\t\ty;           // Recibe CBO cob...\n      JUMP \t\t\ty;           // Recibe CBO cob...\n    tag 456\t\t\ty;           // Recibe CBO cob...\n      JUMPDEST \t\t\ty;           // Recibe CBO cob...\n      SWAP3 \t\t\tOwnable {\\n    IERC20 public i...\n      SWAP2 \t\t\tOwnable {\\n    IERC20 public i...\n      POP \t\t\tOwnable {\\n    IERC20 public i...\n      POP \t\t\tOwnable {\\n    IERC20 public i...\n      JUMP \t\t\tOwnable {\\n    IERC20 public i...\n    tag 34\t\t\t256 public priceInCBO;        ...\n      JUMPDEST \t\t\t256 public priceInCBO;        ...\n      PUSH 0\t\t\tBO)\\n  \n      PUSH 20\t\t\tli\n      DUP3 \t\t\t uint256 \n      DUP5 \t\t\tpply;\\n \n      SUB \t\t\taxSupply;\\n    uint256 p\n      SLT \t\t\tic maxSupply;\\n    uint256 pub...\n      ISZERO \t\t\tublic maxSupply;\\n    uint256 ...\n      PUSH [tag] 458\t\t\tublic maxSupply;\\n    uint256 ...\n      JUMPI \t\t\tublic maxSupply;\\n    uint256 ...\n      PUSH [tag] 459\t\t\ttalSupply;\\n    string  privat...\n      PUSH [tag] 372\t\t\ttalSupply;\\n    string  privat...\n      JUMP \t\t\ttalSupply;\\n    string  privat...\n    tag 459\t\t\ttalSupply;\\n    string  privat...\n      JUMPDEST \t\t\ttalSupply;\\n    string  privat...\n    tag 458\t\t\tublic maxSupply;\\n    uint256 ...\n      JUMPDEST \t\t\tublic maxSupply;\\n    uint256 ...\n      PUSH 0\t\t\t5\n      PUSH [tag] 460\t\t\t\\n    event PriceChanged(uint2...\n      DUP5 \t\t\t   even\n      DUP3 \t\t\tPrice)\n      DUP6 \t\t\tuint256 n\n      ADD \t\t\tged(uint256 newPrice);\n      PUSH [tag] 376\t\t\t\\n    event PriceChanged(uint2...\n      JUMP \t\t\t\\n    event PriceChanged(uint2...\n    tag 460\t\t\t\\n    event PriceChanged(uint2...\n      JUMPDEST \t\t\t\\n    event PriceChanged(uint2...\n      SWAP2 \t\t\t paidCBO);\\n    event PriceCha...\n      POP \t\t\t paidCBO);\\n    event PriceCha...\n      POP \t\t\t(address indexed buyer, uint25...\n      SWAP3 \t\t\t256 public priceInCBO;        ...\n      SWAP2 \t\t\t256 public priceInCBO;        ...\n      POP \t\t\t256 public priceInCBO;        ...\n      POP \t\t\t256 public priceInCBO;        ...\n      JUMP \t\t\t256 public priceInCBO;        ...\n    tag 377\t\t\ts newTreasury);\\n    event Bas...\n      JUMPDEST \t\t\ts newTreasury);\\n    event Bas...\n      PUSH 0\t\t\thanged(\n      DUP2 \t\t\t(\\n   \n      ISZERO \t\t\ttructor(\\n    \n      ISZERO \t\t\t   constructor(\\n     \n      SWAP1 \t\t\taseURI);\\n\\n    constructor(\\n...\n      POP \t\t\taseURI);\\n\\n    constructor(\\n...\n      SWAP2 \t\t\ts newTreasury);\\n    event Bas...\n      SWAP1 \t\t\ts newTreasury);\\n    event Bas...\n      POP \t\t\ts newTreasury);\\n    event Bas...\n      JUMP \t\t\ts newTreasury);\\n    event Bas...\n    tag 378\t\t\tarbonoToken,           // dire...\n      JUMPDEST \t\t\tarbonoToken,           // dire...\n      PUSH [tag] 463\t\t\titialPriceInCBO,     \n      DUP2 \t\t\t,    \n      PUSH [tag] 377\t\t\titialPriceInCBO,     \n      JUMP \t\t\titialPriceInCBO,     \n    tag 463\t\t\titialPriceInCBO,     \n      JUMPDEST \t\t\titialPriceInCBO,     \n      DUP3 \t\t\t56 \n      MSTORE \t\t\t  uint256 initialPriceInCBO,  ...\n      POP \t\t\tarbonoToken,           // dire...\n      POP \t\t\tarbonoToken,           // dire...\n      JUMP \t\t\tarbonoToken,           // dire...\n    tag 37\t\t\t        uint256 _maxSupply,\\n ...\n      JUMPDEST \t\t\t        uint256 _maxSupply,\\n ...\n      PUSH 0\t\t\t/ipf\n      PUSH 20\t\t\t72\n      DUP3 \t\t\t\"Experien\n      ADD \t\t\t721(\"Experience721\n      SWAP1 \t\t\t   ) ERC721(\"Experience721\n      POP \t\t\t   ) ERC721(\"Experience721\n      PUSH [tag] 465\t\t\tOwnable(msg.sender) {\\n       ...\n      PUSH 0\t\t\t0\n      DUP4 \t\t\t!= addres\n      ADD \t\t\tken != address(0)\n      DUP5 \t\t\tcarbon\n      PUSH [tag] 378\t\t\tOwnable(msg.sender) {\\n       ...\n      JUMP \t\t\tOwnable(msg.sender) {\\n       ...\n    tag 465\t\t\tOwnable(msg.sender) {\\n       ...\n      JUMPDEST \t\t\tOwnable(msg.sender) {\\n       ...\n      SWAP3 \t\t\t        uint256 _maxSupply,\\n ...\n      SWAP2 \t\t\t        uint256 _maxSupply,\\n ...\n      POP \t\t\t        uint256 _maxSupply,\\n ...\n      POP \t\t\t        uint256 _maxSupply,\\n ...\n      JUMP \t\t\t        uint256 _maxSupply,\\n ...\n    tag 379\t\t\t      require(initialPriceInCB...\n      JUMPDEST \t\t\t      require(initialPriceInCB...\n      PUSH 0\t\t\t     r\n      DUP2 \t\t\t0\");\\n\n      MLOAD \t\t\t \"max=0\");\\n\\n\n      SWAP1 \t\t\tupply > 0, \"max=0\");\\n\\n\n      POP \t\t\tupply > 0, \"max=0\");\\n\\n\n      SWAP2 \t\t\t      require(initialPriceInCB...\n      SWAP1 \t\t\t      require(initialPriceInCB...\n      POP \t\t\t      require(initialPriceInCB...\n      JUMP \t\t\t      require(initialPriceInCB...\n    tag 380\t\t\tno     = IERC20(carbonoToken);...\n      JUMPDEST \t\t\tno     = IERC20(carbonoToken);...\n      PUSH 0\t\t\tupply   = _\n      DUP3 \t\t\tURI_  \n      DUP3 \t\t\t ba\n      MSTORE \t\t\t        baseURI_   \n      PUSH 20\t\t\t   =\n      DUP3 \t\t\tsur\n      ADD \t\t\ttreasury    = \n      SWAP1 \t\t\tIInit;\\n        treasury    = \n      POP \t\t\tIInit;\\n        treasury    = \n      SWAP3 \t\t\tno     = IERC20(carbonoToken);...\n      SWAP2 \t\t\tno     = IERC20(carbonoToken);...\n      POP \t\t\tno     = IERC20(carbonoToken);...\n      POP \t\t\tno     = IERC20(carbonoToken);...\n      JUMP \t\t\tno     = IERC20(carbonoToken);...\n    tag 381\t\t\t// por defecto, el owner es la...\n      JUMPDEST \t\t\t// por defecto, el owner es la...\n      DUP3 \t\t\teInCBO\n      DUP2 \t\t\ttPr\n      DUP4 \t\t\ton \n      MCOPY \t\t\tfunction setPriceInCBO(\n      PUSH 0\t\t\te\n      DUP4 \t\t\tl only\n      DUP4 \t\t\tter\n      ADD \t\t\t) external onlyO\n      MSTORE \t\t\tewPrice) external onlyOwner\n      POP \t\t\t// por defecto, el owner es la...\n      POP \t\t\t// por defecto, el owner es la...\n      POP \t\t\t// por defecto, el owner es la...\n      JUMP \t\t\t// por defecto, el owner es la...\n    tag 382\t\t\tquire(newPrice > 0, \"price=0\")...\n      JUMPDEST \t\t\tquire(newPrice > 0, \"price=0\")...\n      PUSH 0\t\t\triceIn\n      PUSH 1F\t\t\tPr\n      NOT \t\t\t(newPri\n      PUSH 1F\t\t\tan\n      DUP4 \t\t\tPrice\n      ADD \t\t\tmit PriceChang\n      AND \t\t\t   emit PriceChanged(newPric\n      SWAP1 \t\t\tice;\\n        emit PriceChange...\n      POP \t\t\tice;\\n        emit PriceChange...\n      SWAP2 \t\t\tquire(newPrice > 0, \"price=0\")...\n      SWAP1 \t\t\tquire(newPrice > 0, \"price=0\")...\n      POP \t\t\tquire(newPrice > 0, \"price=0\")...\n      JUMP \t\t\tquire(newPrice > 0, \"price=0\")...\n    tag 383\t\t\t   function setTreasury(addres...\n      JUMPDEST \t\t\t   function setTreasury(addres...\n      PUSH 0\t\t\tasu\n      PUSH [tag] 471\t\t\try=0\");\\n        treasury = ne...\n      DUP3 \t\t\tasury\n      PUSH [tag] 379\t\t\try=0\");\\n        treasury = ne...\n      JUMP \t\t\try=0\");\\n        treasury = ne...\n    tag 471\t\t\try=0\");\\n        treasury = ne...\n      JUMPDEST \t\t\try=0\");\\n        treasury = ne...\n      PUSH [tag] 472\t\t\teasuryChanged(newTreasury);\\n ...\n      DUP2 \t\t\tg memo\n      DUP6 \t\t\tstr\n      PUSH [tag] 380\t\t\teasuryChanged(newTreasury);\\n ...\n      JUMP \t\t\teasuryChanged(newTreasury);\\n ...\n    tag 472\t\t\teasuryChanged(newTreasury);\\n ...\n      JUMPDEST \t\t\teasuryChanged(newTreasury);\\n ...\n      SWAP4 \t\t\temit TreasuryChanged(newTreasu...\n      POP \t\t\temit TreasuryChanged(newTreasu...\n      PUSH [tag] 473\t\t\trnal onlyOwner {\\n        base...\n      DUP2 \t\t\tIChang\n      DUP6 \t\t\tase\n      PUSH 20\t\t\t emi\n      DUP7 \t\t\t     \n      ADD \t\t\t u;\\n        emit\n      PUSH [tag] 381\t\t\trnal onlyOwner {\\n        base...\n      JUMP \t\t\trnal onlyOwner {\\n        base...\n    tag 473\t\t\trnal onlyOwner {\\n        base...\n      JUMPDEST \t\t\trnal onlyOwner {\\n        base...\n      PUSH [tag] 474\t\t\tint ---\\n    /// @notice Compr\n      DUP2 \t\t\te Comp\n      PUSH [tag] 382\t\t\tint ---\\n    /// @notice Compr\n      JUMP \t\t\tint ---\\n    /// @notice Compr\n    tag 474\t\t\tint ---\\n    /// @notice Compr\n      JUMPDEST \t\t\tint ---\\n    /// @notice Compr\n      DUP5 \t\t\t---\n      ADD \t\t\t // --- Mint ---\\n    /// @not...\n      SWAP2 \t\t\t }\\n\\n    // --- Mint ---\\n   ...\n      POP \t\t\t }\\n\\n    // --- Mint ---\\n   ...\n      POP \t\t\ty != address(0), \"treasury=0\")...\n      SWAP3 \t\t\t   function setTreasury(addres...\n      SWAP2 \t\t\t   function setTreasury(addres...\n      POP \t\t\t   function setTreasury(addres...\n      POP \t\t\t   function setTreasury(addres...\n      JUMP \t\t\t   function setTreasury(addres...\n    tag 41\t\t\ts pagando en CBO (requiere all...\n      JUMPDEST \t\t\ts pagando en CBO (requiere all...\n      PUSH 0\t\t\t\"qty\n      PUSH 20\t\t\t+ \n      DUP3 \t\t\totalSuppl\n      ADD \t\t\tre(totalSupply + q\n      SWAP1 \t\t\t   require(totalSupply + q\n      POP \t\t\t   require(totalSupply + q\n      DUP2 \t\t\t cost = p\n      DUP2 \t\t\tint2\n      SUB \t\t\t   uint256 cost = pr\n      PUSH 0\t\t\t \n      DUP4 \t\t\td out\");\\n\n      ADD \t\t\t\"sold out\");\\n\\n   \n      MSTORE \t\t\tupply, \"sold out\");\\n\\n       ...\n      PUSH [tag] 476\t\t\t       // El usuario debe ejec...\n      DUP2 \t\t\t)\\n  \n      DUP5 \t\t\tis), c\n      PUSH [tag] 383\t\t\t       // El usuario debe ejec...\n      JUMP \t\t\t       // El usuario debe ejec...\n    tag 476\t\t\t       // El usuario debe ejec...\n      JUMPDEST \t\t\t       // El usuario debe ejec...\n      SWAP1 \t\t\t qty;\\n\\n        // El usuario...\n      POP \t\t\t qty;\\n\\n        // El usuario...\n      SWAP3 \t\t\ts pagando en CBO (requiere all...\n      SWAP2 \t\t\ts pagando en CBO (requiere all...\n      POP \t\t\ts pagando en CBO (requiere all...\n      POP \t\t\ts pagando en CBO (requiere all...\n      JUMP \t\t\ts pagando en CBO (requiere all...\n    tag 384\t\t\t= carbono.transferFrom(msg.sen...\n      JUMPDEST \t\t\t= carbono.transferFrom(msg.sen...\n      PUSH 0\t\t\teasury,\n      DUP2 \t\t\te(ok,\n      SWAP1 \t\t\t     require(ok,\n      POP \t\t\t     require(ok,\n      SWAP2 \t\t\t= carbono.transferFrom(msg.sen...\n      SWAP1 \t\t\t= carbono.transferFrom(msg.sen...\n      POP \t\t\t= carbono.transferFrom(msg.sen...\n      JUMP \t\t\t= carbono.transferFrom(msg.sen...\n    tag 385\t\t\ter fail\");\\n\\n        for (uin...\n      JUMPDEST \t\t\ter fail\");\\n\\n        for (uin...\n      PUSH [tag] 479\t\t\t56 tokenId = _nextId++;\\n\n      DUP2 \t\t\tId++;\n      PUSH [tag] 384\t\t\t56 tokenId = _nextId++;\\n\n      JUMP \t\t\t56 tokenId = _nextId++;\\n\n    tag 479\t\t\t56 tokenId = _nextId++;\\n\n      JUMPDEST \t\t\t56 tokenId = _nextId++;\\n\n      DUP2 \t\t\t  uin\n      EQ \t\t\t     uint256 tokenId = _nextId...\n      PUSH [tag] 480\t\t\t {\\n            uint256 tokenI...\n      JUMPI \t\t\t {\\n            uint256 tokenI...\n      PUSH 0\t\t\ta\n      PUSH 0\t\t\tt\n      REVERT \t\t\t       total\n    tag 480\t\t\t {\\n            uint256 tokenI...\n      JUMPDEST \t\t\t {\\n            uint256 tokenI...\n      POP \t\t\ter fail\");\\n\\n        for (uin...\n      JUMP \t\t\ter fail\");\\n\\n        for (uin...\n    tag 386\t\t\t           _safeMint(msg.sende...\n      JUMPDEST \t\t\t           _safeMint(msg.sende...\n      PUSH 0\t\t\t     \n      DUP2 \t\t\t, qty,\n      CALLDATALOAD \t\t\ted(msg.sender, qty, \n      SWAP1 \t\t\temit Minted(msg.sender, qty, \n      POP \t\t\temit Minted(msg.sender, qty, \n      PUSH [tag] 482\t\t\t  }\\n\\n    // --- Metadata sim...\n      DUP2 \t\t\tmple \n      PUSH [tag] 385\t\t\t  }\\n\\n    // --- Metadata sim...\n      JUMP \t\t\t  }\\n\\n    // --- Metadata sim...\n    tag 482\t\t\t  }\\n\\n    // --- Metadata sim...\n      JUMPDEST \t\t\t  }\\n\\n    // --- Metadata sim...\n      SWAP3 \t\t\t           _safeMint(msg.sende...\n      SWAP2 \t\t\t           _safeMint(msg.sende...\n      POP \t\t\t           _safeMint(msg.sende...\n      POP \t\t\t           _safeMint(msg.sende...\n      JUMP \t\t\t           _safeMint(msg.sende...\n    tag 44\t\t\tta) ---\\n    function _baseURI...\n      JUMPDEST \t\t\tta) ---\\n    function _baseURI...\n      PUSH 0\t\t\trns (s\n      PUSH 20\t\t\t  \n      DUP3 \t\t\tbaseURI_;\n      DUP5 \t\t\t  retur\n      SUB \t\t\t      return baseURI_;\\n\n      SLT \t\t\t{\\n        return baseURI_;\\n ...\n      ISZERO \t\t\ty) {\\n        return baseURI_;...\n      PUSH [tag] 484\t\t\ty) {\\n        return baseURI_;...\n      JUMPI \t\t\ty) {\\n        return baseURI_;...\n      PUSH [tag] 485\t\t\t   function tokenURI(uint256 t...\n      PUSH [tag] 372\t\t\t   function tokenURI(uint256 t...\n      JUMP \t\t\t   function tokenURI(uint256 t...\n    tag 485\t\t\t   function tokenURI(uint256 t...\n      JUMPDEST \t\t\t   function tokenURI(uint256 t...\n    tag 484\t\t\ty) {\\n        return baseURI_;...\n      JUMPDEST \t\t\ty) {\\n        return baseURI_;...\n      PUSH 0\t\t\to\n      PUSH [tag] 486\t\t\to verificación\\n        ownerO...\n      DUP5 \t\t\t    ret\n      DUP3 \t\t\tId);\\n \n      DUP6 \t\t\tnerOf(tok\n      ADD \t\t\t  ownerOf(tokenId);\\n  \n      PUSH [tag] 386\t\t\to verificación\\n        ownerO...\n      JUMP \t\t\to verificación\\n        ownerO...\n    tag 486\t\t\to verificación\\n        ownerO...\n      JUMPDEST \t\t\to verificación\\n        ownerO...\n      SWAP2 \t\t\t sirve como verificación\\n    ...\n      POP \t\t\t sirve como verificación\\n    ...\n      POP \t\t\t  // ownerOf revierte si el to...\n      SWAP3 \t\t\tta) ---\\n    function _baseURI...\n      SWAP2 \t\t\tta) ---\\n    function _baseURI...\n      POP \t\t\tta) ---\\n    function _baseURI...\n      POP \t\t\tta) ---\\n    function _baseURI...\n      JUMP \t\t\tta) ---\\n    function _baseURI...\n    tag 387\t\t\tked(baseURI_, Strings.toString...\n      JUMPDEST \t\t\tked(baseURI_, Strings.toString...\n      PUSH 0\t\t\td), \".p\n      PUSH FFFFFFFFFFFFFFFFFFFFFFFFFFFFFFFFFFFFFFFF\t\t\t\n      DUP3 \t\t\t\n      AND \t\t\t\n      SWAP1 \t\t\t}\\n}\\n\\n\n      POP \t\t\t}\\n}\\n\\n\n      SWAP2 \t\t\tked(baseURI_, Strings.toString...\n      SWAP1 \t\t\tked(baseURI_, Strings.toString...\n      POP \t\t\tked(baseURI_, Strings.toString...\n      JUMP \t\t\tked(baseURI_, Strings.toString...\n    tag 388\t\t\t\n      JUMPDEST \t\t\t\n      PUSH 0\t\t\t\n      PUSH [tag] 489\t\t\t\n      DUP3 \t\t\t\n      PUSH [tag] 387\t\t\t\n      JUMP \t\t\t\n    tag 489\t\t\t\n      JUMPDEST \t\t\t\n      SWAP1 \t\t\t\n      POP \t\t\t\n      SWAP2 \t\t\t\n      SWAP1 \t\t\t\n      POP \t\t\t\n      JUMP \t\t\t\n    tag 389\t\t\t\n      JUMPDEST \t\t\t\n      PUSH [tag] 491\t\t\t\n      DUP2 \t\t\t\n      PUSH [tag] 388\t\t\t\n      JUMP \t\t\t\n    tag 491\t\t\t\n      JUMPDEST \t\t\t\n      DUP3 \t\t\t\n      MSTORE \t\t\t\n      POP \t\t\t\n      POP \t\t\t\n      JUMP \t\t\t\n    tag 47\t\t\t\n      JUMPDEST \t\t\t\n      PUSH 0\t\t\t\n      PUSH 20\t\t\t\n      DUP3 \t\t\t\n      ADD \t\t\t\n      SWAP1 \t\t\t\n      POP \t\t\t\n      PUSH [tag] 493\t\t\t\n      PUSH 0\t\t\t\n      DUP4 \t\t\t\n      ADD \t\t\t\n      DUP5 \t\t\t\n      PUSH [tag] 389\t\t\t\n      JUMP \t\t\t\n    tag 493\t\t\t\n      JUMPDEST \t\t\t\n      SWAP3 \t\t\t\n      SWAP2 \t\t\t\n      POP \t\t\t\n      POP \t\t\t\n      JUMP \t\t\t\n    tag 390\t\t\t\n      JUMPDEST \t\t\t\n      PUSH [tag] 495\t\t\t\n      DUP2 \t\t\t\n      PUSH [tag] 388\t\t\t\n      JUMP \t\t\t\n    tag 495\t\t\t\n      JUMPDEST \t\t\t\n      DUP2 \t\t\t\n      EQ \t\t\t\n      PUSH [tag] 496\t\t\t\n      JUMPI \t\t\t\n      PUSH 0\t\t\t\n      PUSH 0\t\t\t\n      REVERT \t\t\t\n    tag 496\t\t\t\n      JUMPDEST \t\t\t\n      POP \t\t\t\n      JUMP \t\t\t\n    tag 391\t\t\t\n      JUMPDEST \t\t\t\n      PUSH 0\t\t\t\n      DUP2 \t\t\t\n      CALLDATALOAD \t\t\t\n      SWAP1 \t\t\t\n      POP \t\t\t\n      PUSH [tag] 498\t\t\t\n      DUP2 \t\t\t\n      PUSH [tag] 390\t\t\t\n      JUMP \t\t\t\n    tag 498\t\t\t\n      JUMPDEST \t\t\t\n      SWAP3 \t\t\t\n      SWAP2 \t\t\t\n      POP \t\t\t\n      POP \t\t\t\n      JUMP \t\t\t\n    tag 50\t\t\t\n      JUMPDEST \t\t\t\n      PUSH 0\t\t\t\n      PUSH 0\t\t\t\n      PUSH 40\t\t\t\n      DUP4 \t\t\t\n      DUP6 \t\t\t\n      SUB \t\t\t\n      SLT \t\t\t\n      ISZERO \t\t\t\n      PUSH [tag] 500\t\t\t\n      JUMPI \t\t\t\n      PUSH [tag] 501\t\t\t\n      PUSH [tag] 372\t\t\t\n      JUMP \t\t\t\n    tag 501\t\t\t\n      JUMPDEST \t\t\t\n    tag 500\t\t\t\n      JUMPDEST \t\t\t\n      PUSH 0\t\t\t\n      PUSH [tag] 502\t\t\t\n      DUP6 \t\t\t\n      DUP3 \t\t\t\n      DUP7 \t\t\t\n      ADD \t\t\t\n      PUSH [tag] 391\t\t\t\n      JUMP \t\t\t\n    tag 502\t\t\t\n      JUMPDEST \t\t\t\n      SWAP3 \t\t\t\n      POP \t\t\t\n      POP \t\t\t\n      PUSH 20\t\t\t\n      PUSH [tag] 503\t\t\t\n      DUP6 \t\t\t\n      DUP3 \t\t\t\n      DUP7 \t\t\t\n      ADD \t\t\t\n      PUSH [tag] 386\t\t\t\n      JUMP \t\t\t\n    tag 503\t\t\t\n      JUMPDEST \t\t\t\n      SWAP2 \t\t\t\n      POP \t\t\t\n      POP \t\t\t\n      SWAP3 \t\t\t\n      POP \t\t\t\n      SWAP3 \t\t\t\n      SWAP1 \t\t\t\n      POP \t\t\t\n      JUMP \t\t\t\n    tag 392\t\t\t\n      JUMPDEST \t\t\t\n      PUSH [tag] 505\t\t\t\n      DUP2 \t\t\t\n      PUSH [tag] 384\t\t\t\n      JUMP \t\t\t\n    tag 505\t\t\t\n      JUMPDEST \t\t\t\n      DUP3 \t\t\t\n      MSTORE \t\t\t\n      POP \t\t\t\n      POP \t\t\t\n      JUMP \t\t\t\n    tag 55\t\t\t\n      JUMPDEST \t\t\t\n      PUSH 0\t\t\t\n      PUSH 20\t\t\t\n      DUP3 \t\t\t\n      ADD \t\t\t\n      SWAP1 \t\t\t\n      POP \t\t\t\n      PUSH [tag] 507\t\t\t\n      PUSH 0\t\t\t\n      DUP4 \t\t\t\n      ADD \t\t\t\n      DUP5 \t\t\t\n      PUSH [tag] 392\t\t\t\n      JUMP \t\t\t\n    tag 507\t\t\t\n      JUMPDEST \t\t\t\n      SWAP3 \t\t\t\n      SWAP2 \t\t\t\n      POP \t\t\t\n      POP \t\t\t\n      JUMP \t\t\t\n    tag 58\t\t\t\n      JUMPDEST \t\t\t\n      PUSH 0\t\t\t\n      PUSH 0\t\t\t\n      PUSH 0\t\t\t\n      PUSH 60\t\t\t\n      DUP5 \t\t\t\n      DUP7 \t\t\t\n      SUB \t\t\t\n      SLT \t\t\t\n      ISZERO \t\t\t\n      PUSH [tag] 509\t\t\t\n      JUMPI \t\t\t\n      PUSH [tag] 510\t\t\t\n      PUSH [tag] 372\t\t\t\n      JUMP \t\t\t\n    tag 510\t\t\t\n      JUMPDEST \t\t\t\n    tag 509\t\t\t\n      JUMPDEST \t\t\t\n      PUSH 0\t\t\t\n      PUSH [tag] 511\t\t\t\n      DUP7 \t\t\t\n      DUP3 \t\t\t\n      DUP8 \t\t\t\n      ADD \t\t\t\n      PUSH [tag] 391\t\t\t\n      JUMP \t\t\t\n    tag 511\t\t\t\n      JUMPDEST \t\t\t\n      SWAP4 \t\t\t\n      POP \t\t\t\n      POP \t\t\t\n      PUSH 20\t\t\t\n      PUSH [tag] 512\t\t\t\n      DUP7 \t\t\t\n      DUP3 \t\t\t\n      DUP8 \t\t\t\n      ADD \t\t\t\n      PUSH [tag] 391\t\t\t\n      JUMP \t\t\t\n    tag 512\t\t\t\n      JUMPDEST \t\t\t\n      SWAP3 \t\t\t\n      POP \t\t\t\n      POP \t\t\t\n      PUSH 40\t\t\t\n      PUSH [tag] 513\t\t\t\n      DUP7 \t\t\t\n      DUP3 \t\t\t\n      DUP8 \t\t\t\n      ADD \t\t\t\n      PUSH [tag] 386\t\t\t\n      JUMP \t\t\t\n    tag 513\t\t\t\n      JUMPDEST \t\t\t\n      SWAP2 \t\t\t\n      POP \t\t\t\n      POP \t\t\t\n      SWAP3 \t\t\t\n      POP \t\t\t\n      SWAP3 \t\t\t\n      POP \t\t\t\n      SWAP3 \t\t\t\n      JUMP \t\t\t\n    tag 393\t\t\t\n      JUMPDEST \t\t\t\n      PUSH 0\t\t\t\n      DUP2 \t\t\t\n      SWAP1 \t\t\t\n      POP \t\t\t\n      SWAP2 \t\t\t\n      SWAP1 \t\t\t\n      POP \t\t\t\n      JUMP \t\t\t\n    tag 394\t\t\t\n      JUMPDEST \t\t\t\n      PUSH 0\t\t\t\n      PUSH [tag] 516\t\t\t\n      PUSH [tag] 517\t\t\t\n      PUSH [tag] 518\t\t\t\n      DUP5 \t\t\t\n      PUSH [tag] 387\t\t\t\n      JUMP \t\t\t\n    tag 518\t\t\t\n      JUMPDEST \t\t\t\n      PUSH [tag] 393\t\t\t\n      JUMP \t\t\t\n    tag 517\t\t\t\n      JUMPDEST \t\t\t\n      PUSH [tag] 387\t\t\t\n      JUMP \t\t\t\n    tag 516\t\t\t\n      JUMPDEST \t\t\t\n      SWAP1 \t\t\t\n      POP \t\t\t\n      SWAP2 \t\t\t\n      SWAP1 \t\t\t\n      POP \t\t\t\n      JUMP \t\t\t\n    tag 395\t\t\t\n      JUMPDEST \t\t\t\n      PUSH 0\t\t\t\n      PUSH [tag] 520\t\t\t\n      DUP3 \t\t\t\n      PUSH [tag] 394\t\t\t\n      JUMP \t\t\t\n    tag 520\t\t\t\n      JUMPDEST \t\t\t\n      SWAP1 \t\t\t\n      POP \t\t\t\n      SWAP2 \t\t\t\n      SWAP1 \t\t\t\n      POP \t\t\t\n      JUMP \t\t\t\n    tag 396\t\t\t\n      JUMPDEST \t\t\t\n      PUSH 0\t\t\t\n      PUSH [tag] 522\t\t\t\n      DUP3 \t\t\t\n      PUSH [tag] 395\t\t\t\n      JUMP \t\t\t\n    tag 522\t\t\t\n      JUMPDEST \t\t\t\n      SWAP1 \t\t\t\n      POP \t\t\t\n      SWAP2 \t\t\t\n      SWAP1 \t\t\t\n      POP \t\t\t\n      JUMP \t\t\t\n    tag 397\t\t\t\n      JUMPDEST \t\t\t\n      PUSH [tag] 524\t\t\t\n      DUP2 \t\t\t\n      PUSH [tag] 396\t\t\t\n      JUMP \t\t\t\n    tag 524\t\t\t\n      JUMPDEST \t\t\t\n      DUP3 \t\t\t\n      MSTORE \t\t\t\n      POP \t\t\t\n      POP \t\t\t\n      JUMP \t\t\t\n    tag 63\t\t\t\n      JUMPDEST \t\t\t\n      PUSH 0\t\t\t\n      PUSH 20\t\t\t\n      DUP3 \t\t\t\n      ADD \t\t\t\n      SWAP1 \t\t\t\n      POP \t\t\t\n      PUSH [tag] 526\t\t\t\n      PUSH 0\t\t\t\n      DUP4 \t\t\t\n      ADD \t\t\t\n      DUP5 \t\t\t\n      PUSH [tag] 397\t\t\t\n      JUMP \t\t\t\n    tag 526\t\t\t\n      JUMPDEST \t\t\t\n      SWAP3 \t\t\t\n      SWAP2 \t\t\t\n      POP \t\t\t\n      POP \t\t\t\n      JUMP \t\t\t\n    tag 398\t\t\t\n      JUMPDEST \t\t\t\n      PUSH 0\t\t\t\n      PUSH 0\t\t\t\n      REVERT \t\t\t\n    tag 399\t\t\t\n      JUMPDEST \t\t\t\n      PUSH 0\t\t\t\n      PUSH 0\t\t\t\n      REVERT \t\t\t\n    tag 306\t\t\t\n      JUMPDEST \t\t\t\n      PUSH 4E487B7100000000000000000000000000000000000000000000000000000000\t\t\t\n      PUSH 0\t\t\t\n      MSTORE \t\t\t\n      PUSH 41\t\t\t\n      PUSH 4\t\t\t\n      MSTORE \t\t\t\n      PUSH 24\t\t\t\n      PUSH 0\t\t\t\n      REVERT \t\t\t\n    tag 400\t\t\t\n      JUMPDEST \t\t\t\n      PUSH [tag] 531\t\t\t\n      DUP3 \t\t\t\n      PUSH [tag] 382\t\t\t\n      JUMP \t\t\t\n    tag 531\t\t\t\n      JUMPDEST \t\t\t\n      DUP2 \t\t\t\n      ADD \t\t\t\n      DUP2 \t\t\t\n      DUP2 \t\t\t\n      LT \t\t\t\n      PUSH FFFFFFFFFFFFFFFF\t\t\t\n      DUP3 \t\t\t\n      GT \t\t\t\n      OR \t\t\t\n      ISZERO \t\t\t\n      PUSH [tag] 532\t\t\t\n      JUMPI \t\t\t\n      PUSH [tag] 533\t\t\t\n      PUSH [tag] 306\t\t\t\n      JUMP \t\t\t\n    tag 533\t\t\t\n      JUMPDEST \t\t\t\n    tag 532\t\t\t\n      JUMPDEST \t\t\t\n      DUP1 \t\t\t\n      PUSH 40\t\t\t\n      MSTORE \t\t\t\n      POP \t\t\t\n      POP \t\t\t\n      POP \t\t\t\n      JUMP \t\t\t\n    tag 401\t\t\t\n      JUMPDEST \t\t\t\n      PUSH 0\t\t\t\n      PUSH [tag] 535\t\t\t\n      PUSH [tag] 371\t\t\t\n      JUMP \t\t\t\n    tag 535\t\t\t\n      JUMPDEST \t\t\t\n      SWAP1 \t\t\t\n      POP \t\t\t\n      PUSH [tag] 536\t\t\t\n      DUP3 \t\t\t\n      DUP3 \t\t\t\n      PUSH [tag] 400\t\t\t\n      JUMP \t\t\t\n    tag 536\t\t\t\n      JUMPDEST \t\t\t\n      SWAP2 \t\t\t\n      SWAP1 \t\t\t\n      POP \t\t\t\n      JUMP \t\t\t\n    tag 402\t\t\t\n      JUMPDEST \t\t\t\n      PUSH 0\t\t\t\n      PUSH FFFFFFFFFFFFFFFF\t\t\t\n      DUP3 \t\t\t\n      GT \t\t\t\n      ISZERO \t\t\t\n      PUSH [tag] 538\t\t\t\n      JUMPI \t\t\t\n      PUSH [tag] 539\t\t\t\n      PUSH [tag] 306\t\t\t\n      JUMP \t\t\t\n    tag 539\t\t\t\n      JUMPDEST \t\t\t\n    tag 538\t\t\t\n      JUMPDEST \t\t\t\n      PUSH [tag] 540\t\t\t\n      DUP3 \t\t\t\n      PUSH [tag] 382\t\t\t\n      JUMP \t\t\t\n    tag 540\t\t\t\n      JUMPDEST \t\t\t\n      SWAP1 \t\t\t\n      POP \t\t\t\n      PUSH 20\t\t\t\n      DUP2 \t\t\t\n      ADD \t\t\t\n      SWAP1 \t\t\t\n      POP \t\t\t\n      SWAP2 \t\t\t\n      SWAP1 \t\t\t\n      POP \t\t\t\n      JUMP \t\t\t\n    tag 403\t\t\t\n      JUMPDEST \t\t\t\n      DUP3 \t\t\t\n      DUP2 \t\t\t\n      DUP4 \t\t\t\n      CALLDATACOPY \t\t\t\n      PUSH 0\t\t\t\n      DUP4 \t\t\t\n      DUP4 \t\t\t\n      ADD \t\t\t\n      MSTORE \t\t\t\n      POP \t\t\t\n      POP \t\t\t\n      POP \t\t\t\n      JUMP \t\t\t\n    tag 404\t\t\t\n      JUMPDEST \t\t\t\n      PUSH 0\t\t\t\n      PUSH [tag] 543\t\t\t\n      PUSH [tag] 544\t\t\t\n      DUP5 \t\t\t\n      PUSH [tag] 402\t\t\t\n      JUMP \t\t\t\n    tag 544\t\t\t\n      JUMPDEST \t\t\t\n      PUSH [tag] 401\t\t\t\n      JUMP \t\t\t\n    tag 543\t\t\t\n      JUMPDEST \t\t\t\n      SWAP1 \t\t\t\n      POP \t\t\t\n      DUP3 \t\t\t\n      DUP2 \t\t\t\n      MSTORE \t\t\t\n      PUSH 20\t\t\t\n      DUP2 \t\t\t\n      ADD \t\t\t\n      DUP5 \t\t\t\n      DUP5 \t\t\t\n      DUP5 \t\t\t\n      ADD \t\t\t\n      GT \t\t\t\n      ISZERO \t\t\t\n      PUSH [tag] 545\t\t\t\n      JUMPI \t\t\t\n      PUSH [tag] 546\t\t\t\n      PUSH [tag] 399\t\t\t\n      JUMP \t\t\t\n    tag 546\t\t\t\n      JUMPDEST \t\t\t\n    tag 545\t\t\t\n      JUMPDEST \t\t\t\n      PUSH [tag] 547\t\t\t\n      DUP5 \t\t\t\n      DUP3 \t\t\t\n      DUP6 \t\t\t\n      PUSH [tag] 403\t\t\t\n      JUMP \t\t\t\n    tag 547\t\t\t\n      JUMPDEST \t\t\t\n      POP \t\t\t\n      SWAP4 \t\t\t\n      SWAP3 \t\t\t\n      POP \t\t\t\n      POP \t\t\t\n      POP \t\t\t\n      JUMP \t\t\t\n    tag 405\t\t\t\n      JUMPDEST \t\t\t\n      PUSH 0\t\t\t\n      DUP3 \t\t\t\n      PUSH 1F\t\t\t\n      DUP4 \t\t\t\n      ADD \t\t\t\n      SLT \t\t\t\n      PUSH [tag] 549\t\t\t\n      JUMPI \t\t\t\n      PUSH [tag] 550\t\t\t\n      PUSH [tag] 398\t\t\t\n      JUMP \t\t\t\n    tag 550\t\t\t\n      JUMPDEST \t\t\t\n    tag 549\t\t\t\n      JUMPDEST \t\t\t\n      DUP2 \t\t\t\n      CALLDATALOAD \t\t\t\n      PUSH [tag] 551\t\t\t\n      DUP5 \t\t\t\n      DUP3 \t\t\t\n      PUSH 20\t\t\t\n      DUP7 \t\t\t\n      ADD \t\t\t\n      PUSH [tag] 404\t\t\t\n      JUMP \t\t\t\n    tag 551\t\t\t\n      JUMPDEST \t\t\t\n      SWAP2 \t\t\t\n      POP \t\t\t\n      POP \t\t\t\n      SWAP3 \t\t\t\n      SWAP2 \t\t\t\n      POP \t\t\t\n      POP \t\t\t\n      JUMP \t\t\t\n    tag 69\t\t\t\n      JUMPDEST \t\t\t\n      PUSH 0\t\t\t\n      PUSH 20\t\t\t\n      DUP3 \t\t\t\n      DUP5 \t\t\t\n      SUB \t\t\t\n      SLT \t\t\t\n      ISZERO \t\t\t\n      PUSH [tag] 553\t\t\t\n      JUMPI \t\t\t\n      PUSH [tag] 554\t\t\t\n      PUSH [tag] 372\t\t\t\n      JUMP \t\t\t\n    tag 554\t\t\t\n      JUMPDEST \t\t\t\n    tag 553\t\t\t\n      JUMPDEST \t\t\t\n      PUSH 0\t\t\t\n      DUP3 \t\t\t\n      ADD \t\t\t\n      CALLDATALOAD \t\t\t\n      PUSH FFFFFFFFFFFFFFFF\t\t\t\n      DUP2 \t\t\t\n      GT \t\t\t\n      ISZERO \t\t\t\n      PUSH [tag] 555\t\t\t\n      JUMPI \t\t\t\n      PUSH [tag] 556\t\t\t\n      PUSH [tag] 373\t\t\t\n      JUMP \t\t\t\n    tag 556\t\t\t\n      JUMPDEST \t\t\t\n    tag 555\t\t\t\n      JUMPDEST \t\t\t\n      PUSH [tag] 557\t\t\t\n      DUP5 \t\t\t\n      DUP3 \t\t\t\n      DUP6 \t\t\t\n      ADD \t\t\t\n      PUSH [tag] 405\t\t\t\n      JUMP \t\t\t\n    tag 557\t\t\t\n      JUMPDEST \t\t\t\n      SWAP2 \t\t\t\n      POP \t\t\t\n      POP \t\t\t\n      SWAP3 \t\t\t\n      SWAP2 \t\t\t\n      POP \t\t\t\n      POP \t\t\t\n      JUMP \t\t\t\n    tag 80\t\t\t\n      JUMPDEST \t\t\t\n      PUSH 0\t\t\t\n      PUSH 20\t\t\t\n      DUP3 \t\t\t\n      DUP5 \t\t\t\n      SUB \t\t\t\n      SLT \t\t\t\n      ISZERO \t\t\t\n      PUSH [tag] 559\t\t\t\n      JUMPI \t\t\t\n      PUSH [tag] 560\t\t\t\n      PUSH [tag] 372\t\t\t\n      JUMP \t\t\t\n    tag 560\t\t\t\n      JUMPDEST \t\t\t\n    tag 559\t\t\t\n      JUMPDEST \t\t\t\n      PUSH 0\t\t\t\n      PUSH [tag] 561\t\t\t\n      DUP5 \t\t\t\n      DUP3 \t\t\t\n      DUP6 \t\t\t\n      ADD \t\t\t\n      PUSH [tag] 391\t\t\t\n      JUMP \t\t\t\n    tag 561\t\t\t\n      JUMPDEST \t\t\t\n      SWAP2 \t\t\t\n      POP \t\t\t\n      POP \t\t\t\n      SWAP3 \t\t\t\n      SWAP2 \t\t\t\n      POP \t\t\t\n      POP \t\t\t\n      JUMP \t\t\t\n    tag 406\t\t\t\n      JUMPDEST \t\t\t\n      PUSH [tag] 563\t\t\t\n      DUP2 \t\t\t\n      PUSH [tag] 377\t\t\t\n      JUMP \t\t\t\n    tag 563\t\t\t\n      JUMPDEST \t\t\t\n      DUP2 \t\t\t\n      EQ \t\t\t\n      PUSH [tag] 564\t\t\t\n      JUMPI \t\t\t\n      PUSH 0\t\t\t\n      PUSH 0\t\t\t\n      REVERT \t\t\t\n    tag 564\t\t\t\n      JUMPDEST \t\t\t\n      POP \t\t\t\n      JUMP \t\t\t\n    tag 407\t\t\t\n      JUMPDEST \t\t\t\n      PUSH 0\t\t\t\n      DUP2 \t\t\t\n      CALLDATALOAD \t\t\t\n      SWAP1 \t\t\t\n      POP \t\t\t\n      PUSH [tag] 566\t\t\t\n      DUP2 \t\t\t\n      PUSH [tag] 406\t\t\t\n      JUMP \t\t\t\n    tag 566\t\t\t\n      JUMPDEST \t\t\t\n      SWAP3 \t\t\t\n      SWAP2 \t\t\t\n      POP \t\t\t\n      POP \t\t\t\n      JUMP \t\t\t\n    tag 96\t\t\t\n      JUMPDEST \t\t\t\n      PUSH 0\t\t\t\n      PUSH 0\t\t\t\n      PUSH 40\t\t\t\n      DUP4 \t\t\t\n      DUP6 \t\t\t\n      SUB \t\t\t\n      SLT \t\t\t\n      ISZERO \t\t\t\n      PUSH [tag] 568\t\t\t\n      JUMPI \t\t\t\n      PUSH [tag] 569\t\t\t\n      PUSH [tag] 372\t\t\t\n      JUMP \t\t\t\n    tag 569\t\t\t\n      JUMPDEST \t\t\t\n    tag 568\t\t\t\n      JUMPDEST \t\t\t\n      PUSH 0\t\t\t\n      PUSH [tag] 570\t\t\t\n      DUP6 \t\t\t\n      DUP3 \t\t\t\n      DUP7 \t\t\t\n      ADD \t\t\t\n      PUSH [tag] 391\t\t\t\n      JUMP \t\t\t\n    tag 570\t\t\t\n      JUMPDEST \t\t\t\n      SWAP3 \t\t\t\n      POP \t\t\t\n      POP \t\t\t\n      PUSH 20\t\t\t\n      PUSH [tag] 571\t\t\t\n      DUP6 \t\t\t\n      DUP3 \t\t\t\n      DUP7 \t\t\t\n      ADD \t\t\t\n      PUSH [tag] 407\t\t\t\n      JUMP \t\t\t\n    tag 571\t\t\t\n      JUMPDEST \t\t\t\n      SWAP2 \t\t\t\n      POP \t\t\t\n      POP \t\t\t\n      SWAP3 \t\t\t\n      POP \t\t\t\n      SWAP3 \t\t\t\n      SWAP1 \t\t\t\n      POP \t\t\t\n      JUMP \t\t\t\n    tag 408\t\t\t\n      JUMPDEST \t\t\t\n      PUSH 0\t\t\t\n      PUSH FFFFFFFFFFFFFFFF\t\t\t\n      DUP3 \t\t\t\n      GT \t\t\t\n      ISZERO \t\t\t\n      PUSH [tag] 573\t\t\t\n      JUMPI \t\t\t\n      PUSH [tag] 574\t\t\t\n      PUSH [tag] 306\t\t\t\n      JUMP \t\t\t\n    tag 574\t\t\t\n      JUMPDEST \t\t\t\n    tag 573\t\t\t\n      JUMPDEST \t\t\t\n      PUSH [tag] 575\t\t\t\n      DUP3 \t\t\t\n      PUSH [tag] 382\t\t\t\n      JUMP \t\t\t\n    tag 575\t\t\t\n      JUMPDEST \t\t\t\n      SWAP1 \t\t\t\n      POP \t\t\t\n      PUSH 20\t\t\t\n      DUP2 \t\t\t\n      ADD \t\t\t\n      SWAP1 \t\t\t\n      POP \t\t\t\n      SWAP2 \t\t\t\n      SWAP1 \t\t\t\n      POP \t\t\t\n      JUMP \t\t\t\n    tag 409\t\t\t\n      JUMPDEST \t\t\t\n      PUSH 0\t\t\t\n      PUSH [tag] 577\t\t\t\n      PUSH [tag] 578\t\t\t\n      DUP5 \t\t\t\n      PUSH [tag] 408\t\t\t\n      JUMP \t\t\t\n    tag 578\t\t\t\n      JUMPDEST \t\t\t\n      PUSH [tag] 401\t\t\t\n      JUMP \t\t\t\n    tag 577\t\t\t\n      JUMPDEST \t\t\t\n      SWAP1 \t\t\t\n      POP \t\t\t\n      DUP3 \t\t\t\n      DUP2 \t\t\t\n      MSTORE \t\t\t\n      PUSH 20\t\t\t\n      DUP2 \t\t\t\n      ADD \t\t\t\n      DUP5 \t\t\t\n      DUP5 \t\t\t\n      DUP5 \t\t\t\n      ADD \t\t\t\n      GT \t\t\t\n      ISZERO \t\t\t\n      PUSH [tag] 579\t\t\t\n      JUMPI \t\t\t\n      PUSH [tag] 580\t\t\t\n      PUSH [tag] 399\t\t\t\n      JUMP \t\t\t\n    tag 580\t\t\t\n      JUMPDEST \t\t\t\n    tag 579\t\t\t\n      JUMPDEST \t\t\t\n      PUSH [tag] 581\t\t\t\n      DUP5 \t\t\t\n      DUP3 \t\t\t\n      DUP6 \t\t\t\n      PUSH [tag] 403\t\t\t\n      JUMP \t\t\t\n    tag 581\t\t\t\n      JUMPDEST \t\t\t\n      POP \t\t\t\n      SWAP4 \t\t\t\n      SWAP3 \t\t\t\n      POP \t\t\t\n      POP \t\t\t\n      POP \t\t\t\n      JUMP \t\t\t\n    tag 410\t\t\t\n      JUMPDEST \t\t\t\n      PUSH 0\t\t\t\n      DUP3 \t\t\t\n      PUSH 1F\t\t\t\n      DUP4 \t\t\t\n      ADD \t\t\t\n      SLT \t\t\t\n      PUSH [tag] 583\t\t\t\n      JUMPI \t\t\t\n      PUSH [tag] 584\t\t\t\n      PUSH [tag] 398\t\t\t\n      JUMP \t\t\t\n    tag 584\t\t\t\n      JUMPDEST \t\t\t\n    tag 583\t\t\t\n      JUMPDEST \t\t\t\n      DUP2 \t\t\t\n      CALLDATALOAD \t\t\t\n      PUSH [tag] 585\t\t\t\n      DUP5 \t\t\t\n      DUP3 \t\t\t\n      PUSH 20\t\t\t\n      DUP7 \t\t\t\n      ADD \t\t\t\n      PUSH [tag] 409\t\t\t\n      JUMP \t\t\t\n    tag 585\t\t\t\n      JUMPDEST \t\t\t\n      SWAP2 \t\t\t\n      POP \t\t\t\n      POP \t\t\t\n      SWAP3 \t\t\t\n      SWAP2 \t\t\t\n      POP \t\t\t\n      POP \t\t\t\n      JUMP \t\t\t\n    tag 100\t\t\t\n      JUMPDEST \t\t\t\n      PUSH 0\t\t\t\n      PUSH 0\t\t\t\n      PUSH 0\t\t\t\n      PUSH 0\t\t\t\n      PUSH 80\t\t\t\n      DUP6 \t\t\t\n      DUP8 \t\t\t\n      SUB \t\t\t\n      SLT \t\t\t\n      ISZERO \t\t\t\n      PUSH [tag] 587\t\t\t\n      JUMPI \t\t\t\n      PUSH [tag] 588\t\t\t\n      PUSH [tag] 372\t\t\t\n      JUMP \t\t\t\n    tag 588\t\t\t\n      JUMPDEST \t\t\t\n    tag 587\t\t\t\n      JUMPDEST \t\t\t\n      PUSH 0\t\t\t\n      PUSH [tag] 589\t\t\t\n      DUP8 \t\t\t\n      DUP3 \t\t\t\n      DUP9 \t\t\t\n      ADD \t\t\t\n      PUSH [tag] 391\t\t\t\n      JUMP \t\t\t\n    tag 589\t\t\t\n      JUMPDEST \t\t\t\n      SWAP5 \t\t\t\n      POP \t\t\t\n      POP \t\t\t\n      PUSH 20\t\t\t\n      PUSH [tag] 590\t\t\t\n      DUP8 \t\t\t\n      DUP3 \t\t\t\n      DUP9 \t\t\t\n      ADD \t\t\t\n      PUSH [tag] 391\t\t\t\n      JUMP \t\t\t\n    tag 590\t\t\t\n      JUMPDEST \t\t\t\n      SWAP4 \t\t\t\n      POP \t\t\t\n      POP \t\t\t\n      PUSH 40\t\t\t\n      PUSH [tag] 591\t\t\t\n      DUP8 \t\t\t\n      DUP3 \t\t\t\n      DUP9 \t\t\t\n      ADD \t\t\t\n      PUSH [tag] 386\t\t\t\n      JUMP \t\t\t\n    tag 591\t\t\t\n      JUMPDEST \t\t\t\n      SWAP3 \t\t\t\n      POP \t\t\t\n      POP \t\t\t\n      PUSH 60\t\t\t\n      DUP6 \t\t\t\n      ADD \t\t\t\n      CALLDATALOAD \t\t\t\n      PUSH FFFFFFFFFFFFFFFF\t\t\t\n      DUP2 \t\t\t\n      GT \t\t\t\n      ISZERO \t\t\t\n      PUSH [tag] 592\t\t\t\n      JUMPI \t\t\t\n      PUSH [tag] 593\t\t\t\n      PUSH [tag] 373\t\t\t\n      JUMP \t\t\t\n    tag 593\t\t\t\n      JUMPDEST \t\t\t\n    tag 592\t\t\t\n      JUMPDEST \t\t\t\n      PUSH [tag] 594\t\t\t\n      DUP8 \t\t\t\n      DUP3 \t\t\t\n      DUP9 \t\t\t\n      ADD \t\t\t\n      PUSH [tag] 410\t\t\t\n      JUMP \t\t\t\n    tag 594\t\t\t\n      JUMPDEST \t\t\t\n      SWAP2 \t\t\t\n      POP \t\t\t\n      POP \t\t\t\n      SWAP3 \t\t\t\n      SWAP6 \t\t\t\n      SWAP2 \t\t\t\n      SWAP5 \t\t\t\n      POP \t\t\t\n      SWAP3 \t\t\t\n      POP \t\t\t\n      JUMP \t\t\t\n    tag 114\t\t\t\n      JUMPDEST \t\t\t\n      PUSH 0\t\t\t\n      PUSH 0\t\t\t\n      PUSH 40\t\t\t\n      DUP4 \t\t\t\n      DUP6 \t\t\t\n      SUB \t\t\t\n      SLT \t\t\t\n      ISZERO \t\t\t\n      PUSH [tag] 596\t\t\t\n      JUMPI \t\t\t\n      PUSH [tag] 597\t\t\t\n      PUSH [tag] 372\t\t\t\n      JUMP \t\t\t\n    tag 597\t\t\t\n      JUMPDEST \t\t\t\n    tag 596\t\t\t\n      JUMPDEST \t\t\t\n      PUSH 0\t\t\t\n      PUSH [tag] 598\t\t\t\n      DUP6 \t\t\t\n      DUP3 \t\t\t\n      DUP7 \t\t\t\n      ADD \t\t\t\n      PUSH [tag] 391\t\t\t\n      JUMP \t\t\t\n    tag 598\t\t\t\n      JUMPDEST \t\t\t\n      SWAP3 \t\t\t\n      POP \t\t\t\n      POP \t\t\t\n      PUSH 20\t\t\t\n      PUSH [tag] 599\t\t\t\n      DUP6 \t\t\t\n      DUP3 \t\t\t\n      DUP7 \t\t\t\n      ADD \t\t\t\n      PUSH [tag] 391\t\t\t\n      JUMP \t\t\t\n    tag 599\t\t\t\n      JUMPDEST \t\t\t\n      SWAP2 \t\t\t\n      POP \t\t\t\n      POP \t\t\t\n      SWAP3 \t\t\t\n      POP \t\t\t\n      SWAP3 \t\t\t\n      SWAP1 \t\t\t\n      POP \t\t\t\n      JUMP \t\t\t\n    tag 411\t\t\t\n      JUMPDEST \t\t\t\n      PUSH 4E487B7100000000000000000000000000000000000000000000000000000000\t\t\t\n      PUSH 0\t\t\t\n      MSTORE \t\t\t\n      PUSH 22\t\t\t\n      PUSH 4\t\t\t\n      MSTORE \t\t\t\n      PUSH 24\t\t\t\n      PUSH 0\t\t\t\n      REVERT \t\t\t\n    tag 133\t\t\t\n      JUMPDEST \t\t\t\n      PUSH 0\t\t\t\n      PUSH 2\t\t\t\n      DUP3 \t\t\t\n      DIV \t\t\t\n      SWAP1 \t\t\t\n      POP \t\t\t\n      PUSH 1\t\t\t\n      DUP3 \t\t\t\n      AND \t\t\t\n      DUP1 \t\t\t\n      PUSH [tag] 602\t\t\t\n      JUMPI \t\t\t\n      PUSH 7F\t\t\t\n      DUP3 \t\t\t\n      AND \t\t\t\n      SWAP2 \t\t\t\n      POP \t\t\t\n    tag 602\t\t\t\n      JUMPDEST \t\t\t\n      PUSH 20\t\t\t\n      DUP3 \t\t\t\n      LT \t\t\t\n      DUP2 \t\t\t\n      SUB \t\t\t\n      PUSH [tag] 603\t\t\t\n      JUMPI \t\t\t\n      PUSH [tag] 604\t\t\t\n      PUSH [tag] 411\t\t\t\n      JUMP \t\t\t\n    tag 604\t\t\t\n      JUMPDEST \t\t\t\n    tag 603\t\t\t\n      JUMPDEST \t\t\t\n      POP \t\t\t\n      SWAP2 \t\t\t\n      SWAP1 \t\t\t\n      POP \t\t\t\n      JUMP \t\t\t\n    tag 156\t\t\t\n      JUMPDEST \t\t\t\n      PUSH 0\t\t\t\n      PUSH 60\t\t\t\n      DUP3 \t\t\t\n      ADD \t\t\t\n      SWAP1 \t\t\t\n      POP \t\t\t\n      PUSH [tag] 606\t\t\t\n      PUSH 0\t\t\t\n      DUP4 \t\t\t\n      ADD \t\t\t\n      DUP7 \t\t\t\n      PUSH [tag] 389\t\t\t\n      JUMP \t\t\t\n    tag 606\t\t\t\n      JUMPDEST \t\t\t\n      PUSH [tag] 607\t\t\t\n      PUSH 20\t\t\t\n      DUP4 \t\t\t\n      ADD \t\t\t\n      DUP6 \t\t\t\n      PUSH [tag] 392\t\t\t\n      JUMP \t\t\t\n    tag 607\t\t\t\n      JUMPDEST \t\t\t\n      PUSH [tag] 608\t\t\t\n      PUSH 40\t\t\t\n      DUP4 \t\t\t\n      ADD \t\t\t\n      DUP5 \t\t\t\n      PUSH [tag] 389\t\t\t\n      JUMP \t\t\t\n    tag 608\t\t\t\n      JUMPDEST \t\t\t\n      SWAP5 \t\t\t\n      SWAP4 \t\t\t\n      POP \t\t\t\n      POP \t\t\t\n      POP \t\t\t\n      POP \t\t\t\n      JUMP \t\t\t\n    tag 412\t\t\t\n      JUMPDEST \t\t\t\n      PUSH 0\t\t\t\n      DUP2 \t\t\t\n      SWAP1 \t\t\t\n      POP \t\t\t\n      DUP2 \t\t\t\n      PUSH 0\t\t\t\n      MSTORE \t\t\t\n      PUSH 20\t\t\t\n      PUSH 0\t\t\t\n      KECCAK256 \t\t\t\n      SWAP1 \t\t\t\n      POP \t\t\t\n      SWAP2 \t\t\t\n      SWAP1 \t\t\t\n      POP \t\t\t\n      JUMP \t\t\t\n    tag 413\t\t\t\n      JUMPDEST \t\t\t\n      PUSH 0\t\t\t\n      PUSH 20\t\t\t\n      PUSH 1F\t\t\t\n      DUP4 \t\t\t\n      ADD \t\t\t\n      DIV \t\t\t\n      SWAP1 \t\t\t\n      POP \t\t\t\n      SWAP2 \t\t\t\n      SWAP1 \t\t\t\n      POP \t\t\t\n      JUMP \t\t\t\n    tag 414\t\t\t\n      JUMPDEST \t\t\t\n      PUSH 0\t\t\t\n      DUP3 \t\t\t\n      DUP3 \t\t\t\n      SHL \t\t\t\n      SWAP1 \t\t\t\n      POP \t\t\t\n      SWAP3 \t\t\t\n      SWAP2 \t\t\t\n      POP \t\t\t\n      POP \t\t\t\n      JUMP \t\t\t\n    tag 415\t\t\t\n      JUMPDEST \t\t\t\n      PUSH 0\t\t\t\n      PUSH 8\t\t\t\n      DUP4 \t\t\t\n      MUL \t\t\t\n      PUSH [tag] 613\t\t\t\n      PUSH FFFFFFFFFFFFFFFFFFFFFFFFFFFFFFFFFFFFFFFFFFFFFFFFFFFFFFFFFFFFFFFF\t\t\t\n      DUP3 \t\t\t\n      PUSH [tag] 414\t\t\t\n      JUMP \t\t\t\n    tag 613\t\t\t\n      JUMPDEST \t\t\t\n      PUSH [tag] 614\t\t\t\n      DUP7 \t\t\t\n      DUP4 \t\t\t\n      PUSH [tag] 414\t\t\t\n      JUMP \t\t\t\n    tag 614\t\t\t\n      JUMPDEST \t\t\t\n      SWAP6 \t\t\t\n      POP \t\t\t\n      DUP1 \t\t\t\n      NOT \t\t\t\n      DUP5 \t\t\t\n      AND \t\t\t\n      SWAP4 \t\t\t\n      POP \t\t\t\n      DUP1 \t\t\t\n      DUP7 \t\t\t\n      AND \t\t\t\n      DUP5 \t\t\t\n      OR \t\t\t\n      SWAP3 \t\t\t\n      POP \t\t\t\n      POP \t\t\t\n      POP \t\t\t\n      SWAP4 \t\t\t\n      SWAP3 \t\t\t\n      POP \t\t\t\n      POP \t\t\t\n      POP \t\t\t\n      JUMP \t\t\t\n    tag 416\t\t\t\n      JUMPDEST \t\t\t\n      PUSH 0\t\t\t\n      PUSH [tag] 616\t\t\t\n      PUSH [tag] 617\t\t\t\n      PUSH [tag] 618\t\t\t\n      DUP5 \t\t\t\n      PUSH [tag] 384\t\t\t\n      JUMP \t\t\t\n    tag 618\t\t\t\n      JUMPDEST \t\t\t\n      PUSH [tag] 393\t\t\t\n      JUMP \t\t\t\n    tag 617\t\t\t\n      JUMPDEST \t\t\t\n      PUSH [tag] 384\t\t\t\n      JUMP \t\t\t\n    tag 616\t\t\t\n      JUMPDEST \t\t\t\n      SWAP1 \t\t\t\n      POP \t\t\t\n      SWAP2 \t\t\t\n      SWAP1 \t\t\t\n      POP \t\t\t\n      JUMP \t\t\t\n    tag 417\t\t\t\n      JUMPDEST \t\t\t\n      PUSH 0\t\t\t\n      DUP2 \t\t\t\n      SWAP1 \t\t\t\n      POP \t\t\t\n      SWAP2 \t\t\t\n      SWAP1 \t\t\t\n      POP \t\t\t\n      JUMP \t\t\t\n    tag 418\t\t\t\n      JUMPDEST \t\t\t\n      PUSH [tag] 621\t\t\t\n      DUP4 \t\t\t\n      PUSH [tag] 416\t\t\t\n      JUMP \t\t\t\n    tag 621\t\t\t\n      JUMPDEST \t\t\t\n      PUSH [tag] 622\t\t\t\n      PUSH [tag] 623\t\t\t\n      DUP3 \t\t\t\n      PUSH [tag] 417\t\t\t\n      JUMP \t\t\t\n    tag 623\t\t\t\n      JUMPDEST \t\t\t\n      DUP5 \t\t\t\n      DUP5 \t\t\t\n      SLOAD \t\t\t\n      PUSH [tag] 415\t\t\t\n      JUMP \t\t\t\n    tag 622\t\t\t\n      JUMPDEST \t\t\t\n      DUP3 \t\t\t\n      SSTORE \t\t\t\n      POP \t\t\t\n      POP \t\t\t\n      POP \t\t\t\n      POP \t\t\t\n      JUMP \t\t\t\n    tag 419\t\t\t\n      JUMPDEST \t\t\t\n      PUSH 0\t\t\t\n      PUSH 0\t\t\t\n      SWAP1 \t\t\t\n      POP \t\t\t\n      SWAP1 \t\t\t\n      JUMP \t\t\t\n    tag 420\t\t\t\n      JUMPDEST \t\t\t\n      PUSH [tag] 626\t\t\t\n      PUSH [tag] 419\t\t\t\n      JUMP \t\t\t\n    tag 626\t\t\t\n      JUMPDEST \t\t\t\n      PUSH [tag] 627\t\t\t\n      DUP2 \t\t\t\n      DUP5 \t\t\t\n      DUP5 \t\t\t\n      PUSH [tag] 418\t\t\t\n      JUMP \t\t\t\n    tag 627\t\t\t\n      JUMPDEST \t\t\t\n      POP \t\t\t\n      POP \t\t\t\n      POP \t\t\t\n      JUMP \t\t\t\n    tag 421\t\t\t\n      JUMPDEST \t\t\t\n    tag 629\t\t\t\n      JUMPDEST \t\t\t\n      DUP2 \t\t\t\n      DUP2 \t\t\t\n      LT \t\t\t\n      ISZERO \t\t\t\n      PUSH [tag] 631\t\t\t\n      JUMPI \t\t\t\n      PUSH [tag] 632\t\t\t\n      PUSH 0\t\t\t\n      DUP3 \t\t\t\n      PUSH [tag] 420\t\t\t\n      JUMP \t\t\t\n    tag 632\t\t\t\n      JUMPDEST \t\t\t\n      PUSH 1\t\t\t\n      DUP2 \t\t\t\n      ADD \t\t\t\n      SWAP1 \t\t\t\n      POP \t\t\t\n      PUSH [tag] 629\t\t\t\n      JUMP \t\t\t\n    tag 631\t\t\t\n      JUMPDEST \t\t\t\n      POP \t\t\t\n      POP \t\t\t\n      JUMP \t\t\t\n    tag 422\t\t\t\n      JUMPDEST \t\t\t\n      PUSH 1F\t\t\t\n      DUP3 \t\t\t\n      GT \t\t\t\n      ISZERO \t\t\t\n      PUSH [tag] 634\t\t\t\n      JUMPI \t\t\t\n      PUSH [tag] 635\t\t\t\n      DUP2 \t\t\t\n      PUSH [tag] 412\t\t\t\n      JUMP \t\t\t\n    tag 635\t\t\t\n      JUMPDEST \t\t\t\n      PUSH [tag] 636\t\t\t\n      DUP5 \t\t\t\n      PUSH [tag] 413\t\t\t\n      JUMP \t\t\t\n    tag 636\t\t\t\n      JUMPDEST \t\t\t\n      DUP2 \t\t\t\n      ADD \t\t\t\n      PUSH 20\t\t\t\n      DUP6 \t\t\t\n      LT \t\t\t\n      ISZERO \t\t\t\n      PUSH [tag] 637\t\t\t\n      JUMPI \t\t\t\n      DUP2 \t\t\t\n      SWAP1 \t\t\t\n      POP \t\t\t\n    tag 637\t\t\t\n      JUMPDEST \t\t\t\n      PUSH [tag] 638\t\t\t\n      PUSH [tag] 639\t\t\t\n      DUP6 \t\t\t\n      PUSH [tag] 413\t\t\t\n      JUMP \t\t\t\n    tag 639\t\t\t\n      JUMPDEST \t\t\t\n      DUP4 \t\t\t\n      ADD \t\t\t\n      DUP3 \t\t\t\n      PUSH [tag] 421\t\t\t\n      JUMP \t\t\t\n    tag 638\t\t\t\n      JUMPDEST \t\t\t\n      POP \t\t\t\n      POP \t\t\t\n    tag 634\t\t\t\n      JUMPDEST \t\t\t\n      POP \t\t\t\n      POP \t\t\t\n      POP \t\t\t\n      JUMP \t\t\t\n    tag 423\t\t\t\n      JUMPDEST \t\t\t\n      PUSH 0\t\t\t\n      DUP3 \t\t\t\n      DUP3 \t\t\t\n      SHR \t\t\t\n      SWAP1 \t\t\t\n      POP \t\t\t\n      SWAP3 \t\t\t\n      SWAP2 \t\t\t\n      POP \t\t\t\n      POP \t\t\t\n      JUMP \t\t\t\n    tag 424\t\t\t\n      JUMPDEST \t\t\t\n      PUSH 0\t\t\t\n      PUSH [tag] 642\t\t\t\n      PUSH 0\t\t\t\n      NOT \t\t\t\n      DUP5 \t\t\t\n      PUSH 8\t\t\t\n      MUL \t\t\t\n      PUSH [tag] 423\t\t\t\n      JUMP \t\t\t\n    tag 642\t\t\t\n      JUMPDEST \t\t\t\n      NOT \t\t\t\n      DUP1 \t\t\t\n      DUP4 \t\t\t\n      AND \t\t\t\n      SWAP2 \t\t\t\n      POP \t\t\t\n      POP \t\t\t\n      SWAP3 \t\t\t\n      SWAP2 \t\t\t\n      POP \t\t\t\n      POP \t\t\t\n      JUMP \t\t\t\n    tag 425\t\t\t\n      JUMPDEST \t\t\t\n      PUSH 0\t\t\t\n      PUSH [tag] 644\t\t\t\n      DUP4 \t\t\t\n      DUP4 \t\t\t\n      PUSH [tag] 424\t\t\t\n      JUMP \t\t\t\n    tag 644\t\t\t\n      JUMPDEST \t\t\t\n      SWAP2 \t\t\t\n      POP \t\t\t\n      DUP3 \t\t\t\n      PUSH 2\t\t\t\n      MUL \t\t\t\n      DUP3 \t\t\t\n      OR \t\t\t\n      SWAP1 \t\t\t\n      POP \t\t\t\n      SWAP3 \t\t\t\n      SWAP2 \t\t\t\n      POP \t\t\t\n      POP \t\t\t\n      JUMP \t\t\t\n    tag 164\t\t\t\n      JUMPDEST \t\t\t\n      PUSH [tag] 646\t\t\t\n      DUP3 \t\t\t\n      PUSH [tag] 379\t\t\t\n      JUMP \t\t\t\n    tag 646\t\t\t\n      JUMPDEST \t\t\t\n      PUSH FFFFFFFFFFFFFFFF\t\t\t\n      DUP2 \t\t\t\n      GT \t\t\t\n      ISZERO \t\t\t\n      PUSH [tag] 647\t\t\t\n      JUMPI \t\t\t\n      PUSH [tag] 648\t\t\t\n      PUSH [tag] 306\t\t\t\n      JUMP \t\t\t\n    tag 648\t\t\t\n      JUMPDEST \t\t\t\n    tag 647\t\t\t\n      JUMPDEST \t\t\t\n      PUSH [tag] 649\t\t\t\n      DUP3 \t\t\t\n      SLOAD \t\t\t\n      PUSH [tag] 133\t\t\t\n      JUMP \t\t\t\n    tag 649\t\t\t\n      JUMPDEST \t\t\t\n      PUSH [tag] 650\t\t\t\n      DUP3 \t\t\t\n      DUP3 \t\t\t\n      DUP6 \t\t\t\n      PUSH [tag] 422\t\t\t\n      JUMP \t\t\t\n    tag 650\t\t\t\n      JUMPDEST \t\t\t\n      PUSH 0\t\t\t\n      PUSH 20\t\t\t\n      SWAP1 \t\t\t\n      POP \t\t\t\n      PUSH 1F\t\t\t\n      DUP4 \t\t\t\n      GT \t\t\t\n      PUSH 1\t\t\t\n      DUP2 \t\t\t\n      EQ \t\t\t\n      PUSH [tag] 652\t\t\t\n      JUMPI \t\t\t\n      PUSH 0\t\t\t\n      DUP5 \t\t\t\n      ISZERO \t\t\t\n      PUSH [tag] 653\t\t\t\n      JUMPI \t\t\t\n      DUP3 \t\t\t\n      DUP8 \t\t\t\n      ADD \t\t\t\n      MLOAD \t\t\t\n      SWAP1 \t\t\t\n      POP \t\t\t\n    tag 653\t\t\t\n      JUMPDEST \t\t\t\n      PUSH [tag] 654\t\t\t\n      DUP6 \t\t\t\n      DUP3 \t\t\t\n      PUSH [tag] 425\t\t\t\n      JUMP \t\t\t\n    tag 654\t\t\t\n      JUMPDEST \t\t\t\n      DUP7 \t\t\t\n      SSTORE \t\t\t\n      POP \t\t\t\n      PUSH [tag] 651\t\t\t\n      JUMP \t\t\t\n    tag 652\t\t\t\n      JUMPDEST \t\t\t\n      PUSH 1F\t\t\t\n      NOT \t\t\t\n      DUP5 \t\t\t\n      AND \t\t\t\n      PUSH [tag] 655\t\t\t\n      DUP7 \t\t\t\n      PUSH [tag] 412\t\t\t\n      JUMP \t\t\t\n    tag 655\t\t\t\n      JUMPDEST \t\t\t\n      PUSH 0\t\t\t\n    tag 656\t\t\t\n      JUMPDEST \t\t\t\n      DUP3 \t\t\t\n      DUP2 \t\t\t\n      LT \t\t\t\n      ISZERO \t\t\t\n      PUSH [tag] 658\t\t\t\n      JUMPI \t\t\t\n      DUP5 \t\t\t\n      DUP10 \t\t\t\n      ADD \t\t\t\n      MLOAD \t\t\t\n      DUP3 \t\t\t\n      SSTORE \t\t\t\n      PUSH 1\t\t\t\n      DUP3 \t\t\t\n      ADD \t\t\t\n      SWAP2 \t\t\t\n      POP \t\t\t\n      PUSH 20\t\t\t\n      DUP6 \t\t\t\n      ADD \t\t\t\n      SWAP5 \t\t\t\n      POP \t\t\t\n      PUSH 20\t\t\t\n      DUP2 \t\t\t\n      ADD \t\t\t\n      SWAP1 \t\t\t\n      POP \t\t\t\n      PUSH [tag] 656\t\t\t\n      JUMP \t\t\t\n    tag 658\t\t\t\n      JUMPDEST \t\t\t\n      DUP7 \t\t\t\n      DUP4 \t\t\t\n      LT \t\t\t\n      ISZERO \t\t\t\n      PUSH [tag] 659\t\t\t\n      JUMPI \t\t\t\n      DUP5 \t\t\t\n      DUP10 \t\t\t\n      ADD \t\t\t\n      MLOAD \t\t\t\n      PUSH [tag] 660\t\t\t\n      PUSH 1F\t\t\t\n      DUP10 \t\t\t\n      AND \t\t\t\n      DUP3 \t\t\t\n      PUSH [tag] 424\t\t\t\n      JUMP \t\t\t\n    tag 660\t\t\t\n      JUMPDEST \t\t\t\n      DUP4 \t\t\t\n      SSTORE \t\t\t\n      POP \t\t\t\n    tag 659\t\t\t\n      JUMPDEST \t\t\t\n      PUSH 1\t\t\t\n      PUSH 2\t\t\t\n      DUP9 \t\t\t\n      MUL \t\t\t\n      ADD \t\t\t\n      DUP9 \t\t\t\n      SSTORE \t\t\t\n      POP \t\t\t\n      POP \t\t\t\n      POP \t\t\t\n    tag 651\t\t\t\n      JUMPDEST \t\t\t\n      POP \t\t\t\n      POP \t\t\t\n      POP \t\t\t\n      POP \t\t\t\n      POP \t\t\t\n      POP \t\t\t\n      JUMP \t\t\t\n    tag 426\t\t\t\n      JUMPDEST \t\t\t\n      PUSH 7174793D30000000000000000000000000000000000000000000000000000000\t\t\t\n      PUSH 0\t\t\t\n      DUP3 \t\t\t\n      ADD \t\t\t\n      MSTORE \t\t\t\n      POP \t\t\t\n      JUMP \t\t\t\n    tag 427\t\t\t\n      JUMPDEST \t\t\t\n      PUSH 0\t\t\t\n      PUSH [tag] 663\t\t\t\n      PUSH 5\t\t\t\n      DUP4 \t\t\t\n      PUSH [tag] 380\t\t\t\n      JUMP \t\t\t\n    tag 663\t\t\t\n      JUMPDEST \t\t\t\n      SWAP2 \t\t\t\n      POP \t\t\t\n      PUSH [tag] 664\t\t\t\n      DUP3 \t\t\t\n      PUSH [tag] 426\t\t\t\n      JUMP \t\t\t\n    tag 664\t\t\t\n      JUMPDEST \t\t\t\n      PUSH 20\t\t\t\n      DUP3 \t\t\t\n      ADD \t\t\t\n      SWAP1 \t\t\t\n      POP \t\t\t\n      SWAP2 \t\t\t\n      SWAP1 \t\t\t\n      POP \t\t\t\n      JUMP \t\t\t\n    tag 186\t\t\t\n      JUMPDEST \t\t\t\n      PUSH 0\t\t\t\n      PUSH 20\t\t\t\n      DUP3 \t\t\t\n      ADD \t\t\t\n      SWAP1 \t\t\t\n      POP \t\t\t\n      DUP2 \t\t\t\n      DUP2 \t\t\t\n      SUB \t\t\t\n      PUSH 0\t\t\t\n      DUP4 \t\t\t\n      ADD \t\t\t\n      MSTORE \t\t\t\n      PUSH [tag] 666\t\t\t\n      DUP2 \t\t\t\n      PUSH [tag] 427\t\t\t\n      JUMP \t\t\t\n    tag 666\t\t\t\n      JUMPDEST \t\t\t\n      SWAP1 \t\t\t\n      POP \t\t\t\n      SWAP2 \t\t\t\n      SWAP1 \t\t\t\n      POP \t\t\t\n      JUMP \t\t\t\n    tag 428\t\t\t\n      JUMPDEST \t\t\t\n      PUSH 4E487B7100000000000000000000000000000000000000000000000000000000\t\t\t\n      PUSH 0\t\t\t\n      MSTORE \t\t\t\n      PUSH 11\t\t\t\n      PUSH 4\t\t\t\n      MSTORE \t\t\t\n      PUSH 24\t\t\t\n      PUSH 0\t\t\t\n      REVERT \t\t\t\n    tag 188\t\t\t\n      JUMPDEST \t\t\t\n      PUSH 0\t\t\t\n      PUSH [tag] 669\t\t\t\n      DUP3 \t\t\t\n      PUSH [tag] 384\t\t\t\n      JUMP \t\t\t\n    tag 669\t\t\t\n      JUMPDEST \t\t\t\n      SWAP2 \t\t\t\n      POP \t\t\t\n      PUSH [tag] 670\t\t\t\n      DUP4 \t\t\t\n      PUSH [tag] 384\t\t\t\n      JUMP \t\t\t\n    tag 670\t\t\t\n      JUMPDEST \t\t\t\n      SWAP3 \t\t\t\n      POP \t\t\t\n      DUP3 \t\t\t\n      DUP3 \t\t\t\n      ADD \t\t\t\n      SWAP1 \t\t\t\n      POP \t\t\t\n      DUP1 \t\t\t\n      DUP3 \t\t\t\n      GT \t\t\t\n      ISZERO \t\t\t\n      PUSH [tag] 671\t\t\t\n      JUMPI \t\t\t\n      PUSH [tag] 672\t\t\t\n      PUSH [tag] 428\t\t\t\n      JUMP \t\t\t\n    tag 672\t\t\t\n      JUMPDEST \t\t\t\n    tag 671\t\t\t\n      JUMPDEST \t\t\t\n      SWAP3 \t\t\t\n      SWAP2 \t\t\t\n      POP \t\t\t\n      POP \t\t\t\n      JUMP \t\t\t\n    tag 429\t\t\t\n      JUMPDEST \t\t\t\n      PUSH 736F6C64206F7574000000000000000000000000000000000000000000000000\t\t\t\n      PUSH 0\t\t\t\n      DUP3 \t\t\t\n      ADD \t\t\t\n      MSTORE \t\t\t\n      POP \t\t\t\n      JUMP \t\t\t\n    tag 430\t\t\t\n      JUMPDEST \t\t\t\n      PUSH 0\t\t\t\n      PUSH [tag] 675\t\t\t\n      PUSH 8\t\t\t\n      DUP4 \t\t\t\n      PUSH [tag] 380\t\t\t\n      JUMP \t\t\t\n    tag 675\t\t\t\n      JUMPDEST \t\t\t\n      SWAP2 \t\t\t\n      POP \t\t\t\n      PUSH [tag] 676\t\t\t\n      DUP3 \t\t\t\n      PUSH [tag] 429\t\t\t\n      JUMP \t\t\t\n    tag 676\t\t\t\n      JUMPDEST \t\t\t\n      PUSH 20\t\t\t\n      DUP3 \t\t\t\n      ADD \t\t\t\n      SWAP1 \t\t\t\n      POP \t\t\t\n      SWAP2 \t\t\t\n      SWAP1 \t\t\t\n      POP \t\t\t\n      JUMP \t\t\t\n    tag 191\t\t\t\n      JUMPDEST \t\t\t\n      PUSH 0\t\t\t\n      PUSH 20\t\t\t\n      DUP3 \t\t\t\n      ADD \t\t\t\n      SWAP1 \t\t\t\n      POP \t\t\t\n      DUP2 \t\t\t\n      DUP2 \t\t\t\n      SUB \t\t\t\n      PUSH 0\t\t\t\n      DUP4 \t\t\t\n      ADD \t\t\t\n      MSTORE \t\t\t\n      PUSH [tag] 678\t\t\t\n      DUP2 \t\t\t\n      PUSH [tag] 430\t\t\t\n      JUMP \t\t\t\n    tag 678\t\t\t\n      JUMPDEST \t\t\t\n      SWAP1 \t\t\t\n      POP \t\t\t\n      SWAP2 \t\t\t\n      SWAP1 \t\t\t\n      POP \t\t\t\n      JUMP \t\t\t\n    tag 193\t\t\t\n      JUMPDEST \t\t\t\n      PUSH 0\t\t\t\n      PUSH [tag] 680\t\t\t\n      DUP3 \t\t\t\n      PUSH [tag] 384\t\t\t\n      JUMP \t\t\t\n    tag 680\t\t\t\n      JUMPDEST \t\t\t\n      SWAP2 \t\t\t\n      POP \t\t\t\n      PUSH [tag] 681\t\t\t\n      DUP4 \t\t\t\n      PUSH [tag] 384\t\t\t\n      JUMP \t\t\t\n    tag 681\t\t\t\n      JUMPDEST \t\t\t\n      SWAP3 \t\t\t\n      POP \t\t\t\n      DUP3 \t\t\t\n      DUP3 \t\t\t\n      MUL \t\t\t\n      PUSH [tag] 682\t\t\t\n      DUP2 \t\t\t\n      PUSH [tag] 384\t\t\t\n      JUMP \t\t\t\n    tag 682\t\t\t\n      JUMPDEST \t\t\t\n      SWAP2 \t\t\t\n      POP \t\t\t\n      DUP3 \t\t\t\n      DUP3 \t\t\t\n      DIV \t\t\t\n      DUP5 \t\t\t\n      EQ \t\t\t\n      DUP4 \t\t\t\n      ISZERO \t\t\t\n      OR \t\t\t\n      PUSH [tag] 683\t\t\t\n      JUMPI \t\t\t\n      PUSH [tag] 684\t\t\t\n      PUSH [tag] 428\t\t\t\n      JUMP \t\t\t\n    tag 684\t\t\t\n      JUMPDEST \t\t\t\n    tag 683\t\t\t\n      JUMPDEST \t\t\t\n      POP \t\t\t\n      SWAP3 \t\t\t\n      SWAP2 \t\t\t\n      POP \t\t\t\n      POP \t\t\t\n      JUMP \t\t\t\n    tag 195\t\t\t\n      JUMPDEST \t\t\t\n      PUSH 0\t\t\t\n      PUSH 60\t\t\t\n      DUP3 \t\t\t\n      ADD \t\t\t\n      SWAP1 \t\t\t\n      POP \t\t\t\n      PUSH [tag] 686\t\t\t\n      PUSH 0\t\t\t\n      DUP4 \t\t\t\n      ADD \t\t\t\n      DUP7 \t\t\t\n      PUSH [tag] 389\t\t\t\n      JUMP \t\t\t\n    tag 686\t\t\t\n      JUMPDEST \t\t\t\n      PUSH [tag] 687\t\t\t\n      PUSH 20\t\t\t\n      DUP4 \t\t\t\n      ADD \t\t\t\n      DUP6 \t\t\t\n      PUSH [tag] 389\t\t\t\n      JUMP \t\t\t\n    tag 687\t\t\t\n      JUMPDEST \t\t\t\n      PUSH [tag] 688\t\t\t\n      PUSH 40\t\t\t\n      DUP4 \t\t\t\n      ADD \t\t\t\n      DUP5 \t\t\t\n      PUSH [tag] 392\t\t\t\n      JUMP \t\t\t\n    tag 688\t\t\t\n      JUMPDEST \t\t\t\n      SWAP5 \t\t\t\n      SWAP4 \t\t\t\n      POP \t\t\t\n      POP \t\t\t\n      POP \t\t\t\n      POP \t\t\t\n      JUMP \t\t\t\n    tag 431\t\t\t\n      JUMPDEST \t\t\t\n      PUSH 0\t\t\t\n      DUP2 \t\t\t\n      MLOAD \t\t\t\n      SWAP1 \t\t\t\n      POP \t\t\t\n      PUSH [tag] 690\t\t\t\n      DUP2 \t\t\t\n      PUSH [tag] 406\t\t\t\n      JUMP \t\t\t\n    tag 690\t\t\t\n      JUMPDEST \t\t\t\n      SWAP3 \t\t\t\n      SWAP2 \t\t\t\n      POP \t\t\t\n      POP \t\t\t\n      JUMP \t\t\t\n    tag 199\t\t\t\n      JUMPDEST \t\t\t\n      PUSH 0\t\t\t\n      PUSH 20\t\t\t\n      DUP3 \t\t\t\n      DUP5 \t\t\t\n      SUB \t\t\t\n      SLT \t\t\t\n      ISZERO \t\t\t\n      PUSH [tag] 692\t\t\t\n      JUMPI \t\t\t\n      PUSH [tag] 693\t\t\t\n      PUSH [tag] 372\t\t\t\n      JUMP \t\t\t\n    tag 693\t\t\t\n      JUMPDEST \t\t\t\n    tag 692\t\t\t\n      JUMPDEST \t\t\t\n      PUSH 0\t\t\t\n      PUSH [tag] 694\t\t\t\n      DUP5 \t\t\t\n      DUP3 \t\t\t\n      DUP6 \t\t\t\n      ADD \t\t\t\n      PUSH [tag] 431\t\t\t\n      JUMP \t\t\t\n    tag 694\t\t\t\n      JUMPDEST \t\t\t\n      SWAP2 \t\t\t\n      POP \t\t\t\n      POP \t\t\t\n      SWAP3 \t\t\t\n      SWAP2 \t\t\t\n      POP \t\t\t\n      POP \t\t\t\n      JUMP \t\t\t\n    tag 432\t\t\t\n      JUMPDEST \t\t\t\n      PUSH 43424F207472616E73666572206661696C000000000000000000000000000000\t\t\t\n      PUSH 0\t\t\t\n      DUP3 \t\t\t\n      ADD \t\t\t\n      MSTORE \t\t\t\n      POP \t\t\t\n      JUMP \t\t\t\n    tag 433\t\t\t\n      JUMPDEST \t\t\t\n      PUSH 0\t\t\t\n      PUSH [tag] 697\t\t\t\n      PUSH 11\t\t\t\n      DUP4 \t\t\t\n      PUSH [tag] 380\t\t\t\n      JUMP \t\t\t\n    tag 697\t\t\t\n      JUMPDEST \t\t\t\n      SWAP2 \t\t\t\n      POP \t\t\t\n      PUSH [tag] 698\t\t\t\n      DUP3 \t\t\t\n      PUSH [tag] 432\t\t\t\n      JUMP \t\t\t\n    tag 698\t\t\t\n      JUMPDEST \t\t\t\n      PUSH 20\t\t\t\n      DUP3 \t\t\t\n      ADD \t\t\t\n      SWAP1 \t\t\t\n      POP \t\t\t\n      SWAP2 \t\t\t\n      SWAP1 \t\t\t\n      POP \t\t\t\n      JUMP \t\t\t\n    tag 202\t\t\t\n      JUMPDEST \t\t\t\n      PUSH 0\t\t\t\n      PUSH 20\t\t\t\n      DUP3 \t\t\t\n      ADD \t\t\t\n      SWAP1 \t\t\t\n      POP \t\t\t\n      DUP2 \t\t\t\n      DUP2 \t\t\t\n      SUB \t\t\t\n      PUSH 0\t\t\t\n      DUP4 \t\t\t\n      ADD \t\t\t\n      MSTORE \t\t\t\n      PUSH [tag] 700\t\t\t\n      DUP2 \t\t\t\n      PUSH [tag] 433\t\t\t\n      JUMP \t\t\t\n    tag 700\t\t\t\n      JUMPDEST \t\t\t\n      SWAP1 \t\t\t\n      POP \t\t\t\n      SWAP2 \t\t\t\n      SWAP1 \t\t\t\n      POP \t\t\t\n      JUMP \t\t\t\n    tag 207\t\t\t\n      JUMPDEST \t\t\t\n      PUSH 0\t\t\t\n      PUSH [tag] 702\t\t\t\n      DUP3 \t\t\t\n      PUSH [tag] 384\t\t\t\n      JUMP \t\t\t\n    tag 702\t\t\t\n      JUMPDEST \t\t\t\n      SWAP2 \t\t\t\n      POP \t\t\t\n      PUSH FFFFFFFFFFFFFFFFFFFFFFFFFFFFFFFFFFFFFFFFFFFFFFFFFFFFFFFFFFFFFFFF\t\t\t\n      DUP3 \t\t\t\n      SUB \t\t\t\n      PUSH [tag] 703\t\t\t\n      JUMPI \t\t\t\n      PUSH [tag] 704\t\t\t\n      PUSH [tag] 428\t\t\t\n      JUMP \t\t\t\n    tag 704\t\t\t\n      JUMPDEST \t\t\t\n    tag 703\t\t\t\n      JUMPDEST \t\t\t\n      PUSH 1\t\t\t\n      DUP3 \t\t\t\n      ADD \t\t\t\n      SWAP1 \t\t\t\n      POP \t\t\t\n      SWAP2 \t\t\t\n      SWAP1 \t\t\t\n      POP \t\t\t\n      JUMP \t\t\t\n    tag 212\t\t\t\n      JUMPDEST \t\t\t\n      PUSH 0\t\t\t\n      PUSH 40\t\t\t\n      DUP3 \t\t\t\n      ADD \t\t\t\n      SWAP1 \t\t\t\n      POP \t\t\t\n      PUSH [tag] 706\t\t\t\n      PUSH 0\t\t\t\n      DUP4 \t\t\t\n      ADD \t\t\t\n      DUP6 \t\t\t\n      PUSH [tag] 392\t\t\t\n      JUMP \t\t\t\n    tag 706\t\t\t\n      JUMPDEST \t\t\t\n      PUSH [tag] 707\t\t\t\n      PUSH 20\t\t\t\n      DUP4 \t\t\t\n      ADD \t\t\t\n      DUP5 \t\t\t\n      PUSH [tag] 392\t\t\t\n      JUMP \t\t\t\n    tag 707\t\t\t\n      JUMPDEST \t\t\t\n      SWAP4 \t\t\t\n      SWAP3 \t\t\t\n      POP \t\t\t\n      POP \t\t\t\n      POP \t\t\t\n      JUMP \t\t\t\n    tag 434\t\t\t\n      JUMPDEST \t\t\t\n      PUSH 0\t\t\t\n      DUP2 \t\t\t\n      SWAP1 \t\t\t\n      POP \t\t\t\n      SWAP3 \t\t\t\n      SWAP2 \t\t\t\n      POP \t\t\t\n      POP \t\t\t\n      JUMP \t\t\t\n    tag 435\t\t\t\n      JUMPDEST \t\t\t\n      PUSH 0\t\t\t\n      DUP2 \t\t\t\n      SLOAD \t\t\t\n      PUSH [tag] 710\t\t\t\n      DUP2 \t\t\t\n      PUSH [tag] 133\t\t\t\n      JUMP \t\t\t\n    tag 710\t\t\t\n      JUMPDEST \t\t\t\n      PUSH [tag] 711\t\t\t\n      DUP2 \t\t\t\n      DUP7 \t\t\t\n      PUSH [tag] 434\t\t\t\n      JUMP \t\t\t\n    tag 711\t\t\t\n      JUMPDEST \t\t\t\n      SWAP5 \t\t\t\n      POP \t\t\t\n      PUSH 1\t\t\t\n      DUP3 \t\t\t\n      AND \t\t\t\n      PUSH 0\t\t\t\n      DUP2 \t\t\t\n      EQ \t\t\t\n      PUSH [tag] 713\t\t\t\n      JUMPI \t\t\t\n      PUSH 1\t\t\t\n      DUP2 \t\t\t\n      EQ \t\t\t\n      PUSH [tag] 714\t\t\t\n      JUMPI \t\t\t\n      PUSH [tag] 712\t\t\t\n      JUMP \t\t\t\n    tag 713\t\t\t\n      JUMPDEST \t\t\t\n      PUSH FF\t\t\t\n      NOT \t\t\t\n      DUP4 \t\t\t\n      AND \t\t\t\n      DUP7 \t\t\t\n      MSTORE \t\t\t\n      DUP2 \t\t\t\n      ISZERO \t\t\t\n      ISZERO \t\t\t\n      DUP3 \t\t\t\n      MUL \t\t\t\n      DUP7 \t\t\t\n      ADD \t\t\t\n      SWAP4 \t\t\t\n      POP \t\t\t\n      PUSH [tag] 712\t\t\t\n      JUMP \t\t\t\n    tag 714\t\t\t\n      JUMPDEST \t\t\t\n      PUSH [tag] 715\t\t\t\n      DUP6 \t\t\t\n      PUSH [tag] 412\t\t\t\n      JUMP \t\t\t\n    tag 715\t\t\t\n      JUMPDEST \t\t\t\n      PUSH 0\t\t\t\n    tag 716\t\t\t\n      JUMPDEST \t\t\t\n      DUP4 \t\t\t\n      DUP2 \t\t\t\n      LT \t\t\t\n      ISZERO \t\t\t\n      PUSH [tag] 718\t\t\t\n      JUMPI \t\t\t\n      DUP2 \t\t\t\n      SLOAD \t\t\t\n      DUP2 \t\t\t\n      DUP10 \t\t\t\n      ADD \t\t\t\n      MSTORE \t\t\t\n      PUSH 1\t\t\t\n      DUP3 \t\t\t\n      ADD \t\t\t\n      SWAP2 \t\t\t\n      POP \t\t\t\n      PUSH 20\t\t\t\n      DUP2 \t\t\t\n      ADD \t\t\t\n      SWAP1 \t\t\t\n      POP \t\t\t\n      PUSH [tag] 716\t\t\t\n      JUMP \t\t\t\n    tag 718\t\t\t\n      JUMPDEST \t\t\t\n      DUP4 \t\t\t\n      DUP9 \t\t\t\n      ADD \t\t\t\n      SWAP6 \t\t\t\n      POP \t\t\t\n      POP \t\t\t\n      POP \t\t\t\n    tag 712\t\t\t\n      JUMPDEST \t\t\t\n      POP \t\t\t\n      POP \t\t\t\n      POP \t\t\t\n      SWAP3 \t\t\t\n      SWAP2 \t\t\t\n      POP \t\t\t\n      POP \t\t\t\n      JUMP \t\t\t\n    tag 436\t\t\t\n      JUMPDEST \t\t\t\n      PUSH 0\t\t\t\n      PUSH [tag] 720\t\t\t\n      DUP3 \t\t\t\n      PUSH [tag] 379\t\t\t\n      JUMP \t\t\t\n    tag 720\t\t\t\n      JUMPDEST \t\t\t\n      PUSH [tag] 721\t\t\t\n      DUP2 \t\t\t\n      DUP6 \t\t\t\n      PUSH [tag] 434\t\t\t\n      JUMP \t\t\t\n    tag 721\t\t\t\n      JUMPDEST \t\t\t\n      SWAP4 \t\t\t\n      POP \t\t\t\n      PUSH [tag] 722\t\t\t\n      DUP2 \t\t\t\n      DUP6 \t\t\t\n      PUSH 20\t\t\t\n      DUP7 \t\t\t\n      ADD \t\t\t\n      PUSH [tag] 381\t\t\t\n      JUMP \t\t\t\n    tag 722\t\t\t\n      JUMPDEST \t\t\t\n      DUP1 \t\t\t\n      DUP5 \t\t\t\n      ADD \t\t\t\n      SWAP2 \t\t\t\n      POP \t\t\t\n      POP \t\t\t\n      SWAP3 \t\t\t\n      SWAP2 \t\t\t\n      POP \t\t\t\n      POP \t\t\t\n      JUMP \t\t\t\n    tag 437\t\t\t\n      JUMPDEST \t\t\t\n      PUSH 2E706E6700000000000000000000000000000000000000000000000000000000\t\t\t\n      PUSH 0\t\t\t\n      DUP3 \t\t\t\n      ADD \t\t\t\n      MSTORE \t\t\t\n      POP \t\t\t\n      JUMP \t\t\t\n    tag 438\t\t\t\n      JUMPDEST \t\t\t\n      PUSH 0\t\t\t\n      PUSH [tag] 725\t\t\t\n      PUSH 4\t\t\t\n      DUP4 \t\t\t\n      PUSH [tag] 434\t\t\t\n      JUMP \t\t\t\n    tag 725\t\t\t\n      JUMPDEST \t\t\t\n      SWAP2 \t\t\t\n      POP \t\t\t\n      PUSH [tag] 726\t\t\t\n      DUP3 \t\t\t\n      PUSH [tag] 437\t\t\t\n      JUMP \t\t\t\n    tag 726\t\t\t\n      JUMPDEST \t\t\t\n      PUSH 4\t\t\t\n      DUP3 \t\t\t\n      ADD \t\t\t\n      SWAP1 \t\t\t\n      POP \t\t\t\n      SWAP2 \t\t\t\n      SWAP1 \t\t\t\n      POP \t\t\t\n      JUMP \t\t\t\n    tag 227\t\t\t\n      JUMPDEST \t\t\t\n      PUSH 0\t\t\t\n      PUSH [tag] 728\t\t\t\n      DUP3 \t\t\t\n      DUP6 \t\t\t\n      PUSH [tag] 435\t\t\t\n      JUMP \t\t\t\n    tag 728\t\t\t\n      JUMPDEST \t\t\t\n      SWAP2 \t\t\t\n      POP \t\t\t\n      PUSH [tag] 729\t\t\t\n      DUP3 \t\t\t\n      DUP5 \t\t\t\n      PUSH [tag] 436\t\t\t\n      JUMP \t\t\t\n    tag 729\t\t\t\n      JUMPDEST \t\t\t\n      SWAP2 \t\t\t\n      POP \t\t\t\n      PUSH [tag] 730\t\t\t\n      DUP3 \t\t\t\n      PUSH [tag] 438\t\t\t\n      JUMP \t\t\t\n    tag 730\t\t\t\n      JUMPDEST \t\t\t\n      SWAP2 \t\t\t\n      POP \t\t\t\n      DUP2 \t\t\t\n      SWAP1 \t\t\t\n      POP \t\t\t\n      SWAP4 \t\t\t\n      SWAP3 \t\t\t\n      POP \t\t\t\n      POP \t\t\t\n      POP \t\t\t\n      JUMP \t\t\t\n    tag 439\t\t\t\n      JUMPDEST \t\t\t\n      PUSH 70726963653D3000000000000000000000000000000000000000000000000000\t\t\t\n      PUSH 0\t\t\t\n      DUP3 \t\t\t\n      ADD \t\t\t\n      MSTORE \t\t\t\n      POP \t\t\t\n      JUMP \t\t\t\n    tag 440\t\t\t\n      JUMPDEST \t\t\t\n      PUSH 0\t\t\t\n      PUSH [tag] 733\t\t\t\n      PUSH 7\t\t\t\n      DUP4 \t\t\t\n      PUSH [tag] 380\t\t\t\n      JUMP \t\t\t\n    tag 733\t\t\t\n      JUMPDEST \t\t\t\n      SWAP2 \t\t\t\n      POP \t\t\t\n      PUSH [tag] 734\t\t\t\n      DUP3 \t\t\t\n      PUSH [tag] 439\t\t\t\n      JUMP \t\t\t\n    tag 734\t\t\t\n      JUMPDEST \t\t\t\n      PUSH 20\t\t\t\n      DUP3 \t\t\t\n      ADD \t\t\t\n      SWAP1 \t\t\t\n      POP \t\t\t\n      SWAP2 \t\t\t\n      SWAP1 \t\t\t\n      POP \t\t\t\n      JUMP \t\t\t\n    tag 233\t\t\t\n      JUMPDEST \t\t\t\n      PUSH 0\t\t\t\n      PUSH 20\t\t\t\n      DUP3 \t\t\t\n      ADD \t\t\t\n      SWAP1 \t\t\t\n      POP \t\t\t\n      DUP2 \t\t\t\n      DUP2 \t\t\t\n      SUB \t\t\t\n      PUSH 0\t\t\t\n      DUP4 \t\t\t\n      ADD \t\t\t\n      MSTORE \t\t\t\n      PUSH [tag] 736\t\t\t\n      DUP2 \t\t\t\n      PUSH [tag] 440\t\t\t\n      JUMP \t\t\t\n    tag 736\t\t\t\n      JUMPDEST \t\t\t\n      SWAP1 \t\t\t\n      POP \t\t\t\n      SWAP2 \t\t\t\n      SWAP1 \t\t\t\n      POP \t\t\t\n      JUMP \t\t\t\n    tag 441\t\t\t\n      JUMPDEST \t\t\t\n      PUSH 74726561737572793D3000000000000000000000000000000000000000000000\t\t\t\n      PUSH 0\t\t\t\n      DUP3 \t\t\t\n      ADD \t\t\t\n      MSTORE \t\t\t\n      POP \t\t\t\n      JUMP \t\t\t\n    tag 442\t\t\t\n      JUMPDEST \t\t\t\n      PUSH 0\t\t\t\n      PUSH [tag] 739\t\t\t\n      PUSH A\t\t\t\n      DUP4 \t\t\t\n      PUSH [tag] 380\t\t\t\n      JUMP \t\t\t\n    tag 739\t\t\t\n      JUMPDEST \t\t\t\n      SWAP2 \t\t\t\n      POP \t\t\t\n      PUSH [tag] 740\t\t\t\n      DUP3 \t\t\t\n      PUSH [tag] 441\t\t\t\n      JUMP \t\t\t\n    tag 740\t\t\t\n      JUMPDEST \t\t\t\n      PUSH 20\t\t\t\n      DUP3 \t\t\t\n      ADD \t\t\t\n      SWAP1 \t\t\t\n      POP \t\t\t\n      SWAP2 \t\t\t\n      SWAP1 \t\t\t\n      POP \t\t\t\n      JUMP \t\t\t\n    tag 241\t\t\t\n      JUMPDEST \t\t\t\n      PUSH 0\t\t\t\n      PUSH 20\t\t\t\n      DUP3 \t\t\t\n      ADD \t\t\t\n      SWAP1 \t\t\t\n      POP \t\t\t\n      DUP2 \t\t\t\n      DUP2 \t\t\t\n      SUB \t\t\t\n      PUSH 0\t\t\t\n      DUP4 \t\t\t\n      ADD \t\t\t\n      MSTORE \t\t\t\n      PUSH [tag] 742\t\t\t\n      DUP2 \t\t\t\n      PUSH [tag] 442\t\t\t\n      JUMP \t\t\t\n    tag 742\t\t\t\n      JUMPDEST \t\t\t\n      SWAP1 \t\t\t\n      POP \t\t\t\n      SWAP2 \t\t\t\n      SWAP1 \t\t\t\n      POP \t\t\t\n      JUMP \t\t\t\n    tag 443\t\t\t\n      JUMPDEST \t\t\t\n      PUSH 0\t\t\t\n      DUP2 \t\t\t\n      MLOAD \t\t\t\n      SWAP1 \t\t\t\n      POP \t\t\t\n      SWAP2 \t\t\t\n      SWAP1 \t\t\t\n      POP \t\t\t\n      JUMP \t\t\t\n    tag 444\t\t\t\n      JUMPDEST \t\t\t\n      PUSH 0\t\t\t\n      DUP3 \t\t\t\n      DUP3 \t\t\t\n      MSTORE \t\t\t\n      PUSH 20\t\t\t\n      DUP3 \t\t\t\n      ADD \t\t\t\n      SWAP1 \t\t\t\n      POP \t\t\t\n      SWAP3 \t\t\t\n      SWAP2 \t\t\t\n      POP \t\t\t\n      POP \t\t\t\n      JUMP \t\t\t\n    tag 445\t\t\t\n      JUMPDEST \t\t\t\n      PUSH 0\t\t\t\n      PUSH [tag] 746\t\t\t\n      DUP3 \t\t\t\n      PUSH [tag] 443\t\t\t\n      JUMP \t\t\t\n    tag 746\t\t\t\n      JUMPDEST \t\t\t\n      PUSH [tag] 747\t\t\t\n      DUP2 \t\t\t\n      DUP6 \t\t\t\n      PUSH [tag] 444\t\t\t\n      JUMP \t\t\t\n    tag 747\t\t\t\n      JUMPDEST \t\t\t\n      SWAP4 \t\t\t\n      POP \t\t\t\n      PUSH [tag] 748\t\t\t\n      DUP2 \t\t\t\n      DUP6 \t\t\t\n      PUSH 20\t\t\t\n      DUP7 \t\t\t\n      ADD \t\t\t\n      PUSH [tag] 381\t\t\t\n      JUMP \t\t\t\n    tag 748\t\t\t\n      JUMPDEST \t\t\t\n      PUSH [tag] 749\t\t\t\n      DUP2 \t\t\t\n      PUSH [tag] 382\t\t\t\n      JUMP \t\t\t\n    tag 749\t\t\t\n      JUMPDEST \t\t\t\n      DUP5 \t\t\t\n      ADD \t\t\t\n      SWAP2 \t\t\t\n      POP \t\t\t\n      POP \t\t\t\n      SWAP3 \t\t\t\n      SWAP2 \t\t\t\n      POP \t\t\t\n      POP \t\t\t\n      JUMP \t\t\t\n    tag 285\t\t\t\n      JUMPDEST \t\t\t\n      PUSH 0\t\t\t\n      PUSH 80\t\t\t\n      DUP3 \t\t\t\n      ADD \t\t\t\n      SWAP1 \t\t\t\n      POP \t\t\t\n      PUSH [tag] 751\t\t\t\n      PUSH 0\t\t\t\n      DUP4 \t\t\t\n      ADD \t\t\t\n      DUP8 \t\t\t\n      PUSH [tag] 389\t\t\t\n      JUMP \t\t\t\n    tag 751\t\t\t\n      JUMPDEST \t\t\t\n      PUSH [tag] 752\t\t\t\n      PUSH 20\t\t\t\n      DUP4 \t\t\t\n      ADD \t\t\t\n      DUP7 \t\t\t\n      PUSH [tag] 389\t\t\t\n      JUMP \t\t\t\n    tag 752\t\t\t\n      JUMPDEST \t\t\t\n      PUSH [tag] 753\t\t\t\n      PUSH 40\t\t\t\n      DUP4 \t\t\t\n      ADD \t\t\t\n      DUP6 \t\t\t\n      PUSH [tag] 392\t\t\t\n      JUMP \t\t\t\n    tag 753\t\t\t\n      JUMPDEST \t\t\t\n      DUP2 \t\t\t\n      DUP2 \t\t\t\n      SUB \t\t\t\n      PUSH 60\t\t\t\n      DUP4 \t\t\t\n      ADD \t\t\t\n      MSTORE \t\t\t\n      PUSH [tag] 754\t\t\t\n      DUP2 \t\t\t\n      DUP5 \t\t\t\n      PUSH [tag] 445\t\t\t\n      JUMP \t\t\t\n    tag 754\t\t\t\n      JUMPDEST \t\t\t\n      SWAP1 \t\t\t\n      POP \t\t\t\n      SWAP6 \t\t\t\n      SWAP5 \t\t\t\n      POP \t\t\t\n      POP \t\t\t\n      POP \t\t\t\n      POP \t\t\t\n      POP \t\t\t\n      JUMP \t\t\t\n    tag 446\t\t\t\n      JUMPDEST \t\t\t\n      PUSH 0\t\t\t\n      DUP2 \t\t\t\n      MLOAD \t\t\t\n      SWAP1 \t\t\t\n      POP \t\t\t\n      PUSH [tag] 756\t\t\t\n      DUP2 \t\t\t\n      PUSH [tag] 375\t\t\t\n      JUMP \t\t\t\n    tag 756\t\t\t\n      JUMPDEST \t\t\t\n      SWAP3 \t\t\t\n      SWAP2 \t\t\t\n      POP \t\t\t\n      POP \t\t\t\n      JUMP \t\t\t\n    tag 288\t\t\t\n      JUMPDEST \t\t\t\n      PUSH 0\t\t\t\n      PUSH 20\t\t\t\n      DUP3 \t\t\t\n      DUP5 \t\t\t\n      SUB \t\t\t\n      SLT \t\t\t\n      ISZERO \t\t\t\n      PUSH [tag] 758\t\t\t\n      JUMPI \t\t\t\n      PUSH [tag] 759\t\t\t\n      PUSH [tag] 372\t\t\t\n      JUMP \t\t\t\n    tag 759\t\t\t\n      JUMPDEST \t\t\t\n    tag 758\t\t\t\n      JUMPDEST \t\t\t\n      PUSH 0\t\t\t\n      PUSH [tag] 760\t\t\t\n      DUP5 \t\t\t\n      DUP3 \t\t\t\n      DUP6 \t\t\t\n      ADD \t\t\t\n      PUSH [tag] 446\t\t\t\n      JUMP \t\t\t\n    tag 760\t\t\t\n      JUMPDEST \t\t\t\n      SWAP2 \t\t\t\n      POP \t\t\t\n      POP \t\t\t\n      SWAP3 \t\t\t\n      SWAP2 \t\t\t\n      POP \t\t\t\n      POP \t\t\t\n      JUMP \t\t\t\n    tag 312\t\t\t\n      JUMPDEST \t\t\t\n      PUSH 4E487B7100000000000000000000000000000000000000000000000000000000\t\t\t\n      PUSH 0\t\t\t\n      MSTORE \t\t\t\n      PUSH 12\t\t\t\n      PUSH 4\t\t\t\n      MSTORE \t\t\t\n      PUSH 24\t\t\t\n      PUSH 0\t\t\t\n      REVERT \t\t\t\n    tag 333\t\t\t\n      JUMPDEST \t\t\t\n      PUSH 0\t\t\t\n      PUSH 40\t\t\t\n      DUP3 \t\t\t\n      ADD \t\t\t\n      SWAP1 \t\t\t\n      POP \t\t\t\n      PUSH [tag] 763\t\t\t\n      PUSH 0\t\t\t\n      DUP4 \t\t\t\n      ADD \t\t\t\n      DUP6 \t\t\t\n      PUSH [tag] 389\t\t\t\n      JUMP \t\t\t\n    tag 763\t\t\t\n      JUMPDEST \t\t\t\n      PUSH [tag] 764\t\t\t\n      PUSH 20\t\t\t\n      DUP4 \t\t\t\n      ADD \t\t\t\n      DUP5 \t\t\t\n      PUSH [tag] 392\t\t\t\n      JUMP \t\t\t\n    tag 764\t\t\t\n      JUMPDEST \t\t\t\n      SWAP4 \t\t\t\n      SWAP3 \t\t\t\n      POP \t\t\t\n      POP \t\t\t\n      POP \t\t\t\n      JUMP \t\t\t\n    .data\n"
}